:020000040800F2
:10280000483A0020157100081971000801290008D4
:102810001D7100081F7100082171000800000000F0
:10282000000000000000000000000000237100080C
:10283000257100080000000027710008657300087A
:102840002B7100082B7100082B71000859890008B2
:102850002B7100082B7100082B7100082B710008E8
:102860002B710008998F0008A18F00082B710008B8
:102870002B7100082B7100082B7100082B710008C8
:102880002B7100082B7100082B7100082B710008B8
:102890002B7100082B7100082B7100082B710008A8
:1028A0002B7100082B7100082B7100082B71000898
:1028B000413100082B7100082B7100082B710008B2
:1028C0002B7100082B7100082B7100082B71000878
:1028D0002B7100087B7B0008F77D00081D80000835
:1028E000A98F0008ED890008E78F0008DFF80CD0F9
:1028F00011F0F6FA00480047A1300008483A0020DD
:1029000000BFFE48006800F4E060FD490843001D78
:10291000FA490860BFF3408F00BF00BFFEE730B543
:102920000246F848C06940F00100F649C861F6481F
:10293000B2FBF0F0401E8904088540F2E73088853C
:10294000002008808880012088811C200C2100281C
:1029500008DA0B071D0EE94B0C3300F00F04241F9F
:102960001D5503E00B071C0EE84B1C5400BF1C2038
:102970000121814043094FF0E02404EB8303C3F8B5
:10298000001100BF4FF08040008840F001004FF080
:102990008041088030BD10B504F038FC012004F0FF
:1029A000B7FC01F027FEDA48006820F47040D849EF
:1029B00008600846006840F48050086000F0ECFEB3
:1029C0000FF0BCFC4FF4E131D248006804F0D2FFB4
:1029D0000EF0EBFCCF49096848084FF4165105F09A
:1029E00055F903F0DDF8CB480068FFF798FF05F0D4
:1029F000E0FF441C204605F0CFFF0AF005FF10BDA4
:102A000010B504F0AAFCBF48C069C3490840BD49DD
:102A1000C8610846806920F4A440886100F0C2FEC5
:102A20000AF0F1FE10BDF8B5002400250020BB49D6
:102A30000870BBA001234FF4FA620090BA48016805
:102A4000BA4800680DF0EEFD0020B94908809FE00B
:102A5000641C0020B7490860FFF7D2FFB64806683B
:102A600000BFB54800688642FBD0A948001D006839
:102A700010F0080F02D1681CC5B200E00025A44880
:102A8000001D006810F0080F09D0AB480068AB4982
:102A90000968401AAA49B1F87810884201D2032D7A
:102AA00009DB0120A7490870A3480068A349086012
:102AB00001F00FF96DE0A448008810F4006F03D016
:102AC000A248007800B164E00CF059FC00B960E065
:102AD000002000F09BFD9848006803F072F90BF0AD
:102AE0008DFC9B48407F00B153E0934800689949B2
:102AF0000968401AB0F5167F20D304F087FB012047
:102B000004F006FC0FF01AFC4FF4E1318148006834
:102B100004F030FF0AF077FE874800688D490860AE
:102B20000DF023FE4FF480718B4802F072F90CF027
:102B300026FC10B10AF067FE00E02AE07E4800683B
:102B400001F02AFE01F056FD02E0002001F044FCF5
:102B5000824800780028F8D01E20B4FBF0F100FB7A
:102B60001140A8B97E48006850B907200FF065FDF4
:102B7000012802D004F0C8F90AE00FF06DFD07E06B
:102B80006420B4FBF0F100FB114008B904F0BCF97B
:102B90005EE700BFFFF7FFFE012060490870F8BD47
:102BA0001FB504460DF071F9654A6632A2F12001A5
:102BB000A1F110000DF062F9207868B169A003233B
:102BC0004FF47A7200905848016869A00DF02AFD10
:102BD00010B906200DF073F904F02EF96749684822
:102BE0000FF086FFCBE10020524908605248006890
:102BF00003F0E7F85048006801F0CEFD0DF065F9EC
:102C00006048007848B10CF02CFC0AF08AFE0DF008
:102C10007DFB4948006802F0F5F90CF04BF80CF028
:102C200041FB38B15848007820B90AF05FFE08B976
:102C300004F014F903F014FD02F0C2FF3E480068EE
:102C400001F0CAFB3C48006802F0DCF94F4800780C
:102C500080B14F493A48123010F0CBF850B90020FB
:102C60004A49087001204B490870494934481230DC
:102C700010F009F90DF026F9062824D14248007811
:102C80000028FAD13F480078002836D04248007822
:102C900038B9294800682F490968401AB0F5167FED
:102CA00012D3254800682B4908600DF05EFD4FF4F3
:102CB0008071294802F0ADF837480078002802D02A
:102CC000002035490870B5E00CF0ECFA002869D016
:102CD0000AF00CFE002865D10BF078FB002861D1CA
:102CE0002E48006840B90A48001D006810F0080F1F
:102CF00064D02B48007856E060E06CE00CED00E01A
:102D00000000FA050010024040420F0000E400E01D
:102D1000040C014030020020FCFFFDFF0F010020E9
:102D20004154480D00000000B8030020B403002007
:102D300000010020540200200403002004010020B0
:102D4000580400200E010020800100208401002092
:102D5000DC2B002008010020000000204901002099
:102D60001404002041542B435245473F0D000000FE
:102D70002B435245473A20302C310000C0D401008B
:102D80004C040020BC030020A50300202B030020DE
:102D9000842C00202C030020540300202C01002050
:102DA0005601002046E048B9F948007830B903F0F0
:102DB00049FC18B9F7480FF0A6FED8B30BF06EFF28
:102DC000C0B30EF029F818B90120F349087031E0BA
:102DD0000DF00DFC2EE0F148007810B90BF0F6FA7A
:102DE00010B10EF020F825E0ED480FF08CFE08BB86
:102DF000EC480078F0B9E6480078D8B903F022FC36
:102E0000C0B9E4480FF07FFEA0B9E7480068E74981
:102E10000968401AB0F5167F0AD20CF043FA38B1AF
:102E2000E348006830B9E348006810F0080F01D0AB
:102E30000DF0F9FFE048007818B10220DF49087072
:102E400002E00120DD490870DA48006810F0080F40
:102E500009D1D5480068DA490968401AD949B1F85A
:102E6000761088420ED2D348006810F0080F0FD0B9
:102E7000CD480068D2490968401AD249B1F87810A3
:102E8000884205D3C8480068CD49086000F021FF9A
:102E900001A80FF038FE58B94FF47A7101A80FF06D
:102EA00027FE0BF0ABFA00F0B5FC002000F0AEFB03
:102EB000C548007A50B10021C348017200F009FFF3
:102EC0000120C24908700020C149087003F0BAFB14
:102ED00010B90AF00BFD18B1BE49BF480FF008FE4B
:102EE00000F079FCB348006810F0080F04D04FF4EC
:102EF0009221BA480FF029F8AE48006810F0080F88
:102F00003DD0B7480078C8BBA9480068B0BB0CF0FA
:102F1000C9F998B30AF0EAFC80BB03F093FB68BBE5
:102F2000A048007850BB9A48007838BB0BF04EFAA6
:102F300020BB9A48007808BB9F480078F0B1A948A8
:102F40000078D8B9A8480078C0B992480FF0DBFDE6
:102F5000A0B99F48007828B99C48007870B99C486F
:102F6000007858B900209A4908700CF0ABFF062889
:102F700001D101202070012004B010BDFFE7964868
:102F80000FF0C1FD28B199480FF0BDFD00287FF476
:102F90002AAE0CF097FF062801D1012020700020F6
:102FA000EAE708B50020009002F0AAF80CF06CF9EE
:102FB00001F0DEFB02F0FAFE01208D4908601CE002
:102FC0008A480FF0A0FD18B98A4988480FF090FD93
:102FD0006846FFF7E5FD20B97648006810F0080F55
:102FE0000BD07448006810F0080F04D04FF4922101
:102FF0007A480EF0AAFFFFF716FDE1E710B562B6BA
:1030000004F004F9012004F083F93D207A49886135
:103010004FF000707949486005F0C2FD05F082FE6E
:103020007748006820F00F0075490860084600687E
:1030300040F00100086088157149103108605D4852
:10304000001F006820F470405A49091F08600846B4
:10305000006840F48050086000F09EFB00F090FA99
:1030600003F052FF01F0C6FA0FF068F902F0D2FD4A
:103070004FF4E1316348006804F07CFC0EF095F9F0
:103080006049096848084FF4165104F0FFFD02F04A
:1030900087FD02F068FF5B480068FFF740FC10BD49
:1030A000FFF7ACFF00F020F900F088FB4FF47A71D5
:1030B00038480FF01DFD01E0FFF773FFFCE708B58E
:1030C0000CF0E3FE3F4A6632A2F12001A1F11000AC
:1030D0000CF0D4FE0CF0D8F831E00CF0F6FE0CF059
:1030E000C0F90DF013F90CF0EDFE062827D125E00C
:1030F000694645480FF0FEFB80B900BF4348008891
:1031000010F0800FFAD002200FF0E6FC9DF80000CE
:103110003E49091D088002200FF0DEFC69463C484C
:103120000FF0E8FB50B900BF3A48008810F0800F5C
:10313000FAD09DF800003749091D0880D8E7CCE790
:1031400010B54FF08040008A10F0010F1FD04FF6ED
:10315000FE704FF0804108822F480068401C2E49C5
:103160000860084600683221B0FBF1F201FB120052
:1031700018B92948006802F02DFF2748006864212B
:10318000B0FBF1F201FB120008B903F0C1FE10BD63
:103190005501002034040020B00300205403002017
:1031A0009016002056010020040300200801002092
:1031B0002C010020080C0140BC0300206C01002001
:1031C0000401002058040020F00500200C0100201C
:1031D0000D010020C0D401004C040020240F002069
:1031E00034010020A50300200C0200204004002030
:1031F0004C020020005C2605001002400000014047
:1032000004080140300200209C1E002000480040BD
:103210004C230020003801401001002010B54FF46D
:10322000C172BC49BC480FF0B4FD10BD2DE9F04798
:103230004FF4C172B849B7480FF018FE08B9BDE89D
:10324000F08772B6DFF8D0920025002404E019F868
:1032500004000544601C04B2B4F5BF7FF7D3AE4848
:10326000C0F87E5104F0A7F800240DE0A94901EB55
:10327000842004F0E5F80746042F03D004F0A7F8F3
:1032800062B6DCE7601C04B2002CEFD0A24E002432
:103290001BE0A046E21704EB9272921056F822103F
:1032A0009C4AA01804F09CF90746E11704EB9171C1
:1032B000891056F82110974AA258914203D004F081
:1032C00086F862B6BBE7201D04B2B4F5C17FE0D337
:1032D00004F07DF862B605F06CFB00F1030840468F
:1032E00005F05AFB00BFAAE72DE9F04100260025B2
:1032F0004FF4C172874988480FF04BFD864F00BFDD
:10330000002403E0385D0544601C04B2B4F5BF7FBF
:10331000F8D38148D0F87E01A84206D0FF224FF4AE
:10332000C1717D480FF047FD01267B480088B0F54C
:10333000C17F04D04FF4C1707749088001267648D8
:10334000807CFF2803D101260020734988747248CD
:103350008078FF2805D171A16F48801C0FF093FD84
:1033600001266D4890F82400FF2805D16DA16A4818
:1033700024300FF088FD01266748B0F87600A0F5EC
:103380007F41FF3904D11E206349A1F87600012650
:103390006148B0F87800A0F57F41FF3905D14FF4BE
:1033A000E1605D49A1F8780001265B4890F836009D
:1033B000FF2803D0584890F8360070B95CA15648F1
:1033C00036300FF060FD54485BA1097880F8461054
:1033D00059A1097880F8661001264F4890F87A00C4
:1033E000FF280FD155A14C487A300FF04CFD57A162
:1033F000494899300FF047FD40F6D2704649A1F890
:10340000B8000126444890F8BA00FF280AD14BA121
:103410004148BA300FF037FD48A13F48D9300FF08E
:1034200032FD01263C4890F8F800FF2805D14BA159
:103430003948F8300FF027FD0126374890F817017A
:10344000FF2804D147A14A480FF01DFD012632484C
:1034500090F83601FF2805D146A145481F300FF0EE
:1034600012FD01262C4890F86601FF2805D12A4854
:1034700031A1097880F866110126274890F8760175
:10348000FF2804D10820244981F87601012622482A
:1034900090F87701FF2804D103201F4981F87701B4
:1034A00001261D4890F87801FF2804D128201A49E8
:1034B00081F8780101261848D0F87901401C03D121
:1034C0001549C1F879010126134890F87D01FF28BC
:1034D00004D10020104981F87D0101260EB1FFF7CB
:1034E000A5FEBDE8F08110B5014600230C4600BFE3
:1034F000002203E0A05C0344501C02B2B2F5BF7F7F
:10350000F8D3D1F87E01984201D0002010BD0120EF
:10351000FCE7000000F8010858040020322E393280
:1035200035000000424753325F475431303130009C
:10353000696E7465726E6574000000003231312E60
:1035400032312E3230342E31390000003231312EFA
:1035500032312E3230342E323300000047543130B5
:1035600032350000303931333831323737370000E7
:103570006F0500203039373837373038353600009E
:1035800000218B4A1160002017E0002200EB80032D
:103590008749091D19444A7000EB80038449091DBD
:1035A000CA5400EB800319448A7000EB8003804901
:1035B000091D1944CA70411CC8B20428E5DB7D49C5
:1035C000096821F470417B4A11601146096841F491
:1035D0000041116077490C31096841F00801754AD2
:1035E0000C3211607349096821F47021714A11602D
:1035F0001146096841F4002111606E490C310968D7
:1036000041F010016B4A0C321160704710B5024650
:1036100067490968491C664B196000BF6549083154
:10362000096811F0080F06D019468979491CCBB2F8
:103630005F498B7105E05E49C979491CCBB25C4991
:10364000CB715C490831096811F0100F06D0584958
:10365000C97A491CCBB25649CB7205E05449097B63
:10366000491CCBB252490B7352490831096811F019
:10367000200F06D04E49097C491CCBB24C490B7433
:1036800005E04B49497C491CCBB249494B74494937
:103690000831096811F0200F06D04549497D491CC1
:1036A000CBB243494B7505E04149897D491CCBB2FA
:1036B0003F498B754049896811F0010F06D03C499C
:1036C000897E491CCBB23A498B7605E03849C97EE0
:1036D000491CCBB23649CB7600205AE000EB800380
:1036E0003349091D1944897801290ED100EB800363
:1036F0002F49091D1944C97839B9012300EB800409
:103700002B49091D21444B7015E000EB800328492B
:10371000091D1944897871B900EB80032449091DFA
:103720001944C978012906D1002300EB80042049FF
:10373000091D21444B70002300EB80041C49091D26
:1037400021448B7000EB80041949091D2144CB7082
:1037500000EB80031649091D19444B7800EB8004E7
:103760001349091D095D8B4211D0012300EB800430
:103770000F49091D21440B7100EB80030C49091D01
:1037800019444B7800EB80040949091D0B55411C75
:10379000C8B20528A2DB10BD4FF400600549103106
:1037A000086070474FF400600249143108607047A8
:1037B000F0050020000C01400010014010B5FD484C
:1037C0000EF02FFB10BD0020FB4908707047012050
:1037D000F9490870704710B5F8480068F74949681A
:1037E000884215D0F648006890B9F64890F867000E
:1037F00028B10020F34981F867000EF06FFCF14812
:103800000EF0C4FC20B9EF48ED490860002010BD5F
:103810000120FCE72DE9FC5F4FF0000AEA48006850
:10382000401CE94908600EF033FAE849684609F09F
:10383000F7FE684609F026FE8346E448806A0128C0
:1038400003D0E248806A02280DD1E048D0F8980001
:10385000002874D0DD48D0F89C0000286FD058466E
:1038600009F065FE6BE0D948806A032867D1D74824
:103870004068712863DBD548406A00285FDDD34883
:1038800000221346D0E91A51284610F0BFF856D04E
:10389000CE49D1E91C5100221346284610F0B6F853
:1038A0004DD0CA480022CA4BD0E91A51284610F020
:1038B000ADF808D9C549D1E91A510022C54B2846AF
:1038C00010F0B8F83BD8C1480022C34BD0E91C51D6
:1038D000284610F09BF808D9BC49D1E91C510022B8
:1038E000BE4B284610F0A6F829D8BD4991F87801BA
:1038F00010F03EF80546B5488030D0E900733A46EE
:10390000284610F083F80ED8B6480FF0FCF850B9EE
:1039100047F23051B3480FF0EBF8B348006840F479
:103920000070B14908600120B04908704FF4C872B6
:10393000A649AF480FF02DFA584609F0F8FDA24805
:1039400000681E21B0FBF1F201FB120000283ED1FD
:10395000A748806A03283AD1A4480078B8B3002069
:10396000A2490870A248D0E91A2110460EF0ACFA1C
:10397000A04908609E49D1E91C2110460EF0A4FA26
:103980009D4908609A49D1E90E2110460EF09CFA33
:103990009A49086096488830D0E9002110460EF018
:1039A00093FA974908604FF48C2192480EF0CDFAB3
:1039B0004FF48E2190480EF0C8FA4FF490218F48B2
:1039C0000EF0C3FA4FF492218D480EF0BEFA8D48E6
:1039D00001688D4809F05FFE7C498031D1E9002102
:1039E000104610F03BF881468849484610F052F8DE
:1039F00026D37648806A032822DB744840686F2803
:103A00001EDB7248406A01281ADB7049D1E91A515D
:103A10000022134628460FF0F9FF11D06B48002210
:103A20001346D0E91C5128460FF0F0FF08D0674834
:103A300000221346D0E90E5128460FF0E7FF01D1CE
:103A40004FF000097248C0F8109001460868002144
:103A500010F020F80ED16E490869002110F01AF814
:103A600008D1012404E00020694941F82400641CC5
:103A7000042CF8D3012407E0654850F82410601E98
:103A8000634A42F82010641C052CF5D36048D0F836
:103A90000090CA465F4950460FF094FD05465E48C7
:103AA000016828460FF000FD5B4908605B4800781C
:103AB00000287DD0002059490870534809F0E2FCE5
:103AC0003C490860002081F8660055495548006867
:103AD0000FF042FD05460FF058FF3649A1F8580097
:103AE0004F49514800680FF037FD05460FF04DFF74
:103AF0003049A1F85A003E49D1E91A012D4A5060D7
:103B000091603B48D0E91C10D16010613848D0E981
:103B10000E2110460FF0A2FF264948613448D0E933
:103B20001A10244A116250623148D0E91C10916287
:103B3000D0622F48D0E90E2110460FF08FFF1D49AB
:103B400008630846C0F818A0002088632849883117
:103B5000D1E9002110460FF081FF1649C86100200D
:103B600048648864A1F85C00A1F85E00A1F86000D8
:103B7000A1F86200A1F864002748006848632B4858
:103B8000006808640020C8632948007881F869004B
:103B9000284800680FF0F9FE064981F86A00002005
:103BA000A1F85600124890F8980081F8680043E0A8
:103BB0008DE0000058350020180100203836002024
:103BC0002C010020240600202001002028320020A3
:103BD00000805640008056C000806640008066C06D
:103BE00058040020940600208001002028010020B5
:103BF000B8330020DC0E0020E80E0020F40E002078
:103C0000000F002004030020180300200000A04043
:103C10001006002000006145300100203401002022
:103C200000007A44380100203C01002044020020BA
:103C300028030020C00300200020A1F85600FE4801
:103C4000006810F0080F06D00846B0F8560040F0A3
:103C50000100A1F85600F848006810F0100F07D0D6
:103C6000F648B0F8560040F00200F449A1F85600BA
:103C7000F148006810F0200F07D0F048B0F8560067
:103C800040F00400ED49A1F85600EB48006810F040
:103C9000200F07D0E948B0F8560040F00800E74987
:103CA000A1F85600E448006810F0080F0CD0E44971
:103CB00050460FF0F9FE07D2E048B0F8560040F049
:103CC0001000DE49A1F85600DC480EF0A2FABDE86B
:103CD000FC9F0120DB490870704710B502460B4677
:103CE0000020002103E0545C0444E0B2491C9942E6
:103CF000F9D310BD2DE9F04FD1B004468946924664
:103D000000208DF8380089F80000216804A809F027
:103D1000C2FCCDA10EA80FF060F8CD490EA80FF09F
:103D20005CF80022CBA106A810F0B0FA06A90EA8F4
:103D30000FF053F89DF9170000909DF916309DF98A
:103D40001520C6A106A810F0A1FA06A90EA80FF02A
:103D500044F8BDF91000642190FBF1F201FB120759
:103D60009DF9130000909DF912303A46BBA106A8B8
:103D700010F08CFA06A90EA80FF02FF86768A1685A
:103D80000022134638460FF041FE0BD06768A36847
:103D90003A46B6A106A810F079FA06A90EA80FF0C7
:103DA0001CF803E0B3A10EA80FF017F8E76821692B
:103DB0000022134638460FF029FE0BD0E76823692E
:103DC0003A46AAA106A810F061FA06A90EA80FF0BB
:103DD00004F803E0A7A10EA80EF0FFFFA5A10EA80E
:103DE0000EF0FBFFA4A10EA80EF0F7FFA2A10EA8F3
:103DF0000EF0F3FFA0A10EA80EF0EFFF94F856000E
:103E000010F0100F04D09DA10EA80EF0E6FF03E005
:103E100099A10EA80EF0E1FF94F8560010F0200FC3
:103E200004D096A10EA80EF0D8FF03E092A10EA830
:103E30000EF0D3FF94F8560010F0400F04D08FA17D
:103E40000EA80EF0CAFF03E08BA10EA80EF0C5FF6E
:103E500094F8560010F0800F04D088A10EA80EF040
:103E6000BCFF03E084A10EA80EF0B7FFB4F8580021
:103E70000FF079FD82490860084600680FF0B2FD36
:103E800005460E46284631460FF093FD4F904F9859
:103E90000FF06EFD2A463346CDE900010FF076FCA7
:103EA00007460022774B0FF074FCCDE902010FF0BA
:103EB00080FD4E9074A106A84E9B4F9A10F0E6F933
:103EC00006A90EA80EF089FFE06B0FF08BFD0546EA
:103ED0000E46284631460FF06CFD4F904F980FF07C
:103EE00047FD2A463346CDE900010FF04FFC002282
:103EF000644BCDE902010FF04CFC07460FF059FD71
:103F00004E9061A106A84E9B4F9A10F0BFF906A9EA
:103F10000EA80EF062FF226C5EA106A810F0B6F9A2
:103F200006A90EA80EF059FF52A10EA80EF055FFDB
:103F300051A10EA80EF051FFB4F8560010F4007F06
:103F400004D04EA10EA80EF048FF03E04AA10EA82F
:103F50000EF043FFB4F8560010F4807F04D047A160
:103F60000EA80EF03AFF03E043A10EA80EF035FFB5
:103F700094F8560010F0080F04D03FA10EA80EF0E0
:103F80002CFF03E03DA10EA80EF027FF94F8560089
:103F900010F0040F04D039A10EA80EF01EFF03E0AC
:103FA00035A10EA80EF019FF94F8560010F0020F7C
:103FB00004D031A10EA80EF010FF03E02FA10EA82F
:103FC0000EF00BFF94F8560010F0010F04D02AA158
:103FD0000EA80EF002FF03E028A10EA80EF0FDFED1
:103FE000A0690FF0FFFC05460E46284631460FF04B
:103FF000E0FC4F904F980FF0BBFC07462A46334633
:104000000FF0C4FB0022244BCDE900010FF0C1FBEF
:10401000CDE902010FF0CDFC4E9020A106A84E9BE9
:104020004F9A10F033F906A90EA80EF0D6FEE069FB
:104030000FF0D8FC054635E0080C0140583500204B
:1040400000007041340100202C41422C000000008F
:104050007C0400202C253033640000002C253032F5
:104060006425303264253032640000002C252E3067
:10407000366C66002C30000030000000310000007B
:104080001C010020000059402C25642E253032648C
:10409000000000002C256400000024402C25642E24
:1040A000256400000E46284631460FF082FC4F90F2
:1040B0004F980FF05DFC07462A4633460FF066FB2B
:1040C0000022B34BCDE900010FF063FBCDE9020103
:1040D0000FF06FFC4E90AFF23C0106A84E9B4F9A3A
:1040E00010F0D4F806A90EA80EF077FEA06B0FF022
:1040F00079FC05460E46284631460FF05AFC4F9093
:104100004F980FF035FC07462A4633460FF03EFB2A
:1041100000229F4BCDE900010FF03BFBCDE90201EE
:104120000FF047FC4E90AFF28C0106A84E9B4F9AC1
:1041300010F0ACF806A90EA80EF04FFE606B0FF061
:1041400024FC07463A46AFF2B40106A810F09EF8E8
:1041500006A90EA80EF041FEAFF2E8010EA80EF07F
:104160003CFE94F86820AFF2D40106A810F08EF857
:1041700006A90EA80EF031FE86A10EA80EF02DFEA7
:1041800085A10EA80EF029FE82A10EA80EF025FE34
:1041900082A10EA80EF021FE276A616A0022134652
:1041A00038460FF033FC0CD0276A636A3A46AFF208
:1041B000441106A810F06AF806A90EA80EF00DFE2C
:1041C00004E0AFF250110EA80EF007FEA76AE16AF4
:1041D0000022134638460FF019FC0CD0A76AE36A98
:1041E0003A46AFF2781106A810F050F806A90EA8CA
:1041F0000EF0F3FD04E0AFF284110EA80EF0EDFD19
:1042000094F86A20AFF2741106A810F03FF806A9DE
:104210000EA80EF0E2FD94F8560010F0200F05D025
:10422000206B0FF0DFFB05460E4604E060690FF0DF
:10423000D9FB05460E46284631460FF0BAFB4F9093
:104240004F980FF095FB2A463346CDE900010FF059
:104250009DFA07460022534B0FF09BFACDE902016D
:104260000FF0A7FB4E90AFF2E01106A84E9B4F9ABD
:1042700010F00CF806A90EA80EF0AFFD94F8692016
:10428000AFF2F01106A810F001F806A90EA80EF082
:10429000A4FDB4F858000FF066FB434903900FF0FB
:1042A00091F983460FF09EFB07463A460B463FA125
:1042B00006A80FF0EBFF06A90EA80EF08EFDA06C6D
:1042C0004FF46161B0FBF1F201FB12003C21B0FB45
:1042D000F1F7A06C4FF46161B0FBF1F83B46424648
:1042E00034A106A80FF0D2FF06A90EA80EF075FDA6
:1042F000606C4FF46161B0FBF1F201FB12003C21F4
:10430000B0FBF1F7606C4FF46161B0FBF1F83B4634
:1043100042462BA106A80FF0B9FF06A90EA80EF081
:104320005CFD2AA148460EF058FD0EA80EF07FFD58
:1043300007463A46AFF2A42106A80FF0A7FF06A948
:1043400048460EF04AFD0EA948460EF046FD484686
:104350000EF06DFD804641464846FFF7BEFC07461D
:104360003A46AFF2C42106A80FF090FF06A94846CE
:104370000EF033FD17A148460EF02FFD48460EF013
:1043800056FDAAF80000002051B0BDE8F08F70473C
:10439000000024402C000000312E3000322E393233
:1043A000350000000000594000007A442C25322ED0
:1043B000336600002C253032642530326400000062
:1043C0002C25303264253032642C00002441545AAC
:1043D000000000000D0A00002DE9F04F87B0CF4823
:1043E000B0F84E0000287DD00020CD49086048601C
:1043F0008860CC4908603DE0C849CA48006831F986
:104400001010C64AC7480068C01C32F91000A0F25C
:10441000D150081AC24909680844C14908601146C8
:10442000C0480068401C31F91010BE480068C01C2C
:1044300032F91000A0F2D150081AB949496808446D
:10444000B74948601146B7480068801C31F9101020
:10445000B4480068C01C32F91000A0F2D150081A0C
:10446000AF4989680844AE498860AE480068001DBD
:10447000AC490860AB4800682828BDD30020A74994
:10448000A1F84E00A64800680A2190FBF1F0A4496B
:104490000860084640680A2190FBF1F0A049486096
:1044A000084680680A2190FBF1F09D498860086801
:1044B0000FF050FA01900FF095FA9B4A9B4BCDE913
:1044C00002010FF066F980468946994800680FF0AE
:1044D00089FA824642464B460FF0B4F806464FF042
:1044E000663200E076E0934B0FF0ACF800224FF01C
:1044F0008043CDE904010FF0BEF904460FF0AEFA97
:104500008B490860864948680FF024FA03900FF041
:1045100069FA854A854BCDE904010FF03AF98246E4
:104520008B46854800680FF05DFA064652465B46AA
:104530000FF088F8804600224FF080430FF09BF97F
:1045400004460FF08BFA7C490860754988680FF0C3
:1045500001FA01900FF046FA80464FF06632774B31
:104560000FF017F90022764BCDE902010FF083F925
:1045700006460F46734800680FF034FA32463B4651
:10458000CDE904010FF05EF8044600224FF08043AD
:104590000FF071F982460FF061FA6A490860084627
:1045A00000680FF01FFA0646674A684B0FF0EEF8F6
:1045B0008246674A674B0FF05EF904460022664B5D
:1045C0000FF040F880460FF049FA64490860012076
:1045D0006349087007B0BDE8F08F10B500210120D5
:1045E00005F079FB5F4804F0F1FF00204B49A1F88A
:1045F0004E0010BD00B591B00320ADF800000020C2
:104600008DF803006946584804F06CFDFFF7E5FF9C
:104610000121084605F05FFB01214FF4027005F00F
:1046200067FB524804F0AAFE4E484C3001903B48CC
:104630000290002003902820049000200590802004
:10464000069040000790800008902020099000020A
:104650000A9000200B9001A9444804F031FF00208B
:104660000C9001208DF834008DF835004FF4602057
:104670000E9000200F9004208DF840000CA93948BE
:1046800004F0CBFF022301220921364805F05DF832
:1046900002231A460821334805F057F80223032263
:1046A0001021304805F051F80223042211212D4831
:1046B00005F04BF801212D4804F02DFF0121294878
:1046C00004F0E2FF0121274804F0D3FF012005F0A8
:1046D00061F9244804F0EFFF00BF224804F0F0FF26
:1046E0000028FAD11F4804F0F5FF00BF1D4804F070
:1046F000F6FF0028FAD101211A4804F0FAFF00BFA2
:10470000022004F023FF0028FAD0022004F031FF39
:1047100000201349087011B000BD0000A006002061
:10472000F006002050010020EB51B81E852B703F91
:10473000380100206666E63F3C01002066660A40BC
:104740000000B04040010020E17A14AE47E1F63F9E
:1047500022FDF675E09C713F0000394044010020C5
:104760004901002000240140000C014008000240E3
:1047700010B5FA49FA480EF0BBF94FF47A71F948CE
:104780000EF0B6F94FF47A71F7480EF0B1F9142132
:10479000F6480EF017FB10BDFEB507460024F4489E
:1047A0000068F4490968884226D0F2480068F04958
:1047B0000860EE48407C02281ED0EFA1F0480EF0C1
:1047C0003DFBC8B1ECA1EE480EF05DFBFEF72EFDFF
:1047D000E9A3EC4AECA110460FF058FDC4B2032047
:1047E00047F2305102222346CDE900210290E54AEA
:1047F000E849DE480AF0F0FDE7480078F8B1DB4808
:10480000407C02281BD00020E3490870DC4A1032AB
:10481000E2A1DC480FF03AFDDA480EF008FBC4B222
:10482000032047F2305102222346CDE900210290B5
:10483000D44AD849CD480AF0CFFDFEF7F7FCCB4863
:10484000407C022833D0DB48006880B3D948006838
:104850004FF46161B0FBF1F0C949891E91F97611FD
:10486000884224D0D34800684FF46161B0FBF1F076
:1048700040B2C349891E81F87601084690F9762135
:10488000CDA1C0480FF002FDBE480EF0D0FAC4B270
:10489000032047F2305102222346CDE90021029045
:1048A000B84ABC49B1480AF097FDFEF7BFFCC948B9
:1048B000007848B9A949AA480EF01AF94FF47A715C
:1048C000A9480EF015F91AE0A5480EF01CF988B1B8
:1048D000C14800221346D0E91A5128460FF096F835
:1048E0000DD1BD4800221346D0E91C5128460FF0D7
:1048F0008DF804D10020B9490870B6490870B8484D
:10490000007820B9954997480EF0F2F818E09548DC
:104910000EF0F9F888B1B049D1E91A5100221346D6
:1049200028460FF073F80BD1AB4800221346D0E9AC
:104930001C5128460FF06AF802D10020A8490870DF
:10494000A7480078F8B18948407C02281BD0002095
:10495000A3490870A3480078A8B10020A1490870B5
:10496000A1480EF011F9C4B26006040E032047F20C
:10497000305101222346CDE9002102909A4A85490F
:104980007A480AF029FDFEBD2DE9F04389B00646BC
:1049900089460027954901A80EF057F901A930462C
:1049A0000EF0C9F905461DB300208C4908708949ED
:1049B000087001208A49087005F10C000EF0E4F837
:1049C000C4B26006040E9CB1A02C11D2A02186486E
:1049D0000EF0F8F9224605F10C0183480EF0D9F9E2
:1049E00081480EF0D1F8804641467F480EF0DCF851
:1049F000384609B0BDE8F0832DE9F04F8DB0804610
:104A000089461E464FF0000A00200C908346474618
:104A1000774978480EF019F900F0FF0A75480EF052
:104A2000B3F80146029073480EF0BEF84FEA4A60B0
:104A30004FEA106A00250CE00EF098F90068795DE5
:104A4000405C10F0080F03D0785D0EF09CF97855AB
:104A50006D1C38460EF0EBF9A842EDD866A1384639
:104A60000EF0C7F90446002C36D04A49654809F0D3
:104A7000E3FD68B1032047F2305101225346CDE9EE
:104A8000002102905B4A434938480AF0A5FC16E031
:104A90005DA15C4809F0D0FD68B1032047F23051B8
:104AA00001225346CDE900210290524A5AA12F48D3
:104AB0000AF092FC03E0FF200DB0BDE8F08F03AADE
:104AC00058A120460EF0E8F9122203A92C48223002
:104AD0000EF05FF94FF0010B55A138460EF089F941
:104AE0000446002C38D02B49464809F0A5FD68B192
:104AF000032047F2305101225346CDE900210290B4
:104B00003C4A244919480AF067FC14E03EA13D489C
:104B100009F092FD68B1032047F23051012253465B
:104B2000CDE900210290334A3BA110480AF054FC21
:104B300001E0FF20C0E741A1164810300EF0A3F9B4
:104B4000FEF774FB2A4948460EF09DF948460EF0E0
:104B50006EF930600020AFE77AE00000E0930400D7
:104B6000800800208C080020980800202C070020D6
:104B70005C01002004030020322E39323500000091
:104B80005A0400204007002025733A5665722573A9
:104B90000A0000008E0500202C0300204E657720BF
:104BA000494D454920697320557064617465643AC4
:104BB000257300000C0300204E65772074696D6535
:104BC0007A6F6E6520697320557064617465643A0C
:104BD0002564000055010020B83300205401002056
:104BE0005601002057010020E0070020C24C0108B8
:104BF000B44C01080C07002041424346472C313495
:104C00002C000000EC2C00202B3834393738373793
:104C1000393232320000000038343937383737390A
:104C20003232320041424346472C31342C25730046
:104C300052464944205245534554000039393939C8
:104C400039393939393939393939393900000000B8
:104C5000C2A138460EF0CDF80446002C43D0C2491C
:104C6000C24809F0E9FC68B1032047F23051012243
:104C70005346CDE900210290BD4ABB49BD480AF028
:104C8000ABFB16E0AFF28001B84809F0D5FC70B17B
:104C9000032047F2305101225346CDE90021029012
:104CA000B34AAFF28C01B3480AF096FB01E0FF2053
:104CB00002E70DF000FAB04903A80EF0E4F8FF2275
:104CC0004FF4C171AC4824380EF075F8FEF7AEFA17
:104CD000FEF70AFB03A9A8480EF0D5F8FEF7A6FADE
:104CE0000120A6490870A6A138460EF082F80446B5
:104CF000002C3AD0AFF280139F4AA4A1A7480FF02E
:104D0000C5FA00F0FF0A9849984809F095FC68B187
:104D1000032047F2305102225346CDE90021029090
:104D20009E4A914993480AF057FB16E0AFF22811CA
:104D30008E4809F081FC70B1032047F23051022205
:104D40005346CDE900210290944AAFF234118948CC
:104D50000AF042FB01E0FF20AEE6914948460EF022
:104D600092F848460EF063F830608EA138460EF097
:104D700040F80446002C45D07B497C4809F05CFC97
:104D800068B1032047F2305101225346CDE900219A
:104D90000290774A744977480AF01EFB16E0AFF29A
:104DA0009811724809F048FC70B1032047F2305165
:104DB00001225346CDE9002102906D4AAFF2A811BD
:104DC0006C480AF009FB01E0FF2075E667480078AF
:104DD0002B2805D16549491C75480EF054F803E0AD
:104DE000624973480EF04FF8724973480DF080FE27
:104DF0006B4948460EF047F848460EF018F8306008
:104E0000002059E6BBF1000F01D0FEF70FFAFF209A
:104E100052E62DE9F04192B006460F464FF4FA7083
:104E20000DF05AFE65A003234FF47A720090664895
:104E30000168664800680BF0F5FB10B112B0BDE8E0
:104E4000F0814FF4FA700DF047FE61A0002340F6A8
:104E5000B83200905C4801685C4800680BF0E2FBE7
:104E600042F210710CA80DF043FE4FF47A700DF071
:104E700033FE6AE00CA80DF046FE00B9DEE703A998
:104E800057480DF037FD10B99DF80C4000E061E087
:104E900003A953480DF02EFD38B99DF80C004FF4CE
:104EA0007F4101EA0020044300E053E000204D4927
:104EB000087022464CA104A80FF0E8F904A80BF0F2
:104EC000A1FF40F6B8310FA80DF012FE04E00FA8C4
:104ED0000DF019FE00B903E0424800780028F6D032
:104EE00000BF0020434981F8FF004FF47A700DF0B5
:104EF000F3FD41A003234FF47A72CDE90004324858
:104F00000168324800680BF08DFB3648007800B924
:104F10001BE038480DF08BFF85B2FF2D00D9FE2530
:104F20000020344948550021324A681C11540020A1
:104F3000012102AB3A46CDE9001031462D48FFF77A
:104F40005BFD8046FEF772F900BF25480DF0E9FCD5
:104F500002288FDA00BF00BF70E700002A4338380C
:104F60003A383823000000008E050020EC2C002089
:104F70000C0700202C0700207C04002015010020D5
:104F80002A4333303A3330230000000049443A25A5
:104F9000732C5665723A257300000000400700200C
:104FA000B44C01084754313032354657554400005F
:104FB000FC060020C02709003404002041542B4384
:104FC0004D47463D310D0000B8030020B4030020DA
:104FD00041542B434D474C3D22414C4C220D000087
:104FE000DC2C00205703002041542B434D47523DF9
:104FF00025640D00FC2C002041542B434D47443DBB
:1050000025640D0070B5C4B00646002408F06EFC9F
:10501000012849D12648C079002845D02548407C40
:10502000022841D0012024490870214981F822003A
:10503000224908700020224908702248416F006F01
:10504000CDE902011F48C16E806E1F4ACDE9000103
:105050001EA104A80FF01AF984B204A926480DF085
:10506000F4FD84B224480DF08FFD05462946224800
:105070000DF09AFD4FF6FF7000EA44041F490C48FA
:105080000D3009F0D9FA68B1032047F230510122FE
:10509000E3B2CDE900210290174A184905480AF009
:1050A0009BF901E044B070BD00BFFBE77047000012
:1050B000DC2B0020A408002057010020550100200F
:1050C00054010020B8330020C94C01082573210A7F
:1050D000687474703A2F2F6D6170732E676F6F67ED
:1050E0006C652E636F6D2F6D6170733F713D252E62
:1050F00036662C252E366600B80800208E05002066
:105100001CB56C4604226946FE480DF038FAFE498B
:105110002068086008460068B0F1A53F33D104223A
:105120006946F848001D0DF02AFAF8492068086021
:1051300008460068B0F1006F07D30020F44908600A
:10514000F2490860F349086026E004226946ED4808
:1051500008300DF014FAF04920680860084600682D
:10516000401C0AD1E8490860E9490860EB49086039
:10517000E6490860E74908601CBD0020E74908606F
:10518000E349086008E00020E1490860E34908605D
:10519000DE490860DF49086000BFEDE710B54FF455
:1051A0008062DF49DF480DF081FB4FF47A71DE4801
:1051B0000DF09EFC10BD0FB438B505A80090DB487B
:1051C000009A04990FF076F8054600200090FF2D14
:1051D00000D3FF2500240DE0D548007848B1D3481E
:1051E000015DD0480DF071FBD0480119CD480DF09C
:1051F00081FB641CAC42EFD3002038BC5DF814FB8B
:1052000010B502460B460020002103E0545C044424
:10521000E0B2491C9942F9D310BD2DE9F04F89B095
:1052200007460C4615469846DDF848B0C148007858
:1052300020B10020387109B0BDE8F08F0120BD49D0
:10524000087038790C2850D007DC07287ED2DFE8B8
:1052500000F011383C7D40444800122877D004DC2F
:105260000D2875D0112871D1E5E1FD2871D0FE28F7
:10527000F9D1FBE3AE48007810B3BBF1000F1FD0AB
:105280000020039006E00398401C039003984045DB
:1052900000D306E003982918A2480DF02BFB002844
:1052A000F1D000BF039858B103202071CA202070AC
:1052B00003986080A5606188A068FFF7A1FF207354
:1052C000F4E300209A490870F0E30120984908703F
:1052D000ECE3022096490870E8E303209449087043
:1052E000E4E3042092490870E0E3B8680078009095
:1052F0000098B968497840EA012000900098B968A0
:10530000897840EA014000900098B968C97840EA7D
:1053100001600090B8680079ADF80400BDF80400A1
:10532000B968497940EA0120ADF80400B868001D69
:1053300002900098B0F1A53F33D14FF4C1700390B3
:10534000CA2020700C202071608003E0ADE380E172
:105350008EE05AE36E463078287070786870B078C6
:10536000A870F078E8704FF4C170039003AE307805
:10537000287170786871B078A871F078E871CDF80C
:105380000C8000BF3078287270786872B078A8728C
:10539000F078E872A5606188A068FFF731FF20739C
:1053A00065E00098B0F15A3F15D1CA2020700C205A
:1053B0002071042060806E463078287070786870A4
:1053C000B078A870F078E870A5606188A068FFF7F1
:1053D00017FF20734BE0BDF8041000980844B0F5A7
:1053E000C17F2CD8BDF80400404528D85249009808
:1053F00046180020039006E00398315C001D2954F4
:105400000398401C0390BDF8040003998842F3D828
:105410000398001D6080CA2020700C2020716E4609
:105420003078287070786870B078A870F078E8707C
:10543000A5606188A068FFF7E3FE207317E04FF0D6
:10544000FF300090CA2020700C2020710420608062
:105450006E463078287070786870B078A870F078F0
:10546000E870A5606188A068FFF7CAFE20731DE39D
:10547000B868007800900098B968497840EA01203F
:1054800000900098B968897840EA0140009000983F
:10549000B968C97840EA01600090B868001D0290C0
:1054A0000098B0F1A53F49D1CA2020700D2020718D
:1054B0000C2060806E463078287070786870B07804
:1054C000A870F078E8704FF4C170039003AE3078A4
:1054D000287170786871B078A871F078E871CDF8AB
:1054E0000C8000BF3078287270786872B078A8722B
:1054F000F078E872A5606188A068FFF781FE2073EC
:1055000098E00000041002006801002074010020EF
:105510007801002064010020700100207C0100203F
:10552000640A0020640E0020580A00205809002058
:105530006C0100206D01002058040020798800983B
:105540000844001FB0F5C17F5CD8FD49009846189B
:105550000020039006E0DDE90201405C70540398EE
:10556000401C03907888001F03998842F3D8039960
:105570000098084400900098B0F5C17F17D3FDF75C
:1055800055FECA2020700D202071042060806E46D8
:105590003078287070786870B078A870F078E8700B
:1055A000A5606188A068FFF72BFE20737EE2C8F536
:1055B000C1710098884204D90098C0F5C170039069
:1055C00001E0CDF80C8008206080CA2020700D20FA
:1055D00020716E463078287070786870B078A87046
:1055E000F078E87003AE3078287170786871B07820
:1055F000A871F078E871A5606188A068FFF700FEE7
:10560000207317E04FF0FF300090CA2020700D206B
:105610002071042060806E46307828707078687041
:10562000B078A870F078E870A5606188A068FFF78E
:10563000E7FD20733AE2CA20207011202071052076
:105640006080C0A0A0606188A068FFF7D9FD2073CA
:105650002CE2B868007800900098B968497840EA70
:10566000012000900098B968897840EA01400090D4
:105670000098B968C97840EA01600090B868001DD8
:1056800002900098B0F1A53F7ED1B049B0480DF02E
:105690002FFA4FF0A530AF4908600020AE490860EE
:1056A00002980078AD49086002984078096841EA9C
:1056B0000020AA49086002988078096841EA004001
:1056C000A64908600298C078096841EA0060A349C9
:1056D000086002980079A249086002984079096838
:1056E00041EA00209E49086002988079096841EAF1
:1056F00000409B4908600298C079096841EA00604F
:105700009749086001214FF404300CF074FE934E69
:105710000422314693480CF009FF4FF0A530039066
:1057200003AE042231468F48001F0CF0FFFE8C4E62
:10573000042231468B48001D0CF0F8FECA20207070
:10574000122020710C2060806E46307828707078AE
:105750006870B078A870F078E870804800680390AE
:1057600003AE3078287170786871B078A871F078DD
:10577000E871CDF80C8000BF3078287270786872BC
:10578000B078A872F07800E007E0E872A560618860
:10579000A068FFF735FD207336E16F49009809686E
:1057A000884251D1798800980844001F03906A49C3
:1057B000039808607888A0F1040AB8F1200F35D367
:1057C000BAF1200F32D3002003902CE0DDE9022350
:1057D000D118009A02F50832D01820220CF0A6FE4B
:1057E000009901F50831039A8818202204A90CF0C9
:1057F000C6FE4FF0000910E0DDE902014944405CBB
:1058000004A911F80910884205D057480068524988
:105810000860CDF80CA009F10109B9F1200FEBD314
:1058200003982030039003985045CFD34A4800682E
:105830004D490968401AB0F5805F05D346480068B5
:10584000000B000348490860434800680090424844
:10585000006842490968884271D34FF0000A00206D
:10586000039005E0FF20039968540398401C0390BF
:1058700003982028F6D3002003900CE037490968EC
:1058800001F50831039A8818202229460CF04EFEB3
:105890000398203003900398B0F5806FEED300207A
:1058A000039024E020222946039800F508300CF0EC
:1058B00066FE4FF000090CE0039848442749096848
:1058C000884203D215F80900824400E004E009F19F
:1058D0000109B9F1200FEFD300BF039848441F49D5
:1058E0000968884200D307E00398203003901B49E1
:1058F000039809688842D5D300BF194800688245DB
:105900004FD10220194908704FF05A3011490860F0
:10591000009000201049086001214FF404300CF081
:105920006AFD0E4E042231460E480CF0FFFD0C4E6F
:10593000042231460B48001D0CF0F8FD18E04EE043
:1059400058040020322E393235000000C0270900EB
:10595000580A00206801002078010020740100200E
:1059600070010020081002007C01002015010020B9
:105970004FF40830039003AE0422314680480CF007
:10598000D5FD4FF05A30039000BF042231467C48C9
:105990000C380CF0CBFD01214FF486200CF02BFDD0
:1059A0001DE04FF0A530774908600020009076494F
:1059B000086001214FF404300CF01DFD734E0422E9
:1059C00031466F4808380CF0B1FD4FF0A530039018
:1059D00003AE042231466A480C380CF0A7FDCA20F9
:1059E000207012202071042060806E46307828706C
:1059F00070786870B078A870F078E870A5606188F9
:105A0000A068FFF7FDFB207350E0B86800780090B5
:105A10000098B968497840EA012000900098B96878
:105A2000897840EA014000900098B968C97840EA56
:105A300001600090B868001D02900098B0F1A53F89
:105A400012D1534904A80DF01EFAFF224FF4C17180
:105A50004F4824380DF0AFF904A94D480DF013FA62
:105A6000FDF7E4FB00F07FF820E0FFE7B86800787E
:105A700000900098B968497840EA012000900098A9
:105A8000B968897840EA014000900098B968C978FF
:105A900040EA01600090B868001D02900098B0F1E3
:105AA000A53F01D100F05FF800E000BF00BF00207B
:105AB00038713849087000BFFFF7BDBB10B5044608
:105AC0002078062849D2DFE800F0480C1D213C036D
:105AD000CA2A05D101202070002060806072E08019
:105AE0003EE06088A37902FA03F318436080E088FF
:105AF0000830E080E088102803DB022020700020BE
:105B0000E0802DE022720320207029E0E088638885
:105B1000984203DA6088A388984202DD052020704D
:105B20000EE0607A10446072E3888868C254E088AE
:105B3000401CE080E0886388984201D104202070F6
:105B40000EE005202070607A904205D16088488080
:105B5000207A0871002010BD02E00520207000BFEF
:105B600000BFFF20F7E70C48006800F4E0600B4935
:105B70000843001D08490860BFF3408F00BFFEE7DF
:105B8000101002006801002078010020740100203C
:105B90007C0400206D0100200CED00E00000FA05FF
:105BA00010B5FFF7FBFA0A2116480CF0A1FF1648C2
:105BB000164988600520164908702420888010BD89
:105BC000704770B504466088D8B1207802F0EBF9D0
:105BD000A07802F0E8F9E07802F0E5F9207902F027
:105BE000E2F9002505E0A168485D02F0DCF9681CD7
:105BF00085B26088A842F6DC207B02F0D4F9002050
:105C0000608070BDC40E0020940E0020740E002031
:105C1000B80E00202DE9F04153480CF002F94FF482
:105C20008A2152480CF060F94FF48C2150480CF056
:105C30005BF94FF48E214F480CF056F94FF4902148
:105C40004D480CF051F94FF492214C480CF04CF9AE
:105C50004FF494214A480CF047F94FF496214948F3
:105C60000CF042F94FF4982147480CF03DF94FF4FD
:105C70009A2146480CF038F93D4804683D480568CB
:105C8000002120460DF006FF04D25320404981F840
:105C9000500003E04E203E4981F850000021284684
:105CA0000DF0F8FE04D25720394981F8600003E076
:105CB0004520374981F860002F4908680DF092FEB1
:105CC000334AC2E90E012D4908680DF08BFE304AB7
:105CD000883203C228460DF085FE2D4AC2E91C0118
:105CE00020460DF07FFE2A4AC2E91A011046002222
:105CF000284BD0E91A6130460DF088FE08D92448B7
:105D00000022254BD0E91A6130460DF093FE17D8DA
:105D10001F480022214BD0E91C6130460DF076FE71
:105D200008D91B4800221E4BD0E91C6130460DF0FB
:105D300081FE05D80320164988620120486205E0EB
:105D40000021134A9166D166116751674FF49C2177
:105D500014480CF0C9F84FF49E2113480CF0C4F815
:105D60000020BDE8F081000058350020D00E002052
:105D7000DC0E0020E80E0020F40E0020000F0020B2
:105D80000C0F0020180F0020240F0020300F0020DF
:105D9000B833002000805640008056C00080664026
:105DA000008066C03C0F0020480F002010B54FF463
:105DB0007A714F480CF09CFE14214E480DF002F809
:105DC00010BD70B5ACB004464B480068A0421CD072
:105DD00009F068FA30B14748407C022802D101201E
:105DE00044494874444804604448006810F0080F6F
:105DF00003D11E204249087007E04148007820B1D5
:105E00003F480078401E3E4908703D48007870B118
:105E10003C48006820F400603A4908600846006881
:105E200020F4804008600320374908705DE0314865
:105E3000407C022859D03348008810F4804F54D059
:105E400031480078002850D029480CF05CFE00282A
:105E500045D101202D49087000202D49087047F2D6
:105E6000305123480CF044FE2648006820F480405E
:105E70002449086024480078401E234908702548BA
:105E8000416F006FCDE902012249D1E91A01224A8E
:105E9000CDE9000121A104A80EF0F8F9C5B204A9CA
:105EA00029480CF0D2FEC5B227480CF06DFE06461C
:105EB000314625480CF078FE6806050E032047F2AF
:105EC000305101222B46CDE9002102901E4A1F4984
:105ED000084809F081FA01201D49087005E00948C9
:105EE000006820F48040074908602CB070BD0000B5
:105EF00008100020540F002088010020080C0140E9
:105F0000850100208001002084010020550100202F
:105F100054010020B8330020E04C01082573210A09
:105F2000687474703A2F2F6D6170732E676F6F678E
:105F30006C652E636F6D2F6D6170733F713D252E03
:105F400036662C252E366600680F00208E05002050
:105F50005701002030B5039C016042600025856038
:105F60004373046130BD08B52F48406820F47000C9
:105F70002D4948600846406840F4801048604FF062
:105F8000FF3001234FF4FA72114600902748FFF7C3
:105F9000E1FF08BD427B012A1BD182688A4203D9F6
:105FA0008268521A826001E000228260826852B9DF
:105FB000026942B10269521E0261D0E900321A44FC
:105FC000826001220273D0E901329A4201D8002294
:105FD0000273704710B5044615480068201A154B27
:105FE0000CCB801843F10001124A03C21148026829
:105FF00011480068111A0D48FFF7CCFF0D48D0E991
:1060000000100D4AC2E90010094804600748007BEF
:10601000012803D140030449086103E04FF4005014
:106020000149486110BD000000100140141000201B
:10603000A0010020900100209801002010B5044626
:106040000020F9490860F949087042F21071F848D7
:106050000CF04EFD10BD0020F3490860F3490870B4
:10606000704710B586B0F3480068401CF1490860DD
:10607000EE480078062877D2DFE800F003ACC49F32
:10608000D3ADED4805F0C6FA002825D1EB480068ED
:1060900050B902A803A904AB05AACDE90010E8A1F4
:1060A000E5480CF0F9FE0AE002A803A904AB05AA32
:1060B000CDE90010E2A1E0481F300CF0EDFEE3490D
:1060C0000598087004984870039888700298C87002
:1060D0000846DF4908600EE0D848006828B9D6486D
:1060E00003F0B8FEDA49086005E0D3481F3003F03A
:1060F000B1FED7490860D648006800B992E0D4489C
:106100000068007870B9D2480068407850B9D0482B
:106110000068807830B9CE480068C07810B9FDF7C3
:10612000E3F87FE04FF0FF3001234FF4FA7211469D
:106130000090C848FFF70EFF0020C7490870BA4911
:106140000860BD487A38B0F8B800C1490968C97814
:10615000CDE90010BE4800688378BD4800684278E9
:10616000BB480068017800E05BE0BCA0FFF723F8C3
:10617000B1497A39B1F8B80004F0D1F804462146A3
:10618000B348006804F058F9A74908600CF09DFC7A
:10619000BE490860A448006830B9BDA0FFF70BF8FD
:1061A0000520A24908703DE00120A049087042F294
:1061B00010719F480CF09CFC34E00CF086FCB34955
:1061C0000968401A42F21071884202D304209749AC
:1061D000087027E000BF0CF078FCAC490968401A51
:1061E00042F2107188420CD3B3480078401CB24987
:1061F00008709248006880F0010090490860FFF73D
:106200002AFF0FE08A480CF07EFC48B90120FFF716
:1062100015FF002085490870A8490880A849088012
:1062200000E000BF00BF8148007806B010BD7CB51B
:10623000A44800687C490968884200D07CBDA24817
:106240000068401CA049086042F2107178480CF0C8
:106250004FFC9E48007810F0400F16D04FF0FF30F2
:10626000012340F65432642100907A48FFF772FE11
:1062700097A0FEF7A0FF0020904908809049088071
:10628000994908800220694908709048007810F008
:10629000080F4ED0FDF79FFA0020934908809348DD
:1062A0000068F0B17022924992480CF0DFFD88B18D
:1062B00070228E4801688E480CF0D8FD50B17022D3
:1062C0008B498C480CF065FD874A8B498948FDF75E
:1062D00011FD26E0844A884984480068FDF70AFDDC
:1062E0001FE086480078E0B185480CF00CFCC0B98E
:1062F00042F2107182480CF0FBFB8248416F006F44
:10630000CDE900017F48D0E91A4322467EA17A48B0
:106310000DF0BCFF7449088081480078401C80491A
:1063200008707148008820B16F480188724805F0F4
:106330003AF96648007810F0020F23D079480088B7
:1063400000B3002078490968764A128888540021F1
:106350007548026873480088401C11540022724836
:10636000016870480088801C0A5463496E480068C0
:10637000FEF70AFB6D496E480CF0BAFB6B496D489D
:106380000CF0B6FB5148007810F0010F40D0564891
:10639000018869A0FEF70FFF0020474908705348A5
:1063A0000068C0B16C48007868B96C48007820B9C2
:1063B0006B48006810F0080F05D00020674908708E
:1063C00001206849087001204849096881F8670080
:1063D00000204649086052480078062807DB4748F5
:1063E000007820B100204E49087044490870FDF73C
:1063F000F2F94E494F480CF07BFB00203A490880E7
:106400002E4908802E490880484949480CF070FB05
:106410002E48007810F0040F05D033480188364824
:1064200005F0C1F8A0E0B4E0D8010020A4010020EC
:1064300028100020C0010020D2040020C401002048
:1064400025642E25642E25642E256400D0010020AD
:10645000D401002014100020AE0100200D0A444198
:1064600054415F5356523A20537461727465642CE0
:10647000205365727665722025642E25642E25646E
:106480002E25643A25640D0A00000000DC0100207E
:106490000D0A444154415F5356523A207569705F6A
:1064A000636F6E6E6563742072657475726E7320AF
:1064B0004E554C4C0D0A0000B8010020A8010020E8
:1064C000A6010020B8020020BC010020B402002078
:1064D0000D0A444154415F5356523A20636F6E6E29
:1064E00065637465640D0A00AA0100202C01002078
:1064F00058350020C83500203410002055010020F8
:1065000098080020B8330020404745544144445285
:106510002C76692C252E38662C252E38660D0A001F
:1065200054010020B0020020A8020020C0D40100C5
:10653000841600204C0400200D0A444154415F534E
:1065400056523A2073656E743A25642062797465F8
:106550002873290D0A000000340100200C010020DE
:10656000080C01400D0100201DA0FEF724FE22486A
:106570000088401C00B2204908800846B0F900009D
:10658000052806DB002008801C49088005201C49DE
:1065900008701C48007810F0100F04D119480078DA
:1065A00010F0200F19D04FF0FF3001234FF4FA7292
:1065B000114600901448FFF7CDFC002013490860F5
:1065C0000CF083FA124908601248B0F9001012A0CA
:1065D000FEF7F1FD05200A49087000BF2EE6000015
:1065E0000D0A444154415F5356523A207265786D0A
:1065F00069740D0A00000000A6010020AA01002015
:10660000A4010020B402002014100020D8010020B2
:10661000DC010020A80100200D0A444154415F53D1
:1066200056523A2074696D65646F75747C636C6F43
:106630007365647C61626F727465642025640D0A01
:106640000000000010B5FE480068B0F1A53F05D17C
:10665000FC480CF058FA08B1012010BD0020FCE7FE
:1066600038B5F9480088002859D0F848F8498860BA
:106670004FF40170F74988800520087000240BE072
:10668000F548025DF249F348FFF718FA00B907E050
:106690000020F1490855641CEB4800888442EFD380
:1066A00000BF03E00020EC490855641CE648008860
:1066B0008442F7D300200090E6488088031FE34A15
:1066C000E649E348FEF7A9FDE448408820B3E348E3
:1066D0000078E3490870E14880784870DF48C07866
:1066E0008870DE480079C870002406E0DB488068C6
:1066F000015DDB4A201D1154641CD8484088A0422B
:10670000F4D8D648017BD64A201D11540020D34925
:1067100048800120D34908700020CB49088038BD4B
:1067200010B504460020D0490860D049087042F2F4
:106730001071CF480CF0DCF942F21071CD480CF02A
:10674000D7F910BD10B50020C7490860C7490870C7
:1067500042F21071C6480CF0CBF942F21071C548F4
:106760000CF0C6F910BD10B586B0C04800780628F8
:106770007ED2DFE800F003D1E2C0F1D2BE4804F0DF
:1067800049FF002825D1BD48006850B902A803A9D7
:1067900004AB05AACDE90010B9A1B7480CF07CFB09
:1067A0000AE002A803A904AB05AACDE90010B4A130
:1067B000B1481F300CF070FBB4490598087004987C
:1067C0004870039888700298C8700846B0490860FD
:1067D0000EE0AA48006828B9A74803F03BFBAC4983
:1067E000086005E0A4481F3003F034FBA8490860A6
:1067F000A748006800B9B0E0A5480068007870B903
:10680000A3480068407850B9A1480068807830B942
:106810009F480068C07810B9FCF766FD9DE0002035
:106820009C490870904908604CF2503198480068C3
:10683000C078CDE9000196480068837894480068E4
:10684000427893480068017893A0FEF7B4FC4CF2BC
:10685000503003F064FD044621468D48006803F083
:10686000EBFD814908600CF030F99649086000E0C2
:1068700072E07D48006830B993A0FEF79CFC0520CB
:106880007A49087069E012227B49A83998480CF0CF
:1068900080FA122278499639954812300CF079FA2C
:1068A000934894A10A6842628988018534209349FB
:1068B0004870CA200870002088707720C870342281
:1068C0008B498E48001D0CF064FA34218848FEF78D
:1068D00097FC8A494978091D884A505442F2107140
:1068E00087480CF005F93C2186480CF001F901209D
:1068F0005E49087031E00CF0E8F872490968401A06
:1069000042F21071884206D30CF0DFF86D4908603E
:1069100004205649087020E000BF0CF0D6F8694901
:106920000968401A47F23051884205D30CF0CDF87F
:1069300064490860FFF706FF0FE04D480CF0E3F8EC
:1069400048B90120FFF7ECFE0020484908706E4965
:1069500008806E49088000E000BF00BF434800780F
:1069600006B010BD10B56A4800683F490968884202
:1069700000D010BD67480068401C6649086042F2BC
:1069800010713B480CF0B4F86348007810F0400FE9
:106990000CD062A0FEF70FFC00205B4908805B4929
:1069A0000880644908800220304908705A480078FD
:1069B00010F0080F41D02F480CF0A5F810B90020B6
:1069C0005C4908805B480088002836D142F210718B
:1069D00028480CF08DF82F48007800282ED0204849
:1069E0000078CA282BD11F48007828B14EF66021C4
:1069F00044480CF07DF81AE042480CF084F8B0B935
:106A000072B64FF0A5300E49086000204A49086070
:106A10004EF660213B480CF06BF8002010490870DE
:106A2000464937480CF064F8FFF78CFE62B63448EC
:106A30000CF069F800B183E086E0FCE0AFE098E09C
:106A400068010020580A0020F201002054140020A0
:106A500058160020781600203411002068160020F7
:106A600014140020F001002000020020E0010020AA
:106A7000FC1300200814002012050020F40100205F
:106A800025642E25642E25642E256400F80100203F
:106A9000FC010020E80100200D0A46575F535652C2
:106AA0003A20537461727465642C20536572766564
:106AB000722025642E25642E25642E25643A2564D3
:106AC0000D0A0000040200200D0A46575F5356527B
:106AD0003A207569705F636F6E6E656374207265CE
:106AE0007475726E73204E554C4C0D0A00000000F8
:106AF00074130020322E393235000000A813002014
:106B0000E4130020F0130020E4010020E201002043
:106B1000B8020020EC010020B40200200D0A465704
:106B20005F5356523A20636F6E6E65637465640DF1
:106B30000A000000E601002078010020E093040034
:106B40007D480078002867D000207B4908707B488A
:106B50004078401D7A4908800846B0F900207749FE
:106B600078480CF016F94EF6602177480BF0C0FF1C
:106B700052E075480BF0C7FF00284DD173497248A9
:106B80000BF0B6FF72484078401D6D4908800846FA
:106B9000B0F900206E496B480CF0FBF83CE06D4802
:106BA0000068B0F1A53F23D16B4800686B490968C4
:106BB00088421DD269480068B0F5003F18D8CA2045
:106BC0005E49087004204870002088701220C87048
:106BD000614C2078087160784871A0788871E078FD
:106BE000C87104215548001DFEF70AFB534908727D
:106BF00057484078401D524908800846B0F90020A7
:106C0000534950480CF0C5F84EF6602154480BF03B
:106C10006FFF0120534908704948008858B148481F
:106C2000B0F90010474804F0BEFC4548B0F9001028
:106C30004DA0FEF7C0FA5348007810F0020F24D0A0
:106C40005148018851A0FEF7B6FA4F480088E0B1DC
:106C50004D480088B0F5107F17D254480088A0B97D
:106C600047F2305152480BF043FF474802885148E1
:106C7000016834480CF08DF8434800884B4908807F
:106C800042F2107130480BF033FF3E48007810F0AC
:106C9000010F12D02A48B0F9001047A0FEF78BFA76
:106CA0000020274908804B4908804B4908804B4900
:106CB00008704B494B480BF01BFF3248007810F02E
:106CC000040F1DD01E48B0F900101E4804F06BFCE4
:106CD0001B48B0F9001044A0FEF76DFA3E4800884A
:106CE000401C00B23C4908800846B0F90000052865
:106CF00006DB002008801249088005204149087001
:106D00002048007810F0100F04D11E48007810F0D1
:106D1000200F0FD000203C4908600BF0D6FE3B4905
:106D200008602C48B0F9001039A0FEF744FA05209D
:106D30003449087000BF1CE6F00100201414002044
:106D4000E601002034110020E4130020E093040049
:106D5000A8130020680100207801002074010020A1
:106D6000F0130020E80100200D0A46575F535652E9
:106D70003A2073656E64696E6720256420627974B9
:106D800065730000B4020020B00200200D0A4657CF
:106D90005F5356523A20476F74204E657720446106
:106DA00074613A256420627974657300F2010020F1
:106DB00090160020A80200200D0A46575F53565235
:106DC0003A2073656E743A2564206279746528737D
:106DD000290D0A00E4010020E2010020B801002092
:106DE000C0D40100841600200D0A46575F53565246
:106DF0003A207265786D6974202564206279746523
:106E0000730D0A00E00100200002002004020020AF
:106E10000D0A46575F5356523A2074696D65646F88
:106E200075747C636C6F7365647C61626F7274658A
:106E3000642025640D0A000010B52C4809F0E5FB1C
:106E400004F0C2FC294A3032A2F12001002004F0F3
:106E5000BFFC274927480BF04BFE10BD10B5264854
:106E60000078002837D123480BF04DFE18B1234895
:106E70000078032808DB04F0A7FC00201F490870F5
:106E80001B491C480BF034FE05F05AFF05F09FFF2C
:106E9000B0B11B48006860B11A48006848B1184892
:106EA000006818490968884203D102F089FFFFF79A
:106EB00049FC02F08FFFFFF7D4F8FFF754FC0AE01B
:106EC0000B490C480BF014FE02F07AFFFFF73AFC76
:106ED00000200A49087010BD10B5FFF7A8F9FFF7A8
:106EE00041FD10BD10B503F0D1F810BD8E04002097
:106EF000C0D4010084160020BC030020B80100208B
:106F0000D80100200002002010B50BF0AAFB10BD34
:106F10002DE9F0416D480068401C6C4908606C48E0
:106F2000006850B907200BF088FB012802D0FFF75A
:106F3000EBFF0CE00BF090FB09E064480068642173
:106F4000B0FBF1F201FB120008B9FFF7DDFF0020F2
:106F50000BF073FB00F03F043F2C02DD0120BDE885
:106F6000F08104F03F045B48B0F900005A49088002
:106F700014F0200F04D0A4F140005649088003E02B
:106F800004F01F005349088052480088524909887C
:106F9000401A06B25148B0F900005149088001205A
:106FA0000BF04BFB00F03F043F2C01DD0120D6E746
:106FB00004F03F0414F0200F04D0A4F1400047492E
:106FC000088003E004F01F0044490880434800881B
:106FD00043490988401A07B202200BF02EFB00F04B
:106FE0003F043F2C01DD0120B9E704F03F043D4898
:106FF000B0F900003C49088014F0200F04D0A4F13F
:1070000040003849088003E004F01F00354908803B
:107010003448008834490988401A0FFA80F8002E55
:1070200001DA704206B2002F01DA784207B2B8F1F5
:10703000000F03DAC8F100000FFA80F82B4991F82D
:10704000771101EB410000EBD0714D10AE4203DA35
:10705000AF4201DAA84504DB25480078401C2449EA
:1070600008702448007868B12148007803282ADB9A
:107070002148006840F480401F49086000201C49F6
:10708000087020E01348B0F900001C49088013483C
:10709000B0F900001A4908801248B0F900001949F7
:1070A00008800C48B0F90000174908800B48B0F977
:1070B0000000164908800B48B0F900001449088008
:1070C00000200B490870FF2049E700001002002053
:1070D00014040020160200201C02002018020020C8
:1070E0001E0200201A020020200200205804002066
:1070F000140200200C020020800100202202002047
:107100002402002026020020280200202A0200205B
:107110002C02002005480047FEE7FEE7FEE7FEE7F9
:10712000FEE7FEE7FEE7FEE7FEE7FEE7ED280008E4
:107130000CB50020019000906B48006840F480304E
:107140006949086000BF6848006800F4003000909A
:107150000198401C0190009818B90198B0F5A06FF3
:10716000F1D16148006810F4003F02D00120009086
:1071700001E0002000900098012842D15B4800689F
:1071800040F01000594908600846006820F00300EC
:1071900008600846006840F00100086052484068F6
:1071A000514948600846406848600846406840F4D5
:1071B000806048600846406820F47C1048600846BB
:1071C000406840F4881048600846006840F08070CD
:1071D000086000BF4448006810F0007FFAD04248C1
:1071E000406820F00300404948600846406840F08D
:1071F0000200486000BF3C48406800F00C000828CE
:10720000F9D10CBD10B5FFF793FF10BD10B536488E
:10721000006840F00100344908600846406834497D
:1072200008403149486008460068324908402E4904
:1072300008600846006820F480200860084640681E
:1072400020F4FE0048604FF41F008860FFF7DAFF6B
:1072500029482A49086010BD10B5002100200022ED
:10726000214B5B6803F00C0121B1042906D00829E9
:1072700028D107E0224B234C236027E0204B214CF0
:10728000236023E0184B5B6803F47010164B5B68B7
:1072900003F48032022303EB904022B91A4B43439C
:1072A000184C23600DE0104B5B6813F4003F04D0D2
:1072B000154B4343134C236003E0114B4343114CE4
:1072C000236003E00E4B0F4C236000BF00BF064B52
:1072D0005B68C3F303130D4CE15C0A4B1B68CB40A6
:1072E000084C236010BD0000001002400020024046
:1072F0000000FFF8FFFFF6FE0028000808ED00E0A0
:1073000000127A003002002000093D003402002003
:1073100030B50246154800684FF47A71B0FBF1F0C1
:107320005043401E4FF0E0214861481709210028D2
:1073300007DA0B071D0E0E4B00F00F04241F1D551E
:1073400003E00B071C0E0B4B1C5400BF00204FF03A
:10735000E02188610720086130BD00204FF0E02166
:107360000861704710B50BF093FB10BD3002002090
:1073700018ED00E000E400E001460020FE4A10683D
:1073800000F03800084310607047FB49096821F09D
:107390000801F94A116011460968014311607047FC
:1073A000F549096821F01001F34A11601146096896
:1073B000014311607047F148EF494860F048486068
:1073C0007047EE48EC494860ED4848607047EA482D
:1073D000006940F08000E84908617047E6480069AC
:1073E00040F08000E449086170470420E249C96820
:1073F00011F0010F01D001200EE0DF49C96811F042
:10740000040F01D0022007E0DB49C96811F0100F1A
:1074100001D0032000E00420704700B50246042399
:10742000FFF7E3FF034603E0FFF7DFFF0346521ECB
:10743000012B01D1002AF7D102B90523184600BD5E
:1074400030B5044604254FF43020FFF7E6FF05462B
:10745000042D17D1C848006940F00200C6490861F0
:1074600008464461006940F0400008614FF4302054
:10747000FFF7D3FF0546C048006941F6FD7108409B
:10748000BD490861284630BD10B504244FF43020B2
:10749000FFF7C3FF0446042C16D1B748006940F03B
:1074A0000400B54908610846006940F040000861E1
:1074B0004FF43020FFF7B1FF0446AF48006941F6B2
:1074C000FB710840AC490861204610BD00B502467A
:1074D0000423FFF78AFF034603E0FFF786FF034616
:1074E000521E012B01D1002AF7D102B905231846FB
:1074F00000BD10B504244FF43020FFF7E7FF044629
:10750000042C16D19C48006940F004009A49086197
:107510000846006940F0400008614FF43020FFF752
:10752000D5FF04469448006941F6FB710840924932
:107530000861204610BD00208F49C96911F0020F73
:1075400001D0012000E00020704730B5A5250424BB
:10755000FFF7F1FF00B100254FF43020FFF75DFF8A
:107560000446042C3AD18548834988608448886061
:107570000846006940F0200008610846006940F0B4
:10758000400008614FF43020FFF747FF0446042C09
:107590001BD17948006941F6DF71084076490861DE
:1075A0000846006940F01000086176480580E00256
:1075B000FFF733FF0446052C10D06F48006941F6F1
:1075C000EF7108406C49086108E0052C06D06A4854
:1075D000006941F6EF71084067490861204630BDF7
:1075E00078B506460C46042500200090E802FFF717
:1075F00014FF0546042D24D15F48006940F00100C6
:107600005D4908613480E802FFF707FF0546042D55
:1076100010D1B01C0090200C00990880E802FFF700
:10762000FCFE05465448006941F6FE710840524987
:10763000086106E05048006941F6FE7108404E4975
:107640000861284678BD70B504460D460426F00250
:10765000FFF7E3FE0646042E11D14748006940F0CB
:107660000100454908612580F002FFF7D6FE064675
:107670004148006941F6FE7108403F4908613046C3
:1076800070BD70B505460E460424E002FFF7C5FE46
:107690000446042C17D13948374988603848886037
:1076A0000846006940F0100008612E80E002FFF7F4
:1076B000B4FE0446052C06D02F48006941F6EF7150
:1076C00008402D490861204670BD2DE9F04304466D
:1076D0004FF6FF763746B046B1460425E443E6B29E
:1076E000C4F30727C4F307484FEA1469E802FFF719
:1076F00094FE0546042D49D120481F498860204842
:1077000088600846006940F010000861FF2E06D02E
:107710001C4808300680E802FFF77FFE0546042D6E
:1077200008D1FF2F06D017480A300780E802FFF77C
:1077300074FE0546042D0AD1B8F1FF0F07D0114899
:107740000C30A0F80080E802FFF767FE0546042D24
:107750000AD1B9F1FF0F07D00A480E30A0F8009007
:10776000E802FFF75AFE0546052D0FD002480069D2
:1077700041F6EF71084007E0002002402301674511
:10778000AB89EFCD00F8FF1F664908612846BDE8C8
:10779000F08330B5054604244FF43020FFF73DFE5A
:1077A0000446042C41D160485E4988605F48886087
:1077B0000846006940F0200008610846006940F072
:1077C000400008614FF43020FFF727FE0446042CE8
:1077D00022D15448006941F6DF71084051490861DF
:1077E0000846006940F0100008611DB100205049B2
:1077F000088002E0A5204E4908804FF43020FFF7B2
:107800000CFE0446052C10D04648006941F6EF7185
:1078100008404449086108E0052C06D04148006949
:1078200041F6DF7108403F490861204630BDF0B5A0
:1078300005460E46174604243B483A4988603B48B3
:107840008860E002FFF7E9FD0446042C19D13548B1
:10785000006940F010003349086147F0F8003043F8
:1078600028433349891C0880E002FFF7D6FD04460F
:10787000052C06D02B48006941F6EF7108402949D4
:1078800008612046F0BD2748C06980087047254838
:10789000006A704700202349096811F0200F01D0C9
:1078A000012000E00020704729B11E4A12690243FE
:1078B0001C4B1A6104E01B4A12698243194B1A617E
:1078C000704701460020012908D1164AD26912F0FA
:1078D000010F01D0012008E0002006E0114AD26823
:1078E0000A4201D0012000E0002070470D49C86025
:1078F000704704200B49C96811F0010F01D0012025
:107900000EE00849C96811F0040F01D0022007E019
:107910000449C96811F0100F01D0032000E00420D1
:10792000704700000020024023016745AB89EFCD7E
:1079300000F8FF1F0E49086070470D494860704706
:107940000B49886070474AF6AA20094908607047C9
:107950004CF6CC4006490860704701460020044AB6
:10796000D2680A4201D0012000E0002070470000E8
:107970000030004070B504460D46B948806940F4B7
:107980008040B7498861B748006820F47F60B549F6
:1079900008600846006840F0B000086008460068CB
:1079A00040F48060086004EBC40000EB0410A90000
:1079B000B0FBF1F06421B0FBF1F104EBC40000EB8B
:1079C0000410AA00B0FBF2F004EBC40202EB0412B4
:1079D000AB00B2FBF3F26423B2FBF3F202EBC2039F
:1079E00003EB0212A0EB8200322202EB00106422B1
:1079F000B0FBF2F061F31F109B4908800020091DC5
:107A00000880091D0880081F0088091F08800020C1
:107A100095490C3108809448001D008840F00C0006
:107A20009149091D088090480C30008840F4C060DE
:107A30008D490C3108808B48006820F470408949DA
:107A400008600846006840F4804008600846006806
:107A500020F4702008600846006840F4E0200860C8
:107A600088148049103108607F48001D008840F06C
:107A700020007D49091D08800A157C497C480AF0D0
:107A800015FF7948001D008840F080007649091DE7
:107A900008800A15774978480AF008FF252009214F
:107AA000002807DA0A07160E744A00F00F031B1F9E
:107AB000D65403E00A07130E714A135400BF252061
:107AC00000F01F020121914042094FF0E02303EB37
:107AD0008202C2F8001100BF6348001D008840F414
:107AE00000506149091D088070BD5D48806920F41F
:107AF00080405B4988615B48006820F47F60594999
:107B00000860704770B504465E4D00BF5A480AF0E1
:107B100008FF59498968884203D32800A5F1010567
:107B2000F4D1214654480AF0D0FE4F48001D008889
:107B300000F08000802807D04B48001D008840F0EE
:107B400080004949091D0880204670BD10B50446D3
:107B500003E014F8010BFFF7D5FF20780028F8D1D7
:107B600010BD00BF40480838008810F0200FF9D041
:107B70003D48001F0088C0B2704708B5FF20009044
:107B800039480838008810F0280F15D03648001FF3
:107B90000088C0B200909DF8001035480AF095FEAC
:107BA00033480AF0BEFE324880683748007818B182
:107BB0009DF8000008F045F92B480838008810F4BB
:107BC000007F32D028480838008820F40070264909
:107BD000083908802348001D006810F4006F0AD09F
:107BE000084600882048001D008820F080001E49BB
:107BF000091D088032E069461F480AF07BFE20BB61
:107C00001948001D008800F08000802807D0164821
:107C1000001D008840F080001349091D08809DF870
:107C200000001149091F088018E00F480838008833
:107C300010F0800F12D069460F480AF05BFE28B999
:107C40009DF800000849091F088007E00648001D4C
:107C5000008820F080000449091D088008BD00004C
:107C60000010024004080140083801409C16002022
:107C70009C1E00209C1A0020AC1E002018ED00E085
:107C800000E400E000E1F505BC03002070B5044607
:107C90000D466648C06940F400306449C8616448D4
:107CA000006820F47040624908600846006840F4AB
:107CB000804008605D48C06940F400305B49C8619D
:107CC00004EBC40000EB04104FF41641B0FBF1F0DC
:107CD0006421B0FBF1F104EBC40000EB04104FF49D
:107CE0001642B0FBF2F004EBC40202EB04124FF4B4
:107CF0001643B2FBF3F26423B2FBF3F202EBC203CE
:107D000003EB0212A0EB8200322202EB001064228D
:107D1000B0FBF2F061F31F10464908800020091DF6
:107D20000880091D0880081F0088091F088000209E
:107D300040490C3108803F48001D008840F00C008D
:107D40003C49091D088080223B493C480AF0AEFDB1
:107D50003848001D008840F020003649091D088081
:107D600026200A21002807DA0A07160E344A00F0F6
:107D70000F031B1FD65403E00A07130E314A135496
:107D800000BF262000F01F020121914042094FF060
:107D9000E02303EB8202C2F8001100BF2548001D5A
:107DA000008840F400502349091D088070BD1F4819
:107DB000C06920F400301D49C8611D48006820F4E6
:107DC00070401B490860704700BF1A49083909888C
:107DD00011F0800FF9D01749091F0880704700BFC4
:107DE00014480838008810F0200FF9D01148001FFF
:107DF0000088C0B2704708B50E480838008810F0F7
:107E0000280F11D00B48001F0088C0B200909DF8C9
:107E1000000009F092F99DF8001008480AF055FD9D
:107E2000694606480AF066FD08BD000000100240E1
:107E30000008014008440040BC1E00203C1F0020F8
:107E400018ED00E000E400E070B504460D468948F6
:107E5000C06940F480208749C8618748006820F4E1
:107E60007F40854908600846006840F4306008603B
:107E70000846006840F4004008607F480830006809
:107E800040F400607C490831086004EBC40000EB5A
:107E900004104FF4E121B0FBF1F06421B0FBF1F1EB
:107EA00004EBC40000EB04104FF4E122B0FBF2F04D
:107EB00004EBC40202EB04124FF4E123B2FBF3F231
:107EC0006423B2FBF3F202EBC20303EB0212A0EB5A
:107ED0008200322202EB00106422B0FBF2F061F368
:107EE0001F10664908800020091D0880091D0880B0
:107EF000081F0088091F0880002060490C31088095
:107F00005E48001D008840F00C005C49091D088097
:107F10000846008840F0200008804A155849594812
:107F20000AF0C4FC5548001D008840F08000534909
:107F3000091D08804A15544954480AF0B7FC272007
:107F40000921002807DA0A07160E514A00F00F032C
:107F50001B1FD65403E00A07130E4E4A135400BFEA
:107F6000272000F01F020121914042094FF0E02339
:107F700003EB8202C2F8001100BF4048001D0088D8
:107F800040F400503D49091D088070BD3948C06962
:107F900020F480203749C8613F48006820F47040D1
:107FA0003D490860704770B504463C4D00BF3748F6
:107FB0000AF0B7FC35498968884203D32800A5F147
:107FC0000105F4D1214631480AF07FFC2B48001D01
:107FD000008800F08000802807D02848001D008815
:107FE00040F080002549091D0880204670BD10B56D
:107FF000044603E014F8010BFFF7D5FF20780028B2
:10800000F8D110BD00BF1D480838008810F0200FBF
:10801000F9D01A48001F0088C0B2704708B5174849
:108020000838008810F0280F09D01448001F008875
:10803000C0B200909DF8001012480AF046FC0F48AC
:108040000838008810F0800F12D069460F480AF0F7
:1080500051FC28B99DF800000849091F088007E075
:108060000648001D008820F080000449091D088092
:1080700008BD000000100240040C01400848004008
:108080004C1F00204C2300204C2100205C230020AA
:1080900018ED00E000E400E00008014000E1F50513
:1080A00030B585B0FC48C06940F40010FA49C86199
:1080B000FA48006840F07060F849086008460068B7
:1080C00040F070400860684601F0A5FD029CF4484D
:1080D000008820F03F00F2490880F248B4FBF0F03D
:1080E00080B209880843EE490880081F008820F004
:1080F0000100091F0880EB48B4FBF0F0401CE84980
:108100001C310880E848B4FBF0F0C0F34F05081FAD
:108110000580E348001F008840F00100E049091F86
:1081200008800846008840F48060088001200880AC
:1081300005B030BD0246DA48143001880904001F3A
:108140000088014321F07F4101EA0200904201D101
:10815000002070470120FCE7F0B503460C4642F2D0
:1081600010710025DEE0CE48001F008820F48060FA
:10817000CB4F3F1F38803846008840F480703880ED
:1081800042F2107100BFC6481030008810F0010F95
:1081900002D1481E0100F6D141B9C148001F008834
:1081A00040F40070BE4F3F1F3880B9E003F0FE007E
:1081B000BB4F0C37388042F2107100BFB848103006
:1081C000008800F00200022802D0481E0100F5D10C
:1081D00041B9B348001F008840F40070B04F3F1F02
:1081E00038809DE0AE4814300088C6B2AC480C30F0
:1081F000048042F2107100BFA9481030008800F0DE
:108200000400042802D0481E0100F5D141B9A44859
:10821000001F008840F40070A14F3F1F38807FE0AE
:108220009F48001F008840F480709D4F3F1F38809A
:1082300042F2107100BF9A481030008810F0010F10
:1082400002D1481E0100F6D141B99548001F0088AF
:1082500040F40070924F3F1F388061E043F001000E
:108260008F4F0C37388042F2107100BF8C481030AD
:10827000008800F00200022802D0481E0100F5D15B
:1082800041B98748001F008840F40070844F3F1FA9
:10829000388045E08248001F008820F48060804FCD
:1082A0003F1F38807E4814300088C6B238460088A8
:1082B00040F40070388042F2107100BF78481030EE
:1082C000008800F04000402802D0481E0100F5D18F
:1082D00041B97348001F008840F40070704F3F1F81
