:020000040800F2
:10000000A83C0020650100086D010008A50F00084C
:10001000710100087301000875010008000000006C
:100020000000000000000000000000007701000850
:1000300079010008000000007B0100087D0E000827
:100040007F0100087F0100087F0100087F01000890
:100050007F0100087F0100087F0100087F01000880
:100060007F0100087F0100087F0100087F01000870
:100070007F0100087F0100087F0100087F01000860
:100080007F0100087F0100087F0100087F01000850
:100090007F0100087F0100087F0100087F01000840
:1000A0007F0100087F0100087F0100087F01000830
:1000B0007F0100087F0100087F0100087F01000820
:1000C0007F0100087F0100087F0100087F01000810
:1000D0007F0100087F0100087F0100084B0D000828
:1000E0007F0100087F0100087F0100087F010008F0
:1000F0007F0100087F0100087F0100087F010008E0
:100100007F0100087F0100087F0100087F010008CF
:100110007F0100087F0100087F0100087F010008BF
:100120007F0100087F0100087F0100087F010008AF
:10013000DFF80CD001F050FE004800479310000893
:10014000A83C0020EFF30980704780F309887047CE
:10015000EFF30880704780F30888704740BA704713
:10016000C0BA70470648804706480047FEE7FEE7EA
:10017000FEE7FEE7FEE7FEE7FEE7FEE7FEE7FEE757
:1001800061020008310100080CB5002001900090C8
:100190006A48006840F480306849086000BF6748DA
:1001A000006800F4003000900198401C0190009815
:1001B00018B90198B0F5A06FF1D16048006810F44B
:1001C000003F02D00120009001E000200090009844
:1001D000012840D15A48006840F010005849086092
:1001E0000846006820F0030008600846006840F0F8
:1001F000010008605148406850494860084640681E
:1002000048600846406848600846406820F47C1012
:1002100048600846406840F4F810486008460068A6
:1002200040F08070086000BF4448006810F0007F14
:10023000FAD04248406820F0030040494860084630
:10024000406840F00200486000BF3C48406800F051
:100250000C000828F9D10CBD10B5FFF795FF10BDB3
:1002600010B53648006840F001003449086008467F
:1002700040683449084031494860084600683249BE
:1002800008402E4908600846006820F48020086075
:100290000846406820F4FE0048604FF41F00886064
:1002A000FFF7DAFF4FF000602849086010BD10B575
:1002B000002100200022214B5B6803F00C0121B1DA
:1002C000042906D0082928D107E0214B214C2360BE
:1002D00027E01F4B1F4C236023E0184B5B6803F49F
:1002E0007010164B5B6803F48032022303EB9040DE
:1002F00022B9194B4343174C23600DE00F4B5B6849
:1003000013F4003F04D0144B4343124C236003E02A
:100310000F4B43430F4C236003E00D4B0D4C236008
:1003200000BF00BF054B5B68C3F303130B4CE15CDC
:10033000084B1B68CB40074C236010BD00100240E7
:10034000002002400000FFF8FFFFF6FE08ED00E08D
:1003500000127A000000002000093D000400002087
:1003600001460020FE4A106800F038000843106083
:100370007047FB49096821F00801F94A11601146EC
:100380000968014311607047F549096821F01001BF
:10039000F34A116011460968014311607047F14842
:1003A000EF494860F04848607047EE48EC494860C3
:1003B000ED4848607047EA48006940F08000E8492D
:1003C00008617047E648006940F08000E449086130
:1003D00070470420E249C96811F0010F01D00120E3
:1003E0000EE0DF49C96811F0040F01D0022007E0D8
:1003F000DB49C96811F0100F01D0032000E0042090
:10040000704700B502460423FFF7E3FF034603E00D
:10041000FFF7DFFF0346521E012B01D1002AF7D15F
:1004200002B90523184600BD30B5044604254FF433
:100430003020FFF7E6FF0546042D17D1C8480069B4
:1004400040F00200C649086108464461006940F076
:10045000400008614FF43020FFF7D3FF0546C04845
:10046000006941F6FD710840BD490861284630BD6C
:1004700010B504244FF43020FFF7C3FF0446042CCA
:1004800016D1B748006940F00400B5490861084634
:10049000006940F0400008614FF43020FFF7B1FFE1
:1004A0000446AF48006941F6FB710840AC49086159
:1004B000204610BD00B502460423FFF78AFF03461D
:1004C00003E0FFF786FF0346521E012B01D1002AED
:1004D000F7D102B90523184600BD10B504244FF426
:1004E0003020FFF7E7FF0446042C16D19C48006932
:1004F00040F004009A4908610846006940F0400055
:1005000008614FF43020FFF7D5FF04469448006996
:1005100041F6FB71084092490861204610BD002059
:100520008F49C96911F0020F01D0012000E00020BD
:10053000704730B5A5250424FFF7F1FF00B1002571
:100540004FF43020FFF75DFF0446042C3AD1854874
:1005500083498860844888600846006940F020002C
:1005600008610846006940F0400008614FF43020FF
:10057000FFF747FF0446042C1BD17948006941F678
:10058000DF710840764908610846006940F01000B4
:10059000086176480580E002FFF733FF0446052C2A
:1005A00010D06F48006941F6EF7108406C4908614E
:1005B00008E0052C06D06A48006941F6EF71084052
:1005C00067490861204630BD78B506460C460425CB
:1005D00000200090E802FFF714FF0546042D24D107
:1005E0005F48006940F001005D4908613480E8021D
:1005F000FFF707FF0546042D10D1B01C0090200C1A
:1006000000990880E802FFF7FCFE0546544800699F
:1006100041F6FE7108405249086106E05048006901
:1006200041F6FE7108404E490861284678BD70B514
:1006300004460D460426F002FFF7E3FE0646042EAC
:1006400011D14748006940F0010045490861258003
:10065000F002FFF7D6FE06464148006941F6FE71FA
:1006600008403F490861304670BD70B505460E46EA
:100670000424E002FFF7C5FE0446042C17D13948D4
:1006800037498860384888600846006940F01000A3
:1006900008612E80E002FFF7B4FE0446052C06D068
:1006A0002F48006941F6EF7108402D490861204646
:1006B00070BD2DE9F04304464FF6FF763746B0464D
:1006C000B1460425E443E6B2C4F30727C4F3074860
:1006D0004FEA1469E802FFF794FE0546042D49D15C
:1006E00020481F498860204888600846006940F01B
:1006F00010000861FF2E06D01C4808300680E80272
:10070000FFF77FFE0546042D08D1FF2F06D01748BE
:100710000A300780E802FFF774FE0546042D0AD16F
:10072000B8F1FF0F07D011480C30A0F80080E802A4
:10073000FFF767FE0546042D0AD1B9F1FF0F07D078
:100740000A480E30A0F80090E802FFF75AFE05466E
:10075000052D0FD00248006941F6EF71084007E00F
:100760000020024023016745AB89EFCD00F8FF1F51
:10077000664908612846BDE8F08330B50546042483
:100780004FF43020FFF73DFE0446042C41D1604871
:100790005E4988605F4888600846006940F0200034
:1007A00008610846006940F0400008614FF43020BD
:1007B000FFF727FE0446042C22D15448006941F675
:1007C000DF710840514908610846006940F0100097
:1007D00008611DB100205049088002E0A5204E4963
:1007E00008804FF43020FFF70CFE0446052C10D093
:1007F0004648006941F6EF7108404449086108E045
:10080000052C06D04148006941F6DF7108403F4998
:100810000861204630BDF0B505460E461746042453
:100820003B483A4988603B488860E002FFF7E9FDB1
:100830000446042C19D13548006940F010003349B2
:10084000086147F0F800304328433349891C088089
:10085000E002FFF7D6FD0446052C06D02B480069C0
:1008600041F6EF710840294908612046F0BD27484C
:10087000C069800870472548006A704700202349F6
:10088000096811F0200F01D0012000E0002070471E
:1008900029B11E4A126902431C4B1A6104E01B4A2B
:1008A00012698243194B1A617047014600200129E1
:1008B00008D1164AD26912F0010F01D0012008E0D8
:1008C000002006E0114AD2680A4201D0012000E06F
:1008D000002070470D49C860704704200B49C96863
:1008E00011F0010F01D001200EE00849C96811F094
:1008F000040F01D0022007E00449C96811F0100F6D
:1009000001D0032000E004207047000000200240D6
:1009100023016745AB89EFCD00F8FF1F02281ED1E8
:10092000A849098801F44151A64A11801146098855
:1009300041F44D711180A3491C3109884FF2FF72B7
:100940001140A04A1C32118007219E4A10321180AA
:100950009C49098841F040019A4A118048E00128E9
:1009600046D19949896941F48051974A91619749E3
:100970000968C1F31301954A11601146096821F411
:10098000702111601146096841F4403111608F49AE
:100990001031096841F010018C4A103211608B4906
:1009A000096841F43001894A11601146096841F033
:1009B000306111601146096841F03041116084498D
:1009C000098801F44151824A11801146098841F495
:1009D0004D7111801146898B4FF2FF7211407C4A94
:1009E0009183072111821146098841F0400111804D
:1009F000704702281ED17349098801F44151714A98
:100A000011801146098841F4417111806D491C31F2
:100A100009884FF2FF7211406A4A1C321180072187
:100A2000684A103211806749098841F04001654ADF
:100A3000118048E0012846D16349896941F4805119
:100A4000614A916161490968C1F313015F4A11600C
:100A50001146096821F4702111601146096841F4BA
:100A60004031116059491031096841F01001574A6D
:100A7000103211605549096841F43001534A116040
:100A80001146096841F0306111601146096841F072
:100A9000304111604E49098801F441514C4A11809E
:100AA0001146098841F4417111801146898B4FF23A
:100AB000FF721140464A918307211182114609882D
:100AC00041F040011180704740480068C0F31300B6
:100AD0003E4908600846006820F4702008603A48E3
:100AE000806920F4805038498861704730B50246EB
:100AF000384B918100BF148914F0010F03D11C0001
:100B0000A3F10103F7D19489E0B230BDF0B50246FC
:100B10004C0810462F4B00BF10F8016B2C4FBE81C4
:100B20002C4B00BF2A4E368916F0010F03D11E0050
:100B3000A3F10103F6D1264EB689F5B210F8016B88
:100B4000234FBE81234B00BF214E368916F0010F83
:100B500003D11E00A3F10103F6D11D4EB689F5B2F3
:100B6000661E3400D8D1F0BD70B502464C08104660
:100B7000184B00BFFF25164EB581164B00BF144D14
:100B80002D8915F0010F03D11D00A3F10103F6D14A
:100B90000F4DAD8900F8015BFF250D4EB5810D4B62
:100BA00000BF0B4D2D8915F0010F03D11D00A3F1DE
:100BB0000103F6D1064DAD8900F8015B651E2C00DE
:100BC000D8D170BD0038004000100240000801403C
:100BD00000300140A086010070B504460D4665480E
:100BE000C06940F480206349C8616348006820F40C
:100BF0007F40614908600846006840F43060086042
:100C00000846006840F48040086004EBC40000EB34
:100C10000410A900B0FBF1F06421B0FBF1F104EB8A
:100C2000C40000EB0410AA00B0FBF2F004EBC40215
:100C300002EB0412AB00B2FBF3F26423B2FBF3F25B
:100C400002EBC20303EB0212A0EB8200322202EBA2
:100C500000106422B0FBF2F061F31F1047490880D6
:100C60000020091D0880091D0880081F0088091F31
:100C70000880002041490C3108804048001D008850
:100C800040F00C003D49091D08800846008840F0EE
:100C9000200008800A153A493A4800F07BF82720DE
:100CA0000921002807DA0A07160E374A00F00F0359
:100CB0001B1FD65403E00A07130E344A135400BF17
:100CC000272000F01F020121914042094FF0E0234C
:100CD00003EB8202C2F8001100BF2848001D008803
:100CE00040F400502549091D088070BD2148C069A5
:100CF00020F480201F49C8612548006820F4704016
:100D000023490860704700BF1C490839098811F061
:100D1000800FF9D01949091F0880704700B50246B5
:100D200003E012F8010BFFF7EEFF10780028F8D16E
:100D300000BD00BF11480838008810F0200FF9D01E
:100D40000E48001F0088C0B2704710B50B48083825
:100D5000008810F0280F08D00848001F0088C4B28F
:100D60002146084800F025F803E00448001F0088E9
:100D7000C4B210BD00100240040C014008480040FD
:100D8000580000205804002018ED00E000E400E0C6
:100D900000080140034613B109B1022A02D24FF004
:100DA000FF307047D9600020186058609A6000BF1B
:100DB000F7E710B502460B461168491C9068884257
:100DC00000D800215068884202D14FF0FF3010BD9A
:100DD0001468D068035511600020F8E70246506897
:100DE0001368984202D14FF0FF3070475368D068C3
:100DF000C05C08705068401C50605068936898420E
:100E000001D3002050600020EFE7014608684A68DF
:100E1000904203D308684A68801A704788684A6815
:100E2000801A0A681044F8E730B502465648006850
:100E30004FF47A71B0FBF1F05043401E4FF0E021C7
:100E4000486148170921002807DA0B071D0E4F4B90
:100E500000F00F04241F1D5503E00B071C0E4C4B24
:100E60001C5400BF00204FF0E0218861072008617A
:100E700030BD00204FF0E021086170474548006810
:100E8000401C44490860444802684068521C40F1D4
:100E9000000041490A6048603E48006840F2E7317E
:100EA000B0FBF1F201FB120020B93C480068401C85
:100EB0003A49086070473748006870473649086803
:100EC0004968704700B50146FFF7F5FF024600BFCD
:100ED000FFF7F1FF801A8842FAD300BD00B5024641
:100EE000FFF7E9FF10605160D2E9000318449060F9
:100EF00000BD10B50146D1E900040219886890428E
:100F000010D000BF21480C38006800F4E060244C89
:100F10002043001D1D4C0C3C2060BFF3408F00BFE0
:100F200000BFFEE7FFF7C7FF0246D1E900042044F7
:100F300088600868904202D80868131A03E00868BD
:100F4000C0F1FF3083184868984201D8002010BDD6
:100F50004868C01AFBE700B50246FFF7ACFF03463E
:100F60000EE0FFF7A8FF0146994203D3C81A90424A
:100F700006D306E0C3F1FF300844904200D300E0FE
:100F8000EFE700BF00BD00000000002018ED00E00A
:100F900000E400E01C0000202000002018000020D9
:100FA0000000FA0500BFF848006800F4E060F74967
:100FB0000843001DF4490860BFF3408F00BF00BF25
:100FC000FEE70120F24908707047704772B614209E
:100FD00001218140EF4A430942F8231000BFEE4847
:100FE000EE4908604FF04430091F0860EC49086082
:100FF000091F0860EB49486008600020EA49C861A1
:10100000886162B6704710B5E8A0FFF787FEFFF76A
:10101000DDFFEC480068EC490840B0F1005F0FD1FB
:10102000E848001D0068E949086008460068E8498A
:101030000860E4490868FFF78EF8E54800688047D3
:1010400010BD10B5FFF70CF90120FFF7EDFE41F2DE
:101050001D00D54988610846406840F4800048601A
:101060000846C06940F40000C861DA48406840F0B2
:101070000070D84948604FF4E131D7480068FFF765
:10108000ABFD62B610BD00BF0100A0F10100FBD1B5
:1010900070471CB5D14ED24C002500BFFFF7D1FFE1
:1010A000D0A0FFF73BFEDDA0FFF738FEDEA0FFF784
:1010B00035FEE5A0FFF732FEE7A0FFF72FFEECA01C
:1010C000FFF72CFE4FF47A70FFF7FCFE40F6B831C4
:1010D000F548FFF703FF4FF47A71F448FFF7FEFE7F
:1010E00042F21071F248FFF7F9FEF248F2498860C7
:1010F0000520F24908704FF401708880FFF74FF91E
:1011000026E2EF48007800282FD1E848FFF7F1FEEB
:1011100000282AD1CA20EB49087004204870882092
:10112000C870A520087148718871C8710846417857
:10113000001D00F0A2FCE3494978091DE14A505422
:10114000002404E0DF49085DFFF7DDFD641CDD4895
:101150004078401DA042F5DC0020D649091F0870E8
:101160004FF4FA61D148FFF7B9FE1DE09DF8002069
:10117000D149D24800F02CFCB0B9CA20CD49091F92
:101180000870CD4880784870CB48C0788870CA48CD
:101190000079C870081DC84988600520C7490870D3
:1011A0004FF40170888005E06946C748FFF716FED6
:1011B0000028DBD000BFBF48001F0078CA289FD19D
:1011C0000020C04948708870C870BA48001FC078B5
:1011D000122804D088287CD0A5287BD180E14EF647
:1011E0006021B348FFF77AFEB24EB8493068086014
:1011F00008460068B0F1A53F38D10020B449086026
:10120000361DB449306808600C20AE494870122081
:10121000C870A6F1080000790871A6F108004079AD
:101220004871A6F1080080798871A6F10800C0799C
:10123000C871A6F10800007A0872A6F10800407A89
:101240004872A6F10800807A8872A6F10800C07A78
:10125000C8724FF4007001909DF8040008739DF867
:101260000500487300208873C8738BE042F2107148
:101270008F48FFF733FE9548006895490968884212
:101280005CD18D484088001F914909680844904905
:10129000086008460088C0F30A0A00240CE085496B
:1012A000091F04F10800085C88490988C1F30A0194
:1012B0002144894A5054641C7F484088001FA04242
:1012C000EDDCBAF1000F22D1814800683D490844A5
:1012D00001E00CE10FE1A0F5006A05207F490870EC
:1012E0007D4E72B6504600F039FB3146504600F054
:1012F00040FB62B6062079490870002403E0FF2015
:1013000075490855641CB4F5006FF8DB16E07048A9
:10131000006870490968884210D36D480068C00AA7
:10132000C402284804EB000A6B4E72B6504600F027
:1013300015FB3146504600F01CFB62B6644800685D
:1013400062490860624800686249096888420BD3B4
:1013500000205F4908604FF05A305C4908604FF444
:101360007A715348FFF7BAFD584F04205549487029
:101370001220C8703878087178784871B878887108
:10138000F878C871C2E000000CED00E00000FA053A
:101390002800002080E100E04444848804080140E3
:1013A000040C014000100140001002400D0A474F9C
:1013B00020544F204150504C49434154494F4E0D09
:1013C0000A000000002800080000FF2F5000002045
:1013D0004C0000200000014000000020680C0020AC
:1013E000809698000D0A2A2A2A2A2A2A2A2A2A2A94
:1013F0002A2A2A2A2A2A2A2A2A2A2A2A2A2A414D13
:10140000504D2A2A2A2A2A2A2A2A2A2A2A2A2A2AF3
:101410002A2A2A2A2A2A2A0D0A0000000D0A4865CB
:101420006C6C6F210D0A00000D0A49276D2047538F
:101430004D5F53544D33325F424F4F544C4F4144F4
:1014400045520D0A000000000D0A4D7920566572C4
:101450003A56312E300D0A000D0A687474703A2F16
:101460002F616D706D2E636F6D2E766E0D0A00000C
:101470000D0A2A2A2A2A2A2A2A2A2A2A2A2A2A2A09
:101480002A2A2A2A2A2A2A2A2A2A5354415254200A
:101490004D41494E2A2A2A2A2A2A2A2A2A2A2A2A2F
:1014A0002A2A2A0D0A000000902C0020842C0020FB
:1014B0009C2C00206C040020682C0020782C00203C
:1014C0003000002068240020580400203C00002048
:1014D0004000002044000020681C00203100002053
:1014E000FEF769FFFFF772FDFFF78DFD0EE00120AB
:1014F000EE4908700AE00420ED4948703320C870B6
:10150000A520087148718871C87100BF00BFE84804
:10151000C078C0B1CA20E649087008464178001D6D
:1015200000F0ABFAE2494978091DE14A5054002421
:1015300004E0DF49085DFFF7E6FB641CDC48407807
:10154000401DA042F5DC0020DA490870DA49087134
:10155000DA48FFF7CEFC10B9D448007828B1D84853
:10156000FFF7C7FC00287FF4CCADD64E00F092FA0E
:1015700004223146D44800F09BFB3068B0F15A3F5A
:1015800001D0FFF740FDD1A0FFF7C8FB4FF00A08DC
:101590004FF00009F1E00422CA49CB48083000F0BE
:1015A00087FBD149306808600422C649C648001D3F
:1015B00000F07EFBCD493068086008460068B0F551
:1015C000003FE7D20020CA49086000243DE02A20FD
:1015D000FFF799FB4FF48062BA4904F5083000F038
:1015E00067FB00250EE06019C0490968884207D2F0
:1015F000B448405DBE4909680844BD49086000E040
:1016000003E06D1CB5F5806FEDDB00BFB9496018D4
:1016100000F0A4F9B7496018314600F0AAF94FF478
:101620008062A84904F5083000F042FBB14820442C
:10163000B14908604FF4806208460168A14800F093
:10164000BDFB00B105E004F58064A8480068844251
:10165000BDD300BFA6480068A349096888427CD171
:10166000A6A0FFF75BFB04229649104600F020FB82
:101670003068B0F15A3F7ED04FF00A0873E0002086
:101680009B49086000241EE04FF480728D4904F5E8
:10169000083000F00DFB4FF480728A4904F5805049
:1016A00000F0DDFA4FF48072984904F5805000F0A4
:1016B000FFFA4FF480729549824800F07FFB00B139
:1016C00005E004F58074894800688442DCD300BFDB
:1016D00086480068844222D300241CE04FF48072C4
:1016E000784904F5805000F0E3FA00250EE0601917
:1016F0007E490968884207D27248405D7C49096882
:1017000008447B49086000E002E06D1CFF2DEEDD1F
:1017100000BF04F58074754800688442DED37448C5
:1017200000687149096888421DD14FF4807265498B
:101730004FF4043000F0BCFA4FF48072614900208D
:1017400000F08DFA4FF480727049002000F0B0FA7A
:101750004FF480726D495B4801E00EE00BE000F051
:101760002DFB00B906E05FEA0800A8F1010101F0D5
:10177000FF0884D100BF4FF00109B9F1000F07D174
:101780005FEA0800A8F1010101F0FF087FF403AF50
:10179000B9F1000F7DD1B8F1FF0F7ED15CA0FFF74A
:1017A000BDFA5EA0FFF7BAFA4FF00A084FF0000941
:1017B00067E0042243490C2000F07AFA4A49306875
:1017C000086004223F49082000F072FA4749306857
:1017D000086008460068B0F5003F52D20020444936
:1017E000086000243DE02A20FFF78DFA4FF4806264
:1017F000344904F5805000F05BFA00250EE06019D2
:101800003A490968884207D22E48405D384909683C
:1018100008443749086000E003E06D1CB5F5806FAF
:10182000EDDB00BF3349601800F098F831496018CB
:10183000314600F09EF84FF48062224904F5805052
:1018400000F036FA2B4820442B4908604FF48062A0
:10185000084601681B4800F0B1FA00B105E004F544
:101860008064224800688442BDD300BF20480068DD
:101870001D490968884204D14FF001092FA0FFF7E4
:101880004DFAB9F1000F08D15FEA0800A8F1010193
:1018900000E002E001F0FF088BD101214FF4043099
:1018A00000F049F9FFF7AFFB00BFFEE73000002072
:1018B0006824002068040020682C0020902C002060
:1018C0009C2C0020680C0020041002000D0A5052CD
:1018D0004F4752414D204E4557204649524D5741A2
:1018E00052452A0D0A000000380000203400002074
:1018F00048000020002800082C0000200D0A46495E
:101900004E4953484544210D0A000000681C002040
:101910000D0A4641494C210D0A0000000D0A444FB2
:10192000574E4C4F4144204241434B55502046496D
:10193000524D574152452A0D0A0000000D0A444FEE
:10194000574E4C4F4144204241434B55502046494D
:101950004E4953484544210D0A00000070B5044625
:101960002046FEF761FD0546042D01D000F01FF86A
:1019700070BD2DE9F04105460E46002413E056F8EF
:10198000241005EB8400FEF71FFE0746042F01D04C
:1019900000F00DF856F8240055F82410884201D0C4
:1019A00000F005F8641CFF2CE9D9BDE8F081064879
:1019B000006800F4E06005490843001D0249086022
:1019C000BFF3408F00BFFEE70CED00E00000FA051A
:1019D00010B504462078062849D2DFE800F0480C0C
:1019E0001D213C03CA2A05D10120207000206080FF
:1019F0006072E0803EE06088A37902FA03F3184346
:101A00006080E0880830E080E088102803DB022056
:101A100020700020E0802DE022720320207029E059
:101A2000E0886388984203DA6088A388984202DDE0
:101A3000052020700EE0607A10446072E3888868A8
:101A4000C254E088401CE080E0886388984201D15D
:101A5000042020700EE005202070607A904205D1AD
:101A600060884880207A0871002010BD02E00520BF
:101A7000207000BF00BFFF20F7E710B502460B46FD
:101A80000020002103E0545C0444E0B2491C994268
:101A9000F9D310BD10B50120FEF7ABFF002010BD3B
:101AA00010B5FFF711F8002010BD10B5BF48006851
:101AB00040F01000BD4908600521BD48FFF716F849
:101AC000FF21BB48FFF712F80446B848001F006822
:101AD00040F01000B549091F0860204610BD70B5E0
:101AE000B44C00E0641EFFF7E0FF10F0010F01D0DE
:101AF000002CF7D1AD48006840F01000AB490860F9
:101B00000621AB48FEF7F2FFA848001F006840F02E
:101B10001000A649091F086000BFFFF7C6FF054671
:101B2000641E15F0010F02D115F0020F01D1002C37
:101B3000F3D1002070BD70B504460D46FFF7CFFF0E
:101B40009A48006840F010009849086035B1012DAE
:101B500012D0022D15D0032D1DD117E0602194481D
:101B6000FEF7C4FF9148001F006840F010008F4945
:101B7000091F0860002070BD20218D48FEF7B6FFC8
:101B800009E052218A48FEF7B1FF04E0D8218848D5
:101B9000FEF7ACFF00BF00BFC4F307418448FEF767
:101BA000A5FFC4F307218248FEF7A0FFE1B28048F9
:101BB000FEF79CFF7D48001F006840F010007B4945
:101BC000091F08600020D6E72DE9F04104460D46C4
:101BD0001646DFF8E081FFF782FF7448006840F0A6
:101BE00010007249086002217148FEF77FFFC4F3BC
:101BF00007416F48FEF77AFFC4F307216C48FEF7F0
:101C000075FFE1B26A48FEF771FF05E015F8011BA8
:101C10006748FEF76BFF761E002EF7D16348001F62
:101C2000006840F010006149091F086008E0A8F151
:101C30000108FFF73AFF074617F0030F00D102E053
:101C4000B8F1000FF3D100BFB8F1000F04D15A482A
:101C50000068401C584908600020BDE8F0812DE96B
:101C6000F04105460F46144600262805000D03D115
:101C700001212846FFF75FFFC5F30B002044B0F5B4
:101C8000805F03D92819C0F30B06A41B22463946EE
:101C90002846FFF799FF46B128190121FFF74BFFAE
:101CA000391928193246FFF78FFF0020BDE8F0816F
:101CB0002DE9F04104460D4616463E4F00E07F1EDA
:101CC000FFF7F3FE10F0010F01D0002FF7D13748D6
:101CD000006840F01000354908600B213448FEF7D9
:101CE00005FFC4F307413248FEF700FFC4F30721A4
:101CF0002F48FEF7FBFEE1B22D48FEF7F7FE00216C
:101D00002B48FEF7F3FE05E000212948FEF7EEFE22
:101D100005F8010B3000A6F10106F5D12348001F9C
:101D2000006840F010002149091F08600020BDE84C
:101D3000F0810020704770B505460DB13C2000E0F1
:101D4000002006461B4C00E0641EFFF7AEFE10F0BC
:101D5000010F01D0002CF7D11448006840F01000AA
:101D60001249086050211248FEF7C0FE0F48001FBC
:101D7000006840F010000D49091F0860081D006848
:101D800040F01000091D086001210948FEF7AEFE71
:101D900031460748FEF7AAFE0448001F006840F0DD
:101DA00010000249091F0860002070BD140801409E
:101DB0000030014040420F005400002030B504467E
:101DC0000020034600E05B1C934203D2E05CCD5C44
:101DD000401BF8D030BD0000064C074D06E0E0681F
:101DE00040F0010394E8070098471034AC42F6D362
:101DF000FEF7A2F91C1E00083C1E000802E008C8FD
:101E0000121F08C1002AFAD170477047002001E074
:101E100001C1121F002AFBD1704700003C1E0008C0
:101E20000000002058000000FC1D0008941E00085F
:101E300058000020503C00000C1E000800512502F4
:101E4000000000000000000001020304060708096A
:101E50000000000000000000000000000000000082
:101E60000000000000000000000000000000000072
:101E70000000000000000000000000000000000062
:101E80000000000000000000000000000000000052
:041E9000000000004E
:0400000508000131BD
:00000001FF
