ARM Linker, 5.03 [Build 76] [MDK-ARM Standard]

==============================================================================

Section Cross References

    main.o(.text) refers to system_stm32f10x.o(.text) for SystemInit
    main.o(.text) refers to tick.o(.text) for TICK_Init
    main.o(.text) refers to sst25.o(.text) for SST25_Init
    main.o(.text) refers to uart1.o(.text) for USART1_Init
    main.o(.text) refers to gps.o(.text) for GPSInit
    main.o(.text) refers to uart2.o(.text) for USART2_Init
    main.o(.text) refers to uart3.o(.text) for USART3_Init
    main.o(.text) refers to exti.o(.text) for EXTI_Init
    main.o(.text) refers to rtc.o(.text) for RTC_Init
    main.o(.text) refers to tracker.o(.text) for TrackerGetNewData
    main.o(.text) refers to at_cmd_call_parser.o(.text) for RING_Process
    main.o(.text) refers to system_stm32f10x.o(.data) for SystemCoreClock
    main.o(.text) refers to rtc.o(.data) for rtcTimeSec
    main.o(.text) refers to main.o(.data) for gpsTaskTime
    main.o(.text) refers to hw_config.o(.bss) for ioStatus
    main.o(.text) refers to system_config.o(.bss) for sysCfg
    main.o(.text) refers to at_cmd_sms_parser.o(.data) for smsNewMessageFlag
    main.o(.text) refers to db.o(.text) for DB_RingLogNext
==============================================================================

Removing Unused input sections from the image.

    Removing system_config.o(.data), (1 bytes).
    Removing startup_stm32f10x_hd.o(HEAP), (2048 bytes).
    Removing core_cm3.o(.emb_text), (32 bytes).
    Removing i2c.o(.text), (1412 bytes).
    Removing low_power_mode.o(.text), (92 bytes).
    Removing dbg.o(.text), (36 bytes).
    Removing packet_queue.o(.text), (364 bytes).

7 unused section(s) (total 3985 bytes) removed from the image.

==============================================================================

Image Symbol Table

    Local Symbols

    Symbol Name                              Value     Ov Type        Size  Object(Section)

    ../clib/../cmprslib/zerorunl2.c          0x00000000   Number         0  __dczerorl2.o ABSOLUTE
    ../clib/microlib/ctype/ctype.c           0x00000000   Number         0  iscntrl_o.o ABSOLUTE
    ../clib/microlib/ctype/ctype.c           0x00000000   Number         0  isdigit_o.o ABSOLUTE
    ../clib/microlib/ctype/ctype.c           0x00000000   Number         0  ctype_c.o ABSOLUTE
    ../clib/microlib/ctype/ctype.c           0x00000000   Number         0  isgraph_o.o ABSOLUTE
    ../clib/microlib/ctype/ctype.c           0x00000000   Number         0  islower_o.o ABSOLUTE
    ../clib/microlib/ctype/ctype.c           0x00000000   Number         0  ctype_o.o ABSOLUTE
    ../clib/microlib/ctype/ctype.c           0x00000000   Number         0  isspace_c.o ABSOLUTE
    ../clib/microlib/ctype/ctype.c           0x00000000   Number         0  isxdigit_o.o ABSOLUTE
    ../clib/microlib/ctype/ctype.c           0x00000000   Number         0  isprint_o.o ABSOLUTE
    ../clib/microlib/ctype/ctype.c           0x00000000   Number         0  ispunct_o.o ABSOLUTE
    ../clib/microlib/ctype/ctype.c           0x00000000   Number         0  isspace_o.o ABSOLUTE
    ../clib/microlib/ctype/ctype.c           0x00000000   Number         0  isupper_o.o ABSOLUTE
    ../clib/microlib/ctype/ctype.c           0x00000000   Number         0  isalnum_o.o ABSOLUTE
    ../clib/microlib/ctype/ctype.c           0x00000000   Number         0  isalpha_o.o ABSOLUTE
    ../clib/microlib/ctype/ctype.c           0x00000000   Number         0  isblank_o.o ABSOLUTE
    ../clib/microlib/division.c              0x00000000   Number         0  uidiv.o ABSOLUTE
    ../clib/microlib/division.c              0x00000000   Number         0  uldiv.o ABSOLUTE
    ../clib/microlib/errno.c                 0x00000000   Number         0  errno.o ABSOLUTE
    ../clib/microlib/init/entry.s            0x00000000   Number         0  entry10a.o ABSOLUTE
    ../clib/microlib/init/entry.s            0x00000000   Number         0  entry11a.o ABSOLUTE
    ../clib/microlib/init/entry.s            0x00000000   Number         0  entry10b.o ABSOLUTE
    ../clib/microlib/init/entry.s            0x00000000   Number         0  entry9b.o ABSOLUTE
    ../clib/microlib/init/entry.s            0x00000000   Number         0  entry11b.o ABSOLUTE
    ../clib/microlib/init/entry.s            0x00000000   Number         0  entry9a.o ABSOLUTE
    ../clib/microlib/init/entry.s            0x00000000   Number         0  entry2.o ABSOLUTE
    ../clib/microlib/init/entry.s            0x00000000   Number         0  entry8b.o ABSOLUTE
    ../clib/microlib/init/entry.s            0x00000000   Number         0  entry8a.o ABSOLUTE
    ../clib/microlib/init/entry.s            0x00000000   Number         0  entry5.o ABSOLUTE
    ../clib/microlib/init/entry.s            0x00000000   Number         0  entry7b.o ABSOLUTE
    ../clib/microlib/init/entry.s            0x00000000   Number         0  entry7a.o ABSOLUTE
    ../clib/microlib/init/entry.s            0x00000000   Number         0  entry.o ABSOLUTE
    ../clib/microlib/longlong.c              0x00000000   Number         0  llsshr.o ABSOLUTE
    ../clib/microlib/longlong.c              0x00000000   Number         0  llshl.o ABSOLUTE
    ../clib/microlib/longlong.c              0x00000000   Number         0  llushr.o ABSOLUTE
    ../clib/microlib/printf/printf.c         0x00000000   Number         0  printf6.o ABSOLUTE
    ../clib/microlib/printf/printf.c         0x00000000   Number         0  printf1.o ABSOLUTE
    ../clib/microlib/printf/printf.c         0x00000000   Number         0  printf2.o ABSOLUTE
    ../clib/microlib/printf/printf.c         0x00000000   Number         0  printf5.o ABSOLUTE
    ../clib/microlib/printf/printf.c         0x00000000   Number         0  printf3.o ABSOLUTE
    ../clib/microlib/printf/printf.c         0x00000000   Number         0  printf8.o ABSOLUTE
    ../clib/microlib/printf/printf.c         0x00000000   Number         0  printf4.o ABSOLUTE
    ../clib/microlib/printf/printf.c         0x00000000   Number         0  printfa.o ABSOLUTE
    ../clib/microlib/printf/printf.c         0x00000000   Number         0  printf7.o ABSOLUTE
    ../clib/microlib/printf/printf.c         0x00000000   Number         0  printfb.o ABSOLUTE
    ../clib/microlib/printf/printf.c         0x00000000   Number         0  printf0.o ABSOLUTE
    ../clib/microlib/printf/stubs.s          0x00000000   Number         0  stubs.o ABSOLUTE
    ../clib/microlib/stdio/streams.c         0x00000000   Number         0  stdout.o ABSOLUTE
    ../clib/microlib/string/memchr.c         0x00000000   Number         0  memchr.o ABSOLUTE
    ../clib/microlib/string/memcmp.c         0x00000000   Number         0  memcmp.o ABSOLUTE
    ../clib/microlib/string/memcpy.c         0x00000000   Number         0  memcpyb.o ABSOLUTE
    ../clib/microlib/string/memcpy.c         0x00000000   Number         0  memcpya.o ABSOLUTE
    ../clib/microlib/string/memset.c         0x00000000   Number         0  memseta.o ABSOLUTE
    ../clib/microlib/string/strcat.c         0x00000000   Number         0  strcat.o ABSOLUTE
    ../clib/microlib/string/strcpy.c         0x00000000   Number         0  strcpy.o ABSOLUTE
    ../clib/microlib/string/strlen.c         0x00000000   Number         0  strlen.o ABSOLUTE
    ../clib/microlib/string/strstr.c         0x00000000   Number         0  strstr.o ABSOLUTE
    ../clib/microlib/stubs.s                 0x00000000   Number         0  iusefp.o ABSOLUTE
    ../clib/scanf.c                          0x00000000   Number         0  _scanf.o ABSOLUTE
    ../clib/scanf.c                          0x00000000   Number         0  scanf_char.o ABSOLUTE
    ../clib/scanf.c                          0x00000000   Number         0  _sgetc.o ABSOLUTE
    ../clib/scanf.c                          0x00000000   Number         0  _chval.o ABSOLUTE
    ../clib/scanf.c                          0x00000000   Number         0  __0sscanf.o ABSOLUTE
    ../clib/scanf.c                          0x00000000   Number         0  _scanf_int.o ABSOLUTE
    ../clib/scanf.c                          0x00000000   Number         0  strtol.o ABSOLUTE
    ../clib/scanf.c                          0x00000000   Number         0  strtod.o ABSOLUTE
    ../clib/scanf.c                          0x00000000   Number         0  _strtoul.o ABSOLUTE
    ../clib/scanf.c                          0x00000000   Number         0  scanf_fp.o ABSOLUTE
    ../fplib/microlib/d2f.c                  0x00000000   Number         0  d2f.o ABSOLUTE
    ../fplib/microlib/f2d.c                  0x00000000   Number         0  f2d.o ABSOLUTE
    ../fplib/microlib/fpadd.c                0x00000000   Number         0  fadd.o ABSOLUTE
    ../fplib/microlib/fpadd.c                0x00000000   Number         0  dadd.o ABSOLUTE
    ../fplib/microlib/fpdiv.c                0x00000000   Number         0  fdiv.o ABSOLUTE
    ../fplib/microlib/fpdiv.c                0x00000000   Number         0  ddiv.o ABSOLUTE
    ../fplib/microlib/fpepilogue.c           0x00000000   Number         0  fepilogue.o ABSOLUTE
    ../fplib/microlib/fpepilogue.c           0x00000000   Number         0  depilogue.o ABSOLUTE
    ../fplib/microlib/fpfix.c                0x00000000   Number         0  ffixui.o ABSOLUTE
    ../fplib/microlib/fpfix.c                0x00000000   Number         0  dfixi.o ABSOLUTE
    ../fplib/microlib/fpfix.c                0x00000000   Number         0  dfixui.o ABSOLUTE
    ../fplib/microlib/fpfix.c                0x00000000   Number         0  dfixul.o ABSOLUTE
    ../fplib/microlib/fpflt.c                0x00000000   Number         0  dfltul.o ABSOLUTE
    ../fplib/microlib/fpflt.c                0x00000000   Number         0  dflti.o ABSOLUTE
    ../fplib/microlib/fpflt.c                0x00000000   Number         0  dfltui.o ABSOLUTE
    ../fplib/microlib/fpflt.c                0x00000000   Number         0  ffltui.o ABSOLUTE
    ../fplib/microlib/fpmul.c                0x00000000   Number         0  dmul.o ABSOLUTE
    ../fplib/microlib/fpscalb.c              0x00000000   Number         0  dscalb.o ABSOLUTE
    ../fplib/microlib/fpsqrt.c               0x00000000   Number         0  dsqrt.o ABSOLUTE
    ../mathlib/atan.c                        0x00000000   Number         0  atan.o ABSOLUTE
    ../mathlib/atan.c                        0x00000000   Number         0  atan_x.o ABSOLUTE
    ../mathlib/atan2.c                       0x00000000   Number         0  atan2.o ABSOLUTE
    ../mathlib/atan2.c                       0x00000000   Number         0  atan2_x.o ABSOLUTE
    ../mathlib/cos.c                         0x00000000   Number         0  cos.o ABSOLUTE
    ../mathlib/cos.c                         0x00000000   Number         0  cos_x.o ABSOLUTE
    ../mathlib/cos_i.c                       0x00000000   Number         0  cos_i.o ABSOLUTE
    ../mathlib/dunder.c                      0x00000000   Number         0  dunder.o ABSOLUTE
    ../mathlib/floor.c                       0x00000000   Number         0  floor.o ABSOLUTE
    ../mathlib/fpclassify.c                  0x00000000   Number         0  fpclassify.o ABSOLUTE
    ../mathlib/poly.c                        0x00000000   Number         0  poly.o ABSOLUTE
    ../mathlib/pow.c                         0x00000000   Number         0  pow.o ABSOLUTE
    ../mathlib/pow.c                         0x00000000   Number         0  pow_x.o ABSOLUTE
    ../mathlib/qnan.c                        0x00000000   Number         0  qnan.o ABSOLUTE
    ../mathlib/rred.c                        0x00000000   Number         0  rred.o ABSOLUTE
    ../mathlib/sin.c                         0x00000000   Number         0  sin.o ABSOLUTE
    ../mathlib/sin.c                         0x00000000   Number         0  sin_x.o ABSOLUTE
    ../mathlib/sin_i.c                       0x00000000   Number         0  sin_i.o ABSOLUTE
    ../mathlib/sin_i.c                       0x00000000   Number         0  sin_i_x.o ABSOLUTE
    ../mathlib/sqrt.c                        0x00000000   Number         0  sqrt_x.o ABSOLUTE
    ../mathlib/sqrt.c                        0x00000000   Number         0  sqrt.o ABSOLUTE
    ../mathlib/strtod.c                      0x00000000   Number         0  strtod.o ABSOLUTE
    ..\..\CMSIS\CM3\CoreSupport\core_cm3.c   0x00000000   Number         0  core_cm3.o ABSOLUTE
    ..\..\CMSIS\CM3\DeviceSupport\ST\STM32F10x\startup\arm\startup_stm32f10x_hd.s 0x00000000   Number         0  startup_stm32f10x_hd.o ABSOLUTE
    ..\..\CMSIS\CM3\DeviceSupport\ST\STM32F10x\system_stm32f10x.c 0x00000000   Number         0  system_stm32f10x.o ABSOLUTE
    ..\..\ampm_lib\camera\rs485_camera.c     0x00000000   Number         0  rs485_camera.o ABSOLUTE
    ..\..\ampm_lib\db\db.c                   0x00000000   Number         0  db.o ABSOLUTE
    ..\..\ampm_lib\flash_mem\sst25.c         0x00000000   Number         0  sst25.o ABSOLUTE
    ..\..\ampm_lib\gps\gps.c                 0x00000000   Number         0  gps.o ABSOLUTE
    ..\..\ampm_lib\gsm\at_cmd_call_parser.c  0x00000000   Number         0  at_cmd_call_parser.o ABSOLUTE
    ..\..\ampm_lib\gsm\at_cmd_common_parser.c 0x00000000   Number         0  at_cmd_common_parser.o ABSOLUTE
    ..\..\ampm_lib\gsm\at_cmd_sms_parser.c   0x00000000   Number         0  at_cmd_sms_parser.o ABSOLUTE
    ..\..\ampm_lib\gsm\at_command_parser.c   0x00000000   Number         0  at_command_parser.o ABSOLUTE
    ..\..\ampm_lib\gsm\at_gsm_task.c         0x00000000   Number         0  at_gsm_task.o ABSOLUTE
    ..\..\ampm_lib\gsm\at_send_cmd_task.c    0x00000000   Number         0  at_send_cmd_task.o ABSOLUTE
    ..\..\ampm_lib\gsm\gsm_hwr.c             0x00000000   Number         0  gsm_hwr.o ABSOLUTE
    ..\..\ampm_lib\gsm\modem.c               0x00000000   Number         0  modem.o ABSOLUTE
    ..\..\ampm_lib\gsm\u-blox\at_cmd_g100_parser.c 0x00000000   Number         0  at_cmd_g100_parser.o ABSOLUTE
    ..\..\ampm_lib\gsm\u-blox\at_u_blox_gprs_task.c 0x00000000   Number         0  at_u_blox_gprs_task.o ABSOLUTE
    ..\..\ampm_lib\lib\data_cmp.c            0x00000000   Number         0  data_cmp.o ABSOLUTE
    ..\..\ampm_lib\lib\list.c                0x00000000   Number         0  list.o ABSOLUTE
    ..\..\ampm_lib\lib\m_time.c              0x00000000   Number         0  m_time.o ABSOLUTE
    ..\..\ampm_lib\lib\packet_queue.c        0x00000000   Number         0  packet_queue.o ABSOLUTE
    ..\..\ampm_lib\lib\ringbuf.c             0x00000000   Number         0  ringbuf.o ABSOLUTE
    ..\..\ampm_lib\lib\sparser.c             0x00000000   Number         0  sparser.o ABSOLUTE
    ..\..\ampm_lib\lib\sys_time.c            0x00000000   Number         0  sys_time.o ABSOLUTE
    ..\..\driver\STM32F10x_StdPeriph_Driver\src\stm32f10x_flash.c 0x00000000   Number         0  stm32f10x_flash.o ABSOLUTE
    ..\..\driver\STM32F10x_StdPeriph_Driver\src\stm32f10x_iwdg.c 0x00000000   Number         0  stm32f10x_iwdg.o ABSOLUTE
    ..\..\driver\ampm\stm32\adc.c            0x00000000   Number         0  adc.o ABSOLUTE
    ..\..\driver\ampm\stm32\exti.c           0x00000000   Number         0  exti.o ABSOLUTE
    ..\..\driver\ampm\stm32\freq_Capture.c   0x00000000   Number         0  freq_capture.o ABSOLUTE
    ..\..\driver\ampm\stm32\i2c.c            0x00000000   Number         0  i2c.o ABSOLUTE
    ..\..\driver\ampm\stm32\low_power_mode.c 0x00000000   Number         0  low_power_mode.o ABSOLUTE
    ..\..\driver\ampm\stm32\rtc.c            0x00000000   Number         0  rtc.o ABSOLUTE
    ..\..\driver\ampm\stm32\spi.c            0x00000000   Number         0  spi.o ABSOLUTE
    ..\..\driver\ampm\stm32\tick.c           0x00000000   Number         0  tick.o ABSOLUTE
    ..\..\driver\ampm\stm32\uart1.c          0x00000000   Number         0  uart1.o ABSOLUTE
    ..\..\driver\ampm\stm32\uart2.c          0x00000000   Number         0  uart2.o ABSOLUTE
    ..\..\driver\ampm\stm32\uart3.c          0x00000000   Number         0  uart3.o ABSOLUTE
    ..\..\src\dbg.c                          0x00000000   Number         0  dbg.o ABSOLUTE
    ..\..\src\hw_config.c                    0x00000000   Number         0  hw_config.o ABSOLUTE
    ..\..\src\main.c                         0x00000000   Number         0  main.o ABSOLUTE
    ..\..\src\sms_server.c                   0x00000000   Number         0  sms_server.o ABSOLUTE
    ..\..\src\system_config.c                0x00000000   Number         0  system_config.o ABSOLUTE
    ..\..\src\tracker.c                      0x00000000   Number         0  tracker.o ABSOLUTE
    ..\\..\\CMSIS\\CM3\\CoreSupport\\core_cm3.c 0x00000000   Number         0  core_cm3.o ABSOLUTE
    cdcmple.s                                0x00000000   Number         0  cdcmple.o ABSOLUTE
    cdrcmple.s                               0x00000000   Number         0  cdrcmple.o ABSOLUTE
    cfcmple.s                                0x00000000   Number         0  cfcmple.o ABSOLUTE
    cfrcmple.s                               0x00000000   Number         0  cfrcmple.o ABSOLUTE
    dc.s                                     0x00000000   Number         0  dc.o ABSOLUTE
    handlers.s                               0x00000000   Number         0  handlers.o ABSOLUTE
    init.s                                   0x00000000   Number         0  init.o ABSOLUTE
    RESET                                    0x08000000   Section      304  startup_stm32f10x_hd.o(RESET)
    .ARM.Collect$$$$00000000                 0x08000130   Section        0  entry.o(.ARM.Collect$$$$00000000)
    .ARM.Collect$$$$00000001                 0x08000130   Section        4  entry2.o(.ARM.Collect$$$$00000001)
    .ARM.Collect$$$$00000004                 0x08000134   Section        4  entry5.o(.ARM.Collect$$$$00000004)
    .ARM.Collect$$$$00000008                 0x08000138   Section        0  entry7b.o(.ARM.Collect$$$$00000008)
    .ARM.Collect$$$$0000000A                 0x08000138   Section        0  entry8b.o(.ARM.Collect$$$$0000000A)
    .ARM.Collect$$$$0000000B                 0x08000138   Section        8  entry9a.o(.ARM.Collect$$$$0000000B)
    .ARM.Collect$$$$0000000D                 0x08000140   Section        0  entry10a.o(.ARM.Collect$$$$0000000D)
    .ARM.Collect$$$$0000000F                 0x08000140   Section        0  entry11a.o(.ARM.Collect$$$$0000000F)
    .ARM.Collect$$$$00002712                 0x08000140   Section        4  entry2.o(.ARM.Collect$$$$00002712)
    __lit__00000000                          0x08000140   Data           4  entry2.o(.ARM.Collect$$$$00002712)
    .text                                    0x08000144   Section        0  main.o(.text)
    NVIC_EnableIRQ                           0x08000ac3   Thumb Code    24  main.o(.text)
    NVIC_DisableIRQ                          0x08000adb   Thumb Code    18  main.o(.text)
    .text                                    0x08000b00   Section        0  system_config.o(.text)
    .text                                    0x080010d4   Section        0  hw_config.o(.text)
    .text                                    0x080012b4   Section        0  tracker.o(.text)
    .text                                    0x08001e40   Section       36  startup_stm32f10x_hd.o(.text)
    .text                                    0x08001e64   Section        0  system_stm32f10x.o(.text)
    SetSysClockTo36                          0x08001e65   Thumb Code   208  system_stm32f10x.o(.text)
    SetSysClock                              0x08001f35   Thumb Code     8  system_stm32f10x.o(.text)
    .text                                    0x0800203c   Section        0  stm32f10x_flash.o(.text)
    .text                                    0x080025f8   Section        0  stm32f10x_iwdg.o(.text)
    .text                                    0x08002638   Section        0  tick.o(.text)
    .text                                    0x080027b4   Section        0  uart1.o(.text)
    .text                                    0x080029e4   Section        0  uart2.o(.text)
    .text                                    0x08002b9c   Section        0  uart3.o(.text)
    .text                                    0x08002d40   Section        0  spi.o(.text)
    .text                                    0x08002ffc   Section        0  rtc.o(.text)
    NVIC_SetPriority                         0x08002ffd   Thumb Code    32  rtc.o(.text)
    NVIC_EnableIRQ                           0x08003411   Thumb Code    24  rtc.o(.text)
    .text                                    0x08003428   Section        0  adc.o(.text)
    .text                                    0x0800359c   Section        0  exti.o(.text)
    .text                                    0x080037dc   Section        0  freq_capture.o(.text)
    .text                                    0x08003848   Section        0  list.o(.text)
    .text                                    0x0800395c   Section        0  ringbuf.o(.text)
    .text                                    0x080039f0   Section        0  sparser.o(.text)
    .text                                    0x08003b50   Section        0  data_cmp.o(.text)
    .text                                    0x08003ba4   Section        0  sys_time.o(.text)
    .text                                    0x08003dc0   Section        0  m_time.o(.text)
    .text                                    0x0800440c   Section        0  at_cmd_call_parser.o(.text)
    .text                                    0x08004dc4   Section        0  at_cmd_common_parser.o(.text)
    .text                                    0x08005090   Section        0  at_cmd_sms_parser.o(.text)
    .text                                    0x080057c8   Section        0  at_command_parser.o(.text)
    .text                                    0x08005814   Section        0  at_gsm_task.o(.text)
    .text                                    0x080059a8   Section        0  at_send_cmd_task.o(.text)
    .text                                    0x08005da8   Section        0  gsm_hwr.o(.text)
    .text                                    0x08005e54   Section        0  modem.o(.text)
    .text                                    0x08006040   Section        0  at_cmd_g100_parser.o(.text)
    .text                                    0x0800657c   Section        0  at_u_blox_gprs_task.o(.text)
    .text                                    0x08007af0   Section        0  gps.o(.text)
    .text                                    0x08008a30   Section        0  rs485_camera.o(.text)
    SendCmd                                  0x08008c81   Thumb Code    34  rs485_camera.o(.text)
    ProcessCmd                               0x08008ccf   Thumb Code   136  rs485_camera.o(.text)
    .text                                    0x0800913c   Section        0  db.o(.text)
    .text                                    0x080095fc   Section        0  sst25.o(.text)
    SST25__Status                            0x08009613   Thumb Code    48  sst25.o(.text)
    SST25__WriteEnable                       0x08009643   Thumb Code    84  sst25.o(.text)
    SST25__WriteDisable                      0x08009883   Thumb Code     4  sst25.o(.text)
    SST25__GlobalProtect                     0x08009887   Thumb Code   108  sst25.o(.text)
    .text                                    0x08009904   Section        0  ctype_o.o(.text)
    .text                                    0x0800990c   Section        0  isspace_o.o(.text)
    .text                                    0x0800991e   Section        0  memcpya.o(.text)
    .text                                    0x08009942   Section        0  memseta.o(.text)
    .text                                    0x08009966   Section        0  strcat.o(.text)
    .text                                    0x0800997e   Section        0  strstr.o(.text)
    .text                                    0x080099a2   Section        0  strlen.o(.text)
    .text                                    0x080099b0   Section        0  memchr.o(.text)
    .text                                    0x080099c4   Section        0  memcmp.o(.text)
    .text                                    0x080099de   Section        0  strcpy.o(.text)
    .text                                    0x080099f0   Section        0  __0sscanf.o(.text)
    .text                                    0x08009a28   Section        0  _scanf_int.o(.text)
    .text                                    0x08009b78   Section        0  scanf_fp.o(.text)
    _fp_value                                0x08009b79   Thumb Code   256  scanf_fp.o(.text)
    .text                                    0x08009eb4   Section        0  strtol.o(.text)
    .text                                    0x08009f24   Section        0  fadd.o(.text)
    .text                                    0x08009fd4   Section        0  fdiv.o(.text)
    .text                                    0x0800a054   Section        0  dadd.o(.text)
    .text                                    0x0800a1a2   Section        0  dmul.o(.text)
    .text                                    0x0800a286   Section        0  ddiv.o(.text)
    .text                                    0x0800a364   Section        0  ffltui.o(.text)
    .text                                    0x0800a36e   Section        0  dfltui.o(.text)
    .text                                    0x0800a388   Section        0  ffixui.o(.text)
    .text                                    0x0800a3b0   Section        0  dfixui.o(.text)
    .text                                    0x0800a3e2   Section        0  f2d.o(.text)
    .text                                    0x0800a408   Section       40  cdcmple.o(.text)
    .text                                    0x0800a430   Section       40  cdrcmple.o(.text)
    .text                                    0x0800a458   Section        0  d2f.o(.text)
    .text                                    0x0800a490   Section       20  cfcmple.o(.text)
    .text                                    0x0800a4a4   Section       20  cfrcmple.o(.text)
    .text                                    0x0800a4b8   Section        0  uidiv.o(.text)
    .text                                    0x0800a4e4   Section        0  uldiv.o(.text)
    .text                                    0x0800a546   Section        0  llshl.o(.text)
    .text                                    0x0800a564   Section        0  llushr.o(.text)
    .text                                    0x0800a584   Section        0  llsshr.o(.text)
    .text                                    0x0800a5a8   Section        0  _chval.o(.text)
    .text                                    0x0800a5c4   Section        0  scanf_char.o(.text)
    _scanf_char_input                        0x0800a5c5   Thumb Code    12  scanf_char.o(.text)
    .text                                    0x0800a5ec   Section        0  _sgetc.o(.text)
    .text                                    0x0800a62c   Section        0  _strtoul.o(.text)
    .text                                    0x0800a6cc   Section        0  strtod.o(.text)
    _local_sscanf                            0x0800a6cd   Thumb Code    54  strtod.o(.text)
    .text                                    0x0800a768   Section        0  fepilogue.o(.text)
    .text                                    0x0800a768   Section        0  iusefp.o(.text)
    .text                                    0x0800a7d4   Section        0  depilogue.o(.text)
    .text                                    0x0800a892   Section        0  dscalb.o(.text)
    .text                                    0x0800a8c0   Section        0  dsqrt.o(.text)
    .text                                    0x0800a962   Section        0  dflti.o(.text)
    .text                                    0x0800a984   Section        0  dfltul.o(.text)
    .text                                    0x0800a99c   Section        0  dfixul.o(.text)
    .text                                    0x0800a9cc   Section       36  init.o(.text)
    .text                                    0x0800a9f0   Section        0  _scanf.o(.text)
    .text                                    0x0800ad1c   Section        0  dfixi.o(.text)
    .text                                    0x0800ad5a   Section        0  __dczerorl2.o(.text)
    i.__0sprintf                             0x0800adb8   Section        0  printfa.o(i.__0sprintf)
    i.__0vsprintf                            0x0800ade0   Section        0  printfa.o(i.__0vsprintf)
    i.__ARM_fpclassify                       0x0800ae04   Section        0  fpclassify.o(i.__ARM_fpclassify)
    i.__aeabi_errno_addr                     0x0800ae2c   Section        0  errno.o(i.__aeabi_errno_addr)
    i.__ieee754_rem_pio2                     0x0800ae34   Section        0  rred.o(i.__ieee754_rem_pio2)
    i.__kernel_cos                           0x0800b1bc   Section        0  cos_i.o(i.__kernel_cos)
    i.__kernel_poly                          0x0800b2b8   Section        0  poly.o(i.__kernel_poly)
    i.__kernel_sin                           0x0800b364   Section        0  sin_i.o(i.__kernel_sin)
    i.__mathlib_dbl_underflow                0x0800b450   Section        0  dunder.o(i.__mathlib_dbl_underflow)
    i.__scatterload_copy                     0x0800b460   Section       14  handlers.o(i.__scatterload_copy)
    i.__scatterload_null                     0x0800b46e   Section        2  handlers.o(i.__scatterload_null)
    i.__scatterload_zeroinit                 0x0800b470   Section       14  handlers.o(i.__scatterload_zeroinit)
    i.__set_errno                            0x0800b480   Section        0  errno.o(i.__set_errno)
    i._fp_digits                             0x0800b48c   Section        0  printfa.o(i._fp_digits)
    _fp_digits                               0x0800b48d   Thumb Code   326  printfa.o(i._fp_digits)
    i._is_digit                              0x0800b5e8   Section        0  scanf_fp.o(i._is_digit)
    i._printf_core                           0x0800b5f8   Section        0  printfa.o(i._printf_core)
    _printf_core                             0x0800b5f9   Thumb Code  1762  printfa.o(i._printf_core)
    i._printf_post_padding                   0x0800bce8   Section        0  printfa.o(i._printf_post_padding)
    _printf_post_padding                     0x0800bce9   Thumb Code    38  printfa.o(i._printf_post_padding)
    i._printf_pre_padding                    0x0800bd0e   Section        0  printfa.o(i._printf_pre_padding)
    _printf_pre_padding                      0x0800bd0f   Thumb Code    48  printfa.o(i._printf_pre_padding)
    i._sputc                                 0x0800bd3e   Section        0  printfa.o(i._sputc)
    _sputc                                   0x0800bd3f   Thumb Code    10  printfa.o(i._sputc)
    i.atan                                   0x0800bd48   Section        0  atan.o(i.atan)
    i.atan2                                  0x0800bf6c   Section        0  atan2.o(i.atan2)
    i.cos                                    0x0800c0ec   Section        0  cos.o(i.cos)
    i.floor                                  0x0800c198   Section        0  floor.o(i.floor)
    i.pow                                    0x0800c274   Section        0  pow.o(i.pow)
    i.sin                                    0x0800cc54   Section        0  sin.o(i.sin)
    i.sqrt                                   0x0800cd04   Section        0  sqrt.o(i.sqrt)
    i.strtod                                 0x0800cd50   Section        0  strtod.o(i.strtod)
    .constdata                               0x0800cd6c   Section       96  m_time.o(.constdata)
    .constdata                               0x0800cdcc   Section        6  at_cmd_call_parser.o(.constdata)
    .constdata                               0x0800cdd4   Section      183  at_command_parser.o(.constdata)
    AT_ProcessCmd                            0x0800cdd4   Data         176  at_command_parser.o(.constdata)
    .constdata                               0x0800ce8c   Section      280  at_gsm_task.o(.constdata)
    .constdata                               0x0800cfa4   Section       77  at_cmd_g100_parser.o(.constdata)
    .constdata                               0x0800cff4   Section       28  at_u_blox_gprs_task.o(.constdata)
    .constdata                               0x0800d010   Section       80  gps.o(.constdata)
    GPS_ProcessCmd                           0x0800d010   Data          80  gps.o(.constdata)
    .constdata                               0x0800d060   Section      136  pow.o(.constdata)
    bp                                       0x0800d060   Data          16  pow.o(.constdata)
    dp_h                                     0x0800d070   Data          16  pow.o(.constdata)
    dp_l                                     0x0800d080   Data          16  pow.o(.constdata)
    L                                        0x0800d090   Data          48  pow.o(.constdata)
    P                                        0x0800d0c0   Data          40  pow.o(.constdata)
    .constdata                               0x0800d0e8   Section      129  ctype_o.o(.constdata)
    .constdata                               0x0800d16c   Section        4  ctype_o.o(.constdata)
    table                                    0x0800d16c   Data           4  ctype_o.o(.constdata)
    .constdata                               0x0800d170   Section      152  atan.o(.constdata)
    atanhi                                   0x0800d170   Data          32  atan.o(.constdata)
    atanlo                                   0x0800d190   Data          32  atan.o(.constdata)
    aTodd                                    0x0800d1b0   Data          40  atan.o(.constdata)
    aTeven                                   0x0800d1d8   Data          48  atan.o(.constdata)
    .constdata                               0x0800d208   Section       48  cos_i.o(.constdata)
    C                                        0x0800d208   Data          48  cos_i.o(.constdata)
    .constdata                               0x0800d238   Section        8  qnan.o(.constdata)
    .constdata                               0x0800d240   Section      200  rred.o(.constdata)
    pio2s                                    0x0800d240   Data          48  rred.o(.constdata)
    twooverpi                                0x0800d270   Data         152  rred.o(.constdata)
    .constdata                               0x0800d308   Section       40  sin_i.o(.constdata)
    S                                        0x0800d308   Data          40  sin_i.o(.constdata)
    .conststring                             0x0800d330   Section      180  at_command_parser.o(.conststring)
    .conststring                             0x0800d3e4   Section      132  at_gsm_task.o(.conststring)
    .data                                    0x20000000   Section       28  main.o(.data)
    gpsTaskTime                              0x20000014   Data           4  main.o(.data)
    .data                                    0x2000001c   Section       17  tracker.o(.data)
    .data                                    0x20000030   Section       20  system_stm32f10x.o(.data)
    .data                                    0x20000048   Section       16  tick.o(.data)
    .data                                    0x20000058   Section       12  rtc.o(.data)
    .data                                    0x20000064   Section       14  adc.o(.data)
    .data                                    0x20000074   Section        4  exti.o(.data)
    .data                                    0x20000078   Section       40  freq_capture.o(.data)
    .data                                    0x200000a0   Section        1  sparser.o(.data)
    lastChar                                 0x200000a0   Data           1  sparser.o(.data)
    .data                                    0x200000a4   Section       12  sys_time.o(.data)
    .data                                    0x200000b0   Section       12  m_time.o(.data)
    .data                                    0x200000bc   Section        6  at_cmd_call_parser.o(.data)
    errorCode                                0x200000c0   Data           2  at_cmd_call_parser.o(.data)
    .data                                    0x200000c4   Section       22  at_cmd_common_parser.o(.data)
    level                                    0x200000cc   Data           4  at_cmd_common_parser.o(.data)
    number                                   0x200000d0   Data           2  at_cmd_common_parser.o(.data)
    .data                                    0x200000dc   Section       36  at_cmd_sms_parser.o(.data)
    smsList_list                             0x200000dc   Data           4  at_cmd_sms_parser.o(.data)
    smsList                                  0x200000e0   Data           4  at_cmd_sms_parser.o(.data)
    comma                                    0x200000e7   Data           1  at_cmd_sms_parser.o(.data)
    getSmsDataFlag                           0x200000e8   Data           1  at_cmd_sms_parser.o(.data)
    u8pt                                     0x200000ec   Data           4  at_cmd_sms_parser.o(.data)
    u8pt1                                    0x200000f0   Data           4  at_cmd_sms_parser.o(.data)
    u8pt2                                    0x200000f4   Data           4  at_cmd_sms_parser.o(.data)
    length                                   0x200000f8   Data           4  at_cmd_sms_parser.o(.data)
    .data                                    0x20000100   Section        8  at_command_parser.o(.data)
    RingBuffInit                             0x20000104   Data           4  at_command_parser.o(.data)
    .data                                    0x20000108   Section        3  at_gsm_task.o(.data)
    .data                                    0x2000010c   Section       24  at_send_cmd_task.o(.data)
    atCmdList_list                           0x2000010c   Data           4  at_send_cmd_task.o(.data)
    atCmdList                                0x20000110   Data           4  at_send_cmd_task.o(.data)
    .data                                    0x20000124   Section        8  modem.o(.data)
    .data                                    0x2000012c   Section       13  at_cmd_g100_parser.o(.data)
    dataCnt                                  0x20000137   Data           1  at_cmd_g100_parser.o(.data)
    offset                                   0x20000138   Data           1  at_cmd_g100_parser.o(.data)
    .data                                    0x2000013c   Section       94  at_u_blox_gprs_task.o(.data)
    gprsConnList_list                        0x2000013c   Data           4  at_u_blox_gprs_task.o(.data)
    gprsConnList                             0x20000140   Data           4  at_u_blox_gprs_task.o(.data)
    length                                   0x20000158   Data           4  at_u_blox_gprs_task.o(.data)
    socketNo                                 0x2000015c   Data           1  at_u_blox_gprs_task.o(.data)
    flag                                     0x2000015d   Data           1  at_u_blox_gprs_task.o(.data)
    dataLen                                  0x20000160   Data           4  at_u_blox_gprs_task.o(.data)
    socketNo                                 0x20000164   Data           1  at_u_blox_gprs_task.o(.data)
    pt                                       0x20000168   Data           4  at_u_blox_gprs_task.o(.data)
    length                                   0x2000016c   Data           4  at_u_blox_gprs_task.o(.data)
    socketNo                                 0x20000170   Data           1  at_u_blox_gprs_task.o(.data)
    .data                                    0x2000019c   Section       40  gps.o(.data)
    gpsTime                                  0x200001a8   Data           4  gps.o(.data)
    .data                                    0x200001c4   Section       60  rs485_camera.o(.data)
    CamCrc                                   0x200001e6   Data           2  rs485_camera.o(.data)
    .data                                    0x20000200   Section        8  db.o(.data)
    .data                                    0x20000208   Section        4  sst25.o(.data)
    .data                                    0x2000020c   Section        4  errno.o(.data)
    _errno                                   0x2000020c   Data           4  errno.o(.data)
    .bss                                     0x20000210   Section      624  main.o(.bss)
    .bss                                     0x20000480   Section     1256  system_config.o(.bss)
    .bss                                     0x20000968   Section       32  hw_config.o(.bss)
    .bss                                     0x20000988   Section       20  tracker.o(.bss)
    speedSamples                             0x20000988   Data          20  tracker.o(.bss)
    .bss                                     0x2000099c   Section     1056  uart1.o(.bss)
    .bss                                     0x20000dbc   Section     1040  uart2.o(.bss)
    .bss                                     0x200011cc   Section      120  at_cmd_call_parser.o(.bss)
    .bss                                     0x20001244   Section       50  at_cmd_common_parser.o(.bss)
    .bss                                     0x20001278   Section      587  at_cmd_sms_parser.o(.bss)
    .bss                                     0x200014c4   Section       40  at_command_parser.o(.bss)
    .bss                                     0x200014ec   Section       92  at_gsm_task.o(.bss)
    .bss                                     0x20001548   Section      220  at_send_cmd_task.o(.bss)
    .bss                                     0x20001624   Section      128  modem.o(.bss)
    buffer                                   0x20001624   Data         128  modem.o(.bss)
    .bss                                     0x200016a4   Section      304  at_cmd_g100_parser.o(.bss)
    .bss                                     0x200017d4   Section      876  at_u_blox_gprs_task.o(.bss)
    .bss                                     0x20001b40   Section     1344  gps.o(.bss)
    .bss                                     0x20002080   Section     1394  rs485_camera.o(.bss)
    .bss                                     0x200025f2   Section      121  db.o(.bss)
    STACK                                    0x20002670   Section     4096  startup_stm32f10x_hd.o(STACK)

    Global Symbols

    Symbol Name                              Value     Ov Type        Size  Object(Section)

    BuildAttributes$$THM_ISAv4$P$D$K$B$S$PE$A:L22UL41UL21$X:L11$S22US41US21$IEEE1$IW$USESV6$~STKCKD$USESV7$~SHL$OTIME$ROPI$IEEEX$EBA8$MICROLIB$REQ8$PRES8$EABIv2 0x00000000   Number         0  anon$$obj.o ABSOLUTE
    __ARM_use_no_argv                        0x00000000   Number         0  main.o ABSOLUTE
    _printf_a                                0x00000000   Number         0  stubs.o ABSOLUTE
    _printf_c                                0x00000000   Number         0  stubs.o ABSOLUTE
    _printf_charcount                        0x00000000   Number         0  stubs.o ABSOLUTE
    _printf_d                                0x00000000   Number         0  stubs.o ABSOLUTE
    _printf_e                                0x00000000   Number         0  stubs.o ABSOLUTE
    _printf_f                                0x00000000   Number         0  stubs.o ABSOLUTE
    _printf_flags                            0x00000000   Number         0  stubs.o ABSOLUTE
    _printf_fp_dec                           0x00000000   Number         0  stubs.o ABSOLUTE
    _printf_fp_hex                           0x00000000   Number         0  stubs.o ABSOLUTE
    _printf_g                                0x00000000   Number         0  stubs.o ABSOLUTE
    _printf_i                                0x00000000   Number         0  stubs.o ABSOLUTE
    _printf_int_dec                          0x00000000   Number         0  stubs.o ABSOLUTE
    _printf_l                                0x00000000   Number         0  stubs.o ABSOLUTE
    _printf_lc                               0x00000000   Number         0  stubs.o ABSOLUTE
    _printf_ll                               0x00000000   Number         0  stubs.o ABSOLUTE
    _printf_lld                              0x00000000   Number         0  stubs.o ABSOLUTE
    _printf_lli                              0x00000000   Number         0  stubs.o ABSOLUTE
    _printf_llo                              0x00000000   Number         0  stubs.o ABSOLUTE
    _printf_llu                              0x00000000   Number         0  stubs.o ABSOLUTE
    _printf_llx                              0x00000000   Number         0  stubs.o ABSOLUTE
    _printf_longlong_dec                     0x00000000   Number         0  stubs.o ABSOLUTE
    _printf_longlong_hex                     0x00000000   Number         0  stubs.o ABSOLUTE
    _printf_longlong_oct                     0x00000000   Number         0  stubs.o ABSOLUTE
    _printf_ls                               0x00000000   Number         0  stubs.o ABSOLUTE
    _printf_mbtowc                           0x00000000   Number         0  stubs.o ABSOLUTE
    _printf_n                                0x00000000   Number         0  stubs.o ABSOLUTE
    _printf_o                                0x00000000   Number         0  stubs.o ABSOLUTE
    _printf_p                                0x00000000   Number         0  stubs.o ABSOLUTE
    _printf_percent                          0x00000000   Number         0  stubs.o ABSOLUTE
    _printf_pre_padding                      0x00000000   Number         0  stubs.o ABSOLUTE
    _printf_return_value                     0x00000000   Number         0  stubs.o ABSOLUTE
    _printf_s                                0x00000000   Number         0  stubs.o ABSOLUTE
    _printf_sizespec                         0x00000000   Number         0  stubs.o ABSOLUTE
    _printf_str                              0x00000000   Number         0  stubs.o ABSOLUTE
    _printf_truncate_signed                  0x00000000   Number         0  stubs.o ABSOLUTE
    _printf_truncate_unsigned                0x00000000   Number         0  stubs.o ABSOLUTE
    _printf_u                                0x00000000   Number         0  stubs.o ABSOLUTE
    _printf_wc                               0x00000000   Number         0  stubs.o ABSOLUTE
    _printf_wctomb                           0x00000000   Number         0  stubs.o ABSOLUTE
    _printf_widthprec                        0x00000000   Number         0  stubs.o ABSOLUTE
    _printf_x                                0x00000000   Number         0  stubs.o ABSOLUTE
    __cpp_initialize__aeabi_                  - Undefined Weak Reference
    __cxa_finalize                            - Undefined Weak Reference
    _clock_init                               - Undefined Weak Reference
    _microlib_exit                            - Undefined Weak Reference
    _scanf_longlong                           - Undefined Weak Reference
    _scanf_string                             - Undefined Weak Reference
    __Vectors_Size                           0x00000130   Number         0  startup_stm32f10x_hd.o ABSOLUTE
    __Vectors                                0x08000000   Data           4  startup_stm32f10x_hd.o(RESET)
    __Vectors_End                            0x08000130   Data           0  startup_stm32f10x_hd.o(RESET)
    __main                                   0x08000131   Thumb Code     0  entry.o(.ARM.Collect$$$$00000000)
    _main_stk                                0x08000131   Thumb Code     0  entry2.o(.ARM.Collect$$$$00000001)
    _main_scatterload                        0x08000135   Thumb Code     0  entry5.o(.ARM.Collect$$$$00000004)
    __main_after_scatterload                 0x08000139   Thumb Code     0  entry5.o(.ARM.Collect$$$$00000004)
    _main_clock                              0x08000139   Thumb Code     0  entry7b.o(.ARM.Collect$$$$00000008)
    _main_cpp_init                           0x08000139   Thumb Code     0  entry8b.o(.ARM.Collect$$$$0000000A)
    _main_init                               0x08000139   Thumb Code     0  entry9a.o(.ARM.Collect$$$$0000000B)
    __rt_final_cpp                           0x08000141   Thumb Code     0  entry10a.o(.ARM.Collect$$$$0000000D)
    __rt_final_exit                          0x08000141   Thumb Code     0  entry11a.o(.ARM.Collect$$$$0000000F)
    HardFault_Handler                        0x08000145   Thumb Code     4  main.o(.text)
    SysInit                                  0x08000149   Thumb Code   180  main.o(.text)
    TIMER2_Init                              0x080001fd   Thumb Code   102  main.o(.text)
    SysWakeUp                                0x08000263   Thumb Code   172  main.o(.text)
    SysDeInit                                0x0800030f   Thumb Code   278  main.o(.text)
    GPS_TaskControl                          0x08000425   Thumb Code   108  main.o(.text)
    SysSleep                                 0x08000491   Thumb Code   268  main.o(.text)
    GetDataFromLog                           0x0800059d   Thumb Code    62  main.o(.text)
    GSM_GPRS_Task                            0x080005db   Thumb Code  1070  main.o(.text)
    AppRun                                   0x08000a09   Thumb Code    20  main.o(.text)
    main                                     0x08000a1d   Thumb Code    56  main.o(.text)
    TIM2_IRQHandler                          0x08000a55   Thumb Code    58  main.o(.text)
    mCentrelTest                             0x08000a8f   Thumb Code    52  main.o(.text)
    CFG_Save                                 0x08000b01   Thumb Code   166  system_config.o(.text)
    CFG_Load                                 0x08000ba7   Thumb Code  1194  system_config.o(.text)
    CFG_CheckSum                             0x08001051   Thumb Code    46  system_config.o(.text)
    IO_Init                                  0x080010d5   Thumb Code    64  hw_config.o(.text)
    IO_Control                               0x08001115   Thumb Code   404  hw_config.o(.text)
    TrackerInit                              0x080012b5   Thumb Code    10  tracker.o(.text)
    TRACKER_Pause                            0x080012bf   Thumb Code     8  tracker.o(.text)
    TRACKER_Resume                           0x080012c7   Thumb Code     8  tracker.o(.text)
    TrackerTask                              0x080012cf   Thumb Code   746  tracker.o(.text)
    TrackerGetNewData                        0x080015b9   Thumb Code     8  tracker.o(.text)
    TrackerCrc                               0x080015c1   Thumb Code    26  tracker.o(.text)
    AddTrackerPacket                         0x080015db   Thumb Code  1768  tracker.o(.text)
    PrintTrackerInfo                         0x08001cc3   Thumb Code     2  tracker.o(.text)
    haversine_km                             0x08001cc5   Thumb Code   316  tracker.o(.text)
    Reset_Handler                            0x08001e41   Thumb Code     8  startup_stm32f10x_hd.o(.text)
    NMI_Handler                              0x08001e49   Thumb Code     2  startup_stm32f10x_hd.o(.text)
    MemManage_Handler                        0x08001e4d   Thumb Code     2  startup_stm32f10x_hd.o(.text)
    BusFault_Handler                         0x08001e4f   Thumb Code     2  startup_stm32f10x_hd.o(.text)
    UsageFault_Handler                       0x08001e51   Thumb Code     2  startup_stm32f10x_hd.o(.text)
    SVC_Handler                              0x08001e53   Thumb Code     2  startup_stm32f10x_hd.o(.text)
    DebugMon_Handler                         0x08001e55   Thumb Code     2  startup_stm32f10x_hd.o(.text)
    PendSV_Handler                           0x08001e57   Thumb Code     2  startup_stm32f10x_hd.o(.text)
    ADC3_IRQHandler                          0x08001e5b   Thumb Code     0  startup_stm32f10x_hd.o(.text)
    CAN1_RX1_IRQHandler                      0x08001e5b   Thumb Code     0  startup_stm32f10x_hd.o(.text)
    CAN1_SCE_IRQHandler                      0x08001e5b   Thumb Code     0  startup_stm32f10x_hd.o(.text)
    DMA1_Channel1_IRQHandler                 0x08001e5b   Thumb Code     0  startup_stm32f10x_hd.o(.text)
    DMA1_Channel2_IRQHandler                 0x08001e5b   Thumb Code     0  startup_stm32f10x_hd.o(.text)
    DMA1_Channel3_IRQHandler                 0x08001e5b   Thumb Code     0  startup_stm32f10x_hd.o(.text)
    DMA1_Channel4_IRQHandler                 0x08001e5b   Thumb Code     0  startup_stm32f10x_hd.o(.text)
    DMA1_Channel5_IRQHandler                 0x08001e5b   Thumb Code     0  startup_stm32f10x_hd.o(.text)
    DMA1_Channel6_IRQHandler                 0x08001e5b   Thumb Code     0  startup_stm32f10x_hd.o(.text)
    DMA1_Channel7_IRQHandler                 0x08001e5b   Thumb Code     0  startup_stm32f10x_hd.o(.text)
    DMA2_Channel1_IRQHandler                 0x08001e5b   Thumb Code     0  startup_stm32f10x_hd.o(.text)
    DMA2_Channel2_IRQHandler                 0x08001e5b   Thumb Code     0  startup_stm32f10x_hd.o(.text)
    DMA2_Channel3_IRQHandler                 0x08001e5b   Thumb Code     0  startup_stm32f10x_hd.o(.text)
    DMA2_Channel4_5_IRQHandler               0x08001e5b   Thumb Code     0  startup_stm32f10x_hd.o(.text)
    EXTI15_10_IRQHandler                     0x08001e5b   Thumb Code     0  startup_stm32f10x_hd.o(.text)
    EXTI3_IRQHandler                         0x08001e5b   Thumb Code     0  startup_stm32f10x_hd.o(.text)
    FLASH_IRQHandler                         0x08001e5b   Thumb Code     0  startup_stm32f10x_hd.o(.text)
    FSMC_IRQHandler                          0x08001e5b   Thumb Code     0  startup_stm32f10x_hd.o(.text)
    I2C1_ER_IRQHandler                       0x08001e5b   Thumb Code     0  startup_stm32f10x_hd.o(.text)
    I2C1_EV_IRQHandler                       0x08001e5b   Thumb Code     0  startup_stm32f10x_hd.o(.text)
    I2C2_ER_IRQHandler                       0x08001e5b   Thumb Code     0  startup_stm32f10x_hd.o(.text)
    I2C2_EV_IRQHandler                       0x08001e5b   Thumb Code     0  startup_stm32f10x_hd.o(.text)
    PVD_IRQHandler                           0x08001e5b   Thumb Code     0  startup_stm32f10x_hd.o(.text)
    RCC_IRQHandler                           0x08001e5b   Thumb Code     0  startup_stm32f10x_hd.o(.text)
    SDIO_IRQHandler                          0x08001e5b   Thumb Code     0  startup_stm32f10x_hd.o(.text)
    SPI1_IRQHandler                          0x08001e5b   Thumb Code     0  startup_stm32f10x_hd.o(.text)
    SPI2_IRQHandler                          0x08001e5b   Thumb Code     0  startup_stm32f10x_hd.o(.text)
    SPI3_IRQHandler                          0x08001e5b   Thumb Code     0  startup_stm32f10x_hd.o(.text)
    TAMPER_IRQHandler                        0x08001e5b   Thumb Code     0  startup_stm32f10x_hd.o(.text)
    TIM1_BRK_IRQHandler                      0x08001e5b   Thumb Code     0  startup_stm32f10x_hd.o(.text)
    TIM1_CC_IRQHandler                       0x08001e5b   Thumb Code     0  startup_stm32f10x_hd.o(.text)
    TIM1_TRG_COM_IRQHandler                  0x08001e5b   Thumb Code     0  startup_stm32f10x_hd.o(.text)
    TIM1_UP_IRQHandler                       0x08001e5b   Thumb Code     0  startup_stm32f10x_hd.o(.text)
    TIM3_IRQHandler                          0x08001e5b   Thumb Code     0  startup_stm32f10x_hd.o(.text)
    TIM4_IRQHandler                          0x08001e5b   Thumb Code     0  startup_stm32f10x_hd.o(.text)
    TIM5_IRQHandler                          0x08001e5b   Thumb Code     0  startup_stm32f10x_hd.o(.text)
    TIM6_IRQHandler                          0x08001e5b   Thumb Code     0  startup_stm32f10x_hd.o(.text)
    TIM7_IRQHandler                          0x08001e5b   Thumb Code     0  startup_stm32f10x_hd.o(.text)
    TIM8_BRK_IRQHandler                      0x08001e5b   Thumb Code     0  startup_stm32f10x_hd.o(.text)
    TIM8_CC_IRQHandler                       0x08001e5b   Thumb Code     0  startup_stm32f10x_hd.o(.text)
    TIM8_TRG_COM_IRQHandler                  0x08001e5b   Thumb Code     0  startup_stm32f10x_hd.o(.text)
    TIM8_UP_IRQHandler                       0x08001e5b   Thumb Code     0  startup_stm32f10x_hd.o(.text)
    UART4_IRQHandler                         0x08001e5b   Thumb Code     0  startup_stm32f10x_hd.o(.text)
    UART5_IRQHandler                         0x08001e5b   Thumb Code     0  startup_stm32f10x_hd.o(.text)
    USB_HP_CAN1_TX_IRQHandler                0x08001e5b   Thumb Code     0  startup_stm32f10x_hd.o(.text)
    USB_LP_CAN1_RX0_IRQHandler               0x08001e5b   Thumb Code     0  startup_stm32f10x_hd.o(.text)
    WWDG_IRQHandler                          0x08001e5b   Thumb Code     0  startup_stm32f10x_hd.o(.text)
    SystemInit                               0x08001f3d   Thumb Code    78  system_stm32f10x.o(.text)
    SystemCoreClockUpdate                    0x08001f8b   Thumb Code   142  system_stm32f10x.o(.text)
    FLASH_SetLatency                         0x0800203d   Thumb Code    18  stm32f10x_flash.o(.text)
    FLASH_HalfCycleAccessCmd                 0x0800204f   Thumb Code    22  stm32f10x_flash.o(.text)
    FLASH_PrefetchBufferCmd                  0x08002065   Thumb Code    22  stm32f10x_flash.o(.text)
    FLASH_Unlock                             0x0800207b   Thumb Code    12  stm32f10x_flash.o(.text)
    FLASH_UnlockBank1                        0x08002087   Thumb Code    12  stm32f10x_flash.o(.text)
    FLASH_Lock                               0x08002093   Thumb Code    14  stm32f10x_flash.o(.text)
    FLASH_LockBank1                          0x080020a1   Thumb Code    14  stm32f10x_flash.o(.text)
    FLASH_GetBank1Status                     0x080020af   Thumb Code    48  stm32f10x_flash.o(.text)
    FLASH_WaitForLastOperation               0x080020df   Thumb Code    38  stm32f10x_flash.o(.text)
    FLASH_ErasePage                          0x08002105   Thumb Code    72  stm32f10x_flash.o(.text)
    FLASH_EraseAllPages                      0x0800214d   Thumb Code    68  stm32f10x_flash.o(.text)
    FLASH_WaitForLastBank1Operation          0x08002191   Thumb Code    38  stm32f10x_flash.o(.text)
    FLASH_EraseAllBank1Pages                 0x080021b7   Thumb Code    68  stm32f10x_flash.o(.text)
    FLASH_GetReadOutProtectionStatus         0x080021fb   Thumb Code    20  stm32f10x_flash.o(.text)
    FLASH_EraseOptionBytes                   0x0800220f   Thumb Code   150  stm32f10x_flash.o(.text)
    FLASH_ProgramWord                        0x080022a5   Thumb Code   102  stm32f10x_flash.o(.text)
    FLASH_ProgramHalfWord                    0x0800230b   Thumb Code    60  stm32f10x_flash.o(.text)
    FLASH_ProgramOptionByteData              0x08002347   Thumb Code    72  stm32f10x_flash.o(.text)
    FLASH_EnableWriteProtection              0x0800238f   Thumb Code   200  stm32f10x_flash.o(.text)
    FLASH_ReadOutProtection                  0x08002457   Thumb Code   156  stm32f10x_flash.o(.text)
    FLASH_UserOptionByteConfig               0x080024f3   Thumb Code    88  stm32f10x_flash.o(.text)
    FLASH_GetUserOptionByte                  0x0800254b   Thumb Code     8  stm32f10x_flash.o(.text)
    FLASH_GetWriteProtectionOptionByte       0x08002553   Thumb Code     6  stm32f10x_flash.o(.text)
    FLASH_GetPrefetchBufferStatus            0x08002559   Thumb Code    20  stm32f10x_flash.o(.text)
    FLASH_ITConfig                           0x0800256d   Thumb Code    26  stm32f10x_flash.o(.text)
    FLASH_GetFlagStatus                      0x08002587   Thumb Code    42  stm32f10x_flash.o(.text)
    FLASH_ClearFlag                          0x080025b1   Thumb Code     6  stm32f10x_flash.o(.text)
    FLASH_GetStatus                          0x080025b7   Thumb Code    48  stm32f10x_flash.o(.text)
    IWDG_WriteAccessCmd                      0x080025f9   Thumb Code     6  stm32f10x_iwdg.o(.text)
    IWDG_SetPrescaler                        0x080025ff   Thumb Code     6  stm32f10x_iwdg.o(.text)
    IWDG_SetReload                           0x08002605   Thumb Code     6  stm32f10x_iwdg.o(.text)
    IWDG_ReloadCounter                       0x0800260b   Thumb Code    10  stm32f10x_iwdg.o(.text)
    IWDG_Enable                              0x08002615   Thumb Code    10  stm32f10x_iwdg.o(.text)
    IWDG_GetFlagStatus                       0x0800261f   Thumb Code    20  stm32f10x_iwdg.o(.text)
    TICK_Init                                0x08002639   Thumb Code    74  tick.o(.text)
    TICK_DeInit                              0x08002683   Thumb Code    10  tick.o(.text)
    SysTick_Handler                          0x0800268d   Thumb Code    58  tick.o(.text)
    TICK_Get                                 0x080026c7   Thumb Code     6  tick.o(.text)
    TICK_Get64                               0x080026cd   Thumb Code     8  tick.o(.text)
    DelayMs                                  0x080026d5   Thumb Code    24  tick.o(.text)
    InitTimeout                              0x080026ed   Thumb Code    22  tick.o(.text)
    CheckTimeout                             0x08002703   Thumb Code   100  tick.o(.text)
    TimerDelayms                             0x08002767   Thumb Code    48  tick.o(.text)
    USART1_Init                              0x080027b5   Thumb Code   318  uart1.o(.text)
    USART1_DeInit                            0x080028f3   Thumb Code    26  uart1.o(.text)
    USART1_PutChar                           0x0800290d   Thumb Code    22  uart1.o(.text)
    USART1_PutString                         0x08002923   Thumb Code    22  uart1.o(.text)
    USART1_GetChar                           0x08002939   Thumb Code    24  uart1.o(.text)
    USART1_IRQHandler                        0x08002951   Thumb Code   110  uart1.o(.text)
    USART2_Init                              0x080029e5   Thumb Code   290  uart2.o(.text)
    USART2_DeInit                            0x08002b07   Thumb Code    26  uart2.o(.text)
    USART2_PutChar                           0x08002b21   Thumb Code    22  uart2.o(.text)
    USART2_GetChar                           0x08002b37   Thumb Code    24  uart2.o(.text)
    USART2_IRQHandler                        0x08002b4f   Thumb Code    48  uart2.o(.text)
    USART3_Init                              0x08002b9d   Thumb Code   262  uart3.o(.text)
    USART3_DeInit                            0x08002ca3   Thumb Code    26  uart3.o(.text)
    USART3_PutChar                           0x08002cbd   Thumb Code    22  uart3.o(.text)
    USART3_PutString                         0x08002cd3   Thumb Code    22  uart3.o(.text)
    USART3_GetChar                           0x08002ce9   Thumb Code    24  uart3.o(.text)
    USART3_IRQHandler                        0x08002d01   Thumb Code    40  uart3.o(.text)
    SPI_InitLowFreq                          0x08002d41   Thumb Code   210  spi.o(.text)
    SPI_InitHighFreq                         0x08002e13   Thumb Code   210  spi.o(.text)
    SPI_DeInit                               0x08002ee5   Thumb Code    38  spi.o(.text)
    halSpiWriteByte                          0x08002f0b   Thumb Code    32  spi.o(.text)
    halSpiWriteMutilByte                     0x08002f2b   Thumb Code    92  spi.o(.text)
    halSpiReadMutilByte                      0x08002f87   Thumb Code    92  spi.o(.text)
    RTC_ExitConfigMode                       0x0800301d   Thumb Code    16  rtc.o(.text)
    RTC_EnterConfigMode                      0x0800302d   Thumb Code    14  rtc.o(.text)
    RTC_SetCounter                           0x0800303b   Thumb Code    78  rtc.o(.text)
    UpdateRtcTime                            0x08003089   Thumb Code    28  rtc.o(.text)
    RTC_IRQHandler                           0x080030a5   Thumb Code    34  rtc.o(.text)
    RTC_SetAlarm                             0x080030c7   Thumb Code    40  rtc.o(.text)
    RTC_GetCounter                           0x080030ef   Thumb Code    18  rtc.o(.text)
    RTCAlarm_IRQHandler                      0x08003101   Thumb Code    82  rtc.o(.text)
    RTC_SetCounterX                          0x08003153   Thumb Code    26  rtc.o(.text)
    RTC_Reset                                0x0800316d   Thumb Code   210  rtc.o(.text)
    RTC_SanityCheck                          0x0800323f   Thumb Code    52  rtc.o(.text)
    RTC_Init                                 0x08003273   Thumb Code   414  rtc.o(.text)
    ADC1_2_IRQHandler                        0x08003429   Thumb Code    76  adc.o(.text)
    StartADC                                 0x08003475   Thumb Code    18  adc.o(.text)
    ADC_Init                                 0x08003487   Thumb Code   242  adc.o(.text)
    EXTI0_IRQHandler                         0x0800359d   Thumb Code    20  exti.o(.text)
    EXTI1_IRQHandler                         0x080035b1   Thumb Code    20  exti.o(.text)
    EXTI2_IRQHandler                         0x080035c5   Thumb Code    30  exti.o(.text)
    EXTI6_IRQHandler                         0x080035e3   Thumb Code    30  exti.o(.text)
    EXTI9_5_IRQHandler                       0x08003601   Thumb Code    62  exti.o(.text)
    USBWakeUp_IRQHandler                     0x0800363f   Thumb Code    22  exti.o(.text)
    EXTI_Init                                0x08003655   Thumb Code   370  exti.o(.text)
    InitCapture                              0x080037dd   Thumb Code     2  freq_capture.o(.text)
    EXTI4_IRQHandler                         0x080037df   Thumb Code    80  freq_capture.o(.text)
    list_init                                0x08003849   Thumb Code     6  list.o(.text)
    list_head                                0x0800384f   Thumb Code     6  list.o(.text)
    list_copy                                0x08003855   Thumb Code     6  list.o(.text)
    list_tail                                0x0800385b   Thumb Code    26  list.o(.text)
    list_remove                              0x08003875   Thumb Code    52  list.o(.text)
    list_add                                 0x080038a9   Thumb Code    36  list.o(.text)
    list_push                                0x080038cd   Thumb Code    22  list.o(.text)
    list_chop                                0x080038e3   Thumb Code    48  list.o(.text)
    list_pop                                 0x08003913   Thumb Code    16  list.o(.text)
    list_length                              0x08003923   Thumb Code    18  list.o(.text)
    list_insert                              0x08003935   Thumb Code    28  list.o(.text)
    list_item_next                           0x08003951   Thumb Code    12  list.o(.text)
    RINGBUF_Init                             0x0800395d   Thumb Code    30  ringbuf.o(.text)
    RINGBUF_Put                              0x0800397b   Thumb Code    42  ringbuf.o(.text)
    RINGBUF_Get                              0x080039a5   Thumb Code    46  ringbuf.o(.text)
    RINGBUF_GetFill                          0x080039d3   Thumb Code    30  ringbuf.o(.text)
    StrParserInit                            0x080039f1   Thumb Code    42  sparser.o(.text)
    StrParserCtl                             0x08003a1b   Thumb Code    74  sparser.o(.text)
    StrComnandParser                         0x08003a65   Thumb Code   230  sparser.o(.text)
    InitFindData                             0x08003b51   Thumb Code    24  data_cmp.o(.text)
    FindData                                 0x08003b69   Thumb Code    60  data_cmp.o(.text)
    TIME_FromGsm                             0x08003ba5   Thumb Code   184  sys_time.o(.text)
    TIME_FromGps                             0x08003c5d   Thumb Code   108  sys_time.o(.text)
    TIME_GetSec                              0x08003cc9   Thumb Code   128  sys_time.o(.text)
    TIME_FromSec                             0x08003d49   Thumb Code    78  sys_time.o(.text)
    TIME_AddSec                              0x08003d97   Thumb Code    40  sys_time.o(.text)
    gmtime_r                                 0x08003dc1   Thumb Code   366  m_time.o(.text)
    localtime_r                              0x08003f2f   Thumb Code    26  m_time.o(.text)
    mktime                                   0x08003f49   Thumb Code  1200  m_time.o(.text)
    AT_CmdCallParserInit                     0x0800440d   Thumb Code    12  at_cmd_call_parser.o(.text)
    VoiceCallTask_Init                       0x08004419   Thumb Code    24  at_cmd_call_parser.o(.text)
    VoiceCallTask_StartCall                  0x08004431   Thumb Code    66  at_cmd_call_parser.o(.text)
    VoiceCallTask_AnswerCall                 0x08004473   Thumb Code    28  at_cmd_call_parser.o(.text)
    VoiceCallTask_EndCall                    0x0800448f   Thumb Code    88  at_cmd_call_parser.o(.text)
    VoiceCallTask_GetCallerPhoneNo           0x080044e7   Thumb Code     4  at_cmd_call_parser.o(.text)
    VoiceCallTask_IsModemBusy                0x080044eb   Thumb Code    40  at_cmd_call_parser.o(.text)
    VoiceCallTask_GetPhase                   0x08004513   Thumb Code     6  at_cmd_call_parser.o(.text)
    VoiceCallTask_ClearEndCallStatus         0x08004519   Thumb Code    40  at_cmd_call_parser.o(.text)
    VoiceCallTask_ClearCallAction            0x08004541   Thumb Code     8  at_cmd_call_parser.o(.text)
    VoiceCall_Task                           0x08004549   Thumb Code  1622  at_cmd_call_parser.o(.text)
    RING_Process                             0x08004b9f   Thumb Code    94  at_cmd_call_parser.o(.text)
    CallOutProcess                           0x08004bfd   Thumb Code   200  at_cmd_call_parser.o(.text)
    CallCancel                               0x08004cc5   Thumb Code    12  at_cmd_call_parser.o(.text)
    CallErrorReport                          0x08004cd1   Thumb Code   140  at_cmd_call_parser.o(.text)
    CallNoAnswer                             0x08004d5d   Thumb Code    12  at_cmd_call_parser.o(.text)
    CallBusy                                 0x08004d69   Thumb Code    12  at_cmd_call_parser.o(.text)
    GetCallerNumber                          0x08004d75   Thumb Code    48  at_cmd_call_parser.o(.text)
    RingCallProcess                          0x08004da5   Thumb Code    18  at_cmd_call_parser.o(.text)
    GetBatteryStatus                         0x08004dc5   Thumb Code   100  at_cmd_common_parser.o(.text)
    GSM_GetIMEI                              0x08004e29   Thumb Code    42  at_cmd_common_parser.o(.text)
    GSM_GetSimCID                            0x08004e53   Thumb Code    38  at_cmd_common_parser.o(.text)
    GsmGetTime                               0x08004e79   Thumb Code   496  at_cmd_common_parser.o(.text)
    SmsTask_Init                             0x08005091   Thumb Code    18  at_cmd_sms_parser.o(.text)
    SmsAddMsg                                0x080050a3   Thumb Code    16  at_cmd_sms_parser.o(.text)
    SmsCheckList_IsEmpty                     0x080050b3   Thumb Code    16  at_cmd_sms_parser.o(.text)
    SmsTask_SendSms                          0x080050c3   Thumb Code    14  at_cmd_sms_parser.o(.text)
    SmsTask_IsIdle                           0x080050d1   Thumb Code    22  at_cmd_sms_parser.o(.text)
    SmsTask_IsModemBusy                      0x080050e7   Thumb Code    32  at_cmd_sms_parser.o(.text)
    SmsTask_GetPhase                         0x08005107   Thumb Code     6  at_cmd_sms_parser.o(.text)
    SmsTask_Stop                             0x0800510d   Thumb Code    22  at_cmd_sms_parser.o(.text)
    SmsTask_Pause                            0x08005123   Thumb Code     8  at_cmd_sms_parser.o(.text)
    Sms_SendMsg                              0x0800512b   Thumb Code    42  at_cmd_sms_parser.o(.text)
    Sms_Task                                 0x08005155   Thumb Code   690  at_cmd_sms_parser.o(.text)
    AT_CmdSmsParserInit                      0x08005407   Thumb Code    14  at_cmd_sms_parser.o(.text)
    SMS_NewMessage                           0x08005415   Thumb Code    12  at_cmd_sms_parser.o(.text)
    SMS_ReadMsg                              0x08005421   Thumb Code   444  at_cmd_sms_parser.o(.text)
    SMS_Process                              0x080055dd   Thumb Code   134  at_cmd_sms_parser.o(.text)
    CMD_CfgParse                             0x08005663   Thumb Code    48  at_cmd_sms_parser.o(.text)
    SMS_Manage                               0x08005693   Thumb Code   196  at_cmd_sms_parser.o(.text)
    AT_CmdProcessInit                        0x080057c9   Thumb Code    26  at_command_parser.o(.text)
    AT_ComnandParser                         0x080057e3   Thumb Code    34  at_command_parser.o(.text)
    GsmTask_Init                             0x08005815   Thumb Code    16  at_gsm_task.o(.text)
    GsmTask_SetPhase                         0x08005825   Thumb Code     6  at_gsm_task.o(.text)
    GsmTask_GetPhase                         0x0800582b   Thumb Code     6  at_gsm_task.o(.text)
    Gsm_Task                                 0x08005831   Thumb Code   316  at_gsm_task.o(.text)
    ModemCmdAdd                              0x080059a9   Thumb Code    16  at_send_cmd_task.o(.text)
    ModemCmdCheckList_IsEmpty                0x080059b9   Thumb Code    16  at_send_cmd_task.o(.text)
    ModemCmdTask_SetCriticalCmd              0x080059c9   Thumb Code    14  at_send_cmd_task.o(.text)
    ModemCmdTask_IsIdle                      0x080059d7   Thumb Code    24  at_send_cmd_task.o(.text)
    ModemCmdTask_SendCmd                     0x080059ef   Thumb Code   180  at_send_cmd_task.o(.text)
    ModemCmdTask_GetPhase                    0x08005aa3   Thumb Code     6  at_send_cmd_task.o(.text)
    ModemCmdTask_Reset                       0x08005aa9   Thumb Code     8  at_send_cmd_task.o(.text)
    ModemCmdTask_SetWait                     0x08005ab1   Thumb Code    60  at_send_cmd_task.o(.text)
    ModemCmd_Task                            0x08005aed   Thumb Code   574  at_send_cmd_task.o(.text)
    ModemCmdTask_Cancel                      0x08005d2b   Thumb Code    56  at_send_cmd_task.o(.text)
    MODEM_PowerOn                            0x08005da9   Thumb Code   130  gsm_hwr.o(.text)
    MODEM_Sleep                              0x08005e2b   Thumb Code     8  gsm_hwr.o(.text)
    MODEM_Wakeup                             0x08005e33   Thumb Code     8  gsm_hwr.o(.text)
    MODEM_UartInit                           0x08005e3b   Thumb Code    16  gsm_hwr.o(.text)
    MODEM_CheckResponse                      0x08005e55   Thumb Code    62  modem.o(.text)
    MODEM_FlushBuffer                        0x08005e93   Thumb Code    18  modem.o(.text)
    MODEM_SendCommand                        0x08005ea5   Thumb Code   156  modem.o(.text)
    VoiceSetup                               0x08005f41   Thumb Code   148  modem.o(.text)
    CellInfoParser                           0x08006041   Thumb Code   608  at_cmd_g100_parser.o(.text)
    CellLocateParser                         0x080062a1   Thumb Code    34  at_cmd_g100_parser.o(.text)
    ParserCellLocate                         0x080062c3   Thumb Code   226  at_cmd_g100_parser.o(.text)
    UbloxTask_Init                           0x080063a5   Thumb Code    12  at_cmd_g100_parser.o(.text)
    UbloxTask_GetPhase                       0x080063b1   Thumb Code     6  at_cmd_g100_parser.o(.text)
    UbloxTask_SetPhase                       0x080063b7   Thumb Code     6  at_cmd_g100_parser.o(.text)
    Ublox_Task                               0x080063bd   Thumb Code   408  at_cmd_g100_parser.o(.text)
    GprsTask_Init                            0x0800657d   Thumb Code    76  at_u_blox_gprs_task.o(.text)
    GprsTask_GprsDisable                     0x080065c9   Thumb Code    32  at_u_blox_gprs_task.o(.text)
    GprsTask_CreateTcpIpConnection           0x080065e9   Thumb Code    16  at_u_blox_gprs_task.o(.text)
    Domain_IpCheck                           0x080065f9   Thumb Code    40  at_u_blox_gprs_task.o(.text)
    GprsTask_ConnInit                        0x08006621   Thumb Code    84  at_u_blox_gprs_task.o(.text)
    GprsTask_SendData                        0x08006675   Thumb Code    62  at_u_blox_gprs_task.o(.text)
    RemaskSocket                             0x080066b3   Thumb Code    38  at_u_blox_gprs_task.o(.text)
    GPRS_TcpGetLength                        0x080066d9   Thumb Code   202  at_u_blox_gprs_task.o(.text)
    GPRS_Deactivation                        0x080067a3   Thumb Code    12  at_u_blox_gprs_task.o(.text)
    GPRS_TcpGetData                          0x080067af   Thumb Code   386  at_u_blox_gprs_task.o(.text)
    GPRS_TCPCreateSocket                     0x08006931   Thumb Code    28  at_u_blox_gprs_task.o(.text)
    GPRS_GetIpFromDNS                        0x0800694d   Thumb Code   160  at_u_blox_gprs_task.o(.text)
    GPRS_TCPCloseSocket1                     0x080069ed   Thumb Code    32  at_u_blox_gprs_task.o(.text)
    GPRS_TCPCloseSocket                      0x08006a0d   Thumb Code    68  at_u_blox_gprs_task.o(.text)
    GPRS_CheckSocketFree                     0x08006a51   Thumb Code    60  at_u_blox_gprs_task.o(.text)
    GPRS_TcpSocketControl                    0x08006a8d   Thumb Code   144  at_u_blox_gprs_task.o(.text)
    GPRS_CmdFails                            0x08006b1d   Thumb Code    10  at_u_blox_gprs_task.o(.text)
    GPRS_GSM_ReInit                          0x08006b27   Thumb Code    18  at_u_blox_gprs_task.o(.text)
    GprsTask_GetPhase                        0x08006b39   Thumb Code     6  at_u_blox_gprs_task.o(.text)
    GprsTask_Stop                            0x08006b3f   Thumb Code    46  at_u_blox_gprs_task.o(.text)
    Gprs_Task                                0x08006b6d   Thumb Code  3906  at_u_blox_gprs_task.o(.text)
    GPS_PulseProcess                         0x08007af1   Thumb Code    38  gps.o(.text)
    GPS_SetPulse                             0x08007b17   Thumb Code     8  gps.o(.text)
    GPRMC_Process                            0x08007b1f   Thumb Code   176  gps.o(.text)
    GPGGA_Process                            0x08007bcf   Thumb Code   176  gps.o(.text)
    GPGSA_Process                            0x08007c7f   Thumb Code   176  gps.o(.text)
    GPGSV_Process                            0x08007d2f   Thumb Code   176  gps.o(.text)
    GPS_ComnandParser                        0x08007ddf   Thumb Code   368  gps.o(.text)
    neamFormatLatLng                         0x08007f4f   Thumb Code    84  gps.o(.text)
    formatLatLng                             0x08007fa3   Thumb Code    84  gps.o(.text)
    GpsGetInfo                               0x08007ff7   Thumb Code    64  gps.o(.text)
    nmea_zero_INFO                           0x08008037   Thumb Code    24  gps.o(.text)
    GPSInit                                  0x0800804f   Thumb Code    10  gps.o(.text)
    nmea_GPGSV2info                          0x08008059   Thumb Code   200  gps.o(.text)
    nmea_atoi                                0x08008121   Thumb Code    50  gps.o(.text)
    nmea_atof                                0x08008153   Thumb Code    54  gps.o(.text)
    nmea_scanf                               0x08008189   Thumb Code   558  gps.o(.text)
    nmea_parse_GPGSV                         0x080083b7   Thumb Code   160  gps.o(.text)
    nmea_GPGSA2info                          0x08008457   Thumb Code   122  gps.o(.text)
    nmea_parse_GPGSA                         0x080084d1   Thumb Code   114  gps.o(.text)
    nmea_GPGGA2info                          0x08008543   Thumb Code   160  gps.o(.text)
    _nmea_parse_time                         0x080085e3   Thumb Code   126  gps.o(.text)
    nmea_parse_GPGGA                         0x08008661   Thumb Code   128  gps.o(.text)
    nmea_GPRMC2info                          0x080086e1   Thumb Code   204  gps.o(.text)
    nmea_parse_GPRMC                         0x080087ad   Thumb Code   392  gps.o(.text)
    GPS_GetInfo                              0x08008935   Thumb Code   172  gps.o(.text)
    nmea_calc_crc                            0x080089e1   Thumb Code    24  gps.o(.text)
    CAM_crc                                  0x08008a31   Thumb Code    24  rs485_camera.o(.text)
    CAM_crc16                                0x08008a49   Thumb Code    26  rs485_camera.o(.text)
    CAM_Init                                 0x08008a63   Thumb Code   118  rs485_camera.o(.text)
    CAM_TakeSnapshot                         0x08008ad9   Thumb Code   406  rs485_camera.o(.text)
    CAM_Manage                               0x08008c6f   Thumb Code     2  rs485_camera.o(.text)
    CAM_Stop                                 0x08008c71   Thumb Code     8  rs485_camera.o(.text)
    CAM_Start                                0x08008c79   Thumb Code     8  rs485_camera.o(.text)
    CAM_ChangeId                             0x08008ca3   Thumb Code    44  rs485_camera.o(.text)
    CAM_Input                                0x08008d57   Thumb Code   678  rs485_camera.o(.text)
    CAM_SetPacketOffset                      0x08008ffd   Thumb Code    28  rs485_camera.o(.text)
    CAM_GetPacketCnt                         0x08009019   Thumb Code    14  rs485_camera.o(.text)
    CAM_CheckEndPacket                       0x08009027   Thumb Code    36  rs485_camera.o(.text)
    CAM_SetNextCamId                         0x0800904b   Thumb Code    22  rs485_camera.o(.text)
    CAM_NextPacket                           0x08009061   Thumb Code    50  rs485_camera.o(.text)
    CAM_BackPacket                           0x08009093   Thumb Code    34  rs485_camera.o(.text)
    CAM_CheckDataIsReady                     0x080090b5   Thumb Code    16  rs485_camera.o(.text)
    CAM_GetPacket                            0x080090c5   Thumb Code    62  rs485_camera.o(.text)
    DbCalcCheckSum                           0x0800913d   Thumb Code    26  db.o(.text)
    DB_ParaCheckErr                          0x08009157   Thumb Code    28  db.o(.text)
    DB_LoadEndLog                            0x08009173   Thumb Code    84  db.o(.text)
    DB_InitLog                               0x080091c7   Thumb Code   160  db.o(.text)
    DB_U32Save                               0x08009267   Thumb Code   142  db.o(.text)
    DB_RingLogSave                           0x080092f5   Thumb Code   198  db.o(.text)
    DB_RingLogReset                          0x080093bb   Thumb Code    26  db.o(.text)
    DB_RingLogNext                           0x080093d5   Thumb Code    48  db.o(.text)
    DB_LogFill                               0x08009405   Thumb Code    42  db.o(.text)
    DB_LoadLog                               0x0800942f   Thumb Code    74  db.o(.text)
    DB_LoadNextLog                           0x08009479   Thumb Code   100  db.o(.text)
    DB_SaveLog                               0x080094dd   Thumb Code   282  db.o(.text)
    SST25_Init                               0x080095fd   Thumb Code    12  sst25.o(.text)
    SST25_DeInit                             0x08009609   Thumb Code    10  sst25.o(.text)
    SST25_Erase                              0x08009697   Thumb Code   138  sst25.o(.text)
    _SST25_Write                             0x08009721   Thumb Code   146  sst25.o(.text)
    SST25_Write                              0x080097b3   Thumb Code    82  sst25.o(.text)
    SST25_Read                               0x08009805   Thumb Code   126  sst25.o(.text)
    __rt_ctype_table                         0x08009905   Thumb Code     4  ctype_o.o(.text)
    isspace                                  0x0800990d   Thumb Code    18  isspace_o.o(.text)
    __aeabi_memcpy                           0x0800991f   Thumb Code    36  memcpya.o(.text)
    __aeabi_memcpy4                          0x0800991f   Thumb Code     0  memcpya.o(.text)
    __aeabi_memcpy8                          0x0800991f   Thumb Code     0  memcpya.o(.text)
    __aeabi_memset                           0x08009943   Thumb Code    14  memseta.o(.text)
    __aeabi_memset4                          0x08009943   Thumb Code     0  memseta.o(.text)
    __aeabi_memset8                          0x08009943   Thumb Code     0  memseta.o(.text)
    __aeabi_memclr                           0x08009951   Thumb Code     4  memseta.o(.text)
    __aeabi_memclr4                          0x08009951   Thumb Code     0  memseta.o(.text)
    __aeabi_memclr8                          0x08009951   Thumb Code     0  memseta.o(.text)
    _memset$wrapper                          0x08009955   Thumb Code    18  memseta.o(.text)
    strcat                                   0x08009967   Thumb Code    24  strcat.o(.text)
    strstr                                   0x0800997f   Thumb Code    36  strstr.o(.text)
    strlen                                   0x080099a3   Thumb Code    14  strlen.o(.text)
    memchr                                   0x080099b1   Thumb Code    20  memchr.o(.text)
    memcmp                                   0x080099c5   Thumb Code    26  memcmp.o(.text)
    strcpy                                   0x080099df   Thumb Code    18  strcpy.o(.text)
    __0sscanf                                0x080099f1   Thumb Code    48  __0sscanf.o(.text)
    _scanf_int                               0x08009a29   Thumb Code   336  _scanf_int.o(.text)
    _scanf_real                              0x08009c79   Thumb Code     0  scanf_fp.o(.text)
    _scanf_really_real                       0x08009c79   Thumb Code   560  scanf_fp.o(.text)
    strtol                                   0x08009eb5   Thumb Code   112  strtol.o(.text)
    __aeabi_fadd                             0x08009f25   Thumb Code   164  fadd.o(.text)
    __aeabi_fsub                             0x08009fc9   Thumb Code     6  fadd.o(.text)
    __aeabi_frsub                            0x08009fcf   Thumb Code     6  fadd.o(.text)
    __aeabi_fdiv                             0x08009fd5   Thumb Code   128  fdiv.o(.text)
    __aeabi_dadd                             0x0800a055   Thumb Code   322  dadd.o(.text)
    __aeabi_dsub                             0x0800a197   Thumb Code     6  dadd.o(.text)
    __aeabi_drsub                            0x0800a19d   Thumb Code     6  dadd.o(.text)
    __aeabi_dmul                             0x0800a1a3   Thumb Code   228  dmul.o(.text)
    __aeabi_ddiv                             0x0800a287   Thumb Code   222  ddiv.o(.text)
    __aeabi_ui2f                             0x0800a365   Thumb Code    10  ffltui.o(.text)
    __aeabi_ui2d                             0x0800a36f   Thumb Code    26  dfltui.o(.text)
    __aeabi_f2uiz                            0x0800a389   Thumb Code    40  ffixui.o(.text)
    __aeabi_d2uiz                            0x0800a3b1   Thumb Code    50  dfixui.o(.text)
    __aeabi_f2d                              0x0800a3e3   Thumb Code    38  f2d.o(.text)
    __aeabi_cdcmpeq                          0x0800a409   Thumb Code     0  cdcmple.o(.text)
    __aeabi_cdcmple                          0x0800a409   Thumb Code    38  cdcmple.o(.text)
    __aeabi_cdrcmple                         0x0800a431   Thumb Code    38  cdrcmple.o(.text)
    __aeabi_d2f                              0x0800a459   Thumb Code    56  d2f.o(.text)
    __aeabi_cfcmpeq                          0x0800a491   Thumb Code     0  cfcmple.o(.text)
    __aeabi_cfcmple                          0x0800a491   Thumb Code    20  cfcmple.o(.text)
    __aeabi_cfrcmple                         0x0800a4a5   Thumb Code    20  cfrcmple.o(.text)
    __aeabi_uidiv                            0x0800a4b9   Thumb Code     0  uidiv.o(.text)
    __aeabi_uidivmod                         0x0800a4b9   Thumb Code    44  uidiv.o(.text)
    __aeabi_uldivmod                         0x0800a4e5   Thumb Code    98  uldiv.o(.text)
    __aeabi_llsl                             0x0800a547   Thumb Code    30  llshl.o(.text)
    _ll_shift_l                              0x0800a547   Thumb Code     0  llshl.o(.text)
    __aeabi_llsr                             0x0800a565   Thumb Code    32  llushr.o(.text)
    _ll_ushift_r                             0x0800a565   Thumb Code     0  llushr.o(.text)
    __aeabi_lasr                             0x0800a585   Thumb Code    36  llsshr.o(.text)
    _ll_sshift_r                             0x0800a585   Thumb Code     0  llsshr.o(.text)
    _chval                                   0x0800a5a9   Thumb Code    28  _chval.o(.text)
    __vfscanf_char                           0x0800a5d1   Thumb Code    20  scanf_char.o(.text)
    _sgetc                                   0x0800a5ed   Thumb Code    30  _sgetc.o(.text)
    _sbackspace                              0x0800a60b   Thumb Code    34  _sgetc.o(.text)
    _strtoul                                 0x0800a62d   Thumb Code   158  _strtoul.o(.text)
    __strtod_int                             0x0800a703   Thumb Code    88  strtod.o(.text)
    __I$use$fp                               0x0800a769   Thumb Code     0  iusefp.o(.text)
    _float_round                             0x0800a769   Thumb Code    18  fepilogue.o(.text)
    _float_epilogue                          0x0800a77b   Thumb Code    90  fepilogue.o(.text)
    _double_round                            0x0800a7d5   Thumb Code    26  depilogue.o(.text)
    _double_epilogue                         0x0800a7ef   Thumb Code   164  depilogue.o(.text)
    __ARM_scalbn                             0x0800a893   Thumb Code    46  dscalb.o(.text)
    scalbn                                   0x0800a893   Thumb Code     0  dscalb.o(.text)
    _dsqrt                                   0x0800a8c1   Thumb Code   162  dsqrt.o(.text)
    __aeabi_i2d                              0x0800a963   Thumb Code    34  dflti.o(.text)
    __aeabi_ul2d                             0x0800a985   Thumb Code    24  dfltul.o(.text)
    __aeabi_d2ulz                            0x0800a99d   Thumb Code    48  dfixul.o(.text)
    __scatterload                            0x0800a9cd   Thumb Code    28  init.o(.text)
    __scatterload_rt2                        0x0800a9cd   Thumb Code     0  init.o(.text)
    __vfscanf                                0x0800a9f1   Thumb Code   806  _scanf.o(.text)
    __aeabi_d2iz                             0x0800ad1d   Thumb Code    62  dfixi.o(.text)
    __decompress                             0x0800ad5b   Thumb Code     0  __dczerorl2.o(.text)
    __decompress1                            0x0800ad5b   Thumb Code    92  __dczerorl2.o(.text)
    __0sprintf                               0x0800adb9   Thumb Code    34  printfa.o(i.__0sprintf)
    __1sprintf                               0x0800adb9   Thumb Code     0  printfa.o(i.__0sprintf)
    __2sprintf                               0x0800adb9   Thumb Code     0  printfa.o(i.__0sprintf)
    __c89sprintf                             0x0800adb9   Thumb Code     0  printfa.o(i.__0sprintf)
    sprintf                                  0x0800adb9   Thumb Code     0  printfa.o(i.__0sprintf)
    __0vsprintf                              0x0800ade1   Thumb Code    30  printfa.o(i.__0vsprintf)
    __1vsprintf                              0x0800ade1   Thumb Code     0  printfa.o(i.__0vsprintf)
    __2vsprintf                              0x0800ade1   Thumb Code     0  printfa.o(i.__0vsprintf)
    __c89vsprintf                            0x0800ade1   Thumb Code     0  printfa.o(i.__0vsprintf)
    vsprintf                                 0x0800ade1   Thumb Code     0  printfa.o(i.__0vsprintf)
    __ARM_fpclassify                         0x0800ae05   Thumb Code    40  fpclassify.o(i.__ARM_fpclassify)
    __aeabi_errno_addr                       0x0800ae2d   Thumb Code     4  errno.o(i.__aeabi_errno_addr)
    __rt_errno_addr                          0x0800ae2d   Thumb Code     0  errno.o(i.__aeabi_errno_addr)
    __ieee754_rem_pio2                       0x0800ae35   Thumb Code   832  rred.o(i.__ieee754_rem_pio2)
    __kernel_cos                             0x0800b1bd   Thumb Code   230  cos_i.o(i.__kernel_cos)
    __kernel_poly                            0x0800b2b9   Thumb Code   170  poly.o(i.__kernel_poly)
    __kernel_sin                             0x0800b365   Thumb Code   224  sin_i.o(i.__kernel_sin)
    __mathlib_dbl_underflow                  0x0800b451   Thumb Code    10  dunder.o(i.__mathlib_dbl_underflow)
    __scatterload_copy                       0x0800b461   Thumb Code    14  handlers.o(i.__scatterload_copy)
    __scatterload_null                       0x0800b46f   Thumb Code     2  handlers.o(i.__scatterload_null)
    __scatterload_zeroinit                   0x0800b471   Thumb Code    14  handlers.o(i.__scatterload_zeroinit)
    __set_errno                              0x0800b481   Thumb Code     6  errno.o(i.__set_errno)
    _is_digit                                0x0800b5e9   Thumb Code    14  scanf_fp.o(i._is_digit)
    atan                                     0x0800bd49   Thumb Code   478  atan.o(i.atan)
    atan2                                    0x0800bf6d   Thumb Code   346  atan2.o(i.atan2)
    cos                                      0x0800c0ed   Thumb Code   164  cos.o(i.cos)
    floor                                    0x0800c199   Thumb Code   204  floor.o(i.floor)
    pow                                      0x0800c275   Thumb Code  2510  pow.o(i.pow)
    sin                                      0x0800cc55   Thumb Code   166  sin.o(i.sin)
    sqrt                                     0x0800cd05   Thumb Code    76  sqrt.o(i.sqrt)
    strtod                                   0x0800cd51   Thumb Code    28  strtod.o(i.strtod)
    _ytab                                    0x0800cd6c   Data          96  m_time.o(.constdata)
    callPickUpBuf                            0x0800cdcc   Data           6  at_cmd_call_parser.o(.constdata)
    terminateStr                             0x0800ce84   Data           7  at_command_parser.o(.constdata)
    atGsmCmdStart                            0x0800ce8c   Data         280  at_gsm_task.o(.constdata)
    atGprsCmdStart                           0x0800cff4   Data          28  at_u_blox_gprs_task.o(.constdata)
    __ctype_table                            0x0800d0e8   Data         129  ctype_o.o(.constdata)
    __mathlib_zero                           0x0800d238   Data           8  qnan.o(.constdata)
    Region$$Table$$Base                      0x0800d468   Number         0  anon$$obj.o(Region$$Table)
    Region$$Table$$Limit                     0x0800d488   Number         0  anon$$obj.o(Region$$Table)
    logSendPt                                0x20000000   Data           4  main.o(.data)
    sleepCnt                                 0x20000004   Data           2  main.o(.data)
    reportInterVal                           0x20000008   Data           4  main.o(.data)
    smsTimeCheck                             0x2000000c   Data           4  main.o(.data)
    flagSendLocationSms                      0x20000010   Data           1  main.o(.data)
    sysStatus                                0x20000011   Data           1  main.o(.data)
    timer2Cnt                                0x20000018   Data           4  main.o(.data)
    trackerTaskRun                           0x2000001c   Data           1  tracker.o(.data)
    an1Voltage                               0x20000020   Data           4  tracker.o(.data)
    trackerTaskCnt                           0x20000024   Data           4  tracker.o(.data)
    mileage                                  0x20000028   Data           4  tracker.o(.data)
    trackerSaveLog                           0x2000002c   Data           1  tracker.o(.data)
    SystemCoreClock                          0x20000030   Data           4  system_stm32f10x.o(.data)
    AHBPrescTable                            0x20000034   Data          16  system_stm32f10x.o(.data)
    tickTimeSec                              0x20000048   Data           4  tick.o(.data)
    tickCounter32                            0x2000004c   Data           4  tick.o(.data)
    tickCounter64                            0x20000050   Data           8  tick.o(.data)
    rtcCnt                                   0x20000058   Data           4  rtc.o(.data)
    rtcTimeSec                               0x2000005c   Data           4  rtc.o(.data)
    sec                                      0x20000060   Data           4  rtc.o(.data)
    ADC1ConvertedValue                       0x20000064   Data           2  adc.o(.data)
    adcChannel8Value                         0x20000068   Data           4  adc.o(.data)
    adc8Sum                                  0x2000006c   Data           4  adc.o(.data)
    adc8SampleCnt                            0x20000070   Data           2  adc.o(.data)
    sysEventFlag                             0x20000074   Data           4  exti.o(.data)
    captureDoneFlag                          0x20000078   Data           1  freq_capture.o(.data)
    captureValue                             0x2000007c   Data           4  freq_capture.o(.data)
    captureValueOld                          0x20000080   Data           4  freq_capture.o(.data)
    speedFreq                                0x20000088   Data           8  freq_capture.o(.data)
    speedFreqOld                             0x20000090   Data           8  freq_capture.o(.data)
    capturePulseCnt                          0x20000098   Data           4  freq_capture.o(.data)
    pluseStatusClearCnt                      0x2000009c   Data           4  freq_capture.o(.data)
    timeZone                                 0x200000a4   Data           4  sys_time.o(.data)
    sysTime                                  0x200000a8   Data           8  sys_time.o(.data)
    _daylight                                0x200000b0   Data           4  m_time.o(.data)
    _dstbias                                 0x200000b4   Data           4  m_time.o(.data)
    _timezone                                0x200000b8   Data           4  m_time.o(.data)
    voiceCall_TaskPhase                      0x200000bc   Data           1  at_cmd_call_parser.o(.data)
    voiceCall_OldTaskPhase                   0x200000bd   Data           1  at_cmd_call_parser.o(.data)
    pickUpPos                                0x200000be   Data           1  at_cmd_call_parser.o(.data)
    batteryPercent                           0x200000c4   Data           2  at_cmd_common_parser.o(.data)
    flagGotSimCID                            0x200000c6   Data           1  at_cmd_common_parser.o(.data)
    flagGotIMEI                              0x200000c7   Data           1  at_cmd_common_parser.o(.data)
    modemIMEIPass                            0x200000c8   Data           1  at_cmd_common_parser.o(.data)
    gsmGetTimeFlag                           0x200000c9   Data           1  at_cmd_common_parser.o(.data)
    sysGsmTime                               0x200000d2   Data           8  at_cmd_common_parser.o(.data)
    smsNewMessageFlag                        0x200000e4   Data           1  at_cmd_sms_parser.o(.data)
    smsPhase                                 0x200000e5   Data           1  at_cmd_sms_parser.o(.data)
    flagSmsReadFinish                        0x200000e6   Data           1  at_cmd_sms_parser.o(.data)
    smsMsg                                   0x200000fc   Data           4  at_cmd_sms_parser.o(.data)
    commandSeparator                         0x20000100   Data           4  at_command_parser.o(.data)
    registerNetworkRetry                     0x20000108   Data           1  at_gsm_task.o(.data)
    flagGsmStatus                            0x20000109   Data           1  at_gsm_task.o(.data)
    gsm_TaskPhase                            0x2000010a   Data           1  at_gsm_task.o(.data)
    modemCmd_TaskPhase                       0x20000114   Data           1  at_send_cmd_task.o(.data)
    cmdTimeoutCount                          0x20000115   Data           1  at_send_cmd_task.o(.data)
    modemCancel                              0x20000116   Data           1  at_send_cmd_task.o(.data)
    criticalCmd                              0x20000117   Data           1  at_send_cmd_task.o(.data)
    cmdParsedChar                            0x20000118   Data           1  at_send_cmd_task.o(.data)
    modemIsBusy                              0x20000119   Data           1  at_send_cmd_task.o(.data)
    modemIsBusySource                        0x2000011a   Data           1  at_send_cmd_task.o(.data)
    atProcessCmd                             0x2000011c   Data           8  at_send_cmd_task.o(.data)
    modemOk                                  0x20000124   Data           4  modem.o(.data)
    modemError                               0x20000128   Data           4  modem.o(.data)
    cellLocationFlag                         0x2000012c   Data           1  at_cmd_g100_parser.o(.data)
    cellPass                                 0x20000130   Data           4  at_cmd_g100_parser.o(.data)
    cellGotInfoFLag                          0x20000134   Data           1  at_cmd_g100_parser.o(.data)
    ubloxPhase                               0x20000135   Data           1  at_cmd_g100_parser.o(.data)
    cellPhase                                0x20000136   Data           1  at_cmd_g100_parser.o(.data)
    enableGprsRetryCnt                       0x20000144   Data           1  at_u_blox_gprs_task.o(.data)
    gprsEnableFlag                           0x20000145   Data           1  at_u_blox_gprs_task.o(.data)
    gprsDisable                              0x20000146   Data           1  at_u_blox_gprs_task.o(.data)
    createSocketNow                          0x20000147   Data           1  at_u_blox_gprs_task.o(.data)
    socketNo                                 0x20000148   Data           4  at_u_blox_gprs_task.o(.data)
    tryOpenSocketNum                         0x2000014c   Data           1  at_u_blox_gprs_task.o(.data)
    GPRS_dataUnackLength                     0x2000014e   Data           2  at_u_blox_gprs_task.o(.data)
    gprsCheckDataCnt                         0x20000150   Data           1  at_u_blox_gprs_task.o(.data)
    socketTryToConnectCnt                    0x20000151   Data           1  at_u_blox_gprs_task.o(.data)
    tryToCreateSocketCnt                     0x20000152   Data           1  at_u_blox_gprs_task.o(.data)
    gprsGetLocation                          0x20000153   Data           1  at_u_blox_gprs_task.o(.data)
    gprsRecvDataPhase                        0x20000154   Data           1  at_u_blox_gprs_task.o(.data)
    atGprsCmdListStart                       0x20000174   Data           8  at_u_blox_gprs_task.o(.data)
    tcpIpConn                                0x2000017c   Data           4  at_u_blox_gprs_task.o(.data)
    gprs_TaskPhase                           0x20000180   Data           1  at_u_blox_gprs_task.o(.data)
    gprsApn                                  0x20000184   Data           4  at_u_blox_gprs_task.o(.data)
    gprsUsr                                  0x20000188   Data           4  at_u_blox_gprs_task.o(.data)
    gprsPwd                                  0x2000018c   Data           4  at_u_blox_gprs_task.o(.data)
    gprsSocketStatus                         0x20000190   Data           5  at_u_blox_gprs_task.o(.data)
    gprsSocketMask                           0x20000195   Data           5  at_u_blox_gprs_task.o(.data)
    gpsCheckSum                              0x2000019c   Data           1  gps.o(.data)
    gpsCheckSumX                             0x2000019d   Data           1  gps.o(.data)
    gpsGetCheckSumFlag                       0x2000019e   Data           1  gps.o(.data)
    GPRMC_gotDataFlag                        0x2000019f   Data           1  gps.o(.data)
    GPGGA_gotDataFlag                        0x200001a0   Data           1  gps.o(.data)
    GPGSA_gotDataFlag                        0x200001a1   Data           1  gps.o(.data)
    GPGSV_gotDataFlag                        0x200001a2   Data           1  gps.o(.data)
    msgGpsDataGood                           0x200001a3   Data           1  gps.o(.data)
    gpsPulse                                 0x200001a4   Data           1  gps.o(.data)
    GPS_cmdState                             0x200001a5   Data           1  gps.o(.data)
    pPackGPRMC                               0x200001ac   Data           4  gps.o(.data)
    pPackGPGGA                               0x200001b0   Data           4  gps.o(.data)
    pPackGPGSA                               0x200001b4   Data           4  gps.o(.data)
    pPackGPGSV                               0x200001b8   Data           4  gps.o(.data)
    GPS_numCmd                               0x200001bc   Data           1  gps.o(.data)
    GPS_cmdRecvLength                        0x200001c0   Data           4  gps.o(.data)
    cmdSetCompression                        0x200001c4   Data           5  rs485_camera.o(.data)
    cmdSnapshot                              0x200001c9   Data           7  rs485_camera.o(.data)
    cmdGetPacket                             0x200001d0   Data           6  rs485_camera.o(.data)
    cmdSetBaudRate                           0x200001d6   Data           5  rs485_camera.o(.data)
    cmdChangeId                              0x200001db   Data           5  rs485_camera.o(.data)
    cameraShotFlag                           0x200001e0   Data           1  rs485_camera.o(.data)
    camCurrentId                             0x200001e1   Data           1  rs485_camera.o(.data)
    camRespondedCmd                          0x200001e2   Data           1  rs485_camera.o(.data)
    camRespondedId                           0x200001e3   Data           1  rs485_camera.o(.data)
    camStopFlag                              0x200001e4   Data           1  rs485_camera.o(.data)
    camState                                 0x200001e8   Data           1  rs485_camera.o(.data)
    camManState                              0x200001e9   Data           1  rs485_camera.o(.data)
    camRespondedDataLen                      0x200001ea   Data           2  rs485_camera.o(.data)
    camRespondedCrc                          0x200001ec   Data           2  rs485_camera.o(.data)
    camSnapshotMap                           0x200001ee   Data           2  rs485_camera.o(.data)
    camRespondedPacketId                     0x200001f0   Data           2  rs485_camera.o(.data)
    camRespondedPacketLen                    0x200001f2   Data           2  rs485_camera.o(.data)
    camAcked                                 0x200001f4   Data           1  rs485_camera.o(.data)
    camGetDataRetryCnt                       0x200001f5   Data           1  rs485_camera.o(.data)
    camTick                                  0x200001f8   Data           4  rs485_camera.o(.data)
    camIntervalTick                          0x200001fc   Data           4  rs485_camera.o(.data)
    logPositionCnt                           0x20000200   Data           4  db.o(.data)
    flagNewLog                               0x20000204   Data           4  db.o(.data)
    countErrTemp                             0x20000208   Data           4  sst25.o(.data)
    mainBuf                                  0x20000210   Data         512  main.o(.bss)
    logSend                                  0x20000410   Data         112  main.o(.bss)
    sysCfg                                   0x20000480   Data        1256  system_config.o(.bss)
    ioStatus                                 0x20000968   Data          32  hw_config.o(.bss)
    USART1_RxBuff                            0x2000099c   Data         512  uart1.o(.bss)
    USART1_TxBuff                            0x20000b9c   Data         512  uart1.o(.bss)
    USART1_RxRingBuff                        0x20000d9c   Data          16  uart1.o(.bss)
    USART1_TxRingBuff                        0x20000dac   Data          16  uart1.o(.bss)
    USART2_RxBuff                            0x20000dbc   Data        1024  uart2.o(.bss)
    USART2_RxRingBuff                        0x200011bc   Data          16  uart2.o(.bss)
    atCmdCallParser                          0x200011cc   Data          44  at_cmd_call_parser.o(.bss)
    tCallRingCheckTimeOut                    0x200011f8   Data          12  at_cmd_call_parser.o(.bss)
    tVoiceCallTaskTimeOut                    0x20001204   Data          12  at_cmd_call_parser.o(.bss)
    tCallTaskDelay                           0x20001210   Data          12  at_cmd_call_parser.o(.bss)
    tStartCallErrorTimeOut                   0x2000121c   Data          12  at_cmd_call_parser.o(.bss)
    tWaitCallActionTimeOut                   0x20001228   Data          12  at_cmd_call_parser.o(.bss)
    dialingPhoneNumber                       0x20001234   Data          16  at_cmd_call_parser.o(.bss)
    gsmSimCIDBuf                             0x20001244   Data          32  at_cmd_common_parser.o(.bss)
    gsmIMEIBuf                               0x20001264   Data          18  at_cmd_common_parser.o(.bss)
    smsUnreadBuff                            0x20001278   Data          32  at_cmd_sms_parser.o(.bss)
    tSmsTaskTimeOut                          0x20001298   Data          12  at_cmd_sms_parser.o(.bss)
    smsUnreadRingBuff                        0x200012a4   Data          16  at_cmd_sms_parser.o(.bss)
    smsSender                                0x200012b4   Data          16  at_cmd_sms_parser.o(.bss)
    smsDataBuf                               0x200012c4   Data         256  at_cmd_sms_parser.o(.bss)
    smsBuf                                   0x200013c4   Data         255  at_cmd_sms_parser.o(.bss)
    cmdCnt                                   0x200014c4   Data          22  at_command_parser.o(.bss)
    AT_CmdParser                             0x200014dc   Data          16  at_command_parser.o(.bss)
    atGsmCmdListStart                        0x200014ec   Data          80  at_gsm_task.o(.bss)
    tGsmTaskPhaseTimeOut                     0x2000153c   Data          12  at_gsm_task.o(.bss)
    modemAtCmdBuf                            0x20001548   Data         128  at_send_cmd_task.o(.bss)
    modemCmpOk                               0x200015c8   Data          12  at_send_cmd_task.o(.bss)
    modemCmpFails                            0x200015d4   Data          12  at_send_cmd_task.o(.bss)
    tModemAtTimeout                          0x200015e0   Data          12  at_send_cmd_task.o(.bss)
    tModemCancelTimeout                      0x200015ec   Data          12  at_send_cmd_task.o(.bss)
    cmdPckSend                               0x200015f8   Data          28  at_send_cmd_task.o(.bss)
    atCallBackParser                         0x20001614   Data          16  at_send_cmd_task.o(.bss)
    cellInfo                                 0x200016a4   Data         140  at_cmd_g100_parser.o(.bss)
    cellLocationBuf                          0x20001730   Data         128  at_cmd_g100_parser.o(.bss)
    cellLocate                               0x200017b0   Data          36  at_cmd_g100_parser.o(.bss)
    tcpIpBuf                                 0x200017d4   Data         814  at_u_blox_gprs_task.o(.bss)
    tGprsTaskPhaseTimeOut                    0x20001b04   Data          12  at_u_blox_gprs_task.o(.bss)
    gprsCmdResBuf                            0x20001b10   Data          32  at_u_blox_gprs_task.o(.bss)
    DNS_serverIp                             0x20001b30   Data          16  at_u_blox_gprs_task.o(.bss)
    buffGPRMC                                0x20001b40   Data          80  gps.o(.bss)
    buffGPGGA                                0x20001b90   Data          80  gps.o(.bss)
    buffGPGSA                                0x20001be0   Data          80  gps.o(.bss)
    buffGPGSV                                0x20001c30   Data          80  gps.o(.bss)
    msgTerm                                  0x20001c80   Data          80  gps.o(.bss)
    GPS_Buff                                 0x20001cd0   Data         128  gps.o(.bss)
    gpsInfo                                  0x20001d50   Data         400  gps.o(.bss)
    lastGpsInfo                              0x20001ee0   Data         400  gps.o(.bss)
    GPS_cmdCnt                               0x20002070   Data          16  gps.o(.bss)
    ssInfo                                   0x20002080   Data          64  rs485_camera.o(.bss)
    packetWriteJpegFile                      0x200020c0   Data         665  rs485_camera.o(.bss)
    packetReadJpegFile                       0x20002359   Data         665  rs485_camera.o(.bss)
    logRecord                                0x200025f2   Data         112  db.o(.bss)
    ringLog                                  0x20002662   Data           9  db.o(.bss)
    __initial_sp                             0x20003670   Data           0  startup_stm32f10x_hd.o(STACK)



==============================================================================

Memory Map of the image

  Image Entry point : 0x08000131

  Load Region LR_IROM1 (Base: 0x08000000, Size: 0x0000d698, Max: 0x00040000, ABSOLUTE, COMPRESSED[0x0000d4e8])

    Execution Region ER_IROM1 (Base: 0x08000000, Size: 0x0000d488, Max: 0x00040000, ABSOLUTE)

    Base Addr    Size         Type   Attr      Idx    E Section Name        Object

    0x08000000   0x00000130   Data   RO          245    RESET               startup_stm32f10x_hd.o
    0x08000130   0x00000000   Code   RO         1034  * .ARM.Collect$$$$00000000  mc_w.l(entry.o)
    0x08000130   0x00000004   Code   RO         1415    .ARM.Collect$$$$00000001  mc_w.l(entry2.o)
    0x08000134   0x00000004   Code   RO         1418    .ARM.Collect$$$$00000004  mc_w.l(entry5.o)
    0x08000138   0x00000000   Code   RO         1420    .ARM.Collect$$$$00000008  mc_w.l(entry7b.o)
    0x08000138   0x00000000   Code   RO         1422    .ARM.Collect$$$$0000000A  mc_w.l(entry8b.o)
    0x08000138   0x00000008   Code   RO         1423    .ARM.Collect$$$$0000000B  mc_w.l(entry9a.o)
    0x08000140   0x00000000   Code   RO         1425    .ARM.Collect$$$$0000000D  mc_w.l(entry10a.o)
    0x08000140   0x00000000   Code   RO         1427    .ARM.Collect$$$$0000000F  mc_w.l(entry11a.o)
    0x08000140   0x00000004   Code   RO         1416    .ARM.Collect$$$$00002712  mc_w.l(entry2.o)
    0x08000144   0x000009bc   Code   RO            1    .text               main.o
    0x08000b00   0x000005d4   Code   RO          163    .text               system_config.o
    0x080010d4   0x000001e0   Code   RO          192    .text               hw_config.o
    0x080012b4   0x00000b8c   Code   RO          210    .text               tracker.o
    0x08001e40   0x00000024   Code   RO          246    .text               startup_stm32f10x_hd.o
    0x08001e64   0x000001d8   Code   RO          261    .text               system_stm32f10x.o
    0x0800203c   0x000005bc   Code   RO          279    .text               stm32f10x_flash.o
    0x080025f8   0x00000040   Code   RO          291    .text               stm32f10x_iwdg.o
    0x08002638   0x0000017c   Code   RO          306    .text               tick.o
    0x080027b4   0x00000230   Code   RO          329    .text               uart1.o
    0x080029e4   0x000001b8   Code   RO          356    .text               uart2.o
    0x08002b9c   0x000001a4   Code   RO          381    .text               uart3.o
    0x08002d40   0x000002bc   Code   RO          413    .text               spi.o
    0x08002ffc   0x0000042c   Code   RO          440    .text               rtc.o
    0x08003428   0x00000174   Code   RO          469    .text               adc.o
    0x0800359c   0x00000240   Code   RO          487    .text               exti.o
    0x080037dc   0x0000006c   Code   RO          506    .text               freq_capture.o
    0x08003848   0x00000114   Code   RO          536    .text               list.o
    0x0800395c   0x00000094   Code   RO          551    .text               ringbuf.o
    0x080039f0   0x00000160   Code   RO          563    .text               sparser.o
    0x08003b50   0x00000054   Code   RO          576    .text               data_cmp.o
    0x08003ba4   0x0000021a   Code   RO          591    .text               sys_time.o
    0x08003dbe   0x00000002   PAD
    0x08003dc0   0x0000064c   Code   RO          625    .text               m_time.o
    0x0800440c   0x000009b8   Code   RO          660    .text               at_cmd_call_parser.o
    0x08004dc4   0x000002cc   Code   RO          710    .text               at_cmd_common_parser.o
    0x08005090   0x00000738   Code   RO          737    .text               at_cmd_sms_parser.o
    0x080057c8   0x0000004c   Code   RO          765    .text               at_command_parser.o
    0x08005814   0x00000194   Code   RO          786    .text               at_gsm_task.o
    0x080059a8   0x00000400   Code   RO          807    .text               at_send_cmd_task.o
    0x08005da8   0x000000ac   Code   RO          826    .text               gsm_hwr.o
    0x08005e54   0x000001ec   Code   RO          838    .text               modem.o
    0x08006040   0x0000053c   Code   RO          858    .text               at_cmd_g100_parser.o
    0x0800657c   0x00001574   Code   RO          878    .text               at_u_blox_gprs_task.o
    0x08007af0   0x00000f40   Code   RO          899    .text               gps.o
    0x08008a30   0x0000070c   Code   RO          927    .text               rs485_camera.o
    0x0800913c   0x000004c0   Code   RO          950    .text               db.o
    0x080095fc   0x00000308   Code   RO          969    .text               sst25.o
    0x08009904   0x00000008   Code   RO         1037    .text               mc_w.l(ctype_o.o)
    0x0800990c   0x00000012   Code   RO         1059    .text               mc_w.l(isspace_o.o)
    0x0800991e   0x00000024   Code   RO         1065    .text               mc_w.l(memcpya.o)
    0x08009942   0x00000024   Code   RO         1067    .text               mc_w.l(memseta.o)
    0x08009966   0x00000018   Code   RO         1069    .text               mc_w.l(strcat.o)
    0x0800997e   0x00000024   Code   RO         1071    .text               mc_w.l(strstr.o)
    0x080099a2   0x0000000e   Code   RO         1073    .text               mc_w.l(strlen.o)
    0x080099b0   0x00000014   Code   RO         1075    .text               mc_w.l(memchr.o)
    0x080099c4   0x0000001a   Code   RO         1077    .text               mc_w.l(memcmp.o)
    0x080099de   0x00000012   Code   RO         1079    .text               mc_w.l(strcpy.o)
    0x080099f0   0x00000038   Code   RO         1344    .text               mc_w.l(__0sscanf.o)
    0x08009a28   0x00000150   Code   RO         1346    .text               mc_w.l(_scanf_int.o)
    0x08009b78   0x0000033c   Code   RO         1348    .text               mc_w.l(scanf_fp.o)
    0x08009eb4   0x00000070   Code   RO         1352    .text               mc_w.l(strtol.o)
    0x08009f24   0x000000b0   Code   RO         1354    .text               mf_w.l(fadd.o)
    0x08009fd4   0x00000080   Code   RO         1356    .text               mf_w.l(fdiv.o)
    0x0800a054   0x0000014e   Code   RO         1358    .text               mf_w.l(dadd.o)
    0x0800a1a2   0x000000e4   Code   RO         1360    .text               mf_w.l(dmul.o)
    0x0800a286   0x000000de   Code   RO         1362    .text               mf_w.l(ddiv.o)
    0x0800a364   0x0000000a   Code   RO         1364    .text               mf_w.l(ffltui.o)
    0x0800a36e   0x0000001a   Code   RO         1366    .text               mf_w.l(dfltui.o)
    0x0800a388   0x00000028   Code   RO         1368    .text               mf_w.l(ffixui.o)
    0x0800a3b0   0x00000032   Code   RO         1370    .text               mf_w.l(dfixui.o)
    0x0800a3e2   0x00000026   Code   RO         1372    .text               mf_w.l(f2d.o)
    0x0800a408   0x00000028   Code   RO         1374    .text               mf_w.l(cdcmple.o)
    0x0800a430   0x00000028   Code   RO         1376    .text               mf_w.l(cdrcmple.o)
    0x0800a458   0x00000038   Code   RO         1378    .text               mf_w.l(d2f.o)
    0x0800a490   0x00000014   Code   RO         1380    .text               mf_w.l(cfcmple.o)
    0x0800a4a4   0x00000014   Code   RO         1382    .text               mf_w.l(cfrcmple.o)
    0x0800a4b8   0x0000002c   Code   RO         1430    .text               mc_w.l(uidiv.o)
    0x0800a4e4   0x00000062   Code   RO         1432    .text               mc_w.l(uldiv.o)
    0x0800a546   0x0000001e   Code   RO         1434    .text               mc_w.l(llshl.o)
    0x0800a564   0x00000020   Code   RO         1436    .text               mc_w.l(llushr.o)
    0x0800a584   0x00000024   Code   RO         1438    .text               mc_w.l(llsshr.o)
    0x0800a5a8   0x0000001c   Code   RO         1447    .text               mc_w.l(_chval.o)
    0x0800a5c4   0x00000028   Code   RO         1449    .text               mc_w.l(scanf_char.o)
    0x0800a5ec   0x00000040   Code   RO         1451    .text               mc_w.l(_sgetc.o)
    0x0800a62c   0x0000009e   Code   RO         1453    .text               mc_w.l(_strtoul.o)
    0x0800a6ca   0x00000002   PAD
    0x0800a6cc   0x0000009c   Code   RO         1455    .text               mc_w.l(strtod.o)
    0x0800a768   0x00000000   Code   RO         1457    .text               mc_w.l(iusefp.o)
    0x0800a768   0x0000006c   Code   RO         1458    .text               mf_w.l(fepilogue.o)
    0x0800a7d4   0x000000be   Code   RO         1460    .text               mf_w.l(depilogue.o)
    0x0800a892   0x0000002e   Code   RO         1462    .text               mf_w.l(dscalb.o)
    0x0800a8c0   0x000000a2   Code   RO         1464    .text               mf_w.l(dsqrt.o)
    0x0800a962   0x00000022   Code   RO         1466    .text               mf_w.l(dflti.o)
    0x0800a984   0x00000018   Code   RO         1468    .text               mf_w.l(dfltul.o)
    0x0800a99c   0x00000030   Code   RO         1470    .text               mf_w.l(dfixul.o)
    0x0800a9cc   0x00000024   Code   RO         1472    .text               mc_w.l(init.o)
    0x0800a9f0   0x0000032c   Code   RO         1476    .text               mc_w.l(_scanf.o)
    0x0800ad1c   0x0000003e   Code   RO         1478    .text               mf_w.l(dfixi.o)
    0x0800ad5a   0x0000005c   Code   RO         1491    .text               mc_w.l(__dczerorl2.o)
    0x0800adb6   0x00000002   PAD
    0x0800adb8   0x00000028   Code   RO         1318    i.__0sprintf        mc_w.l(printfa.o)
    0x0800ade0   0x00000024   Code   RO         1322    i.__0vsprintf       mc_w.l(printfa.o)
    0x0800ae04   0x00000028   Code   RO         1399    i.__ARM_fpclassify  m_ws.l(fpclassify.o)
    0x0800ae2c   0x00000008   Code   RO         1440    i.__aeabi_errno_addr  mc_w.l(errno.o)
    0x0800ae34   0x00000388   Code   RO         1404    i.__ieee754_rem_pio2  m_ws.l(rred.o)
    0x0800b1bc   0x000000fc   Code   RO         1394    i.__kernel_cos      m_ws.l(cos_i.o)
    0x0800b2b8   0x000000aa   Code   RO         1401    i.__kernel_poly     m_ws.l(poly.o)
    0x0800b362   0x00000002   PAD
    0x0800b364   0x000000ec   Code   RO         1409    i.__kernel_sin      m_ws.l(sin_i.o)
    0x0800b450   0x00000010   Code   RO         1397    i.__mathlib_dbl_underflow  m_ws.l(dunder.o)
    0x0800b460   0x0000000e   Code   RO         1485    i.__scatterload_copy  mc_w.l(handlers.o)
    0x0800b46e   0x00000002   Code   RO         1486    i.__scatterload_null  mc_w.l(handlers.o)
    0x0800b470   0x0000000e   Code   RO         1487    i.__scatterload_zeroinit  mc_w.l(handlers.o)
    0x0800b47e   0x00000002   PAD
    0x0800b480   0x0000000c   Code   RO         1442    i.__set_errno       mc_w.l(errno.o)
    0x0800b48c   0x0000015c   Code   RO         1323    i._fp_digits        mc_w.l(printfa.o)
    0x0800b5e8   0x0000000e   Code   RO         1350    i._is_digit         mc_w.l(scanf_fp.o)
    0x0800b5f6   0x00000002   PAD
    0x0800b5f8   0x000006f0   Code   RO         1324    i._printf_core      mc_w.l(printfa.o)
    0x0800bce8   0x00000026   Code   RO         1325    i._printf_post_padding  mc_w.l(printfa.o)
    0x0800bd0e   0x00000030   Code   RO         1326    i._printf_pre_padding  mc_w.l(printfa.o)
    0x0800bd3e   0x0000000a   Code   RO         1328    i._sputc            mc_w.l(printfa.o)
    0x0800bd48   0x00000224   Code   RO         1385    i.atan              m_ws.l(atan.o)
    0x0800bf6c   0x00000180   Code   RO          985    i.atan2             m_ws.l(atan2.o)
    0x0800c0ec   0x000000ac   Code   RO          993    i.cos               m_ws.l(cos.o)
    0x0800c198   0x000000dc   Code   RO         1001    i.floor             m_ws.l(floor.o)
    0x0800c274   0x000009e0   Code   RO         1005    i.pow               m_ws.l(pow.o)
    0x0800cc54   0x000000b0   Code   RO         1015    i.sin               m_ws.l(sin.o)
    0x0800cd04   0x0000004c   Code   RO         1023    i.sqrt              m_ws.l(sqrt.o)
    0x0800cd50   0x0000001c   Code   RO         1031    i.strtod            m_ws.l(strtod.o)
    0x0800cd6c   0x00000060   Data   RO          626    .constdata          m_time.o
    0x0800cdcc   0x00000006   Data   RO          662    .constdata          at_cmd_call_parser.o
    0x0800cdd2   0x00000002   PAD
    0x0800cdd4   0x000000b7   Data   RO          767    .constdata          at_command_parser.o
    0x0800ce8b   0x00000001   PAD
    0x0800ce8c   0x00000118   Data   RO          788    .constdata          at_gsm_task.o
    0x0800cfa4   0x0000004d   Data   RO          860    .constdata          at_cmd_g100_parser.o
    0x0800cff1   0x00000003   PAD
    0x0800cff4   0x0000001c   Data   RO          880    .constdata          at_u_blox_gprs_task.o
    0x0800d010   0x00000050   Data   RO          901    .constdata          gps.o
    0x0800d060   0x00000088   Data   RO         1006    .constdata          m_ws.l(pow.o)
    0x0800d0e8   0x00000081   Data   RO         1038    .constdata          mc_w.l(ctype_o.o)
    0x0800d169   0x00000003   PAD
    0x0800d16c   0x00000004   Data   RO         1039    .constdata          mc_w.l(ctype_o.o)
    0x0800d170   0x00000098   Data   RO         1386    .constdata          m_ws.l(atan.o)
    0x0800d208   0x00000030   Data   RO         1395    .constdata          m_ws.l(cos_i.o)
    0x0800d238   0x00000008   Data   RO         1403    .constdata          m_ws.l(qnan.o)
    0x0800d240   0x000000c8   Data   RO         1406    .constdata          m_ws.l(rred.o)
    0x0800d308   0x00000028   Data   RO         1410    .constdata          m_ws.l(sin_i.o)
    0x0800d330   0x000000b4   Data   RO          768    .conststring        at_command_parser.o
    0x0800d3e4   0x00000084   Data   RO          789    .conststring        at_gsm_task.o
    0x0800d468   0x00000020   Data   RO         1483    Region$$Table       anon$$obj.o


    Execution Region RW_IRAM1 (Base: 0x20000000, Size: 0x00003670, Max: 0x00008000, ABSOLUTE, COMPRESSED[0x00000060])

    Base Addr    Size         Type   Attr      Idx    E Section Name        Object

    0x20000000   0x0000001c   Data   RW            3    .data               main.o
    0x2000001c   0x00000011   Data   RW          212    .data               tracker.o
    0x2000002d   0x00000003   PAD
    0x20000030   0x00000014   Data   RW          262    .data               system_stm32f10x.o
    0x20000044   0x00000004   PAD
    0x20000048   0x00000010   Data   RW          307    .data               tick.o
    0x20000058   0x0000000c   Data   RW          441    .data               rtc.o
    0x20000064   0x0000000e   Data   RW          470    .data               adc.o
    0x20000072   0x00000002   PAD
    0x20000074   0x00000004   Data   RW          488    .data               exti.o
    0x20000078   0x00000028   Data   RW          507    .data               freq_capture.o
    0x200000a0   0x00000001   Data   RW          564    .data               sparser.o
    0x200000a1   0x00000003   PAD
    0x200000a4   0x0000000c   Data   RW          592    .data               sys_time.o
    0x200000b0   0x0000000c   Data   RW          627    .data               m_time.o
    0x200000bc   0x00000006   Data   RW          663    .data               at_cmd_call_parser.o
    0x200000c2   0x00000002   PAD
    0x200000c4   0x00000016   Data   RW          712    .data               at_cmd_common_parser.o
    0x200000da   0x00000002   PAD
    0x200000dc   0x00000024   Data   RW          739    .data               at_cmd_sms_parser.o
    0x20000100   0x00000008   Data   RW          769    .data               at_command_parser.o
    0x20000108   0x00000003   Data   RW          790    .data               at_gsm_task.o
    0x2000010b   0x00000001   PAD
    0x2000010c   0x00000018   Data   RW          809    .data               at_send_cmd_task.o
    0x20000124   0x00000008   Data   RW          841    .data               modem.o
    0x2000012c   0x0000000d   Data   RW          861    .data               at_cmd_g100_parser.o
    0x20000139   0x00000003   PAD
    0x2000013c   0x0000005e   Data   RW          882    .data               at_u_blox_gprs_task.o
    0x2000019a   0x00000002   PAD
    0x2000019c   0x00000028   Data   RW          902    .data               gps.o
    0x200001c4   0x0000003c   Data   RW          929    .data               rs485_camera.o
    0x20000200   0x00000008   Data   RW          952    .data               db.o
    0x20000208   0x00000004   Data   RW          970    .data               sst25.o
    0x2000020c   0x00000004   Data   RW         1443    .data               mc_w.l(errno.o)
    0x20000210   0x00000270   Zero   RW            2    .bss                main.o
    0x20000480   0x000004e8   Zero   RW          164    .bss                system_config.o
    0x20000968   0x00000020   Zero   RW          193    .bss                hw_config.o
    0x20000988   0x00000014   Zero   RW          211    .bss                tracker.o
    0x2000099c   0x00000420   Zero   RW          330    .bss                uart1.o
    0x20000dbc   0x00000410   Zero   RW          357    .bss                uart2.o
    0x200011cc   0x00000078   Zero   RW          661    .bss                at_cmd_call_parser.o
    0x20001244   0x00000032   Zero   RW          711    .bss                at_cmd_common_parser.o
    0x20001276   0x00000002   PAD
    0x20001278   0x0000024b   Zero   RW          738    .bss                at_cmd_sms_parser.o
    0x200014c3   0x00000001   PAD
    0x200014c4   0x00000028   Zero   RW          766    .bss                at_command_parser.o
    0x200014ec   0x0000005c   Zero   RW          787    .bss                at_gsm_task.o
    0x20001548   0x000000dc   Zero   RW          808    .bss                at_send_cmd_task.o
    0x20001624   0x00000080   Zero   RW          839    .bss                modem.o
    0x200016a4   0x00000130   Zero   RW          859    .bss                at_cmd_g100_parser.o
    0x200017d4   0x0000036c   Zero   RW          879    .bss                at_u_blox_gprs_task.o
    0x20001b40   0x00000540   Zero   RW          900    .bss                gps.o
    0x20002080   0x00000572   Zero   RW          928    .bss                rs485_camera.o
    0x200025f2   0x00000079   Zero   RW          951    .bss                db.o
    0x2000266b   0x00000005   PAD
    0x20002670   0x00001000   Zero   RW          243    STACK               startup_stm32f10x_hd.o


==============================================================================

Image component sizes


      Code (inc. data)   RO Data    RW Data    ZI Data      Debug   Object Name

       372         36          0         14          0       1822   adc.o
      2488        176          6          6        120      10600   at_cmd_call_parser.o
       716         58          0         22         50       2995   at_cmd_common_parser.o
      1340        186         77         13        304       4592   at_cmd_g100_parser.o
      1848        300          0         36        587       7277   at_cmd_sms_parser.o
        76         16        363          8         40       1421   at_command_parser.o
       404         66        412          3         92       2458   at_gsm_task.o
      1024         70          0         24        220       5366   at_send_cmd_task.o
      5492        740         28         94        876      12737   at_u_blox_gprs_task.o
        84          0          0          0          0       1440   data_cmp.o
      1216         14          0          8        121       5797   db.o
       576         22          0          4          0       1727   exti.o
       108         26          0         40          0       1181   freq_capture.o
      3904        388         80         40       1344      13630   gps.o
       172         10          0          0          0        904   gsm_hwr.o
       480         12          0          0         32       3976   hw_config.o
       276          0          0          0          0       3831   list.o
      1612         32         96         12          0       2907   m_time.o
      2492        254          0         28        624     245324   main.o
       492        108          0          8        128       2306   modem.o
       148          0          0          0          0       1611   ringbuf.o
      1804        170          0         60       1394      23104   rs485_camera.o
      1068         46          0         12          0      19107   rtc.o
       352          6          0          1          0       1770   sparser.o
       700         26          0          0          0       2147   spi.o
       776         18          0          4          0       3689   sst25.o
        36          8        304          0       4096        868   startup_stm32f10x_hd.o
      1468         34          0          0          0       8042   stm32f10x_flash.o
        64          6          0          0          0       1261   stm32f10x_iwdg.o
       538          0          0         12          0       3800   sys_time.o
      1492        160          0          0       1256       6862   system_config.o
       472         36          0         20          0       1859   system_stm32f10x.o
       380         30          0         16          0      17887   tick.o
      2956        264          0         17         20       4533   tracker.o
       560         38          0          0       1056      17729   uart1.o
       440         30          0          0       1040       2318   uart2.o
       420         24          0          0          0       1601   uart3.o

    ----------------------------------------------------------------------
     38848       3410       1404        524      13408     450479   Object Totals
         0          0         32          0          0          0   (incl. Generated)
         2          0          6         22          8          0   (incl. Padding)

    ----------------------------------------------------------------------

      Code (inc. data)   RO Data    RW Data    ZI Data      Debug   Library Member Name

       548         70        152          0          0        124   atan.o
       384         38          0          0          0        144   atan2.o
       172          8          0          0          0        112   cos.o
       252         22         48          0          0        124   cos_i.o
        16          6          0          0          0         68   dunder.o
       220         16          0          0          0         84   floor.o
        40          0          0          0          0         68   fpclassify.o
       170          0          0          0          0         96   poly.o
      2528        190        136          0          0        332   pow.o
         0          0          8          0          0          0   qnan.o
       904         72        200          0          0        140   rred.o
       176         10          0          0          0        116   sin.o
       236         12         40          0          0        128   sin_i.o
        76          0          0          0          0         84   sqrt.o
        28          0          0          0          0         80   strtod.o
        56          8          0          0          0         84   __0sscanf.o
        92          0          0          0          0          0   __dczerorl2.o
        28          0          0          0          0         68   _chval.o
       812          6          0          0          0        112   _scanf.o
       336          0          0          0          0         96   _scanf_int.o
        64          0          0          0          0         84   _sgetc.o
       158          0          0          0          0         92   _strtoul.o
         8          4        133          0          0         68   ctype_o.o
         0          0          0          0          0          0   entry.o
         0          0          0          0          0          0   entry10a.o
         0          0          0          0          0          0   entry11a.o
         8          4          0          0          0          0   entry2.o
         4          0          0          0          0          0   entry5.o
         0          0          0          0          0          0   entry7b.o
         0          0          0          0          0          0   entry8b.o
         8          4          0          0          0          0   entry9a.o
        20         10          0          4          0        136   errno.o
        30          0          0          0          0          0   handlers.o
        36          8          0          0          0         68   init.o
        18          0          0          0          0         76   isspace_o.o
         0          0          0          0          0          0   iusefp.o
        30          0          0          0          0         68   llshl.o
        36          0          0          0          0         68   llsshr.o
        32          0          0          0          0         68   llushr.o
        20          0          0          0          0         68   memchr.o
        26          0          0          0          0         80   memcmp.o
        36          0          0          0          0         68   memcpya.o
        36          0          0          0          0        108   memseta.o
      2296         92          0          0          0        592   printfa.o
        40          8          0          0          0         84   scanf_char.o
       842         12          0          0          0        216   scanf_fp.o
        24          0          0          0          0         68   strcat.o
        18          0          0          0          0         68   strcpy.o
        14          0          0          0          0         68   strlen.o
        36          0          0          0          0         80   strstr.o
       156         14          0          0          0        120   strtod.o
       112          0          0          0          0         88   strtol.o
        44          0          0          0          0         80   uidiv.o
        98          0          0          0          0         92   uldiv.o
        40          2          0          0          0         68   cdcmple.o
        40          2          0          0          0         68   cdrcmple.o
        20          0          0          0          0         68   cfcmple.o
        20          0          0          0          0         68   cfrcmple.o
        56          0          0          0          0         88   d2f.o
       334          0          0          0          0        148   dadd.o
       222          0          0          0          0        100   ddiv.o
       190          0          0          0          0        176   depilogue.o
        62          0          0          0          0         80   dfixi.o
        50          0          0          0          0         76   dfixui.o
        48          0          0          0          0         68   dfixul.o
        34          0          0          0          0         76   dflti.o
        26          0          0          0          0         76   dfltui.o
        24          0          0          0          0         76   dfltul.o
       228          0          0          0          0         96   dmul.o
        46          0          0          0          0         80   dscalb.o
       162          0          0          0          0        100   dsqrt.o
        38          0          0          0          0         68   f2d.o
       176          0          0          0          0        140   fadd.o
       128          0          0          0          0         88   fdiv.o
       108          0          0          0          0        168   fepilogue.o
        40          0          0          0          0         68   ffixui.o
        10          0          0          0          0         68   ffltui.o

    ----------------------------------------------------------------------
     13436        618        720          4          0       6780   Library Totals
        10          0          3          0          0          0   (incl. Padding)

    ----------------------------------------------------------------------

      Code (inc. data)   RO Data    RW Data    ZI Data      Debug   Library Name

      5750        444        584          0          0       1700   m_ws.l
      5574        170        133          4          0       2968   mc_w.l
      2102          4          0          0          0       2112   mf_w.l

    ----------------------------------------------------------------------
     13436        618        720          4          0       6780   Library Totals

    ----------------------------------------------------------------------

==============================================================================


      Code (inc. data)   RO Data    RW Data    ZI Data      Debug   

     52284       4028       2124        528      13408     449407   Grand Totals
     52284       4028       2124         96      13408     449407   ELF Image Totals (compressed)
     52284       4028       2124         96          0          0   ROM Totals

==============================================================================

    Total RO  Size (Code + RO Data)                54408 (  53.13kB)
    Total RW  Size (RW Data + ZI Data)             13936 (  13.61kB)
    Total ROM Size (Code + RO Data + RW Data)      54504 (  53.23kB)

==============================================================================

