ARM Linker, 5.03 [Build 76] [MDK-ARM Standard]

==============================================================================

Section Cross References

    main.o(.text) refers to system_stm32f10x.o(.text) for SystemInit
    main.o(.text) refers to tick.o(.text) for TICK_Init
    main.o(.text) refers to sst25.o(.text) for SST25_Init
    main.o(.text) refers to uart1.o(.text) for USART1_Init
    main.o(.text) refers to gps.o(.text) for GPSInit
    main.o(.text) refers to uart2.o(.text) for USART2_Init
    main.o(.text) refers to uart3.o(.text) for USART3_Init
    main.o(.text) refers to exti.o(.text) for EXTI_Init
    main.o(.text) refers to rtc.o(.text) for RTC_Init
    main.o(.text) refers to system_stm32f10x.o(.data) for SystemCoreClock
    main.o(.text) refers to rtc.o(.data) for rtcTimeSec
    main.o(.text) refers to main.o(.data) for gpsTaskTime
    main.o(.text) refers to hw_config.o(.bss) for ioStatus
    main.o(.text) refers to system_config.o(.bss) for sysCfg
    main.o(.text) refers to tracker.o(.text) for TrackerGetNewData
    main.o(.text) refers to hw_config.o(.text) for IO_Control
    main.o(.text) refers to at_cmd_call_parser.o(.text) for RING_Process
    main.o(.text) refers to led.o(.text) for LedTaskControl
==============================================================================

Removing Unused input sections from the image.

    Removing system_config.o(.data), (1 bytes).
    Removing startup_stm32f10x_hd.o(HEAP), (2048 bytes).
    Removing core_cm3.o(.emb_text), (32 bytes).
    Removing i2c.o(.text), (1412 bytes).
    Removing low_power_mode.o(.text), (92 bytes).
    Removing dbg.o(.text), (36 bytes).
    Removing packet_queue.o(.text), (364 bytes).
    Removing at_u_blox_gprs_task.o(.constdata), (28 bytes).
    Removing at_u_blox_gprs_task.o(.conststring), (13 bytes).
    Removing at_u_blox_ftp_task.o(.constdata), (28 bytes).
    Removing at_u_blox_ftp_task.o(.conststring), (13 bytes).
    Removing rs485_camera.o(.text), (1804 bytes).
    Removing rs485_camera.o(.bss), (1394 bytes).
    Removing rs485_camera.o(.data), (60 bytes).

14 unused section(s) (total 7325 bytes) removed from the image.

==============================================================================

Image Symbol Table

    Local Symbols

    Symbol Name                              Value     Ov Type        Size  Object(Section)

    ../clib/../cmprslib/zerorunl2.c          0x00000000   Number         0  __dczerorl2.o ABSOLUTE
    ../clib/microlib/ctype/ctype.c           0x00000000   Number         0  isblank_o.o ABSOLUTE
    ../clib/microlib/ctype/ctype.c           0x00000000   Number         0  ctype_c.o ABSOLUTE
    ../clib/microlib/ctype/ctype.c           0x00000000   Number         0  isspace_c.o ABSOLUTE
    ../clib/microlib/ctype/ctype.c           0x00000000   Number         0  isalnum_o.o ABSOLUTE
    ../clib/microlib/ctype/ctype.c           0x00000000   Number         0  isdigit_o.o ABSOLUTE
    ../clib/microlib/ctype/ctype.c           0x00000000   Number         0  iscntrl_o.o ABSOLUTE
    ../clib/microlib/ctype/ctype.c           0x00000000   Number         0  isalpha_o.o ABSOLUTE
    ../clib/microlib/ctype/ctype.c           0x00000000   Number         0  isxdigit_o.o ABSOLUTE
    ../clib/microlib/ctype/ctype.c           0x00000000   Number         0  ctype_o.o ABSOLUTE
    ../clib/microlib/ctype/ctype.c           0x00000000   Number         0  isspace_o.o ABSOLUTE
    ../clib/microlib/ctype/ctype.c           0x00000000   Number         0  isupper_o.o ABSOLUTE
    ../clib/microlib/ctype/ctype.c           0x00000000   Number         0  ispunct_o.o ABSOLUTE
    ../clib/microlib/ctype/ctype.c           0x00000000   Number         0  isprint_o.o ABSOLUTE
    ../clib/microlib/ctype/ctype.c           0x00000000   Number         0  islower_o.o ABSOLUTE
    ../clib/microlib/ctype/ctype.c           0x00000000   Number         0  isgraph_o.o ABSOLUTE
    ../clib/microlib/division.c              0x00000000   Number         0  uidiv.o ABSOLUTE
    ../clib/microlib/division.c              0x00000000   Number         0  uldiv.o ABSOLUTE
    ../clib/microlib/errno.c                 0x00000000   Number         0  errno.o ABSOLUTE
    ../clib/microlib/init/entry.s            0x00000000   Number         0  entry9b.o ABSOLUTE
    ../clib/microlib/init/entry.s            0x00000000   Number         0  entry2.o ABSOLUTE
    ../clib/microlib/init/entry.s            0x00000000   Number         0  entry5.o ABSOLUTE
    ../clib/microlib/init/entry.s            0x00000000   Number         0  entry10a.o ABSOLUTE
    ../clib/microlib/init/entry.s            0x00000000   Number         0  entry7a.o ABSOLUTE
    ../clib/microlib/init/entry.s            0x00000000   Number         0  entry7b.o ABSOLUTE
    ../clib/microlib/init/entry.s            0x00000000   Number         0  entry8a.o ABSOLUTE
    ../clib/microlib/init/entry.s            0x00000000   Number         0  entry8b.o ABSOLUTE
    ../clib/microlib/init/entry.s            0x00000000   Number         0  entry9a.o ABSOLUTE
    ../clib/microlib/init/entry.s            0x00000000   Number         0  entry10b.o ABSOLUTE
    ../clib/microlib/init/entry.s            0x00000000   Number         0  entry11a.o ABSOLUTE
    ../clib/microlib/init/entry.s            0x00000000   Number         0  entry.o ABSOLUTE
    ../clib/microlib/init/entry.s            0x00000000   Number         0  entry11b.o ABSOLUTE
    ../clib/microlib/longlong.c              0x00000000   Number         0  llsshr.o ABSOLUTE
    ../clib/microlib/longlong.c              0x00000000   Number         0  llushr.o ABSOLUTE
    ../clib/microlib/longlong.c              0x00000000   Number         0  llshl.o ABSOLUTE
    ../clib/microlib/printf/printf.c         0x00000000   Number         0  printf4.o ABSOLUTE
    ../clib/microlib/printf/printf.c         0x00000000   Number         0  printf3.o ABSOLUTE
    ../clib/microlib/printf/printf.c         0x00000000   Number         0  printf2.o ABSOLUTE
    ../clib/microlib/printf/printf.c         0x00000000   Number         0  printf1.o ABSOLUTE
    ../clib/microlib/printf/printf.c         0x00000000   Number         0  printfb.o ABSOLUTE
    ../clib/microlib/printf/printf.c         0x00000000   Number         0  printf0.o ABSOLUTE
    ../clib/microlib/printf/printf.c         0x00000000   Number         0  printf5.o ABSOLUTE
    ../clib/microlib/printf/printf.c         0x00000000   Number         0  printfa.o ABSOLUTE
    ../clib/microlib/printf/printf.c         0x00000000   Number         0  printf8.o ABSOLUTE
    ../clib/microlib/printf/printf.c         0x00000000   Number         0  printf7.o ABSOLUTE
    ../clib/microlib/printf/printf.c         0x00000000   Number         0  printf6.o ABSOLUTE
    ../clib/microlib/printf/stubs.s          0x00000000   Number         0  stubs.o ABSOLUTE
    ../clib/microlib/stdio/streams.c         0x00000000   Number         0  stdout.o ABSOLUTE
    ../clib/microlib/string/memchr.c         0x00000000   Number         0  memchr.o ABSOLUTE
    ../clib/microlib/string/memcmp.c         0x00000000   Number         0  memcmp.o ABSOLUTE
    ../clib/microlib/string/memcpy.c         0x00000000   Number         0  memcpya.o ABSOLUTE
    ../clib/microlib/string/memcpy.c         0x00000000   Number         0  memcpyb.o ABSOLUTE
    ../clib/microlib/string/memset.c         0x00000000   Number         0  memseta.o ABSOLUTE
    ../clib/microlib/string/strcat.c         0x00000000   Number         0  strcat.o ABSOLUTE
    ../clib/microlib/string/strcpy.c         0x00000000   Number         0  strcpy.o ABSOLUTE
    ../clib/microlib/string/strlen.c         0x00000000   Number         0  strlen.o ABSOLUTE
    ../clib/microlib/string/strstr.c         0x00000000   Number         0  strstr.o ABSOLUTE
    ../clib/microlib/stubs.s                 0x00000000   Number         0  iusefp.o ABSOLUTE
    ../clib/scanf.c                          0x00000000   Number         0  __0sscanf.o ABSOLUTE
    ../clib/scanf.c                          0x00000000   Number         0  _strtoul.o ABSOLUTE
    ../clib/scanf.c                          0x00000000   Number         0  _scanf.o ABSOLUTE
    ../clib/scanf.c                          0x00000000   Number         0  strtod.o ABSOLUTE
    ../clib/scanf.c                          0x00000000   Number         0  _sgetc.o ABSOLUTE
    ../clib/scanf.c                          0x00000000   Number         0  scanf_char.o ABSOLUTE
    ../clib/scanf.c                          0x00000000   Number         0  _chval.o ABSOLUTE
    ../clib/scanf.c                          0x00000000   Number         0  strtol.o ABSOLUTE
    ../clib/scanf.c                          0x00000000   Number         0  scanf_fp.o ABSOLUTE
    ../clib/scanf.c                          0x00000000   Number         0  _scanf_int.o ABSOLUTE
    ../fplib/microlib/d2f.c                  0x00000000   Number         0  d2f.o ABSOLUTE
    ../fplib/microlib/f2d.c                  0x00000000   Number         0  f2d.o ABSOLUTE
    ../fplib/microlib/fpadd.c                0x00000000   Number         0  fadd.o ABSOLUTE
    ../fplib/microlib/fpadd.c                0x00000000   Number         0  dadd.o ABSOLUTE
    ../fplib/microlib/fpdiv.c                0x00000000   Number         0  fdiv.o ABSOLUTE
    ../fplib/microlib/fpdiv.c                0x00000000   Number         0  ddiv.o ABSOLUTE
    ../fplib/microlib/fpepilogue.c           0x00000000   Number         0  depilogue.o ABSOLUTE
    ../fplib/microlib/fpepilogue.c           0x00000000   Number         0  fepilogue.o ABSOLUTE
    ../fplib/microlib/fpfix.c                0x00000000   Number         0  dfixul.o ABSOLUTE
    ../fplib/microlib/fpfix.c                0x00000000   Number         0  ffixui.o ABSOLUTE
    ../fplib/microlib/fpfix.c                0x00000000   Number         0  dfixui.o ABSOLUTE
    ../fplib/microlib/fpfix.c                0x00000000   Number         0  dfixi.o ABSOLUTE
    ../fplib/microlib/fpflt.c                0x00000000   Number         0  dflti.o ABSOLUTE
    ../fplib/microlib/fpflt.c                0x00000000   Number         0  dfltul.o ABSOLUTE
    ../fplib/microlib/fpflt.c                0x00000000   Number         0  ffltui.o ABSOLUTE
    ../fplib/microlib/fpflt.c                0x00000000   Number         0  dfltui.o ABSOLUTE
    ../fplib/microlib/fpmul.c                0x00000000   Number         0  dmul.o ABSOLUTE
    ../fplib/microlib/fpscalb.c              0x00000000   Number         0  dscalb.o ABSOLUTE
    ../fplib/microlib/fpsqrt.c               0x00000000   Number         0  dsqrt.o ABSOLUTE
    ../mathlib/atan.c                        0x00000000   Number         0  atan.o ABSOLUTE
    ../mathlib/atan.c                        0x00000000   Number         0  atan_x.o ABSOLUTE
    ../mathlib/atan2.c                       0x00000000   Number         0  atan2_x.o ABSOLUTE
    ../mathlib/atan2.c                       0x00000000   Number         0  atan2.o ABSOLUTE
    ../mathlib/cos.c                         0x00000000   Number         0  cos.o ABSOLUTE
    ../mathlib/cos.c                         0x00000000   Number         0  cos_x.o ABSOLUTE
    ../mathlib/cos_i.c                       0x00000000   Number         0  cos_i.o ABSOLUTE
    ../mathlib/dunder.c                      0x00000000   Number         0  dunder.o ABSOLUTE
    ../mathlib/floor.c                       0x00000000   Number         0  floor.o ABSOLUTE
    ../mathlib/fpclassify.c                  0x00000000   Number         0  fpclassify.o ABSOLUTE
    ../mathlib/poly.c                        0x00000000   Number         0  poly.o ABSOLUTE
    ../mathlib/pow.c                         0x00000000   Number         0  pow.o ABSOLUTE
    ../mathlib/pow.c                         0x00000000   Number         0  pow_x.o ABSOLUTE
    ../mathlib/qnan.c                        0x00000000   Number         0  qnan.o ABSOLUTE
    ../mathlib/rred.c                        0x00000000   Number         0  rred.o ABSOLUTE
    ../mathlib/sin.c                         0x00000000   Number         0  sin.o ABSOLUTE
    ../mathlib/sin.c                         0x00000000   Number         0  sin_x.o ABSOLUTE
    ../mathlib/sin_i.c                       0x00000000   Number         0  sin_i_x.o ABSOLUTE
    ../mathlib/sin_i.c                       0x00000000   Number         0  sin_i.o ABSOLUTE
    ../mathlib/sqrt.c                        0x00000000   Number         0  sqrt.o ABSOLUTE
    ../mathlib/sqrt.c                        0x00000000   Number         0  sqrt_x.o ABSOLUTE
    ../mathlib/strtod.c                      0x00000000   Number         0  strtod.o ABSOLUTE
    ..\..\CMSIS\CM3\CoreSupport\core_cm3.c   0x00000000   Number         0  core_cm3.o ABSOLUTE
    ..\..\CMSIS\CM3\DeviceSupport\ST\STM32F10x\startup\arm\startup_stm32f10x_hd.s 0x00000000   Number         0  startup_stm32f10x_hd.o ABSOLUTE
    ..\..\CMSIS\CM3\DeviceSupport\ST\STM32F10x\system_stm32f10x.c 0x00000000   Number         0  system_stm32f10x.o ABSOLUTE
    ..\..\ampm_lib\camera\rs485_camera.c     0x00000000   Number         0  rs485_camera.o ABSOLUTE
    ..\..\ampm_lib\db\db.c                   0x00000000   Number         0  db.o ABSOLUTE
    ..\..\ampm_lib\flash_mem\sst25.c         0x00000000   Number         0  sst25.o ABSOLUTE
    ..\..\ampm_lib\gps\gps.c                 0x00000000   Number         0  gps.o ABSOLUTE
    ..\..\ampm_lib\gsm\at_cmd_call_parser.c  0x00000000   Number         0  at_cmd_call_parser.o ABSOLUTE
    ..\..\ampm_lib\gsm\at_cmd_common_parser.c 0x00000000   Number         0  at_cmd_common_parser.o ABSOLUTE
    ..\..\ampm_lib\gsm\at_cmd_sms_parser.c   0x00000000   Number         0  at_cmd_sms_parser.o ABSOLUTE
    ..\..\ampm_lib\gsm\at_command_parser.c   0x00000000   Number         0  at_command_parser.o ABSOLUTE
    ..\..\ampm_lib\gsm\at_gsm_task.c         0x00000000   Number         0  at_gsm_task.o ABSOLUTE
    ..\..\ampm_lib\gsm\at_send_cmd_task.c    0x00000000   Number         0  at_send_cmd_task.o ABSOLUTE
    ..\..\ampm_lib\gsm\gsm_hwr.c             0x00000000   Number         0  gsm_hwr.o ABSOLUTE
    ..\..\ampm_lib\gsm\modem.c               0x00000000   Number         0  modem.o ABSOLUTE
    ..\..\ampm_lib\gsm\u-blox\at_cmd_g100_parser.c 0x00000000   Number         0  at_cmd_g100_parser.o ABSOLUTE
    ..\..\ampm_lib\gsm\u-blox\at_u_blox_ftp_task.c 0x00000000   Number         0  at_u_blox_ftp_task.o ABSOLUTE
    ..\..\ampm_lib\gsm\u-blox\at_u_blox_gprs_task.c 0x00000000   Number         0  at_u_blox_gprs_task.o ABSOLUTE
    ..\..\ampm_lib\lib\data_cmp.c            0x00000000   Number         0  data_cmp.o ABSOLUTE
    ..\..\ampm_lib\lib\list.c                0x00000000   Number         0  list.o ABSOLUTE
    ..\..\ampm_lib\lib\m_time.c              0x00000000   Number         0  m_time.o ABSOLUTE
    ..\..\ampm_lib\lib\packet_queue.c        0x00000000   Number         0  packet_queue.o ABSOLUTE
    ..\..\ampm_lib\lib\ringbuf.c             0x00000000   Number         0  ringbuf.o ABSOLUTE
    ..\..\ampm_lib\lib\sparser.c             0x00000000   Number         0  sparser.o ABSOLUTE
    ..\..\ampm_lib\lib\sys_time.c            0x00000000   Number         0  sys_time.o ABSOLUTE
    ..\..\driver\STM32F10x_StdPeriph_Driver\src\stm32f10x_flash.c 0x00000000   Number         0  stm32f10x_flash.o ABSOLUTE
    ..\..\driver\STM32F10x_StdPeriph_Driver\src\stm32f10x_iwdg.c 0x00000000   Number         0  stm32f10x_iwdg.o ABSOLUTE
    ..\..\driver\ampm\stm32\adc.c            0x00000000   Number         0  adc.o ABSOLUTE
    ..\..\driver\ampm\stm32\exti.c           0x00000000   Number         0  exti.o ABSOLUTE
    ..\..\driver\ampm\stm32\freq_Capture.c   0x00000000   Number         0  freq_capture.o ABSOLUTE
    ..\..\driver\ampm\stm32\i2c.c            0x00000000   Number         0  i2c.o ABSOLUTE
    ..\..\driver\ampm\stm32\low_power_mode.c 0x00000000   Number         0  low_power_mode.o ABSOLUTE
    ..\..\driver\ampm\stm32\rtc.c            0x00000000   Number         0  rtc.o ABSOLUTE
    ..\..\driver\ampm\stm32\spi.c            0x00000000   Number         0  spi.o ABSOLUTE
    ..\..\driver\ampm\stm32\tick.c           0x00000000   Number         0  tick.o ABSOLUTE
    ..\..\driver\ampm\stm32\uart1.c          0x00000000   Number         0  uart1.o ABSOLUTE
    ..\..\driver\ampm\stm32\uart2.c          0x00000000   Number         0  uart2.o ABSOLUTE
    ..\..\driver\ampm\stm32\uart3.c          0x00000000   Number         0  uart3.o ABSOLUTE
    ..\..\src\dbg.c                          0x00000000   Number         0  dbg.o ABSOLUTE
    ..\..\src\hw_config.c                    0x00000000   Number         0  hw_config.o ABSOLUTE
    ..\..\src\led.c                          0x00000000   Number         0  led.o ABSOLUTE
    ..\..\src\main.c                         0x00000000   Number         0  main.o ABSOLUTE
    ..\..\src\sms_server.c                   0x00000000   Number         0  sms_server.o ABSOLUTE
    ..\..\src\system_config.c                0x00000000   Number         0  system_config.o ABSOLUTE
    ..\..\src\tracker.c                      0x00000000   Number         0  tracker.o ABSOLUTE
    ..\\..\\CMSIS\\CM3\\CoreSupport\\core_cm3.c 0x00000000   Number         0  core_cm3.o ABSOLUTE
    cdcmple.s                                0x00000000   Number         0  cdcmple.o ABSOLUTE
    cdrcmple.s                               0x00000000   Number         0  cdrcmple.o ABSOLUTE
    cfcmple.s                                0x00000000   Number         0  cfcmple.o ABSOLUTE
    cfrcmple.s                               0x00000000   Number         0  cfrcmple.o ABSOLUTE
    dc.s                                     0x00000000   Number         0  dc.o ABSOLUTE
    handlers.s                               0x00000000   Number         0  handlers.o ABSOLUTE
    init.s                                   0x00000000   Number         0  init.o ABSOLUTE
    RESET                                    0x08002800   Section      304  startup_stm32f10x_hd.o(RESET)
    .ARM.Collect$$$$00000000                 0x08002930   Section        0  entry.o(.ARM.Collect$$$$00000000)
    .ARM.Collect$$$$00000001                 0x08002930   Section        4  entry2.o(.ARM.Collect$$$$00000001)
    .ARM.Collect$$$$00000004                 0x08002934   Section        4  entry5.o(.ARM.Collect$$$$00000004)
    .ARM.Collect$$$$00000008                 0x08002938   Section        0  entry7b.o(.ARM.Collect$$$$00000008)
    .ARM.Collect$$$$0000000A                 0x08002938   Section        0  entry8b.o(.ARM.Collect$$$$0000000A)
    .ARM.Collect$$$$0000000B                 0x08002938   Section        8  entry9a.o(.ARM.Collect$$$$0000000B)
    .ARM.Collect$$$$0000000D                 0x08002940   Section        0  entry10a.o(.ARM.Collect$$$$0000000D)
    .ARM.Collect$$$$0000000F                 0x08002940   Section        0  entry11a.o(.ARM.Collect$$$$0000000F)
    .ARM.Collect$$$$00002712                 0x08002940   Section        4  entry2.o(.ARM.Collect$$$$00002712)
    __lit__00000000                          0x08002940   Data           4  entry2.o(.ARM.Collect$$$$00002712)
    .text                                    0x08002944   Section        0  main.o(.text)
    NVIC_DisableIRQ                          0x08003735   Thumb Code    18  main.o(.text)
    .text                                    0x08003758   Section        0  system_config.o(.text)
    .text                                    0x08003c80   Section        0  hw_config.o(.text)
    .text                                    0x08003e50   Section        0  tracker.o(.text)
    .text                                    0x080049dc   Section        0  led.o(.text)
    .text                                    0x08004ab8   Section       36  startup_stm32f10x_hd.o(.text)
    .text                                    0x08004adc   Section        0  system_stm32f10x.o(.text)
    SetSysClockTo36                          0x08004add   Thumb Code   208  system_stm32f10x.o(.text)
    SetSysClock                              0x08004bad   Thumb Code     8  system_stm32f10x.o(.text)
    .text                                    0x08004cb8   Section        0  stm32f10x_flash.o(.text)
    .text                                    0x08005274   Section        0  stm32f10x_iwdg.o(.text)
    .text                                    0x080052b4   Section        0  tick.o(.text)
    .text                                    0x08005430   Section        0  uart1.o(.text)
    .text                                    0x08005668   Section        0  uart2.o(.text)
    .text                                    0x08005820   Section        0  uart3.o(.text)
    .text                                    0x080059dc   Section        0  spi.o(.text)
    .text                                    0x08005c98   Section        0  rtc.o(.text)
    NVIC_SetPriority                         0x08005c99   Thumb Code    32  rtc.o(.text)
    NVIC_EnableIRQ                           0x080060ef   Thumb Code    24  rtc.o(.text)
    .text                                    0x0800610c   Section        0  adc.o(.text)
    .text                                    0x08006280   Section        0  exti.o(.text)
    .text                                    0x080064c0   Section        0  freq_capture.o(.text)
    .text                                    0x0800652c   Section        0  list.o(.text)
    .text                                    0x08006640   Section        0  ringbuf.o(.text)
    .text                                    0x080066d4   Section        0  sparser.o(.text)
    .text                                    0x08006834   Section        0  data_cmp.o(.text)
    .text                                    0x08006888   Section        0  sys_time.o(.text)
    .text                                    0x08006aa4   Section        0  m_time.o(.text)
    .text                                    0x080070f0   Section        0  at_cmd_call_parser.o(.text)
    .text                                    0x08007a9c   Section        0  at_cmd_common_parser.o(.text)
    .text                                    0x08007d68   Section        0  at_cmd_sms_parser.o(.text)
    .text                                    0x080084cc   Section        0  at_command_parser.o(.text)
    .text                                    0x08008518   Section        0  at_gsm_task.o(.text)
    .text                                    0x08008b28   Section        0  at_send_cmd_task.o(.text)
    .text                                    0x08008efc   Section        0  gsm_hwr.o(.text)
    .text                                    0x08008fa0   Section        0  modem.o(.text)
    .text                                    0x0800918c   Section        0  at_cmd_g100_parser.o(.text)
    .text                                    0x080096c8   Section        0  at_u_blox_gprs_task.o(.text)
    .text                                    0x0800a7c0   Section        0  at_u_blox_ftp_task.o(.text)
    .text                                    0x0800add4   Section        0  gps.o(.text)
    .text                                    0x0800bd14   Section        0  db.o(.text)
    .text                                    0x0800c1d4   Section        0  sst25.o(.text)
    SST25__Status                            0x0800c1eb   Thumb Code    48  sst25.o(.text)
    SST25__WriteEnable                       0x0800c21b   Thumb Code    84  sst25.o(.text)
    SST25__WriteDisable                      0x0800c45b   Thumb Code     4  sst25.o(.text)
    SST25__GlobalProtect                     0x0800c45f   Thumb Code   108  sst25.o(.text)
    .text                                    0x0800c4dc   Section        0  ctype_o.o(.text)
    .text                                    0x0800c4e4   Section        0  isspace_o.o(.text)
    .text                                    0x0800c4f6   Section        0  memcpya.o(.text)
    .text                                    0x0800c51a   Section        0  memseta.o(.text)
    .text                                    0x0800c53e   Section        0  strcat.o(.text)
    .text                                    0x0800c556   Section        0  strstr.o(.text)
    .text                                    0x0800c57a   Section        0  strlen.o(.text)
    .text                                    0x0800c588   Section        0  memchr.o(.text)
    .text                                    0x0800c59c   Section        0  memcmp.o(.text)
    .text                                    0x0800c5b6   Section        0  strcpy.o(.text)
    .text                                    0x0800c5c8   Section        0  __0sscanf.o(.text)
    .text                                    0x0800c600   Section        0  _scanf_int.o(.text)
    .text                                    0x0800c750   Section        0  scanf_fp.o(.text)
    _fp_value                                0x0800c751   Thumb Code   256  scanf_fp.o(.text)
    .text                                    0x0800ca8c   Section        0  strtol.o(.text)
    .text                                    0x0800cafc   Section        0  fadd.o(.text)
    .text                                    0x0800cbac   Section        0  fdiv.o(.text)
    .text                                    0x0800cc2c   Section        0  dadd.o(.text)
    .text                                    0x0800cd7a   Section        0  dmul.o(.text)
    .text                                    0x0800ce5e   Section        0  ddiv.o(.text)
    .text                                    0x0800cf3c   Section        0  ffltui.o(.text)
    .text                                    0x0800cf46   Section        0  dfltui.o(.text)
    .text                                    0x0800cf60   Section        0  ffixui.o(.text)
    .text                                    0x0800cf88   Section        0  dfixui.o(.text)
    .text                                    0x0800cfba   Section        0  f2d.o(.text)
    .text                                    0x0800cfe0   Section       40  cdcmple.o(.text)
    .text                                    0x0800d008   Section       40  cdrcmple.o(.text)
    .text                                    0x0800d030   Section        0  d2f.o(.text)
    .text                                    0x0800d068   Section       20  cfcmple.o(.text)
    .text                                    0x0800d07c   Section       20  cfrcmple.o(.text)
    .text                                    0x0800d090   Section        0  uidiv.o(.text)
    .text                                    0x0800d0bc   Section        0  uldiv.o(.text)
    .text                                    0x0800d11e   Section        0  llshl.o(.text)
    .text                                    0x0800d13c   Section        0  llushr.o(.text)
    .text                                    0x0800d15c   Section        0  llsshr.o(.text)
    .text                                    0x0800d180   Section        0  _chval.o(.text)
    .text                                    0x0800d19c   Section        0  scanf_char.o(.text)
    _scanf_char_input                        0x0800d19d   Thumb Code    12  scanf_char.o(.text)
    .text                                    0x0800d1c4   Section        0  _sgetc.o(.text)
    .text                                    0x0800d204   Section        0  _strtoul.o(.text)
    .text                                    0x0800d2a4   Section        0  strtod.o(.text)
    _local_sscanf                            0x0800d2a5   Thumb Code    54  strtod.o(.text)
    .text                                    0x0800d340   Section        0  iusefp.o(.text)
    .text                                    0x0800d340   Section        0  fepilogue.o(.text)
    .text                                    0x0800d3ac   Section        0  depilogue.o(.text)
    .text                                    0x0800d46a   Section        0  dscalb.o(.text)
    .text                                    0x0800d498   Section        0  dsqrt.o(.text)
    .text                                    0x0800d53a   Section        0  dflti.o(.text)
    .text                                    0x0800d55c   Section        0  dfltul.o(.text)
    .text                                    0x0800d574   Section        0  dfixul.o(.text)
    .text                                    0x0800d5a4   Section       36  init.o(.text)
    .text                                    0x0800d5c8   Section        0  _scanf.o(.text)
    .text                                    0x0800d8f4   Section        0  dfixi.o(.text)
    .text                                    0x0800d932   Section        0  __dczerorl2.o(.text)
    i.__0sprintf                             0x0800d990   Section        0  printfa.o(i.__0sprintf)
    i.__0vsprintf                            0x0800d9b8   Section        0  printfa.o(i.__0vsprintf)
    i.__ARM_fpclassify                       0x0800d9dc   Section        0  fpclassify.o(i.__ARM_fpclassify)
    i.__aeabi_errno_addr                     0x0800da04   Section        0  errno.o(i.__aeabi_errno_addr)
    i.__ieee754_rem_pio2                     0x0800da0c   Section        0  rred.o(i.__ieee754_rem_pio2)
    i.__kernel_cos                           0x0800dd94   Section        0  cos_i.o(i.__kernel_cos)
    i.__kernel_poly                          0x0800de90   Section        0  poly.o(i.__kernel_poly)
    i.__kernel_sin                           0x0800df3c   Section        0  sin_i.o(i.__kernel_sin)
    i.__mathlib_dbl_underflow                0x0800e028   Section        0  dunder.o(i.__mathlib_dbl_underflow)
    i.__scatterload_copy                     0x0800e038   Section       14  handlers.o(i.__scatterload_copy)
    i.__scatterload_null                     0x0800e046   Section        2  handlers.o(i.__scatterload_null)
    i.__scatterload_zeroinit                 0x0800e048   Section       14  handlers.o(i.__scatterload_zeroinit)
    i.__set_errno                            0x0800e058   Section        0  errno.o(i.__set_errno)
    i._fp_digits                             0x0800e064   Section        0  printfa.o(i._fp_digits)
    _fp_digits                               0x0800e065   Thumb Code   326  printfa.o(i._fp_digits)
    i._is_digit                              0x0800e1c0   Section        0  scanf_fp.o(i._is_digit)
    i._printf_core                           0x0800e1d0   Section        0  printfa.o(i._printf_core)
    _printf_core                             0x0800e1d1   Thumb Code  1762  printfa.o(i._printf_core)
    i._printf_post_padding                   0x0800e8c0   Section        0  printfa.o(i._printf_post_padding)
    _printf_post_padding                     0x0800e8c1   Thumb Code    38  printfa.o(i._printf_post_padding)
    i._printf_pre_padding                    0x0800e8e6   Section        0  printfa.o(i._printf_pre_padding)
    _printf_pre_padding                      0x0800e8e7   Thumb Code    48  printfa.o(i._printf_pre_padding)
    i._sputc                                 0x0800e916   Section        0  printfa.o(i._sputc)
    _sputc                                   0x0800e917   Thumb Code    10  printfa.o(i._sputc)
    i.atan                                   0x0800e920   Section        0  atan.o(i.atan)
    i.atan2                                  0x0800eb44   Section        0  atan2.o(i.atan2)
    i.cos                                    0x0800ecc4   Section        0  cos.o(i.cos)
    i.floor                                  0x0800ed70   Section        0  floor.o(i.floor)
    i.pow                                    0x0800ee4c   Section        0  pow.o(i.pow)
    i.sin                                    0x0800f82c   Section        0  sin.o(i.sin)
    i.sqrt                                   0x0800f8dc   Section        0  sqrt.o(i.sqrt)
    i.strtod                                 0x0800f928   Section        0  strtod.o(i.strtod)
    .constdata                               0x0800f944   Section       96  m_time.o(.constdata)
    .constdata                               0x0800f9a4   Section        6  at_cmd_call_parser.o(.constdata)
    .constdata                               0x0800f9ac   Section      183  at_command_parser.o(.constdata)
    AT_ProcessCmd                            0x0800f9ac   Data         176  at_command_parser.o(.constdata)
    .constdata                               0x0800fa64   Section      252  at_gsm_task.o(.constdata)
    .constdata                               0x0800fb60   Section       77  at_cmd_g100_parser.o(.constdata)
    .constdata                               0x0800fbb0   Section       80  gps.o(.constdata)
    GPS_ProcessCmd                           0x0800fbb0   Data          80  gps.o(.constdata)
    .constdata                               0x0800fc00   Section      136  pow.o(.constdata)
    bp                                       0x0800fc00   Data          16  pow.o(.constdata)
    dp_h                                     0x0800fc10   Data          16  pow.o(.constdata)
    dp_l                                     0x0800fc20   Data          16  pow.o(.constdata)
    L                                        0x0800fc30   Data          48  pow.o(.constdata)
    P                                        0x0800fc60   Data          40  pow.o(.constdata)
    .constdata                               0x0800fc88   Section      129  ctype_o.o(.constdata)
    .constdata                               0x0800fd0c   Section        4  ctype_o.o(.constdata)
    table                                    0x0800fd0c   Data           4  ctype_o.o(.constdata)
    .constdata                               0x0800fd10   Section      152  atan.o(.constdata)
    atanhi                                   0x0800fd10   Data          32  atan.o(.constdata)
    atanlo                                   0x0800fd30   Data          32  atan.o(.constdata)
    aTodd                                    0x0800fd50   Data          40  atan.o(.constdata)
    aTeven                                   0x0800fd78   Data          48  atan.o(.constdata)
    .constdata                               0x0800fda8   Section       48  cos_i.o(.constdata)
    C                                        0x0800fda8   Data          48  cos_i.o(.constdata)
    .constdata                               0x0800fdd8   Section        8  qnan.o(.constdata)
    .constdata                               0x0800fde0   Section      200  rred.o(.constdata)
    pio2s                                    0x0800fde0   Data          48  rred.o(.constdata)
    twooverpi                                0x0800fe10   Data         152  rred.o(.constdata)
    .constdata                               0x0800fea8   Section       40  sin_i.o(.constdata)
    S                                        0x0800fea8   Data          40  sin_i.o(.constdata)
    .conststring                             0x0800fed0   Section      180  at_command_parser.o(.conststring)
    .conststring                             0x0800ff84   Section      111  at_gsm_task.o(.conststring)
    .data                                    0x20000000   Section       40  main.o(.data)
    gpsTaskTime                              0x20000020   Data           4  main.o(.data)
    .data                                    0x20000028   Section       17  tracker.o(.data)
    .data                                    0x2000003c   Section        8  led.o(.data)
    .data                                    0x20000044   Section       20  system_stm32f10x.o(.data)
    .data                                    0x20000058   Section       16  tick.o(.data)
    .data                                    0x20000068   Section       20  rtc.o(.data)
    .data                                    0x2000007c   Section       14  adc.o(.data)
    .data                                    0x2000008c   Section        4  exti.o(.data)
    .data                                    0x20000090   Section       40  freq_capture.o(.data)
    .data                                    0x200000b8   Section        1  sparser.o(.data)
    lastChar                                 0x200000b8   Data           1  sparser.o(.data)
    .data                                    0x200000bc   Section       12  sys_time.o(.data)
    .data                                    0x200000c8   Section       12  m_time.o(.data)
    .data                                    0x200000d4   Section        6  at_cmd_call_parser.o(.data)
    errorCode                                0x200000d8   Data           2  at_cmd_call_parser.o(.data)
    .data                                    0x200000dc   Section       22  at_cmd_common_parser.o(.data)
    level                                    0x200000e4   Data           4  at_cmd_common_parser.o(.data)
    number                                   0x200000e8   Data           2  at_cmd_common_parser.o(.data)
    .data                                    0x200000f4   Section       36  at_cmd_sms_parser.o(.data)
    smsList_list                             0x200000f4   Data           4  at_cmd_sms_parser.o(.data)
    smsList                                  0x200000f8   Data           4  at_cmd_sms_parser.o(.data)
    comma                                    0x200000ff   Data           1  at_cmd_sms_parser.o(.data)
    getSmsDataFlag                           0x20000100   Data           1  at_cmd_sms_parser.o(.data)
    u8pt                                     0x20000104   Data           4  at_cmd_sms_parser.o(.data)
    u8pt1                                    0x20000108   Data           4  at_cmd_sms_parser.o(.data)
    u8pt2                                    0x2000010c   Data           4  at_cmd_sms_parser.o(.data)
    length                                   0x20000110   Data           4  at_cmd_sms_parser.o(.data)
    .data                                    0x20000118   Section        8  at_command_parser.o(.data)
    RingBuffInit                             0x2000011c   Data           4  at_command_parser.o(.data)
    .data                                    0x20000120   Section       20  at_gsm_task.o(.data)
    .data                                    0x20000134   Section       24  at_send_cmd_task.o(.data)
    atCmdList_list                           0x20000134   Data           4  at_send_cmd_task.o(.data)
    atCmdList                                0x20000138   Data           4  at_send_cmd_task.o(.data)
    .data                                    0x2000014c   Section        8  modem.o(.data)
    .data                                    0x20000154   Section       13  at_cmd_g100_parser.o(.data)
    dataCnt                                  0x2000015f   Data           1  at_cmd_g100_parser.o(.data)
    offset                                   0x20000160   Data           1  at_cmd_g100_parser.o(.data)
    .data                                    0x20000164   Section       79  at_u_blox_gprs_task.o(.data)
    gprsConnList_list                        0x20000164   Data           4  at_u_blox_gprs_task.o(.data)
    gprsConnList                             0x20000168   Data           4  at_u_blox_gprs_task.o(.data)
    length                                   0x20000180   Data           4  at_u_blox_gprs_task.o(.data)
    socketNo                                 0x20000184   Data           1  at_u_blox_gprs_task.o(.data)
    flag                                     0x20000185   Data           1  at_u_blox_gprs_task.o(.data)
    dataLen                                  0x20000188   Data           4  at_u_blox_gprs_task.o(.data)
    socketNo                                 0x2000018c   Data           1  at_u_blox_gprs_task.o(.data)
    pt                                       0x20000190   Data           4  at_u_blox_gprs_task.o(.data)
    length                                   0x20000194   Data           4  at_u_blox_gprs_task.o(.data)
    socketNo                                 0x20000198   Data           1  at_u_blox_gprs_task.o(.data)
    .data                                    0x200001b4   Section       24  at_u_blox_ftp_task.o(.data)
    ftpConnList_list                         0x200001b4   Data           4  at_u_blox_ftp_task.o(.data)
    ftpConnList                              0x200001b8   Data           4  at_u_blox_ftp_task.o(.data)
    .data                                    0x200001cc   Section       40  gps.o(.data)
    gpsTime                                  0x200001d8   Data           4  gps.o(.data)
    .data                                    0x200001f4   Section        8  db.o(.data)
    .data                                    0x200001fc   Section        4  sst25.o(.data)
    .data                                    0x20000200   Section        4  errno.o(.data)
    _errno                                   0x20000200   Data           4  errno.o(.data)
    .bss                                     0x20000204   Section      624  main.o(.bss)
    .bss                                     0x20000474   Section     1294  system_config.o(.bss)
    .bss                                     0x20000984   Section       32  hw_config.o(.bss)
    .bss                                     0x200009a4   Section       20  tracker.o(.bss)
    speedSamples                             0x200009a4   Data          20  tracker.o(.bss)
    .bss                                     0x200009b8   Section     2592  uart1.o(.bss)
    .bss                                     0x200013d8   Section     1040  uart2.o(.bss)
    .bss                                     0x200017e8   Section     1040  uart3.o(.bss)
    .bss                                     0x20001bf8   Section      120  at_cmd_call_parser.o(.bss)
    .bss                                     0x20001c70   Section       50  at_cmd_common_parser.o(.bss)
    .bss                                     0x20001ca4   Section      332  at_cmd_sms_parser.o(.bss)
    .bss                                     0x20001df0   Section       40  at_command_parser.o(.bss)
    .bss                                     0x20001e18   Section       96  at_gsm_task.o(.bss)
    .bss                                     0x20001e78   Section      220  at_send_cmd_task.o(.bss)
    .bss                                     0x20001f54   Section      128  modem.o(.bss)
    buffer                                   0x20001f54   Data         128  modem.o(.bss)
    .bss                                     0x20001fd4   Section      304  at_cmd_g100_parser.o(.bss)
    .bss                                     0x20002104   Section      876  at_u_blox_gprs_task.o(.bss)
    .bss                                     0x20002470   Section       44  at_u_blox_ftp_task.o(.bss)
    .bss                                     0x200024a0   Section     1344  gps.o(.bss)
    .bss                                     0x200029e0   Section      121  db.o(.bss)
    STACK                                    0x20002a60   Section     4096  startup_stm32f10x_hd.o(STACK)

    Global Symbols

    Symbol Name                              Value     Ov Type        Size  Object(Section)

    BuildAttributes$$THM_ISAv4$P$D$K$B$S$PE$A:L22UL41UL21$X:L11$S22US41US21$IEEE1$IW$USESV6$~STKCKD$USESV7$~SHL$OTIME$ROPI$IEEEX$EBA8$MICROLIB$REQ8$PRES8$EABIv2 0x00000000   Number         0  anon$$obj.o ABSOLUTE
    __ARM_use_no_argv                        0x00000000   Number         0  main.o ABSOLUTE
    _printf_a                                0x00000000   Number         0  stubs.o ABSOLUTE
    _printf_c                                0x00000000   Number         0  stubs.o ABSOLUTE
    _printf_charcount                        0x00000000   Number         0  stubs.o ABSOLUTE
    _printf_d                                0x00000000   Number         0  stubs.o ABSOLUTE
    _printf_e                                0x00000000   Number         0  stubs.o ABSOLUTE
    _printf_f                                0x00000000   Number         0  stubs.o ABSOLUTE
    _printf_flags                            0x00000000   Number         0  stubs.o ABSOLUTE
    _printf_fp_dec                           0x00000000   Number         0  stubs.o ABSOLUTE
    _printf_fp_hex                           0x00000000   Number         0  stubs.o ABSOLUTE
    _printf_g                                0x00000000   Number         0  stubs.o ABSOLUTE
    _printf_i                                0x00000000   Number         0  stubs.o ABSOLUTE
    _printf_int_dec                          0x00000000   Number         0  stubs.o ABSOLUTE
    _printf_l                                0x00000000   Number         0  stubs.o ABSOLUTE
    _printf_lc                               0x00000000   Number         0  stubs.o ABSOLUTE
    _printf_ll                               0x00000000   Number         0  stubs.o ABSOLUTE
    _printf_lld                              0x00000000   Number         0  stubs.o ABSOLUTE
    _printf_lli                              0x00000000   Number         0  stubs.o ABSOLUTE
    _printf_llo                              0x00000000   Number         0  stubs.o ABSOLUTE
    _printf_llu                              0x00000000   Number         0  stubs.o ABSOLUTE
    _printf_llx                              0x00000000   Number         0  stubs.o ABSOLUTE
    _printf_longlong_dec                     0x00000000   Number         0  stubs.o ABSOLUTE
    _printf_longlong_hex                     0x00000000   Number         0  stubs.o ABSOLUTE
    _printf_longlong_oct                     0x00000000   Number         0  stubs.o ABSOLUTE
    _printf_ls                               0x00000000   Number         0  stubs.o ABSOLUTE
    _printf_mbtowc                           0x00000000   Number         0  stubs.o ABSOLUTE
    _printf_n                                0x00000000   Number         0  stubs.o ABSOLUTE
    _printf_o                                0x00000000   Number         0  stubs.o ABSOLUTE
    _printf_p                                0x00000000   Number         0  stubs.o ABSOLUTE
    _printf_percent                          0x00000000   Number         0  stubs.o ABSOLUTE
    _printf_pre_padding                      0x00000000   Number         0  stubs.o ABSOLUTE
    _printf_return_value                     0x00000000   Number         0  stubs.o ABSOLUTE
    _printf_s                                0x00000000   Number         0  stubs.o ABSOLUTE
    _printf_sizespec                         0x00000000   Number         0  stubs.o ABSOLUTE
    _printf_str                              0x00000000   Number         0  stubs.o ABSOLUTE
    _printf_truncate_signed                  0x00000000   Number         0  stubs.o ABSOLUTE
    _printf_truncate_unsigned                0x00000000   Number         0  stubs.o ABSOLUTE
    _printf_u                                0x00000000   Number         0  stubs.o ABSOLUTE
    _printf_wc                               0x00000000   Number         0  stubs.o ABSOLUTE
    _printf_wctomb                           0x00000000   Number         0  stubs.o ABSOLUTE
    _printf_widthprec                        0x00000000   Number         0  stubs.o ABSOLUTE
    _printf_x                                0x00000000   Number         0  stubs.o ABSOLUTE
    __cpp_initialize__aeabi_                  - Undefined Weak Reference
    __cxa_finalize                            - Undefined Weak Reference
    _clock_init                               - Undefined Weak Reference
    _microlib_exit                            - Undefined Weak Reference
    _scanf_longlong                           - Undefined Weak Reference
    _scanf_string                             - Undefined Weak Reference
    __Vectors_Size                           0x00000130   Number         0  startup_stm32f10x_hd.o ABSOLUTE
    __Vectors                                0x08002800   Data           4  startup_stm32f10x_hd.o(RESET)
    __Vectors_End                            0x08002930   Data           0  startup_stm32f10x_hd.o(RESET)
    __main                                   0x08002931   Thumb Code     0  entry.o(.ARM.Collect$$$$00000000)
    _main_stk                                0x08002931   Thumb Code     0  entry2.o(.ARM.Collect$$$$00000001)
    _main_scatterload                        0x08002935   Thumb Code     0  entry5.o(.ARM.Collect$$$$00000004)
    __main_after_scatterload                 0x08002939   Thumb Code     0  entry5.o(.ARM.Collect$$$$00000004)
    _main_clock                              0x08002939   Thumb Code     0  entry7b.o(.ARM.Collect$$$$00000008)
    _main_cpp_init                           0x08002939   Thumb Code     0  entry8b.o(.ARM.Collect$$$$0000000A)
    _main_init                               0x08002939   Thumb Code     0  entry9a.o(.ARM.Collect$$$$0000000B)
    __rt_final_cpp                           0x08002941   Thumb Code     0  entry10a.o(.ARM.Collect$$$$0000000D)
    __rt_final_exit                          0x08002941   Thumb Code     0  entry11a.o(.ARM.Collect$$$$0000000F)
    HardFault_Handler                        0x08002945   Thumb Code     4  main.o(.text)
    SysInit                                  0x08002949   Thumb Code   410  main.o(.text)
    TIMER2_Init                              0x08002ae3   Thumb Code   118  main.o(.text)
    SysWakeUp                                0x08002b59   Thumb Code   170  main.o(.text)
    SysDeInit                                0x08002c03   Thumb Code   148  main.o(.text)
    GPS_TaskControl                          0x08002c97   Thumb Code   108  main.o(.text)
    SysSleep                                 0x08002d03   Thumb Code   256  main.o(.text)
    FirmwareTask                             0x08002e03   Thumb Code   538  main.o(.text)
    GetDataFromLog                           0x0800301d   Thumb Code    62  main.o(.text)
    GSM_GPRS_Task                            0x0800305b   Thumb Code  1360  main.o(.text)
    LoadFirmwareFile                         0x080035ab   Thumb Code    22  main.o(.text)
    AppRun                                   0x080035c1   Thumb Code    46  main.o(.text)
    main                                     0x080035ef   Thumb Code   166  main.o(.text)
    TIM2_IRQHandler                          0x08003695   Thumb Code    58  main.o(.text)
    mCentrelTest                             0x080036cf   Thumb Code   102  main.o(.text)
    CFG_Load                                 0x08003759   Thumb Code   912  system_config.o(.text)
    CFG_CheckSum                             0x08003ae9   Thumb Code    46  system_config.o(.text)
    CFG_Save                                 0x08003b17   Thumb Code   352  system_config.o(.text)
    IO_Init                                  0x08003c81   Thumb Code    64  hw_config.o(.text)
    IO_Control                               0x08003cc1   Thumb Code   388  hw_config.o(.text)
    TrackerInit                              0x08003e51   Thumb Code    10  tracker.o(.text)
    TRACKER_Pause                            0x08003e5b   Thumb Code     8  tracker.o(.text)
    TRACKER_Resume                           0x08003e63   Thumb Code     8  tracker.o(.text)
    TrackerTask                              0x08003e6b   Thumb Code   746  tracker.o(.text)
    TrackerGetNewData                        0x08004155   Thumb Code     8  tracker.o(.text)
    TrackerCrc                               0x0800415d   Thumb Code    26  tracker.o(.text)
    AddTrackerPacket                         0x08004177   Thumb Code  1768  tracker.o(.text)
    PrintTrackerInfo                         0x0800485f   Thumb Code     2  tracker.o(.text)
    haversine_km                             0x08004861   Thumb Code   316  tracker.o(.text)
    LedTaskControl                           0x080049dd   Thumb Code   192  led.o(.text)
    Reset_Handler                            0x08004ab9   Thumb Code     8  startup_stm32f10x_hd.o(.text)
    NMI_Handler                              0x08004ac1   Thumb Code     2  startup_stm32f10x_hd.o(.text)
    MemManage_Handler                        0x08004ac5   Thumb Code     2  startup_stm32f10x_hd.o(.text)
    BusFault_Handler                         0x08004ac7   Thumb Code     2  startup_stm32f10x_hd.o(.text)
    UsageFault_Handler                       0x08004ac9   Thumb Code     2  startup_stm32f10x_hd.o(.text)
    SVC_Handler                              0x08004acb   Thumb Code     2  startup_stm32f10x_hd.o(.text)
    DebugMon_Handler                         0x08004acd   Thumb Code     2  startup_stm32f10x_hd.o(.text)
    PendSV_Handler                           0x08004acf   Thumb Code     2  startup_stm32f10x_hd.o(.text)
    ADC3_IRQHandler                          0x08004ad3   Thumb Code     0  startup_stm32f10x_hd.o(.text)
    CAN1_RX1_IRQHandler                      0x08004ad3   Thumb Code     0  startup_stm32f10x_hd.o(.text)
    CAN1_SCE_IRQHandler                      0x08004ad3   Thumb Code     0  startup_stm32f10x_hd.o(.text)
    DMA1_Channel1_IRQHandler                 0x08004ad3   Thumb Code     0  startup_stm32f10x_hd.o(.text)
    DMA1_Channel2_IRQHandler                 0x08004ad3   Thumb Code     0  startup_stm32f10x_hd.o(.text)
    DMA1_Channel3_IRQHandler                 0x08004ad3   Thumb Code     0  startup_stm32f10x_hd.o(.text)
    DMA1_Channel4_IRQHandler                 0x08004ad3   Thumb Code     0  startup_stm32f10x_hd.o(.text)
    DMA1_Channel5_IRQHandler                 0x08004ad3   Thumb Code     0  startup_stm32f10x_hd.o(.text)
    DMA1_Channel6_IRQHandler                 0x08004ad3   Thumb Code     0  startup_stm32f10x_hd.o(.text)
    DMA1_Channel7_IRQHandler                 0x08004ad3   Thumb Code     0  startup_stm32f10x_hd.o(.text)
    DMA2_Channel1_IRQHandler                 0x08004ad3   Thumb Code     0  startup_stm32f10x_hd.o(.text)
    DMA2_Channel2_IRQHandler                 0x08004ad3   Thumb Code     0  startup_stm32f10x_hd.o(.text)
    DMA2_Channel3_IRQHandler                 0x08004ad3   Thumb Code     0  startup_stm32f10x_hd.o(.text)
    DMA2_Channel4_5_IRQHandler               0x08004ad3   Thumb Code     0  startup_stm32f10x_hd.o(.text)
    EXTI15_10_IRQHandler                     0x08004ad3   Thumb Code     0  startup_stm32f10x_hd.o(.text)
    EXTI3_IRQHandler                         0x08004ad3   Thumb Code     0  startup_stm32f10x_hd.o(.text)
    FLASH_IRQHandler                         0x08004ad3   Thumb Code     0  startup_stm32f10x_hd.o(.text)
    FSMC_IRQHandler                          0x08004ad3   Thumb Code     0  startup_stm32f10x_hd.o(.text)
    I2C1_ER_IRQHandler                       0x08004ad3   Thumb Code     0  startup_stm32f10x_hd.o(.text)
    I2C1_EV_IRQHandler                       0x08004ad3   Thumb Code     0  startup_stm32f10x_hd.o(.text)
    I2C2_ER_IRQHandler                       0x08004ad3   Thumb Code     0  startup_stm32f10x_hd.o(.text)
    I2C2_EV_IRQHandler                       0x08004ad3   Thumb Code     0  startup_stm32f10x_hd.o(.text)
    PVD_IRQHandler                           0x08004ad3   Thumb Code     0  startup_stm32f10x_hd.o(.text)
    RCC_IRQHandler                           0x08004ad3   Thumb Code     0  startup_stm32f10x_hd.o(.text)
    SDIO_IRQHandler                          0x08004ad3   Thumb Code     0  startup_stm32f10x_hd.o(.text)
    SPI1_IRQHandler                          0x08004ad3   Thumb Code     0  startup_stm32f10x_hd.o(.text)
    SPI2_IRQHandler                          0x08004ad3   Thumb Code     0  startup_stm32f10x_hd.o(.text)
    SPI3_IRQHandler                          0x08004ad3   Thumb Code     0  startup_stm32f10x_hd.o(.text)
    TAMPER_IRQHandler                        0x08004ad3   Thumb Code     0  startup_stm32f10x_hd.o(.text)
    TIM1_BRK_IRQHandler                      0x08004ad3   Thumb Code     0  startup_stm32f10x_hd.o(.text)
    TIM1_CC_IRQHandler                       0x08004ad3   Thumb Code     0  startup_stm32f10x_hd.o(.text)
    TIM1_TRG_COM_IRQHandler                  0x08004ad3   Thumb Code     0  startup_stm32f10x_hd.o(.text)
    TIM1_UP_IRQHandler                       0x08004ad3   Thumb Code     0  startup_stm32f10x_hd.o(.text)
    TIM3_IRQHandler                          0x08004ad3   Thumb Code     0  startup_stm32f10x_hd.o(.text)
    TIM4_IRQHandler                          0x08004ad3   Thumb Code     0  startup_stm32f10x_hd.o(.text)
    TIM5_IRQHandler                          0x08004ad3   Thumb Code     0  startup_stm32f10x_hd.o(.text)
    TIM6_IRQHandler                          0x08004ad3   Thumb Code     0  startup_stm32f10x_hd.o(.text)
    TIM7_IRQHandler                          0x08004ad3   Thumb Code     0  startup_stm32f10x_hd.o(.text)
    TIM8_BRK_IRQHandler                      0x08004ad3   Thumb Code     0  startup_stm32f10x_hd.o(.text)
    TIM8_CC_IRQHandler                       0x08004ad3   Thumb Code     0  startup_stm32f10x_hd.o(.text)
    TIM8_TRG_COM_IRQHandler                  0x08004ad3   Thumb Code     0  startup_stm32f10x_hd.o(.text)
    TIM8_UP_IRQHandler                       0x08004ad3   Thumb Code     0  startup_stm32f10x_hd.o(.text)
    UART4_IRQHandler                         0x08004ad3   Thumb Code     0  startup_stm32f10x_hd.o(.text)
    UART5_IRQHandler                         0x08004ad3   Thumb Code     0  startup_stm32f10x_hd.o(.text)
    USB_HP_CAN1_TX_IRQHandler                0x08004ad3   Thumb Code     0  startup_stm32f10x_hd.o(.text)
    USB_LP_CAN1_RX0_IRQHandler               0x08004ad3   Thumb Code     0  startup_stm32f10x_hd.o(.text)
    WWDG_IRQHandler                          0x08004ad3   Thumb Code     0  startup_stm32f10x_hd.o(.text)
    SystemInit                               0x08004bb5   Thumb Code    76  system_stm32f10x.o(.text)
    SystemCoreClockUpdate                    0x08004c01   Thumb Code   142  system_stm32f10x.o(.text)
    FLASH_SetLatency                         0x08004cb9   Thumb Code    18  stm32f10x_flash.o(.text)
    FLASH_HalfCycleAccessCmd                 0x08004ccb   Thumb Code    22  stm32f10x_flash.o(.text)
    FLASH_PrefetchBufferCmd                  0x08004ce1   Thumb Code    22  stm32f10x_flash.o(.text)
    FLASH_Unlock                             0x08004cf7   Thumb Code    12  stm32f10x_flash.o(.text)
    FLASH_UnlockBank1                        0x08004d03   Thumb Code    12  stm32f10x_flash.o(.text)
    FLASH_Lock                               0x08004d0f   Thumb Code    14  stm32f10x_flash.o(.text)
    FLASH_LockBank1                          0x08004d1d   Thumb Code    14  stm32f10x_flash.o(.text)
    FLASH_GetBank1Status                     0x08004d2b   Thumb Code    48  stm32f10x_flash.o(.text)
    FLASH_WaitForLastOperation               0x08004d5b   Thumb Code    38  stm32f10x_flash.o(.text)
    FLASH_ErasePage                          0x08004d81   Thumb Code    72  stm32f10x_flash.o(.text)
    FLASH_EraseAllPages                      0x08004dc9   Thumb Code    68  stm32f10x_flash.o(.text)
    FLASH_WaitForLastBank1Operation          0x08004e0d   Thumb Code    38  stm32f10x_flash.o(.text)
    FLASH_EraseAllBank1Pages                 0x08004e33   Thumb Code    68  stm32f10x_flash.o(.text)
    FLASH_GetReadOutProtectionStatus         0x08004e77   Thumb Code    20  stm32f10x_flash.o(.text)
    FLASH_EraseOptionBytes                   0x08004e8b   Thumb Code   150  stm32f10x_flash.o(.text)
    FLASH_ProgramWord                        0x08004f21   Thumb Code   102  stm32f10x_flash.o(.text)
    FLASH_ProgramHalfWord                    0x08004f87   Thumb Code    60  stm32f10x_flash.o(.text)
    FLASH_ProgramOptionByteData              0x08004fc3   Thumb Code    72  stm32f10x_flash.o(.text)
    FLASH_EnableWriteProtection              0x0800500b   Thumb Code   200  stm32f10x_flash.o(.text)
    FLASH_ReadOutProtection                  0x080050d3   Thumb Code   156  stm32f10x_flash.o(.text)
    FLASH_UserOptionByteConfig               0x0800516f   Thumb Code    88  stm32f10x_flash.o(.text)
    FLASH_GetUserOptionByte                  0x080051c7   Thumb Code     8  stm32f10x_flash.o(.text)
    FLASH_GetWriteProtectionOptionByte       0x080051cf   Thumb Code     6  stm32f10x_flash.o(.text)
    FLASH_GetPrefetchBufferStatus            0x080051d5   Thumb Code    20  stm32f10x_flash.o(.text)
    FLASH_ITConfig                           0x080051e9   Thumb Code    26  stm32f10x_flash.o(.text)
    FLASH_GetFlagStatus                      0x08005203   Thumb Code    42  stm32f10x_flash.o(.text)
    FLASH_ClearFlag                          0x0800522d   Thumb Code     6  stm32f10x_flash.o(.text)
    FLASH_GetStatus                          0x08005233   Thumb Code    48  stm32f10x_flash.o(.text)
    IWDG_WriteAccessCmd                      0x08005275   Thumb Code     6  stm32f10x_iwdg.o(.text)
    IWDG_SetPrescaler                        0x0800527b   Thumb Code     6  stm32f10x_iwdg.o(.text)
    IWDG_SetReload                           0x08005281   Thumb Code     6  stm32f10x_iwdg.o(.text)
    IWDG_ReloadCounter                       0x08005287   Thumb Code    10  stm32f10x_iwdg.o(.text)
    IWDG_Enable                              0x08005291   Thumb Code    10  stm32f10x_iwdg.o(.text)
    IWDG_GetFlagStatus                       0x0800529b   Thumb Code    20  stm32f10x_iwdg.o(.text)
    TICK_Init                                0x080052b5   Thumb Code    74  tick.o(.text)
    TICK_DeInit                              0x080052ff   Thumb Code    10  tick.o(.text)
    SysTick_Handler                          0x08005309   Thumb Code    58  tick.o(.text)
    TICK_Get                                 0x08005343   Thumb Code     6  tick.o(.text)
    TICK_Get64                               0x08005349   Thumb Code     8  tick.o(.text)
    DelayMs                                  0x08005351   Thumb Code    24  tick.o(.text)
    InitTimeout                              0x08005369   Thumb Code    22  tick.o(.text)
    CheckTimeout                             0x0800537f   Thumb Code   100  tick.o(.text)
    TimerDelayms                             0x080053e3   Thumb Code    48  tick.o(.text)
    USART1_Init                              0x08005431   Thumb Code   308  uart1.o(.text)
    USART1_DeInit                            0x08005565   Thumb Code    26  uart1.o(.text)
    USART1_PutChar                           0x0800557f   Thumb Code    26  uart1.o(.text)
    USART1_PutString                         0x08005599   Thumb Code    22  uart1.o(.text)
    USART1_GetChar                           0x080055af   Thumb Code    24  uart1.o(.text)
    USART1_IRQHandler                        0x080055c7   Thumb Code   120  uart1.o(.text)
    USART2_Init                              0x08005669   Thumb Code   290  uart2.o(.text)
    USART2_DeInit                            0x0800578b   Thumb Code    26  uart2.o(.text)
    USART2_PutChar                           0x080057a5   Thumb Code    22  uart2.o(.text)
    USART2_GetChar                           0x080057bb   Thumb Code    24  uart2.o(.text)
    USART2_IRQHandler                        0x080057d3   Thumb Code    48  uart2.o(.text)
    USART3_Init                              0x08005821   Thumb Code   276  uart3.o(.text)
    USART3_DeInit                            0x08005935   Thumb Code    26  uart3.o(.text)
    USART3_PutChar                           0x0800594f   Thumb Code    22  uart3.o(.text)
    USART3_PutString                         0x08005965   Thumb Code    22  uart3.o(.text)
    USART3_GetChar                           0x0800597b   Thumb Code    24  uart3.o(.text)
    USART3_IRQHandler                        0x08005993   Thumb Code    42  uart3.o(.text)
    SPI_InitLowFreq                          0x080059dd   Thumb Code   210  spi.o(.text)
    SPI_InitHighFreq                         0x08005aaf   Thumb Code   210  spi.o(.text)
    SPI_DeInit                               0x08005b81   Thumb Code    38  spi.o(.text)
    halSpiWriteByte                          0x08005ba7   Thumb Code    32  spi.o(.text)
    halSpiWriteMutilByte                     0x08005bc7   Thumb Code    92  spi.o(.text)
    halSpiReadMutilByte                      0x08005c23   Thumb Code    92  spi.o(.text)
    UpdateRtcTime                            0x08005cb9   Thumb Code    34  rtc.o(.text)
    RTC_IRQHandler                           0x08005cdb   Thumb Code    34  rtc.o(.text)
    RTC_GetCounter                           0x08005cfd   Thumb Code    18  rtc.o(.text)
    RTC_ExitConfigMode                       0x08005d0f   Thumb Code    16  rtc.o(.text)
    RTC_EnterConfigMode                      0x08005d1f   Thumb Code    14  rtc.o(.text)
    RTC_SetAlarm                             0x08005d2d   Thumb Code    26  rtc.o(.text)
    RTC_SetCounter                           0x08005d47   Thumb Code    96  rtc.o(.text)
    RTCAlarm_IRQHandler                      0x08005da7   Thumb Code   130  rtc.o(.text)
    RTC_SetCounterX                          0x08005e29   Thumb Code    26  rtc.o(.text)
    RTC_Reset                                0x08005e43   Thumb Code   210  rtc.o(.text)
    RTC_SanityCheck                          0x08005f15   Thumb Code    52  rtc.o(.text)
    RTC_Init                                 0x08005f49   Thumb Code   422  rtc.o(.text)
    ADC1_2_IRQHandler                        0x0800610d   Thumb Code    76  adc.o(.text)
    StartADC                                 0x08006159   Thumb Code    18  adc.o(.text)
    ADC_Init                                 0x0800616b   Thumb Code   242  adc.o(.text)
    EXTI0_IRQHandler                         0x08006281   Thumb Code    20  exti.o(.text)
    EXTI1_IRQHandler                         0x08006295   Thumb Code    20  exti.o(.text)
    EXTI2_IRQHandler                         0x080062a9   Thumb Code    30  exti.o(.text)
    EXTI6_IRQHandler                         0x080062c7   Thumb Code    30  exti.o(.text)
    EXTI9_5_IRQHandler                       0x080062e5   Thumb Code    62  exti.o(.text)
    USBWakeUp_IRQHandler                     0x08006323   Thumb Code    22  exti.o(.text)
    EXTI_Init                                0x08006339   Thumb Code   370  exti.o(.text)
    InitCapture                              0x080064c1   Thumb Code     2  freq_capture.o(.text)
    EXTI4_IRQHandler                         0x080064c3   Thumb Code    80  freq_capture.o(.text)
    list_init                                0x0800652d   Thumb Code     6  list.o(.text)
    list_head                                0x08006533   Thumb Code     6  list.o(.text)
    list_copy                                0x08006539   Thumb Code     6  list.o(.text)
    list_tail                                0x0800653f   Thumb Code    26  list.o(.text)
    list_remove                              0x08006559   Thumb Code    52  list.o(.text)
    list_add                                 0x0800658d   Thumb Code    36  list.o(.text)
    list_push                                0x080065b1   Thumb Code    22  list.o(.text)
    list_chop                                0x080065c7   Thumb Code    48  list.o(.text)
    list_pop                                 0x080065f7   Thumb Code    16  list.o(.text)
    list_length                              0x08006607   Thumb Code    18  list.o(.text)
    list_insert                              0x08006619   Thumb Code    28  list.o(.text)
    list_item_next                           0x08006635   Thumb Code    12  list.o(.text)
    RINGBUF_Init                             0x08006641   Thumb Code    30  ringbuf.o(.text)
    RINGBUF_Put                              0x0800665f   Thumb Code    42  ringbuf.o(.text)
    RINGBUF_Get                              0x08006689   Thumb Code    46  ringbuf.o(.text)
    RINGBUF_GetFill                          0x080066b7   Thumb Code    30  ringbuf.o(.text)
    StrParserInit                            0x080066d5   Thumb Code    42  sparser.o(.text)
    StrParserCtl                             0x080066ff   Thumb Code    74  sparser.o(.text)
    StrComnandParser                         0x08006749   Thumb Code   230  sparser.o(.text)
    InitFindData                             0x08006835   Thumb Code    24  data_cmp.o(.text)
    FindData                                 0x0800684d   Thumb Code    60  data_cmp.o(.text)
    TIME_FromGsm                             0x08006889   Thumb Code   184  sys_time.o(.text)
    TIME_FromGps                             0x08006941   Thumb Code   108  sys_time.o(.text)
    TIME_GetSec                              0x080069ad   Thumb Code   128  sys_time.o(.text)
    TIME_FromSec                             0x08006a2d   Thumb Code    78  sys_time.o(.text)
    TIME_AddSec                              0x08006a7b   Thumb Code    40  sys_time.o(.text)
    gmtime_r                                 0x08006aa5   Thumb Code   366  m_time.o(.text)
    localtime_r                              0x08006c13   Thumb Code    26  m_time.o(.text)
    mktime                                   0x08006c2d   Thumb Code  1200  m_time.o(.text)
    AT_CmdCallParserInit                     0x080070f1   Thumb Code    12  at_cmd_call_parser.o(.text)
    VoiceCallTask_Init                       0x080070fd   Thumb Code    24  at_cmd_call_parser.o(.text)
    VoiceCallTask_StartCall                  0x08007115   Thumb Code    66  at_cmd_call_parser.o(.text)
    VoiceCallTask_AnswerCall                 0x08007157   Thumb Code    28  at_cmd_call_parser.o(.text)
    VoiceCallTask_EndCall                    0x08007173   Thumb Code    88  at_cmd_call_parser.o(.text)
    VoiceCallTask_GetCallerPhoneNo           0x080071cb   Thumb Code     4  at_cmd_call_parser.o(.text)
    VoiceCallTask_IsModemBusy                0x080071cf   Thumb Code    40  at_cmd_call_parser.o(.text)
    VoiceCallTask_GetPhase                   0x080071f7   Thumb Code     6  at_cmd_call_parser.o(.text)
    VoiceCallTask_ClearEndCallStatus         0x080071fd   Thumb Code    40  at_cmd_call_parser.o(.text)
    VoiceCallTask_ClearCallAction            0x08007225   Thumb Code     8  at_cmd_call_parser.o(.text)
    VoiceCall_Task                           0x0800722d   Thumb Code  1612  at_cmd_call_parser.o(.text)
    RING_Process                             0x08007879   Thumb Code    94  at_cmd_call_parser.o(.text)
    CallOutProcess                           0x080078d7   Thumb Code   200  at_cmd_call_parser.o(.text)
    CallCancel                               0x0800799f   Thumb Code    12  at_cmd_call_parser.o(.text)
    CallErrorReport                          0x080079ab   Thumb Code   140  at_cmd_call_parser.o(.text)
    CallNoAnswer                             0x08007a37   Thumb Code    12  at_cmd_call_parser.o(.text)
    CallBusy                                 0x08007a43   Thumb Code    12  at_cmd_call_parser.o(.text)
    GetCallerNumber                          0x08007a4f   Thumb Code    48  at_cmd_call_parser.o(.text)
    RingCallProcess                          0x08007a7f   Thumb Code    18  at_cmd_call_parser.o(.text)
    GetBatteryStatus                         0x08007a9d   Thumb Code   100  at_cmd_common_parser.o(.text)
    GSM_GetIMEI                              0x08007b01   Thumb Code    42  at_cmd_common_parser.o(.text)
    GSM_GetSimCID                            0x08007b2b   Thumb Code    38  at_cmd_common_parser.o(.text)
    GsmGetTime                               0x08007b51   Thumb Code   496  at_cmd_common_parser.o(.text)
    SmsTask_Init                             0x08007d69   Thumb Code    18  at_cmd_sms_parser.o(.text)
    SmsAddMsg                                0x08007d7b   Thumb Code    16  at_cmd_sms_parser.o(.text)
    SmsCheckList_IsEmpty                     0x08007d8b   Thumb Code    16  at_cmd_sms_parser.o(.text)
    SmsTask_SendSms                          0x08007d9b   Thumb Code    14  at_cmd_sms_parser.o(.text)
    SmsTask_IsIdle                           0x08007da9   Thumb Code    22  at_cmd_sms_parser.o(.text)
    SmsTask_IsModemBusy                      0x08007dbf   Thumb Code    32  at_cmd_sms_parser.o(.text)
    SmsTask_GetPhase                         0x08007ddf   Thumb Code     6  at_cmd_sms_parser.o(.text)
    SmsTask_Stop                             0x08007de5   Thumb Code    22  at_cmd_sms_parser.o(.text)
    SmsTask_Pause                            0x08007dfb   Thumb Code     8  at_cmd_sms_parser.o(.text)
    Sms_SendMsg                              0x08007e03   Thumb Code    42  at_cmd_sms_parser.o(.text)
    Sms_Task                                 0x08007e2d   Thumb Code   690  at_cmd_sms_parser.o(.text)
    AT_CmdSmsParserInit                      0x080080df   Thumb Code    14  at_cmd_sms_parser.o(.text)
    SMS_NewMessage                           0x080080ed   Thumb Code    12  at_cmd_sms_parser.o(.text)
    SMS_ReadMsg                              0x080080f9   Thumb Code   444  at_cmd_sms_parser.o(.text)
    SMS_Process                              0x080082b5   Thumb Code   134  at_cmd_sms_parser.o(.text)
    CMD_CfgParse                             0x0800833b   Thumb Code    80  at_cmd_sms_parser.o(.text)
    SMS_Manage                               0x0800838b   Thumb Code   196  at_cmd_sms_parser.o(.text)
    AT_CmdProcessInit                        0x080084cd   Thumb Code    26  at_command_parser.o(.text)
    AT_ComnandParser                         0x080084e7   Thumb Code    34  at_command_parser.o(.text)
    GsmTask_InitApn                          0x08008519   Thumb Code    14  at_gsm_task.o(.text)
    GsmTask_Init                             0x08008527   Thumb Code    24  at_gsm_task.o(.text)
    GsmTask_SetPhase                         0x0800853f   Thumb Code     6  at_gsm_task.o(.text)
    GsmTask_GetPhase                         0x08008545   Thumb Code     6  at_gsm_task.o(.text)
    Gsm_Task                                 0x0800854b   Thumb Code  1444  at_gsm_task.o(.text)
    ModemCmdAdd                              0x08008b29   Thumb Code    16  at_send_cmd_task.o(.text)
    ModemCmdCheckList_IsEmpty                0x08008b39   Thumb Code    16  at_send_cmd_task.o(.text)
    ModemCmdTask_SetCriticalCmd              0x08008b49   Thumb Code    14  at_send_cmd_task.o(.text)
    ModemCmdTask_IsIdle                      0x08008b57   Thumb Code    24  at_send_cmd_task.o(.text)
    ModemCmdTask_SendCmd                     0x08008b6f   Thumb Code   188  at_send_cmd_task.o(.text)
    ModemCmdTask_GetPhase                    0x08008c2b   Thumb Code     6  at_send_cmd_task.o(.text)
    ModemCmdTask_Reset                       0x08008c31   Thumb Code     8  at_send_cmd_task.o(.text)
    ModemCmdTask_SetWait                     0x08008c39   Thumb Code    60  at_send_cmd_task.o(.text)
    ModemCmd_Task                            0x08008c75   Thumb Code   530  at_send_cmd_task.o(.text)
    ModemCmdTask_Cancel                      0x08008e87   Thumb Code    56  at_send_cmd_task.o(.text)
    MODEM_PowerOn                            0x08008efd   Thumb Code   122  gsm_hwr.o(.text)
    MODEM_Sleep                              0x08008f77   Thumb Code     8  gsm_hwr.o(.text)
    MODEM_Wakeup                             0x08008f7f   Thumb Code     8  gsm_hwr.o(.text)
    MODEM_UartInit                           0x08008f87   Thumb Code    16  gsm_hwr.o(.text)
    MODEM_CheckResponse                      0x08008fa1   Thumb Code    62  modem.o(.text)
    MODEM_FlushBuffer                        0x08008fdf   Thumb Code    18  modem.o(.text)
    MODEM_SendCommand                        0x08008ff1   Thumb Code   156  modem.o(.text)
    VoiceSetup                               0x0800908d   Thumb Code   148  modem.o(.text)
    CellInfoParser                           0x0800918d   Thumb Code   608  at_cmd_g100_parser.o(.text)
    CellLocateParser                         0x080093ed   Thumb Code    34  at_cmd_g100_parser.o(.text)
    ParserCellLocate                         0x0800940f   Thumb Code   226  at_cmd_g100_parser.o(.text)
    UbloxTask_Init                           0x080094f1   Thumb Code    12  at_cmd_g100_parser.o(.text)
    UbloxTask_GetPhase                       0x080094fd   Thumb Code     6  at_cmd_g100_parser.o(.text)
    UbloxTask_SetPhase                       0x08009503   Thumb Code     6  at_cmd_g100_parser.o(.text)
    Ublox_Task                               0x08009509   Thumb Code   408  at_cmd_g100_parser.o(.text)
    GprsTask_Init                            0x080096c9   Thumb Code    48  at_u_blox_gprs_task.o(.text)
    GprsTask_GprsDisable                     0x080096f9   Thumb Code    32  at_u_blox_gprs_task.o(.text)
    GprsTask_CreateTcpIpConnection           0x08009719   Thumb Code    16  at_u_blox_gprs_task.o(.text)
    Domain_IpCheck                           0x08009729   Thumb Code    40  at_u_blox_gprs_task.o(.text)
    GprsTask_ConnInit                        0x08009751   Thumb Code    84  at_u_blox_gprs_task.o(.text)
    GprsTask_SendData                        0x080097a5   Thumb Code    62  at_u_blox_gprs_task.o(.text)
    RemaskSocket                             0x080097e3   Thumb Code    38  at_u_blox_gprs_task.o(.text)
    GPRS_TcpGetLength                        0x08009809   Thumb Code   202  at_u_blox_gprs_task.o(.text)
    GPRS_Deactivation                        0x080098d3   Thumb Code    10  at_u_blox_gprs_task.o(.text)
    GPRS_TcpGetData                          0x080098dd   Thumb Code   386  at_u_blox_gprs_task.o(.text)
    GPRS_TCPCreateSocket                     0x08009a5f   Thumb Code    28  at_u_blox_gprs_task.o(.text)
    GPRS_GetIpFromDNS                        0x08009a7b   Thumb Code   148  at_u_blox_gprs_task.o(.text)
    GPRS_TCPCloseSocket1                     0x08009b0f   Thumb Code    32  at_u_blox_gprs_task.o(.text)
    GPRS_TCPCloseSocket                      0x08009b2f   Thumb Code    68  at_u_blox_gprs_task.o(.text)
    GPRS_CheckSocketFree                     0x08009b73   Thumb Code    60  at_u_blox_gprs_task.o(.text)
    GPRS_TcpSocketControl                    0x08009baf   Thumb Code   144  at_u_blox_gprs_task.o(.text)
    GPRS_CmdFails                            0x08009c3f   Thumb Code    10  at_u_blox_gprs_task.o(.text)
    GPRS_GSM_ReInit                          0x08009c49   Thumb Code    18  at_u_blox_gprs_task.o(.text)
    GprsTask_GetPhase                        0x08009c5b   Thumb Code     6  at_u_blox_gprs_task.o(.text)
    GprsTask_Stop                            0x08009c61   Thumb Code    30  at_u_blox_gprs_task.o(.text)
    Gprs_Task                                0x08009c7f   Thumb Code  2806  at_u_blox_gprs_task.o(.text)
    FTP_UrcControl                           0x0800a7c1   Thumb Code    24  at_u_blox_ftp_task.o(.text)
    FtpTask_Init                             0x0800a7d9   Thumb Code    12  at_u_blox_ftp_task.o(.text)
    FtpTask_CreateConnection                 0x0800a7e5   Thumb Code    16  at_u_blox_ftp_task.o(.text)
    FtpTask_ConnInit                         0x0800a7f5   Thumb Code    60  at_u_blox_ftp_task.o(.text)
    FTP_CmdFails                             0x0800a831   Thumb Code    10  at_u_blox_ftp_task.o(.text)
    FTP_GSM_ReInit                           0x0800a83b   Thumb Code    18  at_u_blox_ftp_task.o(.text)
    FtpTask_GetPhase                         0x0800a84d   Thumb Code     6  at_u_blox_ftp_task.o(.text)
    Ftp_Task                                 0x0800a853   Thumb Code  1382  at_u_blox_ftp_task.o(.text)
    GPS_PulseProcess                         0x0800add5   Thumb Code    38  gps.o(.text)
    GPS_SetPulse                             0x0800adfb   Thumb Code     8  gps.o(.text)
    GPRMC_Process                            0x0800ae03   Thumb Code   176  gps.o(.text)
    GPGGA_Process                            0x0800aeb3   Thumb Code   176  gps.o(.text)
    GPGSA_Process                            0x0800af63   Thumb Code   176  gps.o(.text)
    GPGSV_Process                            0x0800b013   Thumb Code   176  gps.o(.text)
    GPS_ComnandParser                        0x0800b0c3   Thumb Code   368  gps.o(.text)
    neamFormatLatLng                         0x0800b233   Thumb Code    84  gps.o(.text)
    formatLatLng                             0x0800b287   Thumb Code    84  gps.o(.text)
    GpsGetInfo                               0x0800b2db   Thumb Code    64  gps.o(.text)
    nmea_zero_INFO                           0x0800b31b   Thumb Code    24  gps.o(.text)
    GPSInit                                  0x0800b333   Thumb Code    10  gps.o(.text)
    nmea_GPGSV2info                          0x0800b33d   Thumb Code   200  gps.o(.text)
    nmea_atoi                                0x0800b405   Thumb Code    50  gps.o(.text)
    nmea_atof                                0x0800b437   Thumb Code    54  gps.o(.text)
    nmea_scanf                               0x0800b46d   Thumb Code   558  gps.o(.text)
    nmea_parse_GPGSV                         0x0800b69b   Thumb Code   160  gps.o(.text)
    nmea_GPGSA2info                          0x0800b73b   Thumb Code   122  gps.o(.text)
    nmea_parse_GPGSA                         0x0800b7b5   Thumb Code   114  gps.o(.text)
    nmea_GPGGA2info                          0x0800b827   Thumb Code   160  gps.o(.text)
    _nmea_parse_time                         0x0800b8c7   Thumb Code   126  gps.o(.text)
    nmea_parse_GPGGA                         0x0800b945   Thumb Code   128  gps.o(.text)
    nmea_GPRMC2info                          0x0800b9c5   Thumb Code   204  gps.o(.text)
    nmea_parse_GPRMC                         0x0800ba91   Thumb Code   392  gps.o(.text)
    GPS_GetInfo                              0x0800bc19   Thumb Code   172  gps.o(.text)
    nmea_calc_crc                            0x0800bcc5   Thumb Code    24  gps.o(.text)
    DbCalcCheckSum                           0x0800bd15   Thumb Code    26  db.o(.text)
    DB_ParaCheckErr                          0x0800bd2f   Thumb Code    28  db.o(.text)
    DB_LoadEndLog                            0x0800bd4b   Thumb Code    84  db.o(.text)
    DB_InitLog                               0x0800bd9f   Thumb Code   160  db.o(.text)
    DB_U32Save                               0x0800be3f   Thumb Code   142  db.o(.text)
    DB_RingLogSave                           0x0800becd   Thumb Code   198  db.o(.text)
    DB_RingLogReset                          0x0800bf93   Thumb Code    26  db.o(.text)
    DB_RingLogNext                           0x0800bfad   Thumb Code    48  db.o(.text)
    DB_LogFill                               0x0800bfdd   Thumb Code    42  db.o(.text)
    DB_LoadLog                               0x0800c007   Thumb Code    74  db.o(.text)
    DB_LoadNextLog                           0x0800c051   Thumb Code   100  db.o(.text)
    DB_SaveLog                               0x0800c0b5   Thumb Code   282  db.o(.text)
    SST25_Init                               0x0800c1d5   Thumb Code    12  sst25.o(.text)
    SST25_DeInit                             0x0800c1e1   Thumb Code    10  sst25.o(.text)
    SST25_Erase                              0x0800c26f   Thumb Code   138  sst25.o(.text)
    _SST25_Write                             0x0800c2f9   Thumb Code   146  sst25.o(.text)
    SST25_Write                              0x0800c38b   Thumb Code    82  sst25.o(.text)
    SST25_Read                               0x0800c3dd   Thumb Code   126  sst25.o(.text)
    __rt_ctype_table                         0x0800c4dd   Thumb Code     4  ctype_o.o(.text)
    isspace                                  0x0800c4e5   Thumb Code    18  isspace_o.o(.text)
    __aeabi_memcpy                           0x0800c4f7   Thumb Code    36  memcpya.o(.text)
    __aeabi_memcpy4                          0x0800c4f7   Thumb Code     0  memcpya.o(.text)
    __aeabi_memcpy8                          0x0800c4f7   Thumb Code     0  memcpya.o(.text)
    __aeabi_memset                           0x0800c51b   Thumb Code    14  memseta.o(.text)
    __aeabi_memset4                          0x0800c51b   Thumb Code     0  memseta.o(.text)
    __aeabi_memset8                          0x0800c51b   Thumb Code     0  memseta.o(.text)
    __aeabi_memclr                           0x0800c529   Thumb Code     4  memseta.o(.text)
    __aeabi_memclr4                          0x0800c529   Thumb Code     0  memseta.o(.text)
    __aeabi_memclr8                          0x0800c529   Thumb Code     0  memseta.o(.text)
    _memset$wrapper                          0x0800c52d   Thumb Code    18  memseta.o(.text)
    strcat                                   0x0800c53f   Thumb Code    24  strcat.o(.text)
    strstr                                   0x0800c557   Thumb Code    36  strstr.o(.text)
    strlen                                   0x0800c57b   Thumb Code    14  strlen.o(.text)
    memchr                                   0x0800c589   Thumb Code    20  memchr.o(.text)
    memcmp                                   0x0800c59d   Thumb Code    26  memcmp.o(.text)
    strcpy                                   0x0800c5b7   Thumb Code    18  strcpy.o(.text)
    __0sscanf                                0x0800c5c9   Thumb Code    48  __0sscanf.o(.text)
    _scanf_int                               0x0800c601   Thumb Code   336  _scanf_int.o(.text)
    _scanf_real                              0x0800c851   Thumb Code     0  scanf_fp.o(.text)
    _scanf_really_real                       0x0800c851   Thumb Code   560  scanf_fp.o(.text)
    strtol                                   0x0800ca8d   Thumb Code   112  strtol.o(.text)
    __aeabi_fadd                             0x0800cafd   Thumb Code   164  fadd.o(.text)
    __aeabi_fsub                             0x0800cba1   Thumb Code     6  fadd.o(.text)
    __aeabi_frsub                            0x0800cba7   Thumb Code     6  fadd.o(.text)
    __aeabi_fdiv                             0x0800cbad   Thumb Code   128  fdiv.o(.text)
    __aeabi_dadd                             0x0800cc2d   Thumb Code   322  dadd.o(.text)
    __aeabi_dsub                             0x0800cd6f   Thumb Code     6  dadd.o(.text)
    __aeabi_drsub                            0x0800cd75   Thumb Code     6  dadd.o(.text)
    __aeabi_dmul                             0x0800cd7b   Thumb Code   228  dmul.o(.text)
    __aeabi_ddiv                             0x0800ce5f   Thumb Code   222  ddiv.o(.text)
    __aeabi_ui2f                             0x0800cf3d   Thumb Code    10  ffltui.o(.text)
    __aeabi_ui2d                             0x0800cf47   Thumb Code    26  dfltui.o(.text)
    __aeabi_f2uiz                            0x0800cf61   Thumb Code    40  ffixui.o(.text)
    __aeabi_d2uiz                            0x0800cf89   Thumb Code    50  dfixui.o(.text)
    __aeabi_f2d                              0x0800cfbb   Thumb Code    38  f2d.o(.text)
    __aeabi_cdcmpeq                          0x0800cfe1   Thumb Code     0  cdcmple.o(.text)
    __aeabi_cdcmple                          0x0800cfe1   Thumb Code    38  cdcmple.o(.text)
    __aeabi_cdrcmple                         0x0800d009   Thumb Code    38  cdrcmple.o(.text)
    __aeabi_d2f                              0x0800d031   Thumb Code    56  d2f.o(.text)
    __aeabi_cfcmpeq                          0x0800d069   Thumb Code     0  cfcmple.o(.text)
    __aeabi_cfcmple                          0x0800d069   Thumb Code    20  cfcmple.o(.text)
    __aeabi_cfrcmple                         0x0800d07d   Thumb Code    20  cfrcmple.o(.text)
    __aeabi_uidiv                            0x0800d091   Thumb Code     0  uidiv.o(.text)
    __aeabi_uidivmod                         0x0800d091   Thumb Code    44  uidiv.o(.text)
    __aeabi_uldivmod                         0x0800d0bd   Thumb Code    98  uldiv.o(.text)
    __aeabi_llsl                             0x0800d11f   Thumb Code    30  llshl.o(.text)
    _ll_shift_l                              0x0800d11f   Thumb Code     0  llshl.o(.text)
    __aeabi_llsr                             0x0800d13d   Thumb Code    32  llushr.o(.text)
    _ll_ushift_r                             0x0800d13d   Thumb Code     0  llushr.o(.text)
    __aeabi_lasr                             0x0800d15d   Thumb Code    36  llsshr.o(.text)
    _ll_sshift_r                             0x0800d15d   Thumb Code     0  llsshr.o(.text)
    _chval                                   0x0800d181   Thumb Code    28  _chval.o(.text)
    __vfscanf_char                           0x0800d1a9   Thumb Code    20  scanf_char.o(.text)
    _sgetc                                   0x0800d1c5   Thumb Code    30  _sgetc.o(.text)
    _sbackspace                              0x0800d1e3   Thumb Code    34  _sgetc.o(.text)
    _strtoul                                 0x0800d205   Thumb Code   158  _strtoul.o(.text)
    __strtod_int                             0x0800d2db   Thumb Code    88  strtod.o(.text)
    __I$use$fp                               0x0800d341   Thumb Code     0  iusefp.o(.text)
    _float_round                             0x0800d341   Thumb Code    18  fepilogue.o(.text)
    _float_epilogue                          0x0800d353   Thumb Code    90  fepilogue.o(.text)
    _double_round                            0x0800d3ad   Thumb Code    26  depilogue.o(.text)
    _double_epilogue                         0x0800d3c7   Thumb Code   164  depilogue.o(.text)
    __ARM_scalbn                             0x0800d46b   Thumb Code    46  dscalb.o(.text)
    scalbn                                   0x0800d46b   Thumb Code     0  dscalb.o(.text)
    _dsqrt                                   0x0800d499   Thumb Code   162  dsqrt.o(.text)
    __aeabi_i2d                              0x0800d53b   Thumb Code    34  dflti.o(.text)
    __aeabi_ul2d                             0x0800d55d   Thumb Code    24  dfltul.o(.text)
    __aeabi_d2ulz                            0x0800d575   Thumb Code    48  dfixul.o(.text)
    __scatterload                            0x0800d5a5   Thumb Code    28  init.o(.text)
    __scatterload_rt2                        0x0800d5a5   Thumb Code     0  init.o(.text)
    __vfscanf                                0x0800d5c9   Thumb Code   806  _scanf.o(.text)
    __aeabi_d2iz                             0x0800d8f5   Thumb Code    62  dfixi.o(.text)
    __decompress                             0x0800d933   Thumb Code     0  __dczerorl2.o(.text)
    __decompress1                            0x0800d933   Thumb Code    92  __dczerorl2.o(.text)
    __0sprintf                               0x0800d991   Thumb Code    34  printfa.o(i.__0sprintf)
    __1sprintf                               0x0800d991   Thumb Code     0  printfa.o(i.__0sprintf)
    __2sprintf                               0x0800d991   Thumb Code     0  printfa.o(i.__0sprintf)
    __c89sprintf                             0x0800d991   Thumb Code     0  printfa.o(i.__0sprintf)
    sprintf                                  0x0800d991   Thumb Code     0  printfa.o(i.__0sprintf)
    __0vsprintf                              0x0800d9b9   Thumb Code    30  printfa.o(i.__0vsprintf)
    __1vsprintf                              0x0800d9b9   Thumb Code     0  printfa.o(i.__0vsprintf)
    __2vsprintf                              0x0800d9b9   Thumb Code     0  printfa.o(i.__0vsprintf)
    __c89vsprintf                            0x0800d9b9   Thumb Code     0  printfa.o(i.__0vsprintf)
    vsprintf                                 0x0800d9b9   Thumb Code     0  printfa.o(i.__0vsprintf)
    __ARM_fpclassify                         0x0800d9dd   Thumb Code    40  fpclassify.o(i.__ARM_fpclassify)
    __aeabi_errno_addr                       0x0800da05   Thumb Code     4  errno.o(i.__aeabi_errno_addr)
    __rt_errno_addr                          0x0800da05   Thumb Code     0  errno.o(i.__aeabi_errno_addr)
    __ieee754_rem_pio2                       0x0800da0d   Thumb Code   832  rred.o(i.__ieee754_rem_pio2)
    __kernel_cos                             0x0800dd95   Thumb Code   230  cos_i.o(i.__kernel_cos)
    __kernel_poly                            0x0800de91   Thumb Code   170  poly.o(i.__kernel_poly)
    __kernel_sin                             0x0800df3d   Thumb Code   224  sin_i.o(i.__kernel_sin)
    __mathlib_dbl_underflow                  0x0800e029   Thumb Code    10  dunder.o(i.__mathlib_dbl_underflow)
    __scatterload_copy                       0x0800e039   Thumb Code    14  handlers.o(i.__scatterload_copy)
    __scatterload_null                       0x0800e047   Thumb Code     2  handlers.o(i.__scatterload_null)
    __scatterload_zeroinit                   0x0800e049   Thumb Code    14  handlers.o(i.__scatterload_zeroinit)
    __set_errno                              0x0800e059   Thumb Code     6  errno.o(i.__set_errno)
    _is_digit                                0x0800e1c1   Thumb Code    14  scanf_fp.o(i._is_digit)
    atan                                     0x0800e921   Thumb Code   478  atan.o(i.atan)
    atan2                                    0x0800eb45   Thumb Code   346  atan2.o(i.atan2)
    cos                                      0x0800ecc5   Thumb Code   164  cos.o(i.cos)
    floor                                    0x0800ed71   Thumb Code   204  floor.o(i.floor)
    pow                                      0x0800ee4d   Thumb Code  2510  pow.o(i.pow)
    sin                                      0x0800f82d   Thumb Code   166  sin.o(i.sin)
    sqrt                                     0x0800f8dd   Thumb Code    76  sqrt.o(i.sqrt)
    strtod                                   0x0800f929   Thumb Code    28  strtod.o(i.strtod)
    _ytab                                    0x0800f944   Data          96  m_time.o(.constdata)
    callPickUpBuf                            0x0800f9a4   Data           6  at_cmd_call_parser.o(.constdata)
    terminateStr                             0x0800fa5c   Data           7  at_command_parser.o(.constdata)
    atGsmCmdStart                            0x0800fa64   Data         252  at_gsm_task.o(.constdata)
    __ctype_table                            0x0800fc88   Data         129  ctype_o.o(.constdata)
    __mathlib_zero                           0x0800fdd8   Data           8  qnan.o(.constdata)
    Region$$Table$$Base                      0x0800fff4   Number         0  anon$$obj.o(Region$$Table)
    Region$$Table$$Limit                     0x08010014   Number         0  anon$$obj.o(Region$$Table)
    logSendPt                                0x20000000   Data           4  main.o(.data)
    sleepCnt                                 0x20000004   Data           2  main.o(.data)
    reportInterVal                           0x20000008   Data           4  main.o(.data)
    smsTimeCheck                             0x2000000c   Data           4  main.o(.data)
    flagSendLocationSms                      0x20000010   Data           1  main.o(.data)
    getNewFirmwareFlag                       0x20000014   Data           4  main.o(.data)
    firmwareStatus                           0x20000018   Data           4  main.o(.data)
    firmwareUploadCnt                        0x2000001c   Data           1  main.o(.data)
    sysStatus                                0x2000001d   Data           1  main.o(.data)
    timer2Cnt                                0x20000024   Data           4  main.o(.data)
    trackerTaskRun                           0x20000028   Data           1  tracker.o(.data)
    an1Voltage                               0x2000002c   Data           4  tracker.o(.data)
    trackerTaskCnt                           0x20000030   Data           4  tracker.o(.data)
    mileage                                  0x20000034   Data           4  tracker.o(.data)
    trackerSaveLog                           0x20000038   Data           1  tracker.o(.data)
    ledSysCnt                                0x2000003c   Data           4  led.o(.data)
    ledTime                                  0x20000040   Data           4  led.o(.data)
    SystemCoreClock                          0x20000044   Data           4  system_stm32f10x.o(.data)
    AHBPrescTable                            0x20000048   Data          16  system_stm32f10x.o(.data)
    tickTimeSec                              0x20000058   Data           4  tick.o(.data)
    tickCounter32                            0x2000005c   Data           4  tick.o(.data)
    tickCounter64                            0x20000060   Data           8  tick.o(.data)
    rtcCnt                                   0x20000068   Data           4  rtc.o(.data)
    rtcUpdateFlag                            0x2000006c   Data           4  rtc.o(.data)
    rtcUpdateCnt                             0x20000070   Data           4  rtc.o(.data)
    rtcTimeSec                               0x20000074   Data           4  rtc.o(.data)
    sec                                      0x20000078   Data           4  rtc.o(.data)
    ADC1ConvertedValue                       0x2000007c   Data           2  adc.o(.data)
    adcChannel8Value                         0x20000080   Data           4  adc.o(.data)
    adc8Sum                                  0x20000084   Data           4  adc.o(.data)
    adc8SampleCnt                            0x20000088   Data           2  adc.o(.data)
    sysEventFlag                             0x2000008c   Data           4  exti.o(.data)
    captureDoneFlag                          0x20000090   Data           1  freq_capture.o(.data)
    captureValue                             0x20000094   Data           4  freq_capture.o(.data)
    captureValueOld                          0x20000098   Data           4  freq_capture.o(.data)
    speedFreq                                0x200000a0   Data           8  freq_capture.o(.data)
    speedFreqOld                             0x200000a8   Data           8  freq_capture.o(.data)
    capturePulseCnt                          0x200000b0   Data           4  freq_capture.o(.data)
    pluseStatusClearCnt                      0x200000b4   Data           4  freq_capture.o(.data)
    timeZone                                 0x200000bc   Data           4  sys_time.o(.data)
    sysTime                                  0x200000c0   Data           8  sys_time.o(.data)
    _daylight                                0x200000c8   Data           4  m_time.o(.data)
    _dstbias                                 0x200000cc   Data           4  m_time.o(.data)
    _timezone                                0x200000d0   Data           4  m_time.o(.data)
    voiceCall_TaskPhase                      0x200000d4   Data           1  at_cmd_call_parser.o(.data)
    voiceCall_OldTaskPhase                   0x200000d5   Data           1  at_cmd_call_parser.o(.data)
    pickUpPos                                0x200000d6   Data           1  at_cmd_call_parser.o(.data)
    batteryPercent                           0x200000dc   Data           2  at_cmd_common_parser.o(.data)
    flagGotSimCID                            0x200000de   Data           1  at_cmd_common_parser.o(.data)
    flagGotIMEI                              0x200000df   Data           1  at_cmd_common_parser.o(.data)
    modemIMEIPass                            0x200000e0   Data           1  at_cmd_common_parser.o(.data)
    gsmGetTimeFlag                           0x200000e1   Data           1  at_cmd_common_parser.o(.data)
    sysGsmTime                               0x200000ea   Data           8  at_cmd_common_parser.o(.data)
    smsNewMessageFlag                        0x200000fc   Data           1  at_cmd_sms_parser.o(.data)
    smsPhase                                 0x200000fd   Data           1  at_cmd_sms_parser.o(.data)
    flagSmsReadFinish                        0x200000fe   Data           1  at_cmd_sms_parser.o(.data)
    smsMsg                                   0x20000114   Data           4  at_cmd_sms_parser.o(.data)
    commandSeparator                         0x20000118   Data           4  at_command_parser.o(.data)
    registerNetworkRetry                     0x20000120   Data           1  at_gsm_task.o(.data)
    flagGsmStatus                            0x20000121   Data           1  at_gsm_task.o(.data)
    enableGprsRetryCnt                       0x20000122   Data           1  at_gsm_task.o(.data)
    gprsEnableFlag                           0x20000123   Data           1  at_gsm_task.o(.data)
    gprsDisable                              0x20000124   Data           1  at_gsm_task.o(.data)
    gsm_TaskPhase                            0x20000125   Data           1  at_gsm_task.o(.data)
    gprsApn                                  0x20000128   Data           4  at_gsm_task.o(.data)
    gprsUsr                                  0x2000012c   Data           4  at_gsm_task.o(.data)
    gprsPwd                                  0x20000130   Data           4  at_gsm_task.o(.data)
    modemCmd_TaskPhase                       0x2000013c   Data           1  at_send_cmd_task.o(.data)
    cmdTimeoutCount                          0x2000013d   Data           1  at_send_cmd_task.o(.data)
    modemCancel                              0x2000013e   Data           1  at_send_cmd_task.o(.data)
    criticalCmd                              0x2000013f   Data           1  at_send_cmd_task.o(.data)
    cmdParsedChar                            0x20000140   Data           1  at_send_cmd_task.o(.data)
    modemIsBusy                              0x20000141   Data           1  at_send_cmd_task.o(.data)
    modemIsBusySource                        0x20000142   Data           1  at_send_cmd_task.o(.data)
    atProcessCmd                             0x20000144   Data           8  at_send_cmd_task.o(.data)
    modemOk                                  0x2000014c   Data           4  modem.o(.data)
    modemError                               0x20000150   Data           4  modem.o(.data)
    cellLocationFlag                         0x20000154   Data           1  at_cmd_g100_parser.o(.data)
    cellPass                                 0x20000158   Data           4  at_cmd_g100_parser.o(.data)
    cellGotInfoFLag                          0x2000015c   Data           1  at_cmd_g100_parser.o(.data)
    ubloxPhase                               0x2000015d   Data           1  at_cmd_g100_parser.o(.data)
    cellPhase                                0x2000015e   Data           1  at_cmd_g100_parser.o(.data)
    createSocketNow                          0x2000016c   Data           1  at_u_blox_gprs_task.o(.data)
    socketNo                                 0x20000170   Data           4  at_u_blox_gprs_task.o(.data)
    tryOpenSocketNum                         0x20000174   Data           1  at_u_blox_gprs_task.o(.data)
    GPRS_dataUnackLength                     0x20000176   Data           2  at_u_blox_gprs_task.o(.data)
    gprsCheckDataCnt                         0x20000178   Data           1  at_u_blox_gprs_task.o(.data)
    socketTryToConnectCnt                    0x20000179   Data           1  at_u_blox_gprs_task.o(.data)
    tryToCreateSocketCnt                     0x2000017a   Data           1  at_u_blox_gprs_task.o(.data)
    gprsGetLocation                          0x2000017b   Data           1  at_u_blox_gprs_task.o(.data)
    gprsRecvDataPhase                        0x2000017c   Data           1  at_u_blox_gprs_task.o(.data)
    atGprsCmdListStart                       0x2000019c   Data           8  at_u_blox_gprs_task.o(.data)
    tcpIpConn                                0x200001a4   Data           4  at_u_blox_gprs_task.o(.data)
    gprs_TaskPhase                           0x200001a8   Data           1  at_u_blox_gprs_task.o(.data)
    gprsSocketStatus                         0x200001a9   Data           5  at_u_blox_gprs_task.o(.data)
    gprsSocketMask                           0x200001ae   Data           5  at_u_blox_gprs_task.o(.data)
    atFtpCmdListStart                        0x200001bc   Data           8  at_u_blox_ftp_task.o(.data)
    ftp_TaskPhase                            0x200001c4   Data           1  at_u_blox_ftp_task.o(.data)
    ftpConn                                  0x200001c8   Data           4  at_u_blox_ftp_task.o(.data)
    gpsCheckSum                              0x200001cc   Data           1  gps.o(.data)
    gpsCheckSumX                             0x200001cd   Data           1  gps.o(.data)
    gpsGetCheckSumFlag                       0x200001ce   Data           1  gps.o(.data)
    GPRMC_gotDataFlag                        0x200001cf   Data           1  gps.o(.data)
    GPGGA_gotDataFlag                        0x200001d0   Data           1  gps.o(.data)
    GPGSA_gotDataFlag                        0x200001d1   Data           1  gps.o(.data)
    GPGSV_gotDataFlag                        0x200001d2   Data           1  gps.o(.data)
    msgGpsDataGood                           0x200001d3   Data           1  gps.o(.data)
    gpsPulse                                 0x200001d4   Data           1  gps.o(.data)
    GPS_cmdState                             0x200001d5   Data           1  gps.o(.data)
    pPackGPRMC                               0x200001dc   Data           4  gps.o(.data)
    pPackGPGGA                               0x200001e0   Data           4  gps.o(.data)
    pPackGPGSA                               0x200001e4   Data           4  gps.o(.data)
    pPackGPGSV                               0x200001e8   Data           4  gps.o(.data)
    GPS_numCmd                               0x200001ec   Data           1  gps.o(.data)
    GPS_cmdRecvLength                        0x200001f0   Data           4  gps.o(.data)
    logPositionCnt                           0x200001f4   Data           4  db.o(.data)
    flagNewLog                               0x200001f8   Data           4  db.o(.data)
    countErrTemp                             0x200001fc   Data           4  sst25.o(.data)
    mainBuf                                  0x20000204   Data         512  main.o(.bss)
    logSend                                  0x20000404   Data         112  main.o(.bss)
    sysCfg                                   0x20000474   Data        1294  system_config.o(.bss)
    ioStatus                                 0x20000984   Data          32  hw_config.o(.bss)
    USART1_RxBuff                            0x200009b8   Data        2048  uart1.o(.bss)
    USART1_TxBuff                            0x200011b8   Data         512  uart1.o(.bss)
    USART1_RxRingBuff                        0x200013b8   Data          16  uart1.o(.bss)
    USART1_TxRingBuff                        0x200013c8   Data          16  uart1.o(.bss)
    USART2_RxBuff                            0x200013d8   Data        1024  uart2.o(.bss)
    USART2_RxRingBuff                        0x200017d8   Data          16  uart2.o(.bss)
    USART3_RxBuff                            0x200017e8   Data        1024  uart3.o(.bss)
    USART3_RxRingBuff                        0x20001be8   Data          16  uart3.o(.bss)
    atCmdCallParser                          0x20001bf8   Data          44  at_cmd_call_parser.o(.bss)
    tCallRingCheckTimeOut                    0x20001c24   Data          12  at_cmd_call_parser.o(.bss)
    tVoiceCallTaskTimeOut                    0x20001c30   Data          12  at_cmd_call_parser.o(.bss)
    tCallTaskDelay                           0x20001c3c   Data          12  at_cmd_call_parser.o(.bss)
    tStartCallErrorTimeOut                   0x20001c48   Data          12  at_cmd_call_parser.o(.bss)
    tWaitCallActionTimeOut                   0x20001c54   Data          12  at_cmd_call_parser.o(.bss)
    dialingPhoneNumber                       0x20001c60   Data          16  at_cmd_call_parser.o(.bss)
    gsmSimCIDBuf                             0x20001c70   Data          32  at_cmd_common_parser.o(.bss)
    gsmIMEIBuf                               0x20001c90   Data          18  at_cmd_common_parser.o(.bss)
    smsUnreadBuff                            0x20001ca4   Data          32  at_cmd_sms_parser.o(.bss)
    tSmsTaskTimeOut                          0x20001cc4   Data          12  at_cmd_sms_parser.o(.bss)
    smsUnreadRingBuff                        0x20001cd0   Data          16  at_cmd_sms_parser.o(.bss)
    smsSender                                0x20001ce0   Data          16  at_cmd_sms_parser.o(.bss)
    smsDataBuf                               0x20001cf0   Data         256  at_cmd_sms_parser.o(.bss)
    cmdCnt                                   0x20001df0   Data          22  at_command_parser.o(.bss)
    AT_CmdParser                             0x20001e08   Data          16  at_command_parser.o(.bss)
    atGsmCmdListStart                        0x20001e18   Data          72  at_gsm_task.o(.bss)
    tGsmTaskPhaseTimeOut                     0x20001e60   Data          12  at_gsm_task.o(.bss)
    tGsmTaskDelay                            0x20001e6c   Data          12  at_gsm_task.o(.bss)
    modemAtCmdBuf                            0x20001e78   Data         128  at_send_cmd_task.o(.bss)
    modemCmpOk                               0x20001ef8   Data          12  at_send_cmd_task.o(.bss)
    modemCmpFails                            0x20001f04   Data          12  at_send_cmd_task.o(.bss)
    tModemAtTimeout                          0x20001f10   Data          12  at_send_cmd_task.o(.bss)
    tModemCancelTimeout                      0x20001f1c   Data          12  at_send_cmd_task.o(.bss)
    cmdPckSend                               0x20001f28   Data          28  at_send_cmd_task.o(.bss)
    atCallBackParser                         0x20001f44   Data          16  at_send_cmd_task.o(.bss)
    cellInfo                                 0x20001fd4   Data         140  at_cmd_g100_parser.o(.bss)
    cellLocationBuf                          0x20002060   Data         128  at_cmd_g100_parser.o(.bss)
    cellLocate                               0x200020e0   Data          36  at_cmd_g100_parser.o(.bss)
    tcpIpBuf                                 0x20002104   Data         814  at_u_blox_gprs_task.o(.bss)
    tGprsTaskPhaseTimeOut                    0x20002434   Data          12  at_u_blox_gprs_task.o(.bss)
    gprsCmdResBuf                            0x20002440   Data          32  at_u_blox_gprs_task.o(.bss)
    DNS_serverIp                             0x20002460   Data          16  at_u_blox_gprs_task.o(.bss)
    tFtpTaskPhaseTimeOut                     0x20002470   Data          12  at_u_blox_ftp_task.o(.bss)
    ftpCmdResBuf                             0x2000247c   Data          32  at_u_blox_ftp_task.o(.bss)
    buffGPRMC                                0x200024a0   Data          80  gps.o(.bss)
    buffGPGGA                                0x200024f0   Data          80  gps.o(.bss)
    buffGPGSA                                0x20002540   Data          80  gps.o(.bss)
    buffGPGSV                                0x20002590   Data          80  gps.o(.bss)
    msgTerm                                  0x200025e0   Data          80  gps.o(.bss)
    GPS_Buff                                 0x20002630   Data         128  gps.o(.bss)
    gpsInfo                                  0x200026b0   Data         400  gps.o(.bss)
    lastGpsInfo                              0x20002840   Data         400  gps.o(.bss)
    GPS_cmdCnt                               0x200029d0   Data          16  gps.o(.bss)
    logRecord                                0x200029e0   Data         112  db.o(.bss)
    ringLog                                  0x20002a50   Data           9  db.o(.bss)
    __initial_sp                             0x20003a60   Data           0  startup_stm32f10x_hd.o(STACK)



==============================================================================

Memory Map of the image

  Image Entry point : 0x08002931

  Load Region LR_IROM1 (Base: 0x08002800, Size: 0x0000da18, Max: 0x00040000, ABSOLUTE, COMPRESSED[0x0000d860])

    Execution Region ER_IROM1 (Base: 0x08002800, Size: 0x0000d814, Max: 0x00040000, ABSOLUTE)

    Base Addr    Size         Type   Attr      Idx    E Section Name        Object

    0x08002800   0x00000130   Data   RO          307    RESET               startup_stm32f10x_hd.o
    0x08002930   0x00000000   Code   RO         1089  * .ARM.Collect$$$$00000000  mc_w.l(entry.o)
    0x08002930   0x00000004   Code   RO         1470    .ARM.Collect$$$$00000001  mc_w.l(entry2.o)
    0x08002934   0x00000004   Code   RO         1473    .ARM.Collect$$$$00000004  mc_w.l(entry5.o)
    0x08002938   0x00000000   Code   RO         1475    .ARM.Collect$$$$00000008  mc_w.l(entry7b.o)
    0x08002938   0x00000000   Code   RO         1477    .ARM.Collect$$$$0000000A  mc_w.l(entry8b.o)
    0x08002938   0x00000008   Code   RO         1478    .ARM.Collect$$$$0000000B  mc_w.l(entry9a.o)
    0x08002940   0x00000000   Code   RO         1480    .ARM.Collect$$$$0000000D  mc_w.l(entry10a.o)
    0x08002940   0x00000000   Code   RO         1482    .ARM.Collect$$$$0000000F  mc_w.l(entry11a.o)
    0x08002940   0x00000004   Code   RO         1471    .ARM.Collect$$$$00002712  mc_w.l(entry2.o)
    0x08002944   0x00000e14   Code   RO            1    .text               main.o
    0x08003758   0x00000528   Code   RO          171    .text               system_config.o
    0x08003c80   0x000001d0   Code   RO          200    .text               hw_config.o
    0x08003e50   0x00000b8c   Code   RO          218    .text               tracker.o
    0x080049dc   0x000000dc   Code   RO          242    .text               led.o
    0x08004ab8   0x00000024   Code   RO          308    .text               startup_stm32f10x_hd.o
    0x08004adc   0x000001dc   Code   RO          323    .text               system_stm32f10x.o
    0x08004cb8   0x000005bc   Code   RO          341    .text               stm32f10x_flash.o
    0x08005274   0x00000040   Code   RO          353    .text               stm32f10x_iwdg.o
    0x080052b4   0x0000017c   Code   RO          368    .text               tick.o
    0x08005430   0x00000238   Code   RO          391    .text               uart1.o
    0x08005668   0x000001b8   Code   RO          418    .text               uart2.o
    0x08005820   0x000001bc   Code   RO          443    .text               uart3.o
    0x080059dc   0x000002bc   Code   RO          481    .text               spi.o
    0x08005c98   0x00000474   Code   RO          508    .text               rtc.o
    0x0800610c   0x00000174   Code   RO          533    .text               adc.o
    0x08006280   0x00000240   Code   RO          551    .text               exti.o
    0x080064c0   0x0000006c   Code   RO          570    .text               freq_capture.o
    0x0800652c   0x00000114   Code   RO          600    .text               list.o
    0x08006640   0x00000094   Code   RO          615    .text               ringbuf.o
    0x080066d4   0x00000160   Code   RO          627    .text               sparser.o
    0x08006834   0x00000054   Code   RO          640    .text               data_cmp.o
    0x08006888   0x0000021a   Code   RO          655    .text               sys_time.o
    0x08006aa2   0x00000002   PAD
    0x08006aa4   0x0000064c   Code   RO          689    .text               m_time.o
    0x080070f0   0x000009ac   Code   RO          724    .text               at_cmd_call_parser.o
    0x08007a9c   0x000002cc   Code   RO          752    .text               at_cmd_common_parser.o
    0x08007d68   0x00000764   Code   RO          775    .text               at_cmd_sms_parser.o
    0x080084cc   0x0000004c   Code   RO          799    .text               at_command_parser.o
    0x08008518   0x00000610   Code   RO          820    .text               at_gsm_task.o
    0x08008b28   0x000003d4   Code   RO          841    .text               at_send_cmd_task.o
    0x08008efc   0x000000a4   Code   RO          860    .text               gsm_hwr.o
    0x08008fa0   0x000001ec   Code   RO          872    .text               modem.o
    0x0800918c   0x0000053c   Code   RO          892    .text               at_cmd_g100_parser.o
    0x080096c8   0x000010f8   Code   RO          912    .text               at_u_blox_gprs_task.o
    0x0800a7c0   0x00000614   Code   RO          933    .text               at_u_blox_ftp_task.o
    0x0800add4   0x00000f40   Code   RO          954    .text               gps.o
    0x0800bd14   0x000004c0   Code   RO         1005    .text               db.o
    0x0800c1d4   0x00000308   Code   RO         1024    .text               sst25.o
    0x0800c4dc   0x00000008   Code   RO         1092    .text               mc_w.l(ctype_o.o)
    0x0800c4e4   0x00000012   Code   RO         1114    .text               mc_w.l(isspace_o.o)
    0x0800c4f6   0x00000024   Code   RO         1120    .text               mc_w.l(memcpya.o)
    0x0800c51a   0x00000024   Code   RO         1122    .text               mc_w.l(memseta.o)
    0x0800c53e   0x00000018   Code   RO         1124    .text               mc_w.l(strcat.o)
    0x0800c556   0x00000024   Code   RO         1126    .text               mc_w.l(strstr.o)
    0x0800c57a   0x0000000e   Code   RO         1128    .text               mc_w.l(strlen.o)
    0x0800c588   0x00000014   Code   RO         1130    .text               mc_w.l(memchr.o)
    0x0800c59c   0x0000001a   Code   RO         1132    .text               mc_w.l(memcmp.o)
    0x0800c5b6   0x00000012   Code   RO         1134    .text               mc_w.l(strcpy.o)
    0x0800c5c8   0x00000038   Code   RO         1399    .text               mc_w.l(__0sscanf.o)
    0x0800c600   0x00000150   Code   RO         1401    .text               mc_w.l(_scanf_int.o)
    0x0800c750   0x0000033c   Code   RO         1403    .text               mc_w.l(scanf_fp.o)
    0x0800ca8c   0x00000070   Code   RO         1407    .text               mc_w.l(strtol.o)
    0x0800cafc   0x000000b0   Code   RO         1409    .text               mf_w.l(fadd.o)
    0x0800cbac   0x00000080   Code   RO         1411    .text               mf_w.l(fdiv.o)
    0x0800cc2c   0x0000014e   Code   RO         1413    .text               mf_w.l(dadd.o)
    0x0800cd7a   0x000000e4   Code   RO         1415    .text               mf_w.l(dmul.o)
    0x0800ce5e   0x000000de   Code   RO         1417    .text               mf_w.l(ddiv.o)
    0x0800cf3c   0x0000000a   Code   RO         1419    .text               mf_w.l(ffltui.o)
    0x0800cf46   0x0000001a   Code   RO         1421    .text               mf_w.l(dfltui.o)
    0x0800cf60   0x00000028   Code   RO         1423    .text               mf_w.l(ffixui.o)
    0x0800cf88   0x00000032   Code   RO         1425    .text               mf_w.l(dfixui.o)
    0x0800cfba   0x00000026   Code   RO         1427    .text               mf_w.l(f2d.o)
    0x0800cfe0   0x00000028   Code   RO         1429    .text               mf_w.l(cdcmple.o)
    0x0800d008   0x00000028   Code   RO         1431    .text               mf_w.l(cdrcmple.o)
    0x0800d030   0x00000038   Code   RO         1433    .text               mf_w.l(d2f.o)
    0x0800d068   0x00000014   Code   RO         1435    .text               mf_w.l(cfcmple.o)
    0x0800d07c   0x00000014   Code   RO         1437    .text               mf_w.l(cfrcmple.o)
    0x0800d090   0x0000002c   Code   RO         1485    .text               mc_w.l(uidiv.o)
    0x0800d0bc   0x00000062   Code   RO         1487    .text               mc_w.l(uldiv.o)
    0x0800d11e   0x0000001e   Code   RO         1489    .text               mc_w.l(llshl.o)
    0x0800d13c   0x00000020   Code   RO         1491    .text               mc_w.l(llushr.o)
    0x0800d15c   0x00000024   Code   RO         1493    .text               mc_w.l(llsshr.o)
    0x0800d180   0x0000001c   Code   RO         1502    .text               mc_w.l(_chval.o)
    0x0800d19c   0x00000028   Code   RO         1504    .text               mc_w.l(scanf_char.o)
    0x0800d1c4   0x00000040   Code   RO         1506    .text               mc_w.l(_sgetc.o)
    0x0800d204   0x0000009e   Code   RO         1508    .text               mc_w.l(_strtoul.o)
    0x0800d2a2   0x00000002   PAD
    0x0800d2a4   0x0000009c   Code   RO         1510    .text               mc_w.l(strtod.o)
    0x0800d340   0x00000000   Code   RO         1512    .text               mc_w.l(iusefp.o)
    0x0800d340   0x0000006c   Code   RO         1513    .text               mf_w.l(fepilogue.o)
    0x0800d3ac   0x000000be   Code   RO         1515    .text               mf_w.l(depilogue.o)
    0x0800d46a   0x0000002e   Code   RO         1517    .text               mf_w.l(dscalb.o)
    0x0800d498   0x000000a2   Code   RO         1519    .text               mf_w.l(dsqrt.o)
    0x0800d53a   0x00000022   Code   RO         1521    .text               mf_w.l(dflti.o)
    0x0800d55c   0x00000018   Code   RO         1523    .text               mf_w.l(dfltul.o)
    0x0800d574   0x00000030   Code   RO         1525    .text               mf_w.l(dfixul.o)
    0x0800d5a4   0x00000024   Code   RO         1527    .text               mc_w.l(init.o)
    0x0800d5c8   0x0000032c   Code   RO         1531    .text               mc_w.l(_scanf.o)
    0x0800d8f4   0x0000003e   Code   RO         1533    .text               mf_w.l(dfixi.o)
    0x0800d932   0x0000005c   Code   RO         1546    .text               mc_w.l(__dczerorl2.o)
    0x0800d98e   0x00000002   PAD
    0x0800d990   0x00000028   Code   RO         1373    i.__0sprintf        mc_w.l(printfa.o)
    0x0800d9b8   0x00000024   Code   RO         1377    i.__0vsprintf       mc_w.l(printfa.o)
    0x0800d9dc   0x00000028   Code   RO         1454    i.__ARM_fpclassify  m_ws.l(fpclassify.o)
    0x0800da04   0x00000008   Code   RO         1495    i.__aeabi_errno_addr  mc_w.l(errno.o)
    0x0800da0c   0x00000388   Code   RO         1459    i.__ieee754_rem_pio2  m_ws.l(rred.o)
    0x0800dd94   0x000000fc   Code   RO         1449    i.__kernel_cos      m_ws.l(cos_i.o)
    0x0800de90   0x000000aa   Code   RO         1456    i.__kernel_poly     m_ws.l(poly.o)
    0x0800df3a   0x00000002   PAD
    0x0800df3c   0x000000ec   Code   RO         1464    i.__kernel_sin      m_ws.l(sin_i.o)
    0x0800e028   0x00000010   Code   RO         1452    i.__mathlib_dbl_underflow  m_ws.l(dunder.o)
    0x0800e038   0x0000000e   Code   RO         1540    i.__scatterload_copy  mc_w.l(handlers.o)
    0x0800e046   0x00000002   Code   RO         1541    i.__scatterload_null  mc_w.l(handlers.o)
    0x0800e048   0x0000000e   Code   RO         1542    i.__scatterload_zeroinit  mc_w.l(handlers.o)
    0x0800e056   0x00000002   PAD
    0x0800e058   0x0000000c   Code   RO         1497    i.__set_errno       mc_w.l(errno.o)
    0x0800e064   0x0000015c   Code   RO         1378    i._fp_digits        mc_w.l(printfa.o)
    0x0800e1c0   0x0000000e   Code   RO         1405    i._is_digit         mc_w.l(scanf_fp.o)
    0x0800e1ce   0x00000002   PAD
    0x0800e1d0   0x000006f0   Code   RO         1379    i._printf_core      mc_w.l(printfa.o)
    0x0800e8c0   0x00000026   Code   RO         1380    i._printf_post_padding  mc_w.l(printfa.o)
    0x0800e8e6   0x00000030   Code   RO         1381    i._printf_pre_padding  mc_w.l(printfa.o)
    0x0800e916   0x0000000a   Code   RO         1383    i._sputc            mc_w.l(printfa.o)
    0x0800e920   0x00000224   Code   RO         1440    i.atan              m_ws.l(atan.o)
    0x0800eb44   0x00000180   Code   RO         1040    i.atan2             m_ws.l(atan2.o)
    0x0800ecc4   0x000000ac   Code   RO         1048    i.cos               m_ws.l(cos.o)
    0x0800ed70   0x000000dc   Code   RO         1056    i.floor             m_ws.l(floor.o)
    0x0800ee4c   0x000009e0   Code   RO         1060    i.pow               m_ws.l(pow.o)
    0x0800f82c   0x000000b0   Code   RO         1070    i.sin               m_ws.l(sin.o)
    0x0800f8dc   0x0000004c   Code   RO         1078    i.sqrt              m_ws.l(sqrt.o)
    0x0800f928   0x0000001c   Code   RO         1086    i.strtod            m_ws.l(strtod.o)
    0x0800f944   0x00000060   Data   RO          690    .constdata          m_time.o
    0x0800f9a4   0x00000006   Data   RO          726    .constdata          at_cmd_call_parser.o
    0x0800f9aa   0x00000002   PAD
    0x0800f9ac   0x000000b7   Data   RO          801    .constdata          at_command_parser.o
    0x0800fa63   0x00000001   PAD
    0x0800fa64   0x000000fc   Data   RO          822    .constdata          at_gsm_task.o
    0x0800fb60   0x0000004d   Data   RO          894    .constdata          at_cmd_g100_parser.o
    0x0800fbad   0x00000003   PAD
    0x0800fbb0   0x00000050   Data   RO          956    .constdata          gps.o
    0x0800fc00   0x00000088   Data   RO         1061    .constdata          m_ws.l(pow.o)
    0x0800fc88   0x00000081   Data   RO         1093    .constdata          mc_w.l(ctype_o.o)
    0x0800fd09   0x00000003   PAD
    0x0800fd0c   0x00000004   Data   RO         1094    .constdata          mc_w.l(ctype_o.o)
    0x0800fd10   0x00000098   Data   RO         1441    .constdata          m_ws.l(atan.o)
    0x0800fda8   0x00000030   Data   RO         1450    .constdata          m_ws.l(cos_i.o)
    0x0800fdd8   0x00000008   Data   RO         1458    .constdata          m_ws.l(qnan.o)
    0x0800fde0   0x000000c8   Data   RO         1461    .constdata          m_ws.l(rred.o)
    0x0800fea8   0x00000028   Data   RO         1465    .constdata          m_ws.l(sin_i.o)
    0x0800fed0   0x000000b4   Data   RO          802    .conststring        at_command_parser.o
    0x0800ff84   0x0000006f   Data   RO          823    .conststring        at_gsm_task.o
    0x0800fff3   0x00000001   PAD
    0x0800fff4   0x00000020   Data   RO         1538    Region$$Table       anon$$obj.o


    Execution Region RW_IRAM1 (Base: 0x20000000, Size: 0x00003a60, Max: 0x00008000, ABSOLUTE, COMPRESSED[0x0000004c])

    Base Addr    Size         Type   Attr      Idx    E Section Name        Object

    0x20000000   0x00000028   Data   RW            3    .data               main.o
    0x20000028   0x00000011   Data   RW          220    .data               tracker.o
    0x20000039   0x00000003   PAD
    0x2000003c   0x00000008   Data   RW          243    .data               led.o
    0x20000044   0x00000014   Data   RW          324    .data               system_stm32f10x.o
    0x20000058   0x00000010   Data   RW          369    .data               tick.o
    0x20000068   0x00000014   Data   RW          509    .data               rtc.o
    0x2000007c   0x0000000e   Data   RW          534    .data               adc.o
    0x2000008a   0x00000002   PAD
    0x2000008c   0x00000004   Data   RW          552    .data               exti.o
    0x20000090   0x00000028   Data   RW          571    .data               freq_capture.o
    0x200000b8   0x00000001   Data   RW          628    .data               sparser.o
    0x200000b9   0x00000003   PAD
    0x200000bc   0x0000000c   Data   RW          656    .data               sys_time.o
    0x200000c8   0x0000000c   Data   RW          691    .data               m_time.o
    0x200000d4   0x00000006   Data   RW          727    .data               at_cmd_call_parser.o
    0x200000da   0x00000002   PAD
    0x200000dc   0x00000016   Data   RW          754    .data               at_cmd_common_parser.o
    0x200000f2   0x00000002   PAD
    0x200000f4   0x00000024   Data   RW          777    .data               at_cmd_sms_parser.o
    0x20000118   0x00000008   Data   RW          803    .data               at_command_parser.o
    0x20000120   0x00000014   Data   RW          824    .data               at_gsm_task.o
    0x20000134   0x00000018   Data   RW          843    .data               at_send_cmd_task.o
    0x2000014c   0x00000008   Data   RW          875    .data               modem.o
    0x20000154   0x0000000d   Data   RW          895    .data               at_cmd_g100_parser.o
    0x20000161   0x00000003   PAD
    0x20000164   0x0000004f   Data   RW          916    .data               at_u_blox_gprs_task.o
    0x200001b3   0x00000001   PAD
    0x200001b4   0x00000018   Data   RW          937    .data               at_u_blox_ftp_task.o
    0x200001cc   0x00000028   Data   RW          957    .data               gps.o
    0x200001f4   0x00000008   Data   RW         1007    .data               db.o
    0x200001fc   0x00000004   Data   RW         1025    .data               sst25.o
    0x20000200   0x00000004   Data   RW         1498    .data               mc_w.l(errno.o)
    0x20000204   0x00000270   Zero   RW            2    .bss                main.o
    0x20000474   0x0000050e   Zero   RW          172    .bss                system_config.o
    0x20000982   0x00000002   PAD
    0x20000984   0x00000020   Zero   RW          201    .bss                hw_config.o
    0x200009a4   0x00000014   Zero   RW          219    .bss                tracker.o
    0x200009b8   0x00000a20   Zero   RW          392    .bss                uart1.o
    0x200013d8   0x00000410   Zero   RW          419    .bss                uart2.o
    0x200017e8   0x00000410   Zero   RW          444    .bss                uart3.o
    0x20001bf8   0x00000078   Zero   RW          725    .bss                at_cmd_call_parser.o
    0x20001c70   0x00000032   Zero   RW          753    .bss                at_cmd_common_parser.o
    0x20001ca2   0x00000002   PAD
    0x20001ca4   0x0000014c   Zero   RW          776    .bss                at_cmd_sms_parser.o
    0x20001df0   0x00000028   Zero   RW          800    .bss                at_command_parser.o
    0x20001e18   0x00000060   Zero   RW          821    .bss                at_gsm_task.o
    0x20001e78   0x000000dc   Zero   RW          842    .bss                at_send_cmd_task.o
    0x20001f54   0x00000080   Zero   RW          873    .bss                modem.o
    0x20001fd4   0x00000130   Zero   RW          893    .bss                at_cmd_g100_parser.o
    0x20002104   0x0000036c   Zero   RW          913    .bss                at_u_blox_gprs_task.o
    0x20002470   0x0000002c   Zero   RW          934    .bss                at_u_blox_ftp_task.o
    0x2000249c   0x00000004   PAD
    0x200024a0   0x00000540   Zero   RW          955    .bss                gps.o
    0x200029e0   0x00000079   Zero   RW         1006    .bss                db.o
    0x20002a59   0x00000007   PAD
    0x20002a60   0x00001000   Zero   RW          305    STACK               startup_stm32f10x_hd.o


==============================================================================

Image component sizes


      Code (inc. data)   RO Data    RW Data    ZI Data      Debug   Object Name

       372         36          0         14          0       1822   adc.o
      2476        172          6          6        120       9253   at_cmd_call_parser.o
       716         58          0         22         50       2995   at_cmd_common_parser.o
      1340        186         77         13        304       4592   at_cmd_g100_parser.o
      1892        312          0         36        332       7333   at_cmd_sms_parser.o
        76         16        363          8         40       1421   at_command_parser.o
      1552        296        363         20         96       3938   at_gsm_task.o
       980         62          0         24        220       5338   at_send_cmd_task.o
      1556        266          0         24         44       5252   at_u_blox_ftp_task.o
      4344        480          0         79        876      11635   at_u_blox_gprs_task.o
        84          0          0          0          0       1440   data_cmp.o
      1216         14          0          8        121       5797   db.o
       576         22          0          4          0       1727   exti.o
       108         26          0         40          0       1181   freq_capture.o
      3904        388         80         40       1344      13630   gps.o
       164         10          0          0          0        900   gsm_hwr.o
       464         12          0          0         32       6528   hw_config.o
       220         28          0          8          0       1540   led.o
       276          0          0          0          0       3831   list.o
      1612         32         96         12          0       2907   m_time.o
      3604        396          0         40        624     248270   main.o
       492        108          0          8        128       2306   modem.o
       148          0          0          0          0       1611   ringbuf.o
      1140         60          0         20          0      19378   rtc.o
       352          6          0          1          0       1770   sparser.o
       700         26          0          0          0       2147   spi.o
       776         18          0          4          0       3689   sst25.o
        36          8        304          0       4096        868   startup_stm32f10x_hd.o
      1468         34          0          0          0       8042   stm32f10x_flash.o
        64          6          0          0          0       1261   stm32f10x_iwdg.o
       538          0          0         12          0       3800   sys_time.o
      1320        198          0          0       1294       5898   system_config.o
       476         42          0         20          0       1859   system_stm32f10x.o
       380         30          0         16          0      17887   tick.o
      2956        264          0         17         20       4533   tracker.o
       568         42          0          0       2592      17741   uart1.o
       440         30          0          0       1040       2318   uart2.o
       444         32          0          0       1040       2598   uart3.o

    ----------------------------------------------------------------------
     39832       3716       1328        512      14428     439036   Object Totals
         0          0         32          0          0          0   (incl. Generated)
         2          0          7         16         15          0   (incl. Padding)

    ----------------------------------------------------------------------

      Code (inc. data)   RO Data    RW Data    ZI Data      Debug   Library Member Name

       548         70        152          0          0        124   atan.o
       384         38          0          0          0        144   atan2.o
       172          8          0          0          0        112   cos.o
       252         22         48          0          0        124   cos_i.o
        16          6          0          0          0         68   dunder.o
       220         16          0          0          0         84   floor.o
        40          0          0          0          0         68   fpclassify.o
       170          0          0          0          0         96   poly.o
      2528        190        136          0          0        332   pow.o
         0          0          8          0          0          0   qnan.o
       904         72        200          0          0        140   rred.o
       176         10          0          0          0        116   sin.o
       236         12         40          0          0        128   sin_i.o
        76          0          0          0          0         84   sqrt.o
        28          0          0          0          0         80   strtod.o
        56          8          0          0          0         84   __0sscanf.o
        92          0          0          0          0          0   __dczerorl2.o
        28          0          0          0          0         68   _chval.o
       812          6          0          0          0        112   _scanf.o
       336          0          0          0          0         96   _scanf_int.o
        64          0          0          0          0         84   _sgetc.o
       158          0          0          0          0         92   _strtoul.o
         8          4        133          0          0         68   ctype_o.o
         0          0          0          0          0          0   entry.o
         0          0          0          0          0          0   entry10a.o
         0          0          0          0          0          0   entry11a.o
         8          4          0          0          0          0   entry2.o
         4          0          0          0          0          0   entry5.o
         0          0          0          0          0          0   entry7b.o
         0          0          0          0          0          0   entry8b.o
         8          4          0          0          0          0   entry9a.o
        20         10          0          4          0        136   errno.o
        30          0          0          0          0          0   handlers.o
        36          8          0          0          0         68   init.o
        18          0          0          0          0         76   isspace_o.o
         0          0          0          0          0          0   iusefp.o
        30          0          0          0          0         68   llshl.o
        36          0          0          0          0         68   llsshr.o
        32          0          0          0          0         68   llushr.o
        20          0          0          0          0         68   memchr.o
        26          0          0          0          0         80   memcmp.o
        36          0          0          0          0         68   memcpya.o
        36          0          0          0          0        108   memseta.o
      2296         92          0          0          0        592   printfa.o
        40          8          0          0          0         84   scanf_char.o
       842         12          0          0          0        216   scanf_fp.o
        24          0          0          0          0         68   strcat.o
        18          0          0          0          0         68   strcpy.o
        14          0          0          0          0         68   strlen.o
        36          0          0          0          0         80   strstr.o
       156         14          0          0          0        120   strtod.o
       112          0          0          0          0         88   strtol.o
        44          0          0          0          0         80   uidiv.o
        98          0          0          0          0         92   uldiv.o
        40          2          0          0          0         68   cdcmple.o
        40          2          0          0          0         68   cdrcmple.o
        20          0          0          0          0         68   cfcmple.o
        20          0          0          0          0         68   cfrcmple.o
        56          0          0          0          0         88   d2f.o
       334          0          0          0          0        148   dadd.o
       222          0          0          0          0        100   ddiv.o
       190          0          0          0          0        176   depilogue.o
        62          0          0          0          0         80   dfixi.o
        50          0          0          0          0         76   dfixui.o
        48          0          0          0          0         68   dfixul.o
        34          0          0          0          0         76   dflti.o
        26          0          0          0          0         76   dfltui.o
        24          0          0          0          0         76   dfltul.o
       228          0          0          0          0         96   dmul.o
        46          0          0          0          0         80   dscalb.o
       162          0          0          0          0        100   dsqrt.o
        38          0          0          0          0         68   f2d.o
       176          0          0          0          0        140   fadd.o
       128          0          0          0          0         88   fdiv.o
       108          0          0          0          0        168   fepilogue.o
        40          0          0          0          0         68   ffixui.o
        10          0          0          0          0         68   ffltui.o

    ----------------------------------------------------------------------
     13436        618        720          4          0       6780   Library Totals
        10          0          3          0          0          0   (incl. Padding)

    ----------------------------------------------------------------------

      Code (inc. data)   RO Data    RW Data    ZI Data      Debug   Library Name

      5750        444        584          0          0       1700   m_ws.l
      5574        170        133          4          0       2968   mc_w.l
      2102          4          0          0          0       2112   mf_w.l

    ----------------------------------------------------------------------
     13436        618        720          4          0       6780   Library Totals

    ----------------------------------------------------------------------

==============================================================================


      Code (inc. data)   RO Data    RW Data    ZI Data      Debug   

     53268       4334       2048        516      14428     438016   Grand Totals
     53268       4334       2048         76      14428     438016   ELF Image Totals (compressed)
     53268       4334       2048         76          0          0   ROM Totals

==============================================================================

    Total RO  Size (Code + RO Data)                55316 (  54.02kB)
    Total RW  Size (RW Data + ZI Data)             14944 (  14.59kB)
    Total ROM Size (Code + RO Data + RW Data)      55392 (  54.09kB)

==============================================================================

