ARM Linker, 5.03 [Build 76] [MDK-ARM Standard]

==============================================================================

Section Cross References

    main.o(.text) refers to system_stm32f10x.o(.text) for SystemInit
    main.o(.text) refers to tick.o(.text) for TICK_Init
    main.o(.text) refers to adc_task.o(.text) for ADC_TaskInit
    main.o(.text) refers to hw_config.o(.text) for GPS_Enable
    main.o(.text) refers to sst25.o(.text) for SST25_Init
    main.o(.text) refers to uart1.o(.text) for USART1_Init
    main.o(.text) refers to gps.o(.text) for GPSInit
    main.o(.text) refers to uart2.o(.text) for USART2_Init
    main.o(.text) refers to uart_config_task.o(.text) for UartConfigTaskInit
    main.o(.text) refers to rtc.o(.text) for RTC_GetCounter
    main.o(.text) refers to gsm_hwr.o(.text) for MODEM_Wakeup
    main.o(.text) refers to modem.o(.text) for MODEM_SendCommand
    main.o(.text) refers to tracker.o(.text) for TrackerGetNewData
    main.o(.text) refers to at_cmd_sms_parser.o(.text) for SmsTask_IsNoMsg
    main.o(.text) refers to alarm_task.o(.text) for AlarmTask
    main.o(.text) refers to at_cmd_call_parser.o(.text) for RING_Process
    main.o(.text) refers to sms_task.o(.text) for SMS_Manage
    main.o(.text) refers to mma7660.o(.text) for MMA7660_Read
==============================================================================

Removing Unused input sections from the image.

    Removing uart_config_task.o(.data), (4 bytes).
    Removing tcp_ip_task.o(.data), (8 bytes).
    Removing startup_stm32f10x_md.o(HEAP), (1024 bytes).
    Removing core_cm3.o(.emb_text), (32 bytes).
    Removing low_power_mode.o(.text), (92 bytes).
    Removing stm32f10x_dac.o(.text), (396 bytes).
    Removing uip_ppp.o(.bss), (12 bytes).
    Removing xtea.o(.text), (200 bytes).
    Removing packet_queue.o(.text), (364 bytes).
    Removing protocol.o(.text), (676 bytes).

10 unused section(s) (total 2808 bytes) removed from the image.

==============================================================================

Image Symbol Table

    Local Symbols

    Symbol Name                              Value     Ov Type        Size  Object(Section)

    ../clib/../cmprslib/zerorunl2.c          0x00000000   Number         0  __dczerorl2.o ABSOLUTE
    ../clib/microlib/ctype/ctype.c           0x00000000   Number         0  islower_o.o ABSOLUTE
    ../clib/microlib/ctype/ctype.c           0x00000000   Number         0  ispunct_o.o ABSOLUTE
    ../clib/microlib/ctype/ctype.c           0x00000000   Number         0  isdigit_o.o ABSOLUTE
    ../clib/microlib/ctype/ctype.c           0x00000000   Number         0  isgraph_o.o ABSOLUTE
    ../clib/microlib/ctype/ctype.c           0x00000000   Number         0  isalnum_o.o ABSOLUTE
    ../clib/microlib/ctype/ctype.c           0x00000000   Number         0  isprint_o.o ABSOLUTE
    ../clib/microlib/ctype/ctype.c           0x00000000   Number         0  isalpha_o.o ABSOLUTE
    ../clib/microlib/ctype/ctype.c           0x00000000   Number         0  isblank_o.o ABSOLUTE
    ../clib/microlib/ctype/ctype.c           0x00000000   Number         0  iscntrl_o.o ABSOLUTE
    ../clib/microlib/ctype/ctype.c           0x00000000   Number         0  isspace_c.o ABSOLUTE
    ../clib/microlib/ctype/ctype.c           0x00000000   Number         0  ctype_o.o ABSOLUTE
    ../clib/microlib/ctype/ctype.c           0x00000000   Number         0  isspace_o.o ABSOLUTE
    ../clib/microlib/ctype/ctype.c           0x00000000   Number         0  ctype_c.o ABSOLUTE
    ../clib/microlib/ctype/ctype.c           0x00000000   Number         0  isupper_o.o ABSOLUTE
    ../clib/microlib/ctype/ctype.c           0x00000000   Number         0  isxdigit_o.o ABSOLUTE
    ../clib/microlib/ctype/toupper.c         0x00000000   Number         0  toupper.o ABSOLUTE
    ../clib/microlib/division.c              0x00000000   Number         0  uldiv.o ABSOLUTE
    ../clib/microlib/division.c              0x00000000   Number         0  uidiv.o ABSOLUTE
    ../clib/microlib/errno.c                 0x00000000   Number         0  errno.o ABSOLUTE
    ../clib/microlib/init/entry.s            0x00000000   Number         0  entry5.o ABSOLUTE
    ../clib/microlib/init/entry.s            0x00000000   Number         0  entry11a.o ABSOLUTE
    ../clib/microlib/init/entry.s            0x00000000   Number         0  entry8a.o ABSOLUTE
    ../clib/microlib/init/entry.s            0x00000000   Number         0  entry10b.o ABSOLUTE
    ../clib/microlib/init/entry.s            0x00000000   Number         0  entry11b.o ABSOLUTE
    ../clib/microlib/init/entry.s            0x00000000   Number         0  entry.o ABSOLUTE
    ../clib/microlib/init/entry.s            0x00000000   Number         0  entry7b.o ABSOLUTE
    ../clib/microlib/init/entry.s            0x00000000   Number         0  entry9a.o ABSOLUTE
    ../clib/microlib/init/entry.s            0x00000000   Number         0  entry10a.o ABSOLUTE
    ../clib/microlib/init/entry.s            0x00000000   Number         0  entry7a.o ABSOLUTE
    ../clib/microlib/init/entry.s            0x00000000   Number         0  entry9b.o ABSOLUTE
    ../clib/microlib/init/entry.s            0x00000000   Number         0  entry8b.o ABSOLUTE
    ../clib/microlib/init/entry.s            0x00000000   Number         0  entry2.o ABSOLUTE
    ../clib/microlib/longlong.c              0x00000000   Number         0  llsshr.o ABSOLUTE
    ../clib/microlib/longlong.c              0x00000000   Number         0  llushr.o ABSOLUTE
    ../clib/microlib/longlong.c              0x00000000   Number         0  llshl.o ABSOLUTE
    ../clib/microlib/printf/printf.c         0x00000000   Number         0  printf7.o ABSOLUTE
    ../clib/microlib/printf/printf.c         0x00000000   Number         0  printf6.o ABSOLUTE
    ../clib/microlib/printf/printf.c         0x00000000   Number         0  printf5.o ABSOLUTE
    ../clib/microlib/printf/printf.c         0x00000000   Number         0  printf4.o ABSOLUTE
    ../clib/microlib/printf/printf.c         0x00000000   Number         0  printf3.o ABSOLUTE
    ../clib/microlib/printf/printf.c         0x00000000   Number         0  printf2.o ABSOLUTE
    ../clib/microlib/printf/printf.c         0x00000000   Number         0  printf8.o ABSOLUTE
    ../clib/microlib/printf/printf.c         0x00000000   Number         0  printf0.o ABSOLUTE
    ../clib/microlib/printf/printf.c         0x00000000   Number         0  printfb.o ABSOLUTE
    ../clib/microlib/printf/printf.c         0x00000000   Number         0  printf1.o ABSOLUTE
    ../clib/microlib/printf/printf.c         0x00000000   Number         0  printfa.o ABSOLUTE
    ../clib/microlib/printf/stubs.s          0x00000000   Number         0  stubs.o ABSOLUTE
    ../clib/microlib/stdio/fputc.c           0x00000000   Number         0  fputc.o ABSOLUTE
    ../clib/microlib/stdio/semi.s            0x00000000   Number         0  semi.o ABSOLUTE
    ../clib/microlib/stdio/streams.c         0x00000000   Number         0  stdout.o ABSOLUTE
    ../clib/microlib/string/memchr.c         0x00000000   Number         0  memchr.o ABSOLUTE
    ../clib/microlib/string/memcmp.c         0x00000000   Number         0  memcmp.o ABSOLUTE
    ../clib/microlib/string/memcpy.c         0x00000000   Number         0  memcpya.o ABSOLUTE
    ../clib/microlib/string/memcpy.c         0x00000000   Number         0  memcpyb.o ABSOLUTE
    ../clib/microlib/string/memset.c         0x00000000   Number         0  memseta.o ABSOLUTE
    ../clib/microlib/string/strcat.c         0x00000000   Number         0  strcat.o ABSOLUTE
    ../clib/microlib/string/strcmp.c         0x00000000   Number         0  strcmp.o ABSOLUTE
    ../clib/microlib/string/strcpy.c         0x00000000   Number         0  strcpy.o ABSOLUTE
    ../clib/microlib/string/strlen.c         0x00000000   Number         0  strlen.o ABSOLUTE
    ../clib/microlib/string/strncpy.c        0x00000000   Number         0  strncpy.o ABSOLUTE
    ../clib/microlib/string/strstr.c         0x00000000   Number         0  strstr.o ABSOLUTE
    ../clib/microlib/stubs.s                 0x00000000   Number         0  iusesemip.o ABSOLUTE
    ../clib/microlib/stubs.s                 0x00000000   Number         0  iusefp.o ABSOLUTE
    ../clib/scanf.c                          0x00000000   Number         0  _strtoul.o ABSOLUTE
    ../clib/scanf.c                          0x00000000   Number         0  scanf_fp.o ABSOLUTE
    ../clib/scanf.c                          0x00000000   Number         0  _scanf.o ABSOLUTE
    ../clib/scanf.c                          0x00000000   Number         0  _scanf_str.o ABSOLUTE
    ../clib/scanf.c                          0x00000000   Number         0  _scanf_int.o ABSOLUTE
    ../clib/scanf.c                          0x00000000   Number         0  strtod.o ABSOLUTE
    ../clib/scanf.c                          0x00000000   Number         0  __0sscanf.o ABSOLUTE
    ../clib/scanf.c                          0x00000000   Number         0  _chval.o ABSOLUTE
    ../clib/scanf.c                          0x00000000   Number         0  scanf_char.o ABSOLUTE
    ../clib/scanf.c                          0x00000000   Number         0  strtol.o ABSOLUTE
    ../clib/scanf.c                          0x00000000   Number         0  _sgetc.o ABSOLUTE
    ../fplib/microlib/d2f.c                  0x00000000   Number         0  d2f.o ABSOLUTE
    ../fplib/microlib/f2d.c                  0x00000000   Number         0  f2d.o ABSOLUTE
    ../fplib/microlib/fpadd.c                0x00000000   Number         0  dadd.o ABSOLUTE
    ../fplib/microlib/fpadd.c                0x00000000   Number         0  fadd.o ABSOLUTE
    ../fplib/microlib/fpdiv.c                0x00000000   Number         0  ddiv.o ABSOLUTE
    ../fplib/microlib/fpdiv.c                0x00000000   Number         0  fdiv.o ABSOLUTE
    ../fplib/microlib/fpepilogue.c           0x00000000   Number         0  depilogue.o ABSOLUTE
    ../fplib/microlib/fpepilogue.c           0x00000000   Number         0  fepilogue.o ABSOLUTE
    ../fplib/microlib/fpfix.c                0x00000000   Number         0  dfixui.o ABSOLUTE
    ../fplib/microlib/fpfix.c                0x00000000   Number         0  dfixul.o ABSOLUTE
    ../fplib/microlib/fpfix.c                0x00000000   Number         0  ffixui.o ABSOLUTE
    ../fplib/microlib/fpflt.c                0x00000000   Number         0  dfltui.o ABSOLUTE
    ../fplib/microlib/fpflt.c                0x00000000   Number         0  dfltul.o ABSOLUTE
    ../fplib/microlib/fpflt.c                0x00000000   Number         0  ffltui.o ABSOLUTE
    ../fplib/microlib/fpflt.c                0x00000000   Number         0  fflti.o ABSOLUTE
    ../fplib/microlib/fpmul.c                0x00000000   Number         0  dmul.o ABSOLUTE
    ../fplib/microlib/fpmul.c                0x00000000   Number         0  fmul.o ABSOLUTE
    ../mathlib/floor.c                       0x00000000   Number         0  floor.o ABSOLUTE
    ../mathlib/strtod.c                      0x00000000   Number         0  strtod.o ABSOLUTE
    ..\..\CMSIS\CM3\CoreSupport\core_cm3.c   0x00000000   Number         0  core_cm3.o ABSOLUTE
    ..\..\CMSIS\CM3\DeviceSupport\ST\STM32F10x\startup\arm\startup_stm32f10x_md.s 0x00000000   Number         0  startup_stm32f10x_md.o ABSOLUTE
    ..\..\CMSIS\CM3\DeviceSupport\ST\STM32F10x\system_stm32f10x.c 0x00000000   Number         0  system_stm32f10x.o ABSOLUTE
    ..\..\ampm_lib\PPP\fcs.c                 0x00000000   Number         0  fcs.o ABSOLUTE
    ..\..\ampm_lib\PPP\ppp.c                 0x00000000   Number         0  ppp.o ABSOLUTE
    ..\..\ampm_lib\PPP\xtea.c                0x00000000   Number         0  xtea.o ABSOLUTE
    ..\..\ampm_lib\accelerometer\mma7660\mma7660.c 0x00000000   Number         0  mma7660.o ABSOLUTE
    ..\..\ampm_lib\common\comm.c             0x00000000   Number         0  comm.o ABSOLUTE
    ..\..\ampm_lib\db\db.c                   0x00000000   Number         0  db.o ABSOLUTE
    ..\..\ampm_lib\flash_mem\sst25.c         0x00000000   Number         0  sst25.o ABSOLUTE
    ..\..\ampm_lib\gps\gps.c                 0x00000000   Number         0  gps.o ABSOLUTE
    ..\..\ampm_lib\gsm\at_cmd_call_parser.c  0x00000000   Number         0  at_cmd_call_parser.o ABSOLUTE
    ..\..\ampm_lib\gsm\at_cmd_common_parser.c 0x00000000   Number         0  at_cmd_common_parser.o ABSOLUTE
    ..\..\ampm_lib\gsm\at_cmd_sms_parser.c   0x00000000   Number         0  at_cmd_sms_parser.o ABSOLUTE
    ..\..\ampm_lib\gsm\at_command_parser.c   0x00000000   Number         0  at_command_parser.o ABSOLUTE
    ..\..\ampm_lib\gsm\at_gsm_task.c         0x00000000   Number         0  at_gsm_task.o ABSOLUTE
    ..\..\ampm_lib\gsm\at_send_cmd_task.c    0x00000000   Number         0  at_send_cmd_task.o ABSOLUTE
    ..\..\ampm_lib\gsm\gsm_hwr.c             0x00000000   Number         0  gsm_hwr.o ABSOLUTE
    ..\..\ampm_lib\gsm\modem.c               0x00000000   Number         0  modem.o ABSOLUTE
    ..\..\ampm_lib\gsm\sms\pdu.c             0x00000000   Number         0  pdu.o ABSOLUTE
    ..\..\ampm_lib\lib\data_cmp.c            0x00000000   Number         0  data_cmp.o ABSOLUTE
    ..\..\ampm_lib\lib\encoding.c            0x00000000   Number         0  encoding.o ABSOLUTE
    ..\..\ampm_lib\lib\list.c                0x00000000   Number         0  list.o ABSOLUTE
    ..\..\ampm_lib\lib\m_time.c              0x00000000   Number         0  m_time.o ABSOLUTE
    ..\..\ampm_lib\lib\packet_queue.c        0x00000000   Number         0  packet_queue.o ABSOLUTE
    ..\..\ampm_lib\lib\protocol.c            0x00000000   Number         0  protocol.o ABSOLUTE
    ..\..\ampm_lib\lib\ringbuf.c             0x00000000   Number         0  ringbuf.o ABSOLUTE
    ..\..\ampm_lib\lib\sparser.c             0x00000000   Number         0  sparser.o ABSOLUTE
    ..\..\ampm_lib\lib\sys_tick.c            0x00000000   Number         0  sys_tick.o ABSOLUTE
    ..\..\ampm_lib\lib\sys_time.c            0x00000000   Number         0  sys_time.o ABSOLUTE
    ..\..\ampm_lib\lib\tick.c                0x00000000   Number         0  tick.o ABSOLUTE
    ..\..\ampm_lib\uip\resolv.c              0x00000000   Number         0  resolv.o ABSOLUTE
    ..\..\ampm_lib\uip\resolver.c            0x00000000   Number         0  resolver.o ABSOLUTE
    ..\..\ampm_lib\uip\timer.c               0x00000000   Number         0  timer.o ABSOLUTE
    ..\..\ampm_lib\uip\uip.c                 0x00000000   Number         0  uip.o ABSOLUTE
    ..\..\ampm_lib\uip\uip_ppp.c             0x00000000   Number         0  uip_ppp.o ABSOLUTE
    ..\..\driver\STM32F10x_StdPeriph_Driver\src\stm32f10x_adc.c 0x00000000   Number         0  stm32f10x_adc.o ABSOLUTE
    ..\..\driver\STM32F10x_StdPeriph_Driver\src\stm32f10x_dac.c 0x00000000   Number         0  stm32f10x_dac.o ABSOLUTE
    ..\..\driver\STM32F10x_StdPeriph_Driver\src\stm32f10x_dma.c 0x00000000   Number         0  stm32f10x_dma.o ABSOLUTE
    ..\..\driver\STM32F10x_StdPeriph_Driver\src\stm32f10x_flash.c 0x00000000   Number         0  stm32f10x_flash.o ABSOLUTE
    ..\..\driver\STM32F10x_StdPeriph_Driver\src\stm32f10x_gpio.c 0x00000000   Number         0  stm32f10x_gpio.o ABSOLUTE
    ..\..\driver\STM32F10x_StdPeriph_Driver\src\stm32f10x_iwdg.c 0x00000000   Number         0  stm32f10x_iwdg.o ABSOLUTE
    ..\..\driver\STM32F10x_StdPeriph_Driver\src\stm32f10x_rcc.c 0x00000000   Number         0  stm32f10x_rcc.o ABSOLUTE
    ..\..\driver\ampm\stm32\exti.c           0x00000000   Number         0  exti.o ABSOLUTE
    ..\..\driver\ampm\stm32\i2c.c            0x00000000   Number         0  i2c.o ABSOLUTE
    ..\..\driver\ampm\stm32\low_power_mode.c 0x00000000   Number         0  low_power_mode.o ABSOLUTE
    ..\..\driver\ampm\stm32\rtc.c            0x00000000   Number         0  rtc.o ABSOLUTE
    ..\..\driver\ampm\stm32\spi.c            0x00000000   Number         0  spi.o ABSOLUTE
    ..\..\driver\ampm\stm32\uart1.c          0x00000000   Number         0  uart1.o ABSOLUTE
    ..\..\driver\ampm\stm32\uart2.c          0x00000000   Number         0  uart2.o ABSOLUTE
    ..\..\driver\ampm\stm32\uart3.c          0x00000000   Number         0  uart3.o ABSOLUTE
    ..\..\src\accelerometer_task.c           0x00000000   Number         0  accelerometer_task.o ABSOLUTE
    ..\..\src\adc_task.c                     0x00000000   Number         0  adc_task.o ABSOLUTE
    ..\..\src\alarm_task.c                   0x00000000   Number         0  alarm_task.o ABSOLUTE
    ..\..\src\app_config_task.c              0x00000000   Number         0  app_config_task.o ABSOLUTE
    ..\..\src\call_task.c                    0x00000000   Number         0  call_task.o ABSOLUTE
    ..\..\src\database_app.c                 0x00000000   Number         0  database_app.o ABSOLUTE
    ..\..\src\firmware_task.c                0x00000000   Number         0  firmware_task.o ABSOLUTE
    ..\..\src\hw_config.c                    0x00000000   Number         0  hw_config.o ABSOLUTE
    ..\..\src\led.c                          0x00000000   Number         0  led.o ABSOLUTE
    ..\..\src\main.c                         0x00000000   Number         0  main.o ABSOLUTE
    ..\..\src\reporter.c                     0x00000000   Number         0  reporter.o ABSOLUTE
    ..\..\src\sms_task.c                     0x00000000   Number         0  sms_task.o ABSOLUTE
    ..\..\src\system_config.c                0x00000000   Number         0  system_config.o ABSOLUTE
    ..\..\src\tcp_ip_task.c                  0x00000000   Number         0  tcp_ip_task.o ABSOLUTE
    ..\..\src\tracker.c                      0x00000000   Number         0  tracker.o ABSOLUTE
    ..\..\src\uart_config_task.c             0x00000000   Number         0  uart_config_task.o ABSOLUTE
    ..\\..\\CMSIS\\CM3\\CoreSupport\\core_cm3.c 0x00000000   Number         0  core_cm3.o ABSOLUTE
    cdcmple.s                                0x00000000   Number         0  cdcmple.o ABSOLUTE
    cdrcmple.s                               0x00000000   Number         0  cdrcmple.o ABSOLUTE
    cfcmple.s                                0x00000000   Number         0  cfcmple.o ABSOLUTE
    cfrcmple.s                               0x00000000   Number         0  cfrcmple.o ABSOLUTE
    dc.s                                     0x00000000   Number         0  dc.o ABSOLUTE
    handlers.s                               0x00000000   Number         0  handlers.o ABSOLUTE
    init.s                                   0x00000000   Number         0  init.o ABSOLUTE
    RESET                                    0x08002800   Section      236  startup_stm32f10x_md.o(RESET)
    .ARM.Collect$$$$00000000                 0x080028ec   Section        0  entry.o(.ARM.Collect$$$$00000000)
    .ARM.Collect$$$$00000001                 0x080028ec   Section        4  entry2.o(.ARM.Collect$$$$00000001)
    .ARM.Collect$$$$00000004                 0x080028f0   Section        4  entry5.o(.ARM.Collect$$$$00000004)
    .ARM.Collect$$$$00000008                 0x080028f4   Section        0  entry7b.o(.ARM.Collect$$$$00000008)
    .ARM.Collect$$$$0000000A                 0x080028f4   Section        0  entry8b.o(.ARM.Collect$$$$0000000A)
    .ARM.Collect$$$$0000000B                 0x080028f4   Section        8  entry9a.o(.ARM.Collect$$$$0000000B)
    .ARM.Collect$$$$0000000D                 0x080028fc   Section        0  entry10a.o(.ARM.Collect$$$$0000000D)
    .ARM.Collect$$$$0000000F                 0x080028fc   Section        0  entry11a.o(.ARM.Collect$$$$0000000F)
    .ARM.Collect$$$$00002712                 0x080028fc   Section        4  entry2.o(.ARM.Collect$$$$00002712)
    __lit__00000000                          0x080028fc   Data           4  entry2.o(.ARM.Collect$$$$00002712)
    .text                                    0x08002900   Section        0  main.o(.text)
    .text                                    0x0800321c   Section        0  system_config.o(.text)
    .text                                    0x08003580   Section        0  hw_config.o(.text)
    .text                                    0x080037bc   Section        0  tracker.o(.text)
    .text                                    0x080043d8   Section        0  adc_task.o(.text)
    .text                                    0x08004770   Section        0  sms_task.o(.text)
    .text                                    0x08005004   Section        0  call_task.o(.text)
    .text                                    0x08005100   Section        0  app_config_task.o(.text)
    NVIC_SystemReset                         0x08005b67   Thumb Code    26  app_config_task.o(.text)
    .text                                    0x08005ba0   Section        0  uart_config_task.o(.text)
    .text                                    0x08005c14   Section        0  database_app.o(.text)
    .text                                    0x08005dac   Section        0  alarm_task.o(.text)
    .text                                    0x08005f54   Section        0  led.o(.text)
    .text                                    0x0800603c   Section        0  reporter.o(.text)
    .text                                    0x08006644   Section        0  firmware_task.o(.text)
    .text                                    0x08006e38   Section        0  tcp_ip_task.o(.text)
    .text                                    0x08006f08   Section        0  accelerometer_task.o(.text)
    .text                                    0x08007114   Section       28  startup_stm32f10x_md.o(.text)
    .text                                    0x08007130   Section        0  system_stm32f10x.o(.text)
    SetSysClockTo48                          0x08007131   Thumb Code   212  system_stm32f10x.o(.text)
    SetSysClock                              0x08007205   Thumb Code     8  system_stm32f10x.o(.text)
    .text                                    0x08007310   Section        0  tick.o(.text)
    .text                                    0x08007378   Section        0  stm32f10x_flash.o(.text)
    .text                                    0x08007934   Section        0  stm32f10x_iwdg.o(.text)
    .text                                    0x08007974   Section        0  uart1.o(.text)
    .text                                    0x08007c8c   Section        0  uart2.o(.text)
    .text                                    0x08007e48   Section        0  uart3.o(.text)
    .text                                    0x080080a0   Section        0  i2c.o(.text)
    .text                                    0x08008678   Section        0  spi.o(.text)
    .text                                    0x08008958   Section        0  rtc.o(.text)
    NVIC_SystemReset                         0x08008c7f   Thumb Code    26  rtc.o(.text)
    .text                                    0x08008d04   Section        0  exti.o(.text)
    NVIC_SetPriority                         0x08008d05   Thumb Code    32  exti.o(.text)
    NVIC_EnableIRQ                           0x08008ff1   Thumb Code    24  exti.o(.text)
    .text                                    0x08009024   Section        0  stm32f10x_gpio.o(.text)
    .text                                    0x0800937c   Section        0  stm32f10x_dma.o(.text)
    .text                                    0x080095cc   Section        0  stm32f10x_adc.o(.text)
    .text                                    0x08009a1c   Section        0  stm32f10x_rcc.o(.text)
    .text                                    0x08009dc0   Section        0  resolver.o(.text)
    .text                                    0x08009e80   Section        0  resolv.o(.text)
    parse_name                               0x08009e81   Thumb Code    30  resolv.o(.text)
    check_entries                            0x08009e9f   Thumb Code   264  resolv.o(.text)
    newdata                                  0x08009fa7   Thumb Code   230  resolv.o(.text)
    .text                                    0x0800a21c   Section        0  timer.o(.text)
    .text                                    0x0800a268   Section        0  uip.o(.text)
    chksum                                   0x0800a2d9   Thumb Code    70  uip.o(.text)
    upper_layer_chksum                       0x0800a361   Thumb Code    68  uip.o(.text)
    uip_add_rcv_nxt                          0x0800a675   Thumb Code    58  uip.o(.text)
    .text                                    0x0800b614   Section        0  uip_ppp.o(.text)
    .text                                    0x0800b784   Section        0  fcs.o(.text)
    .text                                    0x0800b7c8   Section        0  ppp.o(.text)
    PPP__SendEchoReply                       0x0800b89d   Thumb Code    40  ppp.o(.text)
    PPP__SendTermReq                         0x0800b8c5   Thumb Code    24  ppp.o(.text)
    PPP__ThisLayerDown                       0x0800b8dd   Thumb Code    84  ppp.o(.text)
    PPP__SendCodeRej                         0x0800b931   Thumb Code    10  ppp.o(.text)
    PPP__SendConfigReq                       0x0800b93b   Thumb Code   376  ppp.o(.text)
    PPP__SendTermAck                         0x0800bab3   Thumb Code    40  ppp.o(.text)
    PPP__SendConfigNackRej                   0x0800badb   Thumb Code    22  ppp.o(.text)
    PPP__SendConfigAck                       0x0800baf1   Thumb Code    40  ppp.o(.text)
    PPP__ThisLayerUp                         0x0800bb19   Thumb Code   894  ppp.o(.text)
    PPP__ThisLayerFinished                   0x0800be97   Thumb Code    84  ppp.o(.text)
    PPP__ThisLayerStarted                    0x0800beeb   Thumb Code    46  ppp.o(.text)
    PPP__ManageState                         0x0800bf19   Thumb Code  1616  ppp.o(.text)
    PPP__CheckLCPOptions                     0x0800c569   Thumb Code   356  ppp.o(.text)
    PPP__ProcessPacket                       0x0800c6cd   Thumb Code   850  ppp.o(.text)
    PPP__Timer                               0x0800cc41   Thumb Code   174  ppp.o(.text)
    PPP__Open                                0x0800ccef   Thumb Code    82  ppp.o(.text)
    .text                                    0x0800ce38   Section        0  m_time.o(.text)
    .text                                    0x0800d484   Section        0  sys_time.o(.text)
    .text                                    0x0800d720   Section        0  data_cmp.o(.text)
    .text                                    0x0800d774   Section        0  encoding.o(.text)
    .text                                    0x0800d958   Section        0  list.o(.text)
    .text                                    0x0800da6c   Section        0  ringbuf.o(.text)
    .text                                    0x0800db00   Section        0  sparser.o(.text)
    .text                                    0x0800dc4c   Section        0  sys_tick.o(.text)
    .text                                    0x0800dd48   Section        0  gsm_hwr.o(.text)
    .text                                    0x0800de54   Section        0  at_cmd_call_parser.o(.text)
    .text                                    0x0800ed84   Section        0  at_cmd_common_parser.o(.text)
    .text                                    0x0800f8b0   Section        0  at_cmd_sms_parser.o(.text)
    .text                                    0x08010450   Section        0  at_command_parser.o(.text)
    .text                                    0x080104a4   Section        0  at_gsm_task.o(.text)
    .text                                    0x080107b4   Section        0  at_send_cmd_task.o(.text)
    .text                                    0x08010c08   Section        0  modem.o(.text)
    .text                                    0x08010f1c   Section        0  pdu.o(.text)
    SwapDecimalNibble                        0x08010f1d   Thumb Code    40  pdu.o(.text)
    EncodePDUMessage                         0x08010f45   Thumb Code   146  pdu.o(.text)
    DecodePDUMessage                         0x08010fd7   Thumb Code   146  pdu.o(.text)
    EncodePhoneNumber                        0x08011069   Thumb Code   122  pdu.o(.text)
    DecodePhoneNumber                        0x080110e3   Thumb Code    74  pdu.o(.text)
    .text                                    0x08011420   Section        0  comm.o(.text)
    .text                                    0x08011474   Section        0  gps.o(.text)
    .text                                    0x080123b0   Section        0  db.o(.text)
    .text                                    0x08012964   Section        0  sst25.o(.text)
    SST25__Status                            0x0801297b   Thumb Code    64  sst25.o(.text)
    SST25__WriteEnable                       0x080129bb   Thumb Code   100  sst25.o(.text)
    .text                                    0x08012c48   Section        0  mma7660.o(.text)
    .text                                    0x08012d6c   Section        0  ctype_o.o(.text)
    .text                                    0x08012d74   Section        0  isspace_o.o(.text)
    .text                                    0x08012d86   Section        0  toupper.o(.text)
    .text                                    0x08012d92   Section        0  memcpya.o(.text)
    .text                                    0x08012db6   Section        0  memseta.o(.text)
    .text                                    0x08012dda   Section        0  strcat.o(.text)
    .text                                    0x08012df2   Section        0  strstr.o(.text)
    .text                                    0x08012e16   Section        0  strncpy.o(.text)
    .text                                    0x08012e2e   Section        0  strlen.o(.text)
    .text                                    0x08012e3c   Section        0  strcmp.o(.text)
    .text                                    0x08012e58   Section        0  memchr.o(.text)
    .text                                    0x08012e6c   Section        0  memcmp.o(.text)
    .text                                    0x08012e86   Section        0  strcpy.o(.text)
    .text                                    0x08012e98   Section        0  __0sscanf.o(.text)
    .text                                    0x08012ed0   Section        0  _scanf_int.o(.text)
    .text                                    0x08013020   Section        0  _scanf_str.o(.text)
    .text                                    0x080130fc   Section        0  scanf_fp.o(.text)
    _fp_value                                0x080130fd   Thumb Code   256  scanf_fp.o(.text)
    .text                                    0x08013438   Section        0  strtol.o(.text)
    .text                                    0x080134a8   Section        0  fadd.o(.text)
    .text                                    0x08013558   Section        0  fmul.o(.text)
    .text                                    0x080135c4   Section        0  fdiv.o(.text)
    .text                                    0x08013644   Section        0  dadd.o(.text)
    .text                                    0x08013792   Section        0  dmul.o(.text)
    .text                                    0x08013876   Section        0  ddiv.o(.text)
    .text                                    0x08013954   Section        0  fflti.o(.text)
    .text                                    0x08013966   Section        0  ffltui.o(.text)
    .text                                    0x08013970   Section        0  dfltui.o(.text)
    .text                                    0x0801398a   Section        0  ffixui.o(.text)
    .text                                    0x080139b2   Section        0  dfixui.o(.text)
    .text                                    0x080139e4   Section        0  f2d.o(.text)
    .text                                    0x08013a0c   Section       40  cdcmple.o(.text)
    .text                                    0x08013a34   Section       40  cdrcmple.o(.text)
    .text                                    0x08013a5c   Section        0  d2f.o(.text)
    .text                                    0x08013a94   Section       20  cfcmple.o(.text)
    .text                                    0x08013aa8   Section       20  cfrcmple.o(.text)
    .text                                    0x08013abc   Section        0  uidiv.o(.text)
    .text                                    0x08013ae8   Section        0  uldiv.o(.text)
    .text                                    0x08013b4a   Section        0  llshl.o(.text)
    .text                                    0x08013b68   Section        0  llushr.o(.text)
    .text                                    0x08013b88   Section        0  llsshr.o(.text)
    .text                                    0x08013bac   Section        0  _chval.o(.text)
    .text                                    0x08013bc8   Section        0  scanf_char.o(.text)
    _scanf_char_input                        0x08013bc9   Thumb Code    12  scanf_char.o(.text)
    .text                                    0x08013bf0   Section        0  _sgetc.o(.text)
    .text                                    0x08013c30   Section        0  _strtoul.o(.text)
    .text                                    0x08013cd0   Section        0  strtod.o(.text)
    _local_sscanf                            0x08013cd1   Thumb Code    54  strtod.o(.text)
    .text                                    0x08013d6c   Section        0  iusefp.o(.text)
    .text                                    0x08013d6c   Section        0  fepilogue.o(.text)
    .text                                    0x08013dd8   Section        0  depilogue.o(.text)
    .text                                    0x08013e96   Section        0  dfltul.o(.text)
    .text                                    0x08013eae   Section        0  dfixul.o(.text)
    .text                                    0x08013ee0   Section       36  init.o(.text)
    .text                                    0x08013f04   Section        0  _scanf.o(.text)
    .text                                    0x08014230   Section        0  __dczerorl2.o(.text)
    i.__0sprintf                             0x0801428c   Section        0  printfa.o(i.__0sprintf)
    i.__0vsprintf                            0x080142b4   Section        0  printfa.o(i.__0vsprintf)
    i.__aeabi_errno_addr                     0x080142d8   Section        0  errno.o(i.__aeabi_errno_addr)
    i.__scatterload_copy                     0x080142e0   Section       14  handlers.o(i.__scatterload_copy)
    i.__scatterload_null                     0x080142ee   Section        2  handlers.o(i.__scatterload_null)
    i.__scatterload_zeroinit                 0x080142f0   Section       14  handlers.o(i.__scatterload_zeroinit)
    i._fp_digits                             0x08014300   Section        0  printfa.o(i._fp_digits)
    _fp_digits                               0x08014301   Thumb Code   326  printfa.o(i._fp_digits)
    i._is_digit                              0x0801445c   Section        0  scanf_fp.o(i._is_digit)
    i._printf_core                           0x0801446c   Section        0  printfa.o(i._printf_core)
    _printf_core                             0x0801446d   Thumb Code  1762  printfa.o(i._printf_core)
    i._printf_post_padding                   0x08014b5c   Section        0  printfa.o(i._printf_post_padding)
    _printf_post_padding                     0x08014b5d   Thumb Code    38  printfa.o(i._printf_post_padding)
    i._printf_pre_padding                    0x08014b82   Section        0  printfa.o(i._printf_pre_padding)
    _printf_pre_padding                      0x08014b83   Thumb Code    48  printfa.o(i._printf_pre_padding)
    i._sputc                                 0x08014bb2   Section        0  printfa.o(i._sputc)
    _sputc                                   0x08014bb3   Thumb Code    10  printfa.o(i._sputc)
    i.floor                                  0x08014bbc   Section        0  floor.o(i.floor)
    i.strtod                                 0x08014c98   Section        0  strtod.o(i.strtod)
    .constdata                               0x08014cb4   Section       21  sms_task.o(.constdata)
    .constdata                               0x08014cc9   Section       23  call_task.o(.constdata)
    .constdata                               0x08014ce0   Section       20  alarm_task.o(.constdata)
    .constdata                               0x08014cf4   Section        4  rtc.o(.constdata)
    .constdata                               0x08014cf8   Section        8  uip.o(.constdata)
    .constdata                               0x08014d00   Section      512  fcs.o(.constdata)
    .constdata                               0x08014f00   Section       96  m_time.o(.constdata)
    .constdata                               0x08014f60   Section        6  at_cmd_call_parser.o(.constdata)
    .constdata                               0x08014f68   Section      119  at_command_parser.o(.constdata)
    AT_ProcessCmd                            0x08014f68   Data         112  at_command_parser.o(.constdata)
    .constdata                               0x08014fe0   Section      280  at_gsm_task.o(.constdata)
    .constdata                               0x080150f8   Section       80  gps.o(.constdata)
    GPS_ProcessCmd                           0x080150f8   Data          80  gps.o(.constdata)
    .constdata                               0x08015148   Section      129  ctype_o.o(.constdata)
    .constdata                               0x080151cc   Section        4  ctype_o.o(.constdata)
    table                                    0x080151cc   Data           4  ctype_o.o(.constdata)
    .conststring                             0x080151d0   Section      129  at_command_parser.o(.conststring)
    .conststring                             0x08015251   Section      160  at_gsm_task.o(.conststring)
    .data                                    0x20000000   Section      276  main.o(.data)
    .data                                    0x20000114   Section        2  system_config.o(.data)
    .data                                    0x20000118   Section       29  tracker.o(.data)
    .data                                    0x20000138   Section       28  adc_task.o(.data)
    time                                     0x2000014c   Data           4  adc_task.o(.data)
    i                                        0x20000150   Data           4  adc_task.o(.data)
    .data                                    0x20000154   Section       12  sms_task.o(.data)
    time                                     0x2000015c   Data           4  sms_task.o(.data)
    .data                                    0x20000160   Section       32  app_config_task.o(.data)
    flagCfgProcessInUse                      0x2000016d   Data           1  app_config_task.o(.data)
    .data                                    0x20000180   Section       12  alarm_task.o(.data)
    time                                     0x20000188   Data           4  alarm_task.o(.data)
    .data                                    0x20000190   Section       20  led.o(.data)
    ledTimeNew                               0x20000190   Data           8  led.o(.data)
    ledTimeOld                               0x20000198   Data           8  led.o(.data)
    timeOld                                  0x200001a0   Data           4  led.o(.data)
    .data                                    0x200001a4   Section       60  reporter.o(.data)
    .data                                    0x200001e0   Section       44  firmware_task.o(.data)
    fwRexmitCnt                              0x200001e2   Data           2  firmware_task.o(.data)
    .data                                    0x2000020c   Section       34  accelerometer_task.o(.data)
    .data                                    0x20000230   Section       20  system_stm32f10x.o(.data)
    .data                                    0x20000244   Section       24  rtc.o(.data)
    .data                                    0x2000025c   Section       20  stm32f10x_rcc.o(.data)
    APBAHBPrescTable                         0x2000025c   Data          16  stm32f10x_rcc.o(.data)
    ADCPrescTable                            0x2000026c   Data           4  stm32f10x_rcc.o(.data)
    .data                                    0x20000270   Section        9  resolver.o(.data)
    .data                                    0x2000027c   Section       17  resolv.o(.data)
    resolv_conn                              0x2000027c   Data           4  resolv.o(.data)
    i                                        0x20000280   Data           1  resolv.o(.data)
    n                                        0x20000281   Data           1  resolv.o(.data)
    endquery                                 0x20000282   Data           5  resolv.o(.data)
    nquestions                               0x20000287   Data           1  resolv.o(.data)
    nanswers                                 0x20000288   Data           1  resolv.o(.data)
    i                                        0x20000289   Data           1  resolv.o(.data)
    i                                        0x2000028a   Data           1  resolv.o(.data)
    i                                        0x2000028b   Data           1  resolv.o(.data)
    seqno                                    0x2000028c   Data           1  resolv.o(.data)
    .data                                    0x20000290   Section        4  timer.o(.data)
    .data                                    0x20000294   Section       64  uip.o(.data)
    ipid                                     0x200002c4   Data           2  uip.o(.data)
    iss                                      0x200002c6   Data           4  uip.o(.data)
    lastport                                 0x200002ca   Data           2  uip.o(.data)
    c                                        0x200002d0   Data           1  uip.o(.data)
    opt                                      0x200002d1   Data           1  uip.o(.data)
    tmp16                                    0x200002d2   Data           2  uip.o(.data)
    .data                                    0x200002d4   Section        8  uip_ppp.o(.data)
    .data                                    0x200002dc   Section       27  ppp.o(.data)
    .data                                    0x200002f8   Section       12  m_time.o(.data)
    .data                                    0x20000304   Section       28  sys_time.o(.data)
    .data                                    0x20000320   Section        1  sparser.o(.data)
    lastChar                                 0x20000320   Data           1  sparser.o(.data)
    .data                                    0x20000328   Section       16  sys_tick.o(.data)
    .data                                    0x20000338   Section        8  at_cmd_call_parser.o(.data)
    cnt                                      0x2000033c   Data           1  at_cmd_call_parser.o(.data)
    errorCode                                0x2000033e   Data           2  at_cmd_call_parser.o(.data)
    .data                                    0x20000340   Section       34  at_cmd_common_parser.o(.data)
    level                                    0x20000350   Data           4  at_cmd_common_parser.o(.data)
    number                                   0x20000354   Data           2  at_cmd_common_parser.o(.data)
    timezone_pos                             0x20000356   Data           2  at_cmd_common_parser.o(.data)
    number                                   0x20000358   Data           2  at_cmd_common_parser.o(.data)
    .data                                    0x20000364   Section       46  at_cmd_sms_parser.o(.data)
    smsList_list                             0x20000364   Data           4  at_cmd_sms_parser.o(.data)
    smsList                                  0x20000368   Data           4  at_cmd_sms_parser.o(.data)
    comma                                    0x20000371   Data           1  at_cmd_sms_parser.o(.data)
    getSmsDataFlag                           0x20000372   Data           1  at_cmd_sms_parser.o(.data)
    u8pt                                     0x20000374   Data           4  at_cmd_sms_parser.o(.data)
    u8pt1                                    0x20000378   Data           4  at_cmd_sms_parser.o(.data)
    u8pt2                                    0x2000037c   Data           4  at_cmd_sms_parser.o(.data)
    len                                      0x20000380   Data           1  at_cmd_sms_parser.o(.data)
    length                                   0x20000384   Data           4  at_cmd_sms_parser.o(.data)
    length                                   0x20000388   Data           4  at_cmd_sms_parser.o(.data)
    .data                                    0x20000394   Section        8  at_command_parser.o(.data)
    RingBuffInit                             0x20000398   Data           4  at_command_parser.o(.data)
    .data                                    0x2000039c   Section       20  at_gsm_task.o(.data)
    .data                                    0x200003b0   Section       24  at_send_cmd_task.o(.data)
    atCmdList_list                           0x200003b0   Data           4  at_send_cmd_task.o(.data)
    atCmdList                                0x200003b4   Data           4  at_send_cmd_task.o(.data)
    .data                                    0x200003c8   Section       28  modem.o(.data)
    .data                                    0x200003e4   Section        9  comm.o(.data)
    .data                                    0x200003f0   Section       40  gps.o(.data)
    gpsTime                                  0x200003fc   Data           4  gps.o(.data)
    .data                                    0x20000418   Section       12  db.o(.data)
    .data                                    0x20000424   Section        4  sst25.o(.data)
    .data                                    0x20000428   Section        8  mma7660.o(.data)
    .data                                    0x20000430   Section        4  errno.o(.data)
    _errno                                   0x20000430   Data           4  errno.o(.data)
    .bss                                     0x20000434   Section       36  main.o(.bss)
    .bss                                     0x20000458   Section      406  system_config.o(.bss)
    .bss                                     0x200005f0   Section       32  hw_config.o(.bss)
    .bss                                     0x20000610   Section      144  tracker.o(.bss)
    speedSamples                             0x20000610   Data          20  tracker.o(.bss)
    .bss                                     0x200006a0   Section       92  adc_task.o(.bss)
    .bss                                     0x200006fc   Section      424  sms_task.o(.bss)
    .bss                                     0x200008a4   Section      180  call_task.o(.bss)
    .bss                                     0x20000958   Section     1308  app_config_task.o(.bss)
    buffer                                   0x20000958   Data         256  app_config_task.o(.bss)
    .bss                                     0x20000e74   Section       92  uart_config_task.o(.bss)
    .bss                                     0x20000ed0   Section      132  database_app.o(.bss)
    .bss                                     0x20000f54   Section      192  alarm_task.o(.bss)
    .bss                                     0x20001014   Section       20  led.o(.bss)
    .bss                                     0x20001028   Section      268  reporter.o(.bss)
    .bss                                     0x20001134   Section     1358  firmware_task.o(.bss)
    .bss                                     0x20001684   Section       24  tcp_ip_task.o(.bss)
    .bss                                     0x2000169c   Section     2080  uart1.o(.bss)
    .bss                                     0x20001ebc   Section      144  uart2.o(.bss)
    .bss                                     0x20001f4c   Section     1056  uart3.o(.bss)
    .bss                                     0x2000236c   Section      296  resolv.o(.bss)
    names                                    0x2000236c   Data         296  resolv.o(.bss)
    .bss                                     0x20002494   Section     1740  uip.o(.bss)
    .bss                                     0x20002b60   Section      121  ppp.o(.bss)
    .bss                                     0x20002bdc   Section      136  at_cmd_call_parser.o(.bss)
    .bss                                     0x20002c64   Section       76  at_cmd_common_parser.o(.bss)
    .bss                                     0x20002cb0   Section      348  at_cmd_sms_parser.o(.bss)
    .bss                                     0x20002e0c   Section       32  at_command_parser.o(.bss)
    .bss                                     0x20002e2c   Section      116  at_gsm_task.o(.bss)
    .bss                                     0x20002ea0   Section      232  at_send_cmd_task.o(.bss)
    .bss                                     0x20002f88   Section      144  modem.o(.bss)
    buffer                                   0x20002f88   Data         128  modem.o(.bss)
    .bss                                     0x20003018   Section     1344  gps.o(.bss)
    .bss                                     0x20003558   Section      233  db.o(.bss)
    STACK                                    0x20003648   Section     1024  startup_stm32f10x_md.o(STACK)

    Global Symbols

    Symbol Name                              Value     Ov Type        Size  Object(Section)

    BuildAttributes$$THM_ISAv4$P$D$K$B$S$PE$A:L22UL41UL21$X:L11$S22US41US21$IEEE1$IW$USESV6$~STKCKD$USESV7$~SHL$OTIME$ROPI$IEEEJ$EBA8$MICROLIB$REQ8$PRES8$EABIv2 0x00000000   Number         0  anon$$obj.o ABSOLUTE
    __ARM_use_no_argv                        0x00000000   Number         0  main.o ABSOLUTE
    _printf_a                                0x00000000   Number         0  stubs.o ABSOLUTE
    _printf_c                                0x00000000   Number         0  stubs.o ABSOLUTE
    _printf_charcount                        0x00000000   Number         0  stubs.o ABSOLUTE
    _printf_d                                0x00000000   Number         0  stubs.o ABSOLUTE
    _printf_e                                0x00000000   Number         0  stubs.o ABSOLUTE
    _printf_f                                0x00000000   Number         0  stubs.o ABSOLUTE
    _printf_flags                            0x00000000   Number         0  stubs.o ABSOLUTE
    _printf_fp_dec                           0x00000000   Number         0  stubs.o ABSOLUTE
    _printf_fp_hex                           0x00000000   Number         0  stubs.o ABSOLUTE
    _printf_g                                0x00000000   Number         0  stubs.o ABSOLUTE
    _printf_i                                0x00000000   Number         0  stubs.o ABSOLUTE
    _printf_int_dec                          0x00000000   Number         0  stubs.o ABSOLUTE
    _printf_l                                0x00000000   Number         0  stubs.o ABSOLUTE
    _printf_lc                               0x00000000   Number         0  stubs.o ABSOLUTE
    _printf_ll                               0x00000000   Number         0  stubs.o ABSOLUTE
    _printf_lld                              0x00000000   Number         0  stubs.o ABSOLUTE
    _printf_lli                              0x00000000   Number         0  stubs.o ABSOLUTE
    _printf_llo                              0x00000000   Number         0  stubs.o ABSOLUTE
    _printf_llu                              0x00000000   Number         0  stubs.o ABSOLUTE
    _printf_llx                              0x00000000   Number         0  stubs.o ABSOLUTE
    _printf_longlong_dec                     0x00000000   Number         0  stubs.o ABSOLUTE
    _printf_longlong_hex                     0x00000000   Number         0  stubs.o ABSOLUTE
    _printf_longlong_oct                     0x00000000   Number         0  stubs.o ABSOLUTE
    _printf_ls                               0x00000000   Number         0  stubs.o ABSOLUTE
    _printf_mbtowc                           0x00000000   Number         0  stubs.o ABSOLUTE
    _printf_n                                0x00000000   Number         0  stubs.o ABSOLUTE
    _printf_o                                0x00000000   Number         0  stubs.o ABSOLUTE
    _printf_p                                0x00000000   Number         0  stubs.o ABSOLUTE
    _printf_percent                          0x00000000   Number         0  stubs.o ABSOLUTE
    _printf_pre_padding                      0x00000000   Number         0  stubs.o ABSOLUTE
    _printf_return_value                     0x00000000   Number         0  stubs.o ABSOLUTE
    _printf_s                                0x00000000   Number         0  stubs.o ABSOLUTE
    _printf_sizespec                         0x00000000   Number         0  stubs.o ABSOLUTE
    _printf_str                              0x00000000   Number         0  stubs.o ABSOLUTE
    _printf_truncate_signed                  0x00000000   Number         0  stubs.o ABSOLUTE
    _printf_truncate_unsigned                0x00000000   Number         0  stubs.o ABSOLUTE
    _printf_u                                0x00000000   Number         0  stubs.o ABSOLUTE
    _printf_wc                               0x00000000   Number         0  stubs.o ABSOLUTE
    _printf_wctomb                           0x00000000   Number         0  stubs.o ABSOLUTE
    _printf_widthprec                        0x00000000   Number         0  stubs.o ABSOLUTE
    _printf_x                                0x00000000   Number         0  stubs.o ABSOLUTE
    __cpp_initialize__aeabi_                  - Undefined Weak Reference
    __cxa_finalize                            - Undefined Weak Reference
    _clock_init                               - Undefined Weak Reference
    _microlib_exit                            - Undefined Weak Reference
    _scanf_longlong                           - Undefined Weak Reference
    __Vectors_Size                           0x000000ec   Number         0  startup_stm32f10x_md.o ABSOLUTE
    __Vectors                                0x08002800   Data           4  startup_stm32f10x_md.o(RESET)
    __Vectors_End                            0x080028ec   Data           0  startup_stm32f10x_md.o(RESET)
    __main                                   0x080028ed   Thumb Code     0  entry.o(.ARM.Collect$$$$00000000)
    _main_stk                                0x080028ed   Thumb Code     0  entry2.o(.ARM.Collect$$$$00000001)
    _main_scatterload                        0x080028f1   Thumb Code     0  entry5.o(.ARM.Collect$$$$00000004)
    __main_after_scatterload                 0x080028f5   Thumb Code     0  entry5.o(.ARM.Collect$$$$00000004)
    _main_clock                              0x080028f5   Thumb Code     0  entry7b.o(.ARM.Collect$$$$00000008)
    _main_cpp_init                           0x080028f5   Thumb Code     0  entry8b.o(.ARM.Collect$$$$0000000A)
    _main_init                               0x080028f5   Thumb Code     0  entry9a.o(.ARM.Collect$$$$0000000B)
    __rt_final_cpp                           0x080028fd   Thumb Code     0  entry10a.o(.ARM.Collect$$$$0000000D)
    __rt_final_exit                          0x080028fd   Thumb Code     0  entry11a.o(.ARM.Collect$$$$0000000F)
    HardFault_Handler                        0x08002901   Thumb Code    30  main.o(.text)
    TIMER2_Init                              0x0800291f   Thumb Code   120  main.o(.text)
    SysWakeUp                                0x08002997   Thumb Code   106  main.o(.text)
    SysDeInit                                0x08002a01   Thumb Code    38  main.o(.text)
    SysSleep                                 0x08002a27   Thumb Code   378  main.o(.text)
    GSM_GPRS_Task                            0x08002ba1   Thumb Code  1026  main.o(.text)
    AppRun                                   0x08002fa3   Thumb Code    90  main.o(.text)
    SysInit                                  0x08002ffd   Thumb Code   164  main.o(.text)
    main                                     0x080030a1   Thumb Code    30  main.o(.text)
    mCentrelTest                             0x080030bf   Thumb Code   130  main.o(.text)
    TIM2_IRQHandler                          0x08003141   Thumb Code   220  main.o(.text)
    CFG_ReLoad                               0x0800321d   Thumb Code    16  system_config.o(.text)
    CFG_Save                                 0x0800322d   Thumb Code   188  system_config.o(.text)
    CFG_Load                                 0x080032e9   Thumb Code   510  system_config.o(.text)
    CFG_CheckSum                             0x080034e7   Thumb Code    44  system_config.o(.text)
    IO_Init                                  0x08003581   Thumb Code   140  hw_config.o(.text)
    IO_Control                               0x0800360d   Thumb Code   396  hw_config.o(.text)
    GPS_Enable                               0x08003799   Thumb Code    12  hw_config.o(.text)
    GPS_Disable                              0x080037a5   Thumb Code    12  hw_config.o(.text)
    TrackerInit                              0x080037bd   Thumb Code    10  tracker.o(.text)
    TRACKER_Pause                            0x080037c7   Thumb Code     8  tracker.o(.text)
    TRACKER_Resume                           0x080037cf   Thumb Code     8  tracker.o(.text)
    GetDataFromLog                           0x080037d7   Thumb Code    62  tracker.o(.text)
    TrackerTask                              0x08003815   Thumb Code  1214  tracker.o(.text)
    TrackerGetNewData                        0x08003cd3   Thumb Code     8  tracker.o(.text)
    TrackerCrc                               0x08003cdb   Thumb Code    26  tracker.o(.text)
    AddTrackerPacket                         0x08003cf5   Thumb Code  1690  tracker.o(.text)
    PrintTrackerInfo                         0x0800438f   Thumb Code     2  tracker.o(.text)
    ADC_Task                                 0x080043d9   Thumb Code   514  adc_task.o(.text)
    ADC_TaskDeInit                           0x080045db   Thumb Code    26  adc_task.o(.text)
    ADC_TaskInit                             0x080045f5   Thumb Code   294  adc_task.o(.text)
    SMS_TaskInit                             0x08004771   Thumb Code    40  sms_task.o(.text)
    RequestTableTask                         0x08004799   Thumb Code   496  sms_task.o(.text)
    UniConfigParser                          0x08004989   Thumb Code   112  sms_task.o(.text)
    CMD_CfgParse                             0x080049f9   Thumb Code  1050  sms_task.o(.text)
    SMS_Manage                               0x08004e13   Thumb Code   328  sms_task.o(.text)
    CallTask                                 0x08005005   Thumb Code   168  call_task.o(.text)
    CALL_TaskInit                            0x080050ad   Thumb Code     2  call_task.o(.text)
    LoadFirmwareFile                         0x08005101   Thumb Code   156  app_config_task.o(.text)
    AppConfigTaskInit                        0x0800519d   Thumb Code    26  app_config_task.o(.text)
    DbgCfgPrintf                             0x080051b7   Thumb Code    74  app_config_task.o(.text)
    CfgCalcCheckSum                          0x08005201   Thumb Code    26  app_config_task.o(.text)
    CfgProcessData                           0x0800521b   Thumb Code  2210  app_config_task.o(.text)
    CfgParserPacket                          0x08005abd   Thumb Code   170  app_config_task.o(.text)
    UartConfigTaskInit                       0x08005ba1   Thumb Code    32  uart_config_task.o(.text)
    UartConfigTask                           0x08005bc1   Thumb Code     2  uart_config_task.o(.text)
    CfgUARTSendData                          0x08005bc3   Thumb Code    66  uart_config_task.o(.text)
    DB_FlashMemInit                          0x08005c15   Thumb Code   338  database_app.o(.text)
    AlarmTaskInit                            0x08005dad   Thumb Code    22  alarm_task.o(.text)
    AlarmTask                                0x08005dc3   Thumb Code   300  alarm_task.o(.text)
    LedSetStatus                             0x08005f55   Thumb Code    18  led.o(.text)
    LedInit                                  0x08005f67   Thumb Code    46  led.o(.text)
    LedCtr                                   0x08005f95   Thumb Code    64  led.o(.text)
    CtrLed                                   0x08005fd5   Thumb Code    82  led.o(.text)
    REPORTER_Init                            0x0800603d   Thumb Code    26  reporter.o(.text)
    REPORTER_Reset                           0x08006057   Thumb Code    12  reporter.o(.text)
    REPORTER_Manage                          0x08006063   Thumb Code   460  reporter.o(.text)
    REPORTER_Callback                        0x0800622f   Thumb Code   944  reporter.o(.text)
    FirmwareTask_IsBusy                      0x08006645   Thumb Code    28  firmware_task.o(.text)
    FIRMWARE_Task                            0x08006661   Thumb Code   192  firmware_task.o(.text)
    FIRMWARE_Init                            0x08006721   Thumb Code    36  firmware_task.o(.text)
    FIRMWARE_Reset                           0x08006745   Thumb Code    34  firmware_task.o(.text)
    FIRMWARE_Manage                          0x08006767   Thumb Code   510  firmware_task.o(.text)
    FIRMWARE_Callback                        0x08006965   Thumb Code   980  firmware_task.o(.text)
    vTcpIpTaskInit                           0x08006e39   Thumb Code    36  tcp_ip_task.o(.text)
    vTcpIpTask                               0x08006e5d   Thumb Code   124  tcp_ip_task.o(.text)
    UIP_TCPCallback                          0x08006ed9   Thumb Code    12  tcp_ip_task.o(.text)
    UIP_UDPCallback                          0x08006ee5   Thumb Code     8  tcp_ip_task.o(.text)
    AccelerometerTaskInit                    0x08006f09   Thumb Code     8  accelerometer_task.o(.text)
    Accelerometer_Task_MMA7660               0x08006f11   Thumb Code   442  accelerometer_task.o(.text)
    Reset_Handler                            0x08007115   Thumb Code     4  startup_stm32f10x_md.o(.text)
    NMI_Handler                              0x08007119   Thumb Code     2  startup_stm32f10x_md.o(.text)
    MemManage_Handler                        0x0800711d   Thumb Code     2  startup_stm32f10x_md.o(.text)
    BusFault_Handler                         0x0800711f   Thumb Code     2  startup_stm32f10x_md.o(.text)
    UsageFault_Handler                       0x08007121   Thumb Code     2  startup_stm32f10x_md.o(.text)
    SVC_Handler                              0x08007123   Thumb Code     2  startup_stm32f10x_md.o(.text)
    DebugMon_Handler                         0x08007125   Thumb Code     2  startup_stm32f10x_md.o(.text)
    PendSV_Handler                           0x08007127   Thumb Code     2  startup_stm32f10x_md.o(.text)
    ADC1_2_IRQHandler                        0x0800712b   Thumb Code     0  startup_stm32f10x_md.o(.text)
    CAN1_RX1_IRQHandler                      0x0800712b   Thumb Code     0  startup_stm32f10x_md.o(.text)
    CAN1_SCE_IRQHandler                      0x0800712b   Thumb Code     0  startup_stm32f10x_md.o(.text)
    DMA1_Channel1_IRQHandler                 0x0800712b   Thumb Code     0  startup_stm32f10x_md.o(.text)
    DMA1_Channel2_IRQHandler                 0x0800712b   Thumb Code     0  startup_stm32f10x_md.o(.text)
    DMA1_Channel3_IRQHandler                 0x0800712b   Thumb Code     0  startup_stm32f10x_md.o(.text)
    DMA1_Channel4_IRQHandler                 0x0800712b   Thumb Code     0  startup_stm32f10x_md.o(.text)
    DMA1_Channel5_IRQHandler                 0x0800712b   Thumb Code     0  startup_stm32f10x_md.o(.text)
    DMA1_Channel6_IRQHandler                 0x0800712b   Thumb Code     0  startup_stm32f10x_md.o(.text)
    DMA1_Channel7_IRQHandler                 0x0800712b   Thumb Code     0  startup_stm32f10x_md.o(.text)
    EXTI0_IRQHandler                         0x0800712b   Thumb Code     0  startup_stm32f10x_md.o(.text)
    EXTI1_IRQHandler                         0x0800712b   Thumb Code     0  startup_stm32f10x_md.o(.text)
    EXTI2_IRQHandler                         0x0800712b   Thumb Code     0  startup_stm32f10x_md.o(.text)
    EXTI9_5_IRQHandler                       0x0800712b   Thumb Code     0  startup_stm32f10x_md.o(.text)
    FLASH_IRQHandler                         0x0800712b   Thumb Code     0  startup_stm32f10x_md.o(.text)
    I2C1_ER_IRQHandler                       0x0800712b   Thumb Code     0  startup_stm32f10x_md.o(.text)
    I2C1_EV_IRQHandler                       0x0800712b   Thumb Code     0  startup_stm32f10x_md.o(.text)
    I2C2_ER_IRQHandler                       0x0800712b   Thumb Code     0  startup_stm32f10x_md.o(.text)
    I2C2_EV_IRQHandler                       0x0800712b   Thumb Code     0  startup_stm32f10x_md.o(.text)
    PVD_IRQHandler                           0x0800712b   Thumb Code     0  startup_stm32f10x_md.o(.text)
    RCC_IRQHandler                           0x0800712b   Thumb Code     0  startup_stm32f10x_md.o(.text)
    SPI1_IRQHandler                          0x0800712b   Thumb Code     0  startup_stm32f10x_md.o(.text)
    SPI2_IRQHandler                          0x0800712b   Thumb Code     0  startup_stm32f10x_md.o(.text)
    TAMPER_IRQHandler                        0x0800712b   Thumb Code     0  startup_stm32f10x_md.o(.text)
    TIM1_BRK_IRQHandler                      0x0800712b   Thumb Code     0  startup_stm32f10x_md.o(.text)
    TIM1_CC_IRQHandler                       0x0800712b   Thumb Code     0  startup_stm32f10x_md.o(.text)
    TIM1_TRG_COM_IRQHandler                  0x0800712b   Thumb Code     0  startup_stm32f10x_md.o(.text)
    TIM1_UP_IRQHandler                       0x0800712b   Thumb Code     0  startup_stm32f10x_md.o(.text)
    TIM3_IRQHandler                          0x0800712b   Thumb Code     0  startup_stm32f10x_md.o(.text)
    TIM4_IRQHandler                          0x0800712b   Thumb Code     0  startup_stm32f10x_md.o(.text)
    USB_HP_CAN1_TX_IRQHandler                0x0800712b   Thumb Code     0  startup_stm32f10x_md.o(.text)
    USB_LP_CAN1_RX0_IRQHandler               0x0800712b   Thumb Code     0  startup_stm32f10x_md.o(.text)
    WWDG_IRQHandler                          0x0800712b   Thumb Code     0  startup_stm32f10x_md.o(.text)
    SystemInit                               0x0800720d   Thumb Code    76  system_stm32f10x.o(.text)
    SystemCoreClockUpdate                    0x08007259   Thumb Code   142  system_stm32f10x.o(.text)
    TICK_Init                                0x08007311   Thumb Code    74  tick.o(.text)
    TICK_DeInit                              0x0800735b   Thumb Code    10  tick.o(.text)
    SysTick_Handler                          0x08007365   Thumb Code     8  tick.o(.text)
    FLASH_SetLatency                         0x08007379   Thumb Code    18  stm32f10x_flash.o(.text)
    FLASH_HalfCycleAccessCmd                 0x0800738b   Thumb Code    22  stm32f10x_flash.o(.text)
    FLASH_PrefetchBufferCmd                  0x080073a1   Thumb Code    22  stm32f10x_flash.o(.text)
    FLASH_Unlock                             0x080073b7   Thumb Code    12  stm32f10x_flash.o(.text)
    FLASH_UnlockBank1                        0x080073c3   Thumb Code    12  stm32f10x_flash.o(.text)
    FLASH_Lock                               0x080073cf   Thumb Code    14  stm32f10x_flash.o(.text)
    FLASH_LockBank1                          0x080073dd   Thumb Code    14  stm32f10x_flash.o(.text)
    FLASH_GetBank1Status                     0x080073eb   Thumb Code    48  stm32f10x_flash.o(.text)
    FLASH_WaitForLastOperation               0x0800741b   Thumb Code    38  stm32f10x_flash.o(.text)
    FLASH_ErasePage                          0x08007441   Thumb Code    72  stm32f10x_flash.o(.text)
    FLASH_EraseAllPages                      0x08007489   Thumb Code    68  stm32f10x_flash.o(.text)
    FLASH_WaitForLastBank1Operation          0x080074cd   Thumb Code    38  stm32f10x_flash.o(.text)
    FLASH_EraseAllBank1Pages                 0x080074f3   Thumb Code    68  stm32f10x_flash.o(.text)
    FLASH_GetReadOutProtectionStatus         0x08007537   Thumb Code    20  stm32f10x_flash.o(.text)
    FLASH_EraseOptionBytes                   0x0800754b   Thumb Code   150  stm32f10x_flash.o(.text)
    FLASH_ProgramWord                        0x080075e1   Thumb Code   102  stm32f10x_flash.o(.text)
    FLASH_ProgramHalfWord                    0x08007647   Thumb Code    60  stm32f10x_flash.o(.text)
    FLASH_ProgramOptionByteData              0x08007683   Thumb Code    72  stm32f10x_flash.o(.text)
    FLASH_EnableWriteProtection              0x080076cb   Thumb Code   200  stm32f10x_flash.o(.text)
    FLASH_ReadOutProtection                  0x08007793   Thumb Code   156  stm32f10x_flash.o(.text)
    FLASH_UserOptionByteConfig               0x0800782f   Thumb Code    88  stm32f10x_flash.o(.text)
    FLASH_GetUserOptionByte                  0x08007887   Thumb Code     8  stm32f10x_flash.o(.text)
    FLASH_GetWriteProtectionOptionByte       0x0800788f   Thumb Code     6  stm32f10x_flash.o(.text)
    FLASH_GetPrefetchBufferStatus            0x08007895   Thumb Code    20  stm32f10x_flash.o(.text)
    FLASH_ITConfig                           0x080078a9   Thumb Code    26  stm32f10x_flash.o(.text)
    FLASH_GetFlagStatus                      0x080078c3   Thumb Code    42  stm32f10x_flash.o(.text)
    FLASH_ClearFlag                          0x080078ed   Thumb Code     6  stm32f10x_flash.o(.text)
    FLASH_GetStatus                          0x080078f3   Thumb Code    48  stm32f10x_flash.o(.text)
    IWDG_WriteAccessCmd                      0x08007935   Thumb Code     6  stm32f10x_iwdg.o(.text)
    IWDG_SetPrescaler                        0x0800793b   Thumb Code     6  stm32f10x_iwdg.o(.text)
    IWDG_SetReload                           0x08007941   Thumb Code     6  stm32f10x_iwdg.o(.text)
    IWDG_ReloadCounter                       0x08007947   Thumb Code    10  stm32f10x_iwdg.o(.text)
    IWDG_Enable                              0x08007951   Thumb Code    10  stm32f10x_iwdg.o(.text)
    IWDG_GetFlagStatus                       0x0800795b   Thumb Code    20  stm32f10x_iwdg.o(.text)
    USART1_Init                              0x08007975   Thumb Code   374  uart1.o(.text)
    USART1_DeInit                            0x08007aeb   Thumb Code    26  uart1.o(.text)
    USART1_PutChar                           0x08007b05   Thumb Code    72  uart1.o(.text)
    USART1_PutString                         0x08007b4d   Thumb Code    22  uart1.o(.text)
    USART1_GetChar                           0x08007b63   Thumb Code    24  uart1.o(.text)
    USART1_IRQHandler                        0x08007b7b   Thumb Code   228  uart1.o(.text)
    USART2_Init                              0x08007c8d   Thumb Code   290  uart2.o(.text)
    USART2_DeInit                            0x08007daf   Thumb Code    26  uart2.o(.text)
    USART2_PutChar                           0x08007dc9   Thumb Code    22  uart2.o(.text)
    USART2_GetChar                           0x08007ddf   Thumb Code    24  uart2.o(.text)
    USART2_IRQHandler                        0x08007df7   Thumb Code    52  uart2.o(.text)
    USART3_Init                              0x08007e49   Thumb Code   324  uart3.o(.text)
    USART3_DeInit                            0x08007f8d   Thumb Code    26  uart3.o(.text)
    USART3_PutChar                           0x08007fa7   Thumb Code    72  uart3.o(.text)
    USART3_PutString                         0x08007fef   Thumb Code    22  uart3.o(.text)
    USART3_GetChar                           0x08008005   Thumb Code    24  uart3.o(.text)
    USART3_IRQHandler                        0x0800801d   Thumb Code    86  uart3.o(.text)
    I2C_Init                                 0x080080a1   Thumb Code   148  i2c.o(.text)
    I2C_CheckStatus                          0x08008135   Thumb Code    36  i2c.o(.text)
    I2C_ReadByte                             0x08008159   Thumb Code   496  i2c.o(.text)
    I2C_SendByte                             0x08008349   Thumb Code   268  i2c.o(.text)
    I2C_SendData                             0x08008455   Thumb Code   354  i2c.o(.text)
    I2C_CheckSlaveStatus                     0x080085b7   Thumb Code   182  i2c.o(.text)
    SPI_InitLowFreq                          0x08008679   Thumb Code   246  spi.o(.text)
    SPI_InitHighFreq                         0x0800876f   Thumb Code   214  spi.o(.text)
    SPI_DeInit                               0x08008845   Thumb Code    36  spi.o(.text)
    halSpiWriteByte                          0x08008869   Thumb Code    32  spi.o(.text)
    halSpiWriteMutilByte                     0x08008889   Thumb Code    92  spi.o(.text)
    halSpiReadMutilByte                      0x080088e5   Thumb Code    92  spi.o(.text)
    RTC_IRQHandler                           0x08008959   Thumb Code    34  rtc.o(.text)
    RTC_ExitConfigMode                       0x0800897b   Thumb Code    16  rtc.o(.text)
    RTC_EnterConfigMode                      0x0800898b   Thumb Code    14  rtc.o(.text)
    RTC_SetAlarm                             0x08008999   Thumb Code    26  rtc.o(.text)
    RTC_GetCounter                           0x080089b3   Thumb Code    18  rtc.o(.text)
    RTC_SetCounter                           0x080089c5   Thumb Code    40  rtc.o(.text)
    RTCAlarm_IRQHandler                      0x080089ed   Thumb Code   384  rtc.o(.text)
    RTC_SanityCheck                          0x08008b6d   Thumb Code    52  rtc.o(.text)
    RTC_Init                                 0x08008ba1   Thumb Code   196  rtc.o(.text)
    RTC_SetCounterX                          0x08008c65   Thumb Code    26  rtc.o(.text)
    EXTI_Init                                0x08008d25   Thumb Code   628  exti.o(.text)
    EXTI3_IRQHandler                         0x08008f99   Thumb Code     8  exti.o(.text)
    EXTI4_IRQHandler                         0x08008fa1   Thumb Code     8  exti.o(.text)
    EXTI15_10_IRQHandler                     0x08008fa9   Thumb Code    62  exti.o(.text)
    USBWakeUp_IRQHandler                     0x08008fe7   Thumb Code    10  exti.o(.text)
    GPIO_DeInit                              0x08009025   Thumb Code   172  stm32f10x_gpio.o(.text)
    GPIO_AFIODeInit                          0x080090d1   Thumb Code    20  stm32f10x_gpio.o(.text)
    GPIO_Init                                0x080090e5   Thumb Code   274  stm32f10x_gpio.o(.text)
    GPIO_StructInit                          0x080091f7   Thumb Code    16  stm32f10x_gpio.o(.text)
    GPIO_ReadInputDataBit                    0x08009207   Thumb Code    18  stm32f10x_gpio.o(.text)
    GPIO_ReadInputData                       0x08009219   Thumb Code     8  stm32f10x_gpio.o(.text)
    GPIO_ReadOutputDataBit                   0x08009221   Thumb Code    18  stm32f10x_gpio.o(.text)
    GPIO_ReadOutputData                      0x08009233   Thumb Code     8  stm32f10x_gpio.o(.text)
    GPIO_SetBits                             0x0800923b   Thumb Code     4  stm32f10x_gpio.o(.text)
    GPIO_ResetBits                           0x0800923f   Thumb Code     4  stm32f10x_gpio.o(.text)
    GPIO_WriteBit                            0x08009243   Thumb Code    10  stm32f10x_gpio.o(.text)
    GPIO_Write                               0x0800924d   Thumb Code     4  stm32f10x_gpio.o(.text)
    GPIO_PinLockConfig                       0x08009251   Thumb Code    18  stm32f10x_gpio.o(.text)
    GPIO_EventOutputConfig                   0x08009263   Thumb Code    26  stm32f10x_gpio.o(.text)
    GPIO_EventOutputCmd                      0x0800927d   Thumb Code     6  stm32f10x_gpio.o(.text)
    GPIO_PinRemapConfig                      0x08009283   Thumb Code   138  stm32f10x_gpio.o(.text)
    GPIO_EXTILineConfig                      0x0800930d   Thumb Code    66  stm32f10x_gpio.o(.text)
    GPIO_ETH_MediaInterfaceConfig            0x0800934f   Thumb Code     6  stm32f10x_gpio.o(.text)
    DMA_DeInit                               0x0800937d   Thumb Code   324  stm32f10x_dma.o(.text)
    DMA_Init                                 0x080094c1   Thumb Code    60  stm32f10x_dma.o(.text)
    DMA_StructInit                           0x080094fd   Thumb Code    26  stm32f10x_dma.o(.text)
    DMA_Cmd                                  0x08009517   Thumb Code    24  stm32f10x_dma.o(.text)
    DMA_ITConfig                             0x0800952f   Thumb Code    18  stm32f10x_dma.o(.text)
    DMA_SetCurrDataCounter                   0x08009541   Thumb Code     4  stm32f10x_dma.o(.text)
    DMA_GetCurrDataCounter                   0x08009545   Thumb Code     8  stm32f10x_dma.o(.text)
    DMA_GetFlagStatus                        0x0800954d   Thumb Code    38  stm32f10x_dma.o(.text)
    DMA_ClearFlag                            0x08009573   Thumb Code    22  stm32f10x_dma.o(.text)
    DMA_GetITStatus                          0x08009589   Thumb Code    38  stm32f10x_dma.o(.text)
    DMA_ClearITPendingBit                    0x080095af   Thumb Code    22  stm32f10x_dma.o(.text)
    ADC_DeInit                               0x080095cd   Thumb Code    78  stm32f10x_adc.o(.text)
    ADC_Init                                 0x0800961b   Thumb Code    70  stm32f10x_adc.o(.text)
    ADC_StructInit                           0x08009661   Thumb Code    18  stm32f10x_adc.o(.text)
    ADC_Cmd                                  0x08009673   Thumb Code    22  stm32f10x_adc.o(.text)
    ADC_DMACmd                               0x08009689   Thumb Code    22  stm32f10x_adc.o(.text)
    ADC_ITConfig                             0x0800969f   Thumb Code    24  stm32f10x_adc.o(.text)
    ADC_ResetCalibration                     0x080096b7   Thumb Code    10  stm32f10x_adc.o(.text)
    ADC_GetResetCalibrationStatus            0x080096c1   Thumb Code    20  stm32f10x_adc.o(.text)
    ADC_StartCalibration                     0x080096d5   Thumb Code    10  stm32f10x_adc.o(.text)
    ADC_GetCalibrationStatus                 0x080096df   Thumb Code    20  stm32f10x_adc.o(.text)
    ADC_SoftwareStartConvCmd                 0x080096f3   Thumb Code    22  stm32f10x_adc.o(.text)
    ADC_GetSoftwareStartConvStatus           0x08009709   Thumb Code    20  stm32f10x_adc.o(.text)
    ADC_DiscModeChannelCountConfig           0x0800971d   Thumb Code    24  stm32f10x_adc.o(.text)
    ADC_DiscModeCmd                          0x08009735   Thumb Code    22  stm32f10x_adc.o(.text)
    ADC_RegularChannelConfig                 0x0800974b   Thumb Code   184  stm32f10x_adc.o(.text)
    ADC_ExternalTrigConvCmd                  0x08009803   Thumb Code    22  stm32f10x_adc.o(.text)
    ADC_GetConversionValue                   0x08009819   Thumb Code     8  stm32f10x_adc.o(.text)
    ADC_GetDualModeConversionValue           0x08009821   Thumb Code     8  stm32f10x_adc.o(.text)
    ADC_AutoInjectedConvCmd                  0x08009829   Thumb Code    22  stm32f10x_adc.o(.text)
    ADC_InjectedDiscModeCmd                  0x0800983f   Thumb Code    22  stm32f10x_adc.o(.text)
    ADC_ExternalTrigInjectedConvConfig       0x08009855   Thumb Code    16  stm32f10x_adc.o(.text)
    ADC_ExternalTrigInjectedConvCmd          0x08009865   Thumb Code    22  stm32f10x_adc.o(.text)
    ADC_SoftwareStartInjectedConvCmd         0x0800987b   Thumb Code    22  stm32f10x_adc.o(.text)
    ADC_GetSoftwareStartInjectedConvCmdStatus 0x08009891   Thumb Code    20  stm32f10x_adc.o(.text)
    ADC_InjectedChannelConfig                0x080098a5   Thumb Code   130  stm32f10x_adc.o(.text)
    ADC_InjectedSequencerLengthConfig        0x08009927   Thumb Code    24  stm32f10x_adc.o(.text)
    ADC_SetInjectedOffset                    0x0800993f   Thumb Code    20  stm32f10x_adc.o(.text)
    ADC_GetInjectedConversionValue           0x08009953   Thumb Code    28  stm32f10x_adc.o(.text)
    ADC_AnalogWatchdogCmd                    0x0800996f   Thumb Code    16  stm32f10x_adc.o(.text)
    ADC_AnalogWatchdogThresholdsConfig       0x0800997f   Thumb Code     6  stm32f10x_adc.o(.text)
    ADC_AnalogWatchdogSingleChannelConfig    0x08009985   Thumb Code    16  stm32f10x_adc.o(.text)
    ADC_TempSensorVrefintCmd                 0x08009995   Thumb Code    64  stm32f10x_adc.o(.text)
    ADC_GetFlagStatus                        0x080099d5   Thumb Code    18  stm32f10x_adc.o(.text)
    ADC_ClearFlag                            0x080099e7   Thumb Code     6  stm32f10x_adc.o(.text)
    ADC_GetITStatus                          0x080099ed   Thumb Code    36  stm32f10x_adc.o(.text)
    ADC_ClearITPendingBit                    0x08009a11   Thumb Code    10  stm32f10x_adc.o(.text)
    RCC_DeInit                               0x08009a1d   Thumb Code    64  stm32f10x_rcc.o(.text)
    RCC_HSEConfig                            0x08009a5d   Thumb Code    70  stm32f10x_rcc.o(.text)
    RCC_GetFlagStatus                        0x08009aa3   Thumb Code    56  stm32f10x_rcc.o(.text)
    RCC_WaitForHSEStartUp                    0x08009adb   Thumb Code    56  stm32f10x_rcc.o(.text)
    RCC_AdjustHSICalibrationValue            0x08009b13   Thumb Code    20  stm32f10x_rcc.o(.text)
    RCC_HSICmd                               0x08009b27   Thumb Code     6  stm32f10x_rcc.o(.text)
    RCC_PLLConfig                            0x08009b2d   Thumb Code    24  stm32f10x_rcc.o(.text)
    RCC_PLLCmd                               0x08009b45   Thumb Code     6  stm32f10x_rcc.o(.text)
    RCC_SYSCLKConfig                         0x08009b4b   Thumb Code    18  stm32f10x_rcc.o(.text)
    RCC_GetSYSCLKSource                      0x08009b5d   Thumb Code    10  stm32f10x_rcc.o(.text)
    RCC_HCLKConfig                           0x08009b67   Thumb Code    18  stm32f10x_rcc.o(.text)
    RCC_PCLK1Config                          0x08009b79   Thumb Code    18  stm32f10x_rcc.o(.text)
    RCC_PCLK2Config                          0x08009b8b   Thumb Code    20  stm32f10x_rcc.o(.text)
    RCC_ITConfig                             0x08009b9f   Thumb Code    26  stm32f10x_rcc.o(.text)
    RCC_USBCLKConfig                         0x08009bb9   Thumb Code     6  stm32f10x_rcc.o(.text)
    RCC_ADCCLKConfig                         0x08009bbf   Thumb Code    18  stm32f10x_rcc.o(.text)
    RCC_LSEConfig                            0x08009bd1   Thumb Code    44  stm32f10x_rcc.o(.text)
    RCC_LSICmd                               0x08009bfd   Thumb Code     6  stm32f10x_rcc.o(.text)
    RCC_RTCCLKConfig                         0x08009c03   Thumb Code    12  stm32f10x_rcc.o(.text)
    RCC_RTCCLKCmd                            0x08009c0f   Thumb Code     8  stm32f10x_rcc.o(.text)
    RCC_GetClocksFreq                        0x08009c17   Thumb Code   192  stm32f10x_rcc.o(.text)
    RCC_AHBPeriphClockCmd                    0x08009cd7   Thumb Code    26  stm32f10x_rcc.o(.text)
    RCC_APB2PeriphClockCmd                   0x08009cf1   Thumb Code    26  stm32f10x_rcc.o(.text)
    RCC_APB1PeriphClockCmd                   0x08009d0b   Thumb Code    26  stm32f10x_rcc.o(.text)
    RCC_APB2PeriphResetCmd                   0x08009d25   Thumb Code    26  stm32f10x_rcc.o(.text)
    RCC_APB1PeriphResetCmd                   0x08009d3f   Thumb Code    26  stm32f10x_rcc.o(.text)
    RCC_BackupResetCmd                       0x08009d59   Thumb Code     8  stm32f10x_rcc.o(.text)
    RCC_ClockSecuritySystemCmd               0x08009d61   Thumb Code     6  stm32f10x_rcc.o(.text)
    RCC_MCOConfig                            0x08009d67   Thumb Code     6  stm32f10x_rcc.o(.text)
    RCC_ClearFlag                            0x08009d6d   Thumb Code    14  stm32f10x_rcc.o(.text)
    RCC_GetITStatus                          0x08009d7b   Thumb Code    20  stm32f10x_rcc.o(.text)
    RCC_ClearITPendingBit                    0x08009d8f   Thumb Code     6  stm32f10x_rcc.o(.text)
    RESOLVER_Reset                           0x08009dc1   Thumb Code    20  resolver.o(.text)
    RESOLVER_Manage                          0x08009dd5   Thumb Code   128  resolver.o(.text)
    RESOLVER_Lookup                          0x08009e55   Thumb Code    12  resolver.o(.text)
    RESOLVER_Query                           0x08009e61   Thumb Code    12  resolver.o(.text)
    resolv_found                             0x08009e6d   Thumb Code     2  resolver.o(.text)
    resolv_appcall                           0x0800a08d   Thumb Code    44  resolv.o(.text)
    resolv_query                             0x0800a0b9   Thumb Code   126  resolv.o(.text)
    resolv_lookup                            0x0800a137   Thumb Code    74  resolv.o(.text)
    resolv_getserver                         0x0800a181   Thumb Code    16  resolv.o(.text)
    resolv_conf                              0x0800a191   Thumb Code    34  resolv.o(.text)
    resolv_init                              0x0800a1b3   Thumb Code    48  resolv.o(.text)
    timer_set                                0x0800a21d   Thumb Code    16  timer.o(.text)
    timer_reset                              0x0800a22d   Thumb Code    10  timer.o(.text)
    timer_restart                            0x0800a237   Thumb Code    12  timer.o(.text)
    timer_expired                            0x0800a243   Thumb Code    32  timer.o(.text)
    uip_setipid                              0x0800a269   Thumb Code     6  uip.o(.text)
    uip_add32                                0x0800a26f   Thumb Code   106  uip.o(.text)
    uip_htons                                0x0800a31f   Thumb Code    12  uip.o(.text)
    uip_chksum                               0x0800a32b   Thumb Code    24  uip.o(.text)
    uip_ipchksum                             0x0800a343   Thumb Code    30  uip.o(.text)
    uip_tcpchksum                            0x0800a3a5   Thumb Code    10  uip.o(.text)
    uip_udpchksum                            0x0800a3af   Thumb Code    10  uip.o(.text)
    uip_init                                 0x0800a3b9   Thumb Code   128  uip.o(.text)
    uip_connect                              0x0800a439   Thumb Code   238  uip.o(.text)
    uip_udp_new                              0x0800a527   Thumb Code   186  uip.o(.text)
    uip_unlisten                             0x0800a5e1   Thumb Code    58  uip.o(.text)
    uip_listen                               0x0800a61b   Thumb Code    90  uip.o(.text)
    uip_process                              0x0800a6af   Thumb Code  3806  uip.o(.text)
    uip_htonl                                0x0800b58d   Thumb Code    26  uip.o(.text)
    uip_send                                 0x0800b5a7   Thumb Code    76  uip.o(.text)
    Domain_IpCheck                           0x0800b615   Thumb Code    40  uip_ppp.o(.text)
    UIP_SetHostAddr                          0x0800b63d   Thumb Code    56  uip_ppp.o(.text)
    UIP_Input                                0x0800b675   Thumb Code    14  uip_ppp.o(.text)
    UIP_Periodic                             0x0800b683   Thumb Code   216  uip_ppp.o(.text)
    FCS_Get                                  0x0800b785   Thumb Code    44  fcs.o(.text)
    FCS_Calculate                            0x0800b7b1   Thumb Code    20  fcs.o(.text)
    PPP_Init                                 0x0800b7c9   Thumb Code     8  ppp.o(.text)
    PPP_SetAuthentication                    0x0800b7d1   Thumb Code    26  ppp.o(.text)
    PPP_Send                                 0x0800b7eb   Thumb Code   178  ppp.o(.text)
    PPP__In                                  0x0800ca1f   Thumb Code   546  ppp.o(.text)
    PPP_ManageLink                           0x0800cd41   Thumb Code   126  ppp.o(.text)
    PPP_ReInit                               0x0800cdbf   Thumb Code    16  ppp.o(.text)
    PPP_IsLinked                             0x0800cdcf   Thumb Code    16  ppp.o(.text)
    gmtime_r                                 0x0800ce39   Thumb Code   366  m_time.o(.text)
    localtime_r                              0x0800cfa7   Thumb Code    26  m_time.o(.text)
    mktime                                   0x0800cfc1   Thumb Code  1200  m_time.o(.text)
    TIME_GetSec                              0x0800d485   Thumb Code   128  sys_time.o(.text)
    SysTimeSetup                             0x0800d505   Thumb Code    42  sys_time.o(.text)
    UpdateRtcTime                            0x0800d52f   Thumb Code    48  sys_time.o(.text)
    TIME_FromGsm                             0x0800d55f   Thumb Code   194  sys_time.o(.text)
    TIME_FromGps                             0x0800d621   Thumb Code   118  sys_time.o(.text)
    TIME_FromSec                             0x0800d697   Thumb Code    78  sys_time.o(.text)
    TIME_AddSec                              0x0800d6e5   Thumb Code    40  sys_time.o(.text)
    InitFindData                             0x0800d721   Thumb Code    24  data_cmp.o(.text)
    FindData                                 0x0800d739   Thumb Code    60  data_cmp.o(.text)
    unilen                                   0x0800d775   Thumb Code    32  encoding.o(.text)
    big2litel_endian                         0x0800d795   Thumb Code    36  encoding.o(.text)
    utf8_to_ucs2                             0x0800d7b9   Thumb Code   126  encoding.o(.text)
    utf8s_to_ucs2s                           0x0800d837   Thumb Code    54  encoding.o(.text)
    ucs2_to_utf8                             0x0800d86d   Thumb Code   182  encoding.o(.text)
    uni_srtsrt                               0x0800d923   Thumb Code    48  encoding.o(.text)
    list_init                                0x0800d959   Thumb Code     6  list.o(.text)
    list_head                                0x0800d95f   Thumb Code     6  list.o(.text)
    list_copy                                0x0800d965   Thumb Code     6  list.o(.text)
    list_tail                                0x0800d96b   Thumb Code    26  list.o(.text)
    list_remove                              0x0800d985   Thumb Code    52  list.o(.text)
    list_add                                 0x0800d9b9   Thumb Code    36  list.o(.text)
    list_push                                0x0800d9dd   Thumb Code    22  list.o(.text)
    list_chop                                0x0800d9f3   Thumb Code    48  list.o(.text)
    list_pop                                 0x0800da23   Thumb Code    16  list.o(.text)
    list_length                              0x0800da33   Thumb Code    18  list.o(.text)
    list_insert                              0x0800da45   Thumb Code    28  list.o(.text)
    list_item_next                           0x0800da61   Thumb Code    12  list.o(.text)
    RINGBUF_Init                             0x0800da6d   Thumb Code    30  ringbuf.o(.text)
    RINGBUF_Put                              0x0800da8b   Thumb Code    42  ringbuf.o(.text)
    RINGBUF_Get                              0x0800dab5   Thumb Code    46  ringbuf.o(.text)
    RINGBUF_GetFill                          0x0800dae3   Thumb Code    30  ringbuf.o(.text)
    StrParserInit                            0x0800db01   Thumb Code    44  sparser.o(.text)
    StrParserCtl                             0x0800db2d   Thumb Code    50  sparser.o(.text)
    StrComnandParser                         0x0800db5f   Thumb Code   232  sparser.o(.text)
    SysTick_Init                             0x0800dc4d   Thumb Code     2  sys_tick.o(.text)
    SysTick_DeInit                           0x0800dc4f   Thumb Code     2  sys_tick.o(.text)
    SysTick_Task                             0x0800dc51   Thumb Code    58  sys_tick.o(.text)
    SysTick_Get                              0x0800dc8b   Thumb Code     6  sys_tick.o(.text)
    SysTick_Get64                            0x0800dc91   Thumb Code     8  sys_tick.o(.text)
    SysTick_DelayMs                          0x0800dc99   Thumb Code    24  sys_tick.o(.text)
    InitTimeout                              0x0800dcb1   Thumb Code    22  sys_tick.o(.text)
    CheckTimeout                             0x0800dcc7   Thumb Code    70  sys_tick.o(.text)
    TimerDelayms                             0x0800dd0d   Thumb Code    48  sys_tick.o(.text)
    Delay                                    0x0800dd49   Thumb Code    12  gsm_hwr.o(.text)
    MODEM_PowerOn                            0x0800dd55   Thumb Code   218  gsm_hwr.o(.text)
    MODEM_Sleep                              0x0800de2f   Thumb Code     2  gsm_hwr.o(.text)
    MODEM_Wakeup                             0x0800de31   Thumb Code     2  gsm_hwr.o(.text)
    MODEM_UartInit                           0x0800de33   Thumb Code    16  gsm_hwr.o(.text)
    AT_CmdCallParserInit                     0x0800de55   Thumb Code    10  at_cmd_call_parser.o(.text)
    VoiceCallTask_Init                       0x0800de5f   Thumb Code    24  at_cmd_call_parser.o(.text)
    VoiceCallTask_StartCall                  0x0800de77   Thumb Code    70  at_cmd_call_parser.o(.text)
    VoiceCallTask_AnswerCall                 0x0800debd   Thumb Code    34  at_cmd_call_parser.o(.text)
    VoiceCallTask_EndCall                    0x0800dedf   Thumb Code    10  at_cmd_call_parser.o(.text)
    VoiceCallTask_GetCallerPhoneNo           0x0800dee9   Thumb Code     4  at_cmd_call_parser.o(.text)
    VoiceCallTask_IsModemBusy                0x0800deed   Thumb Code    40  at_cmd_call_parser.o(.text)
    VoiceCallTask_GetPhase                   0x0800df15   Thumb Code     6  at_cmd_call_parser.o(.text)
    VoiceCallTask_ClearEndCallStatus         0x0800df1b   Thumb Code    40  at_cmd_call_parser.o(.text)
    VoiceCallTask_ClearCallAction            0x0800df43   Thumb Code     8  at_cmd_call_parser.o(.text)
    VoiceCall_Task                           0x0800df4b   Thumb Code  2730  at_cmd_call_parser.o(.text)
    Modem_IsRinging                          0x0800e9f5   Thumb Code    26  at_cmd_call_parser.o(.text)
    RING_ProcessReset                        0x0800ea0f   Thumb Code    22  at_cmd_call_parser.o(.text)
    RING_Process                             0x0800ea25   Thumb Code   168  at_cmd_call_parser.o(.text)
    CallOutProcess                           0x0800eacd   Thumb Code   116  at_cmd_call_parser.o(.text)
    CallCancel                               0x0800eb41   Thumb Code    24  at_cmd_call_parser.o(.text)
    CallErrorReport                          0x0800eb59   Thumb Code   140  at_cmd_call_parser.o(.text)
    CallNoAnswer                             0x0800ebe5   Thumb Code    12  at_cmd_call_parser.o(.text)
    CallBusy                                 0x0800ebf1   Thumb Code    12  at_cmd_call_parser.o(.text)
    GetCallerNumber                          0x0800ebfd   Thumb Code    82  at_cmd_call_parser.o(.text)
    RingCallProcess                          0x0800ec4f   Thumb Code    18  at_cmd_call_parser.o(.text)
    ComparePhoneNumber                       0x0800ec61   Thumb Code   292  at_cmd_call_parser.o(.text)
    GetBatteryStatus                         0x0800ed85   Thumb Code   100  at_cmd_common_parser.o(.text)
    GSM_GetIMEI                              0x0800ede9   Thumb Code    42  at_cmd_common_parser.o(.text)
    GSM_GetSimCID                            0x0800ee13   Thumb Code    38  at_cmd_common_parser.o(.text)
    GsmGetUTCTime                            0x0800ee39   Thumb Code   610  at_cmd_common_parser.o(.text)
    GsmGetTime                               0x0800f09b   Thumb Code   554  at_cmd_common_parser.o(.text)
    GsmCommonTask_IsIdle                     0x0800f2c5   Thumb Code    14  at_cmd_common_parser.o(.text)
    ATO_Func                                 0x0800f2d3   Thumb Code    10  at_cmd_common_parser.o(.text)
    GsmCommon_Task                           0x0800f2dd   Thumb Code  1422  at_cmd_common_parser.o(.text)
    SmsTask_Init                             0x0800f8b1   Thumb Code    28  at_cmd_sms_parser.o(.text)
    SmsCheckMessage_IsEmpty                  0x0800f8cd   Thumb Code    52  at_cmd_sms_parser.o(.text)
    SmsAddMsg                                0x0800f901   Thumb Code    16  at_cmd_sms_parser.o(.text)
    SmsCheckList_IsEmpty                     0x0800f911   Thumb Code    16  at_cmd_sms_parser.o(.text)
    SmsTask_SendSms                          0x0800f921   Thumb Code    14  at_cmd_sms_parser.o(.text)
    SmsTask_IsIdle                           0x0800f92f   Thumb Code    22  at_cmd_sms_parser.o(.text)
    SmsTask_IsModemBusy                      0x0800f945   Thumb Code    32  at_cmd_sms_parser.o(.text)
    SmsTask_GetPhase                         0x0800f965   Thumb Code     6  at_cmd_sms_parser.o(.text)
    SmsTask_CancelAll                        0x0800f96b   Thumb Code    34  at_cmd_sms_parser.o(.text)
    SmsTask_IsCanceled                       0x0800f98d   Thumb Code    26  at_cmd_sms_parser.o(.text)
    SmsTask_IsNoMsg                          0x0800f9a7   Thumb Code    52  at_cmd_sms_parser.o(.text)
    SmsTask_Stop                             0x0800f9db   Thumb Code    22  at_cmd_sms_parser.o(.text)
    SmsTask_Pause                            0x0800f9f1   Thumb Code    16  at_cmd_sms_parser.o(.text)
    Sms_SendMsg                              0x0800fa01   Thumb Code    54  at_cmd_sms_parser.o(.text)
    GetServiceCenterNumber                   0x0800fa37   Thumb Code    84  at_cmd_sms_parser.o(.text)
    Sms_Task                                 0x0800fa8b   Thumb Code  1608  at_cmd_sms_parser.o(.text)
    AT_CmdSmsParserInit                      0x080100d3   Thumb Code    14  at_cmd_sms_parser.o(.text)
    SMS_NewMessage                           0x080100e1   Thumb Code    12  at_cmd_sms_parser.o(.text)
    SMS_ReadMsg                              0x080100ed   Thumb Code   582  at_cmd_sms_parser.o(.text)
    SMS_URC_Incomming                        0x08010333   Thumb Code   128  at_cmd_sms_parser.o(.text)
    SMS_Process                              0x080103b3   Thumb Code   128  at_cmd_sms_parser.o(.text)
    AT_CmdProcessInit                        0x08010451   Thumb Code    26  at_command_parser.o(.text)
    AT_ComnandParser                         0x0801046b   Thumb Code    40  at_command_parser.o(.text)
    GsmTask_InitApn                          0x080104a5   Thumb Code    14  at_gsm_task.o(.text)
    GsmTask_Init                             0x080104b3   Thumb Code    52  at_gsm_task.o(.text)
    GsmTask_SetPhase                         0x080104e7   Thumb Code     6  at_gsm_task.o(.text)
    GsmTask_GetPhase                         0x080104ed   Thumb Code     6  at_gsm_task.o(.text)
    Gsm_Task                                 0x080104f3   Thumb Code   528  at_gsm_task.o(.text)
    ModeBusy_IsLongTime                      0x080107b5   Thumb Code    40  at_send_cmd_task.o(.text)
    ModemCmdAdd                              0x080107dd   Thumb Code    16  at_send_cmd_task.o(.text)
    ModemCmdCheckList_IsEmpty                0x080107ed   Thumb Code    16  at_send_cmd_task.o(.text)
    ModemCmdTask_SetCriticalCmd              0x080107fd   Thumb Code    14  at_send_cmd_task.o(.text)
    ModemCmdTask_IsIdle                      0x0801080b   Thumb Code    24  at_send_cmd_task.o(.text)
    ModemCmdTask_SendCmd                     0x08010823   Thumb Code   200  at_send_cmd_task.o(.text)
    ModemCmdTask_GetPhase                    0x080108eb   Thumb Code     6  at_send_cmd_task.o(.text)
    ModemCmdTask_Reset                       0x080108f1   Thumb Code     8  at_send_cmd_task.o(.text)
    ModemCmdTask_SetWait                     0x080108f9   Thumb Code    60  at_send_cmd_task.o(.text)
    ModemCmd_Task                            0x08010935   Thumb Code   560  at_send_cmd_task.o(.text)
    ModemCmdTask_Cancel                      0x08010b65   Thumb Code   164  at_send_cmd_task.o(.text)
    MODEM_GoToCmdMode                        0x08010c09   Thumb Code    14  modem.o(.text)
    MODEM_GoToDataMode                       0x08010c17   Thumb Code    14  modem.o(.text)
    MODEM_IsOfline                           0x08010c25   Thumb Code    14  modem.o(.text)
    MODEM_SetApn                             0x08010c33   Thumb Code     6  modem.o(.text)
    MODEM_FlushBuffer                        0x08010c39   Thumb Code    20  modem.o(.text)
    MODEM_SendCommand                        0x08010c4d   Thumb Code   158  modem.o(.text)
    MODEM_TurnOn                             0x08010ceb   Thumb Code    60  modem.o(.text)
    MODEM_PowerOff                           0x08010d27   Thumb Code    44  modem.o(.text)
    MODEM_CheckResponse                      0x08010d53   Thumb Code    64  modem.o(.text)
    MODEM_GetCSQ                             0x08010d93   Thumb Code   274  modem.o(.text)
    VoiceSetup                               0x08010ea5   Thumb Code     4  modem.o(.text)
    MODEM_CarrierDetected                    0x08010ea9   Thumb Code     4  modem.o(.text)
    pdu_encode                               0x0801112d   Thumb Code   232  pdu.o(.text)
    pdu16_encode                             0x08011215   Thumb Code   216  pdu.o(.text)
    pdu_decode                               0x080112ed   Thumb Code   308  pdu.o(.text)
    COMM_Putc                                0x08011421   Thumb Code    12  comm.o(.text)
    COMM_Puts                                0x0801142d   Thumb Code    12  comm.o(.text)
    COMM_CarrierDetected                     0x08011439   Thumb Code     8  comm.o(.text)
    COMM_ModemIsOnline                       0x08011441   Thumb Code     6  comm.o(.text)
    COMM_ModemSetOffline                     0x08011447   Thumb Code     8  comm.o(.text)
    COMM_GoToCmdMode                         0x0801144f   Thumb Code     8  comm.o(.text)
    COMM_pppIsOpened                         0x08011457   Thumb Code     6  comm.o(.text)
    COMM_pppSetOpened                        0x0801145d   Thumb Code     8  comm.o(.text)
    COMM_pppClrOpened                        0x08011465   Thumb Code     8  comm.o(.text)
    GPS_PulseProcess                         0x08011475   Thumb Code    38  gps.o(.text)
    GPS_SetPulse                             0x0801149b   Thumb Code     8  gps.o(.text)
    GPRMC_Process                            0x080114a3   Thumb Code   176  gps.o(.text)
    GPGGA_Process                            0x08011553   Thumb Code   176  gps.o(.text)
    GPGSA_Process                            0x08011603   Thumb Code   176  gps.o(.text)
    GPGSV_Process                            0x080116b3   Thumb Code   176  gps.o(.text)
    GPS_ComnandParser                        0x08011763   Thumb Code   368  gps.o(.text)
    neamFormatLatLng                         0x080118d3   Thumb Code    84  gps.o(.text)
    formatLatLng                             0x08011927   Thumb Code    84  gps.o(.text)
    GpsGetInfo                               0x0801197b   Thumb Code    64  gps.o(.text)
    nmea_zero_INFO                           0x080119bb   Thumb Code    24  gps.o(.text)
    GPSInit                                  0x080119d3   Thumb Code    10  gps.o(.text)
    nmea_GPGSV2info                          0x080119dd   Thumb Code   200  gps.o(.text)
    nmea_atoi                                0x08011aa5   Thumb Code    50  gps.o(.text)
    nmea_atof                                0x08011ad7   Thumb Code    54  gps.o(.text)
    nmea_scanf                               0x08011b0d   Thumb Code   558  gps.o(.text)
    nmea_parse_GPGSV                         0x08011d3b   Thumb Code   160  gps.o(.text)
    nmea_GPGSA2info                          0x08011ddb   Thumb Code   122  gps.o(.text)
    nmea_parse_GPGSA                         0x08011e55   Thumb Code   114  gps.o(.text)
    nmea_GPGGA2info                          0x08011ec7   Thumb Code   160  gps.o(.text)
    _nmea_parse_time                         0x08011f67   Thumb Code   126  gps.o(.text)
    nmea_parse_GPGGA                         0x08011fe5   Thumb Code   128  gps.o(.text)
    nmea_GPRMC2info                          0x08012065   Thumb Code   204  gps.o(.text)
    nmea_parse_GPRMC                         0x08012131   Thumb Code   392  gps.o(.text)
    GPS_GetInfo                              0x080122b9   Thumb Code   168  gps.o(.text)
    nmea_calc_crc                            0x08012361   Thumb Code    24  gps.o(.text)
    DbCalcCheckSum                           0x080123b1   Thumb Code    26  db.o(.text)
    DB_ParaCheckErr                          0x080123cb   Thumb Code    28  db.o(.text)
    DB_LoadEndLog                            0x080123e7   Thumb Code   100  db.o(.text)
    DB_InitLog                               0x0801244b   Thumb Code   166  db.o(.text)
    DB_FloatToU32                            0x080124f1   Thumb Code    24  db.o(.text)
    DB_U32ToFloat                            0x08012509   Thumb Code     8  db.o(.text)
    DB_U32Load                               0x08012511   Thumb Code    98  db.o(.text)
    DB_U32Save                               0x08012573   Thumb Code   154  db.o(.text)
    DB_RingLogSave                           0x0801260d   Thumb Code   210  db.o(.text)
    DB_RingLogReset                          0x080126df   Thumb Code    38  db.o(.text)
    DB_RingLogNext                           0x08012705   Thumb Code    60  db.o(.text)
    DB_LogFill                               0x08012741   Thumb Code    42  db.o(.text)
    DB_LoadLog                               0x0801276b   Thumb Code    74  db.o(.text)
    DB_LoadNextLog                           0x080127b5   Thumb Code   134  db.o(.text)
    DB_SaveLog                               0x0801283b   Thumb Code   288  db.o(.text)
    SST25_Init                               0x08012965   Thumb Code    12  sst25.o(.text)
    SST25_DeInit                             0x08012971   Thumb Code    10  sst25.o(.text)
    SST25_Erase                              0x08012a1f   Thumb Code   158  sst25.o(.text)
    _SST25_Write                             0x08012abd   Thumb Code   152  sst25.o(.text)
    SST25_Write                              0x08012b55   Thumb Code    82  sst25.o(.text)
    SST25_Read                               0x08012ba7   Thumb Code   142  sst25.o(.text)
    MMA7660_Write                            0x08012c49   Thumb Code    26  mma7660.o(.text)
    MMA7660_Read                             0x08012c63   Thumb Code    30  mma7660.o(.text)
    MMA7660_ReadStatus                       0x08012c81   Thumb Code    10  mma7660.o(.text)
    MMA7660_Init                             0x08012c8b   Thumb Code   218  mma7660.o(.text)
    __rt_ctype_table                         0x08012d6d   Thumb Code     4  ctype_o.o(.text)
    isspace                                  0x08012d75   Thumb Code    18  isspace_o.o(.text)
    toupper                                  0x08012d87   Thumb Code    12  toupper.o(.text)
    __aeabi_memcpy                           0x08012d93   Thumb Code    36  memcpya.o(.text)
    __aeabi_memcpy4                          0x08012d93   Thumb Code     0  memcpya.o(.text)
    __aeabi_memcpy8                          0x08012d93   Thumb Code     0  memcpya.o(.text)
    __aeabi_memset                           0x08012db7   Thumb Code    14  memseta.o(.text)
    __aeabi_memset4                          0x08012db7   Thumb Code     0  memseta.o(.text)
    __aeabi_memset8                          0x08012db7   Thumb Code     0  memseta.o(.text)
    __aeabi_memclr                           0x08012dc5   Thumb Code     4  memseta.o(.text)
    __aeabi_memclr4                          0x08012dc5   Thumb Code     0  memseta.o(.text)
    __aeabi_memclr8                          0x08012dc5   Thumb Code     0  memseta.o(.text)
    _memset$wrapper                          0x08012dc9   Thumb Code    18  memseta.o(.text)
    strcat                                   0x08012ddb   Thumb Code    24  strcat.o(.text)
    strstr                                   0x08012df3   Thumb Code    36  strstr.o(.text)
    strncpy                                  0x08012e17   Thumb Code    24  strncpy.o(.text)
    strlen                                   0x08012e2f   Thumb Code    14  strlen.o(.text)
    strcmp                                   0x08012e3d   Thumb Code    28  strcmp.o(.text)
    memchr                                   0x08012e59   Thumb Code    20  memchr.o(.text)
    memcmp                                   0x08012e6d   Thumb Code    26  memcmp.o(.text)
    strcpy                                   0x08012e87   Thumb Code    18  strcpy.o(.text)
    __0sscanf                                0x08012e99   Thumb Code    48  __0sscanf.o(.text)
    _scanf_int                               0x08012ed1   Thumb Code   336  _scanf_int.o(.text)
    _scanf_string                            0x08013021   Thumb Code   218  _scanf_str.o(.text)
    _scanf_real                              0x080131fd   Thumb Code     0  scanf_fp.o(.text)
    _scanf_really_real                       0x080131fd   Thumb Code   560  scanf_fp.o(.text)
    strtol                                   0x08013439   Thumb Code   112  strtol.o(.text)
    __aeabi_fadd                             0x080134a9   Thumb Code   164  fadd.o(.text)
    __aeabi_fsub                             0x0801354d   Thumb Code     6  fadd.o(.text)
    __aeabi_frsub                            0x08013553   Thumb Code     6  fadd.o(.text)
    __aeabi_fmul                             0x08013559   Thumb Code   108  fmul.o(.text)
    __aeabi_fdiv                             0x080135c5   Thumb Code   128  fdiv.o(.text)
    __aeabi_dadd                             0x08013645   Thumb Code   322  dadd.o(.text)
    __aeabi_dsub                             0x08013787   Thumb Code     6  dadd.o(.text)
    __aeabi_drsub                            0x0801378d   Thumb Code     6  dadd.o(.text)
    __aeabi_dmul                             0x08013793   Thumb Code   228  dmul.o(.text)
    __aeabi_ddiv                             0x08013877   Thumb Code   222  ddiv.o(.text)
    __aeabi_i2f                              0x08013955   Thumb Code    18  fflti.o(.text)
    __aeabi_ui2f                             0x08013967   Thumb Code    10  ffltui.o(.text)
    __aeabi_ui2d                             0x08013971   Thumb Code    26  dfltui.o(.text)
    __aeabi_f2uiz                            0x0801398b   Thumb Code    40  ffixui.o(.text)
    __aeabi_d2uiz                            0x080139b3   Thumb Code    50  dfixui.o(.text)
    __aeabi_f2d                              0x080139e5   Thumb Code    38  f2d.o(.text)
    __aeabi_cdcmpeq                          0x08013a0d   Thumb Code     0  cdcmple.o(.text)
    __aeabi_cdcmple                          0x08013a0d   Thumb Code    38  cdcmple.o(.text)
    __aeabi_cdrcmple                         0x08013a35   Thumb Code    38  cdrcmple.o(.text)
    __aeabi_d2f                              0x08013a5d   Thumb Code    56  d2f.o(.text)
    __aeabi_cfcmpeq                          0x08013a95   Thumb Code     0  cfcmple.o(.text)
    __aeabi_cfcmple                          0x08013a95   Thumb Code    20  cfcmple.o(.text)
    __aeabi_cfrcmple                         0x08013aa9   Thumb Code    20  cfrcmple.o(.text)
    __aeabi_uidiv                            0x08013abd   Thumb Code     0  uidiv.o(.text)
    __aeabi_uidivmod                         0x08013abd   Thumb Code    44  uidiv.o(.text)
    __aeabi_uldivmod                         0x08013ae9   Thumb Code    98  uldiv.o(.text)
    __aeabi_llsl                             0x08013b4b   Thumb Code    30  llshl.o(.text)
    _ll_shift_l                              0x08013b4b   Thumb Code     0  llshl.o(.text)
    __aeabi_llsr                             0x08013b69   Thumb Code    32  llushr.o(.text)
    _ll_ushift_r                             0x08013b69   Thumb Code     0  llushr.o(.text)
    __aeabi_lasr                             0x08013b89   Thumb Code    36  llsshr.o(.text)
    _ll_sshift_r                             0x08013b89   Thumb Code     0  llsshr.o(.text)
    _chval                                   0x08013bad   Thumb Code    28  _chval.o(.text)
    __vfscanf_char                           0x08013bd5   Thumb Code    20  scanf_char.o(.text)
    _sgetc                                   0x08013bf1   Thumb Code    30  _sgetc.o(.text)
    _sbackspace                              0x08013c0f   Thumb Code    34  _sgetc.o(.text)
    _strtoul                                 0x08013c31   Thumb Code   158  _strtoul.o(.text)
    __strtod_int                             0x08013d07   Thumb Code    88  strtod.o(.text)
    __I$use$fp                               0x08013d6d   Thumb Code     0  iusefp.o(.text)
    _float_round                             0x08013d6d   Thumb Code    18  fepilogue.o(.text)
    _float_epilogue                          0x08013d7f   Thumb Code    90  fepilogue.o(.text)
    _double_round                            0x08013dd9   Thumb Code    26  depilogue.o(.text)
    _double_epilogue                         0x08013df3   Thumb Code   164  depilogue.o(.text)
    __aeabi_ul2d                             0x08013e97   Thumb Code    24  dfltul.o(.text)
    __aeabi_d2ulz                            0x08013eaf   Thumb Code    48  dfixul.o(.text)
    __scatterload                            0x08013ee1   Thumb Code    28  init.o(.text)
    __scatterload_rt2                        0x08013ee1   Thumb Code     0  init.o(.text)
    __vfscanf                                0x08013f05   Thumb Code   806  _scanf.o(.text)
    __decompress                             0x08014231   Thumb Code     0  __dczerorl2.o(.text)
    __decompress1                            0x08014231   Thumb Code    92  __dczerorl2.o(.text)
    __0sprintf                               0x0801428d   Thumb Code    34  printfa.o(i.__0sprintf)
    __1sprintf                               0x0801428d   Thumb Code     0  printfa.o(i.__0sprintf)
    __2sprintf                               0x0801428d   Thumb Code     0  printfa.o(i.__0sprintf)
    __c89sprintf                             0x0801428d   Thumb Code     0  printfa.o(i.__0sprintf)
    sprintf                                  0x0801428d   Thumb Code     0  printfa.o(i.__0sprintf)
    __0vsprintf                              0x080142b5   Thumb Code    30  printfa.o(i.__0vsprintf)
    __1vsprintf                              0x080142b5   Thumb Code     0  printfa.o(i.__0vsprintf)
    __2vsprintf                              0x080142b5   Thumb Code     0  printfa.o(i.__0vsprintf)
    __c89vsprintf                            0x080142b5   Thumb Code     0  printfa.o(i.__0vsprintf)
    vsprintf                                 0x080142b5   Thumb Code     0  printfa.o(i.__0vsprintf)
    __aeabi_errno_addr                       0x080142d9   Thumb Code     4  errno.o(i.__aeabi_errno_addr)
    __rt_errno_addr                          0x080142d9   Thumb Code     0  errno.o(i.__aeabi_errno_addr)
    __scatterload_copy                       0x080142e1   Thumb Code    14  handlers.o(i.__scatterload_copy)
    __scatterload_null                       0x080142ef   Thumb Code     2  handlers.o(i.__scatterload_null)
    __scatterload_zeroinit                   0x080142f1   Thumb Code    14  handlers.o(i.__scatterload_zeroinit)
    _is_digit                                0x0801445d   Thumb Code    14  scanf_fp.o(i._is_digit)
    floor                                    0x08014bbd   Thumb Code   204  floor.o(i.floor)
    strtod                                   0x08014c99   Thumb Code    28  strtod.o(i.strtod)
    smsReplyOk                               0x08014cb4   Data          14  sms_task.o(.constdata)
    addrString                               0x08014cc2   Data           7  sms_task.o(.constdata)
    smsCallReportLocation                    0x08014cc9   Data          23  call_task.o(.constdata)
    smsgSensorAlarmWarning                   0x08014ce0   Data          20  alarm_task.o(.constdata)
    watchdogCntValueMax                      0x08014cf4   Data           4  rtc.o(.constdata)
    uip_broadcast_addr                       0x08014cf8   Data           4  uip.o(.constdata)
    uip_all_zeroes_addr                      0x08014cfc   Data           4  uip.o(.constdata)
    fcstab                                   0x08014d00   Data         512  fcs.o(.constdata)
    _ytab                                    0x08014f00   Data          96  m_time.o(.constdata)
    callPickUpBuf                            0x08014f60   Data           6  at_cmd_call_parser.o(.constdata)
    terminateStr                             0x08014fd8   Data           7  at_command_parser.o(.constdata)
    atGsmCmdStart                            0x08014fe0   Data         280  at_gsm_task.o(.constdata)
    __ctype_table                            0x08015148   Data         129  ctype_o.o(.constdata)
    Region$$Table$$Base                      0x080152f4   Number         0  anon$$obj.o(Region$$Table)
    Region$$Table$$Limit                     0x08015314   Number         0  anon$$obj.o(Region$$Table)
    mainBuf                                  0x20000000   Data         256  main.o(.data)
    sleepCnt                                 0x20000100   Data           2  main.o(.data)
    reportInterVal                           0x20000104   Data           4  main.o(.data)
    smsTimeCheck                             0x20000108   Data           4  main.o(.data)
    sendStatus                               0x2000010c   Data           1  main.o(.data)
    statusSentFlag                           0x2000010d   Data           1  main.o(.data)
    intervalReportWakeFlag                   0x2000010e   Data           1  main.o(.data)
    sysStatus                                0x2000010f   Data           1  main.o(.data)
    timer2Cnt                                0x20000110   Data           4  main.o(.data)
    sysUploadConfig                          0x20000114   Data           1  system_config.o(.data)
    sysResetMcuFlag                          0x20000115   Data           1  system_config.o(.data)
    trackerTaskRun                           0x20000118   Data           1  tracker.o(.data)
    an1Voltage                               0x2000011c   Data           4  tracker.o(.data)
    trackerTaskCnt                           0x20000120   Data           4  tracker.o(.data)
    adcChannel8Value                         0x20000124   Data           4  tracker.o(.data)
    newUpdateGps                             0x20000128   Data           1  tracker.o(.data)
    logSendPt                                0x2000012c   Data           4  tracker.o(.data)
    mileage                                  0x20000130   Data           4  tracker.o(.data)
    trackerSaveLog                           0x20000134   Data           1  tracker.o(.data)
    ADC1_10_Value                            0x20000138   Data           4  adc_task.o(.data)
    ADC1_11_Value                            0x2000013c   Data           4  adc_task.o(.data)
    ADC1_Temperature                         0x20000140   Data           4  adc_task.o(.data)
    temperature                              0x20000144   Data           4  adc_task.o(.data)
    ADC_CntValue                             0x20000148   Data           1  adc_task.o(.data)
    ADC_Updated                              0x20000149   Data           1  adc_task.o(.data)
    askAddrCnt                               0x20000154   Data           1  sms_task.o(.data)
    getAddrFlag                              0x20000155   Data           1  sms_task.o(.data)
    gotAddrFlag                              0x20000156   Data           1  sms_task.o(.data)
    addrSendToUserFlag                       0x20000157   Data           1  sms_task.o(.data)
    systemReset                              0x20000158   Data           1  sms_task.o(.data)
    firmwareSendFileOffSetFlag               0x20000160   Data           4  app_config_task.o(.data)
    firmwareSaveFileOffsetCnt                0x20000164   Data           4  app_config_task.o(.data)
    firmwareStatus                           0x20000168   Data           4  app_config_task.o(.data)
    logSource                                0x2000016c   Data           1  app_config_task.o(.data)
    firmwareFileCrc                          0x20000170   Data           4  app_config_task.o(.data)
    firmwareFileSize                         0x20000174   Data           4  app_config_task.o(.data)
    firmwareFileOffSet                       0x20000178   Data           4  app_config_task.o(.data)
    firmwareFileOffSetOld                    0x2000017c   Data           4  app_config_task.o(.data)
    alarmFlag                                0x20000180   Data           4  alarm_task.o(.data)
    gSensorAlarmTimes                        0x20000184   Data           1  alarm_task.o(.data)
    accOffTime                               0x20000185   Data           1  alarm_task.o(.data)
    rpState                                  0x200001a4   Data           1  reporter.o(.data)
    rexmitCnt                                0x200001a6   Data           2  reporter.o(.data)
    timedOutCnt                              0x200001a8   Data           2  reporter.o(.data)
    rpLen                                    0x200001aa   Data           2  reporter.o(.data)
    loginLen                                 0x200001ac   Data           2  reporter.o(.data)
    loggedIn                                 0x200001ae   Data           1  reporter.o(.data)
    askCmd                                   0x200001b0   Data           4  reporter.o(.data)
    rpTaskLen                                0x200001b4   Data           4  reporter.o(.data)
    tcpIpTryCnt                              0x200001b8   Data           1  reporter.o(.data)
    callBackCnt                              0x200001bc   Data           4  reporter.o(.data)
    reportCnt                                0x200001c0   Data           4  reporter.o(.data)
    rpSwitchServer                           0x200001c4   Data           4  reporter.o(.data)
    sentDataCnt                              0x200001c8   Data           4  reporter.o(.data)
    recvDataCnt                              0x200001cc   Data           4  reporter.o(.data)
    rpServerIpAddr                           0x200001d0   Data           4  reporter.o(.data)
    rpServerIp                               0x200001d4   Data           4  reporter.o(.data)
    rpConn                                   0x200001d8   Data           4  reporter.o(.data)
    rpTick                                   0x200001dc   Data           4  reporter.o(.data)
    fwState                                  0x200001e0   Data           1  firmware_task.o(.data)
    fwTimedOutCnt                            0x200001e4   Data           2  firmware_task.o(.data)
    fwLen                                    0x200001e6   Data           2  firmware_task.o(.data)
    fwLoggedIn                               0x200001e8   Data           1  firmware_task.o(.data)
    fwCallBackCnt                            0x200001ec   Data           4  firmware_task.o(.data)
    fFlagSendData                            0x200001f0   Data           1  firmware_task.o(.data)
    fDataLength                              0x200001f2   Data           2  firmware_task.o(.data)
    fwSwitchServer                           0x200001f4   Data           4  firmware_task.o(.data)
    fwServerIpAddr                           0x200001f8   Data           4  firmware_task.o(.data)
    fwServerIp                               0x200001fc   Data           4  firmware_task.o(.data)
    fwConn                                   0x20000200   Data           4  firmware_task.o(.data)
    fwTick                                   0x20000204   Data           4  firmware_task.o(.data)
    fCnt                                     0x20000208   Data           4  firmware_task.o(.data)
    accelerometerAlarmCnt                    0x2000020c   Data           1  accelerometer_task.o(.data)
    accelSampleCnt                           0x20000210   Data           4  accelerometer_task.o(.data)
    accelAlarmTimes                          0x20000214   Data           1  accelerometer_task.o(.data)
    accel_x                                  0x20000216   Data           2  accelerometer_task.o(.data)
    accel_y                                  0x20000218   Data           2  accelerometer_task.o(.data)
    accel_z                                  0x2000021a   Data           2  accelerometer_task.o(.data)
    accel_x1                                 0x2000021c   Data           2  accelerometer_task.o(.data)
    accel_y1                                 0x2000021e   Data           2  accelerometer_task.o(.data)
    accel_z1                                 0x20000220   Data           2  accelerometer_task.o(.data)
    accel_x_min                              0x20000222   Data           2  accelerometer_task.o(.data)
    accel_y_min                              0x20000224   Data           2  accelerometer_task.o(.data)
    accel_z_min                              0x20000226   Data           2  accelerometer_task.o(.data)
    accel_x_max                              0x20000228   Data           2  accelerometer_task.o(.data)
    accel_y_max                              0x2000022a   Data           2  accelerometer_task.o(.data)
    accel_z_max                              0x2000022c   Data           2  accelerometer_task.o(.data)
    SystemCoreClock                          0x20000230   Data           4  system_stm32f10x.o(.data)
    AHBPrescTable                            0x20000234   Data          16  system_stm32f10x.o(.data)
    rtcCnt                                   0x20000244   Data           4  rtc.o(.data)
    resetCnt                                 0x20000248   Data           1  rtc.o(.data)
    watchdogEnable                           0x2000024c   Data           4  rtc.o(.data)
    watchdogCnt                              0x20000250   Data           4  rtc.o(.data)
    watchdogFeed                             0x20000254   Data           4  rtc.o(.data)
    sec                                      0x20000258   Data           4  rtc.o(.data)
    resolverTick                             0x20000270   Data           8  resolver.o(.data)
    resolverState                            0x20000278   Data           1  resolver.o(.data)
    curr_tick                                0x20000290   Data           4  timer.o(.data)
    uip_ethaddr                              0x20000294   Data           6  uip.o(.data)
    uip_hostaddr                             0x2000029a   Data           4  uip.o(.data)
    uip_draddr                               0x2000029e   Data           4  uip.o(.data)
    uip_netmask                              0x200002a2   Data           4  uip.o(.data)
    uip_appdata                              0x200002a8   Data           4  uip.o(.data)
    uip_sappdata                             0x200002ac   Data           4  uip.o(.data)
    uip_len                                  0x200002b0   Data           2  uip.o(.data)
    uip_slen                                 0x200002b2   Data           2  uip.o(.data)
    uip_flags                                0x200002b4   Data           1  uip.o(.data)
    uip_conn                                 0x200002b8   Data           4  uip.o(.data)
    uip_listenports                          0x200002bc   Data           2  uip.o(.data)
    uip_udp_conn                             0x200002c0   Data           4  uip.o(.data)
    uip_acc32                                0x200002cc   Data           4  uip.o(.data)
    uipTimer                                 0x200002d4   Data           8  uip_ppp.o(.data)
    pppRxBuf                                 0x200002dc   Data           4  ppp.o(.data)
    pppIsEsc                                 0x200002e0   Data           1  ppp.o(.data)
    pppDialAttempts                          0x200002e1   Data           1  ppp.o(.data)
    pppUseESC                                0x200002e2   Data           1  ppp.o(.data)
    pppRestartCount                          0x200002e3   Data           1  ppp.o(.data)
    pppFrameSize                             0x200002e4   Data           2  ppp.o(.data)
    pppMsgID                                 0x200002e6   Data           1  ppp.o(.data)
    pppTick                                  0x200002e8   Data           4  ppp.o(.data)
    pppTimerOn                               0x200002ec   Data           1  ppp.o(.data)
    pppDataPrepared                          0x200002ed   Data           1  ppp.o(.data)
    pppIpAddr                                0x200002ee   Data           4  ppp.o(.data)
    lcpState                                 0x200002f2   Data           1  ppp.o(.data)
    papState                                 0x200002f3   Data           1  ppp.o(.data)
    ipcpState                                0x200002f4   Data           1  ppp.o(.data)
    pppPhase                                 0x200002f5   Data           1  ppp.o(.data)
    pppInState                               0x200002f6   Data           1  ppp.o(.data)
    _daylight                                0x200002f8   Data           4  m_time.o(.data)
    _dstbias                                 0x200002fc   Data           4  m_time.o(.data)
    _timezone                                0x20000300   Data           4  m_time.o(.data)
    rtcTimeSec                               0x20000304   Data           4  sys_time.o(.data)
    timeZone                                 0x20000308   Data           4  sys_time.o(.data)
    sysTimeZone                              0x2000030c   Data           4  sys_time.o(.data)
    rtcUpdateFlag                            0x20000310   Data           4  sys_time.o(.data)
    rtcUpdateCnt                             0x20000314   Data           4  sys_time.o(.data)
    sysTime                                  0x20000318   Data           8  sys_time.o(.data)
    sysTickTimeSec                           0x20000328   Data           4  sys_tick.o(.data)
    sysTickCounter32                         0x2000032c   Data           4  sys_tick.o(.data)
    sysTickCounter64                         0x20000330   Data           8  sys_tick.o(.data)
    voiceCall_TaskPhase                      0x20000338   Data           1  at_cmd_call_parser.o(.data)
    voiceCall_OldTaskPhase                   0x20000339   Data           1  at_cmd_call_parser.o(.data)
    pickUpPos                                0x2000033a   Data           1  at_cmd_call_parser.o(.data)
    callSentATH                              0x2000033b   Data           1  at_cmd_call_parser.o(.data)
    batteryPercent                           0x20000340   Data           2  at_cmd_common_parser.o(.data)
    flagGotSimCID                            0x20000342   Data           1  at_cmd_common_parser.o(.data)
    flagGotIMEI                              0x20000343   Data           1  at_cmd_common_parser.o(.data)
    newIMEI_IsUpdate                         0x20000344   Data           1  at_cmd_common_parser.o(.data)
    modemIMEIPass                            0x20000345   Data           1  at_cmd_common_parser.o(.data)
    gsmGetTimeFlag                           0x20000346   Data           1  at_cmd_common_parser.o(.data)
    sysGsmTimezone                           0x20000348   Data           4  at_cmd_common_parser.o(.data)
    gsmCommonPhase                           0x2000034c   Data           1  at_cmd_common_parser.o(.data)
    gsmCmdRetry                              0x2000034d   Data           1  at_cmd_common_parser.o(.data)
    sysGsmTime                               0x2000035a   Data           8  at_cmd_common_parser.o(.data)
    smsNewMessageFlag                        0x2000036c   Data           1  at_cmd_sms_parser.o(.data)
    smsPhase                                 0x2000036d   Data           1  at_cmd_sms_parser.o(.data)
    smsCancelAll                             0x2000036e   Data           1  at_cmd_sms_parser.o(.data)
    flagSmsReadFinish                        0x2000036f   Data           1  at_cmd_sms_parser.o(.data)
    getServiceCenterNumber                   0x20000370   Data           1  at_cmd_sms_parser.o(.data)
    smsMsg                                   0x2000038c   Data           4  at_cmd_sms_parser.o(.data)
    pdu_len_except_smsc                      0x20000390   Data           1  at_cmd_sms_parser.o(.data)
    pdu_len                                  0x20000391   Data           1  at_cmd_sms_parser.o(.data)
    commandSeparator                         0x20000394   Data           4  at_command_parser.o(.data)
    registerNetworkRetry                     0x2000039c   Data           1  at_gsm_task.o(.data)
    flagGsmStatus                            0x2000039d   Data           1  at_gsm_task.o(.data)
    enableGprsRetryCnt                       0x2000039e   Data           1  at_gsm_task.o(.data)
    gprsEnableFlag                           0x2000039f   Data           1  at_gsm_task.o(.data)
    gprsDisable                              0x200003a0   Data           1  at_gsm_task.o(.data)
    gprsEnableCmd                            0x200003a1   Data           1  at_gsm_task.o(.data)
    gsm_TaskPhase                            0x200003a2   Data           1  at_gsm_task.o(.data)
    gprsApn                                  0x200003a4   Data           4  at_gsm_task.o(.data)
    gprsUsr                                  0x200003a8   Data           4  at_gsm_task.o(.data)
    gprsPwd                                  0x200003ac   Data           4  at_gsm_task.o(.data)
    modemCmd_TaskPhase                       0x200003b8   Data           1  at_send_cmd_task.o(.data)
    cmdTimeoutCount                          0x200003b9   Data           1  at_send_cmd_task.o(.data)
    modemCancel                              0x200003ba   Data           1  at_send_cmd_task.o(.data)
    criticalCmd                              0x200003bb   Data           1  at_send_cmd_task.o(.data)
    cmdParsedChar                            0x200003bc   Data           1  at_send_cmd_task.o(.data)
    modemIsBusy                              0x200003bd   Data           1  at_send_cmd_task.o(.data)
    modemIsBusySource                        0x200003be   Data           1  at_send_cmd_task.o(.data)
    atProcessCmd                             0x200003c0   Data           8  at_send_cmd_task.o(.data)
    modemDialFlag                            0x200003c8   Data           1  modem.o(.data)
    modemToCommandModeFlag                   0x200003c9   Data           1  modem.o(.data)
    modemToDataModeFlag                      0x200003ca   Data           1  modem.o(.data)
    modem_IsOnline                           0x200003cb   Data           1  modem.o(.data)
    modemOk                                  0x200003cc   Data           4  modem.o(.data)
    modemError                               0x200003d0   Data           4  modem.o(.data)
    modemCmdMode                             0x200003d4   Data           1  modem.o(.data)
    csqValue                                 0x200003d8   Data           4  modem.o(.data)
    gsmSignal                                0x200003dc   Data           1  modem.o(.data)
    modemApn                                 0x200003e0   Data           4  modem.o(.data)
    commTxRingBuf                            0x200003e4   Data           4  comm.o(.data)
    commRxRingBuf                            0x200003e8   Data           4  comm.o(.data)
    pppOpenedBefore                          0x200003ec   Data           1  comm.o(.data)
    gpsCheckSum                              0x200003f0   Data           1  gps.o(.data)
    gpsCheckSumX                             0x200003f1   Data           1  gps.o(.data)
    gpsGetCheckSumFlag                       0x200003f2   Data           1  gps.o(.data)
    GPRMC_gotDataFlag                        0x200003f3   Data           1  gps.o(.data)
    GPGGA_gotDataFlag                        0x200003f4   Data           1  gps.o(.data)
    GPGSA_gotDataFlag                        0x200003f5   Data           1  gps.o(.data)
    GPGSV_gotDataFlag                        0x200003f6   Data           1  gps.o(.data)
    msgGpsDataGood                           0x200003f7   Data           1  gps.o(.data)
    gpsPulse                                 0x200003f8   Data           1  gps.o(.data)
    GPS_cmdState                             0x200003f9   Data           1  gps.o(.data)
    pPackGPRMC                               0x20000400   Data           4  gps.o(.data)
    pPackGPGGA                               0x20000404   Data           4  gps.o(.data)
    pPackGPGSA                               0x20000408   Data           4  gps.o(.data)
    pPackGPGSV                               0x2000040c   Data           4  gps.o(.data)
    GPS_numCmd                               0x20000410   Data           1  gps.o(.data)
    GPS_cmdRecvLength                        0x20000414   Data           4  gps.o(.data)
    logPositionCnt                           0x20000418   Data           4  db.o(.data)
    flagNewLog                               0x2000041c   Data           4  db.o(.data)
    flashInUse                               0x20000420   Data           4  db.o(.data)
    countErrTemp                             0x20000424   Data           4  sst25.o(.data)
    acclInit                                 0x20000428   Data           4  mma7660.o(.data)
    acclError                                0x2000042c   Data           4  mma7660.o(.data)
    tFwDownload                              0x20000434   Data          12  main.o(.bss)
    tResetApp                                0x20000440   Data          12  main.o(.bss)
    tAppTimeout                              0x2000044c   Data          12  main.o(.bss)
    sysCfg                                   0x20000458   Data         386  system_config.o(.bss)
    firmware                                 0x200005da   Data          20  system_config.o(.bss)
    ioStatus                                 0x200005f0   Data          32  hw_config.o(.bss)
    logSend                                  0x20000624   Data         112  tracker.o(.bss)
    tSpeedAlarmTimeout                       0x20000694   Data          12  tracker.o(.bss)
    ADC1ConvertedValue                       0x200006a0   Data          80  adc_task.o(.bss)
    ADC1ConvertedValueTotal                  0x200006f0   Data          12  adc_task.o(.bss)
    firmwarePhoneSender                      0x200006fc   Data          16  sms_task.o(.bss)
    smsReplyBuf                              0x2000070c   Data          32  sms_task.o(.bss)
    replySms                                 0x2000072c   Data          20  sms_task.o(.bss)
    replySmsBuf                              0x20000740   Data         160  sms_task.o(.bss)
    myAddr                                   0x200007e0   Data         160  sms_task.o(.bss)
    tGetAddrTimeout                          0x20000880   Data          12  sms_task.o(.bss)
    tGotAddrTimeout                          0x2000088c   Data          12  sms_task.o(.bss)
    tGetAddr                                 0x20000898   Data          12  sms_task.o(.bss)
    locationSms                              0x200008a4   Data          20  call_task.o(.bss)
    locationAskSmsBuf                        0x200008b8   Data         160  call_task.o(.bss)
    tFirmwareTryToUpdate                     0x20000a58   Data          12  app_config_task.o(.bss)
    configTaskBuf                            0x20000a64   Data        1024  app_config_task.o(.bss)
    configTaskRingBuf                        0x20000e64   Data          16  app_config_task.o(.bss)
    UART_ProtoRecv                           0x20000e74   Data          16  uart_config_task.o(.bss)
    UART_ProtoSend                           0x20000e84   Data          16  uart_config_task.o(.bss)
    UART_DataBuff                            0x20000e94   Data          36  uart_config_task.o(.bss)
    UART_parserPacket                        0x20000eb8   Data          10  uart_config_task.o(.bss)
    checkUart                                0x20000ec4   Data          12  uart_config_task.o(.bss)
    sysTimeSleep                             0x20000ed0   Data          12  database_app.o(.bss)
    gpsLat                                   0x20000edc   Data          12  database_app.o(.bss)
    gpsLon                                   0x20000ee8   Data          12  database_app.o(.bss)
    gpsHDOP                                  0x20000ef4   Data          12  database_app.o(.bss)
    gpsDir                                   0x20000f00   Data          12  database_app.o(.bss)
    cellLat                                  0x20000f0c   Data          12  database_app.o(.bss)
    cellLon                                  0x20000f18   Data          12  database_app.o(.bss)
    powerOfTimeDelay                         0x20000f24   Data          12  database_app.o(.bss)
    firmwareDownloadTimeout                  0x20000f30   Data          12  database_app.o(.bss)
    timeSave                                 0x20000f3c   Data          12  database_app.o(.bss)
    agpsTimeSave                             0x20000f48   Data          12  database_app.o(.bss)
    gSensorAlarmSms                          0x20000f54   Data          20  alarm_task.o(.bss)
    gSensorAlarmSmsBuf                       0x20000f68   Data         160  alarm_task.o(.bss)
    tCarAccident                             0x20001008   Data          12  alarm_task.o(.bss)
    led1Ctr                                  0x20001014   Data          20  led.o(.bss)
    tCallbackTimeout                         0x20001028   Data          12  reporter.o(.bss)
    rpBuf                                    0x20001034   Data         256  reporter.o(.bss)
    fwBuf                                    0x20001134   Data         576  firmware_task.o(.bss)
    fInfo                                    0x20001374   Data          52  firmware_task.o(.bss)
    loginSendBuff                            0x200013a8   Data          57  firmware_task.o(.bss)
    fdummySendPacket                         0x200013e4   Data          12  firmware_task.o(.bss)
    tFrimwareUpdateTimeout                   0x200013f0   Data          12  firmware_task.o(.bss)
    fwCallbackTimeout                        0x200013fc   Data          12  firmware_task.o(.bss)
    tFwTcpDataOut                            0x20001408   Data          12  firmware_task.o(.bss)
    fSendBuff                                0x20001414   Data          64  firmware_task.o(.bss)
    GPRS_DataBuff                            0x20001454   Data         516  firmware_task.o(.bss)
    GPRS_ProtoRecv                           0x20001658   Data          16  firmware_task.o(.bss)
    GPRS_ProtoSend                           0x20001668   Data          16  firmware_task.o(.bss)
    GPRS_parserPacket                        0x20001678   Data          10  firmware_task.o(.bss)
    pppReset                                 0x20001684   Data          12  tcp_ip_task.o(.bss)
    tDataIsSending                           0x20001690   Data          12  tcp_ip_task.o(.bss)
    USART1_RxBuff                            0x2000169c   Data        1024  uart1.o(.bss)
    USART1_TxBuff                            0x20001a9c   Data        1024  uart1.o(.bss)
    USART1_RxRingBuff                        0x20001e9c   Data          16  uart1.o(.bss)
    USART1_TxRingBuff                        0x20001eac   Data          16  uart1.o(.bss)
    USART2_RxBuff                            0x20001ebc   Data         128  uart2.o(.bss)
    USART2_RxRingBuff                        0x20001f3c   Data          16  uart2.o(.bss)
    USART3_RxBuff                            0x20001f4c   Data         512  uart3.o(.bss)
    USART3_TxBuff                            0x2000214c   Data         512  uart3.o(.bss)
    USART3_RxRingBuff                        0x2000234c   Data          16  uart3.o(.bss)
    USART3_TxRingBuff                        0x2000235c   Data          16  uart3.o(.bss)
    uip_aligned_buf                          0x20002494   Data        1500  uip.o(.bss)
    uip_conns                                0x20002a70   Data         160  uip.o(.bss)
    uip_udp_conns                            0x20002b10   Data          80  uip.o(.bss)
    pppTxBuf                                 0x20002b60   Data          89  ppp.o(.bss)
    pppUsr                                   0x20002bb9   Data          16  ppp.o(.bss)
    pppPwd                                   0x20002bc9   Data          16  ppp.o(.bss)
    atCmdCallParser                          0x20002bdc   Data          46  at_cmd_call_parser.o(.bss)
    tCallRingCheckTimeOut                    0x20002c0c   Data          12  at_cmd_call_parser.o(.bss)
    tVoiceCallTaskTimeOut                    0x20002c18   Data          12  at_cmd_call_parser.o(.bss)
    tCallTaskDelay                           0x20002c24   Data          12  at_cmd_call_parser.o(.bss)
    tStartCallErrorTimeOut                   0x20002c30   Data          12  at_cmd_call_parser.o(.bss)
    tWaitCallActionTimeOut                   0x20002c3c   Data          12  at_cmd_call_parser.o(.bss)
    tVoiceCallTaskTimeout                    0x20002c48   Data          12  at_cmd_call_parser.o(.bss)
    dialingPhoneNumber                       0x20002c54   Data          16  at_cmd_call_parser.o(.bss)
    gsmSimCIDBuf                             0x20002c64   Data          32  at_cmd_common_parser.o(.bss)
    gsmIMEIBuf                               0x20002c84   Data          18  at_cmd_common_parser.o(.bss)
    tGsmCommonTaskTimeOut                    0x20002c98   Data          12  at_cmd_common_parser.o(.bss)
    tGsmCommonTaskDelay                      0x20002ca4   Data          12  at_cmd_common_parser.o(.bss)
    smsUnreadBuff                            0x20002cb0   Data          32  at_cmd_sms_parser.o(.bss)
    tSmsTaskTimeOut                          0x20002cd0   Data          12  at_cmd_sms_parser.o(.bss)
    smsUnreadRingBuff                        0x20002cdc   Data          16  at_cmd_sms_parser.o(.bss)
    smsSender                                0x20002cec   Data          16  at_cmd_sms_parser.o(.bss)
    smsDataBuf                               0x20002cfc   Data         256  at_cmd_sms_parser.o(.bss)
    serviceCenterNumber                      0x20002dfc   Data          16  at_cmd_sms_parser.o(.bss)
    cmdCnt                                   0x20002e0c   Data          14  at_command_parser.o(.bss)
    AT_CmdParser                             0x20002e1c   Data          16  at_command_parser.o(.bss)
    atGsmCmdListStart                        0x20002e2c   Data          80  at_gsm_task.o(.bss)
    tGsmTaskPhaseTimeOut                     0x20002e7c   Data          12  at_gsm_task.o(.bss)
    tGsmTaskDelay                            0x20002e88   Data          12  at_gsm_task.o(.bss)
    tGprsEnable                              0x20002e94   Data          12  at_gsm_task.o(.bss)
    modemAtCmdBuf                            0x20002ea0   Data         128  at_send_cmd_task.o(.bss)
    modemCmpOk                               0x20002f20   Data          12  at_send_cmd_task.o(.bss)
    modemCmpFails                            0x20002f2c   Data          12  at_send_cmd_task.o(.bss)
    tModemAtTimeout                          0x20002f38   Data          12  at_send_cmd_task.o(.bss)
    tModemCancelTimeout                      0x20002f44   Data          12  at_send_cmd_task.o(.bss)
    tModemIsBusyTimeOut                      0x20002f50   Data          12  at_send_cmd_task.o(.bss)
    cmdPckSend                               0x20002f5c   Data          28  at_send_cmd_task.o(.bss)
    atCallBackParser                         0x20002f78   Data          16  at_send_cmd_task.o(.bss)
    csqBuff                                  0x20003008   Data          16  modem.o(.bss)
    buffGPRMC                                0x20003018   Data          80  gps.o(.bss)
    buffGPGGA                                0x20003068   Data          80  gps.o(.bss)
    buffGPGSA                                0x200030b8   Data          80  gps.o(.bss)
    buffGPGSV                                0x20003108   Data          80  gps.o(.bss)
    msgTerm                                  0x20003158   Data          80  gps.o(.bss)
    GPS_Buff                                 0x200031a8   Data         128  gps.o(.bss)
    gpsInfo                                  0x20003228   Data         400  gps.o(.bss)
    lastGpsInfo                              0x200033b8   Data         400  gps.o(.bss)
    GPS_cmdCnt                               0x20003548   Data          16  gps.o(.bss)
    logRecord                                0x20003558   Data         112  db.o(.bss)
    newestLog                                0x200035c8   Data         112  db.o(.bss)
    ringLog                                  0x20003638   Data           9  db.o(.bss)
    __initial_sp                             0x20003a48   Data           0  startup_stm32f10x_md.o(STACK)



==============================================================================

Memory Map of the image

  Image Entry point : 0x080028ed

  Load Region LR_IROM1 (Base: 0x08002800, Size: 0x00012f48, Max: 0x00020000, ABSOLUTE, COMPRESSED[0x00012bc4])

    Execution Region ER_IROM1 (Base: 0x08002800, Size: 0x00012b14, Max: 0x00020000, ABSOLUTE)

    Base Addr    Size         Type   Attr      Idx    E Section Name        Object

    0x08002800   0x000000ec   Data   RO          704    RESET               startup_stm32f10x_md.o
    0x080028ec   0x00000000   Code   RO         1632  * .ARM.Collect$$$$00000000  mc_w.l(entry.o)
    0x080028ec   0x00000004   Code   RO         1994    .ARM.Collect$$$$00000001  mc_w.l(entry2.o)
    0x080028f0   0x00000004   Code   RO         1997    .ARM.Collect$$$$00000004  mc_w.l(entry5.o)
    0x080028f4   0x00000000   Code   RO         1999    .ARM.Collect$$$$00000008  mc_w.l(entry7b.o)
    0x080028f4   0x00000000   Code   RO         2001    .ARM.Collect$$$$0000000A  mc_w.l(entry8b.o)
    0x080028f4   0x00000008   Code   RO         2002    .ARM.Collect$$$$0000000B  mc_w.l(entry9a.o)
    0x080028fc   0x00000000   Code   RO         2004    .ARM.Collect$$$$0000000D  mc_w.l(entry10a.o)
    0x080028fc   0x00000000   Code   RO         2006    .ARM.Collect$$$$0000000F  mc_w.l(entry11a.o)
    0x080028fc   0x00000004   Code   RO         1995    .ARM.Collect$$$$00002712  mc_w.l(entry2.o)
    0x08002900   0x0000091c   Code   RO            1    .text               main.o
    0x0800321c   0x00000364   Code   RO          290    .text               system_config.o
    0x08003580   0x0000023c   Code   RO          319    .text               hw_config.o
    0x080037bc   0x00000c1c   Code   RO          337    .text               tracker.o
    0x080043d8   0x00000398   Code   RO          375    .text               adc_task.o
    0x08004770   0x00000894   Code   RO          394    .text               sms_task.o
    0x08005004   0x000000fc   Code   RO          450    .text               call_task.o
    0x08005100   0x00000aa0   Code   RO          470    .text               app_config_task.o
    0x08005ba0   0x00000074   Code   RO          500    .text               uart_config_task.o
    0x08005c14   0x00000198   Code   RO          516    .text               database_app.o
    0x08005dac   0x000001a8   Code   RO          548    .text               alarm_task.o
    0x08005f54   0x000000e8   Code   RO          565    .text               led.o
    0x0800603c   0x00000608   Code   RO          585    .text               reporter.o
    0x08006644   0x000007f4   Code   RO          640    .text               firmware_task.o
    0x08006e38   0x000000d0   Code   RO          657    .text               tcp_ip_task.o
    0x08006f08   0x0000020c   Code   RO          682    .text               accelerometer_task.o
    0x08007114   0x0000001c   Code   RO          705    .text               startup_stm32f10x_md.o
    0x08007130   0x000001e0   Code   RO          720    .text               system_stm32f10x.o
    0x08007310   0x00000068   Code   RO          738    .text               tick.o
    0x08007378   0x000005bc   Code   RO          799    .text               stm32f10x_flash.o
    0x08007934   0x00000040   Code   RO          811    .text               stm32f10x_iwdg.o
    0x08007974   0x00000318   Code   RO          823    .text               uart1.o
    0x08007c8c   0x000001bc   Code   RO          847    .text               uart2.o
    0x08007e48   0x00000258   Code   RO          865    .text               uart3.o
    0x080080a0   0x000005d8   Code   RO          884    .text               i2c.o
    0x08008678   0x000002e0   Code   RO          896    .text               spi.o
    0x08008958   0x000003ac   Code   RO          920    .text               rtc.o
    0x08008d04   0x00000320   Code   RO          940    .text               exti.o
    0x08009024   0x00000358   Code   RO          957    .text               stm32f10x_gpio.o
    0x0800937c   0x00000250   Code   RO          969    .text               stm32f10x_dma.o
    0x080095cc   0x0000044e   Code   RO          996    .text               stm32f10x_adc.o
    0x08009a1a   0x00000002   PAD
    0x08009a1c   0x000003a4   Code   RO         1008    .text               stm32f10x_rcc.o
    0x08009dc0   0x000000c0   Code   RO         1022    .text               resolver.o
    0x08009e80   0x0000039c   Code   RO         1045    .text               resolv.o
    0x0800a21c   0x0000004c   Code   RO         1060    .text               timer.o
    0x0800a268   0x000013ac   Code   RO         1075    .text               uip.o
    0x0800b614   0x00000170   Code   RO         1099    .text               uip_ppp.o
    0x0800b784   0x00000044   Code   RO         1115    .text               fcs.o
    0x0800b7c8   0x00001670   Code   RO         1130    .text               ppp.o
    0x0800ce38   0x0000064c   Code   RO         1161    .text               m_time.o
    0x0800d484   0x0000029c   Code   RO         1177    .text               sys_time.o
    0x0800d720   0x00000054   Code   RO         1198    .text               data_cmp.o
    0x0800d774   0x000001e4   Code   RO         1213    .text               encoding.o
    0x0800d958   0x00000114   Code   RO         1228    .text               list.o
    0x0800da6c   0x00000094   Code   RO         1280    .text               ringbuf.o
    0x0800db00   0x0000014c   Code   RO         1296    .text               sparser.o
    0x0800dc4c   0x000000fc   Code   RO         1312    .text               sys_tick.o
    0x0800dd48   0x0000010c   Code   RO         1330    .text               gsm_hwr.o
    0x0800de54   0x00000f30   Code   RO         1350    .text               at_cmd_call_parser.o
    0x0800ed84   0x00000b2c   Code   RO         1385    .text               at_cmd_common_parser.o
    0x0800f8b0   0x00000ba0   Code   RO         1409    .text               at_cmd_sms_parser.o
    0x08010450   0x00000054   Code   RO         1431    .text               at_command_parser.o
    0x080104a4   0x00000310   Code   RO         1452    .text               at_gsm_task.o
    0x080107b4   0x00000454   Code   RO         1473    .text               at_send_cmd_task.o
    0x08010c08   0x00000314   Code   RO         1492    .text               modem.o
    0x08010f1c   0x00000504   Code   RO         1512    .text               pdu.o
    0x08011420   0x00000054   Code   RO         1527    .text               comm.o
    0x08011474   0x00000f3c   Code   RO         1547    .text               gps.o
    0x080123b0   0x000005b4   Code   RO         1572    .text               db.o
    0x08012964   0x000002e4   Code   RO         1591    .text               sst25.o
    0x08012c48   0x00000124   Code   RO         1606    .text               mma7660.o
    0x08012d6c   0x00000008   Code   RO         1635    .text               mc_w.l(ctype_o.o)
    0x08012d74   0x00000012   Code   RO         1657    .text               mc_w.l(isspace_o.o)
    0x08012d86   0x0000000c   Code   RO         1663    .text               mc_w.l(toupper.o)
    0x08012d92   0x00000024   Code   RO         1665    .text               mc_w.l(memcpya.o)
    0x08012db6   0x00000024   Code   RO         1667    .text               mc_w.l(memseta.o)
    0x08012dda   0x00000018   Code   RO         1669    .text               mc_w.l(strcat.o)
    0x08012df2   0x00000024   Code   RO         1671    .text               mc_w.l(strstr.o)
    0x08012e16   0x00000018   Code   RO         1673    .text               mc_w.l(strncpy.o)
    0x08012e2e   0x0000000e   Code   RO         1675    .text               mc_w.l(strlen.o)
    0x08012e3c   0x0000001c   Code   RO         1677    .text               mc_w.l(strcmp.o)
    0x08012e58   0x00000014   Code   RO         1679    .text               mc_w.l(memchr.o)
    0x08012e6c   0x0000001a   Code   RO         1681    .text               mc_w.l(memcmp.o)
    0x08012e86   0x00000012   Code   RO         1683    .text               mc_w.l(strcpy.o)
    0x08012e98   0x00000038   Code   RO         1948    .text               mc_w.l(__0sscanf.o)
    0x08012ed0   0x00000150   Code   RO         1950    .text               mc_w.l(_scanf_int.o)
    0x08013020   0x000000da   Code   RO         1952    .text               mc_w.l(_scanf_str.o)
    0x080130fa   0x00000002   PAD
    0x080130fc   0x0000033c   Code   RO         1954    .text               mc_w.l(scanf_fp.o)
    0x08013438   0x00000070   Code   RO         1958    .text               mc_w.l(strtol.o)
    0x080134a8   0x000000b0   Code   RO         1960    .text               mf_w.l(fadd.o)
    0x08013558   0x0000006c   Code   RO         1962    .text               mf_w.l(fmul.o)
    0x080135c4   0x00000080   Code   RO         1964    .text               mf_w.l(fdiv.o)
    0x08013644   0x0000014e   Code   RO         1966    .text               mf_w.l(dadd.o)
    0x08013792   0x000000e4   Code   RO         1968    .text               mf_w.l(dmul.o)
    0x08013876   0x000000de   Code   RO         1970    .text               mf_w.l(ddiv.o)
    0x08013954   0x00000012   Code   RO         1972    .text               mf_w.l(fflti.o)
    0x08013966   0x0000000a   Code   RO         1974    .text               mf_w.l(ffltui.o)
    0x08013970   0x0000001a   Code   RO         1976    .text               mf_w.l(dfltui.o)
    0x0801398a   0x00000028   Code   RO         1978    .text               mf_w.l(ffixui.o)
    0x080139b2   0x00000032   Code   RO         1980    .text               mf_w.l(dfixui.o)
    0x080139e4   0x00000026   Code   RO         1982    .text               mf_w.l(f2d.o)
    0x08013a0a   0x00000002   PAD
    0x08013a0c   0x00000028   Code   RO         1984    .text               mf_w.l(cdcmple.o)
    0x08013a34   0x00000028   Code   RO         1986    .text               mf_w.l(cdrcmple.o)
    0x08013a5c   0x00000038   Code   RO         1988    .text               mf_w.l(d2f.o)
    0x08013a94   0x00000014   Code   RO         1990    .text               mf_w.l(cfcmple.o)
    0x08013aa8   0x00000014   Code   RO         1992    .text               mf_w.l(cfrcmple.o)
    0x08013abc   0x0000002c   Code   RO         2011    .text               mc_w.l(uidiv.o)
    0x08013ae8   0x00000062   Code   RO         2013    .text               mc_w.l(uldiv.o)
    0x08013b4a   0x0000001e   Code   RO         2015    .text               mc_w.l(llshl.o)
    0x08013b68   0x00000020   Code   RO         2017    .text               mc_w.l(llushr.o)
    0x08013b88   0x00000024   Code   RO         2019    .text               mc_w.l(llsshr.o)
    0x08013bac   0x0000001c   Code   RO         2028    .text               mc_w.l(_chval.o)
    0x08013bc8   0x00000028   Code   RO         2030    .text               mc_w.l(scanf_char.o)
    0x08013bf0   0x00000040   Code   RO         2032    .text               mc_w.l(_sgetc.o)
    0x08013c30   0x0000009e   Code   RO         2034    .text               mc_w.l(_strtoul.o)
    0x08013cce   0x00000002   PAD
    0x08013cd0   0x0000009c   Code   RO         2036    .text               mc_w.l(strtod.o)
    0x08013d6c   0x00000000   Code   RO         2038    .text               mc_w.l(iusefp.o)
    0x08013d6c   0x0000006c   Code   RO         2039    .text               mf_w.l(fepilogue.o)
    0x08013dd8   0x000000be   Code   RO         2041    .text               mf_w.l(depilogue.o)
    0x08013e96   0x00000018   Code   RO         2043    .text               mf_w.l(dfltul.o)
    0x08013eae   0x00000030   Code   RO         2045    .text               mf_w.l(dfixul.o)
    0x08013ede   0x00000002   PAD
    0x08013ee0   0x00000024   Code   RO         2047    .text               mc_w.l(init.o)
    0x08013f04   0x0000032c   Code   RO         2052    .text               mc_w.l(_scanf.o)
    0x08014230   0x0000005c   Code   RO         2066    .text               mc_w.l(__dczerorl2.o)
    0x0801428c   0x00000028   Code   RO         1922    i.__0sprintf        mc_w.l(printfa.o)
    0x080142b4   0x00000024   Code   RO         1926    i.__0vsprintf       mc_w.l(printfa.o)
    0x080142d8   0x00000008   Code   RO         2021    i.__aeabi_errno_addr  mc_w.l(errno.o)
    0x080142e0   0x0000000e   Code   RO         2060    i.__scatterload_copy  mc_w.l(handlers.o)
    0x080142ee   0x00000002   Code   RO         2061    i.__scatterload_null  mc_w.l(handlers.o)
    0x080142f0   0x0000000e   Code   RO         2062    i.__scatterload_zeroinit  mc_w.l(handlers.o)
    0x080142fe   0x00000002   PAD
    0x08014300   0x0000015c   Code   RO         1927    i._fp_digits        mc_w.l(printfa.o)
    0x0801445c   0x0000000e   Code   RO         1956    i._is_digit         mc_w.l(scanf_fp.o)
    0x0801446a   0x00000002   PAD
    0x0801446c   0x000006f0   Code   RO         1928    i._printf_core      mc_w.l(printfa.o)
    0x08014b5c   0x00000026   Code   RO         1929    i._printf_post_padding  mc_w.l(printfa.o)
    0x08014b82   0x00000030   Code   RO         1930    i._printf_pre_padding  mc_w.l(printfa.o)
    0x08014bb2   0x0000000a   Code   RO         1932    i._sputc            mc_w.l(printfa.o)
    0x08014bbc   0x000000dc   Code   RO         1625    i.floor             m_ws.l(floor.o)
    0x08014c98   0x0000001c   Code   RO         1629    i.strtod            m_ws.l(strtod.o)
    0x08014cb4   0x00000015   Data   RO          396    .constdata          sms_task.o
    0x08014cc9   0x00000017   Data   RO          452    .constdata          call_task.o
    0x08014ce0   0x00000014   Data   RO          550    .constdata          alarm_task.o
    0x08014cf4   0x00000004   Data   RO          921    .constdata          rtc.o
    0x08014cf8   0x00000008   Data   RO         1077    .constdata          uip.o
    0x08014d00   0x00000200   Data   RO         1116    .constdata          fcs.o
    0x08014f00   0x00000060   Data   RO         1162    .constdata          m_time.o
    0x08014f60   0x00000006   Data   RO         1352    .constdata          at_cmd_call_parser.o
    0x08014f66   0x00000002   PAD
    0x08014f68   0x00000077   Data   RO         1433    .constdata          at_command_parser.o
    0x08014fdf   0x00000001   PAD
    0x08014fe0   0x00000118   Data   RO         1454    .constdata          at_gsm_task.o
    0x080150f8   0x00000050   Data   RO         1549    .constdata          gps.o
    0x08015148   0x00000081   Data   RO         1636    .constdata          mc_w.l(ctype_o.o)
    0x080151c9   0x00000003   PAD
    0x080151cc   0x00000004   Data   RO         1637    .constdata          mc_w.l(ctype_o.o)
    0x080151d0   0x00000081   Data   RO         1434    .conststring        at_command_parser.o
    0x08015251   0x000000a0   Data   RO         1455    .conststring        at_gsm_task.o
    0x080152f1   0x00000003   PAD
    0x080152f4   0x00000020   Data   RO         2058    Region$$Table       anon$$obj.o


    Execution Region RW_IRAM1 (Base: 0x20000000, Size: 0x00003a48, Max: 0x00005000, ABSOLUTE, COMPRESSED[0x000000b0])

    Base Addr    Size         Type   Attr      Idx    E Section Name        Object

    0x20000000   0x00000114   Data   RW            3    .data               main.o
    0x20000114   0x00000002   Data   RW          292    .data               system_config.o
    0x20000116   0x00000002   PAD
    0x20000118   0x0000001d   Data   RW          339    .data               tracker.o
    0x20000135   0x00000003   PAD
    0x20000138   0x0000001c   Data   RW          377    .data               adc_task.o
    0x20000154   0x0000000c   Data   RW          397    .data               sms_task.o
    0x20000160   0x00000020   Data   RW          472    .data               app_config_task.o
    0x20000180   0x0000000c   Data   RW          551    .data               alarm_task.o
    0x2000018c   0x00000004   PAD
    0x20000190   0x00000014   Data   RW          567    .data               led.o
    0x200001a4   0x0000003c   Data   RW          587    .data               reporter.o
    0x200001e0   0x0000002c   Data   RW          642    .data               firmware_task.o
    0x2000020c   0x00000022   Data   RW          683    .data               accelerometer_task.o
    0x2000022e   0x00000002   PAD
    0x20000230   0x00000014   Data   RW          721    .data               system_stm32f10x.o
    0x20000244   0x00000018   Data   RW          922    .data               rtc.o
    0x2000025c   0x00000014   Data   RW         1009    .data               stm32f10x_rcc.o
    0x20000270   0x00000009   Data   RW         1023    .data               resolver.o
    0x20000279   0x00000003   PAD
    0x2000027c   0x00000011   Data   RW         1047    .data               resolv.o
    0x2000028d   0x00000003   PAD
    0x20000290   0x00000004   Data   RW         1061    .data               timer.o
    0x20000294   0x00000040   Data   RW         1078    .data               uip.o
    0x200002d4   0x00000008   Data   RW         1101    .data               uip_ppp.o
    0x200002dc   0x0000001b   Data   RW         1132    .data               ppp.o
    0x200002f7   0x00000001   PAD
    0x200002f8   0x0000000c   Data   RW         1163    .data               m_time.o
    0x20000304   0x0000001c   Data   RW         1178    .data               sys_time.o
    0x20000320   0x00000001   Data   RW         1297    .data               sparser.o
    0x20000321   0x00000007   PAD
    0x20000328   0x00000010   Data   RW         1313    .data               sys_tick.o
    0x20000338   0x00000008   Data   RW         1353    .data               at_cmd_call_parser.o
    0x20000340   0x00000022   Data   RW         1387    .data               at_cmd_common_parser.o
    0x20000362   0x00000002   PAD
    0x20000364   0x0000002e   Data   RW         1411    .data               at_cmd_sms_parser.o
    0x20000392   0x00000002   PAD
    0x20000394   0x00000008   Data   RW         1435    .data               at_command_parser.o
    0x2000039c   0x00000014   Data   RW         1456    .data               at_gsm_task.o
    0x200003b0   0x00000018   Data   RW         1475    .data               at_send_cmd_task.o
    0x200003c8   0x0000001c   Data   RW         1495    .data               modem.o
    0x200003e4   0x00000009   Data   RW         1528    .data               comm.o
    0x200003ed   0x00000003   PAD
    0x200003f0   0x00000028   Data   RW         1550    .data               gps.o
    0x20000418   0x0000000c   Data   RW         1574    .data               db.o
    0x20000424   0x00000004   Data   RW         1592    .data               sst25.o
    0x20000428   0x00000008   Data   RW         1607    .data               mma7660.o
    0x20000430   0x00000004   Data   RW         2024    .data               mc_w.l(errno.o)
    0x20000434   0x00000024   Zero   RW            2    .bss                main.o
    0x20000458   0x00000196   Zero   RW          291    .bss                system_config.o
    0x200005ee   0x00000002   PAD
    0x200005f0   0x00000020   Zero   RW          320    .bss                hw_config.o
    0x20000610   0x00000090   Zero   RW          338    .bss                tracker.o
    0x200006a0   0x0000005c   Zero   RW          376    .bss                adc_task.o
    0x200006fc   0x000001a8   Zero   RW          395    .bss                sms_task.o
    0x200008a4   0x000000b4   Zero   RW          451    .bss                call_task.o
    0x20000958   0x0000051c   Zero   RW          471    .bss                app_config_task.o
    0x20000e74   0x0000005c   Zero   RW          501    .bss                uart_config_task.o
    0x20000ed0   0x00000084   Zero   RW          517    .bss                database_app.o
    0x20000f54   0x000000c0   Zero   RW          549    .bss                alarm_task.o
    0x20001014   0x00000014   Zero   RW          566    .bss                led.o
    0x20001028   0x0000010c   Zero   RW          586    .bss                reporter.o
    0x20001134   0x0000054e   Zero   RW          641    .bss                firmware_task.o
    0x20001682   0x00000002   PAD
    0x20001684   0x00000018   Zero   RW          658    .bss                tcp_ip_task.o
    0x2000169c   0x00000820   Zero   RW          824    .bss                uart1.o
    0x20001ebc   0x00000090   Zero   RW          848    .bss                uart2.o
    0x20001f4c   0x00000420   Zero   RW          866    .bss                uart3.o
    0x2000236c   0x00000128   Zero   RW         1046    .bss                resolv.o
    0x20002494   0x000006cc   Zero   RW         1076    .bss                uip.o
    0x20002b60   0x00000079   Zero   RW         1131    .bss                ppp.o
    0x20002bd9   0x00000003   PAD
    0x20002bdc   0x00000088   Zero   RW         1351    .bss                at_cmd_call_parser.o
    0x20002c64   0x0000004c   Zero   RW         1386    .bss                at_cmd_common_parser.o
    0x20002cb0   0x0000015c   Zero   RW         1410    .bss                at_cmd_sms_parser.o
    0x20002e0c   0x00000020   Zero   RW         1432    .bss                at_command_parser.o
    0x20002e2c   0x00000074   Zero   RW         1453    .bss                at_gsm_task.o
    0x20002ea0   0x000000e8   Zero   RW         1474    .bss                at_send_cmd_task.o
    0x20002f88   0x00000090   Zero   RW         1493    .bss                modem.o
    0x20003018   0x00000540   Zero   RW         1548    .bss                gps.o
    0x20003558   0x000000e9   Zero   RW         1573    .bss                db.o
    0x20003641   0x00000007   PAD
    0x20003648   0x00000400   Zero   RW          702    STACK               startup_stm32f10x_md.o


==============================================================================

Image component sizes


      Code (inc. data)   RO Data    RW Data    ZI Data      Debug   Object Name

       524         74          0         34          0       1881   accelerometer_task.o
       920         86          0         28         92       2090   adc_task.o
       424        102         20         12        192       2254   alarm_task.o
      2720        152          0         32       1308      21879   app_config_task.o
      3888        928          6          8        136       9820   at_cmd_call_parser.o
      2860        328          0         34         76       5956   at_cmd_common_parser.o
      2976        666          0         46        348       8350   at_cmd_sms_parser.o
        84         18        248          8         32       1465   at_command_parser.o
       784        186        440         20        116       3476   at_gsm_task.o
      1108        108          0         24        232       5818   at_send_cmd_task.o
       252         82         23          0        180       1711   call_task.o
        84          8          0          9          0       2236   comm.o
        84          0          0          0          0       1484   data_cmp.o
       408         70          0          0        132       3478   database_app.o
      1460         22          0         12        233       6785   db.o
       484          6          0          0          0       2490   encoding.o
       800         28          0          0          0      16547   exti.o
        68          4        512          0          0       1201   fcs.o
      2036        518          0         44       1358       4412   firmware_task.o
      3900        388         80         40       1344      13202   gps.o
       268         18          0          0          0       1090   gsm_hwr.o
       572         12          0          0         32       7547   hw_config.o
      1496         34          0          0          0       3747   i2c.o
       232         22          0         20         20       2533   led.o
       276          0          0          0          0       3871   list.o
      1612         32         96         12          0       2947   m_time.o
      2332        308          0        276         36     295788   main.o
       292          8          0          8          0       1614   mma7660.o
       788        112          0         28        144       4107   modem.o
      1284          0          0          0          0       5289   pdu.o
      5744       1442          0         27        121       8725   ppp.o
      1544        428          0         60        268      18142   reporter.o
       924         58          0         17        296       4261   resolv.o
       192         18          0          9          0      14472   resolver.o
       148          0          0          0          0       2090   ringbuf.o
       940        108          4         24          0       4098   rtc.o
      2196        416         21         12        424       7959   sms_task.o
       332          6          0          1          0       2542   sparser.o
       736         24          0          0          0       2187   spi.o
       740         20          0          4          0       3345   sst25.o
        28          4        236          0       1024        880   startup_stm32f10x_md.o
      1102         26          0          0          0      10877   stm32f10x_adc.o
       592          8          0          0          0       4370   stm32f10x_dma.o
      1468         34          0          0          0       8070   stm32f10x_flash.o
       856         40          0          0          0       5689   stm32f10x_gpio.o
        64          6          0          0          0       1277   stm32f10x_iwdg.o
       932         44          0         20          0       8852   stm32f10x_rcc.o
       252         12          0         16          0       3206   sys_tick.o
       668         20          0         28          0       3625   sys_time.o
       868        110          0          2        406       5118   system_config.o
       480         42          0         20          0       1903   system_stm32f10x.o
       208         28          0          0         24       1209   tcp_ip_task.o
       104         12          0          0          0     219107   tick.o
        76          6          0          4          0       1624   timer.o
      3100        314          0         29        144       6245   tracker.o
       792         46          0          0       2080      17955   uart1.o
       444         30          0          0        144       2338   uart2.o
       600         46          0          0       1056       2790   uart3.o
       116         16          0          0         92       1636   uart_config_task.o
      5036        238          8         64       1740      21312   uip.o
       368         42          0          8          0       1817   uip_ppp.o

    ----------------------------------------------------------------------
     66668       7964       1732       1072      13844     842789   Object Totals
         0          0         32          0          0          0   (incl. Generated)
         2          0          6         32         14          0   (incl. Padding)

    ----------------------------------------------------------------------

      Code (inc. data)   RO Data    RW Data    ZI Data      Debug   Library Member Name

       220         16          0          0          0         84   floor.o
        28          0          0          0          0         80   strtod.o
        56          8          0          0          0         84   __0sscanf.o
        92          0          0          0          0          0   __dczerorl2.o
        28          0          0          0          0         68   _chval.o
       812          6          0          0          0        112   _scanf.o
       336          0          0          0          0         96   _scanf_int.o
       218          0          0          0          0         96   _scanf_str.o
        64          0          0          0          0         84   _sgetc.o
       158          0          0          0          0         92   _strtoul.o
         8          4        133          0          0         68   ctype_o.o
         0          0          0          0          0          0   entry.o
         0          0          0          0          0          0   entry10a.o
         0          0          0          0          0          0   entry11a.o
         8          4          0          0          0          0   entry2.o
         4          0          0          0          0          0   entry5.o
         0          0          0          0          0          0   entry7b.o
         0          0          0          0          0          0   entry8b.o
         8          4          0          0          0          0   entry9a.o
         8          4          0          4          0         68   errno.o
        30          0          0          0          0          0   handlers.o
        36          8          0          0          0         68   init.o
        18          0          0          0          0         76   isspace_o.o
         0          0          0          0          0          0   iusefp.o
        30          0          0          0          0         68   llshl.o
        36          0          0          0          0         68   llsshr.o
        32          0          0          0          0         68   llushr.o
        20          0          0          0          0         68   memchr.o
        26          0          0          0          0         80   memcmp.o
        36          0          0          0          0         68   memcpya.o
        36          0          0          0          0        108   memseta.o
      2296         92          0          0          0        592   printfa.o
        40          8          0          0          0         84   scanf_char.o
       842         12          0          0          0        216   scanf_fp.o
        24          0          0          0          0         68   strcat.o
        28          0          0          0          0         76   strcmp.o
        18          0          0          0          0         68   strcpy.o
        14          0          0          0          0         68   strlen.o
        24          0          0          0          0         76   strncpy.o
        36          0          0          0          0         80   strstr.o
       156         14          0          0          0        120   strtod.o
       112          0          0          0          0         88   strtol.o
        12          0          0          0          0         68   toupper.o
        44          0          0          0          0         80   uidiv.o
        98          0          0          0          0         92   uldiv.o
        40          2          0          0          0         68   cdcmple.o
        40          2          0          0          0         68   cdrcmple.o
        20          0          0          0          0         68   cfcmple.o
        20          0          0          0          0         68   cfrcmple.o
        56          0          0          0          0         88   d2f.o
       334          0          0          0          0        148   dadd.o
       222          0          0          0          0        100   ddiv.o
       190          0          0          0          0        176   depilogue.o
        50          0          0          0          0         76   dfixui.o
        48          0          0          0          0         68   dfixul.o
        26          0          0          0          0         76   dfltui.o
        24          0          0          0          0         76   dfltul.o
       228          0          0          0          0         96   dmul.o
        38          0          0          0          0         68   f2d.o
       176          0          0          0          0        140   fadd.o
       128          0          0          0          0         88   fdiv.o
       108          0          0          0          0        168   fepilogue.o
        40          0          0          0          0         68   ffixui.o
        18          0          0          0          0         68   fflti.o
        10          0          0          0          0         68   ffltui.o
       108          0          0          0          0         76   fmul.o

    ----------------------------------------------------------------------
      8028        184        136          4          0       5300   Library Totals
        12          0          3          0          0          0   (incl. Padding)

    ----------------------------------------------------------------------

      Code (inc. data)   RO Data    RW Data    ZI Data      Debug   Library Name

       248         16          0          0          0        164   m_ws.l
      5844        164        133          4          0       3216   mc_w.l
      1924          4          0          0          0       1920   mf_w.l

    ----------------------------------------------------------------------
      8028        184        136          4          0       5300   Library Totals

    ----------------------------------------------------------------------

==============================================================================


      Code (inc. data)   RO Data    RW Data    ZI Data      Debug   

     74696       8148       1868       1076      13844     838365   Grand Totals
     74696       8148       1868        176      13844     838365   ELF Image Totals (compressed)
     74696       8148       1868        176          0          0   ROM Totals

==============================================================================

    Total RO  Size (Code + RO Data)                76564 (  74.77kB)
    Total RW  Size (RW Data + ZI Data)             14920 (  14.57kB)
    Total ROM Size (Code + RO Data + RW Data)      76740 (  74.94kB)

==============================================================================

