ARM Linker, 5.03 [Build 76] [MDK-ARM Standard]

==============================================================================

Section Cross References

    startup_stm32f10x_hd.o(RESET) refers to startup_stm32f10x_hd.o(STACK) for __initial_sp
    startup_stm32f10x_hd.o(RESET) refers to startup_stm32f10x_hd.o(.text) for Reset_Handler
    startup_stm32f10x_hd.o(RESET) refers to main.o(.text) for HardFault_Handler
    startup_stm32f10x_hd.o(RESET) refers to tick.o(.text) for SysTick_Handler
    startup_stm32f10x_hd.o(RESET) refers to uart3.o(.text) for USART3_IRQHandler
    startup_stm32f10x_hd.o(.text) refers to system_stm32f10x.o(.text) for SystemInit
    startup_stm32f10x_hd.o(.text) refers to entry.o(.ARM.Collect$$$$00000000) for __main
    system_stm32f10x.o(.text) refers to system_stm32f10x.o(.data) for SystemCoreClock
    uart3.o(.text) refers to ringbuf.o(.text) for RINGBUF_Init
    uart3.o(.text) refers to uart3.o(.bss) for USART3_RxBuff
    tick.o(.text) refers to system_stm32f10x.o(.data) for SystemCoreClock
    tick.o(.text) refers to tick.o(.data) for tickCounter32
    main.o(.text) refers to uart3.o(.text) for USART3_PutString
    main.o(.text) refers to core_cm3.o(.emb_text) for __set_MSP
    main.o(.text) refers to system_stm32f10x.o(.text) for SystemInit
    main.o(.text) refers to tick.o(.text) for TICK_Init
    main.o(.text) refers to stm32f10x_flash.o(.text) for FLASH_Unlock
    main.o(.text) refers to proto_parser.o(.text) for CfgCalcCheckSum
==============================================================================

Removing Unused input sections from the image.

    Removing startup_stm32f10x_hd.o(HEAP), (2048 bytes).

1 unused section(s) (total 2048 bytes) removed from the image.

==============================================================================

Image Symbol Table

    Local Symbols

    Symbol Name                              Value     Ov Type        Size  Object(Section)

    ../clib/microlib/init/entry.s            0x00000000   Number         0  entry9a.o ABSOLUTE
    ../clib/microlib/init/entry.s            0x00000000   Number         0  entry5.o ABSOLUTE
    ../clib/microlib/init/entry.s            0x00000000   Number         0  entry7a.o ABSOLUTE
    ../clib/microlib/init/entry.s            0x00000000   Number         0  entry11b.o ABSOLUTE
    ../clib/microlib/init/entry.s            0x00000000   Number         0  entry2.o ABSOLUTE
    ../clib/microlib/init/entry.s            0x00000000   Number         0  entry11a.o ABSOLUTE
    ../clib/microlib/init/entry.s            0x00000000   Number         0  entry10a.o ABSOLUTE
    ../clib/microlib/init/entry.s            0x00000000   Number         0  entry9b.o ABSOLUTE
    ../clib/microlib/init/entry.s            0x00000000   Number         0  entry.o ABSOLUTE
    ../clib/microlib/init/entry.s            0x00000000   Number         0  entry8b.o ABSOLUTE
    ../clib/microlib/init/entry.s            0x00000000   Number         0  entry8a.o ABSOLUTE
    ../clib/microlib/init/entry.s            0x00000000   Number         0  entry10b.o ABSOLUTE
    ../clib/microlib/init/entry.s            0x00000000   Number         0  entry7b.o ABSOLUTE
    ../clib/microlib/string/memcmp.c         0x00000000   Number         0  memcmp.o ABSOLUTE
    ..\Drivers\STM32F10x_StdPeriph_Driver\src\stm32f10x_flash.c 0x00000000   Number         0  stm32f10x_flash.o ABSOLUTE
    ..\Drivers\my_driver\spi.c               0x00000000   Number         0  spi.o ABSOLUTE
    ..\Drivers\my_driver\tick.c              0x00000000   Number         0  tick.o ABSOLUTE
    ..\Drivers\my_driver\uart3.c             0x00000000   Number         0  uart3.o ABSOLUTE
    ..\Libraries\CMSIS\CM3\CoreSupport\core_cm3.c 0x00000000   Number         0  core_cm3.o ABSOLUTE
    ..\Libraries\CMSIS\CM3\DeviceSupport\ST\STM32F10x\startup\arm\startup_stm32f10x_hd.s 0x00000000   Number         0  startup_stm32f10x_hd.o ABSOLUTE
    ..\Libraries\CMSIS\CM3\DeviceSupport\ST\STM32F10x\system_stm32f10x.c 0x00000000   Number         0  system_stm32f10x.o ABSOLUTE
    ..\Libraries\common_lib\flash_mem\sst25.c 0x00000000   Number         0  sst25.o ABSOLUTE
    ..\Libraries\common_lib\ringbuff\ringbuf.c 0x00000000   Number         0  ringbuf.o ABSOLUTE
    ..\\Libraries\\CMSIS\\CM3\\CoreSupport\\core_cm3.c 0x00000000   Number         0  core_cm3.o ABSOLUTE
    Src\FlashProg.c                          0x00000000   Number         0  flashprog.o ABSOLUTE
    Src\main.c                               0x00000000   Number         0  main.o ABSOLUTE
    Src\proto_parser.c                       0x00000000   Number         0  proto_parser.o ABSOLUTE
    dc.s                                     0x00000000   Number         0  dc.o ABSOLUTE
    handlers.s                               0x00000000   Number         0  handlers.o ABSOLUTE
    init.s                                   0x00000000   Number         0  init.o ABSOLUTE
    RESET                                    0x08000000   Section      304  startup_stm32f10x_hd.o(RESET)
    .ARM.Collect$$$$00000000                 0x08000130   Section        0  entry.o(.ARM.Collect$$$$00000000)
    .ARM.Collect$$$$00000001                 0x08000130   Section        4  entry2.o(.ARM.Collect$$$$00000001)
    .ARM.Collect$$$$00000004                 0x08000134   Section        4  entry5.o(.ARM.Collect$$$$00000004)
    .ARM.Collect$$$$00000008                 0x08000138   Section        0  entry7b.o(.ARM.Collect$$$$00000008)
    .ARM.Collect$$$$0000000A                 0x08000138   Section        0  entry8b.o(.ARM.Collect$$$$0000000A)
    .ARM.Collect$$$$0000000B                 0x08000138   Section        8  entry9a.o(.ARM.Collect$$$$0000000B)
    .ARM.Collect$$$$0000000D                 0x08000140   Section        0  entry10a.o(.ARM.Collect$$$$0000000D)
    .ARM.Collect$$$$0000000F                 0x08000140   Section        0  entry11a.o(.ARM.Collect$$$$0000000F)
    .ARM.Collect$$$$00002712                 0x08000140   Section        4  entry2.o(.ARM.Collect$$$$00002712)
    __lit__00000000                          0x08000140   Data           4  entry2.o(.ARM.Collect$$$$00002712)
    .emb_text                                0x08000144   Section       32  core_cm3.o(.emb_text)
    .text                                    0x08000164   Section       36  startup_stm32f10x_hd.o(.text)
    .text                                    0x08000188   Section        0  system_stm32f10x.o(.text)
    SetSysClockTo36                          0x08000189   Thumb Code   208  system_stm32f10x.o(.text)
    SetSysClock                              0x08000259   Thumb Code     8  system_stm32f10x.o(.text)
    .text                                    0x08000360   Section        0  stm32f10x_flash.o(.text)
    .text                                    0x0800091c   Section        0  spi.o(.text)
    .text                                    0x08000bd8   Section        0  uart3.o(.text)
    .text                                    0x08000d94   Section        0  ringbuf.o(.text)
    .text                                    0x08000e28   Section        0  tick.o(.text)
    .text                                    0x08000fa4   Section        0  main.o(.text)
    .text                                    0x0800195c   Section        0  flashprog.o(.text)
    NVIC_SystemReset                         0x080019af   Thumb Code    26  flashprog.o(.text)
    .text                                    0x080019d0   Section        0  proto_parser.o(.text)
    .text                                    0x08001a94   Section        0  sst25.o(.text)
    SST25__Status                            0x08001aab   Thumb Code    52  sst25.o(.text)
    SST25__WriteEnable                       0x08001adf   Thumb Code    88  sst25.o(.text)
    SST25__WriteDisable                      0x08001d33   Thumb Code     4  sst25.o(.text)
    SST25__GlobalProtect                     0x08001d37   Thumb Code   118  sst25.o(.text)
    .text                                    0x08001dbc   Section        0  memcmp.o(.text)
    .text                                    0x08001dd8   Section       36  init.o(.text)
    i.__scatterload_copy                     0x08001dfc   Section       14  handlers.o(i.__scatterload_copy)
    i.__scatterload_null                     0x08001e0a   Section        2  handlers.o(i.__scatterload_null)
    i.__scatterload_zeroinit                 0x08001e0c   Section       14  handlers.o(i.__scatterload_zeroinit)
    .data                                    0x20000000   Section       20  system_stm32f10x.o(.data)
    .data                                    0x20000018   Section       16  tick.o(.data)
    .data                                    0x20000028   Section       44  main.o(.data)
    .data                                    0x20000054   Section        4  sst25.o(.data)
    .bss                                     0x20000058   Section     1040  uart3.o(.bss)
    .bss                                     0x20000468   Section    10304  main.o(.bss)
    STACK                                    0x20002ca8   Section     4096  startup_stm32f10x_hd.o(STACK)

    Global Symbols

    Symbol Name                              Value     Ov Type        Size  Object(Section)

    BuildAttributes$$THM_ISAv4$P$D$K$B$S$PE$A:L22UL41UL21$X:L11$S22US41US21$IEEE1$IW$USESV6$~STKCKD$USESV7$~SHL$OSPACE$EBA8$MICROLIB$REQ8$PRES8$EABIv2 0x00000000   Number         0  anon$$obj.o ABSOLUTE
    __ARM_use_no_argv                        0x00000000   Number         0  main.o ABSOLUTE
    __cpp_initialize__aeabi_                  - Undefined Weak Reference
    __cxa_finalize                            - Undefined Weak Reference
    __decompress                              - Undefined Weak Reference
    _clock_init                               - Undefined Weak Reference
    _microlib_exit                            - Undefined Weak Reference
    __Vectors_Size                           0x00000130   Number         0  startup_stm32f10x_hd.o ABSOLUTE
    __Vectors                                0x08000000   Data           4  startup_stm32f10x_hd.o(RESET)
    __Vectors_End                            0x08000130   Data           0  startup_stm32f10x_hd.o(RESET)
    __main                                   0x08000131   Thumb Code     0  entry.o(.ARM.Collect$$$$00000000)
    _main_stk                                0x08000131   Thumb Code     0  entry2.o(.ARM.Collect$$$$00000001)
    _main_scatterload                        0x08000135   Thumb Code     0  entry5.o(.ARM.Collect$$$$00000004)
    __main_after_scatterload                 0x08000139   Thumb Code     0  entry5.o(.ARM.Collect$$$$00000004)
    _main_clock                              0x08000139   Thumb Code     0  entry7b.o(.ARM.Collect$$$$00000008)
    _main_cpp_init                           0x08000139   Thumb Code     0  entry8b.o(.ARM.Collect$$$$0000000A)
    _main_init                               0x08000139   Thumb Code     0  entry9a.o(.ARM.Collect$$$$0000000B)
    __rt_final_cpp                           0x08000141   Thumb Code     0  entry10a.o(.ARM.Collect$$$$0000000D)
    __rt_final_exit                          0x08000141   Thumb Code     0  entry11a.o(.ARM.Collect$$$$0000000F)
    __get_PSP                                0x08000145   Thumb Code     6  core_cm3.o(.emb_text)
    __set_PSP                                0x0800014b   Thumb Code     6  core_cm3.o(.emb_text)
    __get_MSP                                0x08000151   Thumb Code     6  core_cm3.o(.emb_text)
    __set_MSP                                0x08000157   Thumb Code     6  core_cm3.o(.emb_text)
    __REV16                                  0x0800015d   Thumb Code     4  core_cm3.o(.emb_text)
    __REVSH                                  0x08000161   Thumb Code     4  core_cm3.o(.emb_text)
    Reset_Handler                            0x08000165   Thumb Code     8  startup_stm32f10x_hd.o(.text)
    NMI_Handler                              0x0800016d   Thumb Code     2  startup_stm32f10x_hd.o(.text)
    MemManage_Handler                        0x08000171   Thumb Code     2  startup_stm32f10x_hd.o(.text)
    BusFault_Handler                         0x08000173   Thumb Code     2  startup_stm32f10x_hd.o(.text)
    UsageFault_Handler                       0x08000175   Thumb Code     2  startup_stm32f10x_hd.o(.text)
    SVC_Handler                              0x08000177   Thumb Code     2  startup_stm32f10x_hd.o(.text)
    DebugMon_Handler                         0x08000179   Thumb Code     2  startup_stm32f10x_hd.o(.text)
    PendSV_Handler                           0x0800017b   Thumb Code     2  startup_stm32f10x_hd.o(.text)
    ADC1_2_IRQHandler                        0x0800017f   Thumb Code     0  startup_stm32f10x_hd.o(.text)
    ADC3_IRQHandler                          0x0800017f   Thumb Code     0  startup_stm32f10x_hd.o(.text)
    CAN1_RX1_IRQHandler                      0x0800017f   Thumb Code     0  startup_stm32f10x_hd.o(.text)
    CAN1_SCE_IRQHandler                      0x0800017f   Thumb Code     0  startup_stm32f10x_hd.o(.text)
    DMA1_Channel1_IRQHandler                 0x0800017f   Thumb Code     0  startup_stm32f10x_hd.o(.text)
    DMA1_Channel2_IRQHandler                 0x0800017f   Thumb Code     0  startup_stm32f10x_hd.o(.text)
    DMA1_Channel3_IRQHandler                 0x0800017f   Thumb Code     0  startup_stm32f10x_hd.o(.text)
    DMA1_Channel4_IRQHandler                 0x0800017f   Thumb Code     0  startup_stm32f10x_hd.o(.text)
    DMA1_Channel5_IRQHandler                 0x0800017f   Thumb Code     0  startup_stm32f10x_hd.o(.text)
    DMA1_Channel6_IRQHandler                 0x0800017f   Thumb Code     0  startup_stm32f10x_hd.o(.text)
    DMA1_Channel7_IRQHandler                 0x0800017f   Thumb Code     0  startup_stm32f10x_hd.o(.text)
    DMA2_Channel1_IRQHandler                 0x0800017f   Thumb Code     0  startup_stm32f10x_hd.o(.text)
    DMA2_Channel2_IRQHandler                 0x0800017f   Thumb Code     0  startup_stm32f10x_hd.o(.text)
    DMA2_Channel3_IRQHandler                 0x0800017f   Thumb Code     0  startup_stm32f10x_hd.o(.text)
    DMA2_Channel4_5_IRQHandler               0x0800017f   Thumb Code     0  startup_stm32f10x_hd.o(.text)
    EXTI0_IRQHandler                         0x0800017f   Thumb Code     0  startup_stm32f10x_hd.o(.text)
    EXTI15_10_IRQHandler                     0x0800017f   Thumb Code     0  startup_stm32f10x_hd.o(.text)
    EXTI1_IRQHandler                         0x0800017f   Thumb Code     0  startup_stm32f10x_hd.o(.text)
    EXTI2_IRQHandler                         0x0800017f   Thumb Code     0  startup_stm32f10x_hd.o(.text)
    EXTI3_IRQHandler                         0x0800017f   Thumb Code     0  startup_stm32f10x_hd.o(.text)
    EXTI4_IRQHandler                         0x0800017f   Thumb Code     0  startup_stm32f10x_hd.o(.text)
    EXTI9_5_IRQHandler                       0x0800017f   Thumb Code     0  startup_stm32f10x_hd.o(.text)
    FLASH_IRQHandler                         0x0800017f   Thumb Code     0  startup_stm32f10x_hd.o(.text)
    FSMC_IRQHandler                          0x0800017f   Thumb Code     0  startup_stm32f10x_hd.o(.text)
    I2C1_ER_IRQHandler                       0x0800017f   Thumb Code     0  startup_stm32f10x_hd.o(.text)
    I2C1_EV_IRQHandler                       0x0800017f   Thumb Code     0  startup_stm32f10x_hd.o(.text)
    I2C2_ER_IRQHandler                       0x0800017f   Thumb Code     0  startup_stm32f10x_hd.o(.text)
    I2C2_EV_IRQHandler                       0x0800017f   Thumb Code     0  startup_stm32f10x_hd.o(.text)
    PVD_IRQHandler                           0x0800017f   Thumb Code     0  startup_stm32f10x_hd.o(.text)
    RCC_IRQHandler                           0x0800017f   Thumb Code     0  startup_stm32f10x_hd.o(.text)
    RTCAlarm_IRQHandler                      0x0800017f   Thumb Code     0  startup_stm32f10x_hd.o(.text)
    RTC_IRQHandler                           0x0800017f   Thumb Code     0  startup_stm32f10x_hd.o(.text)
    SDIO_IRQHandler                          0x0800017f   Thumb Code     0  startup_stm32f10x_hd.o(.text)
    SPI1_IRQHandler                          0x0800017f   Thumb Code     0  startup_stm32f10x_hd.o(.text)
    SPI2_IRQHandler                          0x0800017f   Thumb Code     0  startup_stm32f10x_hd.o(.text)
    SPI3_IRQHandler                          0x0800017f   Thumb Code     0  startup_stm32f10x_hd.o(.text)
    TAMPER_IRQHandler                        0x0800017f   Thumb Code     0  startup_stm32f10x_hd.o(.text)
    TIM1_BRK_IRQHandler                      0x0800017f   Thumb Code     0  startup_stm32f10x_hd.o(.text)
    TIM1_CC_IRQHandler                       0x0800017f   Thumb Code     0  startup_stm32f10x_hd.o(.text)
    TIM1_TRG_COM_IRQHandler                  0x0800017f   Thumb Code     0  startup_stm32f10x_hd.o(.text)
    TIM1_UP_IRQHandler                       0x0800017f   Thumb Code     0  startup_stm32f10x_hd.o(.text)
    TIM2_IRQHandler                          0x0800017f   Thumb Code     0  startup_stm32f10x_hd.o(.text)
    TIM3_IRQHandler                          0x0800017f   Thumb Code     0  startup_stm32f10x_hd.o(.text)
    TIM4_IRQHandler                          0x0800017f   Thumb Code     0  startup_stm32f10x_hd.o(.text)
    TIM5_IRQHandler                          0x0800017f   Thumb Code     0  startup_stm32f10x_hd.o(.text)
    TIM6_IRQHandler                          0x0800017f   Thumb Code     0  startup_stm32f10x_hd.o(.text)
    TIM7_IRQHandler                          0x0800017f   Thumb Code     0  startup_stm32f10x_hd.o(.text)
    TIM8_BRK_IRQHandler                      0x0800017f   Thumb Code     0  startup_stm32f10x_hd.o(.text)
    TIM8_CC_IRQHandler                       0x0800017f   Thumb Code     0  startup_stm32f10x_hd.o(.text)
    TIM8_TRG_COM_IRQHandler                  0x0800017f   Thumb Code     0  startup_stm32f10x_hd.o(.text)
    TIM8_UP_IRQHandler                       0x0800017f   Thumb Code     0  startup_stm32f10x_hd.o(.text)
    UART4_IRQHandler                         0x0800017f   Thumb Code     0  startup_stm32f10x_hd.o(.text)
    UART5_IRQHandler                         0x0800017f   Thumb Code     0  startup_stm32f10x_hd.o(.text)
    USART1_IRQHandler                        0x0800017f   Thumb Code     0  startup_stm32f10x_hd.o(.text)
    USART2_IRQHandler                        0x0800017f   Thumb Code     0  startup_stm32f10x_hd.o(.text)
    USBWakeUp_IRQHandler                     0x0800017f   Thumb Code     0  startup_stm32f10x_hd.o(.text)
    USB_HP_CAN1_TX_IRQHandler                0x0800017f   Thumb Code     0  startup_stm32f10x_hd.o(.text)
    USB_LP_CAN1_RX0_IRQHandler               0x0800017f   Thumb Code     0  startup_stm32f10x_hd.o(.text)
    WWDG_IRQHandler                          0x0800017f   Thumb Code     0  startup_stm32f10x_hd.o(.text)
    SystemInit                               0x08000261   Thumb Code    78  system_stm32f10x.o(.text)
    SystemCoreClockUpdate                    0x080002af   Thumb Code   142  system_stm32f10x.o(.text)
    FLASH_SetLatency                         0x08000361   Thumb Code    18  stm32f10x_flash.o(.text)
    FLASH_HalfCycleAccessCmd                 0x08000373   Thumb Code    22  stm32f10x_flash.o(.text)
    FLASH_PrefetchBufferCmd                  0x08000389   Thumb Code    22  stm32f10x_flash.o(.text)
    FLASH_Unlock                             0x0800039f   Thumb Code    12  stm32f10x_flash.o(.text)
    FLASH_UnlockBank1                        0x080003ab   Thumb Code    12  stm32f10x_flash.o(.text)
    FLASH_Lock                               0x080003b7   Thumb Code    14  stm32f10x_flash.o(.text)
    FLASH_LockBank1                          0x080003c5   Thumb Code    14  stm32f10x_flash.o(.text)
    FLASH_GetBank1Status                     0x080003d3   Thumb Code    48  stm32f10x_flash.o(.text)
    FLASH_WaitForLastOperation               0x08000403   Thumb Code    38  stm32f10x_flash.o(.text)
    FLASH_ErasePage                          0x08000429   Thumb Code    72  stm32f10x_flash.o(.text)
    FLASH_EraseAllPages                      0x08000471   Thumb Code    68  stm32f10x_flash.o(.text)
    FLASH_WaitForLastBank1Operation          0x080004b5   Thumb Code    38  stm32f10x_flash.o(.text)
    FLASH_EraseAllBank1Pages                 0x080004db   Thumb Code    68  stm32f10x_flash.o(.text)
    FLASH_GetReadOutProtectionStatus         0x0800051f   Thumb Code    20  stm32f10x_flash.o(.text)
    FLASH_EraseOptionBytes                   0x08000533   Thumb Code   150  stm32f10x_flash.o(.text)
    FLASH_ProgramWord                        0x080005c9   Thumb Code   102  stm32f10x_flash.o(.text)
    FLASH_ProgramHalfWord                    0x0800062f   Thumb Code    60  stm32f10x_flash.o(.text)
    FLASH_ProgramOptionByteData              0x0800066b   Thumb Code    72  stm32f10x_flash.o(.text)
    FLASH_EnableWriteProtection              0x080006b3   Thumb Code   200  stm32f10x_flash.o(.text)
    FLASH_ReadOutProtection                  0x0800077b   Thumb Code   156  stm32f10x_flash.o(.text)
    FLASH_UserOptionByteConfig               0x08000817   Thumb Code    88  stm32f10x_flash.o(.text)
    FLASH_GetUserOptionByte                  0x0800086f   Thumb Code     8  stm32f10x_flash.o(.text)
    FLASH_GetWriteProtectionOptionByte       0x08000877   Thumb Code     6  stm32f10x_flash.o(.text)
    FLASH_GetPrefetchBufferStatus            0x0800087d   Thumb Code    20  stm32f10x_flash.o(.text)
    FLASH_ITConfig                           0x08000891   Thumb Code    26  stm32f10x_flash.o(.text)
    FLASH_GetFlagStatus                      0x080008ab   Thumb Code    42  stm32f10x_flash.o(.text)
    FLASH_ClearFlag                          0x080008d5   Thumb Code     6  stm32f10x_flash.o(.text)
    FLASH_GetStatus                          0x080008db   Thumb Code    48  stm32f10x_flash.o(.text)
    SPI_InitLowFreq                          0x0800091d   Thumb Code   214  spi.o(.text)
    SPI_InitHighFreq                         0x080009f3   Thumb Code   214  spi.o(.text)
    SPI_DeInit                               0x08000ac9   Thumb Code    36  spi.o(.text)
    halSpiWriteByte                          0x08000aed   Thumb Code    32  spi.o(.text)
    halSpiWriteMutilByte                     0x08000b0d   Thumb Code    92  spi.o(.text)
    halSpiReadMutilByte                      0x08000b69   Thumb Code    92  spi.o(.text)
    USART3_Init                              0x08000bd9   Thumb Code   276  uart3.o(.text)
    USART3_DeInit                            0x08000ced   Thumb Code    26  uart3.o(.text)
    USART3_PutChar                           0x08000d07   Thumb Code    22  uart3.o(.text)
    USART3_PutString                         0x08000d1d   Thumb Code    22  uart3.o(.text)
    USART3_GetChar                           0x08000d33   Thumb Code    24  uart3.o(.text)
    USART3_IRQHandler                        0x08000d4b   Thumb Code    42  uart3.o(.text)
    RINGBUF_Init                             0x08000d95   Thumb Code    30  ringbuf.o(.text)
    RINGBUF_Put                              0x08000db3   Thumb Code    42  ringbuf.o(.text)
    RINGBUF_Get                              0x08000ddd   Thumb Code    46  ringbuf.o(.text)
    RINGBUF_GetFill                          0x08000e0b   Thumb Code    30  ringbuf.o(.text)
    TICK_Init                                0x08000e29   Thumb Code    74  tick.o(.text)
    TICK_DeInit                              0x08000e73   Thumb Code    10  tick.o(.text)
    SysTick_Handler                          0x08000e7d   Thumb Code    58  tick.o(.text)
    TICK_Get                                 0x08000eb7   Thumb Code     6  tick.o(.text)
    TICK_Get64                               0x08000ebd   Thumb Code     8  tick.o(.text)
    DelayMs                                  0x08000ec5   Thumb Code    24  tick.o(.text)
    InitTimeout                              0x08000edd   Thumb Code    22  tick.o(.text)
    CheckTimeout                             0x08000ef3   Thumb Code   100  tick.o(.text)
    TimerDelayms                             0x08000f57   Thumb Code    48  tick.o(.text)
    HardFault_Handler                        0x08000fa5   Thumb Code    30  main.o(.text)
    SetOutReport                             0x08000fc3   Thumb Code     8  main.o(.text)
    GetInReport                              0x08000fcb   Thumb Code     2  main.o(.text)
    SysDeInit                                0x08000fcd   Thumb Code    58  main.o(.text)
    execute_user_code                        0x08001007   Thumb Code    60  main.o(.text)
    SysInit                                  0x08001043   Thumb Code    68  main.o(.text)
    Delay                                    0x08001087   Thumb Code    12  main.o(.text)
    main                                     0x08001093   Thumb Code  2074  main.o(.text)
    myFMC_Erase                              0x0800195d   Thumb Code    22  flashprog.o(.text)
    FMC_ProgramPage                          0x08001973   Thumb Code    60  flashprog.o(.text)
    CfgParserPacket                          0x080019d1   Thumb Code   170  proto_parser.o(.text)
    CfgCalcCheckSum                          0x08001a7b   Thumb Code    26  proto_parser.o(.text)
    SST25_Init                               0x08001a95   Thumb Code    12  sst25.o(.text)
    SST25_DeInit                             0x08001aa1   Thumb Code    10  sst25.o(.text)
    SST25_Erase                              0x08001b37   Thumb Code   146  sst25.o(.text)
    _SST25_Write                             0x08001bc9   Thumb Code   150  sst25.o(.text)
    SST25_Write                              0x08001c5f   Thumb Code    82  sst25.o(.text)
    SST25_Read                               0x08001cb1   Thumb Code   130  sst25.o(.text)
    memcmp                                   0x08001dbd   Thumb Code    26  memcmp.o(.text)
    __scatterload                            0x08001dd9   Thumb Code    28  init.o(.text)
    __scatterload_rt2                        0x08001dd9   Thumb Code     0  init.o(.text)
    __scatterload_copy                       0x08001dfd   Thumb Code    14  handlers.o(i.__scatterload_copy)
    __scatterload_null                       0x08001e0b   Thumb Code     2  handlers.o(i.__scatterload_null)
    __scatterload_zeroinit                   0x08001e0d   Thumb Code    14  handlers.o(i.__scatterload_zeroinit)
    Region$$Table$$Base                      0x08001e1c   Number         0  anon$$obj.o(Region$$Table)
    Region$$Table$$Limit                     0x08001e3c   Number         0  anon$$obj.o(Region$$Table)
    SystemCoreClock                          0x20000000   Data           4  system_stm32f10x.o(.data)
    AHBPrescTable                            0x20000004   Data          16  system_stm32f10x.o(.data)
    tickTimeSec                              0x20000018   Data           4  tick.o(.data)
    tickCounter32                            0x2000001c   Data           4  tick.o(.data)
    tickCounter64                            0x20000020   Data           8  tick.o(.data)
    usbRecv                                  0x20000028   Data           1  main.o(.data)
    memAddr                                  0x2000002c   Data           4  main.o(.data)
    bootMode                                 0x20000030   Data           1  main.o(.data)
    phase                                    0x20000031   Data           1  main.o(.data)
    fileSize                                 0x20000034   Data           4  main.o(.data)
    fileCrc                                  0x20000038   Data           4  main.o(.data)
    packetNo                                 0x2000003c   Data           4  main.o(.data)
    firmwareFileOffSet                       0x20000040   Data           4  main.o(.data)
    firmwareFileSize                         0x20000044   Data           4  main.o(.data)
    flashCheckSum                            0x20000048   Data           4  main.o(.data)
    Jump_To_Application                      0x2000004c   Data           4  main.o(.data)
    JumpAddress                              0x20000050   Data           4  main.o(.data)
    countErrTemp                             0x20000054   Data           4  sst25.o(.data)
    USART3_RxBuff                            0x20000058   Data        1024  uart3.o(.bss)
    USART3_RxRingBuff                        0x20000458   Data          16  uart3.o(.bss)
    HID_receivedBuf                          0x20000468   Data        2048  main.o(.bss)
    buff                                     0x20000c68   Data        4096  main.o(.bss)
    flashBuff                                0x20001c68   Data        2048  main.o(.bss)
    USB_txBuff                               0x20002468   Data        2048  main.o(.bss)
    UART_ProtoRecv                           0x20002c68   Data          16  main.o(.bss)
    UART_parserPacket                        0x20002c78   Data          10  main.o(.bss)
    bootLoginTimeout                         0x20002c84   Data          12  main.o(.bss)
    bootDisTimeout                           0x20002c90   Data          12  main.o(.bss)
    bootExitTimeout                          0x20002c9c   Data          12  main.o(.bss)
    __initial_sp                             0x20003ca8   Data           0  startup_stm32f10x_hd.o(STACK)



==============================================================================

Memory Map of the image

  Image Entry point : 0x08000131

  Load Region LR_IROM1 (Base: 0x08000000, Size: 0x00001e94, Max: 0x00020000, ABSOLUTE)

    Execution Region ER_IROM1 (Base: 0x08000000, Size: 0x00001e3c, Max: 0x00020000, ABSOLUTE)

    Base Addr    Size         Type   Attr      Idx    E Section Name        Object

    0x08000000   0x00000130   Data   RO            3    RESET               startup_stm32f10x_hd.o
    0x08000130   0x00000000   Code   RO          248  * .ARM.Collect$$$$00000000  mc_w.l(entry.o)
    0x08000130   0x00000004   Code   RO          253    .ARM.Collect$$$$00000001  mc_w.l(entry2.o)
    0x08000134   0x00000004   Code   RO          256    .ARM.Collect$$$$00000004  mc_w.l(entry5.o)
    0x08000138   0x00000000   Code   RO          258    .ARM.Collect$$$$00000008  mc_w.l(entry7b.o)
    0x08000138   0x00000000   Code   RO          260    .ARM.Collect$$$$0000000A  mc_w.l(entry8b.o)
    0x08000138   0x00000008   Code   RO          261    .ARM.Collect$$$$0000000B  mc_w.l(entry9a.o)
    0x08000140   0x00000000   Code   RO          263    .ARM.Collect$$$$0000000D  mc_w.l(entry10a.o)
    0x08000140   0x00000000   Code   RO          265    .ARM.Collect$$$$0000000F  mc_w.l(entry11a.o)
    0x08000140   0x00000004   Code   RO          254    .ARM.Collect$$$$00002712  mc_w.l(entry2.o)
    0x08000144   0x00000020   Code   RO           10    .emb_text           core_cm3.o
    0x08000164   0x00000024   Code   RO            4    .text               startup_stm32f10x_hd.o
    0x08000188   0x000001d8   Code   RO           24    .text               system_stm32f10x.o
    0x08000360   0x000005bc   Code   RO           49    .text               stm32f10x_flash.o
    0x0800091c   0x000002bc   Code   RO           68    .text               spi.o
    0x08000bd8   0x000001bc   Code   RO           83    .text               uart3.o
    0x08000d94   0x00000094   Code   RO          117    .text               ringbuf.o
    0x08000e28   0x0000017c   Code   RO          129    .text               tick.o
    0x08000fa4   0x000009b8   Code   RO          158    .text               main.o
    0x0800195c   0x00000074   Code   RO          198    .text               flashprog.o
    0x080019d0   0x000000c4   Code   RO          218    .text               proto_parser.o
    0x08001a94   0x00000328   Code   RO          233    .text               sst25.o
    0x08001dbc   0x0000001a   Code   RO          251    .text               mc_w.l(memcmp.o)
    0x08001dd6   0x00000002   PAD
    0x08001dd8   0x00000024   Code   RO          267    .text               mc_w.l(init.o)
    0x08001dfc   0x0000000e   Code   RO          271    i.__scatterload_copy  mc_w.l(handlers.o)
    0x08001e0a   0x00000002   Code   RO          272    i.__scatterload_null  mc_w.l(handlers.o)
    0x08001e0c   0x0000000e   Code   RO          273    i.__scatterload_zeroinit  mc_w.l(handlers.o)
    0x08001e1a   0x00000002   PAD
    0x08001e1c   0x00000020   Data   RO          269    Region$$Table       anon$$obj.o


    Execution Region RW_IRAM1 (Base: 0x20000000, Size: 0x00003ca8, Max: 0x00005000, ABSOLUTE)

    Base Addr    Size         Type   Attr      Idx    E Section Name        Object

    0x20000000   0x00000014   Data   RW           25    .data               system_stm32f10x.o
    0x20000014   0x00000004   PAD
    0x20000018   0x00000010   Data   RW          130    .data               tick.o
    0x20000028   0x0000002c   Data   RW          160    .data               main.o
    0x20000054   0x00000004   Data   RW          234    .data               sst25.o
    0x20000058   0x00000410   Zero   RW           84    .bss                uart3.o
    0x20000468   0x00002840   Zero   RW          159    .bss                main.o
    0x20002ca8   0x00001000   Zero   RW            1    STACK               startup_stm32f10x_hd.o


==============================================================================

Image component sizes


      Code (inc. data)   RO Data    RW Data    ZI Data      Debug   Object Name

        32          0          0          0          0       4764   core_cm3.o
       116          8          0          0          0      16361   flashprog.o
      2488        522          0         44      10304      21719   main.o
       196          6          0          0          0       1290   proto_parser.o
       148          0          0          0          0       1703   ringbuf.o
       700         20          0          0          0       2159   spi.o
       808         16          0          4          0       3773   sst25.o
        36          8        304          0       4096        884   startup_stm32f10x_hd.o
      1468         34          0          0          0      14450   stm32f10x_flash.o
       472         36          0         20          0     205079   system_stm32f10x.o
       380         30          0         16          0      18539   tick.o
       444         32          0          0       1040      18136   uart3.o

    ----------------------------------------------------------------------
      7288        712        336         88      15440     308857   Object Totals
         0          0         32          0          0          0   (incl. Generated)
         0          0          0          4          0          0   (incl. Padding)

    ----------------------------------------------------------------------

      Code (inc. data)   RO Data    RW Data    ZI Data      Debug   Library Member Name

         0          0          0          0          0          0   entry.o
         0          0          0          0          0          0   entry10a.o
         0          0          0          0          0          0   entry11a.o
         8          4          0          0          0          0   entry2.o
         4          0          0          0          0          0   entry5.o
         0          0          0          0          0          0   entry7b.o
         0          0          0          0          0          0   entry8b.o
         8          4          0          0          0          0   entry9a.o
        30          0          0          0          0          0   handlers.o
        36          8          0          0          0         68   init.o
        26          0          0          0          0         80   memcmp.o

    ----------------------------------------------------------------------
       116         16          0          0          0        148   Library Totals
         4          0          0          0          0          0   (incl. Padding)

    ----------------------------------------------------------------------

      Code (inc. data)   RO Data    RW Data    ZI Data      Debug   Library Name

       112         16          0          0          0        148   mc_w.l

    ----------------------------------------------------------------------
       116         16          0          0          0        148   Library Totals

    ----------------------------------------------------------------------

==============================================================================


      Code (inc. data)   RO Data    RW Data    ZI Data      Debug   

      7404        728        336         88      15440     307913   Grand Totals
      7404        728        336         88      15440     307913   ELF Image Totals
      7404        728        336         88          0          0   ROM Totals

==============================================================================

    Total RO  Size (Code + RO Data)                 7740 (   7.56kB)
    Total RW  Size (RW Data + ZI Data)             15528 (  15.16kB)
    Total ROM Size (Code + RO Data + RW Data)       7828 (   7.64kB)

==============================================================================

