ARM Linker, 4.1 [Build 894] [Standard]

==============================================================================

Section Cross References

    startup_stm32f10x_md.o(STACK) refers (Special) to system_stm32f10x.o(.text) for SystemInit
    startup_stm32f10x_md.o(HEAP) refers (Special) to system_stm32f10x.o(.text) for SystemInit
    startup_stm32f10x_md.o(RESET) refers (Special) to system_stm32f10x.o(.text) for SystemInit
    startup_stm32f10x_md.o(RESET) refers to startup_stm32f10x_md.o(STACK) for __initial_sp
    startup_stm32f10x_md.o(RESET) refers to startup_stm32f10x_md.o(.text) for Reset_Handler
    startup_stm32f10x_md.o(RESET) refers to main.o(.text) for HardFault_Handler
    startup_stm32f10x_md.o(RESET) refers to usbhw.o(.text) for USB_LP_CAN1_RX0_IRQHandler
    startup_stm32f10x_md.o(.text) refers (Special) to system_stm32f10x.o(.text) for SystemInit
    startup_stm32f10x_md.o(.text) refers to entry.o(.ARM.Collect$$$$00000000) for __main
    system_stm32f10x.o(.text) refers to system_stm32f10x.o(.data) for SystemCoreClock
    main.o(.text) refers to main.o(.emb_text) for boot_jump
    main.o(.text) refers to system_stm32f10x.o(.text) for SystemInit
    main.o(.text) refers to usbhw.o(.text) for USB_Init
    main.o(.text) refers to stm32f10x_flash.o(.text) for FLASH_Unlock
    main.o(.text) refers to flashprog.o(.text) for myFMC_Erase
    main.o(.text) refers to sst25.o(.text) for SST25_Init
    main.o(.text) refers to main.o(.data) for usbRecv
    main.o(.text) refers to main.o(.bss) for buff
==============================================================================

Removing Unused input sections from the image.

    Removing startup_stm32f10x_md.o(HEAP), (512 bytes).
    Removing core_cm3.o(.emb_text), (32 bytes).

2 unused section(s) (total 544 bytes) removed from the image.

==============================================================================

Image Symbol Table

    Local Symbols

    Symbol Name                              Value     Ov Type        Size  Object(Section)

    ../../microlib/init/entry.s              0x00000000   Number         0  entry8.o ABSOLUTE
    ../../microlib/init/entry.s              0x00000000   Number         0  entry5.o ABSOLUTE
    ../../microlib/init/entry.s              0x00000000   Number         0  entry7a.o ABSOLUTE
    ../../microlib/init/entry.s              0x00000000   Number         0  entry.o ABSOLUTE
    ../../microlib/init/entry.s              0x00000000   Number         0  entry7b.o ABSOLUTE
    ../../microlib/init/entry.s              0x00000000   Number         0  entry2.o ABSOLUTE
    ..\Drivers\STM32F10x_StdPeriph_Driver\src\stm32f10x_flash.c 0x00000000   Number         0  stm32f10x_flash.o ABSOLUTE
    ..\Drivers\my_driver\spi.c               0x00000000   Number         0  spi.o ABSOLUTE
    ..\Libraries\CMSIS\CM3\CoreSupport\core_cm3.c 0x00000000   Number         0  core_cm3.o ABSOLUTE
    ..\Libraries\CMSIS\CM3\DeviceSupport\ST\STM32F10x\startup\arm\startup_stm32f10x_md.s 0x00000000   Number         0  startup_stm32f10x_md.o ABSOLUTE
    ..\Libraries\CMSIS\CM3\DeviceSupport\ST\STM32F10x\system_stm32f10x.c 0x00000000   Number         0  system_stm32f10x.o ABSOLUTE
    ..\Libraries\common_lib\flash_mem\sst25.c 0x00000000   Number         0  sst25.o ABSOLUTE
    ..\Libraries\common_lib\usb\hiduser.c    0x00000000   Number         0  hiduser.o ABSOLUTE
    ..\Libraries\common_lib\usb\usbcore.c    0x00000000   Number         0  usbcore.o ABSOLUTE
    ..\Libraries\common_lib\usb\usbdesc.c    0x00000000   Number         0  usbdesc.o ABSOLUTE
    ..\Libraries\common_lib\usb\usbhw.c      0x00000000   Number         0  usbhw.o ABSOLUTE
    ..\Libraries\common_lib\usb\usbuser.c    0x00000000   Number         0  usbuser.o ABSOLUTE
    ..\\Libraries\\CMSIS\\CM3\\CoreSupport\\core_cm3.c 0x00000000   Number         0  core_cm3.o ABSOLUTE
    Src\FlashProg.c                          0x00000000   Number         0  flashprog.o ABSOLUTE
    Src\\main.c                              0x00000000   Number         0  main.o ABSOLUTE
    Src\main.c                               0x00000000   Number         0  main.o ABSOLUTE
    dc.s                                     0x00000000   Number         0  dc.o ABSOLUTE
    handlers.s                               0x00000000   Number         0  handlers.o ABSOLUTE
    init.s                                   0x00000000   Number         0  init.o ABSOLUTE
    RESET                                    0x08000000   Section      236  startup_stm32f10x_md.o(RESET)
    .ARM.Collect$$$$00000000                 0x080000ec   Section        0  entry.o(.ARM.Collect$$$$00000000)
    .ARM.Collect$$$$00000001                 0x080000ec   Section        4  entry2.o(.ARM.Collect$$$$00000001)
    .ARM.Collect$$$$00000004                 0x080000f0   Section        4  entry5.o(.ARM.Collect$$$$00000004)
    .ARM.Collect$$$$00000008                 0x080000f4   Section        0  entry7b.o(.ARM.Collect$$$$00000008)
    .ARM.Collect$$$$00000009                 0x080000f4   Section        8  entry8.o(.ARM.Collect$$$$00000009)
    .ARM.Collect$$$$00002712                 0x080000fc   Section        4  entry2.o(.ARM.Collect$$$$00002712)
    __lit__00000000                          0x080000fc   Data           4  entry2.o(.ARM.Collect$$$$00002712)
    .emb_text                                0x08000100   Section        8  main.o(.emb_text)
    .text                                    0x08000108   Section       28  startup_stm32f10x_md.o(.text)
    .text                                    0x08000124   Section        0  system_stm32f10x.o(.text)
    SetSysClockTo48                          0x08000125   Thumb Code   192  system_stm32f10x.o(.text)
    SetSysClock                              0x080001e5   Thumb Code     8  system_stm32f10x.o(.text)
    .text                                    0x080002ec   Section        0  stm32f10x_flash.o(.text)
    .text                                    0x080008a4   Section        0  spi.o(.text)
    .text                                    0x08000968   Section        0  main.o(.text)
    .text                                    0x08000cec   Section        0  flashprog.o(.text)
    NVIC_SystemReset                         0x08000d3f   Thumb Code    26  flashprog.o(.text)
    .text                                    0x08000d60   Section        0  hiduser.o(.text)
    .text                                    0x08000df8   Section        0  usbcore.o(.text)
    .text                                    0x08001178   Section        0  usbhw.o(.text)
    .text                                    0x080015c0   Section        0  usbuser.o(.text)
    .text                                    0x08001628   Section        0  sst25.o(.text)
    SST25__Status                            0x08001637   Thumb Code    52  sst25.o(.text)
    SST25__WriteEnable                       0x0800166b   Thumb Code    88  sst25.o(.text)
    SST25__WriteDisable                      0x080018bf   Thumb Code     4  sst25.o(.text)
    SST25__GlobalProtect                     0x080018c3   Thumb Code   118  sst25.o(.text)
    .text                                    0x0800194c   Section       36  init.o(.text)
    i.USB_GetDescriptor                      0x08001970   Section        0  usbcore.o(i.USB_GetDescriptor)
    i.USB_GetStatus                          0x08001a64   Section        0  usbcore.o(i.USB_GetStatus)
    i.USB_SetClrFeature                      0x08001b34   Section        0  usbcore.o(i.USB_SetClrFeature)
    i.USB_SetConfiguration                   0x08001c10   Section        0  usbcore.o(i.USB_SetConfiguration)
    i.USB_SetInterface                       0x08001da0   Section        0  usbcore.o(i.USB_SetInterface)
    i.__scatterload_copy                     0x08001eb0   Section       14  handlers.o(i.__scatterload_copy)
    i.__scatterload_null                     0x08001ebe   Section        2  handlers.o(i.__scatterload_null)
    i.__scatterload_zeroinit                 0x08001ec0   Section       14  handlers.o(i.__scatterload_zeroinit)
    .constdata                               0x08001ece   Section      190  usbdesc.o(.constdata)
    .constdata                               0x08001f8c   Section       64  usbuser.o(.constdata)
    .data                                    0x20000000   Section       20  system_stm32f10x.o(.data)
    .data                                    0x20000014   Section       20  main.o(.data)
    .data                                    0x20000028   Section        3  hiduser.o(.data)
    .data                                    0x2000002c   Section       40  usbcore.o(.data)
    .data                                    0x20000054   Section        6  usbhw.o(.data)
    .data                                    0x2000005c   Section        4  sst25.o(.data)
    .bss                                     0x20000060   Section     5184  main.o(.bss)
    .bss                                     0x200014a0   Section       64  hiduser.o(.bss)
    .bss                                     0x200014e0   Section       64  usbcore.o(.bss)
    STACK                                    0x20001520   Section     1024  startup_stm32f10x_md.o(STACK)

    Global Symbols

    Symbol Name                              Value     Ov Type        Size  Object(Section)

    BuildAttributes$$THM_ISAv4$P$D$K$B$S$PE$A:L22UL41UL21$X:L11$S22US41US21$IEEE1$IW$USESV6$~STKCKD$USESV7$~SHL$OSPACE$EBA8$MICROLIB$REQ8$EABIv2 0x00000000   Number         0  anon$$obj.o ABSOLUTE
    __ARM_use_no_argv                        0x00000000   Number         0  main.o ABSOLUTE
    __decompress                              - Undefined Weak Reference
    _clock_init                               - Undefined Weak Reference
    __Vectors_Size                           0x000000ec   Number         0  startup_stm32f10x_md.o ABSOLUTE
    __Vectors                                0x08000000   Data           4  startup_stm32f10x_md.o(RESET)
    __Vectors_End                            0x080000ec   Data           0  startup_stm32f10x_md.o(RESET)
    __main                                   0x080000ed   Thumb Code     0  entry.o(.ARM.Collect$$$$00000000)
    _main_stk                                0x080000ed   Thumb Code     0  entry2.o(.ARM.Collect$$$$00000001)
    _main_scatterload                        0x080000f1   Thumb Code     0  entry5.o(.ARM.Collect$$$$00000004)
    __main_after_scatterload                 0x080000f5   Thumb Code     0  entry5.o(.ARM.Collect$$$$00000004)
    _main_clock                              0x080000f5   Thumb Code     0  entry7b.o(.ARM.Collect$$$$00000008)
    _main_init                               0x080000f5   Thumb Code     0  entry8.o(.ARM.Collect$$$$00000009)
    boot_jump                                0x08000101   Thumb Code     8  main.o(.emb_text)
    Reset_Handler                            0x08000109   Thumb Code     4  startup_stm32f10x_md.o(.text)
    NMI_Handler                              0x0800010d   Thumb Code     2  startup_stm32f10x_md.o(.text)
    MemManage_Handler                        0x08000111   Thumb Code     2  startup_stm32f10x_md.o(.text)
    BusFault_Handler                         0x08000113   Thumb Code     2  startup_stm32f10x_md.o(.text)
    UsageFault_Handler                       0x08000115   Thumb Code     2  startup_stm32f10x_md.o(.text)
    SVC_Handler                              0x08000117   Thumb Code     2  startup_stm32f10x_md.o(.text)
    DebugMon_Handler                         0x08000119   Thumb Code     2  startup_stm32f10x_md.o(.text)
    PendSV_Handler                           0x0800011b   Thumb Code     2  startup_stm32f10x_md.o(.text)
    SysTick_Handler                          0x0800011d   Thumb Code     2  startup_stm32f10x_md.o(.text)
    ADC1_2_IRQHandler                        0x0800011f   Thumb Code     0  startup_stm32f10x_md.o(.text)
    CAN1_RX1_IRQHandler                      0x0800011f   Thumb Code     0  startup_stm32f10x_md.o(.text)
    CAN1_SCE_IRQHandler                      0x0800011f   Thumb Code     0  startup_stm32f10x_md.o(.text)
    DMA1_Channel1_IRQHandler                 0x0800011f   Thumb Code     0  startup_stm32f10x_md.o(.text)
    DMA1_Channel2_IRQHandler                 0x0800011f   Thumb Code     0  startup_stm32f10x_md.o(.text)
    DMA1_Channel3_IRQHandler                 0x0800011f   Thumb Code     0  startup_stm32f10x_md.o(.text)
    DMA1_Channel4_IRQHandler                 0x0800011f   Thumb Code     0  startup_stm32f10x_md.o(.text)
    DMA1_Channel5_IRQHandler                 0x0800011f   Thumb Code     0  startup_stm32f10x_md.o(.text)
    DMA1_Channel6_IRQHandler                 0x0800011f   Thumb Code     0  startup_stm32f10x_md.o(.text)
    DMA1_Channel7_IRQHandler                 0x0800011f   Thumb Code     0  startup_stm32f10x_md.o(.text)
    EXTI0_IRQHandler                         0x0800011f   Thumb Code     0  startup_stm32f10x_md.o(.text)
    EXTI15_10_IRQHandler                     0x0800011f   Thumb Code     0  startup_stm32f10x_md.o(.text)
    EXTI1_IRQHandler                         0x0800011f   Thumb Code     0  startup_stm32f10x_md.o(.text)
    EXTI2_IRQHandler                         0x0800011f   Thumb Code     0  startup_stm32f10x_md.o(.text)
    EXTI3_IRQHandler                         0x0800011f   Thumb Code     0  startup_stm32f10x_md.o(.text)
    EXTI4_IRQHandler                         0x0800011f   Thumb Code     0  startup_stm32f10x_md.o(.text)
    EXTI9_5_IRQHandler                       0x0800011f   Thumb Code     0  startup_stm32f10x_md.o(.text)
    FLASH_IRQHandler                         0x0800011f   Thumb Code     0  startup_stm32f10x_md.o(.text)
    I2C1_ER_IRQHandler                       0x0800011f   Thumb Code     0  startup_stm32f10x_md.o(.text)
    I2C1_EV_IRQHandler                       0x0800011f   Thumb Code     0  startup_stm32f10x_md.o(.text)
    I2C2_ER_IRQHandler                       0x0800011f   Thumb Code     0  startup_stm32f10x_md.o(.text)
    I2C2_EV_IRQHandler                       0x0800011f   Thumb Code     0  startup_stm32f10x_md.o(.text)
    PVD_IRQHandler                           0x0800011f   Thumb Code     0  startup_stm32f10x_md.o(.text)
    RCC_IRQHandler                           0x0800011f   Thumb Code     0  startup_stm32f10x_md.o(.text)
    RTCAlarm_IRQHandler                      0x0800011f   Thumb Code     0  startup_stm32f10x_md.o(.text)
    RTC_IRQHandler                           0x0800011f   Thumb Code     0  startup_stm32f10x_md.o(.text)
    SPI1_IRQHandler                          0x0800011f   Thumb Code     0  startup_stm32f10x_md.o(.text)
    SPI2_IRQHandler                          0x0800011f   Thumb Code     0  startup_stm32f10x_md.o(.text)
    TAMPER_IRQHandler                        0x0800011f   Thumb Code     0  startup_stm32f10x_md.o(.text)
    TIM1_BRK_IRQHandler                      0x0800011f   Thumb Code     0  startup_stm32f10x_md.o(.text)
    TIM1_CC_IRQHandler                       0x0800011f   Thumb Code     0  startup_stm32f10x_md.o(.text)
    TIM1_TRG_COM_IRQHandler                  0x0800011f   Thumb Code     0  startup_stm32f10x_md.o(.text)
    TIM1_UP_IRQHandler                       0x0800011f   Thumb Code     0  startup_stm32f10x_md.o(.text)
    TIM2_IRQHandler                          0x0800011f   Thumb Code     0  startup_stm32f10x_md.o(.text)
    TIM3_IRQHandler                          0x0800011f   Thumb Code     0  startup_stm32f10x_md.o(.text)
    TIM4_IRQHandler                          0x0800011f   Thumb Code     0  startup_stm32f10x_md.o(.text)
    USART1_IRQHandler                        0x0800011f   Thumb Code     0  startup_stm32f10x_md.o(.text)
    USART2_IRQHandler                        0x0800011f   Thumb Code     0  startup_stm32f10x_md.o(.text)
    USART3_IRQHandler                        0x0800011f   Thumb Code     0  startup_stm32f10x_md.o(.text)
    USBWakeUp_IRQHandler                     0x0800011f   Thumb Code     0  startup_stm32f10x_md.o(.text)
    USB_HP_CAN1_TX_IRQHandler                0x0800011f   Thumb Code     0  startup_stm32f10x_md.o(.text)
    WWDG_IRQHandler                          0x0800011f   Thumb Code     0  startup_stm32f10x_md.o(.text)
    SystemInit                               0x080001ed   Thumb Code    78  system_stm32f10x.o(.text)
    SystemCoreClockUpdate                    0x0800023b   Thumb Code   142  system_stm32f10x.o(.text)
    FLASH_SetLatency                         0x080002ed   Thumb Code    18  stm32f10x_flash.o(.text)
    FLASH_HalfCycleAccessCmd                 0x080002ff   Thumb Code    22  stm32f10x_flash.o(.text)
    FLASH_PrefetchBufferCmd                  0x08000315   Thumb Code    22  stm32f10x_flash.o(.text)
    FLASH_Unlock                             0x0800032b   Thumb Code    12  stm32f10x_flash.o(.text)
    FLASH_UnlockBank1                        0x08000337   Thumb Code    12  stm32f10x_flash.o(.text)
    FLASH_Lock                               0x08000343   Thumb Code    14  stm32f10x_flash.o(.text)
    FLASH_LockBank1                          0x08000351   Thumb Code    14  stm32f10x_flash.o(.text)
    FLASH_GetBank1Status                     0x0800035f   Thumb Code    50  stm32f10x_flash.o(.text)
    FLASH_WaitForLastOperation               0x08000391   Thumb Code    38  stm32f10x_flash.o(.text)
    FLASH_ErasePage                          0x080003b7   Thumb Code    72  stm32f10x_flash.o(.text)
    FLASH_EraseAllPages                      0x080003ff   Thumb Code    68  stm32f10x_flash.o(.text)
    FLASH_WaitForLastBank1Operation          0x08000443   Thumb Code    38  stm32f10x_flash.o(.text)
    FLASH_EraseAllBank1Pages                 0x08000469   Thumb Code    68  stm32f10x_flash.o(.text)
    FLASH_GetReadOutProtectionStatus         0x080004ad   Thumb Code    20  stm32f10x_flash.o(.text)
    FLASH_EraseOptionBytes                   0x080004c1   Thumb Code   150  stm32f10x_flash.o(.text)
    FLASH_ProgramWord                        0x08000557   Thumb Code    96  stm32f10x_flash.o(.text)
    FLASH_ProgramHalfWord                    0x080005b7   Thumb Code    60  stm32f10x_flash.o(.text)
    FLASH_ProgramOptionByteData              0x080005f3   Thumb Code    72  stm32f10x_flash.o(.text)
    FLASH_EnableWriteProtection              0x0800063b   Thumb Code   200  stm32f10x_flash.o(.text)
    FLASH_ReadOutProtection                  0x08000703   Thumb Code   156  stm32f10x_flash.o(.text)
    FLASH_UserOptionByteConfig               0x0800079f   Thumb Code    88  stm32f10x_flash.o(.text)
    FLASH_GetUserOptionByte                  0x080007f7   Thumb Code     8  stm32f10x_flash.o(.text)
    FLASH_GetWriteProtectionOptionByte       0x080007ff   Thumb Code     6  stm32f10x_flash.o(.text)
    FLASH_GetPrefetchBufferStatus            0x08000805   Thumb Code    20  stm32f10x_flash.o(.text)
    FLASH_ITConfig                           0x08000819   Thumb Code    26  stm32f10x_flash.o(.text)
    FLASH_GetFlagStatus                      0x08000833   Thumb Code    42  stm32f10x_flash.o(.text)
    FLASH_ClearFlag                          0x0800085d   Thumb Code     6  stm32f10x_flash.o(.text)
    FLASH_GetStatus                          0x08000863   Thumb Code    50  stm32f10x_flash.o(.text)
    SPI_Init                                 0x080008a5   Thumb Code   122  spi.o(.text)
    halSpiWriteByte                          0x0800091f   Thumb Code    60  spi.o(.text)
    HardFault_Handler                        0x08000969   Thumb Code    30  main.o(.text)
    SetOutReport                             0x08000987   Thumb Code     8  main.o(.text)
    GetInReport                              0x0800098f   Thumb Code     2  main.o(.text)
    CfgCalcCheckSum                          0x08000991   Thumb Code    26  main.o(.text)
    JumpToApplication                        0x080009ab   Thumb Code    18  main.o(.text)
    SysInit                                  0x080009bd   Thumb Code    90  main.o(.text)
    Delay                                    0x08000a17   Thumb Code    12  main.o(.text)
    main                                     0x08000a23   Thumb Code   646  main.o(.text)
    myFMC_Erase                              0x08000ced   Thumb Code    22  flashprog.o(.text)
    FMC_ProgramPage                          0x08000d03   Thumb Code    60  flashprog.o(.text)
    HID_GetReport                            0x08000d61   Thumb Code    40  hiduser.o(.text)
    HID_SetReport                            0x08000d89   Thumb Code    40  hiduser.o(.text)
    HID_GetIdle                              0x08000db1   Thumb Code    16  hiduser.o(.text)
    HID_SetIdle                              0x08000dc1   Thumb Code    16  hiduser.o(.text)
    HID_GetProtocol                          0x08000dd1   Thumb Code    12  hiduser.o(.text)
    HID_SetProtocol                          0x08000ddd   Thumb Code    12  hiduser.o(.text)
    USB_ResetCore                            0x08000df9   Thumb Code    30  usbcore.o(.text)
    USB_SetupStage                           0x08000e17   Thumb Code    12  usbcore.o(.text)
    USB_DataInStage                          0x08000e23   Thumb Code    52  usbcore.o(.text)
    USB_DataOutStage                         0x08000e57   Thumb Code    34  usbcore.o(.text)
    USB_StatusInStage                        0x08000e79   Thumb Code    14  usbcore.o(.text)
    USB_StatusOutStage                       0x08000e87   Thumb Code    12  usbcore.o(.text)
    USB_EndPoint0                            0x08000e93   Thumb Code   702  usbcore.o(.text)
    EP_Reset                                 0x08001179   Thumb Code    58  usbhw.o(.text)
    EP_Status                                0x080011b3   Thumb Code    70  usbhw.o(.text)
    USB_Init                                 0x080011f9   Thumb Code    44  usbhw.o(.text)
    USB_Connect                              0x08001225   Thumb Code    40  usbhw.o(.text)
    USB_Reset                                0x0800124d   Thumb Code    98  usbhw.o(.text)
    USB_Suspend                              0x080012af   Thumb Code    28  usbhw.o(.text)
    USB_Resume                               0x080012cb   Thumb Code     2  usbhw.o(.text)
    USB_WakeUp                               0x080012cd   Thumb Code    18  usbhw.o(.text)
    USB_WakeUpCfg                            0x080012df   Thumb Code     2  usbhw.o(.text)
    USB_SetAddress                           0x080012e1   Thumb Code    12  usbhw.o(.text)
    USB_Configure                            0x080012ed   Thumb Code     4  usbhw.o(.text)
    USB_ConfigEP                             0x080012f1   Thumb Code   186  usbhw.o(.text)
    USB_DirCtrlEP                            0x080013ab   Thumb Code     2  usbhw.o(.text)
    USB_EnableEP                             0x080013ad   Thumb Code    16  usbhw.o(.text)
    USB_DisableEP                            0x080013bd   Thumb Code    14  usbhw.o(.text)
    USB_ResetEP                              0x080013cb   Thumb Code    12  usbhw.o(.text)
    USB_SetStallEP                           0x080013d7   Thumb Code    16  usbhw.o(.text)
    USB_ClrStallEP                           0x080013e7   Thumb Code    16  usbhw.o(.text)
    USB_ReadEP                               0x080013f7   Thumb Code    86  usbhw.o(.text)
    USB_WriteEP                              0x0800144d   Thumb Code    82  usbhw.o(.text)
    USB_GetFrame                             0x0800149f   Thumb Code    12  usbhw.o(.text)
    USB_LP_CAN1_RX0_IRQHandler               0x080014ab   Thumb Code   268  usbhw.o(.text)
    USB_Reset_Event                          0x080015c1   Thumb Code    14  usbuser.o(.text)
    USB_Suspend_Event                        0x080015cf   Thumb Code     8  usbuser.o(.text)
    USB_Configure_Event                      0x080015d7   Thumb Code    14  usbuser.o(.text)
    USB_EndPoint1                            0x080015e5   Thumb Code    30  usbuser.o(.text)
    USB_EndPoint2                            0x08001603   Thumb Code     2  usbuser.o(.text)
    USB_EndPoint3                            0x08001605   Thumb Code     2  usbuser.o(.text)
    USB_EndPoint4                            0x08001607   Thumb Code     2  usbuser.o(.text)
    USB_EndPoint5                            0x08001609   Thumb Code     2  usbuser.o(.text)
    USB_EndPoint6                            0x0800160b   Thumb Code     2  usbuser.o(.text)
    USB_EndPoint7                            0x0800160d   Thumb Code     2  usbuser.o(.text)
    USB_EndPoint8                            0x0800160f   Thumb Code     2  usbuser.o(.text)
    USB_EndPoint9                            0x08001611   Thumb Code     2  usbuser.o(.text)
    USB_EndPoint10                           0x08001613   Thumb Code     2  usbuser.o(.text)
    USB_EndPoint11                           0x08001615   Thumb Code     2  usbuser.o(.text)
    USB_EndPoint12                           0x08001617   Thumb Code     2  usbuser.o(.text)
    USB_EndPoint13                           0x08001619   Thumb Code     2  usbuser.o(.text)
    USB_EndPoint14                           0x0800161b   Thumb Code     2  usbuser.o(.text)
    USB_EndPoint15                           0x0800161d   Thumb Code     2  usbuser.o(.text)
    SST25_Init                               0x08001629   Thumb Code    14  sst25.o(.text)
    SST25_Erase                              0x080016c3   Thumb Code   146  sst25.o(.text)
    _SST25_Write                             0x08001755   Thumb Code   150  sst25.o(.text)
    SST25_Write                              0x080017eb   Thumb Code    82  sst25.o(.text)
    SST25_Read                               0x0800183d   Thumb Code   130  sst25.o(.text)
    __scatterload                            0x0800194d   Thumb Code    28  init.o(.text)
    __scatterload_rt2                        0x0800194d   Thumb Code     0  init.o(.text)
    USB_GetDescriptor                        0x08001971   Thumb Code   214  usbcore.o(i.USB_GetDescriptor)
    USB_GetStatus                            0x08001a65   Thumb Code   174  usbcore.o(i.USB_GetStatus)
    USB_SetClrFeature                        0x08001b35   Thumb Code   198  usbcore.o(i.USB_SetClrFeature)
    USB_SetConfiguration                     0x08001c11   Thumb Code   368  usbcore.o(i.USB_SetConfiguration)
    USB_SetInterface                         0x08001da1   Thumb Code   246  usbcore.o(i.USB_SetInterface)
    __scatterload_copy                       0x08001eb1   Thumb Code    14  handlers.o(i.__scatterload_copy)
    __scatterload_null                       0x08001ebf   Thumb Code     2  handlers.o(i.__scatterload_null)
    __scatterload_zeroinit                   0x08001ec1   Thumb Code    14  handlers.o(i.__scatterload_zeroinit)
    HID_ReportDescriptor                     0x08001ece   Data          28  usbdesc.o(.constdata)
    HID_ReportDescSize                       0x08001eea   Data           2  usbdesc.o(.constdata)
    USB_DeviceDescriptor                     0x08001eec   Data          18  usbdesc.o(.constdata)
    USB_ConfigDescriptor                     0x08001efe   Data          42  usbdesc.o(.constdata)
    USB_StringDescriptor                     0x08001f28   Data         100  usbdesc.o(.constdata)
    USB_P_EP                                 0x08001f8c   Data          64  usbuser.o(.constdata)
    Region$$Table$$Base                      0x08001fcc   Number         0  anon$$obj.o(Region$$Table)
    Region$$Table$$Limit                     0x08001fec   Number         0  anon$$obj.o(Region$$Table)
    SystemCoreClock                          0x20000000   Data           4  system_stm32f10x.o(.data)
    AHBPrescTable                            0x20000004   Data          16  system_stm32f10x.o(.data)
    usbRecv                                  0x20000014   Data           1  main.o(.data)
    fileSize                                 0x20000018   Data           4  main.o(.data)
    packetNo                                 0x2000001c   Data           4  main.o(.data)
    firmwareFileOffSet                       0x20000020   Data           4  main.o(.data)
    firmwareFileSize                         0x20000024   Data           4  main.o(.data)
    HID_Protocol                             0x20000028   Data           1  hiduser.o(.data)
    HID_IdleTime                             0x20000029   Data           1  hiduser.o(.data)
    HID_receivedLength                       0x2000002a   Data           1  hiduser.o(.data)
    USB_Connected                            0x2000002c   Data           4  usbcore.o(.data)
    USB_DeviceStatus                         0x20000030   Data           2  usbcore.o(.data)
    USB_DeviceAddress                        0x20000032   Data           1  usbcore.o(.data)
    USB_Configuration                        0x20000033   Data           1  usbcore.o(.data)
    USB_EndPointMask                         0x20000034   Data           4  usbcore.o(.data)
    USB_EndPointHalt                         0x20000038   Data           4  usbcore.o(.data)
    USB_NumInterfaces                        0x2000003c   Data           1  usbcore.o(.data)
    USB_AltSetting                           0x2000003d   Data           4  usbcore.o(.data)
    EP0Data                                  0x20000044   Data           8  usbcore.o(.data)
    SetupPacket                              0x2000004c   Data           8  usbcore.o(.data)
    pBUF_DSCR                                0x20000054   Data           4  usbhw.o(.data)
    FreeBufAddr                              0x20000058   Data           2  usbhw.o(.data)
    countErrTemp                             0x2000005c   Data           4  sst25.o(.data)
    buff                                     0x20000060   Data        4096  main.o(.bss)
    flashBuff                                0x20001060   Data        1024  main.o(.bss)
    USB_txBuff                               0x20001460   Data          64  main.o(.bss)
    HID_receivedBuf                          0x200014a0   Data          64  hiduser.o(.bss)
    EP0Buf                                   0x200014e0   Data          64  usbcore.o(.bss)
    __initial_sp                             0x20001920   Data           0  startup_stm32f10x_md.o(STACK)



==============================================================================

Memory Map of the image

  Image Entry point : 0x080000ed

  Load Region LR_IROM1 (Base: 0x08000000, Size: 0x0000204c, Max: 0x00010000, ABSOLUTE)

    Execution Region ER_IROM1 (Base: 0x08000000, Size: 0x00001fec, Max: 0x00010000, ABSOLUTE)

    Base Addr    Size         Type   Attr      Idx    E Section Name        Object

    0x08000000   0x000000ec   Data   RO            3    RESET               startup_stm32f10x_md.o
    0x080000ec   0x00000000   Code   RO          379  * .ARM.Collect$$$$00000000  mc_w.l(entry.o)
    0x080000ec   0x00000004   Code   RO          382    .ARM.Collect$$$$00000001  mc_w.l(entry2.o)
    0x080000f0   0x00000004   Code   RO          385    .ARM.Collect$$$$00000004  mc_w.l(entry5.o)
    0x080000f4   0x00000000   Code   RO          387    .ARM.Collect$$$$00000008  mc_w.l(entry7b.o)
    0x080000f4   0x00000008   Code   RO          388    .ARM.Collect$$$$00000009  mc_w.l(entry8.o)
    0x080000fc   0x00000004   Code   RO          383    .ARM.Collect$$$$00002712  mc_w.l(entry2.o)
    0x08000100   0x00000008   Code   RO           94    .emb_text           main.o
    0x08000108   0x0000001c   Code   RO            4    .text               startup_stm32f10x_md.o
    0x08000124   0x000001c8   Code   RO           24    .text               system_stm32f10x.o
    0x080002ec   0x000005b8   Code   RO           49    .text               stm32f10x_flash.o
    0x080008a4   0x000000c4   Code   RO           68    .text               spi.o
    0x08000968   0x00000384   Code   RO           95    .text               main.o
    0x08000cec   0x00000074   Code   RO          153    .text               flashprog.o
    0x08000d60   0x00000098   Code   RO          165    .text               hiduser.o
    0x08000df8   0x00000380   Code   RO          249    .text               usbcore.o
    0x08001178   0x00000448   Code   RO          322    .text               usbhw.o
    0x080015c0   0x00000068   Code   RO          345    .text               usbuser.o
    0x08001628   0x00000324   Code   RO          364    .text               sst25.o
    0x0800194c   0x00000024   Code   RO          389    .text               mc_w.l(init.o)
    0x08001970   0x000000f4   Code   RO          274    i.USB_GetDescriptor  usbcore.o
    0x08001a64   0x000000d0   Code   RO          262    i.USB_GetStatus     usbcore.o
    0x08001b34   0x000000dc   Code   RO          268    i.USB_SetClrFeature  usbcore.o
    0x08001c10   0x00000190   Code   RO          280    i.USB_SetConfiguration  usbcore.o
    0x08001da0   0x00000110   Code   RO          286    i.USB_SetInterface  usbcore.o
    0x08001eb0   0x0000000e   Code   RO          393    i.__scatterload_copy  mc_w.l(handlers.o)
    0x08001ebe   0x00000002   Code   RO          394    i.__scatterload_null  mc_w.l(handlers.o)
    0x08001ec0   0x0000000e   Code   RO          395    i.__scatterload_zeroinit  mc_w.l(handlers.o)
    0x08001ece   0x000000be   Data   RO          310    .constdata          usbdesc.o
    0x08001f8c   0x00000040   Data   RO          346    .constdata          usbuser.o
    0x08001fcc   0x00000020   Data   RO          391    Region$$Table       anon$$obj.o


    Execution Region RW_IRAM1 (Base: 0x20000000, Size: 0x00001920, Max: 0x00005000, ABSOLUTE)

    Base Addr    Size         Type   Attr      Idx    E Section Name        Object

    0x20000000   0x00000014   Data   RW           25    .data               system_stm32f10x.o
    0x20000014   0x00000014   Data   RW           97    .data               main.o
    0x20000028   0x00000003   Data   RW          167    .data               hiduser.o
    0x2000002b   0x00000001   PAD
    0x2000002c   0x00000028   Data   RW          251    .data               usbcore.o
    0x20000054   0x00000006   Data   RW          323    .data               usbhw.o
    0x2000005a   0x00000002   PAD
    0x2000005c   0x00000004   Data   RW          365    .data               sst25.o
    0x20000060   0x00001440   Zero   RW           96    .bss                main.o
    0x200014a0   0x00000040   Zero   RW          166    .bss                hiduser.o
    0x200014e0   0x00000040   Zero   RW          250    .bss                usbcore.o
    0x20001520   0x00000400   Zero   RW            1    STACK               startup_stm32f10x_md.o


==============================================================================

Image component sizes


      Code (inc. data)   RO Data    RW Data    ZI Data      Debug   Object Name

         0          0          0          0          0       4156   core_cm3.o
       116          8          0          0          0       1286   flashprog.o
       152         16          0          3         64       8649   hiduser.o
       908         68          0         20       5184      19687   main.o
       196         14          0          0          0     202847   spi.o
       804         20          0          4          0       3732   sst25.o
        28          4        236          0       1024        880   startup_stm32f10x_md.o
      1464         32          0          0          0      14590   stm32f10x_flash.o
       456         36          0         20          0     203631   system_stm32f10x.o
      2240        216          0         40         64       7508   usbcore.o
         0          0        190          0          0        837   usbdesc.o
      1096         38          0          6          0      20495   usbhw.o
       104         10         64          0          0       3566   usbuser.o

    ----------------------------------------------------------------------
      7564        462        522         96       6336     491864   Object Totals
         0          0         32          0          0          0   (incl. Generated)
         0          0          0          3          0          0   (incl. Padding)

    ----------------------------------------------------------------------

      Code (inc. data)   RO Data    RW Data    ZI Data      Debug   Library Member Name

         0          0          0          0          0          0   entry.o
         8          4          0          0          0          0   entry2.o
         4          0          0          0          0          0   entry5.o
         0          0          0          0          0          0   entry7b.o
         8          4          0          0          0          0   entry8.o
        30          0          0          0          0          0   handlers.o
        36          8          0          0          0         68   init.o

    ----------------------------------------------------------------------
        86         16          0          0          0         68   Library Totals
         0          0          0          0          0          0   (incl. Padding)

    ----------------------------------------------------------------------

      Code (inc. data)   RO Data    RW Data    ZI Data      Debug   Library Name

        86         16          0          0          0         68   mc_w.l

    ----------------------------------------------------------------------
        86         16          0          0          0         68   Library Totals

    ----------------------------------------------------------------------

==============================================================================


      Code (inc. data)   RO Data    RW Data    ZI Data      Debug   

      7650        478        522         96       6336     490528   Grand Totals
      7650        478        522         96       6336     490528   ELF Image Totals
      7650        478        522         96          0          0   ROM Totals

==============================================================================

    Total RO  Size (Code + RO Data)                 8172 (   7.98kB)
    Total RW  Size (RW Data + ZI Data)              6432 (   6.28kB)
    Total ROM Size (Code + RO Data + RW Data)       8268 (   8.07kB)

==============================================================================

