:020000040800F2
:1028000048370020A5710008A971000801290008B7
:10281000AD710008AF710008B17100080000000040
:10282000000000000000000000000000B37100087C
:10283000B571000800000000B7710008F5730008CA
:10284000BB710008BB710008BB710008458A000815
:10285000BB710008BB710008BB710008BB710008A8
:10286000BB710008E1900008E9900008BB71000806
:10287000BB710008BB710008BB710008BB71000888
:10288000BB710008BB710008BB710008BB71000878
:10289000BB710008BB710008BB710008BB71000868
:1028A000BB710008BB710008BB710008BB71000858
:1028B0005D320008BB710008BB710008BB710008E5
:1028C000BB710008BB710008BB710008BB71000838
:1028D000BB7100080B7C0008877E0008AD800008F3
:1028E000F1900008D98A000839910008DFF80CD06F
:1028F00011F09EFB00480047C13000084837002017
:1029000000BFF748006800F4E060F6490843001D86
:10291000F3490860BFF3408F00BF00BFFEE730B54A
:102920000246F148C06940F00100EF49C861EF4834
:10293000B2FBF0F0401E8904088540F2E73088853C
:10294000002008808880012088811C200C2100281C
:1029500008DA0B071D0EE24B0C3300F00F04241FA6
:102960001D5503E00B071C0EE14B1C5400BF1C203F
:102970000121814043094FF0E02404EB8303C3F8B5
:10298000001100BF4FF08040008840F001004FF080
:102990008041088030BD10B504F080FC012004F0B7
:1029A000FFFC01F07DFED348006820F47040D1495F
:1029B00008600846006840F48050086000F042FF5C
:1029C0000FF064FD4FF4E131CB48006805F01AF8D0
:1029D0000EF093FDC849096848084FF4165105F0F8
:1029E0009DF9C549096848084FF4E13105F074FACA
:1029F00003F01EF9C0480068FFF791FF06F04FF89A
:102A0000441C204606F03EF80AF0A6FF10BD10B5A3
:102A100004F0EBFCB448C069B8490840B249C86149
:102A20000846806920F4A440886100F011FF0AF094
:102A300092FF10BD38B5002400250020B049087071
:102A4000B0A001234FF4FA620090B0480168B0488A
:102A500000680DF08FFE0020AE490880A3E0641CE2
:102A60000020AD490860FFF7D2FF0221012005F0E8
:102A7000BBFFA048001D006810F0080F02D0681CC2
:102A8000C5B200E000259B48001D006810F0080F4B
:102A900009D1A2480068A2490968401AA149B1F8C1
:102AA0007810884201D2032D09DB01209E4908706D
:102AB0009A4800689A49086001F061F974E09B48FF
:102AC000008810F4006F03D09948007800B16BE0E3
:102AD0000CF0FDFC00B967E0002000F0EDFD8F4830
:102AE000006803F0B6F90BF031FD9248407F00B169
:102AF0005AE08A48006890490968401AB0F5167F84
:102B000027D304F0CBFB012004F04AFC0FF0BEFCFD
:102B10004FF4E1317848006804F074FF76490968A1
:102B200048084FF4E13105F0D7F90AF014FF7B486B
:102B30000068814908600DF0C0FE4FF480717F4845
:102B400002F0BDF90CF0C3FC10B10AF004FF00E084
:102B50002AE07248006801F075FE01F0A1FD02E074
:102B6000002001F08FFC764800780028F8D01E2065
:102B7000B4FBF0F100FB1140A8B97248006850B9ED
:102B800007200FF002FE012802D004F005FA0AE047
:102B90000FF00AFE07E06420B4FBF0F100FB1140E7
:102BA00008B904F0F9F95AE700BFFFF7F4FE012075
:102BB0005349087038BD1FB504460DF00EFA594A46
:102BC0006632A2F12001A1F110000DF0FFF920788A
:102BD00068B15DA003234FF47A7200904B480168FE
:102BE0005CA00DF0C7FD10B906200DF010FA04F03E
:102BF0006BF95B495B4810F023F8C3E100204649BC
:102C000008604648006803F024F94448006801F071
:102C100019FE0DF002FA5448007848B10CF0C9FCD6
:102C20000AF027FF0DF01AFC3C48006802F040FA59
:102C30000CF0E8F80CF0DEFB38B14C48007820B915
:102C40000AF0FCFE08B904F051F903F051FD02F05E
:102C5000FFFF3248006801F015FC3048006802F0C0
:102C600027FA4348007880B142492E48123010F0CC
:102C700068F950B900203E49087001203E490870AB
:102C80003C492848123010F0A6F90DF0C3F9062887
:102C900024D1364800780028FAD13348007800283B
:102CA0001DD03648007838B91C48006822490968A8
:102CB000401AB0F5167F63D3184800681E490860B3
:102CC0000DF0FBFD4FF480711C4802F0F8F82B4822
:102CD0000078002802D0002028490870ADE07DE08F
:102CE0000CED00E00000FA050010024040420F0029
:102CF00000E400E0040C014030020020FCFFFDFF76
:102D00000F0100204154480D00000000B8030020CE
:102D1000B40300200001002054020020040300201E
:102D200004010020580400200E0100208001002032
:102D300084010020DC280020080100200000002081
:102D4000490100201404002041542B435245473FC1
:102D50000D0000002B435245473A20302C31000033
:102D6000C0D401004C040020BC030020A5030020B7
:102D70002B030020842900202C0300205403002072
:102D80000CF038FB002858D00AF058FE002854D127
:102D90000BF0C4FB002850D1FA48006888B9FA4803
:102DA000006810F0080F0CD1F848007848B9F848CE
:102DB000007830B903F08EFC18B9F6480FF04BFFDD
:102DC000D8B30CF013F8C0B30EF0CEF818B9012048
:102DD000F149087031E00DF0B2FC2EE0EF480078C8
:102DE00010B90BF09BFB10B10EF0C5F825E0EC48D4
:102DF0000FF031FF08BBE5480078F0B9E4480078EF
:102E0000D8B903F067FCC0B9E2480FF024FFA0B9BD
:102E1000E4480068E4490968401AB0F5167F0AD210
:102E20000CF0E8FA38B1D748006830B9D6480068E5
:102E300010F0080F01D10EF09EF8DC48007818B1B0
:102E40000220DB49087002E00120D9490870CE4811
:102E5000006810F0080F09D0D2480068D549096809
:102E6000401AD549B1F8761088420ED2C64800689B
:102E700010F0080F0FD1CB480068CE490968401AFE
:102E8000CD49B1F87810884205D3C6480068C949D1
:102E9000086000F074FF01A80FF0DDFE58B94FF490
:102EA0007A7101A80FF0CCFE0BF050FB00F008FD8A
:102EB000002000F001FCC148007A50B10021BF4859
:102EC000017200F05CFF0120BD4908700020BD497F
:102ED000087003F0FFFB10B90AF0B0FD18B1BA4951
:102EE000BA480FF0ADFE00F0CCFCA748006810F027
:102EF000080F04D14FF49221B5480FF0CEF8A24844
:102F0000006810F0080F3DD1B2480078C8BB9D485A
:102F10000068B0BB0CF06EFA98B30AF08FFD80BB6E
:102F200003F0D8FB68BB9948007850BB98480078FC
:102F300038BB0BF0F3FA20BB9848007808BB9B48DD
:102F40000078F0B1A4480078D8B9A4480078C0B996
:102F500090480FF080FEA0B99A48007828B99848A8
:102F6000007870B99748007858B9002095490870E2
:102F70000DF050F8062801D101202070012004B086
:102F800010BDFFE791480FF066FE28B194480FF09E
:102F900062FE00287FF432AE0DF03CF8062801D125
:102FA000012020700020EAE708B50020009002F020
:102FB000FDF80CF011FA01F031FC02F03FFF0120A6
:102FC000884908601CE086480FF045FE18B986491C
:102FD00083480FF035FE6846FFF7EDFD20B96A48DB
:102FE000006810F0080F0BD16748006810F0080F58
:102FF00004D14FF4922176480FF04FF8FFF71AFDF5
:10300000E1E710B562B604F049F9012004F0C8F90F
:103010003D20764988614FF000707549486005F0A1
:1030200035FE05F023FF7348006820F00F0071495A
:1030300008600846006840F00100086088156D4986
:10304000103108605048001F006820F470404E495D
:10305000091F08600846006840F48050086000F0CE
:10306000F1FB00F0E3FA03F097FF01F019FB0FF01A
:103070000DFA02F017FE4FF4E1315F48006804F0EA
:10308000C1FC0EF03AFA5C49096848084FF4165141
:1030900004F044FE5849096848084FF4E13104F04F
:1030A0001BFF56A004F0EBFF5BA004F0E8FF02F06A
:1030B000BFFD02F0A0FF50480068FFF730FC10BDD4
:1030C00045F2555004F07EFC042004F07EFC40F6EE
:1030D000B83004F07DFC04F07EFC04F081FC00209C
:1030E00004F070FCFFF78DFF00F04CF900F0BCFB22
:1030F0004FF47A7127480FF0A3FD01E0FFF754FF6A
:10310000FCE708B50CF069FF2B4A6632A2F12001FA
:10311000A1F110000CF05AFF0CF05EF990E00CF0F9
:103120007CFF0CF046FA0DF099F90CF073FF0628BD
:1031300027D125E069463E480FF084FC80B900BFE6
:103140003C48008810F0800FFAD002200FF06CFD90
:103150009DF800003749091D088002200FF064FD2A
:10316000694635480FF06EFC50B900BF33480088FF
:1031700010F0800FFAD09DF800003049091D08803A
:10318000D8E75DE02C010020080C0140560100202A
:103190005501002034040020B00300205403002017
:1031A000901300200403002008010020BC0300202D
:1031B0006C0100200401002058040020F0050020CC
:1031C0000C0100200D010020C0D401004C0400209F
:1031D000240C002034010020A50300200C02002054
:1031E000400400204C020020005C26050010024034
:1031F0000000014004080140300200207468696545
:103200006E686169626C756540616D706D2E636F8B
:103210006D2E766E0D0A0000313330204E677579C1
:10322000656E204D696E6820486F616E670D0A00FB
:103230009C1B0020004800404C200020003801402A
:103240006DE708B503E09DF8000004F0F4FE694660
:1032500017480FF0F7FB0028F5D008BD10B54FF068
:103260008040008A10F0010F21D04FF6FE704FF021
:10327000804108820F480068401C0E490860FFF733
:10328000E0FF0C4800683221B0FBF1F201FB1200B4
:1032900018B90848006802F0E5FE06480068642195
:1032A000B0FBF1F201FB120008B903F079FE10BD8A
:1032B0004C2000201001002010B54FF4C172BC4911
:1032C000BC480FF00EFE10BD2DE9F0474FF4C1725F
:1032D000B849B7480FF072FE08B9BDE8F08772B67A
:1032E000DFF8D0920025002404E019F8040005441A
:1032F000601C04B2B4F5BF7FF7D3AE48C0F87E516E
:1033000004F0A1F800240DE0A94901EB842004F0A9
:10331000DFF80746042F03D004F0A1F862B6DCE71B
:10332000601C04B2002CEFD0A24E00241BE0A0468B
:10333000E21704EB9272921056F822109C4AA018E1
:1033400004F096F90746E11704EB9171891056F8DD
:103350002110974AA258914203D004F080F862B637
:10336000BBE7201D04B2B4F5C17FE0D304F077F8C9
:1033700062B605F094FB00F10308404605F082FBBD
:1033800000BFAAE72DE9F041002600254FF4C172E5
:10339000874988480FF0A5FD864F00BF002403E051
:1033A000385D0544601C04B2B4F5BF7FF8D3814892
:1033B000D0F87E01A84206D0FF224FF4C1717D48AB
:1033C0000FF0A1FD01267B480088B0F5C17F04D035
:1033D0004FF4C1707749088001267648807CFF2829
:1033E00003D1012600207349887472488078FF2831
:1033F00005D171A16F48801C0FF0EDFD01266D48CD
:1034000090F82400FF2805D16DA16A4824300FF000
:10341000E2FD01266748B0F87600A0F57F41FF394C
:1034200004D11E206349A1F8760001266148B0F856
:103430007800A0F57F41FF3905D14FF4E1605D4987
:10344000A1F8780001265B4890F83600FF2803D0E9
:10345000584890F8360070B95CA1564836300FF0E5
:10346000BAFD54485BA1097880F8461059A1097843
:1034700080F8661001264F4890F87A00FF280FD197
:1034800055A14C487A300FF0A6FD57A14948993014
:103490000FF0A1FD40F6D2704649A1F8B800012610
:1034A000444890F8BA00FF280AD153A14148BA30E5
:1034B0000FF091FD50A13F48D9300FF08CFD01264F
:1034C0003C4890F8F800FF2805D14FA13948F83062
:1034D0000FF081FD0126374890F81701FF2804D12D
:1034E0004BA14E480FF077FD0126324890F8360187
:1034F000FF2805D14AA149481F300FF06CFD012675
:103500002C4890F86601FF2805D12A4831A1097896
:1035100080F866110126274890F87601FF2804D12B
:103520000820244981F876010126224890F8770185
:10353000FF2804D103201F4981F8770101261D4887
:1035400090F87801FF2804D128201A4981F87801E1
:1035500001261848D0F87901401C03D11549C1F85B
:1035600079010126134890F87D01FF2804D100203D
:10357000104981F87D0101260EB1FFF7A5FEBDE8D7
:10358000F08110B5014600230C4600BF002203E085
:10359000A05C0344501C02B2B2F5BF7FF8D3D1F84F
:1035A0007E01984201D0002010BD0120FCE7000000
:1035B00000F8010858040020322E3932350000008E
:1035C000424753325F47543130313000696E746581
:1035D000726E6574000000003231312E32312E32AD
:1035E00030342E31390000003231312E32312E325A
:1035F00030342E32330000003131382E36392E3639
:10360000302E31373400000047543130323500005D
:103610003039313338313237373700006F05002009
:1036200030393738373739323232000000218B4A8F
:103630001160002017E0002200EB80038749091D7C
:1036400019444A7000EB80038449091DCA5400EBF9
:10365000800319448A7000EB80038049091D1944D6
:10366000CA70411CC8B20428E5DB7D49096821F411
:1036700070417B4A11601146096841F400411160B4
:1036800077490C31096841F00801754A0C32116024
:103690007349096821F47021714A11601146096863
:1036A00041F4002111606E490C31096841F01001AC
:1036B0006B4A0C321160704710B5024667490968C1
:1036C000491C664B196000BF65490831096811F053
:1036D000080F06D019468979491CCBB25F498B7116
:1036E00005E05E49C979491CCBB25C49CB715C49A4
:1036F0000831096811F0100F06D05849C97A491CE1
:10370000CBB25649CB7205E05449097B491CCBB278
:1037100052490B7352490831096811F0200F06D045
:103720004E49097C491CCBB24C490B7405E04B490E
:10373000497C491CCBB249494B7449490831096855
:1037400011F0200F06D04549497D491CCBB24349B1
:103750004B7505E04149897D491CCBB23F498B75CA
:103760004049896811F0010F06D03C49897E491C07
:10377000CBB23A498B7605E03849C97E491CCBB2B9
:103780003649CB7600205AE000EB80033349091D0F
:103790001944897801290ED100EB80032F49091DB6
:1037A0001944C97839B9012300EB80042B49091D5C
:1037B00021444B7015E000EB80032849091D194492
:1037C000897871B900EB80032449091D1944C9782F
:1037D000012906D1002300EB80042049091D214462
:1037E0004B70002300EB80041C49091D21448B70A1
:1037F00000EB80041949091D2144CB7000EB8003C4
:103800001649091D19444B7800EB80041349091D22
:10381000095D8B4211D0012300EB80040F49091D83
:1038200021440B7100EB80030C49091D19444B78AE
:1038300000EB80040949091D0B55411CC8B205283D
:10384000A2DB10BD4FF400600549103108607047DD
:103850004FF400600249143108607047F005002001
:10386000000C01400010014010B5FD480EF081FB36
:1038700010BD0020FB49087070470120F94908700D
:10388000704710B5F8480068F7494968884215D074
:10389000F648006890B9F64890F8670028B1002013
:1038A000F34981F867000EF0C1FCF1480EF016FDF7
:1038B00020B9EF48ED490860002010BD0120FCE769
:1038C0002DE9FC5F4FF0000AEA480068401CE94916
:1038D00008600EF085FAE849684609F04BFF684633
:1038E00009F07AFE8346E448806A012803D0E24862
:1038F000806A02280DD1E048D0F89800002874D0E2
:10390000DD48D0F89C0000286FD0584609F0B9FE79
:103910006BE0D948806A032867D1D748406871288E
:1039200063DBD548406A00285FDDD3480022134698
:10393000D0E91A51284610F011F956D0CE49D1E9F4
:103940001C5100221346284610F008F94DD0CA48F1
:103950000022CA4BD0E91A51284610F0FFF808D9C6
:10396000C549D1E91A510022C54B284610F00AF981
:103970003BD8C1480022C34BD0E91C51284610F067
:10398000EDF808D9BC49D1E91C510022BE4B2846AC
:1039900010F0F8F829D8BD4991F8780110F090F8A6
:1039A0000546B5488030D0E900733A46284610F005
:1039B000D5F80ED8B6480FF04EF950B947F230514D
:1039C000B3480FF03DF9B348006840F40070B149C6
:1039D00008600120B04908704FF4C872A649AF488A
:1039E0000FF07FFA584609F04CFEA24800681E21ED
:1039F000B0FBF1F201FB120000283ED1A748806A1B
:103A000003283AD1A4480078B8B30020A24908702E
:103A1000A248D0E91A2110460EF0FEFAA04908602B
:103A20009E49D1E91C2110460EF0F6FA9D49086026
:103A30009A49D1E90E2110460EF0EEFA9A49086033
:103A400096488830D0E9002110460EF0E5FA9749F3
:103A500008604FF48C2192480EF01FFB4FF48E212A
:103A600090480EF01AFB4FF490218F480EF015FB92
:103A70004FF492218D480EF010FB8D4801688D485F
:103A800009F0B3FE7C498031D1E90021104610F0E5
:103A90008DF881468849484610F0A4F826D3764828
:103AA000806A032822DB744840686F281EDB724856
:103AB000406A01281ADB7049D1E91A5100221346E5
:103AC000284610F04BF811D06B4800221346D0E97D
:103AD0001C51284610F042F808D0674800221346CF
:103AE000D0E90E51284610F039F801D14FF0000905
:103AF0007248C0F8109001460868002110F072F872
:103B00000ED16E490869002110F06CF808D101242B
:103B100004E00020694941F82400641C042CF8D317
:103B2000012407E0654850F82410601E634A42F8FB
:103B30002010641C052CF5D36048D0F80090CA46CC
:103B40005F4950460FF0E6FD05465E48016828468D
:103B50000FF052FD5B4908605B48007800287DD07B
:103B6000002059490870534809F036FD3C49086067
:103B7000002081F866005549554800680FF094FD13
:103B800005460FF0AAFF3649A1F858004F495148A1
:103B900000680FF089FD05460FF09FFF3049A1F83E
:103BA0005A003E49D1E91A012D4A506091603B48C4
:103BB000D0E91C10D16010613848D0E90E211046C0
:103BC0000FF0F4FF264948613448D0E91A10244A1E
:103BD000116250623148D0E91C109162D0622F48C6
:103BE000D0E90E2110460FF0E1FF1D490863084699
:103BF000C0F818A00020886328498831D1E9002145
:103C000010460FF0D3FF1649C8610020486488644D
:103C1000A1F85C00A1F85E00A1F86000A1F86200C4
:103C2000A1F864002748006848632B4800680864CE
:103C30000020C8632948007881F869002848006896
:103C40000FF04BFF064981F86A000020A1F85600EA
:103C5000124890F8980081F8680043E08DE0000079
:103C60005832002018010020383300202C01002099
:103C70002406002020010020282F0020008056402C
:103C8000008056C000806640008066C05804002056
:103C9000940600208001002028010020B830002078
:103CA000DC0B0020E80B0020F40B0020000C0020AF
:103CB00004030020180300200000A040100600208C
:103CC00000006145300100203401002000007A44EA
:103CD000380100203C01002044020020280300207D
:103CE000C00300200020A1F85600FE48006810F034
:103CF000080F06D00846B0F8560040F00100A1F8C1
:103D00005600F848006810F0100F07D0F648B0F8D9
:103D1000560040F00200F449A1F85600F14800684E
:103D200010F0200F07D0F048B0F8560040F0040023
:103D3000ED49A1F85600EB48006810F0200F07D0BD
:103D4000E948B0F8560040F00800E749A1F85600ED
:103D5000E448006810F0080F0CD1E44950460FF019
:103D60004BFF07D2E048B0F8560040F01000DE49A3
:103D7000A1F85600DC480EF0F4FABDE8FC9F0120E3
:103D8000DB490870704710B502460B460020002141
:103D900003E0545C0444E0B2491C9942F9D310BDDD
:103DA0002DE9F04FD1B004468946924600208DF8A7
:103DB000380089F80000216804A809F016FDCDA19B
:103DC0000EA80FF0B2F8CD490EA80FF0AEF8002201
:103DD000CBA106A810F002FB06A90EA80FF0A5F8CB
:103DE0009DF9170000909DF916309DF91520C6A188
:103DF00006A810F0F3FA06A90EA80FF096F8BDF980
:103E00001000642190FBF1F201FB12079DF91300F1
:103E100000909DF912303A46BBA106A810F0DEFAD8
:103E200006A90EA80FF081F86768A1680022134662
:103E300038460FF093FE0BD06768A3683A46B6A1E8
:103E400006A810F0CBFA06A90EA80FF06EF803E052
:103E5000B3A10EA80FF069F8E768216900221346A4
:103E600038460FF07BFE0BD0E76823693A46AAA1DB
:103E700006A810F0B3FA06A90EA80FF056F803E052
:103E8000A7A10EA80FF051F8A5A10EA80FF04DF8AC
:103E9000A4A10EA80FF049F8A2A10EA80FF045F8B2
:103EA000A0A10EA80FF041F894F8560010F0100FE2
:103EB00004D09DA10EA80FF038F803E099A10EA838
:103EC0000FF033F894F8560010F0200F04D096A1AC
:103ED0000EA80FF02AF803E092A10EA80FF025F823
:103EE00094F8560010F0400F04D08FA10EA80FF0E8
:103EF0001CF803E08BA10EA80FF017F894F85600F9
:103F000010F0800F04D088A10EA80FF00EF803E087
:103F100084A10EA80FF009F8B4F858000FF0CBFDFB
:103F200082490860084600680FF004FE05460E4608
:103F3000284631460FF0E5FD4F904F980FF0C0FD39
:103F40002A463346CDE900010FF0C8FC074600229F
:103F5000774B0FF0C6FCCDE902010FF0D2FD4E9079
:103F600074A106A84E9B4F9A10F038FA06A90EA825
:103F70000EF0DBFFE06B0FF0DDFD05460E46284638
:103F800031460FF0BEFD4F904F980FF099FD2A4635
:103F90003346CDE900010FF0A1FC0022644BCDE9CE
:103FA00002010FF09EFC07460FF0ABFD4E9061A1A1
:103FB00006A84E9B4F9A10F011FA06A90EA80EF013
:103FC000B4FF226C5EA106A810F008FA06A90EA89C
:103FD0000EF0ABFF52A10EA80EF0A7FF51A10EA844
:103FE0000EF0A3FFB4F8560010F4007F04D04EA1E9
:103FF0000EA80EF09AFF03E04AA10EA80EF095FF5E
:10400000B4F8560010F4807F04D047A10EA80EF03B
:104010008CFF03E043A10EA80EF087FF94F8560032
:1040200010F0080F04D03FA10EA80EF07EFF03E0B1
:104030003DA10EA80EF079FF94F8560010F0040F81
:1040400004D039A10EA80EF070FF03E035A10EA830
:104050000EF06BFF94F8560010F0020F04D031A15F
:104060000EA80EF062FF03E02FA10EA80EF05DFF78
:1040700094F8560010F0010F04D02AA10EA80EF0FB
:1040800054FF03E028A10EA80EF04FFFA0690FF027
:1040900051FD05460E46284631460FF032FD4F9041
:1040A0004F980FF00DFD07462A4633460FF016FCD9
:1040B0000022244BCDE900010FF013FCCDE90201F1
:1040C0000FF01FFD4E9020A106A84E9B4F9A10F0B6
:1040D00085F906A90EA80EF028FFE0690FF02AFD69
:1040E000054635E0080C01405832002000007041C0
:1040F000340100202C41422C000000007C040020F0
:104100002C253033640000002C25303264253032F9
:1041100064253032640000002C252E30366C660099
:104120002C30000030000000310000001C01002095
:10413000000059402C25642E253032640000000018
:104140002C256400000024402C25642E25640000EA
:104150000E46284631460FF0D4FC4F904F980FF092
:10416000AFFC07462A4633460FF0B8FB0022B34B9C
:10417000CDE900010FF0B5FBCDE902010FF0C1FC64
:104180004E90AFF23C0106A84E9B4F9A10F026F9D4
:1041900006A90EA80EF0C9FEA06B0FF0CBFC0546D9
:1041A0000E46284631460FF0ACFC4F904F980FF06A
:1041B00087FC07462A4633460FF090FB00229F4BB0
:1041C000CDE900010FF08DFBCDE902010FF099FC64
:1041D0004E90AFF28C0106A84E9B4F9A10F0FEF85D
:1041E00006A90EA80EF0A1FE606B0FF076FC074644
:1041F0003A46AFF2B40106A810F0F0F806A90EA8EE
:104200000EF093FEAFF2E8010EA80EF08EFE94F8C9
:104210006820AFF2D40106A810F0E0F806A90EA8B5
:104220000EF083FE86A10EA80EF07FFE85A10EA8DB
:104230000EF07BFE82A10EA80EF077FE82A10EA8E2
:104240000EF073FE276A616A0022134638460FF0AB
:1042500085FC0CD0276A636A3A46AFF2441106A87F
:1042600010F0BCF806A90EA80EF05FFE04E0AFF255
:1042700050110EA80EF059FEA76AE16A00221346FB
:1042800038460FF06BFC0CD0A76AE36A3A46AFF2EF
:10429000781106A810F0A2F806A90EA80EF045FEA7
:1042A00004E0AFF284110EA80EF03FFE94F86A20ED
:1042B000AFF2741106A810F091F806A90EA80EF03E
:1042C00034FE94F8560010F0200F05D0206B0FF04C
:1042D00031FC05460E4604E060690FF02BFC0546F4
:1042E0000E46284631460FF00CFC4F904F980FF0C9
:1042F000E7FB2A463346CDE900010FF0EFFA074607
:104300000022534B0FF0EDFACDE902010FF0F9FB5B
:104310004E90AFF2E01106A84E9B4F9A10F05EF857
:1043200006A90EA80EF001FE94F86920AFF2F01174
:1043300006A810F053F806A90EA80EF0F6FDB4F882
:1043400058000FF0B8FB434903900FF0E3F98346A0
:104350000FF0F0FB07463A460B463FA106A810F0C7
:104360003DF806A90EA80EF0E0FDA06C4FF46161C7
:10437000B0FBF1F201FB12003C21B0FBF1F7A06CA5
:104380004FF46161B0FBF1F83B46424634A106A808
:1043900010F024F806A90EA80EF0C7FD606C4FF4CB
:1043A0006161B0FBF1F201FB12003C21B0FBF1F7BF
:1043B000606C4FF46161B0FBF1F83B4642462BA1C3
:1043C00006A810F00BF806A90EA80EF0AEFD2AA163
:1043D00048460EF0AAFD0EA80EF0D1FD07463A465B
:1043E000AFF2A42106A80FF0F9FF06A948460EF087
:1043F0009CFD0EA948460EF098FD48460EF0BFFD04
:10440000804641464846FFF7BEFC07463A46AFF2B3
:10441000C42106A80FF0E2FF06A948460EF085FD6C
:1044200017A148460EF081FD48460EF0A8FDAAF8F7
:104430000000002051B0BDE8F08F7047000024401C
:104440002C000000312E3000322E393235000000B1
:104450000000594000007A442C25322E33660000BB
:104460002C25303264253032640000002C25303297
:1044700064253032642C00002441545A00000000AE
:104480000D0A00002DE9F04F87B0CF48B0F84E007C
:1044900000287DD00020CD49086048608860CC4964
:1044A00008603DE0C849CA48006831F91010C64AA2
:1044B000C7480068C01C32F91000A0F2D150081A99
:1044C000C24909680844C14908601146C0480068EB
:1044D000401C31F91010BE480068C01C32F91000B1
:1044E000A0F2D150081AB94949680844B749486050
:1044F0001146B7480068801C31F91010B4480068B4
:10450000C01C32F91000A0F2D150081AAF498968D6
:104510000844AE498860AE480068001DAC49086098
:10452000AB4800682828BDD30020A749A1F84E0059
:10453000A64800680A2190FBF1F0A44908600846EB
:1045400040680A2190FBF1F0A04948600846806865
:104550000A2190FBF1F09D49886008680FF0A2FAEB
:1045600001900FF0E7FA9B4A9B4BCDE902010FF057
:10457000B8F980468946994800680FF0DBFA824610
:1045800042464B460FF006F906464FF0663200E011
:1045900076E0934B0FF0FEF800224FF08043CDE918
:1045A00004010FF010FA04460FF000FB8B4908607D
:1045B000864948680FF076FA03900FF0BBFA854AF7
:1045C000854BCDE904010FF08CF982468B46854876
:1045D00000680FF0AFFA064652465B460FF0DAF875
:1045E000804600224FF080430FF0EDF904460FF0B3
:1045F000DDFA7C490860754988680FF053FA01902C
:104600000FF098FA80464FF06632774B0FF069F959
:104610000022764BCDE902010FF0D5F906460F4690
:10462000734800680FF086FA32463B46CDE9040134
:104630000FF0B0F8044600224FF080430FF0C3F9AA
:1046400082460FF0B3FA6A490860084600680FF026
:1046500071FA0646674A684B0FF040F98246674A8E
:10466000674B0FF0B0F904460022664B0FF092F84A
:1046700080460FF09BFA6449086001206349087086
:1046800007B0BDE8F08F10B50021012005F0CDFB8B
:104690005F4805F045F800204B49A1F84E0010BDD9
:1046A00000B591B00320ADF8000000208DF80300A4
:1046B0006946584804F0C0FDFFF7E5FF01210846B0
:1046C00005F0B3FB01214FF4027005F0BBFB52482B
:1046D00004F0FEFE4E484C3001903B480290002012
:1046E0000390282004900020059080200690400030
:1046F0000790800008902020099000020A90002076
:104700000B9001A9444804F085FF00200C90012083
:104710008DF834008DF835004FF460200E900020A5
:104720000F9004208DF840000CA9394805F01FF8BF
:10473000022301220921364805F0B1F802231A4666
:104740000821334805F0ABF802230322102130483A
:1047500005F0A5F80223042211212D4805F09FF849
:1047600001212D4804F081FF0121294805F036F888
:104770000121274805F027F8012005F0B5F9244864
:1047800005F043F800BF224805F044F80028FAD1AC
:104790001F4805F049F800BF1D4805F04AF80028F9
:1047A000FAD101211A4805F04EF800BF022004F0AA
:1047B00077FF0028FAD0022004F085FF002013497B
:1047C000087011B000BD0000A0060020F006002017
:1047D00050010020EB51B81E852B703F380100209E
:1047E0006666E63F3C01002066660A400000B04075
:1047F00040010020E17A14AE47E1F63F22FDF67554
:10480000E09C713F00003940440100204901002034
:1048100000240140000C01400800024010B5FA4994
:10482000FA480EF00DFA4FF47A71F9480EF008FAD2
:104830004FF47A71F7480EF003FA1421F6480EF09F
:1048400069FB10BDFEB507460024F4480068F44932
:104850000968884226D0F2480068F0490860EE48AE
:10486000407C02281ED0EFA1F0480EF08FFBC8B1AB
:10487000ECA1EE480EF0AFFBFEF726FDE9A3EC4AF3
:10488000ECA110460FF0AAFDC4B2032047F230514C
:1048900002222346CDE900210290E54AE849DE489C
:1048A0000AF042FEE7480078F8B1DB48407C022875
:1048B0001BD00020E3490870DC4A1032E2A1DC483A
:1048C0000FF08CFDDA480EF05AFBC4B2032047F219
:1048D000305102222346CDE900210290D44AD84922
:1048E000CD480AF021FEFEF7EFFCCB48407C0228C1
:1048F00033D0DB48006880B3D94800684FF4616169
:10490000B0FBF1F0C949891E91F97611884224D093
:10491000D34800684FF46161B0FBF1F040B2C34985
:10492000891E81F87601084690F97621CDA1C0480C
:104930000FF054FDBE480EF022FBC4B2032047F234
:10494000305102222346CDE900210290B84ABC49E9
:10495000B1480AF0E9FDFEF7B7FCC948007848B94C
:10496000A949AA480EF06CF94FF47A71A9480EF0E3
:1049700067F91AE0A5480EF06EF988B1C148002227
:104980001346D0E91A5128460FF0E8F80DD1BD487A
:1049900000221346D0E91C5128460FF0DFF804D15D
:1049A0000020B9490870B6490870B848007820B9A5
:1049B000954997480EF044F918E095480EF04BF9E8
:1049C00088B1B049D1E91A510022134628460FF0A8
:1049D000C5F80BD1AB4800221346D0E91C5128463C
:1049E0000FF0BCF802D10020A8490870A748007851
:1049F000F8B18948407C02281BD00020A3490870E8
:104A0000A3480078A8B10020A1490870A1480EF081
:104A100063F9C4B26006040E032047F2305101224C
:104A20002346CDE9002102909A4A85497A480AF046
:104A30007BFDFEBD2DE9F04389B00646894600277F
:104A4000954901A80EF0A9F901A930460EF01BFA0C
:104A500005461DB300208C49087089490870012063
:104A60008A49087005F10C000EF036F9C4B26006F0
:104A7000040E9CB1A02C11D2A02186480EF04AFA57
:104A8000224605F10C0183480EF02BFA81480EF006
:104A900023F9804641467F480EF02EF9384609B08A
:104AA000BDE8F0832DE9F04F8DB0804689461E4663
:104AB0004FF0000A00200C9083464746774978481B
:104AC0000EF06BF900F0FF0A75480EF005F901468B
:104AD000029073480EF010F94FEA4A604FEA106AEC
:104AE00000250CE00EF0EAF90068795D405C10F0FA
:104AF000080F03D0785D0EF0EEF978556D1C38463E
:104B00000EF03DFAA842EDD866A138460EF019FA2B
:104B10000446002C36D04A49654809F035FE68B194
:104B2000032047F2305101225346CDE90021029083
:104B30005B4A434938480AF0F7FC16E05DA15C483F
:104B400009F022FE68B1032047F23051012253469A
:104B5000CDE900210290524A5AA12F480AF0E4FC04
:104B600003E0FF200DB0BDE8F08F03AA58A1204656
:104B70000EF03AFA122203A92C4822300EF0B1F9B5
:104B80004FF0010B55A138460EF0DBF90446002C1E
:104B900038D02B49464809F0F7FD68B1032047F2A9
:104BA000305101225346CDE9002102903C4A24496C
:104BB00019480AF0B9FC14E03EA13D4809F0E4FDB3
:104BC00068B1032047F2305101225346CDE900215C
:104BD0000290334A3BA110480AF0A6FC01E0FF20F6
:104BE000C0E741A1164810300EF0F5F9FEF76CFB56
:104BF0002A4948460EF0EFF948460EF0C0F93060F9
:104C00000020AFE77AE00000E09304008008002075
:104C10008C080020980800202C0700205C01002050
:104C200004030020322E3932350000005A040020DF
:104C30004007002025733A56657225730A0000006C
:104C40008E0500202C0300204E657720494D4549F4
:104C500020697320557064617465643A257300009F
:104C60000C0300204E65772074696D657A6F6E6560
:104C700020697320557064617465643A256400008E
:104C800055010020B83000205401002056010020BA
:104C900057010020E0070020124E0108044E0108D1
:104CA0000C07002041424346472C31342C000000C1
:104CB000EC2900202B383439373837373932323243
:104CC0000000000038343937383737393232320093
:104CD00041424346472C31342C2573005246494407
:104CE0002052455345540000393939393939393959
:104CF000393939393939393900000000C2A138460B
:104D00000EF01FF90446002C43D0C249C24809F0F6
:104D10003BFD68B1032047F2305101225346CDE9F3
:104D200000210290BD4ABB49BD480AF0FDFB16E0D8
:104D3000AFF28001B84809F027FD70B1032047F2B7
:104D4000305101225346CDE900210290B34AAFF21F
:104D50008C01B3480AF0E8FB01E0FF2002E70DF008
:104D600052FAB04903A80EF036F9FF224FF4C17190
:104D7000AC4824380EF0C7F8FEF7A6FAFEF702FB9F
:104D800003A9A8480EF027F9FEF79EFA0120A649CC
:104D90000870A6A138460EF0D4F80446002C3AD08C
:104DA000AFF280139F4AA4A1A7480FF017FB00F0B1
:104DB000FF0A9849984809F0E7FC68B1032047F2D8
:104DC000305102225346CDE9002102909E4A91497A
:104DD00093480AF0A9FB16E0AFF228118E4809F0BB
:104DE000D3FC70B1032047F2305102225346CDE983
:104DF00000210290944AAFF2341189480AF094FBE2
:104E000001E0FF20AEE6914948460EF0E4F848463E
:104E10000EF0B5F830608EA138460EF092F80446D8
:104E2000002C45D07B497C4809F0AEFC68B10320DA
:104E300047F2305101225346CDE900210290774AD2
:104E4000744977480AF070FB16E0AFF29811724887
:104E500009F09AFC70B1032047F230510122534609
:104E6000CDE9002102906D4AAFF2A8116C480AF01A
:104E70005BFB01E0FF2075E6674800782B2805D131
:104E80006549491C75480EF0A6F803E0624973486D
:104E90000EF0A1F8724973480DF0D2FE6B494846F6
:104EA0000EF099F848460EF06AF83060002059E696
:104EB000BBF1000F01D0FEF707FAFF2052E62DE903
:104EC000F04192B006460F464FF4FA700DF0ACFE7A
:104ED00065A003234FF47A72009066480168664823
:104EE00000680BF047FC10B112B0BDE8F0814FF440
:104EF000FA700DF099FE61A0002340F6B8320090E0
:104F00005C4801685C4800680BF034FC42F21071A8
:104F10000CA80DF095FE4FF47A700DF085FE6AE056
:104F20000CA80DF098FE00B9DEE703A957480DF074
:104F300089FD10B99DF80C4000E061E003A95348D9
:104F40000DF080FD38B99DF80C004FF47F4101EA67
:104F50000020044300E053E000204D490870224641
:104F60004CA104A80FF03AFA04A80BF0F3FF40F6A6
:104F7000B8310FA80DF064FE04E00FA80DF06BFE31
:104F800000B903E0424800780028F6D000BF0020B6
:104F9000434981F8FF004FF47A700DF045FE41A0BF
:104FA00003234FF47A72CDE9000432480168324895
:104FB00000680BF0DFFB3648007800B91BE038488A
:104FC0000DF0DDFF85B2FF2D00D9FE25002034490C
:104FD00048550021324A681C11540020012102ABBF
:104FE0003A46CDE9001031462D48FFF75BFD80467B
:104FF000FEF76AF900BF25480DF03BFD02288FDA65
:1050000000BF00BF70E700002A4338383A38382321
:10501000000000008E050020EC2900200C07002075
:105020002C0700207C040020150100202A43333087
:105030003A3330230000000049443A25732C56656A
:10504000723A25730000000040070020044E01085A
:10505000475431303235465755440000FC06002095
:10506000C02709003404002041542B434D47463DDE
:10507000310D0000B8030020B403002041542B433D
:105080004D474C3D22414C4C220D0000DC290020B4
:105090005703002041542B434D47523D25640D00DA
:1050A000FC29002041542B434D47443D25640D000D
:1050B00070B5C4B00646002408F0C0FC012849D1F0
:1050C0002648C079002845D02548407C022841D098
:1050D000012024490870214981F8230022490870E1
:1050E0000020224908702248416F006FCDE902017B
:1050F0001F48C16E806E1F4ACDE900011EA104A8A1
:105100000FF06CF984B204A926480DF046FE84B273
:1051100024480DF0E1FD0546294622480DF0ECFD3E
:105120004FF6FF7000EA44041F490C480D3009F0A7
:105130002BFB68B1032047F230510122E3B2CDE9E5
:1051400000210290174A184905480AF0EDF901E0DC
:1051500044B070BD00BFFBE770470000DC280020B2
:10516000A408002057010020550100205401002010
:10517000B8300020194E01082573210A6874747034
:105180003A2F2F6D6170732E676F6F676C652E639A
:105190006F6D2F6D6170733F713D252E36662C2526
:1051A0002E366600B80800208E0500201CB56C461F
:1051B00004226946F7480DF08AFAF749206808602A
:1051C00008460068B0F1A53F33D104226946F14892
:1051D000001D0DF07CFAF14920680860084600685F
:1051E000B0F1006F07D30020ED490860EB4908607B
:1051F000EC49086026E004226946E64808300DF0D4
:1052000066FAE9492068086008460068401C0AD12F
:10521000E1490860E2490860E4490860DF49086044
:10522000E04908601CBD0020E0490860DC490860D6
:1052300008E00020DA490860DC490860D7490860C6
:10524000D849086000BFEDE710B54FF48072D84927
:10525000D8480DF0D3FB4FF47A71D7480DF0F0FC2D
:1052600010BD0FB438B505A80090D448009A049931
:105270000FF0C8F8054600200090FF2D00D3FF2551
:10528000002400E0641CAC42FCD3002038BC5DF874
:1052900014FB10B502460B460020002103E0545CCD
:1052A0000444E0B2491C9942F9D310BD2DE9F04FF6
:1052B00089B007460C4615469846DDF848B0C04808
:1052C000007820B10020387109B0BDE8F08F0120CE
:1052D000BB49087038790C2850D007DC07287DD2EC
:1052E000DFE800F011383C7C40444800122876D0BA
:1052F00004DC0D2874D0112870D1E4E1FD2870D0B1
:10530000FE28F9D1FAE3AF48007810B3BBF1000FE3
:105310001FD00020039006E00398401C03900398E0
:10532000404500D306E003982918A2480DF08AFBF7
:105330000028F1D000BF039858B103202071CA2083
:10534000207003986080A5606188A068FFF7A1FFC6
:105350002073F3E300209B490870EFE30120994993
:105360000870EBE3022097490870E7E303209549B2
:105370000870E3E3042093490870DFE3B86800781D
:1053800000900098B968497840EA012000900098A0
:10539000B968897840EA014000900098B968C978F6
:1053A00040EA01600090B8680079ADF80400BDF8EB
:1053B0000400B968497940EA0120ADF80400B868F2
:1053C000001D02900098B0F1A53F33D14FF4C17099
:1053D0000390CA2020700C20207103E0ADE380E12F
:1053E0008FE05AE360806E4630782870707868707D
:1053F000B078A870F078E8704FF4C170039003AEF5
:105400003078287170786871B078A871F078E87198
:10541000CDF80C8000BF3078287270786872B07850
:10542000A872F078E872A5606188A068FFF731FF84
:10543000207365E00098B0F15A3F15D1CA20207062
:105440000C202071042060806E46307828707078BF
:105450006870B078A870F078E870A5606188A0687E
:10546000FFF717FF20734BE0BDF8041000980844C5
:10547000B0F5C17F2CD8BDF80400404528D852496A
:10548000009846180020039006E00398315C001D48
:1054900029540398401C0390BDF8040003998842E6
:1054A000F3D80398001D6080CA2020700C20207162
:1054B0006E463078287070786870B078A870F07890
:1054C000E870A5606188A068FFF7E3FE207317E02D
:1054D0004FF0FF300090CA2020700C202071042073
:1054E00060806E463078287070786870B078A870E8
:1054F000F078E870A5606188A068FFF7CAFE2073A5
:105500001CE3B868007800900098B968497840EAD0
:10551000012000900098B968897840EA0140009025
:105520000098B968C97840EA01600090B868001D29
:1055300002900098B0F1A53F48D1CA2020700D20FC
:1055400020710C2060806E4630782870707868700A
:10555000B078A870F078E8704FF4C170039003AE93
:105560003078287170786871B078A871F078E87137
:10557000CDF80C8000BF3078287270786872B078EF
:10558000A872F078E872A5606188A068FFF781FED4
:10559000207397E0041002006801002074010020CD
:1055A0007801002064010020700100207C010020AF
:1055B000640A0020640B0020580A002058090020CB
:1055C0006D0100206C0100205804002079880098AB
:1055D0000844001FB0F5C17F5CD8FD49009846180B
:1055E0000020039006E0DDE90201405C705403985E
:1055F000401C03907888001F03998842F3D80399D0
:105600000098084400900098B0F5C17F17D3FDF7CB
:105610005BFECA2020700D202071042060806E4641
:105620003078287070786870B078A870F078E8707A
:10563000A5606188A068FFF72CFE20737EE2C8F5A4
:10564000C1710098884204D90098C0F5C1700390D8
:1056500001E0CDF80C8008206080CA2020700D2069
:1056600020716E463078287070786870B078A870B5
:10567000F078E87003AE3078287170786871B0788F
:10568000A871F078E871A5606188A068FFF701FE55
:10569000207317E04FF0FF300090CA2020700D20DB
:1056A0002071042060806E463078287070786870B1
:1056B000B078A870F078E870A5606188A068FFF7FE
:1056C000E8FD20733AE2CA202070112020710520E5
:1056D0006080C0A0A0606188A068FFF7DAFD207339
:1056E0002CE2B868007800900098B968497840EAE0
:1056F000012000900098B968897840EA0140009044
:105700000098B968C97840EA01600090B868001D47
:1057100002900098B0F1A53F7ED1B049B0480DF09D
:105720008FFA4FF0A530AF4908600020AE490860FD
:1057300002980078AD49086002984078096841EA0B
:105740000020AA49086002988078096841EA004070
:10575000A64908600298C078096841EA0060A34938
:10576000086002980079A2490860029840790968A7
:1057700041EA00209E49086002988079096841EA60
:1057800000409B4908600298C079096841EA0060BE
:105790009749086001214FF404300CF0D4FE934E79
:1057A0000422314693480CF069FF4FF0A530039076
:1057B00003AE042231468F48001F0CF05FFF8C4E71
:1057C000042231468B48001D0CF058FFCA2020707F
:1057D000122020710C2060806E463078287070781E
:1057E0006870B078A870F078E8708048006803901E
:1057F00003AE3078287170786871B078A871F0784D
:10580000E871CDF80C8000BF30782872707868722B
:10581000B078A872F07800E007E0E872A5606188CF
:10582000A068FFF736FD207336E16F4900980968DC
:10583000884251D1798800980844001F03906A4932
:10584000039808607888A0F1040AB8F1200F35D3D6
:10585000BAF1200F32D3002003902CE0DDE90223BF
:10586000D118009A02F50832D01820220CF006FF59
:10587000009901F50831039A8818202204A90CF038
:1058800026FF4FF0000910E0DDE902014944405CC9
:1058900004A911F80910884205D0574800685249F8
:1058A0000860CDF80CA009F10109B9F1200FEBD384
:1058B00003982030039003985045CFD34A4800689E
:1058C0004D490968401AB0F5805F05D34648006825
:1058D000000B0003484908604348006800904248B4
:1058E000006842490968884271D34FF0000A0020DD
:1058F000039005E0FF20039968540398401C03902F
:1059000003982028F6D3002003900CE0374909685B
:1059100001F50831039A8818202229460CF0AEFEC2
:105920000398203003900398B0F5806FEED30020E9
:10593000039024E020222946039800F508300CF05B
:10594000C6FE4FF000090CE0039848442749096857
:10595000884203D215F80900824400E004E009F10E
:105960000109B9F1200FEFD300BF039848441F4944
:105970000968884200D307E00398203003901B4950
:10598000039809688842D5D300BF1948006882454A
:105990004FD10220194908704FF05A301149086060
:1059A000009000201049086001214FF404300CF0F1
:1059B000CAFD0E4E042231460E480CF05FFE0C4E1E
:1059C000042231460B48001D0CF058FE18E04EE052
:1059D00058040020322E393235000000C02709005B
:1059E000580A00206801002078010020740100207E
:1059F00070010020081002007C0100201501002029
:105A00004FF40830039003AE0422314680480CF076
:105A100035FE4FF05A30039000BF042231467C48D7
:105A20000C380CF02BFE01214FF486200CF08BFD7E
:105A30001DE04FF0A53077490860002000907649BE
:105A4000086001214FF404300CF07DFD734E0422F8
:105A500031466F4808380CF011FE4FF0A530039026
:105A600003AE042231466A480C380CF007FECA2007
:105A7000207012202071042060806E4630782870DB
:105A800070786870B078A870F078E870A560618868
:105A9000A068FFF7FEFB207350E0B8680078009024
:105AA0000098B968497840EA012000900098B968E8
:105AB000897840EA014000900098B968C97840EAC6
:105AC00001600090B868001D02900098B0F1A53FF9
:105AD00012D1534904A80DF07EFAFF224FF4C17190
:105AE0004F4824380DF00FFA04A94D480DF073FA11
:105AF000FDF7EAFB00F07FF820E0FFE7B8680078E8
:105B000000900098B968497840EA01200090009818
:105B1000B968897840EA014000900098B968C9786E
:105B200040EA01600090B868001D02900098B0F152
:105B3000A53F01D100F05FF800E000BF00BF0020EA
:105B400038713849087000BFFFF7BEBB10B5044676
:105B50002078062849D2DFE800F0480C1D213C03DC
:105B6000CA2A05D101202070002060806072E08088
:105B70003EE06088A37902FA03F318436080E0886E
:105B80000830E080E088102803DB0220207000202D
:105B9000E0802DE022720320207029E0E0886388F5
:105BA000984203DA6088A388984202DD05202070BD
:105BB0000EE0607A10446072E3888868C254E0881E
:105BC000401CE080E0886388984201D10420207066
:105BD0000EE005202070607A904205D160884880F0
:105BE000207A0871002010BD02E00520207000BF5F
:105BF00000BFFF20F7E70C48006800F4E0600B49A5
:105C00000843001D08490860BFF3408F00BFFEE74E
:105C100010100200680100207801002074010020AB
:105C20007C0400206D0100200CED00E00000FA056E
:105C300010B5FFF709FB0A2116480DF001F81648C8
:105C4000164988600520164908702420888010BDF8
:105C5000704770B504466088D8B1207802F0EBF93F
:105C6000A07802F0E8F9E07802F0E5F9207902F096
:105C7000E2F9002505E0A168485D02F0DCF9681C46
:105C800085B26088A842F6DC207B02F0D4F90020BF
:105C9000608070BDC40B0020940B0020740B0020AA
:105CA000B80B00202DE9F04153480CF062F94FF495
:105CB0008A2152480CF0C0F94FF48C2150480CF066
:105CC000BBF94FF48E214F480CF0B6F94FF49021F8
:105CD0004D480CF0B1F94FF492214C480CF0ACF95E
:105CE0004FF494214A480CF0A7F94FF49621494803
:105CF0000CF0A2F94FF4982147480CF09DF94FF4AD
:105D00009A2146480CF098F93D4804683D480568DA
:105D1000002120460DF066FF04D25320404981F84F
:105D2000500003E04E203E4981F8500000212846F3
:105D30000DF058FF04D25720394981F8600003E084
:105D40004520374981F860002F4908680DF0F2FEC0
:105D5000334AC2E90E012D4908680DF0EBFE304AC6
:105D6000883203C228460DF0E5FE2D4AC2E91C0127
:105D700020460DF0DFFE2A4AC2E91A011046002231
:105D8000284BD0E91A6130460DF0E8FE08D92448C6
:105D90000022254BD0E91A6130460DF0F3FE17D8EA
:105DA0001F480022214BD0E91C6130460DF0D6FE81
:105DB00008D91B4800221E4BD0E91C6130460DF06B
:105DC000E1FE05D80320164988620120486205E0FB
:105DD0000021134A9166D166116751674FF49C21E7
:105DE00014480CF029F94FF49E2113480CF024F9C3
:105DF0000020BDE8F081000058320020D00B0020C8
:105E0000DC0B0020E80B0020F40B0020000C00202D
:105E10000C0C0020180C0020240C0020300C00205A
:105E2000B830002000805640008056C00080664098
:105E3000008066C03C0C0020480C002010B54FF4D8
:105E40007A714F480CF0FCFE14214E480DF062F8B8
:105E500010BD70B5ACB004464B480068A0421CD0E1
:105E600009F0C8FA30B14748407C022802D101202D
:105E700044494874444804604448006810F0080FDE
:105E800003D01E204249087007E04148007820B145
:105E90003F480078401E3E4908703D48007870B188
:105EA0003C48006820F400603A49086008460068F1
:105EB00020F4804008600320374908705DE03148D5
:105EC000407C022859D03348008810F4804F54D0C9
:105ED00031480078002850D029480CF0BCFE00283A
:105EE00045D101202D49087000202D49087047F246
:105EF000305123480CF0A4FE2648006820F480406E
:105F00002449086024480078401E23490870254829
:105F1000416F006FCDE902012249D1E91A01224AFD
:105F2000CDE9000121A104A80EF058FAC5B204A9D8
:105F300029480CF032FFC5B227480CF0CDFE0646CA
:105F4000314625480CF0D8FE6806050E032047F2BE
:105F5000305101222B46CDE9002102901E4A1F49F3
:105F6000084809F0E1FA01201D49087005E00948D8
:105F7000006820F48040074908602CB070BD000024
:105F8000080D0020540C002088010020080C01405E
:105F9000850100208001002084010020550100209F
:105FA00054010020B8300020304E01082573210A2A
:105FB000687474703A2F2F6D6170732E676F6F67FE
:105FC0006C652E636F6D2F6D6170733F713D252E73
:105FD00036662C252E366600680C00208E050020C3
:105FE0005701002030B5039C0160426000258560A8
:105FF0004373046130BD08B52F48406820F4700039
:106000002D4948600846406840F4801048604FF0D1
:10601000FF3001234FF4FA72114600902748FFF732
:10602000E1FF08BD427B012A1BD182688A4203D965
:106030008268521A826001E000228260826852B94E
:10604000026942B10269521E0261D0E900321A446B
:10605000826001220273D0E901329A4201D8002203
:106060000273704710B5044615480068201A154B96
:106070000CCB801843F10001124A03C21148026898
:1060800011480068111A0D48FFF7CCFF0D48D0E900
:1060900000100D4AC2E90010094804600748007B5F
:1060A000012803D140030449086103E04FF4005084
:1060B0000149486110BD000000100140140D00208E
:1060C000A0010020900100209801002010B5044696
:1060D0000020F9490860F949087042F21071F84847
:1060E0000CF0AEFD10BD0020F3490860F3490870C4
:1060F000704710B586B0F3480068401CF14908604D
:10610000EE480078062877D2DFE800F003ACC49FA1
:10611000D3ADED4805F028FB002825D1EB480068F9
:1061200050B902A803A904AB05AACDE90010E8A163
:10613000E5480CF059FF0AE002A803A904AB05AA40
:10614000CDE90010E2A1E0481F300CF04DFFE3491B
:106150000598087004984870039888700298C87071
:106160000846DF4908600EE0D848006828B9D648DC
:1061700003F01AFFDA49086005E0D3481F3003F046
:1061800013FFD7490860D648006800B992E0D448A8
:106190000068007870B9D2480068407850B9D0489B
:1061A0000068807830B9CE480068C07810B9FDF733
:1061B000E9F87FE04FF0FF3001234FF4FA72114607
:1061C0000090C848FFF70EFF0020C7490870BA4981
:1061D0000860BD487A38B0F8B800C1490968C97884
:1061E000CDE90010BE4800688378BD480068427859
:1061F000BB480068017800E05BE0BCA0FFF731F825
:10620000B1497A39B1F8B80004F033F904462146AF
:10621000B348006804F0BAF9A74908600CF0FDFC27
:10622000BE490860A448006830B9BDA0FFF719F85E
:106230000520A24908703DE00120A049087042F203
:1062400010719F480CF0FCFC34E00CF0E6FCB34904
:106250000968401A42F21071884202D3042097491B
:10626000087027E000BF0CF0D8FCAC490968401A60
:1062700042F2107188420CD3B3480078401CB249F6
:1062800008709248006880F0010090490860FFF7AC
:106290002AFF0FE08A480CF0DEFC48B90120FFF726
:1062A00015FF002085490870A8490880A849088082
:1062B00000E000BF00BF8148007806B010BD7CB58B
:1062C000A44800687C490968884200D07CBDA24887
:1062D0000068401CA049086042F2107178480CF038
:1062E000AFFC9E48007810F0400F16D04FF0FF3002
:1062F000012340F65432642100907A48FFF772FE81
:1063000097A0FEF7AEFF00209049088090490880D2
:10631000994908800220694908709048007810F077
:10632000080F4ED0FDF7ADFA00209349088093483E
:106330000068F0B17022924992480CF03FFE88B19B
:1063400070228E4801688E480CF038FE50B17022E1
:106350008B498C480CF0C5FD874A8B498948FDF76D
:106360001FFD26E0844A884984480068FDF718FD2F
:106370001FE086480078E0B185480CF06CFCC0B99D
:1063800042F2107182480CF05BFC8248416F006F52
:10639000CDE900017F48D0E91A4322467EA17A4820
:1063A0000EF01CF87449088081480078401C804930
:1063B00008707148008820B16F480188724805F064
:1063C0009CF96648007810F0020F23D079480088C5
:1063D00000B3002078490968764A12888854002161
:1063E0007548026873480088401C115400227248A6
:1063F000016870480088801C0A5463496E48006830
:10640000FEF718FB6D496E480CF01AFC6B496D489D
:106410000CF016FC5148007810F0010F40D056489F
:10642000018869A0FEF71DFF002047490870534806
:106430000068C0B16C48007868B96C48007820B931
:106440006B48006810F0080F05D1002067490870FC
:1064500001206849087001204849096881F86700EF
:1064600000204649086052480078062807DB474864
:10647000007820B100204E49087044490870FDF7AB
:1064800000FA4E494F480CF0DBFB00203A490880E7
:106490002E4908802E490880484949480CF0D0FB15
:1064A0002E48007810F0040F05D033480188364894
:1064B00005F023F9A0E0B4E0D8010020A4010020F9
:1064C000280D0020C0010020D2040020C4010020BB
:1064D00025642E25642E25642E256400D00100201D
:1064E000D4010020140D0020AE0100200D0A44410B
:1064F00054415F5356523A20537461727465642C50
:10650000205365727665722025642E25642E2564DD
:106510002E25643A25640D0A00000000DC010020ED
:106520000D0A444154415F5356523A207569705FD9
:10653000636F6E6E6563742072657475726E73201E
:106540004E554C4C0D0A0000B8010020A801002057
:10655000A6010020B8020020BC010020B4020020E7
:106560000D0A444154415F5356523A20636F6E6E98
:1065700065637465640D0A00AA0100202C010020E7
:1065800058320020C8320020340D00205501002070
:1065900098080020B83000204047455441444452F8
:1065A0002C76692C252E38662C252E38660D0A008F
:1065B00054010020B0020020A8020020C0D4010035
:1065C000841300204C0400200D0A444154415F53C1
:1065D00056523A2073656E743A2564206279746568
:1065E0002873290D0A000000340100200C0100204E
:1065F000080C01400D0100201DA0FEF732FE2248CC
:106600000088401C00B2204908800846B0F900000C
:10661000052806DB002008801C49088005201C494D
:1066200008701C48007810F0100F04D11948007849
:1066300010F0200F19D04FF0FF3001234FF4FA7201
:10664000114600901448FFF7CDFC00201349086064
:106650000CF0E3FA124908601248B0F9001012A0D9
:10666000FEF7FFFD05200A49087000BF2EE6000076
:106670000D0A444154415F5356523A207265786D79
:1066800069740D0A00000000A6010020AA01002084
:10669000A4010020B4020020140D0020D801002025
:1066A000DC010020A80100200D0A444154415F5341
:1066B00056523A2074696D65646F75747C636C6FB3
:1066C0007365647C61626F727465642025640D0A71
:1066D0000000000010B5FE480068B0F1A53F05D1EC
:1066E000FC480CF0B8FA08B1012010BD0020FCE70E
:1066F00038B5F9480088002859D0F848F84988602A
:106700004FF40170F74988800520087000240BE0E1
:10671000F548025DF249F348FFF718FA00B907E0BF
:106720000020F1490855641CEB4800888442EFD3EF
:1067300000BF03E00020EC490855641CE6480088CF
:106740008442F7D300200090E6488088031FE34A84
:10675000E649E348FEF7AAFDE448408820B3E34851
:106760000078E3490870E14880784870DF48C078D5
:106770008870DE480079C870002406E0DB48806835
:10678000015DDB4A201D1154641CD8484088A0429A
:10679000F4D8D648017BD64A201D11540020D34995
:1067A00048800120D34908700020CB49088038BDBB
:1067B00010B504460020D0490860D049087042F264
:1067C0001071CF480CF03CFA42F21071CD480CF039
:1067D00037FA10BD10B50020C7490860C7490870D6
:1067E00042F21071C6480CF02BFA42F21071C54803
:1067F0000CF026FA10BD10B586B0C0480078062807
:106800007ED2DFE800F003D1E2C0F1D2BE4804F04E
:10681000ABFF002825D1BD48006850B902A803A9E4
:1068200004AB05AACDE90010B9A1B7480CF0DCFB18
:106830000AE002A803A904AB05AACDE90010B4A19F
:10684000B1481F300CF0D0FBB4490598087004988B
:106850004870039888700298C8700846B04908606C
:106860000EE0AA48006828B9A74803F09DFBAC4990
:10687000086005E0A4481F3003F096FBA8490860B3
:10688000A748006800B9B0E0A5480068007870B972
:10689000A3480068407850B9A1480068807830B9B2
:1068A0009F480068C07810B9FCF76CFD9DE000209F
:1068B0009C490870904908604CF250319848006833
:1068C000C078CDE900019648006883789448006854
:1068D000427893480068017893A0FEF7C2FC4CF21E
:1068E000503003F0C6FD044621468D48006803F091
:1068F0004DFE814908600CF090F99649086000E06F
:1069000072E07D48006830B993A0FEF7AAFC05202C
:106910007A49087069E012227B49A83998480CF03E
:10692000E0FA122278499639954812300CF0D9FADB
:10693000934894A10A68426289880185342093496A
:106940004870CA200870002088707720C8703422F0
:106950008B498E48001D0CF0C4FA34218848FEF79C
:1069600098FC8A494978091D884A505442F21071AE
:1069700087480CF065F93C2186480CF061F901204C
:106980005E49087031E00CF048F972490968401A14
:1069900042F21071884206D30CF03FF96D4908604D
:1069A00004205649087020E000BF0CF036F9694910
:1069B0000968401A47F23051884205D30CF02DF98E
:1069C00064490860FFF706FF0FE04D480CF043F9FB
:1069D00048B90120FFF7ECFE0020484908706E49D5
:1069E00008806E49088000E000BF00BF434800787F
:1069F00006B010BD10B56A4800683F490968884272
:106A000000D010BD67480068401C6649086042F22B
:106A100010713B480CF014F96348007810F0400FF7
:106A20000CD062A0FEF71DFC00205B4908805B498A
:106A30000880644908800220304908705A4800786C
:106A400010F0080F41D02F480CF005F910B90020C4
:106A50005C4908805B480088002836D142F21071FA
:106A600028480CF0EDF82F48007800282ED0204858
:106A70000078CA282BD11F48007828B14EF6602133
:106A800044480CF0DDF81AE042480CF0E4F8B0B9E4
:106A900072B64FF0A5300E49086000204A490860E0
:106AA0004EF660213B480CF0CBF8002010490870EE
:106AB000464937480CF0C4F8FFF78CFE62B63448FC
:106AC0000CF0C9F800B183E086E0FCE0AFE098E0AC
:106AD00068010020580A0020F20100205411002013
:106AE0005813002078130020340E00206813002073
:106AF00014110020F001002000020020E00100201D
:106B0000FC1000200811002012050020F4010020D4
:106B100025642E25642E25642E256400F8010020AE
:106B2000FC010020E80100200D0A46575F53565231
:106B30003A20537461727465642C205365727665D3
:106B4000722025642E25642E25642E25643A256442
:106B50000D0A0000040200200D0A46575F535652EA
:106B60003A207569705F636F6E6E6563742072653D
:106B70007475726E73204E554C4C0D0A0000000067
:106B800074100020322E393235000000A810002089
:106B9000E4100020F0100020E4010020E2010020B9
:106BA000B8020020EC010020B40200200D0A465774
:106BB0005F5356523A20636F6E6E65637465640D61
:106BC0000A000000E601002078010020E0930400A4
:106BD0007D480078002867D000207B4908707B48FA
:106BE0004078401D7A4908800846B0F9002077496E
:106BF00078480CF076F94EF6602177480CF020F8D2
:106C000052E075480CF027F800284DD173497248BE
:106C10000CF016F872484078401D6D49088008460F
:106C2000B0F900206E496B480CF05BF93CE06D4810
:106C30000068B0F1A53F23D16B4800686B49096833
:106C400088421DD269480068B0F5003F18D8CA20B4
:106C50005E49087004204870002088701220C870B7
:106C6000614C2078087160784871A0788871E0786C
:106C7000C87104215548001DFEF70BFB53490872EB
:106C800057484078401D524908800846B0F9002016
:106C9000534950480CF025F94EF6602154480BF04A
:106CA000CFFF0120534908704948008858B148482F
:106CB000B0F90010474804F020FD4548B0F9001035
:106CC0004DA0FEF7CEFA5348007810F0020F24D002
:106CD0005148018851A0FEF7C4FA4F480088E0B13E
:106CE0004D480088B0F5107F17D254480088A0B9ED
:106CF00047F2305152480BF0A3FF474802885148F1
:106D0000016834480CF0EDF8434800884B4908808E
:106D100042F2107130480BF093FF3E48007810F0BB
:106D2000010F12D02A48B0F9001047A0FEF799FAD7
:106D30000020274908804B4908804B4908804B496F
:106D400008704B494B480BF07BFF3248007810F03D
:106D5000040F1DD01E48B0F900101E4804F0CDFCF1
:106D60001B48B0F9001044A0FEF77BFA3E480088AB
:106D7000401C00B23C4908800846B0F900000528D4
:106D800006DB002008801249088005204149087070
:106D90002048007810F0100F04D11E48007810F041
:106DA000200F0FD000203C4908600BF036FF3B4914
:106DB00008602C48B0F9001039A0FEF752FA0520FF
:106DC0003449087000BF1CE6F001002014110020B7
:106DD000E6010020340E0020E4100020E0930400BF
:106DE000A810002068010020780100207401002014
:106DF000F0100020E80100200D0A46575F5356525C
:106E00003A2073656E64696E672025642062797428
:106E100065730000B4020020B00200200D0A46573E
:106E20005F5356523A20476F74204E657720446175
:106E300074613A256420627974657300F201002060
:106E400090130020A80200200D0A46575F535652A7
:106E50003A2073656E743A256420627974652873EC
:106E6000290D0A00E4010020E2010020B801002001
:106E7000C0D40100841300200D0A46575F535652B8
:106E80003A207265786D6974202564206279746592
:106E9000730D0A00E001002000020020040200201F
:106EA0000D0A46575F5356523A2074696D65646FF8
:106EB00075747C636C6F7365647C61626F727465FA
:106EC000642025640D0A000010B52C4809F045FC2B
:106ED00004F024FD294A3032A2F12001002004F000
:106EE00021FD274927480BF0ABFE10BD10B5264801
:106EF0000078002837D123480BF0ADFE18B12348A5
:106F00000078032808DB04F009FD00201F49087001
:106F10001B491C480BF094FE05F0BCFF06F001F87D
:106F2000B0B11B48006860B11A48006848B1184801
:106F3000006818490968884203D102F0EBFFFFF7A7
:106F400049FC02F0F1FFFFF7D4F8FFF754FC0AE028
:106F50000B490C480BF074FE02F0DCFFFFF73AFC23
:106F600000200A49087010BD10B5FFF7A8F9FFF717
:106F700041FD10BD10B503F033F910BD8E040020A3
:106F8000C0D4010084130020BC030020B8010020FD
:106F9000D80100200002002010B50BF00AFC10BD43
:106FA0002DE9F0416D480068401C6C4908606C4850
:106FB000006850B907200BF0E8FB012802D0FFF76A
:106FC000EBFF0CE00BF0F0FB09E064480068642183
:106FD000B0FBF1F201FB120008B9FFF7DDFF002062
:106FE0000BF0D3FB00F03F043F2C02DD0120BDE895
:106FF000F08104F03F045B48B0F900005A49088072
:1070000014F0200F04D0A4F140005649088003E09A
:1070100004F01F00534908805248008852490988EB
:10702000401A06B25148B0F90000514908800120C9
:107030000BF0ABFB00F03F043F2C01DD0120D6E755
:1070400004F03F0414F0200F04D0A4F1400047499D
:10705000088003E004F01F0044490880434800888A
:1070600043490988401A07B202200BF08EFB00F05A
:107070003F043F2C01DD0120B9E704F03F043D4807
:10708000B0F900003C49088014F0200F04D0A4F1AE
:1070900040003849088003E004F01F0035490880AB
:1070A0003448008834490988401A0FFA80F8002EC5
:1070B00001DA704206B2002F01DA784207B2B8F165
:1070C000000F03DAC8F100000FFA80F82B4991F89D
:1070D000771101EB410000EBD0714D10AE4203DAA5
:1070E000AF4201DAA84504DB25480078401C24495A
:1070F00008702448007868B12148007803282ADB0A
:107100002148006840F480401F49086000201C4965
:10711000087020E01348B0F900001C4908801348AB
:10712000B0F900001A4908801248B0F90000194966
:1071300008800C48B0F90000174908800B48B0F9E6
:107140000000164908800B48B0F900001449088077
:1071500000200B490870FF2049E7000010020020C2
:1071600014040020160200201C0200201802002037
:107170001E0200201A0200202002002058040020D5
:10718000140200200C0200208001002022020020B6
:107190002402002026020020280200202A020020CB
:1071A0002C02002005480047FEE7FEE7FEE7FEE769
:1071B000FEE7FEE7FEE7FEE7FEE7FEE7ED28000854
:1071C0000CB50020019000906B48006840F48030BE
:1071D0006949086000BF6848006800F4003000900A
:1071E0000198401C0190009818B90198B0F5A06F63
:1071F000F1D16148006810F4003F02D001200090F6
:1072000001E0002000900098012842D15B4800680E
:1072100040F01000594908600846006820F003005B
:1072200008600846006840F0010008605248406865
:10723000514948600846406848600846406840F444
:10724000806048600846406820F47C10486008462A
:10725000406840F4881048600846006840F080703C
:10726000086000BF4448006810F0007FFAD0424830
:10727000406820F00300404948600846406840F0FC
:107280000200486000BF3C48406800F00C0008283D
:10729000F9D10CBD10B5FFF793FF10BD10B53648FE
:1072A000006840F0010034490860084640683449ED
:1072B00008403149486008460068324908402E4974
:1072C00008600846006820F480200860084640688E
:1072D00020F4FE0048604FF41F008860FFF7DAFFDB
:1072E00029482A49086010BD10B50021002000225D
:1072F000214B5B6803F00C0121B1042906D0082959
:1073000028D107E0224B234C236027E0204B214C5F
:10731000236023E0184B5B6803F47010164B5B6826
:1073200003F48032022303EB904022B91A4B43430B
:10733000184C23600DE0104B5B6813F4003F04D041
:10734000154B4343134C236003E0114B4343114C53
:10735000236003E00E4B0F4C236000BF00BF064BC1
:107360005B68C3F303130D4CE15C0A4B1B68CB4015
:10737000084C236010BD00000010024000200240B5
:107380000000FFF8FFFFF6FE0028000808ED00E00F
:1073900000127A003002002000093D003402002073
:1073A00030B50246154800684FF47A71B0FBF1F031
:1073B0005043401E4FF0E021486148170921002842
:1073C00007DA0B071D0E0E4B00F00F04241F1D558E
:1073D00003E00B071C0E0B4B1C5400BF00204FF0AA
:1073E000E02188610720086130BD00204FF0E021D6
:1073F0000861704710B50BF0F3FB10BD30020020A0
:1074000018ED00E000E400E001460020FE4A1068AC
:1074100000F03800084310607047FB49096821F00C
:107420000801F94A1160114609680143116070476B
:10743000F549096821F01001F34A11601146096805
:10744000014311607047F148EF494860F0484860D7
:107450007047EE48EC494860ED4848607047EA489C
:10746000006940F08000E84908617047E64800691B
:1074700040F08000E449086170470420E249C9688F
:1074800011F0010F01D001200EE0DF49C96811F0B1
:10749000040F01D0022007E0DB49C96811F0100F8A
:1074A00001D0032000E00420704700B50246042309
:1074B000FFF7E3FF034603E0FFF7DFFF0346521E3B
:1074C000012B01D1002AF7D102B90523184600BDCE
:1074D00030B5044604254FF43020FFF7E6FF05469B
:1074E000042D17D1C848006940F00200C649086160
:1074F00008464461006940F0400008614FF43020C4
:10750000FFF7D3FF0546C048006941F6FD7108400A
:10751000BD490861284630BD10B504244FF4302021
:10752000FFF7C3FF0446042C16D1B748006940F0AA
:107530000400B54908610846006940F04000086150
:107540004FF43020FFF7B1FF0446AF48006941F621
:10755000FB710840AC490861204610BD00B50246E9
:107560000423FFF78AFF034603E0FFF786FF034685
:10757000521E012B01D1002AF7D102B9052318466A
:1075800000BD10B504244FF43020FFF7E7FF044698
:10759000042C16D19C48006940F004009A49086107
:1075A0000846006940F0400008614FF43020FFF7C2
:1075B000D5FF04469448006941F6FB7108409249A2
:1075C0000861204610BD00208F49C96911F0020FE3
:1075D00001D0012000E00020704730B5A52504242B
:1075E000FFF7F1FF00B100254FF43020FFF75DFFFA
:1075F0000446042C3AD185488349886084488860D1
:107600000846006940F0200008610846006940F023
:10761000400008614FF43020FFF747FF0446042C78
:107620001BD17948006941F6DF710840764908614D
:107630000846006940F01000086176480580E002C5
:10764000FFF733FF0446052C10D06F48006941F660
:10765000EF7108406C49086108E0052C06D06A48C3
:10766000006941F6EF71084067490861204630BD66
:1076700078B506460C46042500200090E802FFF786
:1076800014FF0546042D24D15F48006940F0010035
:107690005D4908613480E802FFF707FF0546042DC5
:1076A00010D1B01C0090200C00990880E802FFF770
:1076B000FCFE05465448006941F6FE7108405249F7
:1076C000086106E05048006941F6FE7108404E49E5
:1076D0000861284678BD70B504460D460426F002C0
:1076E000FFF7E3FE0646042E11D14748006940F03B
:1076F0000100454908612580F002FFF7D6FE0646E5
:107700004148006941F6FE7108403F490861304632
:1077100070BD70B505460E460424E002FFF7C5FEB5
:107720000446042C17D139483749886038488860A6
:107730000846006940F0100008612E80E002FFF763
:10774000B4FE0446052C06D02F48006941F6EF71BF
:1077500008402D490861204670BD2DE9F0430446DC
:107760004FF6FF763746B046B1460425E443E6B20D
:10777000C4F30727C4F307484FEA1469E802FFF788
:1077800094FE0546042D49D120481F4988602048B1
:1077900088600846006940F010000861FF2E06D09E
:1077A0001C4808300680E802FFF77FFE0546042DDE
:1077B00008D1FF2F06D017480A300780E802FFF7EC
:1077C00074FE0546042D0AD1B8F1FF0F07D0114809
:1077D0000C30A0F80080E802FFF767FE0546042D94
:1077E0000AD1B9F1FF0F07D00A480E30A0F8009077
:1077F000E802FFF75AFE0546052D0FD00248006942
:1078000041F6EF71084007E0002002402301674580
:10781000AB89EFCD00F8FF1F664908612846BDE837
:10782000F08330B5054604244FF43020FFF73DFEC9
:107830000446042C41D160485E4988605F488860F6
:107840000846006940F0200008610846006940F0E1
:10785000400008614FF43020FFF727FE0446042C57
:1078600022D15448006941F6DF710840514908614E
:107870000846006940F0100008611DB10020504921
:10788000088002E0A5204E4908804FF43020FFF721
:107890000CFE0446052C10D04648006941F6EF71F5
:1078A00008404449086108E0052C06D041480069B9
:1078B00041F6DF7108403F490861204630BDF0B510
:1078C00005460E46174604243B483A4988603B4823
:1078D0008860E002FFF7E9FD0446042C19D1354821
:1078E000006940F010003349086147F0F800304368
:1078F00028433349891C0880E002FFF7D6FD04467F
:10790000052C06D02B48006941F6EF710840294943
:1079100008612046F0BD2748C069800870472548A7
:10792000006A704700202349096811F0200F01D038
:10793000012000E00020704729B11E4A126902436D
:107940001C4B1A6104E01B4A12698243194B1A61ED
:10795000704701460020012908D1164AD26912F069
:10796000010F01D0012008E0002006E0114AD26892
:107970000A4201D0012000E0002070470D49C86094
:10798000704704200B49C96811F0010F01D0012094
:107990000EE00849C96811F0040F01D0022007E089
:1079A0000449C96811F0100F01D0032000E0042041
:1079B000704700000020024023016745AB89EFCDEE
:1079C00000F8FF1F0E49086070470D494860704776
:1079D0000B49886070474AF6AA2009490860704739
:1079E0004CF6CC4006490860704701460020044A26
:1079F000D2680A4201D0012000E000207047000058
:107A00000030004070B504460D46B948806940F426
:107A10008040B7498861B748006820F47F60B54965
:107A200008600846006840F0B0000860084600683A
:107A300040F48060086004EBC40000EB0410A9006F
:107A4000B0FBF1F06421B0FBF1F104EBC40000EBFA
:107A50000410AA00B0FBF2F004EBC40202EB041223
:107A6000AB00B2FBF3F26423B2FBF3F202EBC2030E
:107A700003EB0212A0EB8200322202EB0010642220
:107A8000B0FBF2F061F31F109B4908800020091D34
:107A90000880091D0880081F0088091F0880002031
:107AA00095490C3108809448001D008840F00C0076
:107AB0009149091D088090480C30008840F4C0604E
:107AC0008D490C3108808B48006820F4704089494A
:107AD00008600846006840F4804008600846006876
:107AE00020F4702008600846006840F440300860C8
:107AF00088148049103108607F48001D008840F0DC
:107B000020007D49091D08800A157C497C480AF03F
:107B100075FF7948001D008840F080007649091DF6
:107B200008800A15774978480AF068FF252009215E
:107B3000002807DA0A07160E744A00F00F031B1F0D
:107B4000D65403E00A07130E714A135400BF2520D0
:107B500000F01F020121914042094FF0E02303EBA6
:107B60008202C2F8001100BF6348001D008840F483
:107B700000506149091D088070BD5D48806920F48E
:107B800080405B4988615B48006820F47F60594908
:107B90000860704770B504465E4D00BF5A480AF051
:107BA00068FF59498968884203D32800A5F1010577
:107BB000F4D1214654480AF030FF4F48001D008898
:107BC00000F08000802807D04B48001D008840F05E
:107BD00080004949091D0880204670BD10B5044643
:107BE00003E014F8010BFFF7D5FF20780028F8D147
:107BF00010BD00BF40480838008810F0200FF9D0B1
:107C00003D48001F0088C0B2704708B5FF200090B3
:107C100039480838008810F0280F15D03648001F62
:107C20000088C0B200909DF8001035480AF0F5FEBB
:107C300033480AF01EFF324880683748007818B190
:107C40009DF8000008F0A5F92B480838008810F4CA
:107C5000007F32D028480838008820F40070264978
:107C6000083908802348001D006810F4006F0AD00E
:107C7000084600882048001D008820F080001E492A
:107C8000091D088032E069461F480AF0DBFE20BB70
:107C90001948001D008800F08000802807D0164891
:107CA000001D008840F080001349091D08809DF8E0
:107CB00000001149091F088018E00F4808380088A3
:107CC00010F0800F12D069460F480AF0BBFE28B9A9
:107CD0009DF800000849091F088007E00648001DBC
:107CE000008820F080000449091D088008BD0000BC
:107CF0000010024004080140083801409C13002095
:107D00009C1B00209C170020AC1B002018ED00E0FD
:107D100000E400E000E1F505BC03002070B5044676
:107D20000D466648C06940F400306449C861644843
:107D3000006820F47040624908600846006840F41A
:107D4000804008605D48C06940F400305B49C8610C
:107D500004EBC40000EB04104FF41641B0FBF1F04B
:107D60006421B0FBF1F104EBC40000EB04104FF40C
:107D70001642B0FBF2F004EBC40202EB04124FF423
:107D80001643B2FBF3F26423B2FBF3F202EBC2033D
:107D900003EB0212A0EB8200322202EB00106422FD
:107DA000B0FBF2F061F31F10464908800020091D66
:107DB0000880091D0880081F0088091F088000200E
:107DC00040490C3108803F48001D008840F00C00FD
:107DD0003C49091D088080223B493C480AF00EFEC0
:107DE0003848001D008840F020003649091D0880F1
:107DF00026200A21002807DA0A07160E344A00F066
:107E00000F031B1FD65403E00A07130E314A135405
:107E100000BF262000F01F020121914042094FF0CF
:107E2000E02303EB8202C2F8001100BF2548001DC9
:107E3000008840F400502349091D088070BD1F4888
:107E4000C06920F400301D49C8611D48006820F455
:107E500070401B490860704700BF1A4908390988FB
:107E600011F0800FF9D01749091F0880704700BF33
:107E700014480838008810F0200FF9D01148001F6E
:107E80000088C0B2704708B50E480838008810F066
:107E9000280F11D00B48001F0088C0B200909DF839
:107EA000000009F0F2F99DF8001008480AF0B5FD4D
:107EB000694606480AF0C6FD08BD000000100240F1
:107EC0000008014008440040BC1B00203C1C00206E
:107ED00018ED00E000E400E070B504460D46894866
:107EE000C06940F480208749C8618748006820F451
:107EF0007F40854908600846006840F430600860AB
:107F00000846006840F4004008607F480830006878
:107F100040F400607C490831086004EBC40000EBC9
:107F200004104FF4E121B0FBF1F06421B0FBF1F15A
:107F300004EBC40000EB04104FF4E122B0FBF2F0BC
:107F400004EBC40202EB04124FF4E123B2FBF3F2A0
:107F50006423B2FBF3F202EBC20303EB0212A0EBC9
:107F60008200322202EB00106422B0FBF2F061F3D7
:107F70001F10664908800020091D0880091D08801F
:107F8000081F0088091F0880002060490C31088004
:107F90005E48001D008840F00C005C49091D088007
:107FA0000846008840F0200008804A155849594882
:107FB0000AF024FD5548001D008840F08000534918
:107FC000091D08804A15544954480AF017FD272016
:107FD0000921002807DA0A07160E514A00F00F039C
:107FE0001B1FD65403E00A07130E4E4A135400BF5A
:107FF000272000F01F020121914042094FF0E023A9
:1080000003EB8202C2F8001100BF4048001D008847
:1080100040F400503D49091D088070BD3948C069D1
:1080200020F480203749C8613F48006820F4704040
:108030003D490860704770B504463C4D00BF374865
:108040000AF017FD35498968884203D32800A5F155
:108050000105F4D1214631480AF0DFFC2B48001D10
:10806000008800F08000802807D02848001D008884
:1080700040F080002549091D0880204670BD10B5DC
:10808000044603E014F8010BFFF7D5FF2078002821
:10809000F8D110BD00BF1D480838008810F0200F2F
:1080A000F9D01A48001F0088C0B2704708B51748B9
:1080B0000838008810F0280F09D01448001F0088E5
:1080C000C0B200909DF8001012480AF0A6FC0F48BC
:1080D0000838008810F0800F12D069460F480AF067
:1080E000B1FC28B99DF800000849091F088007E085
:1080F0000648001D008820F080000449091D088002
:1081000008BD000000100240040C01400848004077
:108110004C1C00204C2000204C1E00205C20002025
:1081200018ED00E000E400E00008014000E1F50582
:1081300030B585B0FC48C06940F40010FA49C86108
:10814000FA48006840F07060F84908600846006826
:1081500040F070400860684601F007FE029CF44859
:10816000008820F03F00F2490880F248B4FBF0F0AC
:1081700080B209880843EE490880081F008820F073
:108180000100091F0880EB48B4FBF0F0401CE849EF
:108190001C310880E848B4FBF0F0C0F34F05081F1D
:1081A0000580E348001F008840F00100E049091FF6
:1081B00008800846008840F480600880012008801C
:1081C00005B030BD0246DA48143001880904001FAA
:1081D0000088014321F07F4101EA0200904201D171
:1081E000002070470120FCE7F0B503460C4642F240
:1081F00010710025DEE0CE48001F008820F480606A
:10820000CB4F3F1F38803846008840F4807038805C
:1082100042F2107100BFC6481030008810F0010F04
:1082200002D1481E0100F6D141B9C148001F0088A3
:1082300040F40070BE4F3F1F3880B9E003F0FE00ED
:10824000BB4F0C37388042F2107100BFB848103075
:10825000008800F00200022802D0481E0100F5D17B
:1082600041B9B348001F008840F40070B04F3F1F71
:1082700038809DE0AE4814300088C6B2AC480C305F
:10828000048042F2107100BFA9481030008800F04D
:108290000400042802D0481E0100F5D141B9A448C9
:1082A000001F008840F40070A14F3F1F38807FE01E
:1082B0009F48001F008840F480709D4F3F1F38800A
:1082C00042F2107100BF9A481030008810F0010F80
:1082D00002D1481E0100F6D141B99548001F00881F
:1082E00040F40070924F3F1F388061E043F001007E
:1082F0008F4F0C37388042F2107100BF8C4810301D
:10830000008800F00200022802D0481E0100F5D1CA
:1083100041B98748001F008840F40070844F3F1F18
:10832000388045E08248001F008820F48060804F3C
:108330003F1F38807E4814300088C6B23846008817
:1083400040F40070388042F2107100BF784810305D
:10835000008800F04000402802D0481E0100F5D1FE
:1083600041B97348001F008840F40070704F3F1FF0
:1083700038801DE06E480C300088107042F2107199
:1083800000BF6B48001F008800F40070B0F5007F4C
:1083900002D1481E0100F4D141B96548001F008890
:1083A00040F40070624F3F1F388001E00020F0BDB4
:1083B000681CC5B20A2DFFF61EAF5D48001F00887D
:1083C00040F400705A4F3F1F38803846008840F410
:1083D000806038800120EAE730B502460B4642F261
:1083E00010715348001F008820F48060504D2D1FED
:1083F00028802846008840F48070288000BF0DE067
:108400000800A1F1010109D14948001F008840F48A
:108410000070474D2D1F2880FF2030BD444810308C
:10842000008810F0010FEBD002F0FE00404D0C353B
:10843000288042F210710DE00800A1F1010109D17C
:108440003B48001F008840F40070394D2D1F2880E4
:10845000FF20E2E736481030008800F002000228D2
:10846000EAD133481430048831480C30038042F29A
:1084700010710DE00800A1F1010109D12C48001F85
:10848000008840F400702A4D2D1F2880FF20C4E78B
:1084900027481030008800F004000428EAD124485E
:1084A000001F008840F40070214D2D1F288042F2EB
:1084B00010710DE00800A1F1010109D11C48001F55
:1084C000008840F400701A4D2D1F2880FF20A4E77B
:1084D0001748001F008800F40070B0F5007FE9D055
:1084E00000209AE770B50446134642F21072104815
:1084F000001F008820F480600D4E361F308030460B
:10850000008840F48070308018E01000A2F1010271
:1085100014D10748001F008840F40070044E361F35
:108520003080FF2070BD000000100240000C0140B0
:108530000454004040420F00A08601006F480088AC
:1085400010F0010FE1D004F0FE006C4E361F3080B9
:1085500042F210720DE01000A2F1010209D1674849
:108560001438008840F40070644E143E3080FF20C0
:10857000D8E76248008800F002000228EBD15F488B
:10858000001D058808785D4E361F3080491C5B1E33
:108590001BE042F2107200BF5848008800F004004F
:1085A0000428F9D11000A2F1010209D1534814386E
:1085B000008840F40070514E143E3080FF20B1E737
:1085C00008784E4E361F3080491C1800A3F1010375
:1085D000DFD142F210720DE01000A2F1010209D1C8
:1085E00046481438008840F40070444E143E3080F1
:1085F000FF2097E74148008800F004000428EBD1F1
:108600003E481438008840F400703C4E143E3080E0
:1086100042F210720DE01000A2F1010209D13748B8
:108620001438008840F40070344E143E3080FF202F
:1086300078E732481438008800F40070B0F5007F05
:10864000E9D000206EE710B5044642F210734FF6F1
:10865000FF302A49088029481438008820F48060B7
:108660002649143908800846008840F48070088044
:108670000AE04BB921481438008840F400701F49C3
:1086800014390880FF2010BD1D48FFF79BFD10B175
:10869000581E0300EDD104F0FE001849091F0880A0
:1086A00042F2107300BF1748FFF78CFD10B1581E3F
:1086B0000300F8D14BB911481438008840F4007019
:1086C0000E4914390880FF20DDE70C48008810F4BB
:1086D000806F09D009481438008840F400700749B9
:1086E00014390880FF20CEE704481438008840F48D
:1086F00000700249143908800020C4E71454004077
:10870000010003008200070002281ED1B049098839
:1087100001F44151AE4A11801146098841F44D716E
:108720001180AB491C3109884FF2FF721140A84AF1
:108730001C3211800721A64A10321180A4490988F1
:1087400041F04001A24A118058E0012856D1A149C8
:10875000896941F480519F4A91619F490968C1F339
:1087600013019D4A11601146096821F470211160BE
:108770001146096841F4403111609849496821F473
:108780007001964A51601146496841F440115160A8
:108790001146096941F4005111618F49103109688E
:1087A00041F010018C4A103211608B49096841F484
:1087B0003001894A11601146096841F03061116049
:1087C0001146096841F0304111608549098801F47A
:1087D0004151834A11801146098841F44D7111803D
:1087E0001146898B4FF2FF7211407D4A9183072118
:1087F00011821146098841F040011180704702281A
:108800001ED17349098801F44151714A1180114602
:10881000098841F4417111806D491C3109884FF27A
:10882000FF7211406A4A1C3211800721684A1032D7
:1088300011806749098841F04001654A118048E08C
:10884000012846D16349896941F48051614A9161A7
:1088500061490968C1F313015F4A11601146096853
:1088600021F4702111601146096841F44031116012
:1088700059491031096841F01001574A103211600E
:108880005549096841F43001534A1160114609689D
:1088900041F0306111601146096841F030411160CA
:1088A0004F49098801F441514D4A11801146098808
:1088B00041F4417111801146898B4FF2FF721140D2
:1088C000474A9183072111821146098841F04001EE
:1088D0001180704740480068C0F313003E490860AB
:1088E0000846006820F4702008603A48806920F447
:1088F000805038498861704730B50246394B9181C4
:1089000000BF148914F0010F03D11C00A3F101036F
:10891000F7D19489E0B230BDF0B502464C0810465C
:10892000304B00BF10F8016B2D4FBE812D4B00BFA7
:108930002B4E368916F0010F03D11E00A3F101035F
:10894000F6D1274EB689F5B210F8016B244FBE81DF
:10895000244B00BF224E368916F0010F03D11E00B2
:10896000A3F10103F6D11E4EB689F5B2661E34009E
:10897000D8D1F0BD70B502464C081046194B00BF67
:10898000FF25174EB581174B00BF154D2D8915F0EA
:10899000010F03D11D00A3F10103F6D1104DAD89E4
:1089A00000F8015BFF250E4EB5810E4B00BF0C4D4C
:1089B0002D8915F0010F03D11D00A3F10103F6D19C
:1089C000074DAD8900F8015B651E2C00D8D170BD44
:1089D0000038004000100240000801400010014033
:1089E00000300140A086010010B502460020134B64
:1089F000186820F0030010431860114B1B6843F007
:108A000004030F4C2360012901D130BF00E020BFD7
:108A100010BD0A48006840F0040008490860084694
:108A2000006840F0020008600548006840F004005B
:108A30000349086000BF00BF30BF704700700040AE
:108A400010ED00E0DD48008800F00100DB490880FF
:108A50000846008800F002000880D9480068401CE1
:108A6000D74908607047D54800884FF6EF71084035
:108A7000D24908807047D148008840F01000CF49A3
:108A80000880704700B50246FFF7F5FF100CCB4990
:108A90001C310880091D0A80FFF7E5FF00BD002199
:108AA000C64818300188001F008841EA004070471E
:108AB00000B50246531CFFF7DEFF100CBF4914310E
:108AC0000880091D0A80180C091D0880091D0B80EB
:108AD000FFF7C9FF002000BD70B5B848008800F05E
:108AE0000200B64908804FF40030B6490860FFF72D
:108AF000D6FF0546B44885420CD2B4480068B24956
:108B0000884202D20846B1490860B0480068FFF7C1
:108B1000CFFF1BE0FFF7C3FFAC490860AC4800681B
:108B200058B10020AA490860AA480068A74908600F
:108B300008460068FFF7BCFF08E0FFF7B0FFA34955
:108B4000086008460068401CFFF79CFF9F480168CA
:108B5000A14804F04AFE0024A04850F82400E8B1DF
:108B60009F4850F82400401C9D4941F824000846C5
:108B700050F824009B4951F82410884201D300F09A
:108B80000FF9994850F8240060B90020944941F841
:108B900024000120944941F8240003E0002090497A
:108BA00041F82400FEF717FF90480068401C8F49E9
:108BB00008608F48007820B18D480078401E8C49AD
:108BC00008708C480078012809D18B48017800781A
:108BD000401C894A10701E2912DB00F0E1F885481C
:108BE0000078022809D1844801780078401C824A24
:108BF00010700A2904DB00F0D3F800207E490870C9
:108C00007A4800684FF41671B0FBF1F201FB1200D4
:108C100008B1FAF751FB7948006810F0080F08D046
:108C20006A480068764908604FF4807075490860AA
:108C300011E073480068744908446449096888422F
:108C400005D84FF480706F49091D086003E04FF4A8
:108C500080706C49086070BD6C48016A11F0020FA9
:108C600001D10020704711F0010F01D10020F9E778
:108C700011F4004F01D10020F4E701F44070B0F589
:108C8000807F01D00020EDE70120EBE710B5604CBC
:108C90005E48C06940F080505C49C8615D4800682A
:108CA00040F480705B490860FFF7D6FF18B1FFF70A
:108CB000F6FE464908605548406A40F001005349B5
:108CC000486200BF5148406A10F0020FFAD04F4886
:108CD000006A40F402404D4908623848008840F07C
:108CE0001000364908800020091D088047F6FF70F3
:108CF000091D08800020314914310880091D0880B1
:108D0000091D0880091D08804348006840F4007070
:108D10004FF0E021C1F804014FF002003F49088004
:108D20004FF0E020D0F8000140F008004FF0E021C3
:108D3000C1F800012148008820F010001F49088078
:108D40001AE02000A4F1010416D135490968480849
:108D50004FF4E131FFF7C0F832A0FFF790F931A0EE
:108D6000FFF78DF92FA0FFF78AF92EA0FFF787F9FB
:108D70002CA0FFF784F904E01048008810F0200FC1
:108D8000DFD000BF10BD00B50246FFF774FE100C27
:108D90000A4914310880091D0A80FFF764FE00BDEE
:108DA0002848006800F4E06027490843001D254971
:108DB0000860BFF3408F00BFFEE7000004280040BA
:108DC00058020020140401404E6F78530403002021
:108DD0001003002014030020180300204C02002080
:108DE00050020020444E010854020020440200209A
:108DF0000C0200201501002048020020080C014050
:108E0000240C00201008014000A3020000100240C2
:108E1000809698000070004004E100E000280040C7
:108E2000300200200D0A525443204372797374615A
:108E30006C2033326B2070726F626C656D210D0A8D
:108E4000000000000CED00E00000FA0510B500285D
:108E500007DA0A07140EC14A00F00F031B1FD4548F
:108E600003E00A07130EBE4A135410BD10B5BD48E7
:108E7000406840F00070BB4948600846806820F0B8
:108E80000F0088600846C06820F0F001B548C16056
:108E9000006920F47061B3480161406920F47041B9
:108EA000B04841610820B0490860AE48806840F48D
:108EB0008050AC498860AC481438006820F0080045
:108EC000A94914390860081D006820F00800091D30
:108ED0000860081D006820F00800091D0860A2480D
:108EE0001438006840F008009F4914390860081DD4
:108EF000006840F00800091D0860081D006820F0A7
:108F00000800091D0860081D006840F00800091DE0
:108F1000086009210846FFF799FF092000F011F9C0
:108F20001020914908608F48C06840F001018D48C9
:108F3000C1608D481438006820F010008A49143947
:108F40000860081D006820F01000091D0860081D59
:108F5000006820F01000091D08608348143800687C
:108F600040F01000804914390860081D006840F086
:108F70001000091D08607C480838006840F01000A7
:108F800079490839086009210A20FFF75FFF0A20A4
:108F900000F0D7F87548006820F4706073490860E5
:108FA0000846006840F0800008607048083000689B
:108FB00040F480606D490831086008156A4908600E
:108FC0006848006940F48071664801616648143859
:108FD000006820F48060644914390860081D006846
:108FE00020F48060091D0860081D006820F480607E
:108FF000091D08605C481438006840F480605A49D4
:1090000014390860081D006840F48060091D08607C
:1090100055480838006840F48060534908390860B2
:109020004FF40040504908604E48406940F4805178
:109030004C4841614C481438006820F400404A49CB
:1090400014390860081D006820F40040091D0860FC
:10905000081D006820F40040091D086042481438CB
:10906000006840F40040404914390860081D006859
:1090700040F40040091D08603B480838006840F48F
:10908000004039490839086009212820FFF7DEFE31
:10909000282000F056F84FF4003033490860324879
:1090A0001438006820F400302F4914390860081D76
:1090B000006820F40030091D0860081F006840F4B3
:1090C0000030091F0860081D006840F40030091DC9
:1090D0000860081D006840F40030091D086010BDDC
:1090E000082021490860704710201F490860704718
:1090F00010B51D48006810F4806F0FD04FF48060E9
:10910000194908601A48006840F40060184908606E
:109110001848007810B90A201649087012480068EB
:1091200010F4004F07D04FF400400F4908600021B1
:10913000084605F020FB10BD4FF480200A49086066
:10914000704700F01F020121914042094FF0E023D7
:1091500003EB8202C2F800117047000018ED00E036
:1091600000E400E00000014014040140040C014050
:10917000800100200C02002010B50446CA48844239
:1091800008D10121042000F077FE0021042000F026
:1091900073FE46E0C548844208D10121082000F052
:1091A0006BFE0021082000F067FE3AE0C0488442D0
:1091B00008D10121102000F05FFE0021102000F0F6
:1091C0005BFE2EE0BB48844208D10121202000F044
:1091D00053FE0021202000F04FFE22E0B6488442DA
:1091E00008D10121402000F047FE0021402000F07E
:1091F00043FE16E0B148844208D10121802000F0EE
:109200003BFE0021802000F037FE0AE0AC4884429B
:1092100007D10121801500F02FFE0021A01500F0DC
:109220002BFE10BD10B50121084600F025FE0021DF
:10923000012000F021FE10BD2DE9F041024600257D
:109240000026002000230024002791F803C00CF022
:109250000F0591F803C01CF0100F03D091F802C065
:109260004CEA050591F800C0BCF1000F31D014683C
:1092700000202BE04FF0010C0CFA00F3B1F800C015
:109280000CEA03069E4220D183004FF00F0C0CFA2B
:1092900003F7BC4305FA03FC4CEA040491F803C04D
:1092A000BCF1280F06D14FF0010C0CFA00FCC2F8FB
:1092B00014C00AE091F803C0BCF1480F05D14FF08B
:1092C000010C0CFA00FCC2F810C0401C0828D1D3D5
:1092D0001460B1F800C0BCF1FF0F34DD5468002009
:1092E0002EE000F1080C4FF0010808FA0CF3B1F879
:1092F00000C00CEA03069E4221D183004FF00F0C00
:109300000CFA03F7BC4305FA03FC4CEA040491F899
:1093100003C0BCF1280F05D100F1080C08FA0CF8C5
:10932000C2F8148091F803C0BCF1480F07D100F1D6
:10933000080C4FF0010808FA0CF8C2F81080401C25
:109340000828CED35460BDE8F0814FF6FF7101804C
:10935000022181700421C170704702460020936889
:109360000B4201D0012000E00020704701468868D0
:1093700080B2704702460020D3680B4201D0012022
:1093800000E0002070470146C86880B27047016164
:109390007047416170470AB1016100E04161704767
:1093A000C16070474FF480320A43826181618261FB
:1093B00082698269704702460020424B18684FF666
:1093C0008073184040EA021008433E4B1860704713
:1093D0003D49C8617047F0B50A46002300240021CA
:1093E000002500F00046B6F1004F02D1354EF1697C
:1093F00001E0344E7168C0F3034583B200F44016B7
:10940000B6F5401F08D121F070612E4E766826F027
:1094100070662C4F7E6012E000F48016B6F5801F57
:1094200006D1032606FA05F4A14341F0706106E077
:10943000460D360103FA06F6B14341F0706122B1E0
:10944000460D360103FA06F6314300F00046B6F148
:10945000004F02D11B4EF16101E01A4E7160F0BD68
:1094600030B500228B071C0F0F2303FA04F2154BB3
:1094700008338C1053F824309343124C08348D1069
:1094800044F8253023468C1053F824308C07240FE1
:1094900000FA04F423430B4C08348D1044F82530B3
:1094A00030BD0A490860704700080140000C0140C7
:1094B000001001400014014000180140001C014050
:1094C000002001400000014000002042DC0020425A
:1094D00001684FF6FE721140016000210160416099
:1094E0008160C1608C49884208D18B49083949683C
:1094F00041F00F01884A083A51608AE086491431E8
:10950000884208D184490839496841F0F001824A0B
:10951000083A51607DE080492831884208D17E496F
:109520000839496841F470617B4A083A516070E03B
:1095300079493C31884208D177490839496841F472
:109540007041754A083A516063E07349503188426E
:1095500008D171490839496841F470216E4A083AC6
:10956000516056E06C496431884208D16A49083933
:10957000496841F47001684A083A516049E0664917
:109580007831884208D164490839496841F07061EE
:10959000614A083A51603CE06049884206D1011FA7
:1095A000096841F00F01021F116032E05B4914317C
:1095B000884208D15949091F096841F0F001574A0A
:1095C000121F116025E055492831884208D15349BE
:1095D000091F096841F47061504A121F116018E0B8
:1095E0004E493C31884208D14C49091F096841F471
:1095F00070414A4A121F11600BE0484950318842BD
:1096000007D14649091F096841F47021434A121FD6
:109610001160704710B50022026847F6F0739A4354
:109620000C6A8B6823430C6923434C6923438C6980
:109630002343CC6923434C6A23438C6A23431A4354
:109640000260CB6843600B6883604B68C36010BDE9
:109650000021016041608160C160016141618161FF
:10966000C161016241628162704721B1026842F0CA
:109670000102026004E002684FF6FE731A400260C5
:1096800070471AB103680B43036002E003688B4321
:1096900003607047416070470146486880B2704778
:1096A00001460020002211F0805F03D01B4B083BD5
:1096B0001A6802E0184B083B1A680A4201D00120E0
:1096C00000E00020704710F0805F03D01349091FAD
:1096D000086002E0104908394860704701460020E0
:1096E000002211F0805F03D00C4B083B1A6802E0A7
:1096F000094B083B1A680A4201D0012000E0002013
:10970000704710F0805F03D00449091F086002E031
:1097100001490839486070470800024008040240C7
:1097200010B50446FA48844208D10121401500F0E2
:10973000A3FB0021601500F09FFB17E0F548844271
:1097400008D10121001500F097FB0021201500F041
:1097500093FB0BE0F048844208D10121C80300F0DC
:109760008BFB00214FF4004000F086FB10BD30B5AC
:109770000246002000235068E84C20400D790C6818
:1097800044EA0524204350609068E54C2040D1E92C
:1097900002542C434D7944EA450420439060D06A3A
:1097A00020F470000C7C641EE4B2234340EA0350B2
:1097B000D06230BD00210160017141718160C160E2
:1097C00001210174704721B1826842F00102826078
:1097D00003E0826822F001028260704721B1826852
:1097E00042F48072826003E0826822F480728260B8
:1097F000704710B50023CBB21AB144681C434460D3
:1098000002E044689C43446010BD816841F0080157
:1098100081607047014600208A6812F0080F01D06D
:10982000012000E000207047816841F00401816060
:109830007047014600208A6812F0040F01D0012011
:1098400000E00020704721B1826842F4A0028260EB
:1098500003E0826822F4A002826070470146002083
:109860008A6812F4800F01D0012000E000207047C8
:1098700010B50A4600210023416821F46041531EBF
:1098800041EA4331416010BD21B1426842F40062B7
:10989000426003E0426822F4006242607047F0B523
:1098A00004460D4600200021092D11DDE068A5F1D8
:1098B0000A0606EB4607072606FA07F18843A5F1D4
:1098C0000A0606EB460603FA06F10843E0600CE0E0
:1098D000206905EB4507072606FA07F1884305EBE3
:1098E000450603FA06F108432061072A0FDA606B88
:1098F000561E06EB86071F2606FA07F18843561EFA
:1099000006EB860605FA06F10843606322E00D2A9D
:109910000FDA206BD61F06EB86071F2606FA07F123
:109920008843D61F06EB860605FA06F10843206336
:1099300010E0E06AA2F10D0606EB86071F2606FA84
:1099400007F18843A2F10D0606EB860605FA06F13B
:109950000843E062F0BD21B1826842F48012826067
:1099600003E0826822F48012826070470146C86C6E
:1099700080B2704766484C300068704721B1426839
:1099800042F48062426003E0426822F480624260F6
:10999000704721B1426842F48052426003E042685D
:1099A00022F48052426070470A460021816821F407
:1099B000E04111438160704721B1826842F4004266
:1099C000826003E0826822F400428260704721B125
:1099D000826842F40212826003E0826822F402127A
:1099E00082607047014600208A6812F4001F01D08F
:1099F000012000E000207047F0B504461546002025
:109A000000220026092911DDE068A1F10A0707EB11
:109A1000470C072707FA0CF29043A1F10A0707EB5E
:109A2000470703FA07F21043E0600CE0206901EBFE
:109A3000410C072707FA0CF2904301EB410703FAA8
:109A400007F210432061A06BC0F30156EF1C06F132
:109A5000010CA7EB0C0707EB870C1F2707FA0CF28A
:109A60009043EF1C06F1010CA7EB0C0707EB8707EF
:109A700001FA07F21043A063F0BD10B50A460021B9
:109A80000023816B21F44011531E41EA035181638D
:109A900010BD08B5002300930090009B0B44009379
:109AA000009B1A6008BD08B5024600200090009295
:109AB00001F12800009B184400900098006880B2D3
:109AC00008BD0A4600214168164B19401143416008
:109AD00070474162826270470A460021416821F066
:109AE0001F0111434160704740B1094908310968BD
:109AF00041F40001064A0832116007E004490831C8
:109B0000096821F40001024A083211607047000020
:109B10000024014000280140003C0140FFFEF0FF0E
:109B2000FDF7F1FFFFFD3FFF0246002013680B42E7
:109B300001D0012000E000207047CA430260704756
:109B400070B502460020002300240B125568CEB2E7
:109B500005EA060415681D4202D00CB1012000E0A0
:109B6000002070BD00220A12D3430360704700003A
:109B7000DD48006840F00100DB49086008464068A5
:109B8000DA490840D849486008460068D849084082
:109B9000D54908600846006820F48020086008461F
:109BA000406820F4FE0048604FF41F008860704752
:109BB000CD49096821F48031CB4A1160114609680A
:109BC00021F480211160B0F5803F03D0B0F5802FE3
:109BD0000ED106E0C449096841F48031C24A1160DF
:109BE00007E0C149096841F4A021BF4A116000E0C3
:109BF00000BF00BF704710B50146002200230020BF
:109C00004A11012A02D1B84C236806E0022A02D187
:109C1000B54C236A01E0B44C636A01F01F020124D1
:109C200094401C4201D0012000E0002010BD38B556
:109C3000002000900024002500BF3120FFF7DBFF4B
:109C400005460098401C00900098B0F5A06F01D028
:109C5000002DF2D03120FFF7CEFF08B1012400E043
:109C60000024204638BD014600209F4A106820F09D
:109C7000F80040EAC100106070479E4908607047D4
:109C800002460020984B586820F47C1042EA0103F9
:109C90001843954B586070479649086670470146CF
:109CA0000020914A506820F003000843506070473C
:109CB0008D48406800F00C007047014600208A4A39
:109CC000506820F0F00008435060704701460020C3
:109CD000854A506820F4E0600843506070470146B0
:109CE0000020814A506820F4605040EAC100506072
:109CF000704729B17C4A527A02437B4B5A7204E086
:109D0000794A527A8243784B5A7270477A4908608E
:109D1000704701460020744A506820F440400843D0
:109D2000506070470021754A11706F4A82F8201008
:109D3000012802D0042808D103E001216F4A1170E4
:109D400004E005216D4A117000E000BF00BF7047BC
:109D50006B49086070476449096A0143624A1162AD
:109D60007047674944390860704730B500210022C8
:109D7000002400235C4D6D6805F00C0121B104291D
:109D800005D0082923D105E05E4D056022E05D4D38
:109D900005601FE0544D6D6805F47012524D6D68FA
:109DA00005F48034022505EB92421CB9564D55430B
:109DB00005600BE04C4D6D6815F4003F03D0524D2B
:109DC0005543056002E04F4D5543056002E04D4D9F
:109DD000056000BF00BF444D6D6805F0F001090942
:109DE0004A4D6B5C0568DD4045603F4D6D6805F48C
:109DF000E061090A454D6B5C4568DD4085603A4D80
:109E00006D6805F46051C90A404D6B5C4568DD40E2
:109E1000C560354D6D6805F44041890B3C4D6B5C68
:109E2000C568B5FBF3F5056130BD29B12E4A52690D
:109E300002432D4B5A6104E02B4A526982432A4B5C
:109E40005A61704729B1284A92690243264B9A61A8
:109E500004E0254A92698243234B9A61704729B1F5
:109E6000214AD2690243204BDA6104E01E4AD269DA
:109E700082431D4BDA61704729B11B4AD268024305
:109E8000194BDA6004E0184AD2688243164BDA6054
:109E9000704729B1144A12690243134B1A6104E056
:109EA000114A12698243104B1A61704714494039B4
:109EB000086070470F49C86470470B49C871704704
:109EC0000948406A40F0807007494862704701467F
:109ED0000020054A92680A4201D0012000E00020DB
:109EE0007047014988727047001002400000FFF877
:109EF000FFFFF6FE00004242D8004242201002401E
:109F00008004424200127A0000093D005C020020F9
:109F10006C02002010B500202A49087008F07DFE70
:109F20000021294A03C210BD08B52648007820B197
:109F3000012815D0022834D122E000F0E4F900BF56
:109F4000D0208DF8000043208DF80100DE208DF830
:109F500002008DF8030000BF684600F0C3F900BF9F
:109F60001A4800F053F91948403800F04FF908F04A
:109F700057FE0021144A03C202201249087000BF94
:109F800008F04EFE0021104B0CCB821A61EB03014E
:109F90000F4B00209A1A884102D20120094908700B
:109FA00000E000BF00BF08BD10B50446204600F029
:109FB0006CF910BD10B50446204600F027F910BD1D
:109FC0007047000078020020700200201205002077
:109FD00000B84C0A014600BF11F8012B02E0491CF1
:109FE000501EC2B2002AFADC08780028F4D1481CBE
:109FF00070472DE9F0410020CF49087076E0CE4847
:10A00000007800EB800101EB4010CC4901EB4004EB
:10A010002078012802D02078022861D120780228F7
:10A0200016D16078401E10F0FF0060700FD1A0784C
:10A03000401CC0B2A070082806D104202070002166
:10A04000601DFFF7BDFF4CE0A078607006E048E0BF
:10A0500002202070012060700020A070B8480768BE
:10A06000002038607860B860B348007800F001FAEA
:10A0700038800120B8700002B880B148006800F153
:10A080000C05661D761E00BF761CA8466D1C0020C0
:10A09000AC49087008E0307828706D1CA948007839
:10A0A000401CA8490870761C30782E2802D03078E1
:10A0B0000028F0D1A348007888F800003078002804
:10A0C000E2D1A1480168296000792871681D9C4A85
:10A0D0001278801AC1B29A48006801F00EFB09E0BC
:10A0E00000BF95480078401C93490870924800785A
:10A0F000042884DB00BFBDE8F0812DE9FF419048D2
:10A100000768388800F0B5F990490870084600786B
:10A1100000EB800101EB4010884901EB40048B48C3
:10A12000007804285ADA2078022857D103202070BA
:10A13000F87800F00F002071207938B104202070E9
:10A140000021601DFFF73CFFBDE8FF81B88800F0EB
:10A1500090F97F490870F88800F08BF97D49087004
:10A16000774800680C30FFF735FF061D32E0307885
:10A1700010F0C00F01D0B61C03E03046FFF72AFFF5
:10A1800006460E223146684608F0ABFE6D4628882A
:10A19000B0F5807F13D16888B0F5807F0FD1288912
:10A1A000B0F5806F0BD16889A4F84600A9894820D2
:10A1B000015304F14601601DFFF702FFC4E728893F
:10A1C00000F057F906F10A01461862480078401E6F
:10A1D000604908705F4800780028C8DC00BFB3E71A
:10A1E00010B55D480068C088B0F5545F0DD15B487C
:10A1F000007810F0080F01D0FFF7FBFE57480078F9
:10A2000010F0020F01D0FFF778FF10BD2DE9F041EB
:10A2100006464FF0000800270024002518E005EB53
:10A22000850000EB4510454901EB4004207800B95A
:10A2300010E0E0784A490978081A404506DDE078E0
:10A2400047490978081A00F0FF082F46681CC5B274
:10A25000042DE4DB00BF042D07D13D4605EB85004E
:10A2600000EB4510354901EB400440223146601DAA
:10A2700008F079FE0120207039480078401CC0B2F7
:10A2800037490870E070BDE8F08170B505460020E0
:10A290003449087018E03348007800EB800101EB86
:10A2A0004010264901EB40042078032807D1611DA6
:10A2B000284608F06BFE10B904F1460070BD29482D
:10A2C0000078401C27490870264800780428E2DB03
:10A2D0000020F3E72448006808B9002070472248AE
:10A2E0000068FBE710B504461F48006818B100205D
:10A2F0001D49096888804FF45451204600F0BDF98B
:10A300001949086010BD0020184908700EE00320AC
:10A310001649097801EB810202EB4111074A02F864
:10A32000110012480078401C104908700F4800784E
:10A330000428ECDB70470000800200206C20002025
:10A34000A802002081020020820200208902002051
:10A350008702002088020020C0020020B4020020F2
:10A360008C0200208A0200207C0200208B02002048
:10A3700070B504460D46656008F04FFC206070BD66
:10A38000D0E9001211440160704710B5044608F08E
:10A3900044FC206010BD10B5044608F03EFC0649A0
:10A3A000086020680968081A6168884201D30120A2
:10A3B00010BD0020FCE7000090020020F949088051
:10A3C0007047C2780A44F84BDA70827802EB212297
:10A3D0009A7042785A7002781A701A469278B2EBE4
:10A3E000212F0ADA1A465278521C5A701A465278AD
:10A3F0001AB91A461278521C1A70EB4AD278CBB2AC
:10A400009A4212DAE84A9278521CE74B9A701A463E
:10A41000927852B91A465278521C5A701A4652789B
:10A420001AB91A461278521C1A707047F0B50B46CA
:10A43000144619461E19751E0BE04E780F7806EB70
:10A440000726B2B28618B0B2904201DA461CB0B20A
:10A45000891CA942F1D3A9420AD10E78002707EB43
:10A460000626B2B28618B0B2904201DA461CB0B2EB
:10A47000F0BD0146080240EA212080B2704770B565
:10A4800004460D462A4621460020FFF7CFFF064628
:10A49000FFF7EFFF70BD10B51422C4490020FFF78D
:10A4A000C5FF044614B94FF6FF7010BD2046FFF7F4
:10A4B000E0FFFAE770B50446BC48001FC179807917
:10A4C00001EB0020143885B2281986B20822B7495A
:10A4D0000C313046FFF7AAFF06462A46B34914312D
:10A4E0003046FFF7A3FF064616B94FF6FF7070BD62
:10A4F0003046FFF7BEFFFAE710B50620FFF7DAFF98
:10A5000010BD10B51120FFF7D5FF10BD0020A849E0
:10A5100008700AE00020A749A54A127821F8120025
:10A52000A3480078401CA2490870A148007801287F
:10A53000F0DB00209E4908700BE000209E499C4AF9
:10A54000127801EB4211487699480078401C9849EE
:10A550000870974800780528EFDB4FF48060974932
:10A5600008800020924908700BE000209449904A2E
:10A57000127801EB021188808D480078401C8C49CC
:10A5800008708B4800780528EFDB704730B504462B
:10A590000D4600BF89480088401C8849088008464D
:10A5A0000088B0F5FA4F02DB4FF48050088000209D
:10A5B0007F49087013E080487D49097800EB41121B
:10A5C000507E38B17D480088FFF753FF918888425C
:10A5D00000D1DFE776480078401C75490870744860
:10A5E00000780528E7DB002200207149087016E09A
:10A5F00071486F49097800EB4113587E08B91A4633
:10A6000011E0587E072805D11AB1987E917E8842C4
:10A6100000DD1A4666480078401C654908706448A9
:10A6200000780528E4DB00BF0AB9002030BD022015
:10A63000507664480078107362484178517381788D
:10A640009173C178D1734FF4B6605082908201202B
:10A6500010820020D0760120907603201076002012
:10A6600090751020D07555480088FFF702FF908044
:10A67000D580206810601046D8E730B503460C46F8
:10A6800000BF4E480088401C4C490880084600889E
:10A69000B0F5FA4F02DB4FF48050088000204449A7
:10A6A000087011E045480088FFF7E3FE4449404D3B
:10A6B0002D7801EB05118988884200D1E1E73C48FB
:10A6C0000078401C3A490870394800780528E9DBD1
:10A6D000002200203649087011E0394834490978D1
:10A6E00000EB0110808828B935483149097800EB22
:10A6F000011208E02E480078401C2D4908702C48B3
:10A7000000780528E9DB00BF0AB9002030BD2B48DE
:10A71000007800022949098840EA21209080D480ED
:10A7200013B90020106001E018681060402010721A
:10A730001046EBE700211E4A117012E01D491C4A29
:10A74000127831F81210814206D10021194A184BB3
:10A750001B7822F81310704715490978491C144AD0
:10A760001170134909780129E8DB00BFF3E70021E4
:10A770000F4A117010E00F490D4A127831F812108B
:10A7800029B90C490A4A127821F812007047084981
:10A790000978491C064A1170054909780129EADB44
:10A7A00000BFF3E7C4020020CC0200209821002063
:10A7B000D0020020BC02002070270020CA02002026
:10A7C00010280020C602002010B504462146F74894
:10A7D00000680830FFF7F5FDF5480078F34909688F
:10A7E0000872F3484178F14800684172F048817876
:10A7F000EE4800688172EE48C178EC480068C1728A
:10A8000010BD70B50546E9480468042D00D1C9E1C2
:10A81000E848E9490860E9490860032D19D1607EDC
:10A8200000F00F00032807D1208A28B90820E44946
:10A830000870FCF799FBF3E3607E00F00F0002283C
:10A8400005D10021DB482C3880F82510A0E300F06A
:10A8500040BF022D6AD1DB48C078401C10F0FF00D9
:10A86000D849C87011D108468078401C10F0FF000C
:10A8700088700AD108464078401C10F0FF004870EC
:10A8800003D108460078401C08700020CE4908809B
:10A89000CE490880607E072802D0607E052808D156
:10A8A000A07E401CA076A07E78285AD10020607639
:10A8B00057E0607E002854D0208AB0B3A17E481EA5
:10A8C000A07600294DD1E07E082808D0607E0228BD
:10A8D00002D0607E01280FD1E07E05280CD1002037
:10A8E00060768020B6490870FCF73EFB1421B14821
:10A8F0002C3880F82510FDE3E07E042801DD0420DB
:10A9000000E0E07E03218140A176E07E401CE076FD
:10A91000607E00F00F00092823D2DFE800F0220556
:10A92000080E1422152216002DE30FE01AE0002174
:10A93000A0482C3880F825102AE30420A04908708C
:10A94000FCF712FBF9E300BF00BFF7E3607E00F005
:10A950000F00032805D1082099490870FCF704FB73
:10A9600069E774E7052D18D199480068808898B187
:10A9700000208E4908608F480C388F4908608F4945
:10A9800008600020914908808F49088008208C4980
:10A990000870FCF7EFFA05E159E786482C38007992
:10A9A000452800D053E783482C38C179807901EBE2
:10A9B000002085490988884208DC7E482C38C17906
:10A9C000807901EB00208049088000E03FE779486A
:10A9D0002C38807A10F03F0F03D176482C38C07A9B
:10A9E00000B134E77B4800887B490988884205D15B
:10A9F000784840887849498888420ED06D482C387C
:10AA0000808A74490988884206D16A482C38C08AED
:10AA100070494988884200D019E7FFF73CFDA0F54E
:10AA20007F41FF3900D012E762482C38407B06286E
:10AA300000D11CE15F482C38407B112800D130E068
:10AA40005C482C38407B012800D000E759482C385E
:10AA5000007E082800D0FAE6002156482C380176FE
:10AA6000408B4FF6F771884208DB52482C38408BF8
:10AA7000093081B24F482C38418307E04D482C38CB
:10AA8000408B083081B24B482C38418349482C38E0
:10AA90000146096941614F4909680161402101731B
:10AAA000EFE3494800881C384749088041480C3882
:10AAB000414908602038C08B30B1FFF722FDA0F576
:10AAC0007F41FF3900D0C2E63A482C38408B00B9AC
:10AAD000BDE642483E4908604BE03D48006880883A
:10AAE000F0B334482C38408B39490968898888424A
:10AAF0003AD137480068C08838B12E482C38008BCE
:10AB000033490968C98888422ED1314800680088D5
:10AB100031490988884206D12D48006840882E496D
:10AB2000498888421FD02A48006800882C49098833
:10AB3000884206D1264800684088294949888842C9
:10AB400011D01C482C38008A21490968098888429C
:10AB50000AD118482C38408A1D490968498800E004
:10AB600002E0884200D10BE0194800681030184913
:10AB7000086017480168194850308142ADD366E635
:10AB800000200A49086002200D49087009480C3865
:10AB9000094908600949086000200C490880FCF751
:10ABA000E9F900BF09480088E0B950E6B802002082
:10ABB000CC020020C0210020A8020020AC0200200E
:10ABC000B4020020C6020020B0020020B202002021
:10ABD000C00200209A0200204C4E010810280020DC
:10ABE000484E0108F84800881C30F849088008469B
:10ABF00000880112F6488171F4480178F448C17167
:10AC0000F4480068017AF248017311214173EE485B
:10AC100000880830C0F30721EB480078083041EA8B
:10AC2000002081B2EA4881830021C183E94800689D
:10AC30008188E7480183E7480068C188E448418388
:10AC4000E54909680161E3490968096841612C30F7
:10AC5000E2490860FFF755FCC04381B2DC48C1837C
:10AC6000C08B18B94FF6FF71D948C18318E7FFF7B9
:10AC700043FCA0F57F41FF3900D0E8E5D448408B84
:10AC800010B1D348008B00B9E1E5D54C17E0607EE8
:10AC9000A0B1CF48408BA18888420FD1CC48008B0F
:10ACA000E18888420AD1CA48008A2188884205D1B1
:10ACB000C748408A6188884200D19FE12034C84853
:10ACC00080308442E3D9C24890F8250000F03F006C
:10ACD000022800D01BE0BE48408BC24908800020FB
:10ACE000C14908700EE0C148BF49097830F8110029
:10ACF000BC490988884200D17FE0BB480078401CED
:10AD0000B9490870B84800780128ECDB00BFB048AA
:10AD100090F8250010F0040F00D098E51421AC48FD
:10AD200080F825102820A94908805021A84880F8DB
:10AD30002410C07FAC490870A54890F82310C17753
:10AD4000A9480178A24880F82310807FA64908709E
:10AD50009F4890F822108177A34801789C4880F89A
:10AD60002210407FA0490870994890F8211041773F
:10AD70009D480178964880F82110007F9A49087014
:10AD8000934890F82010017797480178904880F810
:10AD9000201090F82300401C10F0FF018C4880F830
:10ADA000231018D190F82200401C10F0FF018848B1
:10ADB00080F822100FD190F82100401C10F0FF0104
:10ADC000834880F8211006D190F82000401CC1B2C1
:10ADD0007F4880F820107E48008B824908807C489C
:10ADE000418B01837F480188794841830146096985
:10ADF0004161794909680161FEE3002400207A4934
:10AE0000087028E076487849097800EB4110407EC8
:10AE100028B973487449097800EB41141FE0704861
:10AE20007149097800EB4110407E07280ED144B1EA
:10AE30006B486D49097800EB4110807EA17E884205
:10AE400004DD67486849097800EB411466480078DA
:10AE5000401C65490870644800780528D2DB00BFB3
:10AE600004B9F4E4624804600320A0762076002050
:10AE7000A0750420E0750020E0765548408BA08046
:10AE80005348008BE08052480069206001206076C2
:10AE90005848007820735748417861738178A173CE
:10AEA000C178E173012020824948C17FE172817F2E
:10AEB000A172417F6172007F20720120FFF784FC44
:10AEC000434890F8240000F0F00050285ADD00209C
:10AED000454908704AE0444800782C303C49085CF9
:10AEE000454908700846007800B94AE042480078B1
:10AEF000012805D13C480078401C3B49087035E0EA
:10AF00003D480078022820D1374800782D3030495C
:10AF1000085C042819D1344800782F30095C324885
:10AF200000782E302A4A105C41EA00202D49088022
:10AF300008460088B0F5B66F02DD4FF4B66001E058
:10AF4000284800886082A0821BE0274800782D30C6
:10AF50001F49085C00B914E0234800782D301C49D3
:10AF6000085C2149097808441F490870184890F87E
:10AF700024000521C1EB20101B490978B1EB800F9B
:10AF8000A9DB00BF00BF1021114880F8251000BFC9
:10AF90000F4890F8250040F002010D4880F8251078
:10AFA000022180F82C10042180F82D10052180F852
:10AFB0002E10B02180F82F102C2004490880602129
:10AFC000034880F8241014E3B2020020B0020020ED
:10AFD00094210020C00200209A020020A802002034
:10AFE00070270020D2020020D0020020BC020020E6
:10AFF000B8020020C6020020D1020020FE480460F2
:10B000000020FE490870FE4890F8250010F0040F5B
:10B0100007D00020607620200870FBF7A5FF58E3DA
:10B0200008E2F74890F8240000118000F549087004
:10B03000F54800880978401A1438F3490880607E82
:10B0400000F00F00022806D1ED4890F8250000F02E
:10B050003F0012282AD0607E00F00F00012806D1A0
:10B06000E74890F8250000F03F0002281ED0E6488F
:10B070000088002805DCE24890F8250010F0030F56
:10B0800014D0DF48007F217A88420ED1DC48417F0E
:10B09000607A814209D1DA48817FA07A814204D165
:10B0A000D748C17FE07A814200D094E2D44890F83A
:10B0B000250010F0100F57D0208AE8B3218A04F140
:10B0C0000C00FFF77EF9CE4890F82000CF490978B0
:10B0D000884249D1CA4890F82100CC494978884231
:10B0E00042D1C74890F82200C849897888423BD1AC
:10B0F000C34800E074E290F82300C449C97888424C
:10B1000032D1C24800782073C04841786173817899
:10B11000A173C178E173E07EF8B9217EA27E891A1D
:10B1200048B2A17DA0EBE10148B2A17D0144A17527
:10B13000002805DA414202E016E0BBE10AE148B22C
:10B14000E17DA0EBA10148B2E17D0144E175E17D23
:10B15000A27D01EBE201217600BF0120A749087022
:10B16000207EA07600202082607E00F00F0009285B
:10B170007AD2DFE800F079052DC4F8F7F6F5F4008F
:10B180009E48007810F0010F19D00320607640200F
:10B190009A490870002020829B480088002808DD1A
:10B1A0000846007840F00200087097480088FFF7D2
:10B1B0000BFB002096490880FBF7D6FE3AE1904849
:10B1C00090F8250000F03F00022800D1DBE680E285
:10B1D0008A48007810F0010F7ED0894890F8250049
:10B1E00000F03F00122877D1854890F8240000F045
:10B1F000F00050285CDD0020824908704CE0814856
:10B2000000782C307E49085C824908700846007836
:10B2100000B94CE07F480078012805D179480078D2
:10B22000401C7849087037E07A480078022821D11C
:10B23000744800782D307249085C04281AD171488E
:10B2400000782F30095C6F4800782E306C4A105C13
:10B2500041EA00207049088008460088B0F5B66FC2
:10B2600003DD4FF4B66002E0B3E16B480088608212
:10B27000A0821CE0634800782D306149085C08B961
:10B2800015E004E25F4800782D305D49085C5D49B7
:10B29000097808445B490870594890F82400052152
:10B2A000C1EB201057490978B1EB800FA7DB00BF35
:10B2B000032060765248007F20725148417F6172BE
:10B2C000817FA172C17FE1720120FFF77DFA4220E8
:10B2D0004A490870002000E007E020824A490880BF
:10B2E0004B490880FBF740FEA4E02020434908704A
:10B2F000FBF73AFE002040490968487607E54048D8
:10B3000090F8250010F0010F2ED0607E10F0100F85
:10B310002AD1208A00B1DCE13B490988491C88B266
:10B32000FFF752FA3548007840F0100033490870B2
:10B3300035480088002804DD0846007840F0020007
:10B340000870FBF711FE01202082082060760020A3
:10B35000E07600BF11212A4880F8251040E1CBE0BB
:10B360002CE12CE109E1D4E0254890F8250010F00B
:10B37000200F17D0224890F82B1090F82A0041EAAD
:10B380000020264909680844244908601C4890F8B0
:10B390002B1090F82A0041EA00201B490988081A5E
:10B3A000194908801848008800280DDD607E10F0DB
:10B3B000100F09D11148007840F002000F490870C1
:10B3C00011480088FFF700FA0D4890F8271090F810
:10B3D000260001EB002010490880A08A09888842D5
:10B3E00002DB0D48008810B9A08A0B4908800A4882
:10B3F00000886082014813E0B8020020B4020020F7
:10B4000094210020D0020020B0020020CC020020B5
:10B41000B2020020D1020020D2020020A8020020A7
:10B42000007810F0030F66D00020C7490880FBF7B2
:10B430009BFD00BFC548007810F0200F08D0002009
:10B44000C149088060761421C14880F82510C7E002
:10B45000BE48007810F0100F0DD00020BA490880C7
:10B4600001202082042060760020E0761121B84877
:10B4700080F82510B4E0B4480088002817DDB348F0
:10B48000007810F0010F01D000202082208A58B9E6
:10B49000608AAD490988884202DA608AAA49088030
:10B4A000A9480088208202E0208AA749088000205D
:10B4B000E07600BFA7480068A7490860A248008856
:10B4C00000280BDD208A002808DD208A2830A349C7
:10B4D000088018219E4880F8251085E09B48007858
:10B4E00010F0020F07D028209C49088010219848AE
:10B4F00080F8251078E0ECE09448007810F0010F17
:10B5000006D000206076102090490870FBF72CFDD3
:10B510005FE092480088002803DD90480088FFF72C
:10B5200053F98B4890F8250010F0010F15D087488B
:10B53000007810F0010F05D0072060760020A0767B
:10B54000208201E0062060760120FFF73DF91020FF
:10B550007E490870FBF708FD3DE07C48007810F05C
:10B56000010F04D00520607600202082B1E07B48E6
:10B570000088002800DD2EE0ABE078480088002835
:10B5800003DD76480088FFF71FF9714890F8250021
:10B5900010F0010F0CD0072060760020A07601206B
:10B5A000FFF712F9102069490870FBF7DDFC12E083
:10B5B0006A480088002800DD0DE08AE00BE063485F
:10B5C000007810F0010F03D0072060760020A076ED
:10B5D00000BF00BF7DE010215D4880F8251000BF4E
:10B5E00028205E49088000BF5021594880F8241067
:10B5F00000BF217A564800E030E080F82010617AE0
:10B6000080F82110A17A80F82210E17A80F82310C6
:10B61000217B0177617B4177A17B8177E17BC177DA
:10B6200006214173A1880183E18841834C4909685F
:10B63000016121684161607E10F0100F06D0002189
:10B64000434880F8271080F8261006E0052140487E
:10B6500080F82610B02180F8271000BF40213C4818
:10B6600001733E4800880112394881713B480178D6
:10B670003748C171002180F82B1080F82A1001850D
:10B68000FEF73AFFC04381B23148018500BF452033
:10B690002F49087100212E484171C17281723148D1
:10B6A0000088401C2F49088008460088011228485D
:10B6B00001722C480178264841720021C181FEF7B1
:10B6C000EAFEC04381B22248C18100201F490870B0
:10B6D00070BD0020214908801C49087000BFF7E7B1
:10B6E0000146C1F3072040EA0122080C00020B0CBE
:10B6F00040EA232062F31F40704770B504460D46B0
:10B700001448016812482C30081AC0F5B660A842E7
:10B7100001DD284606E00F4801680D482C30081A64
:10B72000C0F5B6600646002E0CDD07490E800948BC
:10B730000068844206D00846028821460548006811
:10B7400007F0CFFB70BD0000B2020020B402002061
:10B7500094210020AC020020A8020020B0020020AA
:10B760009A020020C4020020024611460BE008782D
:10B77000302802DB0878392804DD08782E2801D02B
:10B7800001207047491C08780028F0D100BFF8E775
:10B7900008B54FF4FA714648FEF7EAFD00BF454888
:10B7A00000788DF80000434840788DF8010041484A
:10B7B00080788DF802003F48C0788DF8030000BF04
:10B7C0003D480099016008BD3C4800883C4908801C
:10B7D00008460088704710B539480088002817DDF2
:10B7E0000120FFF70EF83648008800285EDDFF20B4
:10B7F0003449087003204870002088702120C870E8
:10B800002F480088801D81B22E4800F098F84DE046
:10B810002748FEF7C0FD002848D02548FEF7B5FDB3
:10B8200000241EE000BF284800EB441027490860B0
:10B830000220FEF7E6FF00BF2148008878B1FF2014
:10B840002049087003204870002088702120C870AB
:10B850001B480088801D81B21A4800F070F8601CF7
:10B86000C4B2052CDEDB00241EE000BF184800EB4C
:10B870000410184908600520FEF7C3FF00BF1048F8
:10B88000008878B1FF200F4908700320487000201D
:10B8900088702120C8700A480088801D81B209483C
:10B8A00000F04DF8601CC4B2052CDEDB10BD0000BA
:10B8B000D4020020EE0200209A020020E4020020C0
:10B8C000B00200209421002070270020B802002040
:10B8D00010280020C002002010B502460B464FF68B
:10B8E000FF7108E012F8010B4840C0B20A4C34F86E
:10B8F000100080EA21211800A3F10103F2D1C8430E
:10B9000080B210BD024681EA0200C0B2024B33F899
:10B91000100080EA21207047504E01080020FE49A7
:10B920000870704770B504460D461646FBA1FC48EA
:10B9300007F051FBF9A1FB4807F04DFB70BD70B556
:10B9400004460D460026A91E2046FFF7C5FF064601
:10B95000A81E2654310A681E21547E21F248006830
:10B9600007F05BF83BE02078202815DAEF480078F4
:10B9700060B17D21EC48006807F04FF8207880F036
:10B980002001E948006807F048F827E02178E648F8
:10B99000006807F042F821E020787D280CD07E284E
:10B9A00015D17D21E048006807F037F85E21DE48B8
:10B9B000006807F032F810E07D21DB48006807F0EE
:10B9C0002CF85D21D848006807F027F805E02178B9
:10B9D000D548006807F021F800BF00BF641C2800AC
:10B9E000A5F101018DB2BED17E2005F0ADFA70BD8A
:10B9F00010B5CFA0F9F735FC5922D4480168D448D6
:10BA000007F06FFA0A20D24908710846C079811DF3
:10BA1000CF48FFF794FF10BD10B507F0FEF8CD49F1
:10BA200008600120CC490870CCA0F9F71AFC10BDC1
:10BA300010B5044624B1012C0ED0022C1FD117E002
:10BA4000D1A0F9F70EFC01221146D44800F00EFBFC
:10BA50000020B149087013E0D1A0F9F702FC0222DE
:10BA60000121D44800F002FB0020AB49087007E038
:10BA7000D1A0F9F7F6FB0020A749087000E000BF4D
:10BA800000BF10BD10B5D1A0F9F7EBFB10BD70B52C
:10BA9000A1480078022804D003281BD004287DD1B7
:10BAA0005CE0D4A0F9F7DDFBDA48007888B9C02063
:10BAB000A74988702120C870002088710A20C871A9
:10BAC000022008720620487200208872C87208732B
:10BAD000487372E0934A9249CFA0F9F7C2FBCD4870
:10BAE0000078002839D1C020994988702320C87077
:10BAF000002088718A4807F042FA0446894807F016
:10BB00003EFA2044801D9249C871854807F037FAF3
:10BB10008F490872824807F032FA0446224680496B
:10BB20008B48093007F0DDF97E4807F028FAC4B2E7
:10BB30007B4807F024FA093085490C54794807F00E
:10BB40001EFA0546764807F01AFA0A30804944186A
:10BB50002A467449204607F0C4F92EE0BAA0F9F746
:10BB600080FBAC480078002825D180207849887077
:10BB70002120C870002088711620C8710320087227
:10BB80000620487200208872C872087348738120AA
:10BB900088730620C8730020087400E00CE0487425
:10BBA0008874C8748320087506204875002088753D
:10BBB000C8750876487600E000BF00BFFF206449E2
:10BBC00008700320487001200871A7480078401CC5
:10BBD000C0B2A54908705E49487100208D490870BF
:10BBE000A2480078401EA149087007F016F859498C
:10BBF00008600120584908705548C079811D544893
:10BC0000FFF79DFE70BD10B599A0F9F72AFB5922E8
:10BC10004E4801684E4807F064F906204C49087107
:10BC20000846C079811D4A48FFF789FE10BD10B54E
:10BC300095A0F9F716FB4648C079811D4448FFF7E7
:10BC40007EFE10BD10B598A0F9F70BFB59223F48B6
:10BC500001683F4807F045F902203D490871084650
:10BC6000C079811D3A48FFF76AFE10BDF8B5054658
:10BC7000002425B1012D16D0022D4BD127E091A033
:10BC8000F9F7EFFA032024490870FF20764908707D
:10BC900001220221414800F0E9F9012200213F4838
:10BCA00000F0E4F99FE18BA0F9F7DBFA04201A49D0
:10BCB0000870FF206C490870022211463D4800F0D0
:10BCC000D5F9022200213B4800F0D0F98BE185A094
:10BCD000F9F7C7FA1D480068C079001F1B490968B9
:10BCE000C87172E104F1080018490968085C03286A
:10BCF00011D104F10A0015490968085C7E490870F1
:10BD000004F10B0011490968085C7B49487004F193
:10BD10000C00F3E066E115E1F50200206D6D7300A3
:10BD2000B9280020C9280020CC030020E20200200E
:10BD30000D0A5050503A2053656E64204543484FD9
:10BD40005F5245504C590D0A00000000DC020020F3
:10BD500060280020E8020020EC0200200D0A50506C
:10BD6000503A2053656E64204C4350205445524D48
:10BD70005F5245512C206E6F7420696D706C656D3B
:10BD8000656E7465640D0A000D0A5050503A204CDF
:10BD9000435020446F776E0D0A000000F30200202C
:10BDA0000D0A5050503A2050415020446F776E0D8C
:10BDB0000A000000F40200200D0A5050503A2049B9
:10BDC00050435020446F776E0D0A00000D0A50500A
:10BDD000503A2053656E6420434F44455F52454AB4
:10BDE0002C206E6F7420696D706C656D656E746566
:10BDF000640D0A000D0A5050503A2053656E6420BD
:10BE00004C435020434F4E4649475F5245510D0A1F
:10BE100000000000ED0200200D0A5050503A20535F
:10BE2000656E642050415020434F4E4649475F5253
:10BE300045512C207573723A2025732C207077643D
:10BE40003A2025730D0A00000D0A5050503A205335
:10BE5000656E64204950435020434F4E4649475F2A
:10BE60005245510D0A000000E6020020E3020020C6
:10BE70000D0A5050503A2053656E64205445524D7F
:10BE80005F41434B0D0A00000D0A5050503A2053B9
:10BE9000656E6420434F4E4649475F4E41434B2FEA
:10BEA00052454A0D0A0000000D0A5050503A2053E6
:10BEB000656E6420434F4E4649475F41434B0D0A30
:10BEC000000000000D0A5050503A204C43502055BD
:10BED000700D0A000D0A5050503A20504150205524
:10BEE000700D0A000D0A5050503A2049504350201E
:10BEF00055700D0A00000000EE020020F7490968A5
:10BF0000085CF749887004F10D00F4490968085C81
:10BF1000F349C870FFF73CFC04F10D00EF490968D4
:10BF2000085C009004F10C00EC4E3668335C401E57
:10BF3000EA4E3668325C401EE84E3668315CE9A055
:10BF4000F9F78FF904F10800E4490968085C8128D1
:10BF500015D104F10D00E1490968085C009004F175
:10BF60000C00DE4E3668335C401EDC4E3668325CB8
:10BF7000401EDA4E3668315CE2A0F9F772F904F13E
:10BF80000800D6490968085C832815D104F10D0022
:10BF9000D2490968085C009004F10C00CF4E366865
:10BFA000335C401ECD4E3668325C401ECB4E366848
:10BFB000315CDCA0F9F755F9C8480068C079801FEA
:10BFC000C6490968C871A01DC4B2C4480068C079D8
:10BFD00000283FF787AE0020DA4908700620DA49CA
:10BFE000087000E000BF00BFF8BD10B5044624B1E2
:10BFF000012C0ED0022C1FD117E0D4A0F9F731F993
:10C0000001221146D74800F031F80020CE490870CF
:10C0100013E0D5A0F9F725F902220121D84800F054
:10C0200025F80020C849087007E0D6A0F9F719F9EB
:10C030000020C549087000E000BF00BF10BD10B56A
:10C04000044624B1012C06D0022C0CD107E0D3A069
:10C05000F9F707F908E0D7A0F9F703F904E0DBA046
:10C06000F9F7FFF800E000BF00BF10BD70B504464F
:10C070000D46164620780A2830D2DFE800F0053059
:10C080006091D5EFEEEDECEB0020D6490870102D55
:10C0900023D2DFE805F008120B1113141516171838
:10C0A000191A1B1C1D1E0220207016E00120207092
:10C0B0003046FFF7C4FF10E00FE000BF00BF00BF35
:10C0C00000BF00BF00BF00BF00BF00BF00BF00BF78
:10C0D00000BFC5A0F9F7C5F800BF00BFECE2002023
:10C0E000C0490870102D28D2DFE805F0081710119C
:10C0F00018191A1B1C1D1E1F202122230520BF49B1
:10C100000870FFF7C4FC0620207016E015E03046EA
:10C11000FFF76BFF002020700FE000BF00BF00BFE3
:10C1200000BF00BF00BF00BF00BF00BF00BF00BF17
:10C1300000BFADA0F9F795F800BF00BFBCE200203A
:10C14000A8490870102D29D2DFE805F022080B134A
:10C1500023241415161718201D191A2100202070E9
:10C160001CE00520A5490870FFF791FC062020700F
:10C1700014E013E000BF00BF00BF00BF00BF00BF5E
:10C18000FFF741FD0AE0FFF77DFC07E000BF05E097
:10C1900000BF00BF94A0F9F764F800BF00BF8BE2B6
:10C1A000002090490870102D3CD2DFE805F03508DA
:10C1B0000E0F3637121C2627282B2C2F3034012047
:10C1C00020703046FFF73BFF2CE02BE00220207070
:10C1D00028E0052089490870FFF759FCFFF732FD78
:10C1E000082020701EE0052084490870FFF74FFCEE
:10C1F000FFF71DFD0620207014E000BF00BFFFF711
:10C2000002FD0FE00EE0FFF73DFC0BE00AE03046D8
:10C21000FFF7EBFE06E005E000BF00BF72A0F9F7F4
:10C2200020F800BF00BF47E2102D30D2DFE805F054
:10C23000080C0F17181B23242526291D2C271C2822
:10C2400069A0F9F70EF822E0002020701FE0052019
:10C2500020701CE0BDE171E12BE1DFE019E016E0A8
:10C26000FFF7DAFB13E000BF00BF3046FFF7BDFE6B
:10C27000022020700BE000BF00BF00BF00BF00BF66
:10C2800005E0FFF7C0FC02E0FFF7FCFB00BF00BFCA
:10C2900012E2102D0CD2DFE805F0080C0F12151871
:10C2A000B3B4B5B6B919BCB81AB74FA0F8F7D9FFEF
:10C2B000B2E001202070AFE005202070ACE0042047
:10C2C0002070A9E0FFF7A8FBA6E000BF00BF304642
:10C2D000FFF78BFE032020709EE00000DC020020B0
:10C2E000EE0200200D0A5050503A204C6F63616CF2
:10C2F0002049503A2025752E25752E25752E257539
:10C300000D0A00000D0A5050503A20505249204466
:10C310004E533A2025752E25752E25752E25750D23
:10C320000A0000000D0A5050503A20534543204463
:10C330004E533A2025752E25752E25752E25750D03
:10C340000A000000E1020020F50200200D0A505012
:10C35000503A204C43502046696E69736865640DFD
:10C360000A000000F30200200D0A5050503A2050FD
:10C3700041502046696E69736865640D0A000000CB
:10C38000F40200200D0A5050503A204950435020EA
:10C3900046696E69736865640D0A00000D0A5050A5
:10C3A000503A204C435020537461727465640D0AF6
:10C3B000000000000D0A5050503A205041502053C8
:10C3C0007461727465640D0A000000000D0A50501B
:10C3D000503A204950435020537461727465640D83
:10C3E0000A000000EC0200200D0A496C6C656761D0
:10C3F0006C206576656E740D0A000000E302002073
:10C4000000BF00BF00BF00BF00BF05E0FFF7FBFBA0
:10C4100002E0FFF737FB00BF00BF4DE1102D46D211
:10C42000DFE805F0080D10141C1F252A2D333912E2
:10C430003C133F11AFF25000F8F713FF37E0012033
:10C44000207034E000BF00BF00BF30E00520FE498F
:10C450000870FFF7E1FA0420207028E0FFF717FBCF
:10C4600025E03046FFF7C1FD032020701FE0FFF7F5
:10C47000E9FB082020701AE0FFF7D9FB17E0052040
:10C48000F14908700720207011E00520EE4908707E
:10C49000FFF7FDFA0BE0FFF7B6FB08E0FFF7F2FA53
:10C4A00005E03046FFF7A1FD0320207000BF00BF6C
:10C4B00002E1102D40D2DFE805F0080D1011191E21
:10C4C000252D3031363C3B3D1F3EAFF2E400F8F7FE
:10C4D000C8FE31E0012020702EE02DE00520DA4971
:10C4E0000870FFF799FA0420207025E0FFF7CFFAD3
:10C4F0000620207020E000BF3046FFF776FD0320C5
:10C50000207019E0FFF79EFB3046FFF7AFFB0920D4
:10C51000207011E0FFF78BFB0EE000BFFFF7B7FACA
:10C520000620207008E0FFF76EFB0620207003E075
:10C5300002E000BF00BF00BF00BFBDE0102D46D22B
:10C54000DFE805F0080D1011191C23262B343A42A0
:10C550003F431D44AFF27010F8F783FE37E001202F
:10C56000207034E033E00520B7490870FFF754FA33
:10C57000042020702BE0FFF78AFA28E000BF304645
:10C58000FFF733FD0320207021E0FFF75BFB1EE087
:10C59000FFF74DFB0620207019E00520AA4908701E
:10C5A0003046FFF763FB0920207010E00520A64904
:10C5B0000870FFF76CFA0AE0FFF725FB06202070F1
:10C5C00005E0FFF75FFA02E000BF00BF00BF00BF59
:10C5D00072E000209D490870102D6BD2DFE805F055
:10C5E000080F1516090A212B35363E50585B5C673B
:10C5F00000BF00BFAFF21020F8F733FE5AE030461C
:10C60000FFF716FA0120207054E053E03046FFF7A0
:10C610000FFA05208C490870FFF7FEF904202070FE
:10C6200048E03046FFF704FAFFF731FAFFF70AFB5C
:10C63000082020703EE03046FFF7FAF9FFF727FAAE
:10C64000FFF7F5FA0620207034E000BF3046FFF710
:10C65000EFF9FFF71CFA062020702BE03046FFF7B9
:10C66000E7F900207849087001207849087006F041
:10C67000D4FA77490860FFF7C6FA0520207019E060
:10C680003046FFF7D5F9FFF702FA0620207011E0D7
:10C69000FFF7F8F90EE00DE03046FFF7C9F9052085
:10C6A00069490870FFF7B8F90520207002E0FFF72C
:10C6B0009FF900BF00BF00BF00BF70BD2DE9F04172
:10C6C0006448006800F10804634D00276148006871
:10C6D000C079001FC6B2FF20A5F108010870032031
:10C6E0004870C02088702120C8705A48006840797E
:10C6F00048710420C8718DE02078092877D2DFE8DE
:10C7000000F0830527365877837B7F00A078E17897
:10C7100040EA012840F2DC50804515D2022F13DA9E
:10C720000127012005F8010B042005F8010B052065
:10C7300005F8010BDC2005F8010B47480838C079E3
:10C74000001D45490839C871241D301FC6B260E07C
:10C75000A07840B9E07830B9207920B9607910B973
:10C7600000203E490870A41DB01FC6B251E0A07859
:10C77000C02802D1E078232815D0022F13DA012730
:10C78000032005F8010B042005F8010BC02005F873
:10C79000010B232005F8010B2F480838C079001D34
:10C7A0002D490839C8716078301AC6B260780444DF
:10C7B0002FE0607820B92AA0F8F753FD002628E082
:10C7C000022F00D0244D022762782146284606F029
:10C7D00088FB21480838C079617808441E49083927
:10C7E000C8716078301AC6B26078044411E00BE07A
:10C7F000B01FC6B2A41D0CE0B01EC6B2A41C08E057
:10C80000B01EC6B2A41C04E01CA0F8F72AFD002646
:10C8100000BF00BF002E7FF46FAF3846BDE8F08147
:10C8200010B50C48006880780A490968C97840EA60
:10C830000124B4F5045F70D0B4F5065F6ED0B4F592
:10C84000075F2BD026E00000E3020020EC0200206E
:10C85000E8020020DC02002068280020E20200201C
:10C860000D0A5050503A204C4350204F7074696F5D
:10C870006E206C656E3D3D300D0A00000D0A505073
:10C88000503A20496E76616C6964204F7074696F0C
:10C890006E0D0A00B4F50F5F7AD1ADE0F3A0F8F7A2
:10C8A000E0FCF648006800790C2872D2DFE800F05E
:10C8B0009906264162879999997E7D7CAFF6BC20C6
:10C8C000F8F7CFFCFFF7FAFE20B1012808D00228C4
:10C8D00012D10BE000220621E948FFF7C7FB0BE06D
:10C8E00000220721E648FFF7C1FB05E000220721EF
:10C8F000E348FFF7BBFB00BF00BF7BE0AFF64C2077
:10C90000F8F7AFFCDD4800684079DE4909788842D5
:10C9100005D0DDA0F8F7A5FC6CE022E1D1E0AFF294
:10C92000A800F8F79EFC00220821D548FFF79EFBDF
:10C9300060E0D9A0F8F795FCD04800684079D1496B
:10C940000978884203D0D0A0F8F78BFC52E0AFF210
:10C95000D800F8F786FC5922C8480168D24806F08A
:10C96000C0FA0120D149087000220921C448FFF70C
:10C970007DFB3FE0CEA0F8F774FCC048006840792A
:10C98000C0490978884205D0BFA0F8F76AFC31E0B9
:10C99000EDE026E0AFF22010F8F763FC0022092159
:10C9A000B748FFF763FB25E000BF00BFC4A0F8F75E
:10C9B00058FC00220F21B248FFF758FB1AE0C8A02C
:10C9C000F8F74FFC5922AD480168B74806F089FADC
:10C9D0000620B549087100220A21A948FFF746FB45
:10C9E00008E0C2A0F8F73DFC00220C21A448FFF7A4
:10C9F0003DFB00BF00BFBAE0BFA0F8F732FC9F4884
:10CA000000680079012806D002280ED0032828D01B
:10CA1000042854D13CE0AFF61440F8F722FC012280
:10CA20000621B948FFF722FB49E0B8A0F8F719FC46
:10CA300092480068407993490978884203D092A0CF
:10CA4000F8F70FFC3BE0A5A0F8F70BFC012206214C
:10CA5000AD48FFF70BFB01220821AB48FFF706FBAF
:10CA60002DE0ADA0F8F7FDFB8448006840798549CA
:10CA70000978884203D084A0F8F7F3FB1FE097A061
:10CA8000F8F7EFFB012209219F48FFF7EFFA16E0C4
:10CA9000A4A0F8F7E6FB794800684079794909785D
:10CAA000884203D078A0F8F7DCFB08E08BA0F8F709
:10CAB000D8FB012208219448FFF7D8FA00BF00BF35
:10CAC00055E09BA0F8F7CDFB6C4800680079012881
:10CAD00004D002282CD0032841D109E0AFF6DC4075
:10CAE000F8F7BFFB022206219648FFF7BFFA36E0AF
:10CAF00089A0F8F7B6FB6148006840796149097878
:10CB0000884203D060A0F8F7ACFB28E073A0F8F7E8
:10CB1000A8FB592259480168634806F0E2F9012050
:10CB200062490870022209218648FFF79FFA16E041
:10CB300076A0F8F796FB514800684079514909788A
:10CB4000884203D050A0F8F78CFB08E063A0F8F708
:10CB500088FB022208217B48FFF788FA00BF00BF4C
:10CB600005E079A0F8F77DFBFEF72EFE00BF00BFC1
:10CB700010BDF8B5002600276EE07748007810B1A8
:10CB8000012866D10DE09DF800007E2800D060E00D
:10CB90000020724908807249087001206E490870AF
:10CBA00057E09DF800007E2834D16C4800880428A6
:10CBB0002CDB002031490968684A1288885467488C
:10CBC0000088811E2D480068FEF786FE04466348F3
:10CBD0000088801E29490968095C60480088401E59
:10CBE000264A1268105C41EA0025AC420BD1FFF7DF
:10CBF00017FE5A48068801275AA0F8F732FB002092
:10CC00005549087002E05BA0F8F72BFB0020524961
:10CC100008701EE09DF800007D2803D101205049D6
:10CC2000087016E04E48007838B19DF8000080F09A
:10CC30002000009000204A4908709DF800104748E5
:10CC400002880088401C454B18800C4800688154BD
:10CC500000BF00BF07B106E069464D48006805F017
:10CC6000F1FE002889D000BF3046F8BD0D0A5050B3
:10CC7000503A20476F74204C43502000DC020020C3
:10CC8000F2020020E60200202C204F7574206F660F
:10CC90002073796E630D0A00434F4E4649475F4E3D
:10CCA00041434B0D0A00000060280020ED020020E7
:10CCB000434F4E4649475F52454A0D0A0000000067
:10CCC0004543484F5F5245512F4543484F5F5245BA
:10CCD000504C592F444953435F5245510D0A0000AF
:10CCE0005445524D5F5245510D0A0000554E4B4E72
:10CCF0004F574E0D0A0000000D0A5050503A204781
:10CD00006F74205041502000F3020020434F4E46E4
:10CD100049475F41434B0000434F4E4649475F4EF2
:10CD200041434B00434F4E4649475F52454A00003E
:10CD30000D0A5050503A20476F74204950435020FC
:10CD400000000000F40200200D0A5050503A204725
:10CD50006F742049500D0A00F6020020E402002002
:10CD6000E00200200D0A5050503A20476F740D0A1F
:10CD7000000000000D0A5050503A204643532066F0
:10CD800061696C732C20646973636172640D0A00BD
:10CD9000D003002010B56748007840B105F03DFF92
:10CDA00065490968401A41F28831884200D210BDB5
:10CDB00005F033FF6049086060480078F8B160A072
:10CDC000F8F74FFA63480078022804D0032808D007
:10CDD000042812D10BE0002204215F48FFF746F936
:10CDE0000CE0012204215D48FFF740F906E0022231
:10CDF00004215B48FFF73AF900E000BF1FE059A0AB
:10CE0000F8F72FFA53480078022804D0032808D0F6
:10CE1000042812D10BE0002205214F48FFF726F924
:10CE20000CE0012205214D48FFF720F906E002221F
:10CE300005214B48FFF71AF900E000BF00BF00BF13
:10CE4000B5E710B500204C4908704C490870012026
:10CE50004B490870052039490870FF20494908707E
:10CE60000020494908703349087002203949087088
:10CE70000020394908703949087039490870002282
:10CE800002213548FFF7F2F8002211463248FFF739
:10CE9000EDF810BD10B52F480078072835D2DFE82F
:10CEA00000F004121C1D1E34290004F05DF830B19E
:10CEB00004F065F818B104F069F804F058F801209E
:10CEC0002449087022E004F04FF828B104F05AF821
:10CED000FFF7B7FFFDF71AFB18E000BF00BF04F033
:10CEE0003FF810B10020FEF7A3FDFFF753FFFFF757
:10CEF00040FE0BE004F034F810B10020FEF798FD7E
:10CF0000FFF737FEFEF767FC00E000BF00BF002020
:10CF100010BD10B50020FEF78BFD00200D490870F4
:10CF200010BD0C480078062801D101207047002070
:10CF3000FCE70000EC020020E8020020E3020020F1
:10CF40000D0A5050503A204576656E7420544F2B90
:10CF50000D0A0000F5020020F2020020F30200207A
:10CF6000F40200200D0A5050503A204576656E7448
:10CF700020544F2D0D0A0000F6020020E002002090
:10CF8000E2020020E6020020ED020020F0B5054696
:10CF90000A462E6840F2B271F748B6FBF0F700FB84
:10CFA0001764B6FBF0F33C20B4FBF0F700FB17402E
:10CFB00010604FF46160B4FBF0F700FB17403C27B2
:10CFC000B0FBF7F050604FF46160B4FBF0F090609C
:10CFD000181D0727B0FBF7FC07FB1C0090611BE046
:10CFE0000846CF1701EB9777BF10B1EB87070FD13A
:10CFF000642791FBF7FC07FB1C1737B94FF4C87780
:10D0000091FBF7FC07FB1C1717B94FF4B77701E04A
:10D0100040F26D17DB1B491CCF1701EB9777BF1050
:10D02000B1EB87070FD1642791FBF7FC07FB1C17B7
:10D0300037B94FF4C87791FBF7FC07FB1C1717B9FA
:10D040004FF4B77701E040F26D179F42C8D9A1F2C3
:10D050006C705061D3610020106125E00846CF1745
:10D0600001EB9777BF10B1EB87070ED1642791FBD7
:10D07000F7FC07FB1C1737B94FF4C87791FBF7FC97
:10D0800007FB1C170FB9012700E0002707EB470734
:10D09000DFF8E8C20CEB0717D2F810C057F82C7075
:10D0A000DB1B1069401C1061CF1701EB9777BF1095
:10D0B000B1EB87070ED1642791FBF7FC07FB1C1728
:10D0C00037B94FF4C87791FBF7FC07FB1C170FB972
:10D0D000012700E0002707EB4707DFF8A0C20CEBB1
:10D0E0000717D2F810C057F82C709F42B6D9581CB9
:10D0F000D060002010621046F0BD38B504460D46E1
:10D100009F4920680968401A009029466846FFF741
:10D110003DFF38BD2DE9FC4F01464FF03C09086842
:10D1200090FBF9F0D1F80490484448604FF03C0976
:10D13000086890FBF9FA09FB1A00086008680028E3
:10D1400005DA08683C3008604868401E48604FF0C7
:10D150003C09486890FBF9F0D1F808904844886091
:10D160004FF03C09486890FBF9FA09FB1A00486047
:10D170004868002805DA48683C3048608868401EE6
:10D1800088604FF01809886890FBF9F3886890FB75
:10D19000F9FA09FB1A0088608868002803DA8868B1
:10D1A000183088605B1E4FF00C09086990FBF9F09D
:10D1B000D1F81490484448614FF00C09086990FB7D
:10D1C000F9FA09FB1A0008610869002805DA0869FC
:10D1D0000C3008614869401E4861C868401E03441D
:10D1E0003FE00869401E086104D54869401E486157
:10D1F0000B200861D1F8149009F26C704FEAE079C5
:10D2000000EB99794FEAA909B0EB89091CD1D1F853
:10D21000149009F26C794FF0640A99FBFAFB0AFB4F
:10D220001B99B9F1000F0CD1D1F8149009F26C7967
:10D230004FF4C87A99FBFAFB0AFB1B99B9F1000F6E
:10D2400002D14FF0010901E04FF0000909EB490953
:10D25000DFF828A10AEB0919D1F810A059F82A9093
:10D260004B44002BBDDB41E0D1F8149009F26C7007
:10D270004FEAE07900EB99794FEAA909B0EB890907
:10D280001CD1D1F8149009F26C794FF0640A99FB23
:10D29000FAFB0AFB1B99B9F1000F0CD1D1F81490DD
:10D2A00009F26C794FF4C87A99FBFAFB0AFB1B99D7
:10D2B000B9F1000F02D14FF0010901E04FF0000970
:10D2C00009EB4909DFF8B4A00AEB0919D1F810A05D
:10D2D00059F82A90A3EB09030869401C08610C283F
:10D2E00004D1002008614869401C4861D1F81490BD
:10D2F00009F26C704FEAE07900EB99794FEAA909DD
:10D30000B0EB89091CD1D1F8149009F26C794FF077
:10D31000640A99FBFAFB0AFB1B99B9F1000F0CD1C7
:10D32000D1F8149009F26C794FF4C87A99FBFAFBA2
:10D330000AFB1B99B9F1000F02D14FF0010901E07E
:10D340004FF0000909EB4909DFF830A00AEB091991
:10D35000D1F810A059F82A90994585DD581CC8606D
:10D3600040F2B274A4F26C70D1F81490814509DADD
:10D370004FF0FF30BDE8FC8F805101005050010894
:10D3800000030020002500BF0026486900F26C72EF
:10D39000101BDFF83092484500DD761C101B40F270
:10D3A0006D1900FB09F3101B6FF00049A9EB03098D
:10D3B0004FEAE07A00EB9A7A4FF0010B0BEBAA0AE6
:10D3C000D14501DA701C06464FEAE27A02EB9A7AFE
:10D3D0004FEAAA0A0192B2EB8A0A16D091464FEAA6
:10D3E000E27A02EB9A7A4FEAAA0AA2EB8A0A20466C
:10D3F0004FEAE47B04EB9B7B4FEAAB0BA4EB8B0B7C
:10D40000DA4502DA4FF0010B01E04FF0000BA2EB1E
:10D41000040A4FEAEA7ECDF800A00AEB9E7A0BEBF5
:10D42000AA0A5344101B4FF0640990FBF9F092FBD9
:10D43000F9FA09FB1A29B9F1000F10D04FF064096D
:10D4400092FBF9FA09FB1A294FF0640A94FBFAFBE4
:10D450000AFB1B4AD14502DA4FF0010901E04FF007
:10D46000000948441B1A101B4FF4C87990FBF9F0CF
:10D4700092FBF9FA09FB1A29B9F1000F10D04FF409
:10D48000C87992FBF9FA09FB1A294FF4C87A94FB80
:10D49000FAFB0AFB1B4AD14502DA4FF0010901E011
:10D4A0004FF00009484403440027BC462BE01046D7
:10D4B0004FEAE27902EB99794FEAA909B2EB8909BF
:10D4C00014D14FF0640992FBF9FA09FB1A29B9F15A
:10D4D000000F08D14FF4C87992FBF9FA09FB1A2919
:10D4E000B9F1000F02D14FF0010901E04FF000093E
:10D4F00009EB4909DFF8D0A00AEB091959F82C907B
:10D500004F440CF1010C08696045D0DCC868401E2E
:10D510000744D81900D5761C3B44CF61181D4FF045
:10D52000070990FBF9FA09FB1A008861D1E90109A2
:10D53000C9EB091900EB8900C0EB0010D1F800908D
:10D5400009EB80056FF00040401BDFF8809090FBF6
:10D55000F9F0984200DA761C40F2A320584305EB1C
:10D56000C0151B480068002807DD194800686FF0E7
:10D570000049A9EB0000A84208DB15480068002814
:10D5800005DA134800684042854200DA761C1048EC
:10D5900000680544086A18B10E48D0F8008001E020
:10D5A0004FF00008A84500DD761CA5EB080516B174
:10D5B0004FF0FF30DEE6AD4202D04FF0FF30D9E64B
:10D5C0002846D7E67CC6590050500108805101001A
:10D5D00000030020FC02002010B58CB004461CB9EA
:10D5E0004FF0FF300CB010BD94F90700019094F992
:10D5F0000600029094F90500039094F9030004904A
:10D6000094F90400079094F90200012808DB94F9CA
:10D6100002000C2804DC94F90200401E059001E091
:10D620000020DFE7B4F9000040F2DC7188420BDB38
:10D63000B4F9000040F63301884205DCB4F900007B
:10D64000A0F26C70069001E00020CBE7002009906A
:10D6500001A8FFF75FFDC5E710B5122080494871AA
:10D660000F2088710020C87140F2DE70088004200D
:10D6700088701320C8700846FFF7AEFF794908602C
:10D6800010BD78490968814208D276490968411A73
:10D690000A290BD30121744A116007E07149096816
:10D6A000091A0A2902D301216F4A11606F490860E3
:10D6B000704730B58DB005460C4694F907000290CE
:10D6C00094F90600039094F90500049094F903007E
:10D6D000059094F90400089094F90200012808DBF1
:10D6E00094F902000C2804DC94F90200401E069014
:10D6F00002E000200DB030BDB4F9000040F2DC7152
:10D7000088420BDBB4F9000040F63301884205DCA7
:10D71000B4F90000A0F26C70079001E00020E9E786
:10D7200000200A9002A8FFF7F5FC019050490198EB
:10D7300009680844019002A901A8FFF727FC029894
:10D7400040B2E871039840B2A871049840B2687181
:10D75000059840B2E8700898401C40B228710698BD
:10D76000401C40B2A870079800F26C7000B228808C
:10D770000020BFE730B58DB004460D46A869029081
:10D780006869039028690490E8680590A868069085
:10D790006868079000200A9002A8FFF7BBFC019080
:10D7A0003349019809680844019002A901A8FFF7CC
:10D7B000EDFB029840B2E071039840B2A07104986A
:10D7C00040B26071059840B2E0700898401C40B2C9
:10D7D00020710698401C40B2A070079800F26C704F
:10D7E00000B2208000200DB030BD13B58CB00446CF
:10D7F0001CB94FF0FF300EB010BD01A90DA8FFF706
:10D80000C5FB019840B2E071029840B2A071039844
:10D8100040B26071049840B2E0700798401C40B27A
:10D8200020710598401C40B2A070069800F26C7000
:10D8300000B220800020DEE770B505460C4615B921
:10D840004FF0FF3070BD0CB90020FBE72846FFF712
:10D85000C3FE061931462846FFF7C7FF0020F1E74F
:10D8600018030020040300201003002014030020EC
:10D870000803002008B54FF0FF3001233222114683
:10D8800000903A48F8F7AEFB3948006820F4700081
:10D89000374908600846006840F4A000086020206E
:10D8A0003349143108604FF4FA6005F0BDF92020C7
:10D8B0002F49103108602F48006820F070402D4932
:10D8C00008600846006840F0A04008602848001D35
:10D8D000006820F470202649091D08600846006889
:10D8E00040F4A02008600846006820F070600860DE
:10D8F0000846006840F0807008604FF480401C4982
:10D900001431086080100860642005F08DF94FF430
:10D910008050174910310860642005F085F94FF4F4
:10D92000004014490C310860642005F07DF94FF483
:10D93000004010491031086040F2DC5005F074F9E5
:10D940004FF400400B490C3108604FF47A7005F039
:10D950006BF9002008BD7047704710B5044621469A
:10D9600005480068FAF74EF810BD0000140D0020BD
:10D97000000C0140040801403002002010B5EDA069
:10D98000F7F76FFC10BD10B52E21F54805F0C2FA6F
:10D990003C20F34988850020F249087010BD70B51D
:10D9A00004460D46EF480078D8B9D4B12078C0B10C
:10D9B0002146ED4805F00FFB0020E94981F82700DA
:10D9C000012081F82100002081F8230081F8240043
:10D9D000488108700846458547F23051E34805F014
:10D9E0002FF970BD10B5DF48007801280AD1DC4955
:10D9F00081F824004FF4E160488547F23051DB485C
:10DA000005F01EF910BD0120D54981F823007047AB
:10DA100000207047D348007801280BD0D148007807
:10DA2000082807D0CF480078042803D0CD480078D4
:10DA3000072801D1012070470020FCE7C948007881
:10DA40007047C84800780D3805280CD2DFE800F090
:10DA500003040506070000BF00BF00BF00BF002091
:10DA6000C049087000BF00BF704700B5FFF7E9FF6D
:10DA700000BD00B585B002F0CDFA062809D000201F
:10DA8000B7498871B7490870FFF77DFF002005B0DE
:10DA900000BDB7480078012805D1B64800780428B1
:10DAA00001D00020F3E7B44805F0D5F808B9FFF736
:10DAB0006AFFAC480078132870D2DFE810F013003A
:10DAC0002C017000A900CB00440278029C02E602FF
:10DAD00059037B03B703C803DB04E204E904F00441
:10DAE000F704FE04A549A44805F0AAF89C488079EB
:10DAF000A0B16421A24805F0A3F842F21071A14838
:10DB000005F09EF84EF660219F4805F099F89FA019
:10DB1000F7F7A7FB0120934908703FE0904890F881
:10DB20002100002834D002F004FC88B100208C4988
:10DB300081F8210081F8280041F28831924805F0EF
:10DB40007FF89BA0F7F78DFB02208649087025E03F
:10DB5000864805F080F878B90020814981F82100D5
:10DB600042F21071884805F06BF89BA0F7F779FB3B
:10DB700011207C49087011E0814805F06CF868B903
:10DB800064217F4805F05CF81B2003F0DDF905E017
:10DB90007348C07910B100207149C87106E202F0E3
:10DBA00015FF50B900206E4981F8270093A0F7F7C0
:10DBB00058FB03206B49087029E0734805F04BF8C7
:10DBC00058B142F21071704805F03AF882A0F7F7A8
:10DBD00048FB11206349087019E0614890F827104C
:10DBE00090F82700401C5E4A82F8270003290EDBCC
:10DBF0000020114681F8270042F21071624805F0BA
:10DC00001FF875A0F7F72DFB112056490870C5E7DE
:10DC10001A2003F099F9544880A1002240F6B83345
:10DC2000CDE90132CDE903107E48006800907E48BE
:10DC3000642200210368084602F087FB40F6B831F1
:10DC4000514804F0FDFF79A0F7F70BFB042045498C
:10DC50000870A3E702F0DDFB032822D1404890F8CA
:10DC6000230030B17AA0F7F7FCFA09203D4908708B
:10DC700050E000203A49887142F210717D4804F06A
:10DC8000DFFF3748408D4FF47A7200FB02F13E48C7
:10DC900004F0D6FF78A0F7F7E4FA082031490870BD
:10DCA00038E0394804F0D7FF18B102F0B2FB02287F
:10DCB00030D12B4890F8230058B142F2107132480D
:10DCC00004F0BEFF74A0F7F7CCFA0D2025490870C8
:10DCD00020E0234890F8271090F82700401C204AA5
:10DCE00082F82700032906DA44A0F7F7BAFA0320DE
:10DCF0001C4908700EE00020194981F8270042F203
:10DD00001071214804F09CFF33A0F7F7AAFA112004
:10DD100014490870E1E3124890F8200048B100204F
:10DD20000F4981F8200042F21071174804F088FF73
:10DD3000C2E0C8E00D0A414D504D5F4C49423A23C4
:10DD400043414C4C232041545F436D6443616C6CF0
:10DD5000506172736572496E697428293B0D0A001F
:10DD6000DC28002020030020542900203C2900202A
:10DD7000A5030020A60300204829002040771B00AF
:10DD8000242900200C290020182900200D0A414DCB
:10DD9000504D5F4C49423A2343414C4C2320494E5D
:10DDA000434F4D494E475F43414C4C0D0A00000024
:10DDB0000D0A414D504D5F4C49423A2343414C4C72
:10DDC000232053455455505F53544152545F4341AF
:10DDD0004C4C0D0A000000000D0A414D504D5F4CA7
:10DDE00049423A2343414C4C2320554E535543431B
:10DDF0004553535F43414C4C0D0A00000D0A414D01
:10DE0000504D5F4C49423A2343414C4C23205354DC
:10DE10004152545F43414C4C0D0A0000415444258B
:10DE2000733B0D00B8030020B40300200D0A414DE0
:10DE3000504D5F4C49423A2343414C4C23205741BB
:10DE400049545F53544152545F43414C4C0D0A00B6
:10DE50000D0A414D504D5F4C49423A2343414C4CD1
:10DE6000232048414E475F55505F43414C4C0D0ABB
:10DE700000000000302900200D0A414D504D5F4C3C
:10DE800049423A2343414C4C2320494E5F43414C85
:10DE90004C494E470D0A00000D0A414D504D5F4C54
:10DEA00049423A2343414C4C2320454E445F434171
:10DEB0004C4C0D0A00000000F8A0F7F7D2F90E2034
:10DEC000FE49087009E3FE4890F8230038B1AFF22C
:10DED0008000F7F7C6F90920F849087028E0F848EB
:10DEE00090F8220018B9F64890F8240000B3F448DE
:10DEF000C079E8B102F01DFA78B10020F04981F84C
:10DF0000240043F69821EF4804F09AFEEEA0F7F7BC
:10DF1000A8F90520E94908700AE0F54804F09BFEDD
:10DF200030B96421F24804F08BFE1B2003F00CF89A
:10DF3000E44804F090FE28B9D8A0F7F792F90E2033
:10DF4000DE490870C9E202F041FD38B90020DC4921
:10DF500081F825000620D949087027E0D94804F047
:10DF60007AFE40B142F21071D64804F069FE0D20ED
:10DF7000D24908701AE0D24890F8251090F8250090
:10DF8000401CCF4A82F8250003290FDB00201146F0
:10DF900081F8250042F21071CA4804F051FEAFF238
:10DFA0000810F7F75EF90D20C449087095E21A20B1
:10DFB00002F0CAFFCFA0002140F6B832CF4B1B6859
:10DFC000CDE90032CDE90210CD486422036808464D
:10DFD00002F0BBF970B94FF4FA6004F025FE40F688
:10DFE000B831B84804F02CFEC6A0F7F73AF907207C
:10DFF000B249087071E2B24890F8200078B1002070
:10E00000AF4981F8200042F21071AE4804F018FECA
:10E01000A2A0F7F726F90E20A849087034E002F014
:10E02000F8F903281CD1A64890F8230038B1AFF2C4
:10E03000E010F7F716F90920A049087024E0AFF2C4
:10E04000C810F7F70EF908209C4908709C48808D8D
:10E050004FF47A7200FB02F19A4804F0F1FD13E0EC
:10E06000984804F0F8FD18B102F0D3F902280BD15A
:10E0700042F21071934804F0E3FDAFF2A420F7F7E9
:10E08000F0F811208D49087027E28D4890F82300A0
:10E0900018B98C4804F0DFFD78B902F04AF900287D
:10E0A00065D00020864981F82300AFF25C20F7F7A5
:10E0B000D8F809208149087059E08148007A00B3F6
:10E0C00000207F4908724871488198A000214FF4D0
:10E0D0007A728A4B1B68CDE90032CDE9021088487C
:10E0E00064220368084602F030F94FF4FA7175486B
:10E0F00004F0A6FD90A0F7F7B4F80C206F49087063
:10E1000035E06F48C07870B100206D49C87042F2A8
:10E1100010716C4804F094FD90A0F7F7A2F80F205E
:10E120006649087023E06648007970B100206449B0
:10E13000087142F21071634804F082FD8FA0F7F776
:10E1400090F810205D49087011E05D48407970B189
:10E1500000205B49487142F210715A4804F070FD8A
:10E16000AFF28C30F7F77DF8112054490870B4E114
:10E170001A2002F0E9FE8AA002214FF4FA628AA373
:10E18000CDE90032CDE902105D4864220021036828
:10E19000084602F0DAF801208649087040F6B831E6
:10E1A000484804F04DFD84A0F7F75BF80A20434986
:10E1B000087092E102F02DF903280BD140F6B83136
:10E1C000404804F03DFD86A0F7F74BF80B203B4993
:10E1D00008702AE03B4804F03EFD18B102F019F93E
:10E1E000022822D1364890F8261090F82600401CCC
:10E1F000334A82F82600052907DAAFF2AC30F7F788
:10E2000030F809202D4908700FE000202C4981F8D2
:10E21000260042F210712B4804F012FDAFF2883054
:10E22000F7F71FF80D202549087056E1254804F03E
:10E2300012FD58B942F21071224804F001FDAFF20C
:10E24000A830F7F70EF80D201C49087045E102F0E0
:10E25000E0F8032804D01B4804F0FDFC00281BD183
:10E2600017484079B0B100201549487108464089E7
:10E27000B0F5917F0FD1644804F0EDFC58B110481F
:10E2800090F8271090F82700401C0D4A82F82700CC
:10E290000329BBE0E1E0D3E0EBE000000D0A414DD3
:10E2A000504D5F4C49423A2343414C4C23204D4949
:10E2B00053535F43414C4C0D0A00000020030020E3
:10E2C000DC280020182900200D0A414D504D5F4CDC
:10E2D00049423A2343414C4C232053455455505F07
:10E2E000414E535745525F43414C4C0D0A000000CC
:10E2F000242900204154410D00000000B8030020F3
:10E30000B40300200D0A414D504D5F4C49423A2361
:10E3100043414C4C2320574149545F414E5357458C
:10E32000525F43414C4C0D0A0000000041542B4306
:10E330004545520D000000000D0A414D504D5F4C07
:10E3400049423A2343414C4C2320434845434B5FC9
:10E35000454E445F43414C4C0D0A00000D0A414DAF
:10E36000504D5F4C49423A2343414C4C2320425587
:10E3700053595F43414C4C0D0A0000000D0A414DBA
:10E38000504D5F4C49423A2343414C4C23204E4F61
:10E390005F414E535745525F43414C4C0D0A0000BC
:10E3A0004154480D000000004E4F20434152524955
:10E3B00045520000230300200D0A414D504D5F4C93
:10E3C00049423A2343414C4C2320574149545F482A
:10E3D000414E475F55505F43414C4C0D0A000000D1
:10E3E0000D0A414D504D5F4C49423A2343414C4C3C
:10E3F0002320454E535552455F48414E475F555087
:10E400005F43414C4C0D0A003029002007DAAFF27F
:10E410001460F6F726FF0320F749087029E0002072
:10E42000F64981F8270042F21071F54804F008FC23
:10E43000AFF25C60F6F715FF1120EF49087018E0A5
:10E4400042F21071EE4804F0FBFBAFF27460F6F795
:10E4500008FF1120E84908700BE042F21071E8480B
:10E4600004F0EEFBAFF2D050F6F7FBFE0D20E249D0
:10E47000087032E00020E14908701220DE4908707F
:10E480002BE00120DD4908701220DB49087024E0F0
:10E490000220DA4908701220D74908701DE00320D5
:10E4A000D64908701220D449087016E00420D349D8
:10E4B00008701220D04908700FE0D2A0F6F7D1FE04
:10E4C000D9A0F6F7CEFE0020CB490870CB49C87121
:10E4D00081F823008871C87100BF00BFC64800786A
:10E4E00030B10120D84908700420D849087009E0EB
:10E4F000D548007830B1D5480078042802D10020F2
:10E50000D1490870D248007828B1BB48007810B9CA
:10E510000020CD4908700020FFF7B9BAB748C07F86
:10E5200028B9B648407F10B9B448807F08B10120AF
:10E5300070470020FCE70020B049C877887748770B
:10E5400081F8200081F820008871704710B5AB4831
:10E55000C07F88B1A948407F70B90020BD490870CC
:10E5600002F009FD0020A549C87705208877012021
:10E570004877002081F82000A048407F38B39F48AA
:10E58000807F28B19D48807F401E9C4988771EE08F
:10E5900000209A4948770846C07F30B10020AD4935
:10E5A000087001209549887111E09448807930B154
:10E5B0000120924981F820000020887107E00120A5
:10E5C000A549087000208D4981F8200088718B488A
:10E5D000807970B19F4801780078401C9D4A107086
:10E5E0000A2906DD002011460870844981F82000C0
:10E5F000887110BD024642B90020984B18707F4BBD
:10E6000018739748974BD8602BE094480078C8B1AE
:10E610009548924B1B78C05C88420DD18F4800789A
:10E62000401C8E4B187018460078062818DB012015
:10E63000724B1873002070470020704B1873874B83
:10E640001870F8E73B2903D10120844B187007E0CC
:10E65000302901DB392903DD0020684B1873EAE714
:10E6600000BF00BFFF20E6E700B502460B460120D1
:10E6700062490872FFF75FFF00207C49087000BD07
:10E680000246042A07DB0020794B188001205B4BEF
:10E6900058710020704712B90020754B188030293E
:10E6A00012DB392910DC7248008800EB80004FF63D
:10E6B000FF7303EA40006E4B1880A1F130001B8805
:10E6C00018446B4B18801FE02C2915D1684800882E
:10E6D00018B942F20F70664B18804848408948B913
:10E6E00063480088454B588161480088102801D054
:10E6F000012058710020CDE700205D4B18800120DB
:10E700003E4B58710020C5E7FF20C3E702460120B9
:10E710003A4B18710020704702460120374BD870E1
:10E720000020704710B502460120344B9871D8770D
:10E73000052098770020587783F82000302908DBDF
:10E74000392906DC03F10D0081540024531CC45404
:10E750000FE022290BD1022A09DB0120274BD871B7
:10E76000D877052098770020587783F8200000207C
:10E7700010BDFF20FCE702462048C07F10B90120F1
:10E780001E4BD877002070472DE9F05F07460E46F4
:10E79000384604F0F4FBC4B2304604F0F0FBC5B2D6
:10E7A0004FF0000AA34638782B2805D1042C0BDD46
:10E7B000201F00F0FF0B07E03878302804D1012C2F
:10E7C00002DD601E00F0FF0BA84630782B2805D133
:10E7D000042D0BDD281F00F0FF0807E030783028FB
:10E7E00004D1012D02DD681E00F0FF08D946D8458E
:10E7F00000DAC1464CE0000020030020DC280020A5
:10E80000182900200D0A414D504D5F4C49423A23D2
:10E8100043414C4C2320454E445F43414C4C5F5098
:10E82000484153450D0A00000D0A414D504D5F4CC3
:10E8300049423A2343414C4C232043414C4C5F49CD
:10E84000444C450D0A000000A5030020A60300204B
:10E850002103002024030020540300202203002071
:10E86000C0D401001C2B0020B0500108B3030020CD
:10E8700026030020601EC4B2681EC5B2385D715DFB
:10E88000884204D10AF1010000F0FF0A00E002E032
:10E890000CB1002DEED100BFBAF1060F04DBCA4562
:10E8A00002DB0120BDE8F09F0020FBE7024612B129
:10E8B000012A02D100E000BF27E0062A03DB002086
:10E8C000FE4B1860704730290FDB39290DDCFB48FF
:10E8D000006800EB80004000F84B1860A1F13000A8
:10E8E0001B681844F54B18600EE0F448006838B116
:10E8F000F2480068642803D2F0480088F04B188082
:10E900000020EE4B1860DDE700BF00BFFF20D9E715
:10E910000246122A01DB00207047302904DB392926
:10E9200002DCE848815406E00120E74B1870E74B11
:10E9300018700020F0E7FF20EEE70246202A01DBF6
:10E9400000207047302904DB392902DCE04881547B
:10E9500004E00120DF4B18700020F2E7FF20F0E711
:10E96000024630290BDA392909DD2F2907D03A2947
:10E9700005D02C2903D02B2901D000207047162A5E
:10E9800075D2DFE802F00B10743136745358747688
:10E990007B74989D74BABF7474DCE5EAA1F1300011
:10E9A000CD4B18800AE1CC48008800EB80004FF680
:10E9B000FF7303EA4000C84B1880A1F130001B88A8
:10E9C0001844C54B18801846008800F5FA6000B25C
:10E9D000C24B18801846B0F9000040F2DD7398422F
:10E9E00001DA0020CAE7E9E0A1F13000BA4B188053
:10E9F000E4E0B948008800EB80004FF6FF7303EABB
:10EA00004000B54B1880A1F130001B881844B24B70
:10EA100018801846007840B2B04B9870184690F9AC
:10EA200002000C2801DD0020A8E7C7E0A1F13000BA
:10EA3000A94B1880C2E0A848008800EB80004FF680
:10EA4000FF7303EA4000A44B1880A1F130001B883B
:10EA50001844A14B18801846007840B29F4BD870DC
:10EA6000184690F903001F2802DD002086E7A4E085
:10EA7000A4E0A1F13000984B18809FE096480088F0
:10EA800000EB80004FF6FF7303EA4000924B1880C2
:10EA9000A1F130001B8818448F4B1880184600786D
:10EAA00040B28E4B5871184690F90500182801DDC8
:10EAB000002063E782E0A1F13000874B18807DE001
:10EAC0008548008800EB80004FF6FF7303EA4000A2
:10EAD000814B1880A1F130001B8818447E4B1880B0
:10EAE0001846007840B27D4B9871184690F90600A0
:10EAF0003B2801DD002041E760E0A1F13000764BCA
:10EB000018805BE07448008800EB80004FF6FF73CC
:10EB100003EA4000704B1880A1F130001B881844B4
:10EB20006D4B18801846007840B26C4BD87118466F
:10EB300090F907003B2801DD00201FE73EE02B296C
:10EB400003D10120664B188001E0002016E735E074
:10EB5000A1F13000604B188030E0302911DB3929F9
:10EB60000FDC5D48008800EB80004FF6FF7303EA7E
:10EB70004000594B1880A1F130001B881844564BB7
:10EB800018805748008848B153480088C0EB0010EF
:10EB9000C0EB00108000534B186009E04E4800881D
:10EBA000C0EB0010C0EB0010800040424D4B1860DD
:10EBB00001204D4B18700020E0E600BF00BFFF2091
:10EBC000DCE6024630290BDA392909DD2F2907D086
:10EBD0003A2905D02C2903D02B2901D000207047D9
:10EBE000122A69D2DFE802F0090EFE2F34FE5156D8
:10EBF000FE9095FEB2B7FED4D9F7A1F130003B4BA1
:10EC00001880F0E03948008800EB80004FF6FF7371
:10EC100003EA4000354B1880A1F130001B881844EE
:10EC2000324B18801846008800F5FA6000B22B4B72
:10EC300018801846B0F9000040F2DD73984201DAFE
:10EC40000020CCE7CFE0A1F13000284B1880CAE0CB
:10EC50002648008800EB80004FF6FF7303EA40006F
:10EC6000224B1880A1F130001B8818441F4B1880DC
:10EC70001846007840B2194B9870184690F9020077
:10EC80000C2801DD0020AAE7ADE0A1F13000174B10
:10EC90001880A8E01548008800EB80004FF6FF734D
:10ECA00003EA4000114B1880A1F130001B88184482
:10ECB0000E4B188018461BE094E00000380300203B
:10ECC00028030020842900202B0300202D0300208E
:10ECD000642900202A0300203C0300204203002076
:10ECE0003E030020300300202E03002040030020BC
:10ECF000007840B2FA4BD870184690F903001F28EC
:10ED000001DD00206BE76EE0A1F13000F54B1880CB
:10ED100069E0F448008800EB80004FF6FF7303EAD7
:10ED20004000F04B1880A1F130001B881844ED4BD7
:10ED300018801846007840B2E94B5871184690F98F
:10ED40000500182801DD002049E74CE0A1F1300062
:10ED5000E44B188047E0E348008800EB80004FF662
:10ED6000FF7303EA4000DF4B1880A1F130001B88DD
:10ED70001844DC4B18801846007840B2D84B987184
:10ED8000184690F906003B2801DD002027E72AE01D
:10ED9000A1F13000D34B188025E0D248008800EB69
:10EDA00080004FF6FF7303EA4000CE4B1880A1F1BC
:10EDB00030001B881844CB4B18801846007840B2AE
:10EDC000C74BD871184690F907003B2802DD002098
:10EDD00005E700E007E02B2902D10120C24B1870A3
:10EDE0000020FCE600BF00BFFF20F8E6BF48007827
:10EDF00008B9012070470020FCE702460020BC4B08
:10EE00001870704710B586B0B848047801F002F960
:10EE1000062802D00020B5490870B64800780128BD
:10EE20000AD1B5480078062806D0FEF707FE082864
:10EE300002D0002006B010BDAC4800780F2849D29F
:10EE4000DFE800F0084965819DB9E6FCFBFAF9F8B6
:10EE5000F7F6F500A948007820B10020A74908700E
:10EE6000A3490870A248007810B90120A44908708D
:10EE7000A448007868B100209D490870A149087035
:10EE800001209A490870F8F71FF803209E4908707E
:10EE900020E09E48007888B100209C49087098487E
:10EEA0000078B8B90C209149087003209649087081
:10EEB0004FF4FA61964803F0C3FE0BE095480078E2
:10EEC00040B10020934908700A2088490870032047
:10EED0008D4908703FE201F02CFAB8B18EA00021F4
:10EEE0004FF47A728D4B1B68CDE90032CDE90210E8
:10EEF0008B4864220368084601F027FA40F6B831CF
:10EF0000884803F09DFE02207849087023E201F052
:10EF100010FAB8B184A200214FF47A707F4B1B68BD
:10EF2000CDE90030CDE902127D486422036808462D
:10EF300001F00BFA40F6B8317A4803F081FE032065
:10EF40006A49087007E201F0F4F9B8B177A000212E
:10EF50004FF47A72714B1B68CDE90032CDE9021093
:10EF60006F4864220368084601F0EFF940F6B831B3
:10EF70006C4803F065FE04205C490870EBE101F089
:10EF8000D8F9B8B16BA0002140F6B832634B1B68CA
:10EF9000CDE90032CDE902106148642203680846D9
:10EFA00001F0D3F940F6B8315E4803F049FE052080
:10EFB0004E490870CFE101F02CFA03281CD16048BB
:10EFC000006860A100224FF4FA63CDE90132CDE977
:10EFD00003105248006800905148642200210368E1
:10EFE000084601F0B2F940F6B8314E4803F028FE69
:10EFF00006203E4908700AE001F00BFA022803D00F
:10F00000484803F028FE10B9092038490870A2E1E9
:10F0100001F0FFF9032821D150A1012242F2107022
:10F020003E4B1B68CDE90030CDE9022107E067E1E6
:10F030001FE1FBE0E2E0BBE0A4E09BE01AE04BA3B1
:10F0400064220021084601F080F947F2305135482A
:10F0500003F0F6FD0720254908700AE001F0D9F910
:10F06000022803D02F4803F0F6FD10B900201F49F5
:10F07000087070E101F0CDF9032825D17E2001F060
:10F0800063FFFF2001F060FF7D2001F05DFF232082
:10F0900001F05AFFC02001F057FF212001F054FF7A
:10F0A0007E2001F051FF0020154908700120104911
:10F0B000087001F06BFF40F6B831154803F0C0FD51
:10F0C00000200A4908700AE001F0A3F9022803D0E1
:10F0D000144803F0C0FD10B90920044908703AE152
:10F0E00042030020400300202E03002034030020B0
:10F0F000B3030020A5030020A60300202303002063
:10F10000BC030020B003002035030020B103002021
:10F11000A4290020B20300202B2B2B00B8030020D1
:10F12000B403002098290020415400004154480DA8
:10F130000000000041542B43474143543D300D0033
:10F14000C803002041542B434744434F4E543D31A4
:10F150002C224950222C222573220D004154445464
:10F160002A39392A2A2A31230D000000434F4E4EF6
:10F1700045430000874803F06EFD10B90020864922
:10F180000870E8E08548007828B184480078401E7F
:10F190008249087008E003208049087000F01DFFD4
:10F1A00000207D490870D6E001207B490870D2E03C
:10F1B0007B48007810B900207749087001F0B9F851
:10F1C000D8B178A0012242F21071784B1B68CDE9CA
:10F1D0000031CDE9022076A34FF47A7276A1AFF226
:10F1E000E53001F0B2F801F0BBFA40F6B8317548ED
:10F1F00003F026FD0B2068490870ACE001F009F926
:10F20000032805D1002066490870634908700CE0A6
:10F2100001F0FFF8022803D06A4803F01CFD20B972
:10F2200001F0A5FE00205C49087094E0594803F005
:10F2300012FDE8B9AFF2201001F08CFE002040F67C
:10F24000B8325DA3CDE90120009303905E486422AB
:10F2500000210368084601F078F801205049087041
:10F260004FF4FA614B4803F0EBFC0D204A4908705B
:10F2700071E001F0CEF8032803D100204649087060
:10F2800069E001F0C6F8022819D150A0012240F629
:10F29000B831464B1B68CDE90031CDE902204A4820
:10F2A000642200210368084601F04FF840F6B831A7
:10F2B000444803F0C5FC0E20374908704BE001F0CC
:10F2C00038F8E0B1334803F0C6FCC0B93FA00122D2
:10F2D00040F6B831354B1B68CDE90031CDE902204D
:10F2E0003948642200210368084601F02EF840F6F0
:10F2F000B831344803F0A4FC0E20274908702AE0F6
:10F3000001F087F8032803D100202349087021E089
:10F3100001F07FF8022803D02A4803F09CFCC8B90A
:10F320001E48007828B11D480078401E1B4908700F
:10F3300008E003201949087000F04FFE002016492C
:10F34000087008E04FF4FA61124803F079FC0C20D1
:10F350001149087000BF00BF0F48007830B101208C
:10F360001B49087006201B49087009E018480078FE
:10F3700030B118480078062802D1002014490870DE
:10F380002CB10548007810B9002011490870002000
:10F3900050E50000A429002034030020350300209C
:10F3A000BC03002041544F0D00000000B8030020B2
:10F3B000434F4E4E454354004E4F20434152524915
:10F3C0004552000098290020B403002041540D004C
:10F3D000A5030020A603002010B5F7A0F5F741FF14
:10F3E000FE48006803F080FA0020FD490870FD49DE
:10F3F000087010BD10B5FB48007808B1002010BDA2
:10F40000F648006803F073FA044609E0A06818B1F2
:10F41000606808B10020F2E7204603F0E9FA0446EC
:10F42000002CF3D10120EAE710B504462146EB4851
:10F43000006803F089FA10BDE8480068006808B960
:10F44000012070470020FCE7E648007810B9002052
:10F45000E44908707047E348007818B1E148007843
:10F46000092801D1012070470020FCE7DD48007821
:10F47000032807D0DB480078042803D0D948007857
:10F48000052801D1012070470020FCE7D54800780D
:10F49000704710B50120D44908700020D149087088
:10F4A000D1490870CD48006803F01EFA0020CF490A
:10F4B000086010BD10B5CC48007830B9C748006866
:10F4C00003F07FFA08B9012010BD0020FCE710B559
:10F4D000C248006803F00BFA0446C248007808B13D
:10F4E000002010BD09E0A06818B1606808B10020D4
:10F4F000F7E7204603F07CFA0446002CF3D1012004
:10F50000EFE710B5FFF7B2FF10B11B2001F01CFDB3
:10F510000020B449087010BD10B5B5A0F5F7A1FEE4
:10F520000920B049087010BD2DE9F04704460D468A
:10F5300016461F46DDE9099ADDF82080A66027738C
:10F540006560A4F80E9084F810A00220607484F81E
:10F5500012802046FFF768FF0020BDE8F08710B555
:10F56000024612B90020AA4B1870302901DB392954
:10F5700001DD2B2910D12B2919D0A648A44B1B78CB
:10F58000C154A3480078401CA14B18700020A14B27
:10F590009F4C247818550AE0222906D19C4800780F
:10F5A000022802DB01208E4B1870002010BDFF20C6
:10F5B000FCE730B587B08B48057800F02BFD0628B6
:10F5C00002D00020874908709348007801280AD1AA
:10F5D00092480078052806D0FEF730FA082802D0B5
:10F5E000002007B030BD7F4800780A283BD2DFE812
:10F5F00000F0053B78C5DEDDDCDBDAD900F00AFD82
:10F60000062830D17848007848B100207649087043
:10F610007248006803F068F9002074490860734874
:10F620000068D0B171480068806878B16F480068A0
:10F63000406858B14FF47A71794803F001FB79A022
:10F64000F5F70FFE0120674908700CE06748006875
:10F6500003F0CEF96549086005E06048006803F0F2
:10F6600046F962490860AAE26D4803F0F4FA0028FE
:10F6700036D100F05EFE002832D05C480068807C05
:10F68000022811D171A001214FF47A72724B1B68CC
:10F69000CDE90032CDE902107048642200210368F0
:10F6A000084600F052FE10E06DA001224FF47A717E
:10F6B000694B1B68CDE90031CDE90220674864221F
:10F6C00000210368084600F040FE40F6B831544877
:10F6D00003F0B6FA65A0F5F7C4FD022041490870B1
:10F6E0006DE200F096FE032834D14048006880683F
:10F6F00048B33E480068406828B33C480068807CB6
:10F70000022814D000203649087061A0012141F27E
:10F710008832514B1B68CDE90032CDE902104F48C9
:10F7200064225EA10368AFF2C91000F00EFE4FF430
:10F73000FA713B4803F084FA5BA0F5F792FD0320D1
:10F740002849087019E062A0F5F78BFD00202549D3
:10F75000087012E000F05DFE022803D0304803F08C
:10F760007AFA50B94FF4FA612D4803F069FA58A0BB
:10F77000F5F777FD00201B49087020E2284803F0C8
:10F780006AFA002814D100F044FE032811D117486A
:10F7900000688068007820B914480068807C0228DE
:10F7A00008D0A3E00AE2EAE1B6E1A4E185E139E1AB
:10F7B00037E12CE11CE100000D0A414D504D5F4C3A
:10F7C00049423A23534D5323536D735461736B5F16
:10F7D000496E697428293B0D0A000000500300207F
:10F7E0005803002055030020560300207403002016
:10F7F0000D0A414D504D5F4C49423A23534D53231E
:10F8000020534D535F5041555345440D0A000000AD
:10F8100068030020FC2A0020A5030020A603002086
:10F82000D02900200D0A414D504D5F4C49423A23EA
:10F83000534D532320534D535F44454C41595F531F
:10F84000544152545F53454E440D0A0041542B43DA
:10F850004D47463D310D0000B8030020B4030020A1
:10F8600041542B434D47463D300D00000D0A414D9C
:10F87000504D5F4C49423A23534D532320534D532F
:10F880005F53544152545F53454E440D0A000000EB
:10F8900041542B435343413F0D0000002B4353433E
:10F8A000413A2022000000000D0A414D504D5F4CAE
:10F8B00049423A23534D532320534D535F574149F7
:10F8C000545F4D4F44454D5F494E49540D0A000069
:10F8D0000D0A414D504D5F4C49423A23534D53233D
:10F8E00020534D535F49444C450D0A00F9480068C8
:10F8F0004068007800287BD0F6480068807C0228A9
:10F9000017D1F5A001F026FBF2490968486801F01B
:10F9100021FBF4A0002141F28832F34B1B68CDE9B2
:10F920000032CDE90210F1A36422084600F00DFD7B
:10F930005DE0F0480078002859D0EF4800780028B2
:10F9400055D0E4480068807C012812D10002EB49C0
:10F95000CDE90010DF480068037BDE48006882685C
:10F96000DC4800684168E44801F0E8F9E4490870BF
:10F970000EE04FF480700090D64800688268D54849
:10F980000068DE4B4168DC4801F064F9DC4908702E
:10F99000DB48007800280EDA0020CE49096848606C
:10F9A000CC49096888600120CA4909684874002068
:10F9B000D449087003E1D2480078401ECF49097845
:10F9C000401AD149087008460078D0A1002241F2BF
:10F9D0008833CDE90132CDE90310C3480068CEA3D6
:10F9E0004FF4FA7200210090084600F0AEFC00E0EF
:10F9F00006E0CBA0F5F735FC0420C249087010E002
:10FA0000D2A0F5F72EFC0620BE49087009E000F0F0
:10FA100000FD022805D1D4A0F5F723FC0720B94941
:10FA20000870CCE000F0F5FC032835D1A948006847
:10FA3000807C022810D1A7490968886801F08AFAF9
:10FA40001A2001F081FA42F21072A7480168CF48EB
:10FA5000006800F0E5FC1BE000240AE0A748025D16
:10FA6000CBA105A804F0BAFC05A801F073FA601C4C
:10FA700084B2A34800788442F0DB1A2001F064FAD3
:10FA800042F2107298480168C048006800F0C8FC53
:10FA900005209C4908700FE000F0BBFC02280BD148
:10FAA000B1A0F5F7DEFB1B2001F04EFA1B2001F0A0
:10FAB0004BFA07209349087081E000F0AAFC032864
:10FAC00006D1A2A0F5F7CDFB06208E49087011E003
:10FAD00000F09FFC02280DD11B2001F035FA072011
:10FAE00088490870A0A0F5F7BCFB40F6B831AA48D9
:10FAF00003F0A6F863E0002076490968486075497C
:10FB0000096888607349096848747E490870AFF2D3
:10FB10004020F5F7A6FB52E09F4803F09CF868BB35
:10FB200001206C49096848746A480068007C38B153
:10FB300068480068007C401E66490968087406E051
:10FB4000002064490968486062490968886093A296
:10FB500003204FF47A71644B1B68CDE90031CDE985
:10FB6000020291A364220021084600F0EEFB28B9AE
:10FB700090A0F5F776FB0820624908701FE000F0BE
:10FB800048FC032807D1AFF2B820F5F76AFB002044
:10FB90005C49087011E000F03CFC02280DD1FDF733
:10FBA0004DFF082807D1AFF2D820F5F75AFB002007
:10FBB0005449087001E000F010FA00E000BF00BFF7
:10FBC0005048007830B101208449087005208449EC
:10FBD000087009E08148007830B181480078052834
:10FBE00002D100207D4908702DB14648007810B937
:10FBF00000207A4908700020F3E410B520227949EA
:10FC0000794802F0FBFE10BD02460120774B1870C8
:10FC10000020704702467AB90020754B1870754B6A
:10FC200018707548754B18603448754B18607548E6
:10FC3000754B1860FF2070472C2904D16C48007860
:10FC4000401C6B4B18706B48007800283AD06E4807
:10FC500000680078884211D16B480068401C6A4BEC
:10FC60001860184600680078A0B90020644B1B6833
:10FC700018700120654B18700020DCE76148624B6A
:10FC80001860184600680078884203D1184600685A
:10FC9000401C18605A480068184BC01AFF2808D941
:10FCA0000020574B1B6818700120584B187000201B
:10FCB000C1E753480068017051480068401C504B30
:10FCC0001860C3E04A48007810B1012801D1A0E0D3
:10FCD0009EE0B9E07403002041542B434D47533D4F
:10FCE00022000000220D0000B8030020220D0D0AA2
:10FCF0003E00000058030020FC2A0020FC290020C0
:10FD000079030020550300207803002041542B4341
:10FD10004D47533D25640D000D0D0A3E20000000A7
:10FD20000D0A414D504D5F4C49423A23534D5323E8
:10FD300020534D535F574149545F4D4F44454D5FEC
:10FD4000414E535745520D0A000000000D0A414D27
:10FD5000504D5F4C49423A23534D532320534D534A
:10FD60005F53454E540D0A000D0A414D504D5F4CF6
:10FD700049423A23534D532320534D535F53454E2D
:10FD8000445F4641494C0D0A00000000B4030020C6
:10FD90002530325800000000D029002041542B4368
:10FDA0005245473F0D0000002B435245473A203053
:10FDB0002C3100000D0A414D504D5F4C49423A2311
:10FDC000534D532320534D535F434845434B5F4EA0
:10FDD0004554574F524B0D0A00000000A503002068
:10FDE000A6030020B0290020DC29002054030020B5
:10FDF000590300205A030020EC2900205C03002056
:10FE000064030020285101086003002057030020EC
:10FE10001BE052480068524BC01A102802D3002041
:10FE2000187008E7302901DB392901DD2B290AD1B7
:10FE30004A480068017049480068401C474B1860F8
:10FE400000201B68187000E000BF00BF0A2902D123
:10FE50000120444B1870FF20EDE670B505460C46B6
:10FE600035B1012D12D0022D11D0032D30D10FE06C
:10FE7000302C09DB392C07DCA4F130003A4908604A
:10FE800001203A49087025E0002070BD00BF00BF86
:10FE9000302C0FDB392C0DDC3348006800EB800080
:10FEA000400031490860A4F13000096808442E4937
:10FEB00008600FE02C4801782D4802F0AEFD2A487A
:10FEC0000088C0F307212A4802F0A7FD0020DCE7E4
:10FED0000020DAE700BFFF20D7E770B505460C46E3
:10FEE00035B1012D12D0022D11D0032D30D10FE0EC
:10FEF00001201E490870302C06DB392C04DCA4F1EB
:10FF000030001C49086025E0002070BD00BF00BF24
:10FF1000302C0FDB392C0DDC1648006800EB80001C
:10FF2000400014490860A4F13000096808441149F0
:10FF300008600FE00F4801780D4802F06EFD0D4893
:10FF40000088C0F307210A4802F067FD0020DCE7C3
:10FF50000020DAE700BFFF20D7E700005C030020A5
:10FF6000EC2900205A0300206C03002054030020D9
:10FF7000DC2900207003002010B5FDF7FFFCFFF71F
:10FF80003CFE4FF480630E220C490D4802F080FDC8
:10FF900010BD38B504460B48006820B90120094956
:10FFA0000860FFF7E9FF02F038FE0546034B044AFC
:10FFB0000549009402F09BFD38BD00000C2B002089
:10FFC0001C2B002080030020B8500108974B1860BC
:10FFD000974B1960974B1A60704710B500209649EF
:10FFE00008709649087096490870964908709649B5
:10FFF00008709649087001209549087000209549BD
:020000040801F1
:10000000087041F28831944802F01AFE10BD8C4904
:10001000087070478A480078704730B587B08848C4
:100020000078072870D2DFE800F0041A3942709C8B
:10003000F8000020894908708949087089490870CA
:100040004FF46130FDF789FCFDF714FC41F2883173
:10005000854802F0F5FD012079490870E2E0824808
:1000600002F0F9FDC8B981A0032140F6B832804BF7
:100070001B68CDE90032CDE902107E4864220021E0
:100080000368084600F061F938B940F6B8317A489B
:1000900002F0D6FD02206A490870C3E04FF4FA610D
:1000A000714802F0CDFD032065490870BAE000F008
:1000B000B0F9032820D16C4802F0CDFDE0B900244E
:1000C0000FE0C4EBC4006D4901EB80006C4901EB0B
:1000D000C40148606A4901EBC40000F013F9601CD8
:1000E00084B20A2CEDD304205549087047F23051F0
:1000F000614802F0A5FD06E000F08BF9022802D16C
:1001000000204F4908708DE088E000F003F9E0B16D
:1001100000F07FF9032818D15AA0142140F6B83214
:100120005CA3CDE90032CDE90210524864220021DF
:100130000368084600F009F94EF660214E4802F0C7
:100140007FFD05203E4908700AE04B4802F083FD20
:1001500018B100F05EF9022802D100203849087079
:1001600060E000F0D7F800284AD000F052F90328E8
:1001700046D13C48007830B100203A49087006204A
:100180002F49087002E000202D490870434800788C
:10019000002840D00020414908704148006841498A
:1001A00008604148FDF718FA0546FDF76AFA3F482E
:1001B000B0F90000642190FBF1F201FB12053B480D
:1001C00090F90700394991F90610384A92F905204B
:1001D000364B93F90330CDE90332CDE905103348AE
:1001E00090F9020032A101234FF47A72CDE9001593
:1001F00002901F4801681F48006800F0BBFA0AE03F
:100200001D4802F028FD18B100F003F9022802D1C0
:1002100000200B49087005E0FFE703E000200849D3
:10022000087000BF00BF07B030BD00008C03002085
:100230009003002094030020A5030020A6030020C3
:100240008A03002087030020880300208903002000
:10025000BC030020B3030020942B00208503002062
:100260002B0300202D030020882B002041540D007B
:10027000B8030020B40300207C2B0020305101087B
:100280002C2B002041542B434F50533D302C320D2A
:10029000000000004E4F5420555345002E0300200F
:1002A000300300200C03002042030020180300202C
:1002B00041542B43434C4B3D22253032642F253093
:1002C00032642F253032642C253032643A253032A6
:1002D000643A25303264220D0000000010B5F94860
:1002E000007848B1F84802F0B6FC48B9F749F6483A
:1002F00002F0A6FC012010BDF449F34802F0A0FC76
:100300000020F8E710B504462146F148006802F0E5
:100310001BFB10BDEE480068006808B9012070475B
:100320000020FCE7EB48007810B90120EA4908708A
:100330007047E8480078022802D0032803D100E083
:1003400000BF012070470020FCE72DE9F84F04466C
:100350000D4616461F46DDE90B8ADDF82890FFF7AB
:10036000E8FF002853D0DC48007800284FD10D98D2
:1003700078B1DAA0F4F775FF0D98F4F772FF0EA8C4
:100380000090DA48009A0D9904F03CF800200090A3
:1003900002E00020D5490870D54845608460806837
:1003A00098B1D348406880B14FF480630122D149AD
:1003B000D14802F06DFBD048C0F80C80CC48806872
:1003C000CE494860CA4840680860C948C760C0F85C
:1003D0001090C168CA4802F05DFAC5480169C94871
:1003E00002F058FAC2490E830846018BC64802F053
:1003F00027FCBF49A1F81680084680F814A0002009
:10040000B449087000F0ACF90020BDE8F88F012075
:10041000FBE7B048007870470320AE49087070478A
:1004200070B504460D461646FFF783FFA8B1B048E5
:10043000C4600561C168B24802F02CFAAC48016999
:10044000B04802F027FA0020A94908753146AE48A5
:1004500002F0F6FB01209F49087070BD7CB59D48F5
:10046000007830B101281CD002287DD003287CD12F
:10047000BEE0A54802F0EFFB90B99C48007820B19F
:1004800000F06EF9994800F065FD9948C18A9E48D0
:1004900002F0D6FB01208F4908709CA0F4F7E1FE22
:1004A000F2E0994802F0D7FB78BB9148007D68B133
:1004B0008F48007D401E8E4908750846018B924882
:1004C00002F0BEFB0020834908708FE000208249C3
:1004D000087002207F4908708548806838B18448D8
:1004E000406820B9824800218268084690478B48BE
:1004F00001780078401C894A10700A2976DD0020B6
:1005000011460870FFF769FD70E0FFE766E09DF8AF
:10051000041083A0F4F7A5FE9DF804001A2853D018
:100520009DF804001B284FD07148806870B1704856
:10053000406858B102F071FB05469DF804006D4B10
:100540006D4A6E490090284602F0D1FA9DF80410D9
:100550006B4802F0ABF958B900205F4908706F4949
:10056000087003205B4901E041E089E0087035E054
:100570009DF80410634802F099F920BB00206749F8
:1005800008705B48007D68B15948007D401E58499D
:1005900008750846018B5C4802F052FB00204D496B
:1005A00008701BE000204C4908705148806838B141
:1005B0004F48406820B94E4800218268084690475D
:1005C00002204449087009E05648007830B1002004
:1005D0005449087003203F49087006E001A95248B9
:1005E000006802F02FFA002891D000BF4CE000BF55
:1005F000374800680068C8B336480078022836D00B
:100600003348006802F0D5F9044674B31C22384818
:10061000616802F066FC3648806868B14FF4806318
:1006200001223449344802F033FA314880683349B2
:1006300048602F48406808602D4801682B4802F048
:10064000CAFC2B48C1682E4802F024F928480169E9
:100650002C4802F01FF92648018B2B4802F0F0FAD3
:1006600000201C49087000F07BF808E004E01848FE
:10067000006802F039F902E000201749087003E031
:1006800002201449087000BF00BF7CBD10B50120D6
:100690002449087042F21071244802F0D1FA04E0B3
:1006A0001B2000F051FCFFF7D9FE0A480078012812
:1006B00004D11E4802F0CFFA0028F1D100201949D8
:1006C000087010BDA5030020502C0020A0BB0D0019
:1006D0009C030020A0030020A30300200D0A0D0AA4
:1006E00061745F73656E643A20000000A02B0020E7
:1006F0005C2C0020A4030020782C0020A8030020FC
:10070000202C00202C2C0020382C00200D0A0D0A53
:1007100061745F726563763A20000000A1030020D7
:1007200025630000A2030020D0030020442C0020F9
:10073000A848007810B90120A74908707047A5485B
:10074000007810B10120A549087070470020A44925
:10075000087001209F4908707047A24908607047DF
:1007600008B500BF6946A048006802F06BF9002890
:10077000F8D008BDF0B58BB005460F4616461C46AE
:1007800011A800909948009A109903F03BFE0020B0
:1007900000901A2000F0D8FB1A2000F0D5FB04B915
:1007A000012432E0642002F03FFA294608A802F052
:1007B00071F8394605A802F06DF8314602A802F03A
:1007C0003FFAFFF7CDFF894800F0C4FB15E001A90F
:1007D0008548006802F036F978B99DF8041008A839
:1007E00002F064F810B900200BB0F0BD9DF80410C1
:1007F00005A802F05BF800B904E002A802F02BFAA9
:100800000028E4D100BF601EC4B2002CCAD1FF2072
:10081000EAE708B5FDF72EF875A002234FF47A72C7
:1008200000907448016874480068FFF7A3FF08B19E
:10083000FF2008BD71A002234FF47A7200906D482A
:1008400001686D480068FFF795FF0020F1E708B5E3
:1008500000BFFFF7DEFF0028FBD16AA003234FF49F
:100860007A7200906348016863480068FFF782FF6E
:1008700008B1FF2008BD0020FCE77FB504460D4607
:10088000214601A802F006F811E0012002F0CCF99F
:1008900069465548006802F0D5F840B99DF8001047
:1008A00001A802F003F810B9002004B070BD2800C0
:1008B000A5F10105E9D1FF20F7E77CB5642002F03E
:1008C000B3F9FFF74DFF52A000F044FB4FF4FA617B
:1008D00051A0FFF7D2FF002876D1002411E09DF847
:1008E00004000D2803D09DF804000A2800D10FE071
:1008F0009DF804004A490855601CC4B2102C00D36E
:1009000006E001A93848006802F09CF80028E6D00B
:1009100000BF0020424908556A4642A1404802F003
:1009200063FB009803F0D9F8C5B2284603F0C3F87A
:100930003D4908604FF081413B48006803F052F99F
:1009400005D33A493848006803F04CF903D1002038
:100950003749087036E037493348006803F042F9F8
:1009600003D20120324908702CE04FF083412E4819
:10097000006803F037F903D202202D49087021E006
:100980002D492948006803F02DF903D20320284996
:10099000087017E029492448006803F023F903D2BE
:1009A0000420234908700DE025491F48006803F022
:1009B00019F904D205201E49087003E004E0002064
:1009C0001B49087000207CBDFF20FCE70020704719
:1009D00000207047BC030020B1030020B2030020B8
:1009E000B3030020C8030020D0030020882C00207F
:1009F00041540D00B8030020B403002041542B43A0
:100A000042430D0041542B435057524F46460D0070
:100A100041542B4353510D002B4353513A000000D6
:100A2000082D002025660000C00300200000C642FB
:100A3000C4030020000020410000B0410000E0415C
:100A400000004C4210B501460A46C81701EB107071
:100A500000110B46CC1701EB14742411A1EB041404
:100A600004EB840400EB4400C0B210BD2DE9F0415A
:100A700004460D4616461F46002301220021C5EB01
:100A8000C50C0CF107004FEAE07C00EB5C7CB7EB97
:100A9000EC0F02DA481EBDE8F0811EE0605C00F059
:100AA0007F00A2F1010C40FA0CF001F1010C14F8E6
:100AB0000CC00CF07F0CC2F108080CFA08FC40EAEC
:100AC0000C0000F0FF0818465B1C06F80080521C62
:100AD000082A01D10122491C491C681E8842DDDC1C
:100AE000A9420ADC605C00F07F00A2F1010C40FA30
:100AF0000CF09C465B1C06F80C001846CBE72DE971
:100B0000F04104460E461D46002001230121002E1F
:100B100006DD277807F07F080746401C02F80780AB
:100B20000123012123E04F1EE75DC3F1080C47FAC2
:100B30000CF714F801C00CFA03FC47EA0C0707F0A5
:100B40007F080746401C02F80780A84200D110E049
:100B50005B1C082B0AD10123675C07F07F0807465E
:100B6000401C02F80780A84200D102E0491CB142B3
:100B7000D9DB00BFA84209DA4F1EE75DC3F1080CBC
:100B800047FA0CF78446401C02F80C70BDE8F0816F
:100B90002DE9F04705460E4690460027284602F00C
:100BA000EEF98146002409F1010000EBD071B8EBA9
:100BB000610F02DA601EBDE8F087002421E0285DA5
:100BC000302805DA285D392802DD4FF0FF30F2E7E2
:100BD000204604EBD0714910B4EB410108D1285DE7
:100BE0003038C0B240F0F00238467F1C325407E083
:100BF000285D3038791E715C60F31F11781E315406
:100C0000641C4C45DBDB3846D5E770B504460B4623
:100C1000002119E0084601EBD0756D10B1EB4505D8
:100C200008D101EBD0756D10655D05F00F0530350D
:100C3000555408E0084601EBD0756D10655D30260F
:100C400006EB15155554491C9942E3DB0020D0549E
:100C5000184670BD2DE9F05F81468A4693461D46D1
:100C60000A9F00240026584602F089F98046022F88
:100C700002DA601EBDE8F09FB9F1000F13D04846BC
:100C800002F07DF978B191206870BA1EA91C48461F
:100C9000FFF77EFF0646002E04DAFE2E02DB4FF041
:100CA000FF30E7E7761C2E70741C201DB84202DD71
:100CB0004FF0FF30DEE711222046641C2A54002248
:100CC0002046641C2A54504602F059F928559121B7
:100CD000601C2954381B821E2819811C5046FFF7BE
:100CE00057FF0646B01C0444201DB84202DD4FF0F9
:100CF000FF30BFE700222046641C2A542046641CB3
:100D00002A54B0222046641C2A54B8F1A00F02DDF8
:100D10004FF0FF30AEE72046641C05F800803B1B17
:100D20002A1941465846FFF7A1FE0646002E02DA70
:100D30004FF0FF309EE7344420469BE72DE9F05FFB
:100D400081468A4693461F46DDE90A58002400265C
:100D5000B8F1020F02DA601EBDE8F09FB9F1000F92
:100D600014D0484602F00BF980B191206870A8F1C8
:100D70000202A91C4846FFF70BFF0646002E04DAC4
:100D8000FE2E02DB4FF0FF30E6E7761C2E70741C5F
:100D9000201D404502DD4FF0FF30DDE711222046E7
:100DA000641C2A5400222046641C2A54504602F037
:100DB000E6F828559121601C2954A8EB0400821EF6
:100DC0002819811C5046FFF7E3FE0646B01C044478
:100DD000201D404502DD4FF0FF30BDE700222046D8
:100DE000641C2A5408222046641C2A54B02220463F
:100DF000641C2A54A02F02DD4FF0FF30ACE72046E0
:100E0000641C2F5428193A46594602F06AF83C44AB
:100E10002046A1E72DE9FF4F8FB004468846DDE963
:100E20001DAB2078471CB8F1000F04DC4FF0FF30F9
:100E300013B0BDE8F08F781C404502DD4FF0FF3065
:100E4000F6E7E05D00F00400042802D04FF0FF3028
:100E5000EEE7781C205C0E900E98401C1C9988428E
:100E600002DD4FF0FF30E3E7E119C81C129A0E993A
:100E7000FFF7CBFE791C615C481C00EBD0714A1077
:100E8000F91C5518A91C605CFFF7DCFD6430089064
:100E9000E91C605CFFF7D6FD401E0790291D605CD1
:100EA000FFF7D0FD0690691D605CFFF7CBFD059054
:100EB000A91D605CFFF7C6FD0490E91D605CFFF7AB
:100EC000C1FD039005F10801605CFFF7BBFD0290D6
:100ED00003A8FCF71FF901460298C0EB0010C0EB15
:100EE0000010A1EB80011198016005F1090909F1D9
:100EF0000100404502DD4FF0FF3099E714F809602A
:100F0000B34502DA4FF0FF3092E709F10102A8EB96
:100F1000020104EB0902501C33465246FFF7EFFD75
:100F200001900198B04202D04FF0FF3080E75E455B
:100F300003DA00200AF8060004E00021ABF101000A
:100F40000AF80010304673E710B504462046F6F75D
:100F500021FE10BD10B504462046F6F73FFE10BD39
:100F600010B5FFF735FD10BD0A4800787047002026
:100F700008490870704710B5FFF7DAFB10BD064846
:100F8000007870470120044908707047002002492A
:100F900008707047B3030020D4030020F8490968A3
:100FA000411A03290CD3F749097831B10021F54AD8
:100FB00011700121F44A116202E00021F24A11622B
:100FC00070470120EF49087070470146EF480078EC
:100FD00008B100207047EE48006820B90020ED4AB3
:100FE0001070ED4A10700D2902D02A2912D10AE0A2
:100FF000E9480078E94A1278904202D10120E34A98
:1010000010700020E6E70020E34A10700120E14A5A
:1010100010702BE0DF48007810B3302909DB392944
:1010200007DCA1F13000DC4A12781043DA4A107074
:1010300006E0A1F13700D84A12781043D64A107062
:10104000D4480078012805D1D34800780007000E65
:10105000D14A1070CF480078401CCE4A107004E08E
:10106000CE4800784840CD4A107000BF00BFCC4841
:10107000C74A12688154FF20ACE70146C94800788E
:1010800008B100207047C248006820B90020C14A5A
:101090001070C14A10700D2902D02A2912D10AE01D
:1010A000BD480078BD4A1278904202D10120BD4A65
:1010B00010700020E6E70020B74A10700120B54A02
:1010C00010702BE0B348007810B3302909DB3929C0
:1010D00007DCA1F13000B04A12781043AE4A10701C
:1010E00006E0A1F13700AC4A12781043AA4A10700A
:1010F000A8480078012805D1A74800780007000E0D
:10110000A54A1070A3480078401CA24A107004E061
:10111000A24800784840A14A107000BF00BFA24812
:101120009B4A12688154FF20ACE701469F48007833
:1011300008B1002070479648006820B90020954A01
:101140001070954A10700D2902D02A2912D10AE098
:1011500091480078914A1278904202D10120934A36
:1011600010700020E6E700208B4A10700120894AA9
:1011700010702BE08748007810B3302909DB39293B
:1011800007DCA1F13000844A12781043824A1070C3
:1011900006E0A1F13700804A127810437E4A1070B1
:1011A0007C480078012805D17B4800780007000EB4
:1011B000794A107077480078401C764A107004E035
:1011C000764800784840754A107000BF00BF7848E4
:1011D0006F4A12688154FF20ACE7014675480078D9
:1011E00008B1002070476A48006820B90020694AA9
:1011F0001070694A10700D2902D02A2912D10AE014
:1012000065480078654A1278904202D10120694A07
:1012100010700020E6E700205F4A107001205D4A50
:1012200010702BE05B48007810B3302909DB3929B6
:1012300007DCA1F13000584A12781043564A10706A
:1012400006E0A1F13700544A12781043524A107058
:1012500050480078012805D14F4800780007000E5B
:101260004D4A10704B480078401C4A4A107004E008
:101270004A4800784840494A107000BF00BF4E48B5
:10128000434A12688154FF20ACE770B505464B48CD
:10129000007801284ED0022871D1002447E004EBE9
:1012A0008400474901EB8000464951F82410405C16
:1012B000A84237D1434850F82400401C414941F826
:1012C000240004EB84003E4901EB80003D4951F8C5
:1012D0002410405C28BB3C490C7001203749087041
:1012E00000202B4908602D490870002417E036487B
:1012F000007800EB8000324901EB8000005D274957
:1013000009784840254908702F48007800EB800094
:101310002B4901EB8000005D00B902E0641C102C39
:10132000E5D303E00020274941F82400641C042C85
:10133000B5D360E02448007800EB8000204A02EB3F
:10134000800001692846884758B902201B49087067
:10135000002404E000201B4941F82400641C042CF4
:10136000F8D30B480068401C09490860084600682B
:10137000502832D302201149087000242BE02DE0C0
:10138000E4030020E0030020282F0020DB030020DE
:10139000FC030020DA030020D9030020D80300203A
:1013A000182D0020DC030020682D0020DD03002024
:1013B000B82D0020DE030020082E0020E1030020CD
:1013C0004852010848320020F80300200020F84964
:1013D00041F82400641C042CF8D30CE00220F549E9
:1013E0000870002404E00020F14941F82400641C46
:1013F000042CF8D300BF00BF70BD2DE9F84F0446A0
:101400000D462046294602F07CFB0090009802F031
:1014100057FB804622462B4602F060FA06460F46EE
:101420000022E54B3046394602F05BFA06460F468D
:10143000009802F045FB80460022E04B02F051FA92
:10144000824632463B4602F0A5F9BDE8F88F2DE909
:10145000F05F04460D464FF00002D84B2046294667
:1014600002F0B1FA804603F051FC06460F46002216
:10147000D24B3046394602F034FA804622462B469B
:1014800002F02CFA82468B460022CB4B504659463E
:1014900002F099FA804632463B4602F07BF9BDE8FD
:1014A000F09F3EB5044647F23051684601F0C8FB54
:1014B00004E0684601F0CFFB00B103E0C048806A59
:1014C0000328F6DB00BFBE48806A012807DD40F232
:1014D0008F12BB49204601F004FD00203EBD0120D3
:1014E000FCE710B504464FF4C871204601F012FD28
:1014F000002060620120A06210BD10B5B048FFF767
:10150000F0FF10BDF0B5D0E90065B54204DC0C2653
:101510004568B6EB850F00DAF0BD4568012D01DAAC
:10152000012545609C2586686E5045686D1EAC009F
:10153000251D8668AE4202DA85682D1B00E0042571
:101540002C4600223AE045686D1E02EB850302EB53
:10155000820600F10C0555F8266003EB830701F1C4
:10156000A00545F8276002EB820600F10C0505EBAB
:10157000860503EB8307AE6801F1A00505EB87053F
:10158000AE6002EB820600F10C0505EB860503EB6D
:101590008307EE6801F1A00505EB8705EE6002EB1D
:1015A000820600F10C0505EB860503EB83072E6927
:1015B00001F1A00505EB87052E61521CA242C2DB9A
:1015C0000D6845F004050D6000BFA5E7F0B589B0D2
:1015D00005460C4616460027202C0DDA22462946E1
:1015E000684601F07EFC00200DF80400324608A990
:1015F000684601F0C9FF0746384609B0F0BDF0B5AE
:1016000089B007460C4600210D460E46202C0DDA07
:1016100022463946684601F064FC00200DF80400BB
:1016200008A9684603F0E0FB05460E462846314609
:1016300009B0F0BD0FB42DE9FF5F04468B4604EB03
:101640000B080120029000264FF0000900200190B5
:101650008246009011A80390F4E00298012806D079
:10166000022813D0032817D004280ED12BE010989D
:101670000078252802D10220029006E014F8011B10
:1016800010980078814200D0E3E0D7E00026DDF832
:1016900040900320029000BF01F010FC00681099F8
:1016A0000978405C202800D1C8E0042002901098FE
:1016B000484507D91098A0EB09010A224846FFF7D0
:1016C00085FF064600BF27466EB91098007863284C
:1016D00003D010980078432805D1207810994978D4
:1016E000884200D001262EB1A019404501D83444CB
:1016F0000DE0AEE01098407840B1A8EB04021098DD
:101700004178204601F050FC040000D14446444595
:1017100000D99EE0012002900098401C0090002516
:10172000E61B10980078632812D008DC432810D0FC
:10173000452828D0472824D0532830D112E06528E6
:1017400020D066281BD067281AD0732827D108E03C
:1017500000BF039820C8039016B10DB138782870E7
:101760001DE000BF039820C803903EB135B132465A
:101770003946284601F0B5FB0020A8550FE000BF10
:1017800000BF00BF00BF039820C8039036B12DB141
:1017900031463846FFF733FFC5E9000100BF00BFFF
:1017A00005B14BE0039802C80D0003900AD145E053
:1017B00048320020E103002000004E400000594064
:1017C000282F002006B939E0109800786F2829D01A
:1017D00006DC58281DD0642807D069282BD105E0E5
:1017E00075280CD0782826D112E000BF0A22314695
:1017F0003846FFF7EBFE0190019828601CE00A22B2
:1018000031463846FFF7E2FE8246C5F800A013E0F5
:1018100000BF102231463846FFF7D8FE8246C5F891
:1018200000A009E0082231463846FFF7CFFE824685
:10183000C5F800A000E00CE000BF00BF00BF10989A
:10184000401C10901098007810B14445FFF405AF8B
:1018500000BF00200390009804B0BDE8F01F5DF8C1
:1018600014FB2DE9F04192B00746884614465C21EE
:10187000204601F04FFB04F158010A1F131F04F129
:101880004800CDE90F3211910E90011F0A1F131F5E
:101890001438CDE90B320D910A90011F0A1F131F56
:1018A0001438CDE9073209910690011F0A1F0C3840
:1018B0001C3BCDE90230CDE904210C38211D234623
:1018C000FEA2CDE9001041463846FFF7B3FE0646BA
:1018D0006068401E8500281DA168814202DAA06868
:1018E000401B00E004200546032000EB8505AE42C6
:1018F00001DB132E03DD002012B0BDE8F0810120D2
:10190000FAE7F0B5002445688D62D0E90E56C1E9CA
:101910000C56D0E91056C1E90E56D0E91256C1E96D
:101920001056002221E000231AE000F1080555F8C6
:101930002250A5B100F1080555F8226003EB83079A
:1019400001F1A00555F82750AE4208D1012603EB5E
:10195000830701F1A00505EB87056E60641C5B1C25
:101960009C256D589D42E0DC521C0C2ADBDBC1F843
:1019700098400D6845F002050D60F0BD70B590B05F
:1019800005460E4614465021204601F0C3FA04F1E4
:10199000480104F1400204F13803181FCDE90D326B
:1019A0000F910C90011F0A1F131F1038CDE9093247
:1019B0000B910890011F0A1F131F1038CDE9053243
:1019C00007910490011F0838021F231DCDE9003242
:1019D000CDE902012346C8A231462846FFF72AFE78
:1019E000112802D0002010B070BD0120FBE770B5B7
:1019F00004460D46E1682961216969616169A9614F
:101A0000A169E961E06B6862D4E91201C5E90E01E0
:101A1000D4E91401C5E91E01D4E90801C5E91201A0
:101A2000D4E90C01C5E9160194F8380085F8600086
:101A300094F8280085F8500094F828004E2805D125
:101A4000D4E908211046FFF702FD06E0D4E9082199
:101A50001046FFF7FCFC81F00041C5E91A0194F83B
:101A60003800452805D1D4E90C211046FFF7EFFCDA
:101A700006E0D4E90C211046FFF7E9FC81F00041B3
:101A8000C5E91C01286840F00100286070BDFEB562
:101A900006460D4614460027062D06D0082D16D002
:101AA000092D15D00A2D28D113E004F11400011FCF
:101AB0000B1F9EA2CDE9001029463046FFF7BAFD64
:101AC000032801D1012000E00020074617E000BFF5
:101AD00000BF04F11800011F0A1F131FCDE90021E8
:101AE000029095A229463046FFF7A4FD042801D1B3
:101AF000012000E00020074601E0002700BF00BFF2
:101B00000FB10020FEBD4FF0FF30FBE7F0B591B004
:101B100005460E4614468021204601F0FBF904F1EB
:101B2000780004F1700104F1680204F16003CDE96A
:101B30000932CDE90B1020382039203A203BCDE97D
:101B40000532CDE907101C38011F183A183BCDE9C2
:101B50000132CDE903101C380DAB7BA23146009059
:101B60002846FFF767FD0E2802D0002011B0F0BD17
:101B70000DA801F004FA0746224639460DA8FFF7E2
:101B800086FF08B10020F1E70120EFE72DE9F041E1
:101B900005460C46287F412809D1606A08B9022011
:101BA0006062A06A012809D10220A06206E0287FB5
:101BB000562803D1002060620120A0621C22294621
:101BC000201D01F08EF955F8200F6968C4E9120153
:101BD000D5E90401C4E91601287E84F86000287A5A
:101BE00084F85000287AA5F120054E2805D1D5E9C2
:101BF00008211046FFF72BFC06E0D5E90821104626
:101C0000FFF725FC81F00041C4E91A0195F838007E
:101C1000452805D1D5E90C211046FFF718FC06E050
:101C2000D5E90C211046FFF712FC81F00041C4E910
:101C30001C01504A504BD5E91061304601F051FE6D
:101C4000C4E92001D5E91201C4E92201206840F06D
:101C500008002060BDE8F0812DE9F04192B0064611
:101C60000F4614466021204601F054F904F1590052
:101C7000411E04F15002CDE90942CDE90B10201DAF
:101C8000011D083A04F14003CDE90532CDE9071002
:101C900034302831203A203BCDE90132CDE9031020
:101CA0001C380EAB35A2394600903046FFF7C2FC17
:101CB00005460D2D7DD00E2D7BD076E025642C259C
:101CC000642C25642C25642C25642C25642C256427
:101CD0002C25642C25642C25642C25642C25642C4F
:101CE00025642C25642C25642C25642C25642C2546
:101CF000642C25642A00000025432C25642C2564CF
:101D00002C25642C25642C25642C25642C25642C1E
:101D100025642C25642C25642C25642C25642C2515
:101D2000642C25662C25662C25662A002532642520
:101D30003264253264000000253264253264253285
:101D4000642E25640000000025732C25662C254395
:101D50002C25662C25432C25642C25642C25662CEB
:101D600025662C25432C25662C25432C25662C2501
:101D7000642A00006F1283C0CAA1FD3F25732C2581
:101D8000432C25662C25432C25662C25432C2566C3
:101D90002C25662C2532642532642532642C256678
:101DA0002C25432C25432A0003E0002012B0BDE877
:101DB000F0810EA801F0E3F88046224641460EA8C5
:101DC000FFF765FE08B10020F0E720685A2802DA24
:101DD0002068643020606068401E60600120E5E794
:101DE00010B52F48007800284CD02E4800780028E5
:101DF00048D02D480078002844D02C48007800288E
:101E000040D02B482B4908600846502102682A48D8
:101E1000FFF722FF294927480068FFF7B7FE24484B
:101E2000274908600846502102682648FFF76EFEE1
:101E3000224923480068FFF7DAFD1D48224908605F
:101E40000846502102682148FFF798FD1B491E48AB
:101E50000068FFF756FD16481D49086008465021E6
:101E600002681C48FFF7FDFC144919480068FFF799
:101E700049FB00200A4908700A4908700A4908709D
:101E80000A490870002010BD10B502460B4600201C
:101E9000002102E0545C6040491C9942FADB10BD0D
:101EA000DB030020DC030020DD030020DE03002034
:101EB000A82E0020E8030020182D0020282F002045
:101EC000EC030020682D0020F0030020B82D002036
:101ED000F4030020082E002010B502460B46002017
:101EE000002103E0545C0444E0B2491C9942F9D358
:101EF00010BD10B504466F212046FFF7EDFF94F8A2
:101F00006F10884201D1002010BD0120FCE730B5E0
:101F10009DB00546FA4804680120FA49086021E0AE
:101F200014B940F2913400E0641EF5484068A042C4
:101F300000D118E0C4EBC4014FF4A22202EB01105F
:101F4000702201A900F0C3FB01A8FFF7D2FF48B936
:101F5000702201A9284600F0C4FF0020E94908606A
:101F60001DB030BDDCE700BF0020E649086001205D
:101F7000F6E7FEB506460020E149086048600872B1
:101F8000E14908607021304600F0C4FF40F6F67465
:101F900030E004F5A0200922694600F098FB009883
:101FA000401C26D040F292310098884221D20198FC
:101FB00088421ED208216846FFF78EFF0546D248A8
:101FC000006808B9D04804609DF80800A84210D104
:101FD00040F29231009888420BD20198884208D290
:101FE000C74800990160019941609DF8081001728D
:101FF00002E0093C002CCCDA00BF3046FFF787FF37
:102000003046FFF776FF18B17021304600F082FFAE
:102010000020BC490860FEBDF8B505460E462846BE
:10202000314601F0C3FD00906C4627463868F8BD84
:1020300001460A46106870472DE9FC4104460F46E8
:102040000120B0490860606000202060A060E84680
:1020500040F6FA7519E078190522694600F037FB59
:10206000D8F80000401C0FD004216846FFF734FF69
:1020700006469DF80400B04206D1681DA060009895
:1020800020602068606002E06D1F002DE3DA00BF71
:1020900000209C490860BDE8FC817FB504460D46E0
:1020A000012098490860D4E9001088423ED0206899
:1020B00060602068029040F6FF71A068884201D3FA
:1020C0000020A0602DE0042102A8FFF705FF8DF895
:1020D0000C00A1684819042202A900F0CFFAA168F7
:1020E0002944081D012203A900F0C8FAA168481973
:1020F0000522694600F0EBFA0522694602A800F0C5
:102100005DFF38B140F6FF71A068884206D3002019
:10211000A0600AE0A068401DA06006E0A068401D25
:10212000A060A068B0F5805FCDD300BF00207549E6
:1021300008607FBD0EB50120724908600821704813
:10214000FFF7CAFE6E49087257E06F49096801F54A
:10215000A02004226A4900F091FA6B480068001D33
:1021600069490860096801F5A02004226449091D35
:1021700000F084FA64480068001D6349086009683B
:1021800001F5A02001225E49083100F077FA5E488F
:102190000068401C5C490860096801F5A021A1F1B4
:1021A00009000922694600F092FA5748006840F693
:1021B000FF71884207D301214FF4A02000F0C3F93A
:1021C0000020514908604E490098096888420AD1A8
:1021D0004B4901984968884205D19DF80800484953
:1021E000097A884208D001214FF4A02000F0ABF911
:1021F00000204549086000E000E0A6E700BF00209D
:10220000404908600EBD10B501203E49086001211B
:102210004FF4A02000F097F9002039490860486089
:10222000FFF788FF00203749086010BD10B5012076
:1022300034490860324840683149096888420FD003
:102240002F484068401C2E4948600846406840F2CC
:102250009231884202D3002029494860FFF76AFF83
:1022600000202849086010BD2548006824494968B5
:10227000884205D32248006821494968401A7047BE
:102280001F48406840F29231081A1D490968084405
:10229000F5E730B59DB005460C4660682168884278
:1022A00003D14FF0FF301DB030BD6168C1EBC101FB
:1022B0004FF4A22202EB0110702201A900F007FAEC
:1022C00001A8FFF716FE30B9702201A9284600F0D8
:1022D00008FE0020E7E74FF0FF30E4E770B5044662
:1022E00007484568012007490860054840680449D7
:1022F000096888420AD1002002490860401E70BD6A
:1023000038330020080400200004002018E05D4855
:102310004068401C5B4948600846406840F2923182
:10232000884202D3002057494860564840685549C2
:102330000968884204D1002053490860401EDEE746
:1023400050492046FFF7A5FF0028E0D14D484068DE
:10235000A84201D0FFF7EEFE00204B49086000BF05
:10236000CDE72DE9F0479CB080464FF000090025ED
:102370000026AA4601204449086081E009F10100D5
:1023800000F0FF09B9F10A0F06DB00203E490860A2
:1023900001201CB0BDE8F0873A484068C0EBC0009F
:1023A000C0F3132537480068C0EBC000C0F3132A00
:1023B00034480468641C40F29230844200D3002404
:1023C000C4EBC400C0F31326564506D04FF4A22137
:1023D00001EB0630012100F0B6F8AE421FD12948CA
:1023E0004068A0421BD36D1C28037021B0FBF1F0A4
:1023F0002449486028037021B0FBF1F201FB120070
:1024000020B120484068401C1E4948601D48406873
:1024100040F29231884202D300201A4948606F216D
:102420004046FFF759FD88F86F0000270EE008EBE3
:102430000701144A1268C2EBC2024FF4A22303EB55
:102440000212D019042200F019F93F1D702FEED3AB
:102450000C490968C1EBC1014FF4A22202EB011043
:102460007022694600F033F9064804606846FFF7B9
:1024700040FD28B9FFF75EFE00200349086088E7A9
:102480007CE70000383300200804002010B501204C
:10249000F6F7B5F9002010BD10B5F6F71BFA0020CD
:1024A00010BD10B5AD48006840F01000AB490860A1
:1024B000AB48006940F40050A94908610521A948CA
:1024C000F6F71AFAFF21A748F6F716FA0446A348CA
:1024D000001F006840F01000A049091F0860204656
:1024E00010BD70B5A04C00E0641EFFF7DAFF10F0DD
:1024F000010F01D0002CF7D19848006840F010007F
:10250000964908609648006940F400509449086173
:1025100006219448F6F7F0F99048001F006840F053
:1025200010008E49091F086000BFFFF7BAFF05467B
:10253000641E15F0010F02D115F0020F01D1002C1D
:10254000F3D1002070BD70B504460D46FFF7C9FFFA
:102550008248006840F010008049086080480069A7
:1025600040F400507E49086135B1012D12D0022D92
:1025700015D0032D1DD117E060217A48F6F7BCF97C
:102580007648001F006840F010007449091F086079
:10259000002070BD20217348F6F7AEF909E0522102
:1025A0007048F6F7A9F904E0D8216E48F6F7A4F9C7
:1025B00000BF00BFC4F307416A48F6F79DF9C4F3B2
:1025C00007216848F6F798F9E1B26648F6F794F9FA
:1025D0006248001F006840F010006049091F086051
:1025E0000020D6E72DE9F04104460D4616465E4F21
:1025F000FFF777FF5948006840F01000574908601E
:102600005748006940F40050554908610221554877
:10261000F6F772F9C4F307415248F6F76DF9C4F3BF
:1026200007215048F6F768F9E1B24E48F6F764F929
:1026300005E015F8011B4B48F6F75EF9761E002EF3
:10264000F7D14648001F006840F010004349091FB9
:10265000086007E07F1EFFF724FF804618F0030F95
:1026600000D101E0002FF5D100BF27B93F48006835
:10267000401C3E4908600020BDE8F0812DE9F04192
:1026800005460F46144600262805000D03D10121FA
:102690002846FFF758FFC5F30B002044B0F5805FD4
:1026A00003D92819C0F30B06A41B22463946284635
:1026B000FFF798FF46B128190121FFF744FF3919A8
:1026C00028193246FFF78EFF0020BDE8F0812DE982
:1026D000F04104460D461646234F00E07F1EFFF7EB
:1026E000E0FE10F0010F01D0002FF7D11B48006869
:1026F00040F01000194908601948006940F4005082
:10270000174908610B211748F6F7F6F8C4F307419B
:102710001448F6F7F1F8C4F307211248F6F7ECF87D
:10272000E1B21048F6F7E8F800210E48F6F7E4F8B1
:1027300005E000210B48F6F7DFF805F8010B300043
:10274000A6F10106F5D10548001F006840F0100011
:102750000249091F08600020BDE8F081140801400B
:10276000001001400030014040420F000C040020E6
:1027700038B504460D468DF800408DF80150022210
:1027800069469820F5F7AEFE38BD38B504460020FE
:1027900000903E48006820B96A4621469820F5F727
:1027A00023FD9DF8000038BD10B50320FFF7EDFFB5
:1027B00010BD70B505250020344908605CE0F5F7D0
:1027C000B7FC00210720FFF7D3FF0720FFF7DDFF4D
:1027D000044600210720FFF7CBFF0720FFF7D5FFB6
:1027E000044604B148E000210520FFF7C1FF0520A1
:1027F000FFF7CBFF044604B13EE0E7210620FFF7D8
:10280000B7FF0620FFF7C1FF0446E72C00D033E0F6
:1028100001210920FFF7ACFF0920FFF7B6FF0446AE
:10282000012C00D028E001210820FFF7A1FF08209B
:10283000FFF7ABFF0446012C00D01DE000210A2069
:10284000FFF796FF0A20FFF7A0FF044604B113E04C
:1028500001210720FFF78CFF0720FFF796FF0446B2
:10286000012C00D008E0042009490860FFF79CFF14
:1028700000200649086070BD2800A5F10101CDB215
:102880009DD101200149086000BFF4E71404002035
:102890001404014070B504460D46002020706560A8
:1028A0002072284600F06BFB607270BD0246137AFE
:1028B0005068C05C884204D11170107A401C1072BC
:1028C00009E0107853681B78984202D101201072F9
:1028D00001E000201072107A537A984202DB002047
:1028E00010707047FF20FCE700210160704701462F
:1028F000086870470A68026070470246106808B9A5
:1029000000207047116800E0096808680028FBD1C2
:102910000846F6E710B502460B46146804B910BD28
:10292000002110680CE0984208D111B904681460C5
:1029300001E004680C6000240460F0E701460068D0
:102940000028F0D100BFEAE770B505460C462146E5
:102950002846FFF7DFFF002020602846FFF7CDFF65
:1029600006460EB92C6000E0346070BD30B50446F8
:102970000D4629462046FFF7CDFF206828602560D8
:1029800030BD0246106808B9002070471068006822
:1029900020B91168002010600846F6E7116800E0D1
:1029A0000968086800680028FAD10B6808601846B2
:1029B000EBE7014608680A6812B10A6812680A6003
:1029C0007047014600200A6801E0401C1268002A96
:1029D000FBD1704770B506460C46154624B929460A
:1029E0003046FFF7C3FF02E020682860256070BD15
:1029F000014609B9002070470868FCE7034613B197
:102A000009B1022A02D24FF0FF307047D96000208E
:102A1000186058609A6000BFF7E710B502460B4691
:102A20001168491C9068884200D80021506888428B
:102A300002D14FF0FF3010BD1468D068035511600B
:102A40000020F8E7024650681368984202D14FF020
:102A5000FF3070475368D068C05C08705068401CF5
:102A6000506050689368984201D300205060002065
:102A7000EFE7014608684A68904203D308684A684D
:102A8000801A704788684A68801A0A681044F8E714
:102A900030B50C46022505700025458082718560A1
:102AA00042F21075C5608380002103E00025655463
:102AB0004D1CE9B285798D42F8DC30BD30B5134646
:102AC0000C78022C01D1886010E08C68041BCD6862
:102AD000AC420BD3886002240C70002203E0002477
:102AE0009C54541CE2B28C799442F8DC30BD2DE940
:102AF000F04781460F4615461E46DDF820803246D7
:102B000029464846FFF7DAFF2878012831D0022805
:102B100053D1002429E057F83400315D405C404532
:102B200005D057F83400315D405C092810D12A489F
:102B300080F80080305D401C305557F83400315D1E
:102B4000405C88B9EC7101202870002068800BE09F
:102B500057F83400007820490978884202D10120D2
:102B6000305501E000203055641CA879A042D2D82D
:102B70002EE06888E97907EBC1014A684146904731
:102B800048B902202870002402E000203055641C5F
:102B9000A879A042F9D86888401C68806888A9880C
:102BA000884209DB02202870002402E00020305512
:102BB000641CA879A042F9D80AE0022028700024F9
:102BC00002E000203055641CA879A042F9D800BF6B
:102BD00000BFBDE8F0870000180400207047704770
:102BE0003A480068401C3949086039480268406822
:102BF000521C40F1000036490A60486033480068C2
:102C000040F2E731B0FBF1F201FB120020B931488C
:102C10000068401C2F49086070472C4800687047C6
:102C20002B4908684968704700B50146FFF7F5FF72
:102C3000024600BFFFF7F1FF801A8842FAD300BDB9
:102C400000B50246FFF7E9FF10605160D2E90003CA
:102C50001844906000BD10B50146D1E90004021986
:102C60008868904201D0002010BDFFF7D6FF0246D1
:102C7000D1E90004204488600868904202D80868BE
:102C8000131A03E00868C0F1FF30831848689842BF
:102C900001D80020E8E74868C01AE5E700B5024619
:102CA000FFF7BBFF03460EE0FFF7B7FF014699426F
:102CB00003D3C81A904206D306E0C3F1FF3008449C
:102CC000904200D300E0EFE700BF00BD24040020E5
:102CD00028040020200400200246002100BF1088A4
:102CE00000B906E0921C481C81B28029F7DB002065
:102CF000704700BF0846FBE770B504460D4600224A
:102D000008E004EB42014B1C0E78187808701E7026
:102D1000501C82B2AA42F4DB002070BD02460A6059
:102D2000107810B94FF0FF3070471078802803DA20
:102D3000501C08601078F7E7107800F0E000E028F9
:102D400015D1507808B1907810B94FF0FF30EBE70B
:102D5000D01C086010780007000C537803F03F0384
:102D600040EA8310937803F03F031843DCE71078C0
:102D700000F0C000C0280DD1507810B94FF0FF30DE
:102D8000D2E7901C0860107800F01F03507863F3BE
:102D90009F10C9E74FF0FF30C6E778B504460D46EF
:102DA00000260020208000BF69462846FFF7B6FFB6
:102DB00000B22080009DB4F90000401C01D12080A9
:102DC00003E0A41C701C86B2EEE700BF304678BD5D
:102DD0000246802A04DA0A700020487001207047F9
:102DE000802A0FDBB2F5006F0CDAC02040EAA21097
:102DF000087002F03F0040F08000487000208870AA
:102E00000220ECE7B2F5006F1DDB4FF6FF70824247
:102E100019DAB2F5584F04DBB2F5604F01DA002041
:102E2000DDE7E02040EA22300870C2F3851040F070
:102E30008000487002F03F0040F080008870002061
:102E4000C8700320CBE7B2F5803F19DB1A488242F5
:102E500016DAF02040EAA2400870C2F3053040F0D4
:102E600080004870C2F3851040F08000887002F046
:102E70003F0040F08000C870002008710420AEE7D9
:102E80004FF0FF30ABE730B502460B46002000BFE5
:102E900014881D88AC4205D100B910469B1C1C88C3
:102EA00014B906E000200B46921C1488002CEFD1C8
:102EB00000BF00BF30BD0000FFFF1000004870479A
:102EC0001C53010810B50446FFF7F8FF0068005DC9
:102ED00000F0010010BDA0F16101192900D82038CF
:102EE000704740EA01039B0703D009E008C9121F9D
:102EF00008C0042AFAD203E011F8013B00F8013BB4
:102F0000521EF9D27047D2B201E000F8012B491EDF
:102F1000FBD270470022F6E710B513460A46044676
:102F20001946FFF7F0FF204610BD421E12F8013F80
:102F3000002BFBD111F8013B02F8013B002BF9D12A
:102F4000704730B505462A460B4612F8010B13F8B8
:102F5000014B08B1A042F8D01CB1002802D06D1C72
:102F6000F1E7284630BD10B5044604E00B7800F8C0
:102F7000013B03B1491C521EF8D2204610BD421C31
:102F800010F8011B0029FBD1801A704710B50022F0
:102F900000E0521C835C8C5CA34201D1002BF8D171
:102FA000D8B2E1B2401A10BDCBB203E00178994229
:102FB00003D0401C521EF9D20020704730B50446A1
:102FC0000020034600E05B1C934203D2E05CCD5C32
:102FD000401BF8D030BD034611F8012B00F8012B3F
:102FE000002AF9D1184670470FB400B58DB010A96A
:102FF00009900B9000914FF0FF300A9000200C9048
:1030000005480690054807906A4609A80F9900F000
:1030100089FE0DB05DF814FB413D01085F3D0108DC
:103020002DE9FF5F1D464FF0FF3BD5E90146914674
:103030005F464FF00008A9697F1C01988847296AFC
:10304000824688470028F6D11AF101000CD024F4FA
:10305000C064002E19DD600614D5BAF12B0F09D01B
:10306000BAF12D0F0ED103E0584604B0BDE8F09F31
:1030700044F48064A9697F1C01988847761E8246C3
:10308000002E02DDBAF1300F03D0B9F1000F26D0C7
:1030900032E0761EA96944F400747F1C01988847C9
:1030A0008246002E05DDBAF1780F06D0BAF1580F2E
:1030B00003D0B9F1000F10D01EE0B9F1000F02D01B
:1030C000B9F1100F18D1761EA96924F400747F1C81
:1030D000019888478246102002E0082000E00A207C
:1030E000814609E008FB0908761EA96944F40074CA
:1030F0007F1C019888478246002E05DD49465046D0
:1031000000F0FCFD0028EDDAE96901988847A00588
:1031100002D46FF00100A8E7E00727D1600614D5BC
:10312000600502D5C8F1000000E04046296801F1C1
:1031300004022A600968220501D5087016E02207FA
:1031400001D5088012E0086010E0286800F1040151
:1031500029600068210502D580F8008006E021077B
:1031600002D5A0F8008001E0C0F8008038467CE776
:103170002DE9FF5FD2E901A74FF000089169994658
:103180001446DDF838B0464601988847054659EAA6
:103190000B0005D009E0A169761C01988847054617
:1031A000216A284688470028F5D1681C03D05FEAC9
:1031B000CA7005D015E04FF0FF3004B0BDE8F09FB5
:1031C0002068011D2160D0F800800AE05FEACA7023
:1031D00001D108F8015B7F1EA169761C0198884720
:1031E0000546002F1ADD681C18D0B9F1000F0DD06C
:1031F000E81705EBD060421120F01F0059F82210AB
:103200002A1A012090400142E0D107E0BBF1000FF3
:10321000DCD1216A284688470028D7D0E169019887
:1032200088470AF0010050EA0B0002D1002188F81B
:103230000010A068B84203DDBBF1000F03D017B146
:103240006FF00100B9E73046B7E700002DE9FF4F06
:10325000087881B09946FF2805D0491C2D2804D054
:103260000024002308E000230BE00124F9E703EB2E
:10327000830300EB4303491C0878FF28F7D104B10E
:103280005B4200200090147801462D2C01D02B2C9D
:1032900004D1521C2D2C12D0002400940025167845
:1032A000FF2E0ED00A24A0FB04C801FB04810027D6
:1032B00000FB0711521C16EB0C006941EFE70124DB
:1032C000EBE7994450EA010206D101980021C0E9D8
:1032D000001105B0BDE8F08F0024A84D2646DFF8A8
:1032E000A08200F080FE82468B46B9F1000002DA2F
:1032F000C9F1000714E0074612E0F80707D022469C
:103300002B463046414600F0ECFA064688462246F7
:103310002B461046194600F0E4FA04460D467F108D
:10332000002FEAD1B9F1000F3246434650465946C4
:1033300002DA00F048FB01E000F0D3FA009A0AB18B
:1033400081F00041019AC2E90001C2E72DE9FF4F77
:103350001F468DB0D7E901464FF0FF382E20454675
:103360004FF000090B90B9696D1C0E988847396AB7
:10337000824688470028F6D11AF101000AD024F4C9
:10338000D064002E12DDBAF12B0F08D0BAF12D0F48
:103390000CD102E0404611B09CE744F48064B96966
:1033A0006D1C0E9888478246A6F1010669466005A5
:1033B00001D52D2000E02B208DF8000001F1010B3C
:1033C0000DF1200809E0B9696D1C0E988847824606
:1033D0000F98761E44F400740560002E02DDBAF1E9
:1033E000300FF0D00B998A453ED144F0800406E0BE
:1033F0000F99681CA9F1010944F400740860761E55
:10340000B9696D1C0E98884782463028F0D02BE0B1
:103410000B998A4505D1200603D444F08004761E1A
:1034200018E0504601F0C2F808B3761E0DF1130102
:1034300044F400748B4508D2AAF130000BF8010B5C
:10344000200607D5A9F1010003E0200602D409F106
:1034500001008146A00502D50F99681C0860B96972
:103460006D1C0E9888478246002ED1DC54E0002E59
:1034700052DDBAF1650F02D0BAF1450F4CD1A0056B
:103480004AD5761EB96924F440746D1C0E9888479D
:103490008246002E0DDD2B2804D0BAF12D0F08D165
:1034A00044F48074B9696D1C0E9888478246A6F171
:1034B0000106E00501D52D2100E02B2108F8011BB4
:1034C000CDF82C8021E0761E0DF1290144F4007422
:1034D00088450CD2AAF1300010F0FF0088F80000F7
:1034E00002D10B99884509D908F1010806E0E005E9
:1034F00001D5244801E042F20F708146B9696D1C84
:103500000E98884782460F980560002E04DD5046CD
:1035100001F04CF80028D6D1F9690E988847FF20B1
:103520008BF8000088F800000020069007904B46BA
:103530006A4608A906A8FFF789FEA00502D46FF025
:10354000010028E714F0240F0AD0E00714D1DDE9C8
:1035500006123868031D3B600068C0E900120BE0EA
:10356000DDE9060100F022FB0146E00704D13868DE
:10357000021D3A600068016028460CE70000244004
:103580000000F03FF1D8FFFF2DE9F04791460F46CC
:1035900080460446002614F8015B2DB1FFF78EFC2F
:1035A0000068405DC007F6D12B2D02D02D2D18D01C
:1035B000641E4A463946204600F0E2FB27B13968CE
:1035C000A14201D1C7F8008071054FF002040BD56C
:1035D0004042002803DD00F027FF0460A007BDE89B
:1035E000F08746F48066E4E70028F8DA00F01CFF74
:1035F00004606FF00040F2E7F0B480EA0102D40FFB
:103600004200B2EB410F02D20246084611464A0080
:1036100042D0C30DDDB2C1F3C752AD1A202D35DA49
:10362000C1F3160141F4000204B15242C5F1200673
:1036300002FA06F12A411044B3EBD05F23D0C4B1A3
:10364000012DA0EBC35009DCF0BC4FF0004202EAB0
:10365000C35200F50000DBB200F039BC400000F1BD
:10366000807000EBC350A0F1807040EAD170490037
:1036700009E0490841EAC071A0EBC35000F5000021
:10368000400800EBC350F0BC00F018BC61420122BE
:1036900002EB4101001BF6E7F0BC704781F00041EE
:1036A000AAE780F00040A7E780EA010210B502F027
:1036B0000043400026D04A0023D04FEA106101EBBE
:1036C0001261C0F35600C2F3560240F4000042F407
:1036D0000002A0FB0220A1F17F014FEA0040140488
:1036E00001D000F1010050EA124001D44000491E0F
:1036F000C2B20C0604EBD010401C4008802A02D055
:1037000003E0002010BD20F00100002900DA0020B5
:10371000184310BD30B480EA010202F0004530F0D9
:10372000004221F0004015D0A0B1C0F3C753C2F34E
:10373000C754C2F31601C0F31600E41A41F40001A5
:1037400040F400027D34914201D3641C00E0490042
:10375000002C02DA30BC002070474FF40000002338
:10376000914201D3891A034340084FEA4101F7D13E
:1037700051B1914202D14FF0004105E002D24FF029
:10378000010101E06FF0010103EBC450284430BC9B
:1037900000F094BB2DE9FE4F804681EA0300C00F84
:1037A0000C46009021F0004123F00045B8EB0200E8
:1037B000A94105D24046214690461C460B4602468A
:1037C00023F00040104304D14046214603B0BDE839
:1037D000F08F270DC7F30A00C3F30A510290401A75
:1037E0000190402866DAC3F3130040F4801B009870
:1037F000924620B10023D2EB030A63EB0B0B019836
:103800005946C0F14002504600F047FA06460D46C0
:1038100050465946019A00F05FFA10EB08006141EA
:10382000002487EA115284EAE7731A433BD0009AD6
:103830003AB3019A012A4FEA075210DC001B61EBF0
:1038400002014FF0004202EA0752CDE90042001C9B
:1038500041F5801132462B4600F073FBB6E7001BA2
:1038600061EB0201001C41F5801300185B41201838
:10387000A2F5001747EB030140EAD570B6196D4178
:1038800011E06D084FEA360645EAC0754FEA075267
:10389000001B61EB0201001C41F5801149084FEA51
:1038A00030000019514132462B4603B0BDE8F04FBD
:1038B00000F03ABB0098012240000023D0EB020246
:1038C00063EBE073009821464FEAE074B8EB000028
:1038D00061EB0401E9E783F000435BE781F000411D
:1038E00058E72DE9FE4F81EA030404F0004421F07B
:1038F000004100944FF0000B23F0004350EA010414
:1039000002D052EA030404D10020014603B0BDE80E
:10391000F08FC3F30A54C1F30A552C44A4F2F334D4
:103920000194A0FB0254C1F3130141F48011C3F3CD
:10393000130343F4801301FB024400FB034E840A8B
:10394000970A44EA815447EA8357A4FB0768029523
:103950008D0A05FB07854FEA932C04FB0C542705C1
:10396000029D4FEA065847EA1637B5EB08056EEB9D
:10397000070C870E920E47EA811742EA8312A7FBD3
:103980000201B6EB0B0164EB00042B0D43EA0C3390
:103990005E1844EB1C50DA465146E7FB0201C5F3C2
:1039A00013044FEA0B3343EA14534FEA0432019CE9
:1039B00043EA0603A4F10C040294009CCDE900B490
:1039C00000F0BFFAA2E72DE9F04D81EA030404F00C
:1039D000004B21F0004514464FF0000A23F000414F
:1039E00050EA050220D054EA01021DD0C5F30A575F
:1039F0000246C5F31303C1F31300C1F30A5640F4A2
:103A0000801543F48013A7EB0608101BD64608F276
:103A1000FD3873EB050002D308F1010801E09218AC
:103A20005B41B8F1000F03DA00200146BDE8F08DDC
:103A300000204FF48011064684460EE0171B73EBFE
:103A4000050705D3121B63EB050306434CEA010C83
:103A500049084FEA300092185B4150EA0107EDD166
:103A600052EA030012D082EA040083EA0501084307
:103A700003D100224FF0004308E0101BAB4102D2FB
:103A80000122002302E06FF0010253101AEB06003E
:103A90004CEB085110EB0A0041EB0B01BDE8F04D77
:103AA00000F042BAC10F80EAE0700844CA079623CA
:103AB000002100F00CBA96230022114600F007BA4C
:103AC0000EB540F2334102910021CDE900110A46C2
:103AD0000B4600F036FA03B000BD20F00040C10DE7
:103AE000C0F3160040F400007F2901DA002070477F
:103AF000962903DCC1F19601C84070479639884089
:103B00007047C1F30A5210B5C1F3130140F2FF33FD
:103B100041F480119A4201DA002010BD40F2334393
:103B20009A42A2F2334203DC524200F0C5F810BDC3
:103B3000904010BD00F0004230F000400AD0C10DAE
:103B400001F56071C0F3160042EA0151C208400756
:103B500011437047002001467047000030B500292E
:103B600004DB4FF00044404264EB0101002B04DB16
:103B70004FF00044524264EB03038B4208BF824281
:103B800030BD000030B5002904DB4FF00044404256
:103B900064EB0101002B04DB4FF00044524264EB64
:103BA0000303994208BF904230BD000001F000437A
:103BB00030B421F0004150EA010206D00A0DA2F50E
:103BC0006072C1F31301002A02DC30BC0020704790
:103BD000440F44EAC104C100E01830BC00EBC250FD
:103BE00000F06CB9002801DBC0F10040002901DBC6
:103BF000C1F1004181427047002801DBC0F1004063
:103C0000002901DBC1F100418842704730B50B4605
:103C1000014600202022012409E021FA02F59D42FC
:103C200005D303FA02F5491B04FA02F52844151ED0
:103C3000A2F10102F1DC30BD2DE9F05F0546002064
:103C400092469B4688460646814640241BE028460D
:103C500041464746224600F02FF853465A46C01ABE
:103C6000914110D311461846224600F016F82D1A3D
:103C700067EB01084F4622460120002100F00DF8B5
:103C800017EB00094E41201EA4F10104DFDC484679
:103C900031462A464346BDE8F09F202A04DB203AFD
:103CA00000FA02F1002070479140C2F1200320FA8F
:103CB00003F3194390407047202A04DB203A21FA8D
:103CC00002F00021704721FA02F3D040C2F1200235
:103CD0009140084319467047202A06DBCB17203A4B
:103CE00041FA02F043EAE07306E041FA02F3D04001
:103CF000C2F1200291400843194670473A2800D289
:103D0000303820F02002412A01D3A2F13700884246
:103D100001D34FF0FF3070470268114413780160FF
:103D200018467047D160044951610449116200216D
:103D30001161114600F08EB9193D0108C52E010828
:103D4000426842B1016811F8013B23B1521EC0E93B
:103D50000012184670470121C160881E70474268F2
:103D60005AB1C368016843B983688B4205D0491EC4
:103D7000521CC0E90012002070474FF0FF3070471E
:103D80002DE9F05F82460078002715468B460AF140
:103D90000104B946302801D09DB113E014F8010B9D
:103DA0000127782803D0582801D045B10AE00DB189
:103DB000102D07D10027102514F8010B02E008256B
:103DC00000E00A250026B0460EE005FB080005FBD2
:103DD00006F1012701EB10461FFA80F8B6F5803F87
:103DE00000D3B94614F8010B2946FFF787FF0028D6
:103DF000EBDABBF1000F05D00FB1641E00E05446B2
:103E0000CBF80040B9F1000F06D000F00DFB022105
:103E10000160C81EBDE8F09F48EA0640FAE70000CE
:103E20000FB4002300B589B00CA900910B996FF075
:103E30000042CB601E4B06931E4B07930423CDE933
:103E400001321D4A089202466B460020FFF77EFAB7
:103E500009B05DF814FB70B586B006464FF0FF3030
:103E60000091CDE90101002015460C460490324630
:103E7000694604A8FFF7D4FF03460498211825B12A
:103E800008B10A4600E022462A6000280DD0002B27
:103E900002DD0098884208D0081B0094CDE9010497
:103EA0003246694604A8FFF7BBFF06B070BD0000AC
:103EB000413D01085F3D0108C52E01080029A8BF4A
:103EC0007047401C490008BF20F00100704710B443
:103ED000B0FA80FC00FA0CF050EA010404BF10BCF8
:103EE000704749B1CCF1200421FA04F411FA0CF125
:103EF00018BF012121430843A3EB0C01CB1D010690
:103F0000000A002BBEBF002010BC704700EBC3505E
:103F100010440029A4BF10BC7047401C490008BFD2
:103F200020F0010010BC704710B5002B08DA401CCF
:103F300041F1000192185B411A4301D120F00100C8
:103F400010BD2DE9F04D92469B4611B1B1FA81F2B8
:103F500002E0B0FA80F220329046FFF79EFE04465F
:103F60000F4640EA0A0041EA0B0153465A4608430D
:103F700003D120463946BDE8F08D114653EA0100D1
:103F800015D0C8F140025046FFF796FE05460E4692
:103F9000504659464246FFF780FE084301D00120B3
:103FA00000E00020054346EAE0762C4337430A98B8
:103FB0004FEA4453A0EB08004FEAD4240A304FF0F4
:103FC000000244EA47544FEAD72502D500200146B3
:103FD000D1E7010510196941DDE90845001969417A
:103FE000BDE8F04DA0E70EB540F233420292002248
:103FF000CDE900221346FFF7A4FF03B000BDC1F3D3
:104000000A52C1F3130140F2FF3341F480119A4286
:1040100002DA00200146704740F233439A42A2F28E
:10402000334202DC5242FFF747BEFFF736BE0000C4
:10403000064C074D06E0E06840F0010394E80700F5
:1040400098471034AC42F6D3EEF754FC48540108BC
:10405000685401082DE9F34F8BB04FF0000801F1CF
:104060000C000C464FF0010B46460DF1080A01907A
:10407000626901210198904705002DD0252D2CD093
:10408000216A8847C0B16269012101989047216A7D
:1040900088470028F7D1411E62690198904700E0E7
:1040A000761CA1690B988847216A88470028F7D1B8
:1040B000E1690B988847DBE7A1690B9888470746B9
:1040C000A84201D1761CD3E7E1690B9888477F1C91
:1040D00002D1B8F1000F6FD045E1002762693D467B
:1040E0003946019890472A2804D162690121019834
:1040F00090470125DFF88492626901210198904779
:10410000A0F130010A290AD24F45E5DC07EB87010F
:1041100000EB4107303FDFD445F01005ECE7E9063E
:1041200001D46FF000476C280AD04C2814D06828BE
:1041300015D06A280DD074281CD07A281AD01DE01A
:1041400062690121019890476C2802D045F004056E
:1041500014E045F002050DE045F020050AE0626933
:10416000012101989047682802D045F0080505E034
:1041700045F400656269012101989047C4E901573F
:1041800065283DD019DC582879D00CDC452837D07B
:1041900004DC252826D0412831D131E046282FD013
:1041A00047282CD12CE05B287FD0612828D06328B9
:1041B0007BD0642823D159E0CFE06F2847D008DCBA
:1041C00066281DD067281BD0692821D06E2816D1FB
:1041D00027E0702844D0732867D0752846D0782807
:1041E0000DD14CE0A1690B988847054625283FF47E
:1041F00069AFE1690B9888476D1C3FF46AAFB2E084
:1042000023466A466FF001000B99FFF79FF89DE087
:1042100045F040006060A80723464FF0000235D407
:104220003DE0206800F1040121600068290501D506
:1042300006701DE7290701D5068019E7A90704D5EF
:104240004FEAE671C0E9006112E7066010E745F049
:1042500040006060A80723464FF0080216D41EE015
:1042600040F60E0125EA0100606016E045F04000CE
:104270006060A80723464FF00A0207D40FE045F01C
:1042800040006060A80708D5234610226FF00100A7
:104290000B99AFF3008059E007E0234610226FF03E
:1042A00001000B99FEF7BCFE50E04FF000094F46AD
:1042B0004B46632802D05B2806D040E0E80601D4D4
:1042C0000120A06001273AE062690121019890472E
:1042D0005E2805D14FF0010962694946019890476F
:1042E000216939B900210B46524642F82130491C58
:1042F0000829FADBB0B3216969B9C11700EBD161B4
:104300004B110AEB830221F01F01411A01201368AF
:1043100088400343136062690121019890475D283A
:10432000E8D1B9F1000F09D00020514651F8202002
:10433000D24341F82020401C0828F7DB02AB22467C
:1043400000976FF001000B99FEF712FF00280CDABE
:10435000401C08D1BBF1000F05D04FF0FF300DB06D
:10436000BDE8F08FFFE74046F9E7E90701D108F122
:10437000010806444FF0000B7AE60000CCCCCC0CD0
:1043800070B501EB020410F8015B15F0070301D1D1
:1043900010F8013B2A1106D110F8012B03E010F8A8
:1043A000016B01F8016B5B1EF9D12B0705D40023CB
:1043B000521E0FD401F8013BFAE710F8013B02F15D
:1043C0000202A1EB030303E013F8015B01F8015BB8
:1043D000521EF9D5A142D6D3002070BD0FB4084BB0
:1043E00010B504A902AA039800F0E8F8044602A94F
:1043F000002000F086FC204610BC5DF814FB000095
