:020000040800F2
:1028000048370020A5710008A971000801290008B7
:10281000AD710008AF710008B17100080000000040
:10282000000000000000000000000000B37100087C
:10283000B571000800000000B7710008F5730008CA
:10284000BB710008BB710008BB710008458A000815
:10285000BB710008BB710008BB710008BB710008A8
:10286000BB710008E1900008E9900008BB71000806
:10287000BB710008BB710008BB710008BB71000888
:10288000BB710008BB710008BB710008BB71000878
:10289000BB710008BB710008BB710008BB71000868
:1028A000BB710008BB710008BB710008BB71000858
:1028B0005D320008BB710008BB710008BB710008E5
:1028C000BB710008BB710008BB710008BB71000838
:1028D000BB7100080B7C0008877E0008AD800008F3
:1028E000F1900008D98A000839910008DFF80CD06F
:1028F00011F09EFB00480047C13000084837002017
:1029000000BFF748006800F4E060F6490843001D86
:10291000F3490860BFF3408F00BF00BFFEE730B54A
:102920000246F148C06940F00100EF49C861EF4834
:10293000B2FBF0F0401E8904088540F2E73088853C
:10294000002008808880012088811C200C2100281C
:1029500008DA0B071D0EE24B0C3300F00F04241FA6
:102960001D5503E00B071C0EE14B1C5400BF1C203F
:102970000121814043094FF0E02404EB8303C3F8B5
:10298000001100BF4FF08040008840F001004FF080
:102990008041088030BD10B504F080FC012004F0B7
:1029A000FFFC01F07DFED348006820F47040D1495F
:1029B00008600846006840F48050086000F042FF5C
:1029C0000FF064FD4FF4E131CB48006805F01AF8D0
:1029D0000EF093FDC849096848084FF4165105F0F8
:1029E0009DF9C549096848084FF4E13105F074FACA
:1029F00003F01EF9C0480068FFF791FF06F04FF89A
:102A0000441C204606F03EF80AF0A6FF10BD10B5A3
:102A100004F0EBFCB448C069B8490840B249C86149
:102A20000846806920F4A440886100F011FF0AF094
:102A300092FF10BD38B5002400250020B049087071
:102A4000B0A001234FF4FA620090B0480168B0488A
:102A500000680DF08FFE0020AE490880A3E0641CE2
:102A60000020AD490860FFF7D2FF0221012005F0E8
:102A7000BBFFA048001D006810F0080F02D0681CC2
:102A8000C5B200E000259B48001D006810F0080F4B
:102A900009D1A2480068A2490968401AA149B1F8C1
:102AA0007810884201D2032D09DB01209E4908706D
:102AB0009A4800689A49086001F061F974E09B48FF
:102AC000008810F4006F03D09948007800B16BE0E3
:102AD0000CF0FDFC00B967E0002000F0EDFD8F4830
:102AE000006803F0B6F90BF031FD9248407F00B169
:102AF0005AE08A48006890490968401AB0F5167F84
:102B000027D304F0CBFB012004F04AFC0FF0BEFCFD
:102B10004FF4E1317848006804F074FF76490968A1
:102B200048084FF4E13105F0D7F90AF014FF7B486B
:102B30000068814908600DF0C0FE4FF480717F4845
:102B400002F0BDF90CF0C3FC10B10AF004FF00E084
:102B50002AE07248006801F075FE01F0A1FD02E074
:102B6000002001F08FFC764800780028F8D01E2065
:102B7000B4FBF0F100FB1140A8B97248006850B9ED
:102B800007200FF002FE012802D004F005FA0AE047
:102B90000FF00AFE07E06420B4FBF0F100FB1140E7
:102BA00008B904F0F9F95AE700BFFFF7F4FE012075
:102BB0005349087038BD1FB504460DF00EFA594A46
:102BC0006632A2F12001A1F110000DF0FFF920788A
:102BD00068B15DA003234FF47A7200904B480168FE
:102BE0005CA00DF0C7FD10B906200DF010FA04F03E
:102BF0006BF95B495B4810F023F8C3E100204649BC
:102C000008604648006803F024F94448006801F071
:102C100019FE0DF002FA5448007848B10CF0C9FCD6
:102C20000AF027FF0DF01AFC3C48006802F040FA59
:102C30000CF0E8F80CF0DEFB38B14C48007820B915
:102C40000AF0FCFE08B904F051F903F051FD02F05E
:102C5000FFFF3248006801F015FC3048006802F0C0
:102C600027FA4348007880B142492E48123010F0CC
:102C700068F950B900203E49087001203E490870AB
:102C80003C492848123010F0A6F90DF0C3F9062887
:102C900024D1364800780028FAD13348007800283B
:102CA0001DD03648007838B91C48006822490968A8
:102CB000401AB0F5167F63D3184800681E490860B3
:102CC0000DF0FBFD4FF480711C4802F0F8F82B4822
:102CD0000078002802D0002028490870ADE07DE08F
:102CE0000CED00E00000FA050010024040420F0029
:102CF00000E400E0040C014030020020FCFFFDFF76
:102D00000F0100204154480D00000000B8030020CE
:102D1000B40300200001002054020020040300201E
:102D200004010020580400200E0100208001002032
:102D300084010020DC280020080100200000002081
:102D4000490100201404002041542B435245473FC1
:102D50000D0000002B435245473A20302C31000033
:102D6000C0D401004C040020BC030020A5030020B7
:102D70002B030020842900202C0300205403002072
:102D80000CF038FB002858D00AF058FE002854D127
:102D90000BF0C4FB002850D1FA48006888B9FA4803
:102DA000006810F0080F0CD1F848007848B9F848CE
:102DB000007830B903F08EFC18B9F6480FF04BFFDD
:102DC000D8B30CF013F8C0B30EF0CEF818B9012048
:102DD000F149087031E00DF0B2FC2EE0EF480078C8
:102DE00010B90BF09BFB10B10EF0C5F825E0EC48D4
:102DF0000FF031FF08BBE5480078F0B9E4480078EF
:102E0000D8B903F067FCC0B9E2480FF024FFA0B9BD
:102E1000E4480068E4490968401AB0F5167F0AD210
:102E20000CF0E8FA38B1D748006830B9D6480068E5
:102E300010F0080F01D10EF09EF8DC48007818B1B0
:102E40000220DB49087002E00120D9490870CE4811
:102E5000006810F0080F09D0D2480068D549096809
:102E6000401AD549B1F8761088420ED2C64800689B
:102E700010F0080F0FD1CB480068CE490968401AFE
:102E8000CD49B1F87810884205D3C6480068C949D1
:102E9000086000F074FF01A80FF0DDFE58B94FF490
:102EA0007A7101A80FF0CCFE0BF050FB00F008FD8A
:102EB000002000F001FCC148007A50B10021BF4859
:102EC000017200F05CFF0120BD4908700020BD497F
:102ED000087003F0FFFB10B90AF0B0FD18B1BA4951
:102EE000BA480FF0ADFE00F0CCFCA748006810F027
:102EF000080F04D14FF49221B5480FF0CEF8A24844
:102F0000006810F0080F3DD1B2480078C8BB9D485A
:102F10000068B0BB0CF06EFA98B30AF08FFD80BB6E
:102F200003F0D8FB68BB9948007850BB98480078FC
:102F300038BB0BF0F3FA20BB9848007808BB9B48DD
:102F40000078F0B1A4480078D8B9A4480078C0B996
:102F500090480FF080FEA0B99A48007828B99848A8
:102F6000007870B99748007858B9002095490870E2
:102F70000DF050F8062801D101202070012004B086
:102F800010BDFFE791480FF066FE28B194480FF09E
:102F900062FE00287FF432AE0DF03CF8062801D125
:102FA000012020700020EAE708B50020009002F020
:102FB000FDF80CF011FA01F031FC02F03FFF0120A6
:102FC000884908601CE086480FF045FE18B986491C
:102FD00083480FF035FE6846FFF7EDFD20B96A48DB
:102FE000006810F0080F0BD16748006810F0080F58
:102FF00004D14FF4922176480FF04FF8FFF71AFDF5
:10300000E1E710B562B604F049F9012004F0C8F90F
:103010003D20764988614FF000707549486005F0A1
:1030200035FE05F023FF7348006820F00F0071495A
:1030300008600846006840F00100086088156D4986
:10304000103108605048001F006820F470404E495D
:10305000091F08600846006840F48050086000F0CE
:10306000F1FB00F0E3FA03F097FF01F019FB0FF01A
:103070000DFA02F017FE4FF4E1315F48006804F0EA
:10308000C1FC0EF03AFA5C49096848084FF4165141
:1030900004F044FE5849096848084FF4E13104F04F
:1030A0001BFF56A004F0EBFF5BA004F0E8FF02F06A
:1030B000BFFD02F0A0FF50480068FFF730FC10BDD4
:1030C00045F2555004F07EFC042004F07EFC40F6EE
:1030D000B83004F07DFC04F07EFC04F081FC00209C
:1030E00004F070FCFFF78DFF00F04CF900F0BCFB22
:1030F0004FF47A7127480FF0A3FD01E0FFF754FF6A
:10310000FCE708B50CF069FF2B4A6632A2F12001FA
:10311000A1F110000CF05AFF0CF05EF990E00CF0F9
:103120007CFF0CF046FA0DF099F90CF073FF0628BD
:1031300027D125E069463E480FF084FC80B900BFE6
:103140003C48008810F0800FFAD002200FF06CFD90
:103150009DF800003749091D088002200FF064FD2A
:10316000694635480FF06EFC50B900BF33480088FF
:1031700010F0800FFAD09DF800003049091D08803A
:10318000D8E75DE02C010020080C0140560100202A
:103190005501002034040020B00300205403002017
:1031A000901300200403002008010020BC0300202D
:1031B0006C0100200401002058040020F0050020CC
:1031C0000C0100200D010020C0D401004C0400209F
:1031D000240C002034010020A50300200C02002054
:1031E000400400204C020020005C26050010024034
:1031F0000000014004080140300200207468696545
:103200006E686169626C756540616D706D2E636F8B
:103210006D2E766E0D0A0000313330204E677579C1
:10322000656E204D696E6820486F616E670D0A00FB
:103230009C1B0020004800404C200020003801402A
:103240006DE708B503E09DF8000004F0F4FE694660
:1032500017480FF0F7FB0028F5D008BD10B54FF068
:103260008040008A10F0010F21D04FF6FE704FF021
:10327000804108820F480068401C0E490860FFF733
:10328000E0FF0C4800683221B0FBF1F201FB1200B4
:1032900018B90848006802F0E5FE06480068642195
:1032A000B0FBF1F201FB120008B903F079FE10BD8A
:1032B0004C2000201001002010B54FF4C172BC4911
:1032C000BC480FF00EFE10BD2DE9F0474FF4C1725F
:1032D000B849B7480FF072FE08B9BDE8F08772B67A
:1032E000DFF8D0920025002404E019F8040005441A
:1032F000601C04B2B4F5BF7FF7D3AE48C0F87E516E
:1033000004F0A1F800240DE0A94901EB842004F0A9
:10331000DFF80746042F03D004F0A1F862B6DCE71B
:10332000601C04B2002CEFD0A24E00241BE0A0468B
:10333000E21704EB9272921056F822109C4AA018E1
:1033400004F096F90746E11704EB9171891056F8DD
:103350002110974AA258914203D004F080F862B637
:10336000BBE7201D04B2B4F5C17FE0D304F077F8C9
:1033700062B605F094FB00F10308404605F082FBBD
:1033800000BFAAE72DE9F041002600254FF4C172E5
:10339000874988480FF0A5FD864F00BF002403E051
:1033A000385D0544601C04B2B4F5BF7FF8D3814892
:1033B000D0F87E01A84206D0FF224FF4C1717D48AB
:1033C0000FF0A1FD01267B480088B0F5C17F04D035
:1033D0004FF4C1707749088001267648807CFF2829
:1033E00003D1012600207349887472488078FF2831
:1033F00005D171A16F48801C0FF0EDFD01266D48CD
:1034000090F82400FF2805D16DA16A4824300FF000
:10341000E2FD01266748B0F87600A0F57F41FF394C
:1034200004D11E206349A1F8760001266148B0F856
:103430007800A0F57F41FF3905D14FF4E1605D4987
:10344000A1F8780001265B4890F83600FF2803D0E9
:10345000584890F8360070B95CA1564836300FF0E5
:10346000BAFD54485BA1097880F8461059A1097843
:1034700080F8661001264F4890F87A00FF280FD197
:1034800055A14C487A300FF0A6FD57A14948993014
:103490000FF0A1FD40F6D2704649A1F8B800012610
:1034A000444890F8BA00FF280AD153A14148BA30E5
:1034B0000FF091FD50A13F48D9300FF08CFD01264F
:1034C0003C4890F8F800FF2805D14FA13948F83062
:1034D0000FF081FD0126374890F81701FF2804D12D
:1034E0004BA14E480FF077FD0126324890F8360187
:1034F000FF2805D14AA149481F300FF06CFD012675
:103500002C4890F86601FF2805D12A4831A1097896
:1035100080F866110126274890F87601FF2804D12B
:103520000820244981F876010126224890F8770185
:10353000FF2804D103201F4981F8770101261D4887
:1035400090F87801FF2804D128201A4981F87801E1
:1035500001261848D0F87901401C03D11549C1F85B
:1035600079010126134890F87D01FF2804D100203D
:10357000104981F87D0101260EB1FFF7A5FEBDE8D7
:10358000F08110B5014600230C4600BF002203E085
:10359000A05C0344501C02B2B2F5BF7FF8D3D1F84F
:1035A0007E01984201D0002010BD0120FCE7000000
:1035B00000F8010858040020322E3932350000008E
:1035C000424753325F47543130313000696E746581
:1035D000726E6574000000003231312E32312E32AD
:1035E00030342E31390000003231312E32312E325A
:1035F00030342E32330000003131382E36392E3639
:10360000302E31373400000047543130323500005D
:103610003039313338313237373700006F05002009
:1036200030393738373739323232000000218B4A8F
:103630001160002017E0002200EB80038749091D7C
:1036400019444A7000EB80038449091DCA5400EBF9
:10365000800319448A7000EB80038049091D1944D6
:10366000CA70411CC8B20428E5DB7D49096821F411
:1036700070417B4A11601146096841F400411160B4
:1036800077490C31096841F00801754A0C32116024
:103690007349096821F47021714A11601146096863
:1036A00041F4002111606E490C31096841F01001AC
:1036B0006B4A0C321160704710B5024667490968C1
:1036C000491C664B196000BF65490831096811F053
:1036D000080F06D019468979491CCBB25F498B7116
:1036E00005E05E49C979491CCBB25C49CB715C49A4
:1036F0000831096811F0100F06D05849C97A491CE1
:10370000CBB25649CB7205E05449097B491CCBB278
:1037100052490B7352490831096811F0200F06D045
:103720004E49097C491CCBB24C490B7405E04B490E
:10373000497C491CCBB249494B7449490831096855
:1037400011F0200F06D04549497D491CCBB24349B1
:103750004B7505E04149897D491CCBB23F498B75CA
:103760004049896811F0010F06D03C49897E491C07
:10377000CBB23A498B7605E03849C97E491CCBB2B9
:103780003649CB7600205AE000EB80033349091D0F
:103790001944897801290ED100EB80032F49091DB6
:1037A0001944C97839B9012300EB80042B49091D5C
:1037B00021444B7015E000EB80032849091D194492
:1037C000897871B900EB80032449091D1944C9782F
:1037D000012906D1002300EB80042049091D214462
:1037E0004B70002300EB80041C49091D21448B70A1
:1037F00000EB80041949091D2144CB7000EB8003C4
:103800001649091D19444B7800EB80041349091D22
:10381000095D8B4211D0012300EB80040F49091D83
:1038200021440B7100EB80030C49091D19444B78AE
:1038300000EB80040949091D0B55411CC8B205283D
:10384000A2DB10BD4FF400600549103108607047DD
:103850004FF400600249143108607047F005002001
:10386000000C01400010014010B5FD480EF081FB36
:1038700010BD0020FB49087070470120F94908700D
:10388000704710B5F8480068F7494968884215D074
:10389000F648006890B9F64890F8670028B1002013
:1038A000F34981F867000EF0C1FCF1480EF016FDF7
:1038B00020B9EF48ED490860002010BD0120FCE769
:1038C0002DE9FC5F4FF0000AEA480068401CE94916
:1038D00008600EF085FAE849684609F04BFF684633
:1038E00009F07AFE8346E448806A012803D0E24862
:1038F000806A02280DD1E048D0F89800002874D0E2
:10390000DD48D0F89C0000286FD0584609F0B9FE79
:103910006BE0D948806A032867D1D748406871288E
:1039200063DBD548406A00285FDDD3480022134698
:10393000D0E91A51284610F011F956D0CE49D1E9F4
:103940001C5100221346284610F008F94DD0CA48F1
:103950000022CA4BD0E91A51284610F0FFF808D9C6
:10396000C549D1E91A510022C54B284610F00AF981
:103970003BD8C1480022C34BD0E91C51284610F067
:10398000EDF808D9BC49D1E91C510022BE4B2846AC
:1039900010F0F8F829D8BD4991F8780110F090F8A6
:1039A0000546B5488030D0E900733A46284610F005
:1039B000D5F80ED8B6480FF04EF950B947F230514D
:1039C000B3480FF03DF9B348006840F40070B149C6
:1039D00008600120B04908704FF4C872A649AF488A
:1039E0000FF07FFA584609F04CFEA24800681E21ED
:1039F000B0FBF1F201FB120000283ED1A748806A1B
:103A000003283AD1A4480078B8B30020A24908702E
:103A1000A248D0E91A2110460EF0FEFAA04908602B
:103A20009E49D1E91C2110460EF0F6FA9D49086026
:103A30009A49D1E90E2110460EF0EEFA9A49086033
:103A400096488830D0E9002110460EF0E5FA9749F3
:103A500008604FF48C2192480EF01FFB4FF48E212A
:103A600090480EF01AFB4FF490218F480EF015FB92
:103A70004FF492218D480EF010FB8D4801688D485F
:103A800009F0B3FE7C498031D1E90021104610F0E5
:103A90008DF881468849484610F0A4F826D3764828
:103AA000806A032822DB744840686F281EDB724856
:103AB000406A01281ADB7049D1E91A5100221346E5
:103AC000284610F04BF811D06B4800221346D0E97D
:103AD0001C51284610F042F808D0674800221346CF
:103AE000D0E90E51284610F039F801D14FF0000905
:103AF0007248C0F8109001460868002110F072F872
:103B00000ED16E490869002110F06CF808D101242B
:103B100004E00020694941F82400641C042CF8D317
:103B2000012407E0654850F82410601E634A42F8FB
:103B30002010641C052CF5D36048D0F80090CA46CC
:103B40005F4950460FF0E6FD05465E48016828468D
:103B50000FF052FD5B4908605B48007800287DD07B
:103B6000002059490870534809F036FD3C49086067
:103B7000002081F866005549554800680FF094FD13
:103B800005460FF0AAFF3649A1F858004F495148A1
:103B900000680FF089FD05460FF09FFF3049A1F83E
:103BA0005A003E49D1E91A012D4A506091603B48C4
:103BB000D0E91C10D16010613848D0E90E211046C0
:103BC0000FF0F4FF264948613448D0E91A10244A1E
:103BD000116250623148D0E91C109162D0622F48C6
:103BE000D0E90E2110460FF0E1FF1D490863084699
:103BF000C0F818A00020886328498831D1E9002145
:103C000010460FF0D3FF1649C8610020486488644D
:103C1000A1F85C00A1F85E00A1F86000A1F86200C4
:103C2000A1F864002748006848632B4800680864CE
:103C30000020C8632948007881F869002848006896
:103C40000FF04BFF064981F86A000020A1F85600EA
:103C5000124890F8980081F8680043E08DE0000079
:103C60005832002018010020383300202C01002099
:103C70002406002020010020282F0020008056402C
:103C8000008056C000806640008066C05804002056
:103C9000940600208001002028010020B830002078
:103CA000DC0B0020E80B0020F40B0020000C0020AF
:103CB00004030020180300200000A040100600208C
:103CC00000006145300100203401002000007A44EA
:103CD000380100203C01002044020020280300207D
:103CE000C00300200020A1F85600FE48006810F034
:103CF000080F06D00846B0F8560040F00100A1F8C1
:103D00005600F848006810F0100F07D0F648B0F8D9
:103D1000560040F00200F449A1F85600F14800684E
:103D200010F0200F07D0F048B0F8560040F0040023
:103D3000ED49A1F85600EB48006810F0200F07D0BD
:103D4000E948B0F8560040F00800E749A1F85600ED
:103D5000E448006810F0080F0CD1E44950460FF019
:103D60004BFF07D2E048B0F8560040F01000DE49A3
:103D7000A1F85600DC480EF0F4FABDE8FC9F0120E3
:103D8000DB490870704710B502460B460020002141
:103D900003E0545C0444E0B2491C9942F9D310BDDD
:103DA0002DE9F04FD1B004468946924600208DF8A7
:103DB000380089F80000216804A809F016FDCDA19B
:103DC0000EA80FF0B2F8CD490EA80FF0AEF8002201
:103DD000CBA106A810F002FB06A90EA80FF0A5F8CB
:103DE0009DF9170000909DF916309DF91520C6A188
:103DF00006A810F0F3FA06A90EA80FF096F8BDF980
:103E00001000642190FBF1F201FB12079DF91300F1
:103E100000909DF912303A46BBA106A810F0DEFAD8
:103E200006A90EA80FF081F86768A1680022134662
:103E300038460FF093FE0BD06768A3683A46B6A1E8
:103E400006A810F0CBFA06A90EA80FF06EF803E052
:103E5000B3A10EA80FF069F8E768216900221346A4
:103E600038460FF07BFE0BD0E76823693A46AAA1DB
:103E700006A810F0B3FA06A90EA80FF056F803E052
:103E8000A7A10EA80FF051F8A5A10EA80FF04DF8AC
:103E9000A4A10EA80FF049F8A2A10EA80FF045F8B2
:103EA000A0A10EA80FF041F894F8560010F0100FE2
:103EB00004D09DA10EA80FF038F803E099A10EA838
:103EC0000FF033F894F8560010F0200F04D096A1AC
:103ED0000EA80FF02AF803E092A10EA80FF025F823
:103EE00094F8560010F0400F04D08FA10EA80FF0E8
:103EF0001CF803E08BA10EA80FF017F894F85600F9
:103F000010F0800F04D088A10EA80FF00EF803E087
:103F100084A10EA80FF009F8B4F858000FF0CBFDFB
:103F200082490860084600680FF004FE05460E4608
:103F3000284631460FF0E5FD4F904F980FF0C0FD39
:103F40002A463346CDE900010FF0C8FC074600229F
:103F5000774B0FF0C6FCCDE902010FF0D2FD4E9079
:103F600074A106A84E9B4F9A10F038FA06A90EA825
:103F70000EF0DBFFE06B0FF0DDFD05460E46284638
:103F800031460FF0BEFD4F904F980FF099FD2A4635
:103F90003346CDE900010FF0A1FC0022644BCDE9CE
:103FA00002010FF09EFC07460FF0ABFD4E9061A1A1
:103FB00006A84E9B4F9A10F011FA06A90EA80EF013
:103FC000B4FF226C5EA106A810F008FA06A90EA89C
:103FD0000EF0ABFF52A10EA80EF0A7FF51A10EA844
:103FE0000EF0A3FFB4F8560010F4007F04D04EA1E9
:103FF0000EA80EF09AFF03E04AA10EA80EF095FF5E
:10400000B4F8560010F4807F04D047A10EA80EF03B
:104010008CFF03E043A10EA80EF087FF94F8560032
:1040200010F0080F04D03FA10EA80EF07EFF03E0B1
:104030003DA10EA80EF079FF94F8560010F0040F81
:1040400004D039A10EA80EF070FF03E035A10EA830
:104050000EF06BFF94F8560010F0020F04D031A15F
:104060000EA80EF062FF03E02FA10EA80EF05DFF78
:1040700094F8560010F0010F04D02AA10EA80EF0FB
:1040800054FF03E028A10EA80EF04FFFA0690FF027
:1040900051FD05460E46284631460FF032FD4F9041
:1040A0004F980FF00DFD07462A4633460FF016FCD9
:1040B0000022244BCDE900010FF013FCCDE90201F1
:1040C0000FF01FFD4E9020A106A84E9B4F9A10F0B6
:1040D00085F906A90EA80EF028FFE0690FF02AFD69
:1040E000054635E0080C01405832002000007041C0
:1040F000340100202C41422C000000007C040020F0
:104100002C253033640000002C25303264253032F9
:1041100064253032640000002C252E30366C660099
:104120002C30000030000000310000001C01002095
:10413000000059402C25642E253032640000000018
:104140002C256400000024402C25642E25640000EA
:104150000E46284631460FF0D4FC4F904F980FF092
:10416000AFFC07462A4633460FF0B8FB0022B34B9C
:10417000CDE900010FF0B5FBCDE902010FF0C1FC64
:104180004E90AFF23C0106A84E9B4F9A10F026F9D4
:1041900006A90EA80EF0C9FEA06B0FF0CBFC0546D9
:1041A0000E46284631460FF0ACFC4F904F980FF06A
:1041B00087FC07462A4633460FF090FB00229F4BB0
:1041C000CDE900010FF08DFBCDE902010FF099FC64
:1041D0004E90AFF28C0106A84E9B4F9A10F0FEF85D
:1041E00006A90EA80EF0A1FE606B0FF076FC074644
:1041F0003A46AFF2B40106A810F0F0F806A90EA8EE
:104200000EF093FEAFF2E8010EA80EF08EFE94F8C9
:104210006820AFF2D40106A810F0E0F806A90EA8B5
:104220000EF083FE86A10EA80EF07FFE85A10EA8DB
:104230000EF07BFE82A10EA80EF077FE82A10EA8E2
:104240000EF073FE276A616A0022134638460FF0AB
:1042500085FC0CD0276A636A3A46AFF2441106A87F
:1042600010F0BCF806A90EA80EF05FFE04E0AFF255
:1042700050110EA80EF059FEA76AE16A00221346FB
:1042800038460FF06BFC0CD0A76AE36A3A46AFF2EF
:10429000781106A810F0A2F806A90EA80EF045FEA7
:1042A00004E0AFF284110EA80EF03FFE94F86A20ED
:1042B000AFF2741106A810F091F806A90EA80EF03E
:1042C00034FE94F8560010F0200F05D0206B0FF04C
:1042D00031FC05460E4604E060690FF02BFC0546F4
:1042E0000E46284631460FF00CFC4F904F980FF0C9
:1042F000E7FB2A463346CDE900010FF0EFFA074607
:104300000022534B0FF0EDFACDE902010FF0F9FB5B
:104310004E90AFF2E01106A84E9B4F9A10F05EF857
:1043200006A90EA80EF001FE94F86920AFF2F01174
:1043300006A810F053F806A90EA80EF0F6FDB4F882
:1043400058000FF0B8FB434903900FF0E3F98346A0
:104350000FF0F0FB07463A460B463FA106A810F0C7
:104360003DF806A90EA80EF0E0FDA06C4FF46161C7
:10437000B0FBF1F201FB12003C21B0FBF1F7A06CA5
:104380004FF46161B0FBF1F83B46424634A106A808
:1043900010F024F806A90EA80EF0C7FD606C4FF4CB
:1043A0006161B0FBF1F201FB12003C21B0FBF1F7BF
:1043B000606C4FF46161B0FBF1F83B4642462BA1C3
:1043C00006A810F00BF806A90EA80EF0AEFD2AA163
:1043D00048460EF0AAFD0EA80EF0D1FD07463A465B
:1043E000AFF2A42106A80FF0F9FF06A948460EF087
:1043F0009CFD0EA948460EF098FD48460EF0BFFD04
:10440000804641464846FFF7BEFC07463A46AFF2B3
:10441000C42106A80FF0E2FF06A948460EF085FD6C
:1044200017A148460EF081FD48460EF0A8FDAAF8F7
:104430000000002051B0BDE8F08F7047000024401C
:104440002C000000312E3000322E393235000000B1
:104450000000594000007A442C25322E33660000BB
:104460002C25303264253032640000002C25303297
:1044700064253032642C00002441545A00000000AE
:104480000D0A00002DE9F04F87B0CF48B0F84E007C
:1044900000287DD00020CD49086048608860CC4964
:1044A00008603DE0C849CA48006831F91010C64AA2
:1044B000C7480068C01C32F91000A0F2D150081A99
:1044C000C24909680844C14908601146C0480068EB
:1044D000401C31F91010BE480068C01C32F91000B1
:1044E000A0F2D150081AB94949680844B749486050
:1044F0001146B7480068801C31F91010B4480068B4
:10450000C01C32F91000A0F2D150081AAF498968D6
:104510000844AE498860AE480068001DAC49086098
:10452000AB4800682828BDD30020A749A1F84E0059
:10453000A64800680A2190FBF1F0A44908600846EB
:1045400040680A2190FBF1F0A04948600846806865
:104550000A2190FBF1F09D49886008680FF0A2FAEB
:1045600001900FF0E7FA9B4A9B4BCDE902010FF057
:10457000B8F980468946994800680FF0DBFA824610
:1045800042464B460FF006F906464FF0663200E011
:1045900076E0934B0FF0FEF800224FF08043CDE918
:1045A00004010FF010FA04460FF000FB8B4908607D
:1045B000864948680FF076FA03900FF0BBFA854AF7
:1045C000854BCDE904010FF08CF982468B46854876
:1045D00000680FF0AFFA064652465B460FF0DAF875
:1045E000804600224FF080430FF0EDF904460FF0B3
:1045F000DDFA7C490860754988680FF053FA01902C
:104600000FF098FA80464FF06632774B0FF069F959
:104610000022764BCDE902010FF0D5F906460F4690
:10462000734800680FF086FA32463B46CDE9040134
:104630000FF0B0F8044600224FF080430FF0C3F9AA
:1046400082460FF0B3FA6A490860084600680FF026
:1046500071FA0646674A684B0FF040F98246674A8E
:10466000674B0FF0B0F904460022664B0FF092F84A
:1046700080460FF09BFA6449086001206349087086
:1046800007B0BDE8F08F10B50021012005F0CDFB8B
:104690005F4805F045F800204B49A1F84E0010BDD9
:1046A00000B591B00320ADF8000000208DF80300A4
:1046B0006946584804F0C0FDFFF7E5FF01210846B0
:1046C00005F0B3FB01214FF4027005F0BBFB52482B
:1046D00004F0FEFE4E484C3001903B480290002012
:1046E0000390282004900020059080200690400030
:1046F0000790800008902020099000020A90002076
:104700000B9001A9444804F085FF00200C90012083
:104710008DF834008DF835004FF460200E900020A5
:104720000F9004208DF840000CA9394805F01FF8BF
:10473000022301220921364805F0B1F802231A4666
:104740000821334805F0ABF802230322102130483A
:1047500005F0A5F80223042211212D4805F09FF849
:1047600001212D4804F081FF0121294805F036F888
:104770000121274805F027F8012005F0B5F9244864
:1047800005F043F800BF224805F044F80028FAD1AC
:104790001F4805F049F800BF1D4805F04AF80028F9
:1047A000FAD101211A4805F04EF800BF022004F0AA
:1047B00077FF0028FAD0022004F085FF002013497B
:1047C000087011B000BD0000A0060020F006002017
:1047D00050010020EB51B81E852B703F380100209E
:1047E0006666E63F3C01002066660A400000B04075
:1047F00040010020E17A14AE47E1F63F22FDF67554
:10480000E09C713F00003940440100204901002034
:1048100000240140000C01400800024010B5FA4994
:10482000FA480EF00DFA4FF47A71F9480EF008FAD2
:104830004FF47A71F7480EF003FA1421F6480EF09F
:1048400069FB10BDFEB507460024F4480068F44932
:104850000968884226D0F2480068F0490860EE48AE
:10486000407C02281ED0EFA1F0480EF08FFBC8B1AB
:10487000ECA1EE480EF0AFFBFEF726FDE9A3EC4AF3
:10488000ECA110460FF0AAFDC4B2032047F230514C
:1048900002222346CDE900210290E54AE849DE489C
:1048A0000AF042FEE7480078F8B1DB48407C022875
:1048B0001BD00020E3490870DC4A1032E2A1DC483A
:1048C0000FF08CFDDA480EF05AFBC4B2032047F219
:1048D000305102222346CDE900210290D44AD84922
:1048E000CD480AF021FEFEF7EFFCCB48407C0228C1
:1048F00033D0DB48006880B3D94800684FF4616169
:10490000B0FBF1F0C949891E91F97611884224D093
:10491000D34800684FF46161B0FBF1F040B2C34985
:10492000891E81F87601084690F97621CDA1C0480C
:104930000FF054FDBE480EF022FBC4B2032047F234
:10494000305102222346CDE900210290B84ABC49E9
:10495000B1480AF0E9FDFEF7B7FCC948007848B94C
:10496000A949AA480EF06CF94FF47A71A9480EF0E3
:1049700067F91AE0A5480EF06EF988B1C148002227
:104980001346D0E91A5128460FF0E8F80DD1BD487A
:1049900000221346D0E91C5128460FF0DFF804D15D
:1049A0000020B9490870B6490870B848007820B9A5
:1049B000954997480EF044F918E095480EF04BF9E8
:1049C00088B1B049D1E91A510022134628460FF0A8
:1049D000C5F80BD1AB4800221346D0E91C5128463C
:1049E0000FF0BCF802D10020A8490870A748007851
:1049F000F8B18948407C02281BD00020A3490870E8
:104A0000A3480078A8B10020A1490870A1480EF081
:104A100063F9C4B26006040E032047F2305101224C
:104A20002346CDE9002102909A4A85497A480AF046
:104A30007BFDFEBD2DE9F04389B00646894600277F
:104A4000954901A80EF0A9F901A930460EF01BFA0C
:104A500005461DB300208C49087089490870012063
:104A60008A49087005F10C000EF036F9C4B26006F0
:104A7000040E9CB1A02C11D2A02186480EF04AFA57
:104A8000224605F10C0183480EF02BFA81480EF006
:104A900023F9804641467F480EF02EF9384609B08A
:104AA000BDE8F0832DE9F04F8DB0804689461E4663
:104AB0004FF0000A00200C9083464746774978481B
:104AC0000EF06BF900F0FF0A75480EF005F901468B
:104AD000029073480EF010F94FEA4A604FEA106AEC
:104AE00000250CE00EF0EAF90068795D405C10F0FA
:104AF000080F03D0785D0EF0EEF978556D1C38463E
:104B00000EF03DFAA842EDD866A138460EF019FA2B
:104B10000446002C36D04A49654809F035FE68B194
:104B2000032047F2305101225346CDE90021029083
:104B30005B4A434938480AF0F7FC16E05DA15C483F
:104B400009F022FE68B1032047F23051012253469A
:104B5000CDE900210290524A5AA12F480AF0E4FC04
:104B600003E0FF200DB0BDE8F08F03AA58A1204656
:104B70000EF03AFA122203A92C4822300EF0B1F9B5
:104B80004FF0010B55A138460EF0DBF90446002C1E
:104B900038D02B49464809F0F7FD68B1032047F2A9
:104BA000305101225346CDE9002102903C4A24496C
:104BB00019480AF0B9FC14E03EA13D4809F0E4FDB3
:104BC00068B1032047F2305101225346CDE900215C
:104BD0000290334A3BA110480AF0A6FC01E0FF20F6
:104BE000C0E741A1164810300EF0F5F9FEF76CFB56
:104BF0002A4948460EF0EFF948460EF0C0F93060F9
:104C00000020AFE77AE00000E09304008008002075
:104C10008C080020980800202C0700205C01002050
:104C200004030020322E3932350000005A040020DF
:104C30004007002025733A56657225730A0000006C
:104C40008E0500202C0300204E657720494D4549F4
:104C500020697320557064617465643A257300009F
:104C60000C0300204E65772074696D657A6F6E6560
:104C700020697320557064617465643A256400008E
:104C800055010020B83000205401002056010020BA
:104C900057010020E0070020124E0108044E0108D1
:104CA0000C07002041424346472C31342C000000C1
:104CB000EC2900202B383439373837373932323243
:104CC0000000000038343937383737393232320093
:104CD00041424346472C31342C2573005246494407
:104CE0002052455345540000393939393939393959
:104CF000393939393939393900000000C2A138460B
:104D00000EF01FF90446002C43D0C249C24809F0F6
:104D10003BFD68B1032047F2305101225346CDE9F3
:104D200000210290BD4ABB49BD480AF0FDFB16E0D8
:104D3000AFF28001B84809F027FD70B1032047F2B7
:104D4000305101225346CDE900210290B34AAFF21F
:104D50008C01B3480AF0E8FB01E0FF2002E70DF008
:104D600052FAB04903A80EF036F9FF224FF4C17190
:104D7000AC4824380EF0C7F8FEF7A6FAFEF702FB9F
:104D800003A9A8480EF027F9FEF79EFA0120A649CC
:104D90000870A6A138460EF0D4F80446002C3AD08C
:104DA000AFF280139F4AA4A1A7480FF017FB00F0B1
:104DB000FF0A9849984809F0E7FC68B1032047F2D8
:104DC000305102225346CDE9002102909E4A91497A
:104DD00093480AF0A9FB16E0AFF228118E4809F0BB
:104DE000D3FC70B1032047F2305102225346CDE983
:104DF00000210290944AAFF2341189480AF094FBE2
:104E000001E0FF20AEE6914948460EF0E4F848463E
:104E10000EF0B5F830608EA138460EF092F80446D8
:104E2000002C45D07B497C4809F0AEFC68B10320DA
:104E300047F2305101225346CDE900210290774AD2
:104E4000744977480AF070FB16E0AFF29811724887
:104E500009F09AFC70B1032047F230510122534609
:104E6000CDE9002102906D4AAFF2A8116C480AF01A
:104E70005BFB01E0FF2075E6674800782B2805D131
:104E80006549491C75480EF0A6F803E0624973486D
:104E90000EF0A1F8724973480DF0D2FE6B494846F6
:104EA0000EF099F848460EF06AF83060002059E696
:104EB000BBF1000F01D0FEF707FAFF2052E62DE903
:104EC000F04192B006460F464FF4FA700DF0ACFE7A
:104ED00065A003234FF47A72009066480168664823
:104EE00000680BF047FC10B112B0BDE8F0814FF440
:104EF000FA700DF099FE61A0002340F6B8320090E0
:104F00005C4801685C4800680BF034FC42F21071A8
:104F10000CA80DF095FE4FF47A700DF085FE6AE056
:104F20000CA80DF098FE00B9DEE703A957480DF074
:104F300089FD10B99DF80C4000E061E003A95348D9
:104F40000DF080FD38B99DF80C004FF47F4101EA67
:104F50000020044300E053E000204D490870224641
:104F60004CA104A80FF03AFA04A80BF0F3FF40F6A6
:104F7000B8310FA80DF064FE04E00FA80DF06BFE31
:104F800000B903E0424800780028F6D000BF0020B6
:104F9000434981F8FF004FF47A700DF045FE41A0BF
:104FA00003234FF47A72CDE9000432480168324895
:104FB00000680BF0DFFB3648007800B91BE038488A
:104FC0000DF0DDFF85B2FF2D00D9FE25002034490C
:104FD00048550021324A681C11540020012102ABBF
:104FE0003A46CDE9001031462D48FFF75BFD80467B
:104FF000FEF76AF900BF25480DF03BFD02288FDA65
:1050000000BF00BF70E700002A4338383A38382321
:10501000000000008E050020EC2900200C07002075
:105020002C0700207C040020150100202A43333087
:105030003A3330230000000049443A25732C56656A
:10504000723A25730000000040070020044E01085A
:10505000475431303235465755440000FC06002095
:10506000C02709003404002041542B434D47463DDE
:10507000310D0000B8030020B403002041542B433D
:105080004D474C3D22414C4C220D0000DC290020B4
:105090005703002041542B434D47523D25640D00DA
:1050A000FC29002041542B434D47443D25640D000D
:1050B00070B5C4B00646002408F0C0FC012849D1F0
:1050C0002648C079002845D02548407C022841D098
:1050D000012024490870214981F8230022490870E1
:1050E0000020224908702248416F006FCDE902017B
:1050F0001F48C16E806E1F4ACDE900011EA104A8A1
:105100000FF06CF984B204A926480DF046FE84B273
:1051100024480DF0E1FD0546294622480DF0ECFD3E
:105120004FF6FF7000EA44041F490C480D3009F0A7
:105130002BFB68B1032047F230510122E3B2CDE9E5
:1051400000210290174A184905480AF0EDF901E0DC
:1051500044B070BD00BFFBE770470000DC280020B2
:10516000A408002057010020550100205401002010
:10517000B8300020194E01082573210A6874747034
:105180003A2F2F6D6170732E676F6F676C652E639A
:105190006F6D2F6D6170733F713D252E36662C2526
:1051A0002E366600B80800208E0500201CB56C461F
:1051B00004226946F7480DF08AFAF749206808602A
:1051C00008460068B0F1A53F33D104226946F14892
:1051D000001D0DF07CFAF14920680860084600685F
:1051E000B0F1006F07D30020ED490860EB4908607B
:1051F000EC49086026E004226946E64808300DF0D4
:1052000066FAE9492068086008460068401C0AD12F
:10521000E1490860E2490860E4490860DF49086044
:10522000E04908601CBD0020E0490860DC490860D6
:1052300008E00020DA490860DC490860D7490860C6
:10524000D849086000BFEDE710B54FF48072D84927
:10525000D8480DF0D3FB4FF47A71D7480DF0F0FC2D
:1052600010BD0FB438B505A80090D448009A049931
:105270000FF0C8F8054600200090FF2D00D3FF2551
:10528000002400E0641CAC42FCD3002038BC5DF874
:1052900014FB10B502460B460020002103E0545CCD
:1052A0000444E0B2491C9942F9D310BD2DE9F04FF6
:1052B00089B007460C4615469846DDF848B0C04808
:1052C000007820B10020387109B0BDE8F08F0120CE
:1052D000BB49087038790C2850D007DC07287DD2EC
:1052E000DFE800F011383C7C40444800122876D0BA
:1052F00004DC0D2874D0112870D1E4E1FD2870D0B1
:10530000FE28F9D1FAE3AF48007810B3BBF1000FE3
:105310001FD00020039006E00398401C03900398E0
:10532000404500D306E003982918A2480DF08AFBF7
:105330000028F1D000BF039858B103202071CA2083
:10534000207003986080A5606188A068FFF7A1FFC6
:105350002073F3E300209B490870EFE30120994993
:105360000870EBE3022097490870E7E303209549B2
:105370000870E3E3042093490870DFE3B86800781D
:1053800000900098B968497840EA012000900098A0
:10539000B968897840EA014000900098B968C978F6
:1053A00040EA01600090B8680079ADF80400BDF8EB
:1053B0000400B968497940EA0120ADF80400B868F2
:1053C000001D02900098B0F1A53F33D14FF4C17099
:1053D0000390CA2020700C20207103E0ADE380E12F
:1053E0008FE05AE360806E4630782870707868707D
:1053F000B078A870F078E8704FF4C170039003AEF5
:105400003078287170786871B078A871F078E87198
:10541000CDF80C8000BF3078287270786872B07850
:10542000A872F078E872A5606188A068FFF731FF84
:10543000207365E00098B0F15A3F15D1CA20207062
:105440000C202071042060806E46307828707078BF
:105450006870B078A870F078E870A5606188A0687E
:10546000FFF717FF20734BE0BDF8041000980844C5
:10547000B0F5C17F2CD8BDF80400404528D852496A
:10548000009846180020039006E00398315C001D48
:1054900029540398401C0390BDF8040003998842E6
:1054A000F3D80398001D6080CA2020700C20207162
:1054B0006E463078287070786870B078A870F07890
:1054C000E870A5606188A068FFF7E3FE207317E02D
:1054D0004FF0FF300090CA2020700C202071042073
:1054E00060806E463078287070786870B078A870E8
:1054F000F078E870A5606188A068FFF7CAFE2073A5
:105500001CE3B868007800900098B968497840EAD0
:10551000012000900098B968897840EA0140009025
:105520000098B968C97840EA01600090B868001D29
:1055300002900098B0F1A53F48D1CA2020700D20FC
:1055400020710C2060806E4630782870707868700A
:10555000B078A870F078E8704FF4C170039003AE93
:105560003078287170786871B078A871F078E87137
:10557000CDF80C8000BF3078287270786872B078EF
:10558000A872F078E872A5606188A068FFF781FED4
:10559000207397E0041002006801002074010020CD
:1055A0007801002064010020700100207C010020AF
:1055B000640A0020640B0020580A002058090020CB
:1055C0006D0100206C0100205804002079880098AB
:1055D0000844001FB0F5C17F5CD8FD49009846180B
:1055E0000020039006E0DDE90201405C705403985E
:1055F000401C03907888001F03998842F3D80399D0
:105600000098084400900098B0F5C17F17D3FDF7CB
:105610005BFECA2020700D202071042060806E4641
:105620003078287070786870B078A870F078E8707A
:10563000A5606188A068FFF72CFE20737EE2C8F5A4
:10564000C1710098884204D90098C0F5C1700390D8
:1056500001E0CDF80C8008206080CA2020700D2069
:1056600020716E463078287070786870B078A870B5
:10567000F078E87003AE3078287170786871B0788F
:10568000A871F078E871A5606188A068FFF701FE55
:10569000207317E04FF0FF300090CA2020700D20DB
:1056A0002071042060806E463078287070786870B1
:1056B000B078A870F078E870A5606188A068FFF7FE
:1056C000E8FD20733AE2CA202070112020710520E5
:1056D0006080C0A0A0606188A068FFF7DAFD207339
:1056E0002CE2B868007800900098B968497840EAE0
:1056F000012000900098B968897840EA0140009044
:105700000098B968C97840EA01600090B868001D47
:1057100002900098B0F1A53F7ED1B049B0480DF09D
:105720008FFA4FF0A530AF4908600020AE490860FD
:1057300002980078AD49086002984078096841EA0B
:105740000020AA49086002988078096841EA004070
:10575000A64908600298C078096841EA0060A34938
:10576000086002980079A2490860029840790968A7
:1057700041EA00209E49086002988079096841EA60
:1057800000409B4908600298C079096841EA0060BE
:105790009749086001214FF404300CF0D4FE934E79
:1057A0000422314693480CF069FF4FF0A530039076
:1057B00003AE042231468F48001F0CF05FFF8C4E71
:1057C000042231468B48001D0CF058FFCA2020707F
:1057D000122020710C2060806E463078287070781E
:1057E0006870B078A870F078E8708048006803901E
:1057F00003AE3078287170786871B078A871F0784D
:10580000E871CDF80C8000BF30782872707868722B
:10581000B078A872F07800E007E0E872A5606188CF
:10582000A068FFF736FD207336E16F4900980968DC
:10583000884251D1798800980844001F03906A4932
:10584000039808607888A0F1040AB8F1200F35D3D6
:10585000BAF1200F32D3002003902CE0DDE90223BF
:10586000D118009A02F50832D01820220CF006FF59
:10587000009901F50831039A8818202204A90CF038
:1058800026FF4FF0000910E0DDE902014944405CC9
:1058900004A911F80910884205D0574800685249F8
:1058A0000860CDF80CA009F10109B9F1200FEBD384
:1058B00003982030039003985045CFD34A4800689E
:1058C0004D490968401AB0F5805F05D34648006825
:1058D000000B0003484908604348006800904248B4
:1058E000006842490968884271D34FF0000A0020DD
:1058F000039005E0FF20039968540398401C03902F
:1059000003982028F6D3002003900CE0374909685B
:1059100001F50831039A8818202229460CF0AEFEC2
:105920000398203003900398B0F5806FEED30020E9
:10593000039024E020222946039800F508300CF05B
:10594000C6FE4FF000090CE0039848442749096857
:10595000884203D215F80900824400E004E009F10E
:105960000109B9F1200FEFD300BF039848441F4944
:105970000968884200D307E00398203003901B4950
:10598000039809688842D5D300BF1948006882454A
:105990004FD10220194908704FF05A301149086060
:1059A000009000201049086001214FF404300CF0F1
:1059B000CAFD0E4E042231460E480CF05FFE0C4E1E
:1059C000042231460B48001D0CF058FE18E04EE052
:1059D00058040020322E393235000000C02709005B
:1059E000580A00206801002078010020740100207E
:1059F00070010020081002007C0100201501002029
:105A00004FF40830039003AE0422314680480CF076
:105A100035FE4FF05A30039000BF042231467C48D7
:105A20000C380CF02BFE01214FF486200CF08BFD7E
:105A30001DE04FF0A53077490860002000907649BE
:105A4000086001214FF404300CF07DFD734E0422F8
:105A500031466F4808380CF011FE4FF0A530039026
:105A600003AE042231466A480C380CF007FECA2007
:105A7000207012202071042060806E4630782870DB
:105A800070786870B078A870F078E870A560618868
:105A9000A068FFF7FEFB207350E0B8680078009024
:105AA0000098B968497840EA012000900098B968E8
:105AB000897840EA014000900098B968C97840EAC6
:105AC00001600090B868001D02900098B0F1A53FF9
:105AD00012D1534904A80DF07EFAFF224FF4C17190
:105AE0004F4824380DF00FFA04A94D480DF073FA11
:105AF000FDF7EAFB00F07FF820E0FFE7B8680078E8
:105B000000900098B968497840EA01200090009818
:105B1000B968897840EA014000900098B968C9786E
:105B200040EA01600090B868001D02900098B0F152
:105B3000A53F01D100F05FF800E000BF00BF0020EA
:105B400038713849087000BFFFF7BEBB10B5044676
:105B50002078062849D2DFE800F0480C1D213C03DC
:105B6000CA2A05D101202070002060806072E08088
:105B70003EE06088A37902FA03F318436080E0886E
:105B80000830E080E088102803DB0220207000202D
:105B9000E0802DE022720320207029E0E0886388F5
:105BA000984203DA6088A388984202DD05202070BD
:105BB0000EE0607A10446072E3888868C254E0881E
:105BC000401CE080E0886388984201D10420207066
:105BD0000EE005202070607A904205D160884880F0
:105BE000207A0871002010BD02E00520207000BF5F
:105BF00000BFFF20F7E70C48006800F4E0600B49A5
:105C00000843001D08490860BFF3408F00BFFEE74E
:105C100010100200680100207801002074010020AB
:105C20007C0400206D0100200CED00E00000FA056E
:105C300010B5FFF709FB0A2116480DF001F81648C8
:105C4000164988600520164908702420888010BDF8
:105C5000704770B504466088D8B1207802F0EBF93F
:105C6000A07802F0E8F9E07802F0E5F9207902F096
:105C7000E2F9002505E0A168485D02F0DCF9681C46
:105C800085B26088A842F6DC207B02F0D4F90020BF
:105C9000608070BDC40B0020940B0020740B0020AA
:105CA000B80B00202DE9F04153480CF062F94FF495
:105CB0008A2152480CF0C0F94FF48C2150480CF066
:105CC000BBF94FF48E214F480CF0B6F94FF49021F8
:105CD0004D480CF0B1F94FF492214C480CF0ACF95E
:105CE0004FF494214A480CF0A7F94FF49621494803
:105CF0000CF0A2F94FF4982147480CF09DF94FF4AD
:105D00009A2146480CF098F93D4804683D480568DA
:105D1000002120460DF066FF04D25320404981F84F
:105D2000500003E04E203E4981F8500000212846F3
:105D30000DF058FF04D25720394981F8600003E084
:105D40004520374981F860002F4908680DF0F2FEC0
:105D5000334AC2E90E012D4908680DF0EBFE304AC6
:105D6000883203C228460DF0E5FE2D4AC2E91C0127
:105D700020460DF0DFFE2A4AC2E91A011046002231
:105D8000284BD0E91A6130460DF0E8FE08D92448C6
:105D90000022254BD0E91A6130460DF0F3FE17D8EA
:105DA0001F480022214BD0E91C6130460DF0D6FE81
:105DB00008D91B4800221E4BD0E91C6130460DF06B
:105DC000E1FE05D80320164988620120486205E0FB
:105DD0000021134A9166D166116751674FF49C21E7
:105DE00014480CF029F94FF49E2113480CF024F9C3
:105DF0000020BDE8F081000058320020D00B0020C8
:105E0000DC0B0020E80B0020F40B0020000C00202D
:105E10000C0C0020180C0020240C0020300C00205A
:105E2000B830002000805640008056C00080664098
:105E3000008066C03C0C0020480C002010B54FF4D8
:105E40007A714F480CF0FCFE14214E480DF062F8B8
:105E500010BD70B5ACB004464B480068A0421CD0E1
:105E600009F0C8FA30B14748407C022802D101202D
:105E700044494874444804604448006810F0080FDE
:105E800003D01E204249087007E04148007820B145
:105E90003F480078401E3E4908703D48007870B188
:105EA0003C48006820F400603A49086008460068F1
:105EB00020F4804008600320374908705DE03148D5
:105EC000407C022859D03348008810F4804F54D0C9
:105ED00031480078002850D029480CF0BCFE00283A
:105EE00045D101202D49087000202D49087047F246
:105EF000305123480CF0A4FE2648006820F480406E
:105F00002449086024480078401E23490870254829
:105F1000416F006FCDE902012249D1E91A01224AFD
:105F2000CDE9000121A104A80EF058FAC5B204A9D8
:105F300029480CF032FFC5B227480CF0CDFE0646CA
:105F4000314625480CF0D8FE6806050E032047F2BE
:105F5000305101222B46CDE9002102901E4A1F49F3
:105F6000084809F0E1FA01201D49087005E00948D8
:105F7000006820F48040074908602CB070BD000024
:105F8000080D0020540C002088010020080C01405E
:105F9000850100208001002084010020550100209F
:105FA00054010020B8300020304E01082573210A2A
:105FB000687474703A2F2F6D6170732E676F6F67FE
:105FC0006C652E636F6D2F6D6170733F713D252E73
:105FD00036662C252E366600680C00208E050020C3
:105FE0005701002030B5039C0160426000258560A8
:105FF0004373046130BD08B52F48406820F4700039
:106000002D4948600846406840F4801048604FF0D1
:10601000FF3001234FF4FA72114600902748FFF732
:10602000E1FF08BD427B012A1BD182688A4203D965
:106030008268521A826001E000228260826852B94E
:10604000026942B10269521E0261D0E900321A446B
:10605000826001220273D0E901329A4201D8002203
:106060000273704710B5044615480068201A154B96
:106070000CCB801843F10001124A03C21148026898
:1060800011480068111A0D48FFF7CCFF0D48D0E900
:1060900000100D4AC2E90010094804600748007B5F
:1060A000012803D140030449086103E04FF4005084
:1060B0000149486110BD000000100140140D00208E
:1060C000A0010020900100209801002010B5044696
:1060D0000020F9490860F949087042F21071F84847
:1060E0000CF0AEFD10BD0020F3490860F3490870C4
:1060F000704710B586B0F3480068401CF14908604D
:10610000EE480078062877D2DFE800F003ACC49FA1
:10611000D3ADED4805F028FB002825D1EB480068F9
:1061200050B902A803A904AB05AACDE90010E8A163
:10613000E5480CF059FF0AE002A803A904AB05AA40
:10614000CDE90010E2A1E0481F300CF04DFFE3491B
:106150000598087004984870039888700298C87071
:106160000846DF4908600EE0D848006828B9D648DC
:1061700003F01AFFDA49086005E0D3481F3003F046
:1061800013FFD7490860D648006800B992E0D448A8
:106190000068007870B9D2480068407850B9D0489B
:1061A0000068807830B9CE480068C07810B9FDF733
:1061B000E9F87FE04FF0FF3001234FF4FA72114607
:1061C0000090C848FFF70EFF0020C7490870BA4981
:1061D0000860BD487A38B0F8B800C1490968C97884
:1061E000CDE90010BE4800688378BD480068427859
:1061F000BB480068017800E05BE0BCA0FFF731F825
:10620000B1497A39B1F8B80004F033F904462146AF
:10621000B348006804F0BAF9A74908600CF0FDFC27
:10622000BE490860A448006830B9BDA0FFF719F85E
:106230000520A24908703DE00120A049087042F203
:1062400010719F480CF0FCFC34E00CF0E6FCB34904
:106250000968401A42F21071884202D3042097491B
:10626000087027E000BF0CF0D8FCAC490968401A60
:1062700042F2107188420CD3B3480078401CB249F6
:1062800008709248006880F0010090490860FFF7AC
:106290002AFF0FE08A480CF0DEFC48B90120FFF726
:1062A00015FF002085490870A8490880A849088082
:1062B00000E000BF00BF8148007806B010BD7CB58B
:1062C000A44800687C490968884200D07CBDA24887
:1062D0000068401CA049086042F2107178480CF038
:1062E000AFFC9E48007810F0400F16D04FF0FF3002
:1062F000012340F65432642100907A48FFF772FE81
:1063000097A0FEF7AEFF00209049088090490880D2
:10631000994908800220694908709048007810F077
:10632000080F4ED0FDF7ADFA00209349088093483E
:106330000068F0B17022924992480CF03FFE88B19B
:1063400070228E4801688E480CF038FE50B17022E1
:106350008B498C480CF0C5FD874A8B498948FDF76D
:106360001FFD26E0844A884984480068FDF718FD2F
:106370001FE086480078E0B185480CF06CFCC0B99D
:1063800042F2107182480CF05BFC8248416F006F52
:10639000CDE900017F48D0E91A4322467EA17A4820
:1063A0000EF01CF87449088081480078401C804930
:1063B00008707148008820B16F480188724805F064
:1063C0009CF96648007810F0020F23D079480088C5
:1063D00000B3002078490968764A12888854002161
:1063E0007548026873480088401C115400227248A6
:1063F000016870480088801C0A5463496E48006830
:10640000FEF718FB6D496E480CF01AFC6B496D489D
:106410000CF016FC5148007810F0010F40D056489F
:10642000018869A0FEF71DFF002047490870534806
:106430000068C0B16C48007868B96C48007820B931
:106440006B48006810F0080F05D1002067490870FC
:1064500001206849087001204849096881F86700EF
:1064600000204649086052480078062807DB474864
:10647000007820B100204E49087044490870FDF7AB
:1064800000FA4E494F480CF0DBFB00203A490880E7
:106490002E4908802E490880484949480CF0D0FB15
:1064A0002E48007810F0040F05D033480188364894
:1064B00005F023F9A0E0B4E0D8010020A4010020F9
:1064C000280D0020C0010020D2040020C4010020BB
:1064D00025642E25642E25642E256400D00100201D
:1064E000D4010020140D0020AE0100200D0A44410B
:1064F00054415F5356523A20537461727465642C50
:10650000205365727665722025642E25642E2564DD
:106510002E25643A25640D0A00000000DC010020ED
:106520000D0A444154415F5356523A207569705FD9
:10653000636F6E6E6563742072657475726E73201E
:106540004E554C4C0D0A0000B8010020A801002057
:10655000A6010020B8020020BC010020B4020020E7
:106560000D0A444154415F5356523A20636F6E6E98
:1065700065637465640D0A00AA0100202C010020E7
:1065800058320020C8320020340D00205501002070
:1065900098080020B83000204047455441444452F8
:1065A0002C76692C252E38662C252E38660D0A008F
:1065B00054010020B0020020A8020020C0D4010035
:1065C000841300204C0400200D0A444154415F53C1
:1065D00056523A2073656E743A2564206279746568
:1065E0002873290D0A000000340100200C0100204E
:1065F000080C01400D0100201DA0FEF732FE2248CC
:106600000088401C00B2204908800846B0F900000C
:10661000052806DB002008801C49088005201C494D
:1066200008701C48007810F0100F04D11948007849
:1066300010F0200F19D04FF0FF3001234FF4FA7201
:10664000114600901448FFF7CDFC00201349086064
:106650000CF0E3FA124908601248B0F9001012A0D9
:10666000FEF7FFFD05200A49087000BF2EE6000076
:106670000D0A444154415F5356523A207265786D79
:1066800069740D0A00000000A6010020AA01002084
:10669000A4010020B4020020140D0020D801002025
:1066A000DC010020A80100200D0A444154415F5341
:1066B00056523A2074696D65646F75747C636C6FB3
:1066C0007365647C61626F727465642025640D0A71
:1066D0000000000010B5FE480068B0F1A53F05D1EC
:1066E000FC480CF0B8FA08B1012010BD0020FCE70E
:1066F00038B5F9480088002859D0F848F84988602A
:106700004FF40170F74988800520087000240BE0E1
:10671000F548025DF249F348FFF718FA00B907E0BF
:106720000020F1490855641CEB4800888442EFD3EF
:1067300000BF03E00020EC490855641CE6480088CF
:106740008442F7D300200090E6488088031FE34A84
:10675000E649E348FEF7AAFDE448408820B3E34851
:106760000078E3490870E14880784870DF48C078D5
:106770008870DE480079C870002406E0DB48806835
:10678000015DDB4A201D1154641CD8484088A0429A
:10679000F4D8D648017BD64A201D11540020D34995
:1067A00048800120D34908700020CB49088038BDBB
:1067B00010B504460020D0490860D049087042F264
:1067C0001071CF480CF03CFA42F21071CD480CF039
:1067D00037FA10BD10B50020C7490860C7490870D6
:1067E00042F21071C6480CF02BFA42F21071C54803
:1067F0000CF026FA10BD10B586B0C0480078062807
:106800007ED2DFE800F003D1E2C0F1D2BE4804F04E
:10681000ABFF002825D1BD48006850B902A803A9E4
:1068200004AB05AACDE90010B9A1B7480CF0DCFB18
:106830000AE002A803A904AB05AACDE90010B4A19F
:10684000B1481F300CF0D0FBB4490598087004988B
:106850004870039888700298C8700846B04908606C
:106860000EE0AA48006828B9A74803F09DFBAC4990
:10687000086005E0A4481F3003F096FBA8490860B3
:10688000A748006800B9B0E0A5480068007870B972
:10689000A3480068407850B9A1480068807830B9B2
:1068A0009F480068C07810B9FCF76CFD9DE000209F
:1068B0009C490870904908604CF250319848006833
:1068C000C078CDE900019648006883789448006854
:1068D000427893480068017893A0FEF7C2FC4CF21E
:1068E000503003F0C6FD044621468D48006803F091
:1068F0004DFE814908600CF090F99649086000E06F
:1069000072E07D48006830B993A0FEF7AAFC05202C
:106910007A49087069E012227B49A83998480CF03E
:10692000E0FA122278499639954812300CF0D9FADB
:10693000934894A10A68426289880185342093496A
:106940004870CA200870002088707720C8703422F0
:106950008B498E48001D0CF0C4FA34218848FEF79C
:1069600098FC8A494978091D884A505442F21071AE
:1069700087480CF065F93C2186480CF061F901204C
:106980005E49087031E00CF048F972490968401A14
:1069900042F21071884206D30CF03FF96D4908604D
:1069A00004205649087020E000BF0CF036F9694910
:1069B0000968401A47F23051884205D30CF02DF98E
:1069C00064490860FFF706FF0FE04D480CF043F9FB
:1069D00048B90120FFF7ECFE0020484908706E49D5
:1069E00008806E49088000E000BF00BF434800787F
:1069F00006B010BD10B56A4800683F490968884272
:106A000000D010BD67480068401C6649086042F22B
:106A100010713B480CF014F96348007810F0400FF7
:106A20000CD062A0FEF71DFC00205B4908805B498A
:106A30000880644908800220304908705A4800786C
:106A400010F0080F41D02F480CF005F910B90020C4
:106A50005C4908805B480088002836D142F21071FA
:106A600028480CF0EDF82F48007800282ED0204858
:106A70000078CA282BD11F48007828B14EF6602133
:106A800044480CF0DDF81AE042480CF0E4F8B0B9E4
:106A900072B64FF0A5300E49086000204A490860E0
:106AA0004EF660213B480CF0CBF8002010490870EE
:106AB000464937480CF0C4F8FFF78CFE62B63448FC
:106AC0000CF0C9F800B183E086E0FCE0AFE098E0AC
:106AD00068010020580A0020F20100205411002013
:106AE0005813002078130020340E00206813002073
:106AF00014110020F001002000020020E00100201D
:106B0000FC1000200811002012050020F4010020D4
:106B100025642E25642E25642E256400F8010020AE
:106B2000FC010020E80100200D0A46575F53565231
:106B30003A20537461727465642C205365727665D3
:106B4000722025642E25642E25642E25643A256442
:106B50000D0A0000040200200D0A46575F535652EA
:106B60003A207569705F636F6E6E6563742072653D
:106B70007475726E73204E554C4C0D0A0000000067
:106B800074100020322E393235000000A810002089
:106B9000E4100020F0100020E4010020E2010020B9
:106BA000B8020020EC010020B40200200D0A465774
:106BB0005F5356523A20636F6E6E65637465640D61
:106BC0000A000000E601002078010020E0930400A4
:106BD0007D480078002867D000207B4908707B48FA
:106BE0004078401D7A4908800846B0F9002077496E
:106BF00078480CF076F94EF6602177480CF020F8D2
:106C000052E075480CF027F800284DD173497248BE
:106C10000CF016F872484078401D6D49088008460F
:106C2000B0F900206E496B480CF05BF93CE06D4810
:106C30000068B0F1A53F23D16B4800686B49096833
:106C400088421DD269480068B0F5003F18D8CA20B4
:106C50005E49087004204870002088701220C870B7
:106C6000614C2078087160784871A0788871E0786C
:106C7000C87104215548001DFEF70BFB53490872EB
:106C800057484078401D524908800846B0F9002016
:106C9000534950480CF025F94EF6602154480BF04A
:106CA000CFFF0120534908704948008858B148482F
:106CB000B0F90010474804F020FD4548B0F9001035
:106CC0004DA0FEF7CEFA5348007810F0020F24D002
:106CD0005148018851A0FEF7C4FA4F480088E0B13E
:106CE0004D480088B0F5107F17D254480088A0B9ED
:106CF00047F2305152480BF0A3FF474802885148F1
:106D0000016834480CF0EDF8434800884B4908808E
:106D100042F2107130480BF093FF3E48007810F0BB
:106D2000010F12D02A48B0F9001047A0FEF799FAD7
:106D30000020274908804B4908804B4908804B496F
:106D400008704B494B480BF07BFF3248007810F03D
:106D5000040F1DD01E48B0F900101E4804F0CDFCF1
:106D60001B48B0F9001044A0FEF77BFA3E480088AB
:106D7000401C00B23C4908800846B0F900000528D4
:106D800006DB002008801249088005204149087070
:106D90002048007810F0100F04D11E48007810F041
:106DA000200F0FD000203C4908600BF036FF3B4914
:106DB00008602C48B0F9001039A0FEF752FA0520FF
:106DC0003449087000BF1CE6F001002014110020B7
:106DD000E6010020340E0020E4100020E0930400BF
:106DE000A810002068010020780100207401002014
:106DF000F0100020E80100200D0A46575F5356525C
:106E00003A2073656E64696E672025642062797428
:106E100065730000B4020020B00200200D0A46573E
:106E20005F5356523A20476F74204E657720446175
:106E300074613A256420627974657300F201002060
:106E400090130020A80200200D0A46575F535652A7
:106E50003A2073656E743A256420627974652873EC
:106E6000290D0A00E4010020E2010020B801002001
:106E7000C0D40100841300200D0A46575F535652B8
:106E80003A207265786D6974202564206279746592
:106E9000730D0A00E001002000020020040200201F
:106EA0000D0A46575F5356523A2074696D65646FF8
:106EB00075747C636C6F7365647C61626F727465FA
:106EC000642025640D0A000010B52C4809F045FC2B
:106ED00004F024FD294A3032A2F12001002004F000
:106EE00021FD274927480BF0ABFE10BD10B5264801
:106EF0000078002837D123480BF0ADFE18B12348A5
:106F00000078032808DB04F009FD00201F49087001
:106F10001B491C480BF094FE05F0BCFF06F001F87D
:106F2000B0B11B48006860B11A48006848B1184801
:106F3000006818490968884203D102F0EBFFFFF7A7
:106F400049FC02F0F1FFFFF7D4F8FFF754FC0AE028
:106F50000B490C480BF074FE02F0DCFFFFF73AFC23
:106F600000200A49087010BD10B5FFF7A8F9FFF717
:106F700041FD10BD10B503F033F910BD8E040020A3
:106F8000C0D4010084130020BC030020B8010020FD
:106F9000D80100200002002010B50BF00AFC10BD43
:106FA0002DE9F0416D480068401C6C4908606C4850
:106FB000006850B907200BF0E8FB012802D0FFF76A
:106FC000EBFF0CE00BF0F0FB09E064480068642183
:106FD000B0FBF1F201FB120008B9FFF7DDFF002062
:106FE0000BF0D3FB00F03F043F2C02DD0120BDE895
:106FF000F08104F03F045B48B0F900005A49088072
:1070000014F0200F04D0A4F140005649088003E09A
:1070100004F01F00534908805248008852490988EB
:10702000401A06B25148B0F90000514908800120C9
:107030000BF0ABFB00F03F043F2C01DD0120D6E755
:1070400004F03F0414F0200F04D0A4F1400047499D
:10705000088003E004F01F0044490880434800888A
:1070600043490988401A07B202200BF08EFB00F05A
:107070003F043F2C01DD0120B9E704F03F043D4807
:10708000B0F900003C49088014F0200F04D0A4F1AE
:1070900040003849088003E004F01F0035490880AB
:1070A0003448008834490988401A0FFA80F8002EC5
:1070B00001DA704206B2002F01DA784207B2B8F165
:1070C000000F03DAC8F100000FFA80F82B4991F89D
:1070D000771101EB410000EBD0714D10AE4203DAA5
:1070E000AF4201DAA84504DB25480078401C24495A
:1070F00008702448007868B12148007803282ADB0A
:107100002148006840F480401F49086000201C4965
:10711000087020E01348B0F900001C4908801348AB
:10712000B0F900001A4908801248B0F90000194966
:1071300008800C48B0F90000174908800B48B0F9E6
:107140000000164908800B48B0F900001449088077
:1071500000200B490870FF2049E7000010020020C2
:1071600014040020160200201C0200201802002037
:107170001E0200201A0200202002002058040020D5
:10718000140200200C0200208001002022020020B6
:107190002402002026020020280200202A020020CB
:1071A0002C02002005480047FEE7FEE7FEE7FEE769
:1071B000FEE7FEE7FEE7FEE7FEE7FEE7ED28000854
:1071C0000CB50020019000906B48006840F48030BE
:1071D0006949086000BF6848006800F4003000900A
:1071E0000198401C0190009818B90198B0F5A06F63
:1071F000F1D16148006810F4003F02D001200090F6
:1072000001E0002000900098012842D15B4800680E
:1072100040F01000594908600846006820F003005B
:1072200008600846006840F0010008605248406865
:10723000514948600846406848600846406840F444
:10724000806048600846406820F47C10486008462A
:10725000406840F4881048600846006840F080703C
:10726000086000BF4448006810F0007FFAD0424830
:10727000406820F00300404948600846406840F0FC
:107280000200486000BF3C48406800F00C0008283D
:10729000F9D10CBD10B5FFF793FF10BD10B53648FE
:1072A000006840F0010034490860084640683449ED
:1072B00008403149486008460068324908402E4974
:1072C00008600846006820F480200860084640688E
:1072D00020F4FE0048604FF41F008860FFF7DAFFDB
:1072E00029482A49086010BD10B50021002000225D
:1072F000214B5B6803F00C0121B1042906D0082959
:1073000028D107E0224B234C236027E0204B214C5F
:10731000236023E0184B5B6803F47010164B5B6826
:1073200003F48032022303EB904022B91A4B43430B
:10733000184C23600DE0104B5B6813F4003F04D041
:10734000154B4343134C236003E0114B4343114C53
:10735000236003E00E4B0F4C236000BF00BF064BC1
:107360005B68C3F303130D4CE15C0A4B1B68CB4015
:10737000084C236010BD00000010024000200240B5
:107380000000FFF8FFFFF6FE0028000808ED00E00F
:1073900000127A003002002000093D003402002073
:1073A00030B50246154800684FF47A71B0FBF1F031
:1073B0005043401E4FF0E021486148170921002842
:1073C00007DA0B071D0E0E4B00F00F04241F1D558E
:1073D00003E00B071C0E0B4B1C5400BF00204FF0AA
:1073E000E02188610720086130BD00204FF0E021D6
:1073F0000861704710B50BF0F3FB10BD30020020A0
:1074000018ED00E000E400E001460020FE4A1068AC
:1074100000F03800084310607047FB49096821F00C
:107420000801F94A1160114609680143116070476B
:10743000F549096821F01001F34A11601146096805
:10744000014311607047F148EF494860F0484860D7
:107450007047EE48EC494860ED4848607047EA489C
:10746000006940F08000E84908617047E64800691B
:1074700040F08000E449086170470420E249C9688F
:1074800011F0010F01D001200EE0DF49C96811F0B1
:10749000040F01D0022007E0DB49C96811F0100F8A
:1074A00001D0032000E00420704700B50246042309
:1074B000FFF7E3FF034603E0FFF7DFFF0346521E3B
:1074C000012B01D1002AF7D102B90523184600BDCE
:1074D00030B5044604254FF43020FFF7E6FF05469B
:1074E000042D17D1C848006940F00200C649086160
:1074F00008464461006940F0400008614FF43020C4
:10750000FFF7D3FF0546C048006941F6FD7108400A
:10751000BD490861284630BD10B504244FF4302021
:10752000FFF7C3FF0446042C16D1B748006940F0AA
:107530000400B54908610846006940F04000086150
:107540004FF43020FFF7B1FF0446AF48006941F621
:10755000FB710840AC490861204610BD00B50246E9
:107560000423FFF78AFF034603E0FFF786FF034685
:10757000521E012B01D1002AF7D102B9052318466A
:1075800000BD10B504244FF43020FFF7E7FF044698
:10759000042C16D19C48006940F004009A49086107
:1075A0000846006940F0400008614FF43020FFF7C2
:1075B000D5FF04469448006941F6FB7108409249A2
:1075C0000861204610BD00208F49C96911F0020FE3
:1075D00001D0012000E00020704730B5A52504242B
:1075E000FFF7F1FF00B100254FF43020FFF75DFFFA
:1075F0000446042C3AD185488349886084488860D1
:107600000846006940F0200008610846006940F023
:10761000400008614FF43020FFF747FF0446042C78
:107620001BD17948006941F6DF710840764908614D
:107630000846006940F01000086176480580E002C5
:10764000FFF733FF0446052C10D06F48006941F660
:10765000EF7108406C49086108E0052C06D06A48C3
:10766000006941F6EF71084067490861204630BD66
:1076700078B506460C46042500200090E802FFF786
:1076800014FF0546042D24D15F48006940F0010035
:107690005D4908613480E802FFF707FF0546042DC5
:1076A00010D1B01C0090200C00990880E802FFF770
:1076B000FCFE05465448006941F6FE7108405249F7
:1076C000086106E05048006941F6FE7108404E49E5
:1076D0000861284678BD70B504460D460426F002C0
:1076E000FFF7E3FE0646042E11D14748006940F03B
:1076F0000100454908612580F002FFF7D6FE0646E5
:107700004148006941F6FE7108403F490861304632
:1077100070BD70B505460E460424E002FFF7C5FEB5
:107720000446042C17D139483749886038488860A6
:107730000846006940F0100008612E80E002FFF763
:10774000B4FE0446052C06D02F48006941F6EF71BF
:1077500008402D490861204670BD2DE9F0430446DC
:107760004FF6FF763746B046B1460425E443E6B20D
:10777000C4F30727C4F307484FEA1469E802FFF788
:1077800094FE0546042D49D120481F4988602048B1
:1077900088600846006940F010000861FF2E06D09E
:1077A0001C4808300680E802FFF77FFE0546042DDE
:1077B00008D1FF2F06D017480A300780E802FFF7EC
:1077C00074FE0546042D0AD1B8F1FF0F07D0114809
:1077D0000C30A0F80080E802FFF767FE0546042D94
:1077E0000AD1B9F1FF0F07D00A480E30A0F8009077
:1077F000E802FFF75AFE0546052D0FD00248006942
:1078000041F6EF71084007E0002002402301674580
:10781000AB89EFCD00F8FF1F664908612846BDE837
:10782000F08330B5054604244FF43020FFF73DFEC9
:107830000446042C41D160485E4988605F488860F6
:107840000846006940F0200008610846006940F0E1
:10785000400008614FF43020FFF727FE0446042C57
:1078600022D15448006941F6DF710840514908614E
:107870000846006940F0100008611DB10020504921
:10788000088002E0A5204E4908804FF43020FFF721
:107890000CFE0446052C10D04648006941F6EF71F5
:1078A00008404449086108E0052C06D041480069B9
:1078B00041F6DF7108403F490861204630BDF0B510
:1078C00005460E46174604243B483A4988603B4823
:1078D0008860E002FFF7E9FD0446042C19D1354821
:1078E000006940F010003349086147F0F800304368
:1078F00028433349891C0880E002FFF7D6FD04467F
:10790000052C06D02B48006941F6EF710840294943
:1079100008612046F0BD2748C069800870472548A7
:10792000006A704700202349096811F0200F01D038
:10793000012000E00020704729B11E4A126902436D
:107940001C4B1A6104E01B4A12698243194B1A61ED
:10795000704701460020012908D1164AD26912F069
:10796000010F01D0012008E0002006E0114AD26892
:107970000A4201D0012000E0002070470D49C86094
:10798000704704200B49C96811F0010F01D0012094
:107990000EE00849C96811F0040F01D0022007E089
:1079A0000449C96811F0100F01D0032000E0042041
:1079B000704700000020024023016745AB89EFCDEE
:1079C00000F8FF1F0E49086070470D494860704776
:1079D0000B49886070474AF6AA2009490860704739
:1079E0004CF6CC4006490860704701460020044A26
:1079F000D2680A4201D0012000E000207047000058
:107A00000030004070B504460D46B948806940F426
:107A10008040B7498861B748006820F47F60B54965
:107A200008600846006840F0B0000860084600683A
:107A300040F48060086004EBC40000EB0410A9006F
:107A4000B0FBF1F06421B0FBF1F104EBC40000EBFA
:107A50000410AA00B0FBF2F004EBC40202EB041223
:107A6000AB00B2FBF3F26423B2FBF3F202EBC2030E
:107A700003EB0212A0EB8200322202EB0010642220
:107A8000B0FBF2F061F31F109B4908800020091D34
:107A90000880091D0880081F0088091F0880002031
:107AA00095490C3108809448001D008840F00C0076
:107AB0009149091D088090480C30008840F4C0604E
:107AC0008D490C3108808B48006820F4704089494A
:107AD00008600846006840F4804008600846006876
:107AE00020F4702008600846006840F440300860C8
:107AF00088148049103108607F48001D008840F0DC
:107B000020007D49091D08800A157C497C480AF03F
:107B100075FF7948001D008840F080007649091DF6
:107B200008800A15774978480AF068FF252009215E
:107B3000002807DA0A07160E744A00F00F031B1F0D
:107B4000D65403E00A07130E714A135400BF2520D0
:107B500000F01F020121914042094FF0E02303EBA6
:107B60008202C2F8001100BF6348001D008840F483
:107B700000506149091D088070BD5D48806920F48E
:107B800080405B4988615B48006820F47F60594908
:107B90000860704770B504465E4D00BF5A480AF051
:107BA00068FF59498968884203D32800A5F1010577
:107BB000F4D1214654480AF030FF4F48001D008898
:107BC00000F08000802807D04B48001D008840F05E
:107BD00080004949091D0880204670BD10B5044643
:107BE00003E014F8010BFFF7D5FF20780028F8D147
:107BF00010BD00BF40480838008810F0200FF9D0B1
:107C00003D48001F0088C0B2704708B5FF200090B3
:107C100039480838008810F0280F15D03648001F62
:107C20000088C0B200909DF8001035480AF0F5FEBB
:107C300033480AF01EFF324880683748007818B190
:107C40009DF8000008F0A5F92B480838008810F4CA
:107C5000007F32D028480838008820F40070264978
:107C6000083908802348001D006810F4006F0AD00E
:107C7000084600882048001D008820F080001E492A
:107C8000091D088032E069461F480AF0DBFE20BB70
:107C90001948001D008800F08000802807D0164891
:107CA000001D008840F080001349091D08809DF8E0
:107CB00000001149091F088018E00F4808380088A3
:107CC00010F0800F12D069460F480AF0BBFE28B9A9
:107CD0009DF800000849091F088007E00648001DBC
:107CE000008820F080000449091D088008BD0000BC
:107CF0000010024004080140083801409C13002095
:107D00009C1B00209C170020AC1B002018ED00E0FD
:107D100000E400E000E1F505BC03002070B5044676
:107D20000D466648C06940F400306449C861644843
:107D3000006820F47040624908600846006840F41A
:107D4000804008605D48C06940F400305B49C8610C
:107D500004EBC40000EB04104FF41641B0FBF1F04B
:107D60006421B0FBF1F104EBC40000EB04104FF40C
:107D70001642B0FBF2F004EBC40202EB04124FF423
:107D80001643B2FBF3F26423B2FBF3F202EBC2033D
:107D900003EB0212A0EB8200322202EB00106422FD
:107DA000B0FBF2F061F31F10464908800020091D66
:107DB0000880091D0880081F0088091F088000200E
:107DC00040490C3108803F48001D008840F00C00FD
:107DD0003C49091D088080223B493C480AF00EFEC0
:107DE0003848001D008840F020003649091D0880F1
:107DF00026200A21002807DA0A07160E344A00F066
:107E00000F031B1FD65403E00A07130E314A135405
:107E100000BF262000F01F020121914042094FF0CF
:107E2000E02303EB8202C2F8001100BF2548001DC9
:107E3000008840F400502349091D088070BD1F4888
:107E4000C06920F400301D49C8611D48006820F455
:107E500070401B490860704700BF1A4908390988FB
:107E600011F0800FF9D01749091F0880704700BF33
:107E700014480838008810F0200FF9D01148001F6E
:107E80000088C0B2704708B50E480838008810F066
:107E9000280F11D00B48001F0088C0B200909DF839
:107EA000000009F0F2F99DF8001008480AF0B5FD4D
:107EB000694606480AF0C6FD08BD000000100240F1
:107EC0000008014008440040BC1B00203C1C00206E
:107ED00018ED00E000E400E070B504460D46894866
:107EE000C06940F480208749C8618748006820F451
:107EF0007F40854908600846006840F430600860AB
:107F00000846006840F4004008607F480830006878
:107F100040F400607C490831086004EBC40000EBC9
:107F200004104FF4E121B0FBF1F06421B0FBF1F15A
:107F300004EBC40000EB04104FF4E122B0FBF2F0BC
:107F400004EBC40202EB04124FF4E123B2FBF3F2A0
:107F50006423B2FBF3F202EBC20303EB0212A0EBC9
:107F60008200322202EB00106422B0FBF2F061F3D7
:107F70001F10664908800020091D0880091D08801F
:107F8000081F0088091F0880002060490C31088004
:107F90005E48001D008840F00C005C49091D088007
:107FA0000846008840F0200008804A155849594882
:107FB0000AF024FD5548001D008840F08000534918
:107FC000091D08804A15544954480AF017FD272016
:107FD0000921002807DA0A07160E514A00F00F039C
:107FE0001B1FD65403E00A07130E4E4A135400BF5A
:107FF000272000F01F020121914042094FF0E023A9
:1080000003EB8202C2F8001100BF4048001D008847
:1080100040F400503D49091D088070BD3948C069D1
:1080200020F480203749C8613F48006820F4704040
:108030003D490860704770B504463C4D00BF374865
:108040000AF017FD35498968884203D32800A5F155
:108050000105F4D1214631480AF0DFFC2B48001D10
:10806000008800F08000802807D02848001D008884
:1080700040F080002549091D0880204670BD10B5DC
:10808000044603E014F8010BFFF7D5FF2078002821
:10809000F8D110BD00BF1D480838008810F0200F2F
:1080A000F9D01A48001F0088C0B2704708B51748B9
:1080B0000838008810F0280F09D01448001F0088E5
:1080C000C0B200909DF8001012480AF0A6FC0F48BC
:1080D0000838008810F0800F12D069460F480AF067
:1080E000B1FC28B99DF800000849091F088007E085
:1080F0000648001D008820F080000449091D088002
:1081000008BD000000100240040C01400848004077
:108110004C1C00204C2000204C1E00205C20002025
:1081200018ED00E000E400E00008014000E1F50582
:1081300030B585B0FC48C06940F40010FA49C86108
:10814000FA48006840F07060F84908600846006826
:1081500040F070400860684601F007FE029CF44859
:10816000008820F03F00F2490880F248B4FBF0F0AC
:1081700080B209880843EE490880081F008820F073
:108180000100091F0880EB48B4FBF0F0401CE849EF
:108190001C310880E848B4FBF0F0C0F34F05081F1D
:1081A0000580E348001F008840F00100E049091FF6
:1081B00008800846008840F480600880012008801C
:1081C00005B030BD0246DA48143001880904001FAA
:1081D0000088014321F07F4101EA0200904201D171
:1081E000002070470120FCE7F0B503460C4642F240
:1081F00010710025DEE0CE48001F008820F480606A
:10820000CB4F3F1F38803846008840F4807038805C
:1082100042F2107100BFC6481030008810F0010F04
:1082200002D1481E0100F6D141B9C148001F0088A3
:1082300040F40070BE4F3F1F3880B9E003F0FE00ED
:10824000BB4F0C37388042F2107100BFB848103075
:10825000008800F00200022802D0481E0100F5D17B
:1082600041B9B348001F008840F40070B04F3F1F71
:1082700038809DE0AE4814300088C6B2AC480C305F
:10828000048042F2107100BFA9481030008800F04D
:108290000400042802D0481E0100F5D141B9A448C9
:1082A000001F008840F40070A14F3F1F38807FE01E
:1082B0009F48001F008840F480709D4F3F1F38800A
:1082C00042F2107100BF9A481030008810F0010F80
:1082D00002D1481E0100F6D141B99548001F00881F
